{
	"schemaVersion": "2.0.0",
	"contractName": "Liquidity",
	"compilerOutput": {
		"abi": [
			{
				"anonymous": false,
				"inputs": [
					{
						"indexed": false,
						"internalType": "address",
						"name": "oldOwner",
						"type": "address"
					},
					{
						"indexed": false,
						"internalType": "address",
						"name": "newOwner",
						"type": "address"
					}
				],
				"name": "OwnershipTransferred",
				"type": "event"
			},
			{
				"constant": false,
				"inputs": [
					{
						"internalType": "uint256",
						"name": "x_amount",
						"type": "uint256"
					},
					{
						"internalType": "uint256",
						"name": "y_amount",
						"type": "uint256"
					}
				],
				"name": "addLiquidity",
				"outputs": [],
				"payable": false,
				"stateMutability": "nonpayable",
				"type": "function"
			},
			{
				"constant": true,
				"inputs": [
					{
						"internalType": "address",
						"name": "account",
						"type": "address"
					}
				],
				"name": "balanceOf",
				"outputs": [
					{
						"internalType": "uint256",
						"name": "",
						"type": "uint256"
					}
				],
				"payable": false,
				"stateMutability": "view",
				"type": "function"
			},
			{
				"constant": true,
				"inputs": [],
				"name": "gState",
				"outputs": [
					{
						"internalType": "bool",
						"name": "isInitialized",
						"type": "bool"
					},
					{
						"internalType": "address",
						"name": "xAddress",
						"type": "address"
					},
					{
						"internalType": "address",
						"name": "yAddress",
						"type": "address"
					},
					{
						"internalType": "int256",
						"name": "x",
						"type": "int256"
					},
					{
						"internalType": "int256",
						"name": "y",
						"type": "int256"
					},
					{
						"internalType": "uint256",
						"name": "l",
						"type": "uint256"
					},
					{
						"internalType": "int256",
						"name": "pBarX",
						"type": "int256"
					},
					{
						"internalType": "uint256",
						"name": "rhoNumerator",
						"type": "uint256"
					},
					{
						"internalType": "int256",
						"name": "rhoRatio",
						"type": "int256"
					},
					{
						"internalType": "int256",
						"name": "fee",
						"type": "int256"
					},
					{
						"internalType": "int256",
						"name": "feeHigh",
						"type": "int256"
					},
					{
						"internalType": "uint256",
						"name": "t",
						"type": "uint256"
					},
					{
						"internalType": "int256",
						"name": "beta",
						"type": "int256"
					},
					{
						"internalType": "int256",
						"name": "eToKappa",
						"type": "int256"
					}
				],
				"payable": false,
				"stateMutability": "view",
				"type": "function"
			},
			{
				"constant": false,
				"inputs": [
					{
						"internalType": "address",
						"name": "xAddress",
						"type": "address"
					},
					{
						"internalType": "address",
						"name": "yAddress",
						"type": "address"
					}
				],
				"name": "initState",
				"outputs": [],
				"payable": false,
				"stateMutability": "nonpayable",
				"type": "function"
			},
			{
				"constant": true,
				"inputs": [],
				"name": "owner",
				"outputs": [
					{
						"internalType": "address",
						"name": "",
						"type": "address"
					}
				],
				"payable": false,
				"stateMutability": "view",
				"type": "function"
			},
			{
				"constant": false,
				"inputs": [
					{
						"internalType": "uint256",
						"name": "l_amount",
						"type": "uint256"
					}
				],
				"name": "removeLiquidity",
				"outputs": [],
				"payable": false,
				"stateMutability": "nonpayable",
				"type": "function"
			},
			{
				"constant": false,
				"inputs": [
					{
						"internalType": "address",
						"name": "newOwner",
						"type": "address"
					}
				],
				"name": "transferOwnership",
				"outputs": [],
				"payable": false,
				"stateMutability": "nonpayable",
				"type": "function"
			}
		],
		"devdoc": {
			"methods": {
				"addLiquidity(uint256,uint256)": {
					"details": "Allows a sender to deposit tokens into the contract to provide liquidity.",
					"params": {
						"x_amount": "The amount of x that should be taken from the sender's balance.",
						"y_amount": "The amount of x that should be taken from the sender's balance."
					}
				},
				"removeLiquidity(uint256)": {
					"details": "Allows a sender to withdraw tokens by burning liquidity tokens.",
					"params": {
						"l_amount": "The amount of liquidity tokens to burn."
					}
				}
			}
		},
		"evm": {
			"bytecode": {
				"linkReferences": {},
				"object": "0x6080604052600080546001600160a01b0319163317905561154a806100256000396000f3fe608060405234801561001057600080fd5b506004361061007d5760003560e01c80639c8f9f231161005b5780639c8f9f23146100d55780639cd441da146100e8578063afd46eb5146100fb578063f2fde38b1461011d5761007d565b806370a08231146100825780637b689036146100ab5780638da5cb5b146100c0575b600080fd5b610095610090366004610f0b565b610130565b6040516100a291906114fe565b60405180910390f35b6100be6100b9366004610f26565b610158565b005b6100c861016e565b6040516100a29190610fcd565b6100be6100e3366004610f7a565b61018a565b6100be6100f6366004610f92565b6103c7565b610103610680565b6040516100a29e9d9c9b9a9998979695949392919061106c565b6100be61012b366004610f0b565b6106d9565b73ffffffffffffffffffffffffffffffffffffffff166000908152600c602052604090205490565b6101606107ab565b61016a82826107fe565b5050565b60005473ffffffffffffffffffffffffffffffffffffffff1681565b6005546003546001916000916101bb91906101af908690607f1c63ffffffff61095116565b9063ffffffff6109ae16565b905060006101e283600401546101af607f8660030154901c8761095190919063ffffffff16565b90506101fa83600201546101f5846109fb565b610a51565b60028401556003830154610211906101f5836109fb565b6003840155336000908152600b84016020526040902054610238908563ffffffff610ac116565b336000908152600b85016020526040902055600483015461025f908563ffffffff610b0316565b60048481019190915583546040517fa9059cbb00000000000000000000000000000000000000000000000000000000815261010090910473ffffffffffffffffffffffffffffffffffffffff169163a9059cbb916102c1913391879101611046565b602060405180830381600087803b1580156102db57600080fd5b505af11580156102ef573d6000803e3d6000fd5b505050506040513d601f19601f820116820180604052506103139190810190610f5a565b5060018301546040517fa9059cbb00000000000000000000000000000000000000000000000000000000815273ffffffffffffffffffffffffffffffffffffffff9091169063a9059cbb9061036e9033908590600401611046565b602060405180830381600087803b15801561038857600080fd5b505af115801561039c573d6000803e3d6000fd5b505050506040513d601f19601f820116820180604052506103c09190810190610f5a565b5050505050565b600160006103dd84670de0b6b3a7640000610b42565b905060006103ee84620f4240610b42565b9050610407836002015482610bdc90919063ffffffff16565b600384015461041d90849063ffffffff610bdc16565b1461045d576040517f08c379a00000000000000000000000000000000000000000000000000000000081526004016104549061112d565b60405180910390fd5b82546040517f23b872dd00000000000000000000000000000000000000000000000000000000815261010090910473ffffffffffffffffffffffffffffffffffffffff16906323b872dd906104ba90339030908a90600401611015565b602060405180830381600087803b1580156104d457600080fd5b505af11580156104e8573d6000803e3d6000fd5b505050506040513d601f19601f8201168201806040525061050c9190810190610f5a565b5060018301546040517f23b872dd00000000000000000000000000000000000000000000000000000000815273ffffffffffffffffffffffffffffffffffffffff909116906323b872dd9061056990339030908990600401611015565b602060405180830381600087803b15801561058357600080fd5b505af1158015610597573d6000803e3d6000fd5b505050506040513d601f19601f820116820180604052506105bb9190810190610f5a565b5060008360020154600014156105da5750600160048401556000610600565b6105fd607f8560020154901c6101af86600401548961095190919063ffffffff16565b90505b61060e846002015484610c9a565b600285015560038401546106229083610c9a565b6003850155336000908152600b85016020526040902054610649908263ffffffff610b0316565b336000908152600b860160205260409020556004840154610670908263ffffffff610b0316565b8460040181905550505050505050565b600154600254600354600454600554600654600754600854600954600a54600b54600d54600e5460ff8d169c73ffffffffffffffffffffffffffffffffffffffff61010090910481169c169a999897969594939291908e565b6106e16107ab565b73ffffffffffffffffffffffffffffffffffffffff811661072e576040517f08c379a000000000000000000000000000000000000000000000000000000000815260040161045490611357565b600080547fffffffffffffffffffffffff00000000000000000000000000000000000000001673ffffffffffffffffffffffffffffffffffffffff83161790556040517f8be0079c531659141344cd1fd0a4f28419497f9722a3daafe3b4186f6b6457e0906107a09033908490610fee565b60405180910390a150565b60005473ffffffffffffffffffffffffffffffffffffffff1633146107fc576040517f08c379a0000000000000000000000000000000000000000000000000000000008152600401610454906111f8565b565b60015460ff161561083b576040517f08c379a00000000000000000000000000000000000000000000000000000000081526004016104549061122f565b600180547fffffffffffffffffffffff0000000000000000000000000000000000000000ff1661010073ffffffffffffffffffffffffffffffffffffffff8581169190910291909117909155600280547fffffffffffffffffffffffff0000000000000000000000000000000000000000169183169190911790556108c260636064610b42565b600655606360078190556108d7906064610b42565b6008556108e76005612710610b42565b60095561090f6108fb6001620f4240610ca6565b610903610cc5565b9063ffffffff610a5116565b600d556109206127156103e8610ca6565b600e555050600180547fffffffffffffffffffffffffffffffffffffffffffffffffffffffffffffff001681179055565b600082610960575060006109a8565b8282028284828161096d57fe5b04146109a5576040517f08c379a000000000000000000000000000000000000000000000000000000000815260040161045490611320565b90505b92915050565b6000816109e7576040517f08c379a00000000000000000000000000000000000000000000000000000000081526004016104549061118a565b60008284816109f257fe5b04949350505050565b600080821215610a37576040517f08c379a0000000000000000000000000000000000000000000000000000000008152600401610454906112c3565b6109a8826f80000000000000000000000000000000610cd9565b60007f8000000000000000000000000000000000000000000000000000000000000000821415610aad576040517f08c379a0000000000000000000000000000000000000000000000000000000008152600401610454906113fc565b610aba8383600003610d4f565b9392505050565b600082821115610afd576040517f08c379a0000000000000000000000000000000000000000000000000000000008152600401610454906111c1565b50900390565b6000828201838110156109a5576040517f08c379a0000000000000000000000000000000000000000000000000000000008152600401610454906110f6565b600080831215610b7e576040517f08c379a000000000000000000000000000000000000000000000000000000000815260040161045490611433565b6000821215610bb9576040517f08c379a000000000000000000000000000000000000000000000000000000000815260040161045490611266565b610aba610bd6846f80000000000000000000000000000000610cd9565b83610dc5565b600080610c0d6f80000000000000000000000000000000610c08610bff87610e94565b610c0887610e94565b610cd9565b90506000610c26610c1d86610eaa565b610c0886610e94565b90506000610c3f610c3687610e94565b610c0887610eaa565b90506000610c71610c5b610c5289610eaa565b610c0889610eaa565b6f80000000000000000000000000000000610dc5565b9050610c8f610c89610c838686610d4f565b84610d4f565b82610d4f565b979650505050505050565b6000610aba8383610d4f565b6000610aba610bd6846f80000000000000000000000000000000610cd9565b6f8000000000000000000000000000000090565b6000821580610ce6575081155b15610cf3575060006109a8565b5081810281838281610d0157fe5b05141580610d18575082828281610d1457fe5b0514155b156109a8576040517f08c379a00000000000000000000000000000000000000000000000000000000081526004016104549061138e565b818101600083128015610d625750600082125b8015610d6d57508281135b80610d8e5750600083138015610d835750600082135b8015610d8e57508281125b156109a8576040517f08c379a0000000000000000000000000000000000000000000000000000000008152600401610454906113c5565b600081610dfe576040517f08c379a000000000000000000000000000000000000000000000000000000000815260040161045490611490565b7f800000000000000000000000000000000000000000000000000000000000000083148015610e4c5750817fffffffffffffffffffffffffffffffffffffffffffffffffffffffffffffffff145b15610e83576040517f08c379a0000000000000000000000000000000000000000000000000000000008152600401610454906114c7565b818381610e8c57fe5b059392505050565b6f80000000000000000000000000000000900590565b6000808213610ed1576f7fffffffffffffffffffffffffffffff82600003166000036109a8565b506f7fffffffffffffffffffffffffffffff1690565b803573ffffffffffffffffffffffffffffffffffffffff811681146109a857600080fd5b600060208284031215610f1c578081fd5b610aba8383610ee7565b60008060408385031215610f38578081fd5b610f428484610ee7565b9150610f518460208501610ee7565b90509250929050565b600060208284031215610f6b578081fd5b815180151581146109a5578182fd5b600060208284031215610f8b578081fd5b5035919050565b60008060408385031215610fa4578182fd5b50508035926020909101359150565b73ffffffffffffffffffffffffffffffffffffffff169052565b73ffffffffffffffffffffffffffffffffffffffff91909116815260200190565b73ffffffffffffffffffffffffffffffffffffffff92831681529116602082015260400190565b73ffffffffffffffffffffffffffffffffffffffff9384168152919092166020820152604081019190915260600190565b73ffffffffffffffffffffffffffffffffffffffff929092168252602082015260400190565b8e1515815273ffffffffffffffffffffffffffffffffffffffff8e1660208201526101c0810161109f604083018f610fb3565b606082019c909c52608081019a909a5260a08a019890985260c089019690965260e08801949094526101008701929092526101208601526101408501526101608401526101808301526101a0909101529392505050565b60208082526011908201527f736166654164643a206f766572666c6f77000000000000000000000000000000604082015260600190565b6020808252602a908201527f4c697175696474793a416d6f756e74206465706f7369746564206e6f7420707260408201527f6f706f7274696f6e616c00000000000000000000000000000000000000000000606082015260800190565b60208082526011908201527f736166654469763a206f766572666c6f77000000000000000000000000000000604082015260600190565b60208082526012908201527f736166655375623a20756e646572666c6f770000000000000000000000000000604082015260600190565b6020808252600e908201527f4f6e6c794f776e65724572726f72000000000000000000000000000000000000604082015260600190565b60208082526013908201527f416c726561647920496e697469616c697a656400000000000000000000000000604082015260600190565b60208082526038908201527f746f46697865642875696e742c75696e74293a2064656e6f6d696e61746f722060408201527f63616e6e6f74206265206c657373207468616e207a65726f0000000000000000606082015260800190565b60208082526027908201527f746f46697865643a2076616c75652063616e6e6f74206265206c65737320746860408201527f616e207a65726f00000000000000000000000000000000000000000000000000606082015260800190565b60208082526011908201527f736166654d756c3a206f766572666c6f77000000000000000000000000000000604082015260600190565b60208082526018908201527f5472616e736665724f776e6572546f5a65726f4572726f720000000000000000604082015260600190565b6020808252600e908201527f5f6d756c3a206f766572666c6f77000000000000000000000000000000000000604082015260600190565b6020808252600e908201527f5f6164643a206f766572666c6f77000000000000000000000000000000000000604082015260600190565b60208082526014908201527f7375623a2076616c756520746f6f20736d616c6c000000000000000000000000604082015260600190565b60208082526036908201527f746f46697865642875696e742c75696e74293a206e756d657261746f7220636160408201527f6e6e6f74206265206c657373207468616e207a65726f00000000000000000000606082015260800190565b60208082526014908201527f5f6469763a20646976696465206279207a65726f000000000000000000000000604082015260600190565b6020808252600e908201527f5f6469763a206f766572666c6f77000000000000000000000000000000000000604082015260600190565b9081526020019056fea365627a7a723158205f9c3dc4ee614eec32172aba3b60db323db0d9f9ed24560c1a012003da06c02d6c6578706572696d656e74616cf564736f6c634300050c0040",
				"opcodes": "PUSH1 0x80 PUSH1 0x40 MSTORE PUSH1 0x0 DUP1 SLOAD PUSH1 0x1 PUSH1 0x1 PUSH1 0xA0 SHL SUB NOT AND CALLER OR SWAP1 SSTORE PUSH2 0x154A DUP1 PUSH2 0x25 PUSH1 0x0 CODECOPY PUSH1 0x0 RETURN INVALID PUSH1 0x80 PUSH1 0x40 MSTORE CALLVALUE DUP1 ISZERO PUSH2 0x10 JUMPI PUSH1 0x0 DUP1 REVERT JUMPDEST POP PUSH1 0x4 CALLDATASIZE LT PUSH2 0x7D JUMPI PUSH1 0x0 CALLDATALOAD PUSH1 0xE0 SHR DUP1 PUSH4 0x9C8F9F23 GT PUSH2 0x5B JUMPI DUP1 PUSH4 0x9C8F9F23 EQ PUSH2 0xD5 JUMPI DUP1 PUSH4 0x9CD441DA EQ PUSH2 0xE8 JUMPI DUP1 PUSH4 0xAFD46EB5 EQ PUSH2 0xFB JUMPI DUP1 PUSH4 0xF2FDE38B EQ PUSH2 0x11D JUMPI PUSH2 0x7D JUMP JUMPDEST DUP1 PUSH4 0x70A08231 EQ PUSH2 0x82 JUMPI DUP1 PUSH4 0x7B689036 EQ PUSH2 0xAB JUMPI DUP1 PUSH4 0x8DA5CB5B EQ PUSH2 0xC0 JUMPI JUMPDEST PUSH1 0x0 DUP1 REVERT JUMPDEST PUSH2 0x95 PUSH2 0x90 CALLDATASIZE PUSH1 0x4 PUSH2 0xF0B JUMP JUMPDEST PUSH2 0x130 JUMP JUMPDEST PUSH1 0x40 MLOAD PUSH2 0xA2 SWAP2 SWAP1 PUSH2 0x14FE JUMP JUMPDEST PUSH1 0x40 MLOAD DUP1 SWAP2 SUB SWAP1 RETURN JUMPDEST PUSH2 0xBE PUSH2 0xB9 CALLDATASIZE PUSH1 0x4 PUSH2 0xF26 JUMP JUMPDEST PUSH2 0x158 JUMP JUMPDEST STOP JUMPDEST PUSH2 0xC8 PUSH2 0x16E JUMP JUMPDEST PUSH1 0x40 MLOAD PUSH2 0xA2 SWAP2 SWAP1 PUSH2 0xFCD JUMP JUMPDEST PUSH2 0xBE PUSH2 0xE3 CALLDATASIZE PUSH1 0x4 PUSH2 0xF7A JUMP JUMPDEST PUSH2 0x18A JUMP JUMPDEST PUSH2 0xBE PUSH2 0xF6 CALLDATASIZE PUSH1 0x4 PUSH2 0xF92 JUMP JUMPDEST PUSH2 0x3C7 JUMP JUMPDEST PUSH2 0x103 PUSH2 0x680 JUMP JUMPDEST PUSH1 0x40 MLOAD PUSH2 0xA2 SWAP15 SWAP14 SWAP13 SWAP12 SWAP11 SWAP10 SWAP9 SWAP8 SWAP7 SWAP6 SWAP5 SWAP4 SWAP3 SWAP2 SWAP1 PUSH2 0x106C JUMP JUMPDEST PUSH2 0xBE PUSH2 0x12B CALLDATASIZE PUSH1 0x4 PUSH2 0xF0B JUMP JUMPDEST PUSH2 0x6D9 JUMP JUMPDEST PUSH20 0xFFFFFFFFFFFFFFFFFFFFFFFFFFFFFFFFFFFFFFFF AND PUSH1 0x0 SWAP1 DUP2 MSTORE PUSH1 0xC PUSH1 0x20 MSTORE PUSH1 0x40 SWAP1 KECCAK256 SLOAD SWAP1 JUMP JUMPDEST PUSH2 0x160 PUSH2 0x7AB JUMP JUMPDEST PUSH2 0x16A DUP3 DUP3 PUSH2 0x7FE JUMP JUMPDEST POP POP JUMP JUMPDEST PUSH1 0x0 SLOAD PUSH20 0xFFFFFFFFFFFFFFFFFFFFFFFFFFFFFFFFFFFFFFFF AND DUP2 JUMP JUMPDEST PUSH1 0x5 SLOAD PUSH1 0x3 SLOAD PUSH1 0x1 SWAP2 PUSH1 0x0 SWAP2 PUSH2 0x1BB SWAP2 SWAP1 PUSH2 0x1AF SWAP1 DUP7 SWAP1 PUSH1 0x7F SHR PUSH4 0xFFFFFFFF PUSH2 0x951 AND JUMP JUMPDEST SWAP1 PUSH4 0xFFFFFFFF PUSH2 0x9AE AND JUMP JUMPDEST SWAP1 POP PUSH1 0x0 PUSH2 0x1E2 DUP4 PUSH1 0x4 ADD SLOAD PUSH2 0x1AF PUSH1 0x7F DUP7 PUSH1 0x3 ADD SLOAD SWAP1 SHR DUP8 PUSH2 0x951 SWAP1 SWAP2 SWAP1 PUSH4 0xFFFFFFFF AND JUMP JUMPDEST SWAP1 POP PUSH2 0x1FA DUP4 PUSH1 0x2 ADD SLOAD PUSH2 0x1F5 DUP5 PUSH2 0x9FB JUMP JUMPDEST PUSH2 0xA51 JUMP JUMPDEST PUSH1 0x2 DUP5 ADD SSTORE PUSH1 0x3 DUP4 ADD SLOAD PUSH2 0x211 SWAP1 PUSH2 0x1F5 DUP4 PUSH2 0x9FB JUMP JUMPDEST PUSH1 0x3 DUP5 ADD SSTORE CALLER PUSH1 0x0 SWAP1 DUP2 MSTORE PUSH1 0xB DUP5 ADD PUSH1 0x20 MSTORE PUSH1 0x40 SWAP1 KECCAK256 SLOAD PUSH2 0x238 SWAP1 DUP6 PUSH4 0xFFFFFFFF PUSH2 0xAC1 AND JUMP JUMPDEST CALLER PUSH1 0x0 SWAP1 DUP2 MSTORE PUSH1 0xB DUP6 ADD PUSH1 0x20 MSTORE PUSH1 0x40 SWAP1 KECCAK256 SSTORE PUSH1 0x4 DUP4 ADD SLOAD PUSH2 0x25F SWAP1 DUP6 PUSH4 0xFFFFFFFF PUSH2 0xB03 AND JUMP JUMPDEST PUSH1 0x4 DUP5 DUP2 ADD SWAP2 SWAP1 SWAP2 SSTORE DUP4 SLOAD PUSH1 0x40 MLOAD PUSH32 0xA9059CBB00000000000000000000000000000000000000000000000000000000 DUP2 MSTORE PUSH2 0x100 SWAP1 SWAP2 DIV PUSH20 0xFFFFFFFFFFFFFFFFFFFFFFFFFFFFFFFFFFFFFFFF AND SWAP2 PUSH4 0xA9059CBB SWAP2 PUSH2 0x2C1 SWAP2 CALLER SWAP2 DUP8 SWAP2 ADD PUSH2 0x1046 JUMP JUMPDEST PUSH1 0x20 PUSH1 0x40 MLOAD DUP1 DUP4 SUB DUP2 PUSH1 0x0 DUP8 DUP1 EXTCODESIZE ISZERO DUP1 ISZERO PUSH2 0x2DB JUMPI PUSH1 0x0 DUP1 REVERT JUMPDEST POP GAS CALL ISZERO DUP1 ISZERO PUSH2 0x2EF JUMPI RETURNDATASIZE PUSH1 0x0 DUP1 RETURNDATACOPY RETURNDATASIZE PUSH1 0x0 REVERT JUMPDEST POP POP POP POP PUSH1 0x40 MLOAD RETURNDATASIZE PUSH1 0x1F NOT PUSH1 0x1F DUP3 ADD AND DUP3 ADD DUP1 PUSH1 0x40 MSTORE POP PUSH2 0x313 SWAP2 SWAP1 DUP2 ADD SWAP1 PUSH2 0xF5A JUMP JUMPDEST POP PUSH1 0x1 DUP4 ADD SLOAD PUSH1 0x40 MLOAD PUSH32 0xA9059CBB00000000000000000000000000000000000000000000000000000000 DUP2 MSTORE PUSH20 0xFFFFFFFFFFFFFFFFFFFFFFFFFFFFFFFFFFFFFFFF SWAP1 SWAP2 AND SWAP1 PUSH4 0xA9059CBB SWAP1 PUSH2 0x36E SWAP1 CALLER SWAP1 DUP6 SWAP1 PUSH1 0x4 ADD PUSH2 0x1046 JUMP JUMPDEST PUSH1 0x20 PUSH1 0x40 MLOAD DUP1 DUP4 SUB DUP2 PUSH1 0x0 DUP8 DUP1 EXTCODESIZE ISZERO DUP1 ISZERO PUSH2 0x388 JUMPI PUSH1 0x0 DUP1 REVERT JUMPDEST POP GAS CALL ISZERO DUP1 ISZERO PUSH2 0x39C JUMPI RETURNDATASIZE PUSH1 0x0 DUP1 RETURNDATACOPY RETURNDATASIZE PUSH1 0x0 REVERT JUMPDEST POP POP POP POP PUSH1 0x40 MLOAD RETURNDATASIZE PUSH1 0x1F NOT PUSH1 0x1F DUP3 ADD AND DUP3 ADD DUP1 PUSH1 0x40 MSTORE POP PUSH2 0x3C0 SWAP2 SWAP1 DUP2 ADD SWAP1 PUSH2 0xF5A JUMP JUMPDEST POP POP POP POP POP JUMP JUMPDEST PUSH1 0x1 PUSH1 0x0 PUSH2 0x3DD DUP5 PUSH8 0xDE0B6B3A7640000 PUSH2 0xB42 JUMP JUMPDEST SWAP1 POP PUSH1 0x0 PUSH2 0x3EE DUP5 PUSH3 0xF4240 PUSH2 0xB42 JUMP JUMPDEST SWAP1 POP PUSH2 0x407 DUP4 PUSH1 0x2 ADD SLOAD DUP3 PUSH2 0xBDC SWAP1 SWAP2 SWAP1 PUSH4 0xFFFFFFFF AND JUMP JUMPDEST PUSH1 0x3 DUP5 ADD SLOAD PUSH2 0x41D SWAP1 DUP5 SWAP1 PUSH4 0xFFFFFFFF PUSH2 0xBDC AND JUMP JUMPDEST EQ PUSH2 0x45D JUMPI PUSH1 0x40 MLOAD PUSH32 0x8C379A000000000000000000000000000000000000000000000000000000000 DUP2 MSTORE PUSH1 0x4 ADD PUSH2 0x454 SWAP1 PUSH2 0x112D JUMP JUMPDEST PUSH1 0x40 MLOAD DUP1 SWAP2 SUB SWAP1 REVERT JUMPDEST DUP3 SLOAD PUSH1 0x40 MLOAD PUSH32 0x23B872DD00000000000000000000000000000000000000000000000000000000 DUP2 MSTORE PUSH2 0x100 SWAP1 SWAP2 DIV PUSH20 0xFFFFFFFFFFFFFFFFFFFFFFFFFFFFFFFFFFFFFFFF AND SWAP1 PUSH4 0x23B872DD SWAP1 PUSH2 0x4BA SWAP1 CALLER SWAP1 ADDRESS SWAP1 DUP11 SWAP1 PUSH1 0x4 ADD PUSH2 0x1015 JUMP JUMPDEST PUSH1 0x20 PUSH1 0x40 MLOAD DUP1 DUP4 SUB DUP2 PUSH1 0x0 DUP8 DUP1 EXTCODESIZE ISZERO DUP1 ISZERO PUSH2 0x4D4 JUMPI PUSH1 0x0 DUP1 REVERT JUMPDEST POP GAS CALL ISZERO DUP1 ISZERO PUSH2 0x4E8 JUMPI RETURNDATASIZE PUSH1 0x0 DUP1 RETURNDATACOPY RETURNDATASIZE PUSH1 0x0 REVERT JUMPDEST POP POP POP POP PUSH1 0x40 MLOAD RETURNDATASIZE PUSH1 0x1F NOT PUSH1 0x1F DUP3 ADD AND DUP3 ADD DUP1 PUSH1 0x40 MSTORE POP PUSH2 0x50C SWAP2 SWAP1 DUP2 ADD SWAP1 PUSH2 0xF5A JUMP JUMPDEST POP PUSH1 0x1 DUP4 ADD SLOAD PUSH1 0x40 MLOAD PUSH32 0x23B872DD00000000000000000000000000000000000000000000000000000000 DUP2 MSTORE PUSH20 0xFFFFFFFFFFFFFFFFFFFFFFFFFFFFFFFFFFFFFFFF SWAP1 SWAP2 AND SWAP1 PUSH4 0x23B872DD SWAP1 PUSH2 0x569 SWAP1 CALLER SWAP1 ADDRESS SWAP1 DUP10 SWAP1 PUSH1 0x4 ADD PUSH2 0x1015 JUMP JUMPDEST PUSH1 0x20 PUSH1 0x40 MLOAD DUP1 DUP4 SUB DUP2 PUSH1 0x0 DUP8 DUP1 EXTCODESIZE ISZERO DUP1 ISZERO PUSH2 0x583 JUMPI PUSH1 0x0 DUP1 REVERT JUMPDEST POP GAS CALL ISZERO DUP1 ISZERO PUSH2 0x597 JUMPI RETURNDATASIZE PUSH1 0x0 DUP1 RETURNDATACOPY RETURNDATASIZE PUSH1 0x0 REVERT JUMPDEST POP POP POP POP PUSH1 0x40 MLOAD RETURNDATASIZE PUSH1 0x1F NOT PUSH1 0x1F DUP3 ADD AND DUP3 ADD DUP1 PUSH1 0x40 MSTORE POP PUSH2 0x5BB SWAP2 SWAP1 DUP2 ADD SWAP1 PUSH2 0xF5A JUMP JUMPDEST POP PUSH1 0x0 DUP4 PUSH1 0x2 ADD SLOAD PUSH1 0x0 EQ ISZERO PUSH2 0x5DA JUMPI POP PUSH1 0x1 PUSH1 0x4 DUP5 ADD SSTORE PUSH1 0x0 PUSH2 0x600 JUMP JUMPDEST PUSH2 0x5FD PUSH1 0x7F DUP6 PUSH1 0x2 ADD SLOAD SWAP1 SHR PUSH2 0x1AF DUP7 PUSH1 0x4 ADD SLOAD DUP10 PUSH2 0x951 SWAP1 SWAP2 SWAP1 PUSH4 0xFFFFFFFF AND JUMP JUMPDEST SWAP1 POP JUMPDEST PUSH2 0x60E DUP5 PUSH1 0x2 ADD SLOAD DUP5 PUSH2 0xC9A JUMP JUMPDEST PUSH1 0x2 DUP6 ADD SSTORE PUSH1 0x3 DUP5 ADD SLOAD PUSH2 0x622 SWAP1 DUP4 PUSH2 0xC9A JUMP JUMPDEST PUSH1 0x3 DUP6 ADD SSTORE CALLER PUSH1 0x0 SWAP1 DUP2 MSTORE PUSH1 0xB DUP6 ADD PUSH1 0x20 MSTORE PUSH1 0x40 SWAP1 KECCAK256 SLOAD PUSH2 0x649 SWAP1 DUP3 PUSH4 0xFFFFFFFF PUSH2 0xB03 AND JUMP JUMPDEST CALLER PUSH1 0x0 SWAP1 DUP2 MSTORE PUSH1 0xB DUP7 ADD PUSH1 0x20 MSTORE PUSH1 0x40 SWAP1 KECCAK256 SSTORE PUSH1 0x4 DUP5 ADD SLOAD PUSH2 0x670 SWAP1 DUP3 PUSH4 0xFFFFFFFF PUSH2 0xB03 AND JUMP JUMPDEST DUP5 PUSH1 0x4 ADD DUP2 SWAP1 SSTORE POP POP POP POP POP POP POP JUMP JUMPDEST PUSH1 0x1 SLOAD PUSH1 0x2 SLOAD PUSH1 0x3 SLOAD PUSH1 0x4 SLOAD PUSH1 0x5 SLOAD PUSH1 0x6 SLOAD PUSH1 0x7 SLOAD PUSH1 0x8 SLOAD PUSH1 0x9 SLOAD PUSH1 0xA SLOAD PUSH1 0xB SLOAD PUSH1 0xD SLOAD PUSH1 0xE SLOAD PUSH1 0xFF DUP14 AND SWAP13 PUSH20 0xFFFFFFFFFFFFFFFFFFFFFFFFFFFFFFFFFFFFFFFF PUSH2 0x100 SWAP1 SWAP2 DIV DUP2 AND SWAP13 AND SWAP11 SWAP10 SWAP9 SWAP8 SWAP7 SWAP6 SWAP5 SWAP4 SWAP3 SWAP2 SWAP1 DUP15 JUMP JUMPDEST PUSH2 0x6E1 PUSH2 0x7AB JUMP JUMPDEST PUSH20 0xFFFFFFFFFFFFFFFFFFFFFFFFFFFFFFFFFFFFFFFF DUP2 AND PUSH2 0x72E JUMPI PUSH1 0x40 MLOAD PUSH32 0x8C379A000000000000000000000000000000000000000000000000000000000 DUP2 MSTORE PUSH1 0x4 ADD PUSH2 0x454 SWAP1 PUSH2 0x1357 JUMP JUMPDEST PUSH1 0x0 DUP1 SLOAD PUSH32 0xFFFFFFFFFFFFFFFFFFFFFFFF0000000000000000000000000000000000000000 AND PUSH20 0xFFFFFFFFFFFFFFFFFFFFFFFFFFFFFFFFFFFFFFFF DUP4 AND OR SWAP1 SSTORE PUSH1 0x40 MLOAD PUSH32 0x8BE0079C531659141344CD1FD0A4F28419497F9722A3DAAFE3B4186F6B6457E0 SWAP1 PUSH2 0x7A0 SWAP1 CALLER SWAP1 DUP5 SWAP1 PUSH2 0xFEE JUMP JUMPDEST PUSH1 0x40 MLOAD DUP1 SWAP2 SUB SWAP1 LOG1 POP JUMP JUMPDEST PUSH1 0x0 SLOAD PUSH20 0xFFFFFFFFFFFFFFFFFFFFFFFFFFFFFFFFFFFFFFFF AND CALLER EQ PUSH2 0x7FC JUMPI PUSH1 0x40 MLOAD PUSH32 0x8C379A000000000000000000000000000000000000000000000000000000000 DUP2 MSTORE PUSH1 0x4 ADD PUSH2 0x454 SWAP1 PUSH2 0x11F8 JUMP JUMPDEST JUMP JUMPDEST PUSH1 0x1 SLOAD PUSH1 0xFF AND ISZERO PUSH2 0x83B JUMPI PUSH1 0x40 MLOAD PUSH32 0x8C379A000000000000000000000000000000000000000000000000000000000 DUP2 MSTORE PUSH1 0x4 ADD PUSH2 0x454 SWAP1 PUSH2 0x122F JUMP JUMPDEST PUSH1 0x1 DUP1 SLOAD PUSH32 0xFFFFFFFFFFFFFFFFFFFFFF0000000000000000000000000000000000000000FF AND PUSH2 0x100 PUSH20 0xFFFFFFFFFFFFFFFFFFFFFFFFFFFFFFFFFFFFFFFF DUP6 DUP2 AND SWAP2 SWAP1 SWAP2 MUL SWAP2 SWAP1 SWAP2 OR SWAP1 SWAP2 SSTORE PUSH1 0x2 DUP1 SLOAD PUSH32 0xFFFFFFFFFFFFFFFFFFFFFFFF0000000000000000000000000000000000000000 AND SWAP2 DUP4 AND SWAP2 SWAP1 SWAP2 OR SWAP1 SSTORE PUSH2 0x8C2 PUSH1 0x63 PUSH1 0x64 PUSH2 0xB42 JUMP JUMPDEST PUSH1 0x6 SSTORE PUSH1 0x63 PUSH1 0x7 DUP2 SWAP1 SSTORE PUSH2 0x8D7 SWAP1 PUSH1 0x64 PUSH2 0xB42 JUMP JUMPDEST PUSH1 0x8 SSTORE PUSH2 0x8E7 PUSH1 0x5 PUSH2 0x2710 PUSH2 0xB42 JUMP JUMPDEST PUSH1 0x9 SSTORE PUSH2 0x90F PUSH2 0x8FB PUSH1 0x1 PUSH3 0xF4240 PUSH2 0xCA6 JUMP JUMPDEST PUSH2 0x903 PUSH2 0xCC5 JUMP JUMPDEST SWAP1 PUSH4 0xFFFFFFFF PUSH2 0xA51 AND JUMP JUMPDEST PUSH1 0xD SSTORE PUSH2 0x920 PUSH2 0x2715 PUSH2 0x3E8 PUSH2 0xCA6 JUMP JUMPDEST PUSH1 0xE SSTORE POP POP PUSH1 0x1 DUP1 SLOAD PUSH32 0xFFFFFFFFFFFFFFFFFFFFFFFFFFFFFFFFFFFFFFFFFFFFFFFFFFFFFFFFFFFFFF00 AND DUP2 OR SWAP1 SSTORE JUMP JUMPDEST PUSH1 0x0 DUP3 PUSH2 0x960 JUMPI POP PUSH1 0x0 PUSH2 0x9A8 JUMP JUMPDEST DUP3 DUP3 MUL DUP3 DUP5 DUP3 DUP2 PUSH2 0x96D JUMPI INVALID JUMPDEST DIV EQ PUSH2 0x9A5 JUMPI PUSH1 0x40 MLOAD PUSH32 0x8C379A000000000000000000000000000000000000000000000000000000000 DUP2 MSTORE PUSH1 0x4 ADD PUSH2 0x454 SWAP1 PUSH2 0x1320 JUMP JUMPDEST SWAP1 POP JUMPDEST SWAP3 SWAP2 POP POP JUMP JUMPDEST PUSH1 0x0 DUP2 PUSH2 0x9E7 JUMPI PUSH1 0x40 MLOAD PUSH32 0x8C379A000000000000000000000000000000000000000000000000000000000 DUP2 MSTORE PUSH1 0x4 ADD PUSH2 0x454 SWAP1 PUSH2 0x118A JUMP JUMPDEST PUSH1 0x0 DUP3 DUP5 DUP2 PUSH2 0x9F2 JUMPI INVALID JUMPDEST DIV SWAP5 SWAP4 POP POP POP POP JUMP JUMPDEST PUSH1 0x0 DUP1 DUP3 SLT ISZERO PUSH2 0xA37 JUMPI PUSH1 0x40 MLOAD PUSH32 0x8C379A000000000000000000000000000000000000000000000000000000000 DUP2 MSTORE PUSH1 0x4 ADD PUSH2 0x454 SWAP1 PUSH2 0x12C3 JUMP JUMPDEST PUSH2 0x9A8 DUP3 PUSH16 0x80000000000000000000000000000000 PUSH2 0xCD9 JUMP JUMPDEST PUSH1 0x0 PUSH32 0x8000000000000000000000000000000000000000000000000000000000000000 DUP3 EQ ISZERO PUSH2 0xAAD JUMPI PUSH1 0x40 MLOAD PUSH32 0x8C379A000000000000000000000000000000000000000000000000000000000 DUP2 MSTORE PUSH1 0x4 ADD PUSH2 0x454 SWAP1 PUSH2 0x13FC JUMP JUMPDEST PUSH2 0xABA DUP4 DUP4 PUSH1 0x0 SUB PUSH2 0xD4F JUMP JUMPDEST SWAP4 SWAP3 POP POP POP JUMP JUMPDEST PUSH1 0x0 DUP3 DUP3 GT ISZERO PUSH2 0xAFD JUMPI PUSH1 0x40 MLOAD PUSH32 0x8C379A000000000000000000000000000000000000000000000000000000000 DUP2 MSTORE PUSH1 0x4 ADD PUSH2 0x454 SWAP1 PUSH2 0x11C1 JUMP JUMPDEST POP SWAP1 SUB SWAP1 JUMP JUMPDEST PUSH1 0x0 DUP3 DUP3 ADD DUP4 DUP2 LT ISZERO PUSH2 0x9A5 JUMPI PUSH1 0x40 MLOAD PUSH32 0x8C379A000000000000000000000000000000000000000000000000000000000 DUP2 MSTORE PUSH1 0x4 ADD PUSH2 0x454 SWAP1 PUSH2 0x10F6 JUMP JUMPDEST PUSH1 0x0 DUP1 DUP4 SLT ISZERO PUSH2 0xB7E JUMPI PUSH1 0x40 MLOAD PUSH32 0x8C379A000000000000000000000000000000000000000000000000000000000 DUP2 MSTORE PUSH1 0x4 ADD PUSH2 0x454 SWAP1 PUSH2 0x1433 JUMP JUMPDEST PUSH1 0x0 DUP3 SLT ISZERO PUSH2 0xBB9 JUMPI PUSH1 0x40 MLOAD PUSH32 0x8C379A000000000000000000000000000000000000000000000000000000000 DUP2 MSTORE PUSH1 0x4 ADD PUSH2 0x454 SWAP1 PUSH2 0x1266 JUMP JUMPDEST PUSH2 0xABA PUSH2 0xBD6 DUP5 PUSH16 0x80000000000000000000000000000000 PUSH2 0xCD9 JUMP JUMPDEST DUP4 PUSH2 0xDC5 JUMP JUMPDEST PUSH1 0x0 DUP1 PUSH2 0xC0D PUSH16 0x80000000000000000000000000000000 PUSH2 0xC08 PUSH2 0xBFF DUP8 PUSH2 0xE94 JUMP JUMPDEST PUSH2 0xC08 DUP8 PUSH2 0xE94 JUMP JUMPDEST PUSH2 0xCD9 JUMP JUMPDEST SWAP1 POP PUSH1 0x0 PUSH2 0xC26 PUSH2 0xC1D DUP7 PUSH2 0xEAA JUMP JUMPDEST PUSH2 0xC08 DUP7 PUSH2 0xE94 JUMP JUMPDEST SWAP1 POP PUSH1 0x0 PUSH2 0xC3F PUSH2 0xC36 DUP8 PUSH2 0xE94 JUMP JUMPDEST PUSH2 0xC08 DUP8 PUSH2 0xEAA JUMP JUMPDEST SWAP1 POP PUSH1 0x0 PUSH2 0xC71 PUSH2 0xC5B PUSH2 0xC52 DUP10 PUSH2 0xEAA JUMP JUMPDEST PUSH2 0xC08 DUP10 PUSH2 0xEAA JUMP JUMPDEST PUSH16 0x80000000000000000000000000000000 PUSH2 0xDC5 JUMP JUMPDEST SWAP1 POP PUSH2 0xC8F PUSH2 0xC89 PUSH2 0xC83 DUP7 DUP7 PUSH2 0xD4F JUMP JUMPDEST DUP5 PUSH2 0xD4F JUMP JUMPDEST DUP3 PUSH2 0xD4F JUMP JUMPDEST SWAP8 SWAP7 POP POP POP POP POP POP POP JUMP JUMPDEST PUSH1 0x0 PUSH2 0xABA DUP4 DUP4 PUSH2 0xD4F JUMP JUMPDEST PUSH1 0x0 PUSH2 0xABA PUSH2 0xBD6 DUP5 PUSH16 0x80000000000000000000000000000000 PUSH2 0xCD9 JUMP JUMPDEST PUSH16 0x80000000000000000000000000000000 SWAP1 JUMP JUMPDEST PUSH1 0x0 DUP3 ISZERO DUP1 PUSH2 0xCE6 JUMPI POP DUP2 ISZERO JUMPDEST ISZERO PUSH2 0xCF3 JUMPI POP PUSH1 0x0 PUSH2 0x9A8 JUMP JUMPDEST POP DUP2 DUP2 MUL DUP2 DUP4 DUP3 DUP2 PUSH2 0xD01 JUMPI INVALID JUMPDEST SDIV EQ ISZERO DUP1 PUSH2 0xD18 JUMPI POP DUP3 DUP3 DUP3 DUP2 PUSH2 0xD14 JUMPI INVALID JUMPDEST SDIV EQ ISZERO JUMPDEST ISZERO PUSH2 0x9A8 JUMPI PUSH1 0x40 MLOAD PUSH32 0x8C379A000000000000000000000000000000000000000000000000000000000 DUP2 MSTORE PUSH1 0x4 ADD PUSH2 0x454 SWAP1 PUSH2 0x138E JUMP JUMPDEST DUP2 DUP2 ADD PUSH1 0x0 DUP4 SLT DUP1 ISZERO PUSH2 0xD62 JUMPI POP PUSH1 0x0 DUP3 SLT JUMPDEST DUP1 ISZERO PUSH2 0xD6D JUMPI POP DUP3 DUP2 SGT JUMPDEST DUP1 PUSH2 0xD8E JUMPI POP PUSH1 0x0 DUP4 SGT DUP1 ISZERO PUSH2 0xD83 JUMPI POP PUSH1 0x0 DUP3 SGT JUMPDEST DUP1 ISZERO PUSH2 0xD8E JUMPI POP DUP3 DUP2 SLT JUMPDEST ISZERO PUSH2 0x9A8 JUMPI PUSH1 0x40 MLOAD PUSH32 0x8C379A000000000000000000000000000000000000000000000000000000000 DUP2 MSTORE PUSH1 0x4 ADD PUSH2 0x454 SWAP1 PUSH2 0x13C5 JUMP JUMPDEST PUSH1 0x0 DUP2 PUSH2 0xDFE JUMPI PUSH1 0x40 MLOAD PUSH32 0x8C379A000000000000000000000000000000000000000000000000000000000 DUP2 MSTORE PUSH1 0x4 ADD PUSH2 0x454 SWAP1 PUSH2 0x1490 JUMP JUMPDEST PUSH32 0x8000000000000000000000000000000000000000000000000000000000000000 DUP4 EQ DUP1 ISZERO PUSH2 0xE4C JUMPI POP DUP2 PUSH32 0xFFFFFFFFFFFFFFFFFFFFFFFFFFFFFFFFFFFFFFFFFFFFFFFFFFFFFFFFFFFFFFFF EQ JUMPDEST ISZERO PUSH2 0xE83 JUMPI PUSH1 0x40 MLOAD PUSH32 0x8C379A000000000000000000000000000000000000000000000000000000000 DUP2 MSTORE PUSH1 0x4 ADD PUSH2 0x454 SWAP1 PUSH2 0x14C7 JUMP JUMPDEST DUP2 DUP4 DUP2 PUSH2 0xE8C JUMPI INVALID JUMPDEST SDIV SWAP4 SWAP3 POP POP POP JUMP JUMPDEST PUSH16 0x80000000000000000000000000000000 SWAP1 SDIV SWAP1 JUMP JUMPDEST PUSH1 0x0 DUP1 DUP3 SGT PUSH2 0xED1 JUMPI PUSH16 0x7FFFFFFFFFFFFFFFFFFFFFFFFFFFFFFF DUP3 PUSH1 0x0 SUB AND PUSH1 0x0 SUB PUSH2 0x9A8 JUMP JUMPDEST POP PUSH16 0x7FFFFFFFFFFFFFFFFFFFFFFFFFFFFFFF AND SWAP1 JUMP JUMPDEST DUP1 CALLDATALOAD PUSH20 0xFFFFFFFFFFFFFFFFFFFFFFFFFFFFFFFFFFFFFFFF DUP2 AND DUP2 EQ PUSH2 0x9A8 JUMPI PUSH1 0x0 DUP1 REVERT JUMPDEST PUSH1 0x0 PUSH1 0x20 DUP3 DUP5 SUB SLT ISZERO PUSH2 0xF1C JUMPI DUP1 DUP2 REVERT JUMPDEST PUSH2 0xABA DUP4 DUP4 PUSH2 0xEE7 JUMP JUMPDEST PUSH1 0x0 DUP1 PUSH1 0x40 DUP4 DUP6 SUB SLT ISZERO PUSH2 0xF38 JUMPI DUP1 DUP2 REVERT JUMPDEST PUSH2 0xF42 DUP5 DUP5 PUSH2 0xEE7 JUMP JUMPDEST SWAP2 POP PUSH2 0xF51 DUP5 PUSH1 0x20 DUP6 ADD PUSH2 0xEE7 JUMP JUMPDEST SWAP1 POP SWAP3 POP SWAP3 SWAP1 POP JUMP JUMPDEST PUSH1 0x0 PUSH1 0x20 DUP3 DUP5 SUB SLT ISZERO PUSH2 0xF6B JUMPI DUP1 DUP2 REVERT JUMPDEST DUP2 MLOAD DUP1 ISZERO ISZERO DUP2 EQ PUSH2 0x9A5 JUMPI DUP2 DUP3 REVERT JUMPDEST PUSH1 0x0 PUSH1 0x20 DUP3 DUP5 SUB SLT ISZERO PUSH2 0xF8B JUMPI DUP1 DUP2 REVERT JUMPDEST POP CALLDATALOAD SWAP2 SWAP1 POP JUMP JUMPDEST PUSH1 0x0 DUP1 PUSH1 0x40 DUP4 DUP6 SUB SLT ISZERO PUSH2 0xFA4 JUMPI DUP2 DUP3 REVERT JUMPDEST POP POP DUP1 CALLDATALOAD SWAP3 PUSH1 0x20 SWAP1 SWAP2 ADD CALLDATALOAD SWAP2 POP JUMP JUMPDEST PUSH20 0xFFFFFFFFFFFFFFFFFFFFFFFFFFFFFFFFFFFFFFFF AND SWAP1 MSTORE JUMP JUMPDEST PUSH20 0xFFFFFFFFFFFFFFFFFFFFFFFFFFFFFFFFFFFFFFFF SWAP2 SWAP1 SWAP2 AND DUP2 MSTORE PUSH1 0x20 ADD SWAP1 JUMP JUMPDEST PUSH20 0xFFFFFFFFFFFFFFFFFFFFFFFFFFFFFFFFFFFFFFFF SWAP3 DUP4 AND DUP2 MSTORE SWAP2 AND PUSH1 0x20 DUP3 ADD MSTORE PUSH1 0x40 ADD SWAP1 JUMP JUMPDEST PUSH20 0xFFFFFFFFFFFFFFFFFFFFFFFFFFFFFFFFFFFFFFFF SWAP4 DUP5 AND DUP2 MSTORE SWAP2 SWAP1 SWAP3 AND PUSH1 0x20 DUP3 ADD MSTORE PUSH1 0x40 DUP2 ADD SWAP2 SWAP1 SWAP2 MSTORE PUSH1 0x60 ADD SWAP1 JUMP JUMPDEST PUSH20 0xFFFFFFFFFFFFFFFFFFFFFFFFFFFFFFFFFFFFFFFF SWAP3 SWAP1 SWAP3 AND DUP3 MSTORE PUSH1 0x20 DUP3 ADD MSTORE PUSH1 0x40 ADD SWAP1 JUMP JUMPDEST DUP15 ISZERO ISZERO DUP2 MSTORE PUSH20 0xFFFFFFFFFFFFFFFFFFFFFFFFFFFFFFFFFFFFFFFF DUP15 AND PUSH1 0x20 DUP3 ADD MSTORE PUSH2 0x1C0 DUP2 ADD PUSH2 0x109F PUSH1 0x40 DUP4 ADD DUP16 PUSH2 0xFB3 JUMP JUMPDEST PUSH1 0x60 DUP3 ADD SWAP13 SWAP1 SWAP13 MSTORE PUSH1 0x80 DUP2 ADD SWAP11 SWAP1 SWAP11 MSTORE PUSH1 0xA0 DUP11 ADD SWAP9 SWAP1 SWAP9 MSTORE PUSH1 0xC0 DUP10 ADD SWAP7 SWAP1 SWAP7 MSTORE PUSH1 0xE0 DUP9 ADD SWAP5 SWAP1 SWAP5 MSTORE PUSH2 0x100 DUP8 ADD SWAP3 SWAP1 SWAP3 MSTORE PUSH2 0x120 DUP7 ADD MSTORE PUSH2 0x140 DUP6 ADD MSTORE PUSH2 0x160 DUP5 ADD MSTORE PUSH2 0x180 DUP4 ADD MSTORE PUSH2 0x1A0 SWAP1 SWAP2 ADD MSTORE SWAP4 SWAP3 POP POP POP JUMP JUMPDEST PUSH1 0x20 DUP1 DUP3 MSTORE PUSH1 0x11 SWAP1 DUP3 ADD MSTORE PUSH32 0x736166654164643A206F766572666C6F77000000000000000000000000000000 PUSH1 0x40 DUP3 ADD MSTORE PUSH1 0x60 ADD SWAP1 JUMP JUMPDEST PUSH1 0x20 DUP1 DUP3 MSTORE PUSH1 0x2A SWAP1 DUP3 ADD MSTORE PUSH32 0x4C697175696474793A416D6F756E74206465706F7369746564206E6F74207072 PUSH1 0x40 DUP3 ADD MSTORE PUSH32 0x6F706F7274696F6E616C00000000000000000000000000000000000000000000 PUSH1 0x60 DUP3 ADD MSTORE PUSH1 0x80 ADD SWAP1 JUMP JUMPDEST PUSH1 0x20 DUP1 DUP3 MSTORE PUSH1 0x11 SWAP1 DUP3 ADD MSTORE PUSH32 0x736166654469763A206F766572666C6F77000000000000000000000000000000 PUSH1 0x40 DUP3 ADD MSTORE PUSH1 0x60 ADD SWAP1 JUMP JUMPDEST PUSH1 0x20 DUP1 DUP3 MSTORE PUSH1 0x12 SWAP1 DUP3 ADD MSTORE PUSH32 0x736166655375623A20756E646572666C6F770000000000000000000000000000 PUSH1 0x40 DUP3 ADD MSTORE PUSH1 0x60 ADD SWAP1 JUMP JUMPDEST PUSH1 0x20 DUP1 DUP3 MSTORE PUSH1 0xE SWAP1 DUP3 ADD MSTORE PUSH32 0x4F6E6C794F776E65724572726F72000000000000000000000000000000000000 PUSH1 0x40 DUP3 ADD MSTORE PUSH1 0x60 ADD SWAP1 JUMP JUMPDEST PUSH1 0x20 DUP1 DUP3 MSTORE PUSH1 0x13 SWAP1 DUP3 ADD MSTORE PUSH32 0x416C726561647920496E697469616C697A656400000000000000000000000000 PUSH1 0x40 DUP3 ADD MSTORE PUSH1 0x60 ADD SWAP1 JUMP JUMPDEST PUSH1 0x20 DUP1 DUP3 MSTORE PUSH1 0x38 SWAP1 DUP3 ADD MSTORE PUSH32 0x746F46697865642875696E742C75696E74293A2064656E6F6D696E61746F7220 PUSH1 0x40 DUP3 ADD MSTORE PUSH32 0x63616E6E6F74206265206C657373207468616E207A65726F0000000000000000 PUSH1 0x60 DUP3 ADD MSTORE PUSH1 0x80 ADD SWAP1 JUMP JUMPDEST PUSH1 0x20 DUP1 DUP3 MSTORE PUSH1 0x27 SWAP1 DUP3 ADD MSTORE PUSH32 0x746F46697865643A2076616C75652063616E6E6F74206265206C657373207468 PUSH1 0x40 DUP3 ADD MSTORE PUSH32 0x616E207A65726F00000000000000000000000000000000000000000000000000 PUSH1 0x60 DUP3 ADD MSTORE PUSH1 0x80 ADD SWAP1 JUMP JUMPDEST PUSH1 0x20 DUP1 DUP3 MSTORE PUSH1 0x11 SWAP1 DUP3 ADD MSTORE PUSH32 0x736166654D756C3A206F766572666C6F77000000000000000000000000000000 PUSH1 0x40 DUP3 ADD MSTORE PUSH1 0x60 ADD SWAP1 JUMP JUMPDEST PUSH1 0x20 DUP1 DUP3 MSTORE PUSH1 0x18 SWAP1 DUP3 ADD MSTORE PUSH32 0x5472616E736665724F776E6572546F5A65726F4572726F720000000000000000 PUSH1 0x40 DUP3 ADD MSTORE PUSH1 0x60 ADD SWAP1 JUMP JUMPDEST PUSH1 0x20 DUP1 DUP3 MSTORE PUSH1 0xE SWAP1 DUP3 ADD MSTORE PUSH32 0x5F6D756C3A206F766572666C6F77000000000000000000000000000000000000 PUSH1 0x40 DUP3 ADD MSTORE PUSH1 0x60 ADD SWAP1 JUMP JUMPDEST PUSH1 0x20 DUP1 DUP3 MSTORE PUSH1 0xE SWAP1 DUP3 ADD MSTORE PUSH32 0x5F6164643A206F766572666C6F77000000000000000000000000000000000000 PUSH1 0x40 DUP3 ADD MSTORE PUSH1 0x60 ADD SWAP1 JUMP JUMPDEST PUSH1 0x20 DUP1 DUP3 MSTORE PUSH1 0x14 SWAP1 DUP3 ADD MSTORE PUSH32 0x7375623A2076616C756520746F6F20736D616C6C000000000000000000000000 PUSH1 0x40 DUP3 ADD MSTORE PUSH1 0x60 ADD SWAP1 JUMP JUMPDEST PUSH1 0x20 DUP1 DUP3 MSTORE PUSH1 0x36 SWAP1 DUP3 ADD MSTORE PUSH32 0x746F46697865642875696E742C75696E74293A206E756D657261746F72206361 PUSH1 0x40 DUP3 ADD MSTORE PUSH32 0x6E6E6F74206265206C657373207468616E207A65726F00000000000000000000 PUSH1 0x60 DUP3 ADD MSTORE PUSH1 0x80 ADD SWAP1 JUMP JUMPDEST PUSH1 0x20 DUP1 DUP3 MSTORE PUSH1 0x14 SWAP1 DUP3 ADD MSTORE PUSH32 0x5F6469763A20646976696465206279207A65726F000000000000000000000000 PUSH1 0x40 DUP3 ADD MSTORE PUSH1 0x60 ADD SWAP1 JUMP JUMPDEST PUSH1 0x20 DUP1 DUP3 MSTORE PUSH1 0xE SWAP1 DUP3 ADD MSTORE PUSH32 0x5F6469763A206F766572666C6F77000000000000000000000000000000000000 PUSH1 0x40 DUP3 ADD MSTORE PUSH1 0x60 ADD SWAP1 JUMP JUMPDEST SWAP1 DUP2 MSTORE PUSH1 0x20 ADD SWAP1 JUMP INVALID LOG3 PUSH6 0x627A7A723158 KECCAK256 0x5f SWAP13 RETURNDATASIZE 0xc4 0xee PUSH2 0x4EEC ORIGIN OR 0x2a 0xba EXTCODESIZE PUSH1 0xDB ORIGIN RETURNDATASIZE 0xb0 0xd9 0xf9 0xed 0x24 JUMP 0xc BYTE ADD KECCAK256 SUB 0xda MOD 0xc0 0x2d PUSH13 0x6578706572696D656E74616CF5 PUSH5 0x736F6C6343 STOP SDIV 0xc STOP BLOCKHASH "
			}
		}
	},
	"sourceTreeHashHex": "0x674c8a08c9701b32fad0395878e2a65455e75e313954b50da313f2fa618834f1",
	"compiler": {
		"name": "solc",
		"version": "soljson-v0.5.12+commit.7709ece9.js",
		"settings": {
			"optimizer": {
				"enabled": true,
				"runs": 1000000,
				"details": {
					"yul": true,
					"deduplicate": true,
					"cse": true,
					"constantOptimizer": true
				}
			},
			"outputSelection": {
				"*": {
					"*": [
						"abi",
						"devdoc",
						"evm.bytecode.object",
						"evm.bytecode.sourceMap",
						"evm.deployedBytecode.object",
						"evm.deployedBytecode.sourceMap"
					]
				}
			},
			"evmVersion": "constantinople",
			"remappings": []
		}
	},
	"chains": {}
}