{
	"schemaVersion": "2.0.0",
	"contractName": "Liquidity",
	"compilerOutput": {
		"abi": [
			{
				"anonymous": false,
				"inputs": [
					{
						"indexed": false,
						"internalType": "address",
						"name": "oldOwner",
						"type": "address"
					},
					{
						"indexed": false,
						"internalType": "address",
						"name": "newOwner",
						"type": "address"
					}
				],
				"name": "OwnershipTransferred",
				"type": "event"
			},
			{
				"constant": false,
				"inputs": [
					{
						"internalType": "uint256",
						"name": "x_amount",
						"type": "uint256"
					},
					{
						"internalType": "uint256",
						"name": "y_amount",
						"type": "uint256"
					}
				],
				"name": "addLiquidity",
				"outputs": [],
				"payable": false,
				"stateMutability": "nonpayable",
				"type": "function"
			},
			{
				"constant": true,
				"inputs": [
					{
						"internalType": "address",
						"name": "account",
						"type": "address"
					}
				],
				"name": "balanceOf",
				"outputs": [
					{
						"internalType": "uint256",
						"name": "",
						"type": "uint256"
					}
				],
				"payable": false,
				"stateMutability": "view",
				"type": "function"
			},
			{
				"constant": true,
				"inputs": [],
				"name": "gState",
				"outputs": [
					{
						"internalType": "bool",
						"name": "isInitialized",
						"type": "bool"
					},
					{
						"internalType": "address",
						"name": "xAddress",
						"type": "address"
					},
					{
						"internalType": "address",
						"name": "yAddress",
						"type": "address"
					},
					{
						"internalType": "int256",
						"name": "x",
						"type": "int256"
					},
					{
						"internalType": "int256",
						"name": "y",
						"type": "int256"
					},
					{
						"internalType": "uint256",
						"name": "l",
						"type": "uint256"
					},
					{
						"internalType": "int256",
						"name": "pBarX",
						"type": "int256"
					},
					{
						"internalType": "uint256",
						"name": "rhoNumerator",
						"type": "uint256"
					},
					{
						"internalType": "int256",
						"name": "rhoRatio",
						"type": "int256"
					},
					{
						"internalType": "int256",
						"name": "fee",
						"type": "int256"
					},
					{
						"internalType": "uint256",
						"name": "t",
						"type": "uint256"
					},
					{
						"internalType": "int256",
						"name": "beta",
						"type": "int256"
					},
					{
						"internalType": "int256",
						"name": "eToKappa",
						"type": "int256"
					}
				],
				"payable": false,
				"stateMutability": "view",
				"type": "function"
			},
			{
				"constant": false,
				"inputs": [
					{
						"internalType": "address",
						"name": "xAddress",
						"type": "address"
					},
					{
						"internalType": "address",
						"name": "yAddress",
						"type": "address"
					}
				],
				"name": "initState",
				"outputs": [],
				"payable": false,
				"stateMutability": "nonpayable",
				"type": "function"
			},
			{
				"constant": true,
				"inputs": [],
				"name": "owner",
				"outputs": [
					{
						"internalType": "address",
						"name": "",
						"type": "address"
					}
				],
				"payable": false,
				"stateMutability": "view",
				"type": "function"
			},
			{
				"constant": false,
				"inputs": [
					{
						"internalType": "uint256",
						"name": "l_amount",
						"type": "uint256"
					}
				],
				"name": "removeLiquidity",
				"outputs": [],
				"payable": false,
				"stateMutability": "nonpayable",
				"type": "function"
			},
			{
				"constant": false,
				"inputs": [
					{
						"internalType": "address",
						"name": "newOwner",
						"type": "address"
					}
				],
				"name": "transferOwnership",
				"outputs": [],
				"payable": false,
				"stateMutability": "nonpayable",
				"type": "function"
			}
		],
		"devdoc": {
			"methods": {
				"addLiquidity(uint256,uint256)": {
					"details": "Allows a sender to deposit tokens into the contract to provide liquidity.",
					"params": {
						"x_amount": "The amount of x that should be taken from the sender's balance.",
						"y_amount": "The amount of x that should be taken from the sender's balance."
					}
				},
				"removeLiquidity(uint256)": {
					"details": "Allows a sender to withdraw tokens by burning liquidity tokens.",
					"params": {
						"l_amount": "The amount of liquidity tokens to burn."
					}
				}
			}
		},
		"evm": {
			"bytecode": {
				"linkReferences": {},
				"object": "0x6080604052600080546001600160a01b031916331790556114f1806100256000396000f3fe608060405234801561001057600080fd5b506004361061007d5760003560e01c80639c8f9f231161005b5780639c8f9f23146100d55780639cd441da146100e8578063afd46eb5146100fb578063f2fde38b1461011c5761007d565b806370a08231146100825780637b689036146100ab5780638da5cb5b146100c0575b600080fd5b610095610090366004610ede565b61012f565b6040516100a291906114a5565b60405180910390f35b6100be6100b9366004610ef9565b610157565b005b6100c861016d565b6040516100a29190610f86565b6100be6100e3366004610f4d565b610189565b6100be6100f6366004610f65565b6103c6565b61010361067f565b6040516100a29d9c9b9a99989796959493929190611025565b6100be61012a366004610ede565b6106d4565b73ffffffffffffffffffffffffffffffffffffffff166000908152600b602052604090205490565b61015f6107a6565b61016982826107f9565b5050565b60005473ffffffffffffffffffffffffffffffffffffffff1681565b6005546003546001916000916101ba91906101ae908690607f1c63ffffffff61094c16565b9063ffffffff6109a916565b905060006101e183600401546101ae607f8660030154901c8761094c90919063ffffffff16565b90506101f983600201546101f4846109f6565b610a4c565b60028401556003830154610210906101f4836109f6565b6003840155336000908152600a84016020526040902054610237908563ffffffff610abc16565b336000908152600a85016020526040902055600483015461025e908563ffffffff610afe16565b60048481019190915583546040517fa9059cbb00000000000000000000000000000000000000000000000000000000815261010090910473ffffffffffffffffffffffffffffffffffffffff169163a9059cbb916102c0913391879101610fff565b602060405180830381600087803b1580156102da57600080fd5b505af11580156102ee573d6000803e3d6000fd5b505050506040513d601f19601f820116820180604052506103129190810190610f2d565b5060018301546040517fa9059cbb00000000000000000000000000000000000000000000000000000000815273ffffffffffffffffffffffffffffffffffffffff9091169063a9059cbb9061036d9033908590600401610fff565b602060405180830381600087803b15801561038757600080fd5b505af115801561039b573d6000803e3d6000fd5b505050506040513d601f19601f820116820180604052506103bf9190810190610f2d565b5050505050565b600160006103dc84670de0b6b3a7640000610b3d565b905060006103ed84620f4240610b3d565b9050610406836002015482610bd790919063ffffffff16565b600384015461041c90849063ffffffff610bd716565b1461045c576040517f08c379a0000000000000000000000000000000000000000000000000000000008152600401610453906110d4565b60405180910390fd5b82546040517f23b872dd00000000000000000000000000000000000000000000000000000000815261010090910473ffffffffffffffffffffffffffffffffffffffff16906323b872dd906104b990339030908a90600401610fce565b602060405180830381600087803b1580156104d357600080fd5b505af11580156104e7573d6000803e3d6000fd5b505050506040513d601f19601f8201168201806040525061050b9190810190610f2d565b5060018301546040517f23b872dd00000000000000000000000000000000000000000000000000000000815273ffffffffffffffffffffffffffffffffffffffff909116906323b872dd9061056890339030908990600401610fce565b602060405180830381600087803b15801561058257600080fd5b505af1158015610596573d6000803e3d6000fd5b505050506040513d601f19601f820116820180604052506105ba9190810190610f2d565b5060008360020154600014156105d957506001600484015560006105ff565b6105fc607f8560020154901c6101ae86600401548961094c90919063ffffffff16565b90505b61060d846002015484610c95565b600285015560038401546106219083610c95565b6003850155336000908152600a85016020526040902054610648908263ffffffff610afe16565b336000908152600a86016020526040902055600484015461066f908263ffffffff610afe16565b8460040181905550505050505050565b600154600254600354600454600554600654600754600854600954600a54600c54600d5460ff8c169b73ffffffffffffffffffffffffffffffffffffffff61010090910481169b16999897969594939291908d565b6106dc6107a6565b73ffffffffffffffffffffffffffffffffffffffff8116610729576040517f08c379a0000000000000000000000000000000000000000000000000000000008152600401610453906112fe565b600080547fffffffffffffffffffffffff00000000000000000000000000000000000000001673ffffffffffffffffffffffffffffffffffffffff83161790556040517f8be0079c531659141344cd1fd0a4f28419497f9722a3daafe3b4186f6b6457e09061079b9033908490610fa7565b60405180910390a150565b60005473ffffffffffffffffffffffffffffffffffffffff1633146107f7576040517f08c379a00000000000000000000000000000000000000000000000000000000081526004016104539061119f565b565b60015460ff1615610836576040517f08c379a0000000000000000000000000000000000000000000000000000000008152600401610453906111d6565b600180547fffffffffffffffffffffff0000000000000000000000000000000000000000ff1661010073ffffffffffffffffffffffffffffffffffffffff8581169190910291909117909155600280547fffffffffffffffffffffffff0000000000000000000000000000000000000000169183169190911790556108bd60636064610b3d565b600655606360078190556108d2906064610b3d565b6008556108e26005612710610b3d565b60095561090a6108f66001620f4240610ca1565b6108fe610cc0565b9063ffffffff610a4c16565b600c5561091b6127156103e8610ca1565b600d555050600180547fffffffffffffffffffffffffffffffffffffffffffffffffffffffffffffff001681179055565b60008261095b575060006109a3565b8282028284828161096857fe5b04146109a0576040517f08c379a0000000000000000000000000000000000000000000000000000000008152600401610453906112c7565b90505b92915050565b6000816109e2576040517f08c379a000000000000000000000000000000000000000000000000000000000815260040161045390611131565b60008284816109ed57fe5b04949350505050565b600080821215610a32576040517f08c379a00000000000000000000000000000000000000000000000000000000081526004016104539061126a565b6109a3826f80000000000000000000000000000000610cd4565b60007f8000000000000000000000000000000000000000000000000000000000000000821415610aa8576040517f08c379a0000000000000000000000000000000000000000000000000000000008152600401610453906113a3565b610ab58383600003610d4a565b9392505050565b600082821115610af8576040517f08c379a000000000000000000000000000000000000000000000000000000000815260040161045390611168565b50900390565b6000828201838110156109a0576040517f08c379a00000000000000000000000000000000000000000000000000000000081526004016104539061109d565b600080831215610b79576040517f08c379a0000000000000000000000000000000000000000000000000000000008152600401610453906113da565b6000821215610bb4576040517f08c379a00000000000000000000000000000000000000000000000000000000081526004016104539061120d565b610ab5610bd1846f80000000000000000000000000000000610cd4565b83610dc0565b600080610c086f80000000000000000000000000000000610c03610bfa87610e8f565b610c0387610e8f565b610cd4565b90506000610c21610c1886610ea5565b610c0386610e8f565b90506000610c3a610c3187610e8f565b610c0387610ea5565b90506000610c6c610c56610c4d89610ea5565b610c0389610ea5565b6f80000000000000000000000000000000610dc0565b9050610c8a610c84610c7e8686610d4a565b84610d4a565b82610d4a565b9450505050506109a3565b6000610ab58383610d4a565b6000610ab5610bd1846f80000000000000000000000000000000610cd4565b6f8000000000000000000000000000000090565b6000821580610ce1575081155b15610cee575060006109a3565b5081810281838281610cfc57fe5b05141580610d13575082828281610d0f57fe5b0514155b156109a3576040517f08c379a000000000000000000000000000000000000000000000000000000000815260040161045390611335565b818101600083128015610d5d5750600082125b8015610d6857508281135b80610d895750600083138015610d7e5750600082135b8015610d8957508281125b156109a3576040517f08c379a00000000000000000000000000000000000000000000000000000000081526004016104539061136c565b600081610df9576040517f08c379a000000000000000000000000000000000000000000000000000000000815260040161045390611437565b7f800000000000000000000000000000000000000000000000000000000000000083148015610e475750817fffffffffffffffffffffffffffffffffffffffffffffffffffffffffffffffff145b15610e7e576040517f08c379a00000000000000000000000000000000000000000000000000000000081526004016104539061146e565b818381610e8757fe5b059392505050565b6f80000000000000000000000000000000900590565b6f7fffffffffffffffffffffffffffffff1690565b803573ffffffffffffffffffffffffffffffffffffffff811681146109a357600080fd5b600060208284031215610eef578081fd5b610ab58383610eba565b60008060408385031215610f0b578081fd5b610f158484610eba565b9150610f248460208501610eba565b90509250929050565b600060208284031215610f3e578081fd5b815180151581146109a0578182fd5b600060208284031215610f5e578081fd5b5035919050565b60008060408385031215610f77578182fd5b50508035926020909101359150565b73ffffffffffffffffffffffffffffffffffffffff91909116815260200190565b73ffffffffffffffffffffffffffffffffffffffff92831681529116602082015260400190565b73ffffffffffffffffffffffffffffffffffffffff9384168152919092166020820152604081019190915260600190565b73ffffffffffffffffffffffffffffffffffffffff929092168252602082015260400190565b9c15158d5273ffffffffffffffffffffffffffffffffffffffff9b8c1660208e015299909a1660408c015260608b019790975260808a019590955260a089019390935260c088019190915260e08701526101008601526101208501526101408401526101608301919091526101808201526101a00190565b60208082526011908201527f736166654164643a206f766572666c6f77000000000000000000000000000000604082015260600190565b6020808252602a908201527f4c697175696474793a416d6f756e74206465706f7369746564206e6f7420707260408201527f6f706f7274696f6e616c00000000000000000000000000000000000000000000606082015260800190565b60208082526011908201527f736166654469763a206f766572666c6f77000000000000000000000000000000604082015260600190565b60208082526012908201527f736166655375623a20756e646572666c6f770000000000000000000000000000604082015260600190565b6020808252600e908201527f4f6e6c794f776e65724572726f72000000000000000000000000000000000000604082015260600190565b60208082526013908201527f416c726561647920496e697469616c697a656400000000000000000000000000604082015260600190565b60208082526038908201527f746f46697865642875696e742c75696e74293a2064656e6f6d696e61746f722060408201527f63616e6e6f74206265206c657373207468616e207a65726f0000000000000000606082015260800190565b60208082526027908201527f746f46697865643a2076616c75652063616e6e6f74206265206c65737320746860408201527f616e207a65726f00000000000000000000000000000000000000000000000000606082015260800190565b60208082526011908201527f736166654d756c3a206f766572666c6f77000000000000000000000000000000604082015260600190565b60208082526018908201527f5472616e736665724f776e6572546f5a65726f4572726f720000000000000000604082015260600190565b6020808252600e908201527f5f6d756c3a206f766572666c6f77000000000000000000000000000000000000604082015260600190565b6020808252600e908201527f5f6164643a206f766572666c6f77000000000000000000000000000000000000604082015260600190565b60208082526014908201527f7375623a2076616c756520746f6f20736d616c6c000000000000000000000000604082015260600190565b60208082526036908201527f746f46697865642875696e742c75696e74293a206e756d657261746f7220636160408201527f6e6e6f74206265206c657373207468616e207a65726f00000000000000000000606082015260800190565b60208082526014908201527f5f6469763a20646976696465206279207a65726f000000000000000000000000604082015260600190565b6020808252600e908201527f5f6469763a206f766572666c6f77000000000000000000000000000000000000604082015260600190565b9081526020019056fea365627a7a7231582049259233f360b79d5bc098119c8c523832484698973799f75984b704bc4d69e46c6578706572696d656e74616cf564736f6c634300050c0040",
				"opcodes": "PUSH1 0x80 PUSH1 0x40 MSTORE PUSH1 0x0 DUP1 SLOAD PUSH1 0x1 PUSH1 0x1 PUSH1 0xA0 SHL SUB NOT AND CALLER OR SWAP1 SSTORE PUSH2 0x14F1 DUP1 PUSH2 0x25 PUSH1 0x0 CODECOPY PUSH1 0x0 RETURN INVALID PUSH1 0x80 PUSH1 0x40 MSTORE CALLVALUE DUP1 ISZERO PUSH2 0x10 JUMPI PUSH1 0x0 DUP1 REVERT JUMPDEST POP PUSH1 0x4 CALLDATASIZE LT PUSH2 0x7D JUMPI PUSH1 0x0 CALLDATALOAD PUSH1 0xE0 SHR DUP1 PUSH4 0x9C8F9F23 GT PUSH2 0x5B JUMPI DUP1 PUSH4 0x9C8F9F23 EQ PUSH2 0xD5 JUMPI DUP1 PUSH4 0x9CD441DA EQ PUSH2 0xE8 JUMPI DUP1 PUSH4 0xAFD46EB5 EQ PUSH2 0xFB JUMPI DUP1 PUSH4 0xF2FDE38B EQ PUSH2 0x11C JUMPI PUSH2 0x7D JUMP JUMPDEST DUP1 PUSH4 0x70A08231 EQ PUSH2 0x82 JUMPI DUP1 PUSH4 0x7B689036 EQ PUSH2 0xAB JUMPI DUP1 PUSH4 0x8DA5CB5B EQ PUSH2 0xC0 JUMPI JUMPDEST PUSH1 0x0 DUP1 REVERT JUMPDEST PUSH2 0x95 PUSH2 0x90 CALLDATASIZE PUSH1 0x4 PUSH2 0xEDE JUMP JUMPDEST PUSH2 0x12F JUMP JUMPDEST PUSH1 0x40 MLOAD PUSH2 0xA2 SWAP2 SWAP1 PUSH2 0x14A5 JUMP JUMPDEST PUSH1 0x40 MLOAD DUP1 SWAP2 SUB SWAP1 RETURN JUMPDEST PUSH2 0xBE PUSH2 0xB9 CALLDATASIZE PUSH1 0x4 PUSH2 0xEF9 JUMP JUMPDEST PUSH2 0x157 JUMP JUMPDEST STOP JUMPDEST PUSH2 0xC8 PUSH2 0x16D JUMP JUMPDEST PUSH1 0x40 MLOAD PUSH2 0xA2 SWAP2 SWAP1 PUSH2 0xF86 JUMP JUMPDEST PUSH2 0xBE PUSH2 0xE3 CALLDATASIZE PUSH1 0x4 PUSH2 0xF4D JUMP JUMPDEST PUSH2 0x189 JUMP JUMPDEST PUSH2 0xBE PUSH2 0xF6 CALLDATASIZE PUSH1 0x4 PUSH2 0xF65 JUMP JUMPDEST PUSH2 0x3C6 JUMP JUMPDEST PUSH2 0x103 PUSH2 0x67F JUMP JUMPDEST PUSH1 0x40 MLOAD PUSH2 0xA2 SWAP14 SWAP13 SWAP12 SWAP11 SWAP10 SWAP9 SWAP8 SWAP7 SWAP6 SWAP5 SWAP4 SWAP3 SWAP2 SWAP1 PUSH2 0x1025 JUMP JUMPDEST PUSH2 0xBE PUSH2 0x12A CALLDATASIZE PUSH1 0x4 PUSH2 0xEDE JUMP JUMPDEST PUSH2 0x6D4 JUMP JUMPDEST PUSH20 0xFFFFFFFFFFFFFFFFFFFFFFFFFFFFFFFFFFFFFFFF AND PUSH1 0x0 SWAP1 DUP2 MSTORE PUSH1 0xB PUSH1 0x20 MSTORE PUSH1 0x40 SWAP1 KECCAK256 SLOAD SWAP1 JUMP JUMPDEST PUSH2 0x15F PUSH2 0x7A6 JUMP JUMPDEST PUSH2 0x169 DUP3 DUP3 PUSH2 0x7F9 JUMP JUMPDEST POP POP JUMP JUMPDEST PUSH1 0x0 SLOAD PUSH20 0xFFFFFFFFFFFFFFFFFFFFFFFFFFFFFFFFFFFFFFFF AND DUP2 JUMP JUMPDEST PUSH1 0x5 SLOAD PUSH1 0x3 SLOAD PUSH1 0x1 SWAP2 PUSH1 0x0 SWAP2 PUSH2 0x1BA SWAP2 SWAP1 PUSH2 0x1AE SWAP1 DUP7 SWAP1 PUSH1 0x7F SHR PUSH4 0xFFFFFFFF PUSH2 0x94C AND JUMP JUMPDEST SWAP1 PUSH4 0xFFFFFFFF PUSH2 0x9A9 AND JUMP JUMPDEST SWAP1 POP PUSH1 0x0 PUSH2 0x1E1 DUP4 PUSH1 0x4 ADD SLOAD PUSH2 0x1AE PUSH1 0x7F DUP7 PUSH1 0x3 ADD SLOAD SWAP1 SHR DUP8 PUSH2 0x94C SWAP1 SWAP2 SWAP1 PUSH4 0xFFFFFFFF AND JUMP JUMPDEST SWAP1 POP PUSH2 0x1F9 DUP4 PUSH1 0x2 ADD SLOAD PUSH2 0x1F4 DUP5 PUSH2 0x9F6 JUMP JUMPDEST PUSH2 0xA4C JUMP JUMPDEST PUSH1 0x2 DUP5 ADD SSTORE PUSH1 0x3 DUP4 ADD SLOAD PUSH2 0x210 SWAP1 PUSH2 0x1F4 DUP4 PUSH2 0x9F6 JUMP JUMPDEST PUSH1 0x3 DUP5 ADD SSTORE CALLER PUSH1 0x0 SWAP1 DUP2 MSTORE PUSH1 0xA DUP5 ADD PUSH1 0x20 MSTORE PUSH1 0x40 SWAP1 KECCAK256 SLOAD PUSH2 0x237 SWAP1 DUP6 PUSH4 0xFFFFFFFF PUSH2 0xABC AND JUMP JUMPDEST CALLER PUSH1 0x0 SWAP1 DUP2 MSTORE PUSH1 0xA DUP6 ADD PUSH1 0x20 MSTORE PUSH1 0x40 SWAP1 KECCAK256 SSTORE PUSH1 0x4 DUP4 ADD SLOAD PUSH2 0x25E SWAP1 DUP6 PUSH4 0xFFFFFFFF PUSH2 0xAFE AND JUMP JUMPDEST PUSH1 0x4 DUP5 DUP2 ADD SWAP2 SWAP1 SWAP2 SSTORE DUP4 SLOAD PUSH1 0x40 MLOAD PUSH32 0xA9059CBB00000000000000000000000000000000000000000000000000000000 DUP2 MSTORE PUSH2 0x100 SWAP1 SWAP2 DIV PUSH20 0xFFFFFFFFFFFFFFFFFFFFFFFFFFFFFFFFFFFFFFFF AND SWAP2 PUSH4 0xA9059CBB SWAP2 PUSH2 0x2C0 SWAP2 CALLER SWAP2 DUP8 SWAP2 ADD PUSH2 0xFFF JUMP JUMPDEST PUSH1 0x20 PUSH1 0x40 MLOAD DUP1 DUP4 SUB DUP2 PUSH1 0x0 DUP8 DUP1 EXTCODESIZE ISZERO DUP1 ISZERO PUSH2 0x2DA JUMPI PUSH1 0x0 DUP1 REVERT JUMPDEST POP GAS CALL ISZERO DUP1 ISZERO PUSH2 0x2EE JUMPI RETURNDATASIZE PUSH1 0x0 DUP1 RETURNDATACOPY RETURNDATASIZE PUSH1 0x0 REVERT JUMPDEST POP POP POP POP PUSH1 0x40 MLOAD RETURNDATASIZE PUSH1 0x1F NOT PUSH1 0x1F DUP3 ADD AND DUP3 ADD DUP1 PUSH1 0x40 MSTORE POP PUSH2 0x312 SWAP2 SWAP1 DUP2 ADD SWAP1 PUSH2 0xF2D JUMP JUMPDEST POP PUSH1 0x1 DUP4 ADD SLOAD PUSH1 0x40 MLOAD PUSH32 0xA9059CBB00000000000000000000000000000000000000000000000000000000 DUP2 MSTORE PUSH20 0xFFFFFFFFFFFFFFFFFFFFFFFFFFFFFFFFFFFFFFFF SWAP1 SWAP2 AND SWAP1 PUSH4 0xA9059CBB SWAP1 PUSH2 0x36D SWAP1 CALLER SWAP1 DUP6 SWAP1 PUSH1 0x4 ADD PUSH2 0xFFF JUMP JUMPDEST PUSH1 0x20 PUSH1 0x40 MLOAD DUP1 DUP4 SUB DUP2 PUSH1 0x0 DUP8 DUP1 EXTCODESIZE ISZERO DUP1 ISZERO PUSH2 0x387 JUMPI PUSH1 0x0 DUP1 REVERT JUMPDEST POP GAS CALL ISZERO DUP1 ISZERO PUSH2 0x39B JUMPI RETURNDATASIZE PUSH1 0x0 DUP1 RETURNDATACOPY RETURNDATASIZE PUSH1 0x0 REVERT JUMPDEST POP POP POP POP PUSH1 0x40 MLOAD RETURNDATASIZE PUSH1 0x1F NOT PUSH1 0x1F DUP3 ADD AND DUP3 ADD DUP1 PUSH1 0x40 MSTORE POP PUSH2 0x3BF SWAP2 SWAP1 DUP2 ADD SWAP1 PUSH2 0xF2D JUMP JUMPDEST POP POP POP POP POP JUMP JUMPDEST PUSH1 0x1 PUSH1 0x0 PUSH2 0x3DC DUP5 PUSH8 0xDE0B6B3A7640000 PUSH2 0xB3D JUMP JUMPDEST SWAP1 POP PUSH1 0x0 PUSH2 0x3ED DUP5 PUSH3 0xF4240 PUSH2 0xB3D JUMP JUMPDEST SWAP1 POP PUSH2 0x406 DUP4 PUSH1 0x2 ADD SLOAD DUP3 PUSH2 0xBD7 SWAP1 SWAP2 SWAP1 PUSH4 0xFFFFFFFF AND JUMP JUMPDEST PUSH1 0x3 DUP5 ADD SLOAD PUSH2 0x41C SWAP1 DUP5 SWAP1 PUSH4 0xFFFFFFFF PUSH2 0xBD7 AND JUMP JUMPDEST EQ PUSH2 0x45C JUMPI PUSH1 0x40 MLOAD PUSH32 0x8C379A000000000000000000000000000000000000000000000000000000000 DUP2 MSTORE PUSH1 0x4 ADD PUSH2 0x453 SWAP1 PUSH2 0x10D4 JUMP JUMPDEST PUSH1 0x40 MLOAD DUP1 SWAP2 SUB SWAP1 REVERT JUMPDEST DUP3 SLOAD PUSH1 0x40 MLOAD PUSH32 0x23B872DD00000000000000000000000000000000000000000000000000000000 DUP2 MSTORE PUSH2 0x100 SWAP1 SWAP2 DIV PUSH20 0xFFFFFFFFFFFFFFFFFFFFFFFFFFFFFFFFFFFFFFFF AND SWAP1 PUSH4 0x23B872DD SWAP1 PUSH2 0x4B9 SWAP1 CALLER SWAP1 ADDRESS SWAP1 DUP11 SWAP1 PUSH1 0x4 ADD PUSH2 0xFCE JUMP JUMPDEST PUSH1 0x20 PUSH1 0x40 MLOAD DUP1 DUP4 SUB DUP2 PUSH1 0x0 DUP8 DUP1 EXTCODESIZE ISZERO DUP1 ISZERO PUSH2 0x4D3 JUMPI PUSH1 0x0 DUP1 REVERT JUMPDEST POP GAS CALL ISZERO DUP1 ISZERO PUSH2 0x4E7 JUMPI RETURNDATASIZE PUSH1 0x0 DUP1 RETURNDATACOPY RETURNDATASIZE PUSH1 0x0 REVERT JUMPDEST POP POP POP POP PUSH1 0x40 MLOAD RETURNDATASIZE PUSH1 0x1F NOT PUSH1 0x1F DUP3 ADD AND DUP3 ADD DUP1 PUSH1 0x40 MSTORE POP PUSH2 0x50B SWAP2 SWAP1 DUP2 ADD SWAP1 PUSH2 0xF2D JUMP JUMPDEST POP PUSH1 0x1 DUP4 ADD SLOAD PUSH1 0x40 MLOAD PUSH32 0x23B872DD00000000000000000000000000000000000000000000000000000000 DUP2 MSTORE PUSH20 0xFFFFFFFFFFFFFFFFFFFFFFFFFFFFFFFFFFFFFFFF SWAP1 SWAP2 AND SWAP1 PUSH4 0x23B872DD SWAP1 PUSH2 0x568 SWAP1 CALLER SWAP1 ADDRESS SWAP1 DUP10 SWAP1 PUSH1 0x4 ADD PUSH2 0xFCE JUMP JUMPDEST PUSH1 0x20 PUSH1 0x40 MLOAD DUP1 DUP4 SUB DUP2 PUSH1 0x0 DUP8 DUP1 EXTCODESIZE ISZERO DUP1 ISZERO PUSH2 0x582 JUMPI PUSH1 0x0 DUP1 REVERT JUMPDEST POP GAS CALL ISZERO DUP1 ISZERO PUSH2 0x596 JUMPI RETURNDATASIZE PUSH1 0x0 DUP1 RETURNDATACOPY RETURNDATASIZE PUSH1 0x0 REVERT JUMPDEST POP POP POP POP PUSH1 0x40 MLOAD RETURNDATASIZE PUSH1 0x1F NOT PUSH1 0x1F DUP3 ADD AND DUP3 ADD DUP1 PUSH1 0x40 MSTORE POP PUSH2 0x5BA SWAP2 SWAP1 DUP2 ADD SWAP1 PUSH2 0xF2D JUMP JUMPDEST POP PUSH1 0x0 DUP4 PUSH1 0x2 ADD SLOAD PUSH1 0x0 EQ ISZERO PUSH2 0x5D9 JUMPI POP PUSH1 0x1 PUSH1 0x4 DUP5 ADD SSTORE PUSH1 0x0 PUSH2 0x5FF JUMP JUMPDEST PUSH2 0x5FC PUSH1 0x7F DUP6 PUSH1 0x2 ADD SLOAD SWAP1 SHR PUSH2 0x1AE DUP7 PUSH1 0x4 ADD SLOAD DUP10 PUSH2 0x94C SWAP1 SWAP2 SWAP1 PUSH4 0xFFFFFFFF AND JUMP JUMPDEST SWAP1 POP JUMPDEST PUSH2 0x60D DUP5 PUSH1 0x2 ADD SLOAD DUP5 PUSH2 0xC95 JUMP JUMPDEST PUSH1 0x2 DUP6 ADD SSTORE PUSH1 0x3 DUP5 ADD SLOAD PUSH2 0x621 SWAP1 DUP4 PUSH2 0xC95 JUMP JUMPDEST PUSH1 0x3 DUP6 ADD SSTORE CALLER PUSH1 0x0 SWAP1 DUP2 MSTORE PUSH1 0xA DUP6 ADD PUSH1 0x20 MSTORE PUSH1 0x40 SWAP1 KECCAK256 SLOAD PUSH2 0x648 SWAP1 DUP3 PUSH4 0xFFFFFFFF PUSH2 0xAFE AND JUMP JUMPDEST CALLER PUSH1 0x0 SWAP1 DUP2 MSTORE PUSH1 0xA DUP7 ADD PUSH1 0x20 MSTORE PUSH1 0x40 SWAP1 KECCAK256 SSTORE PUSH1 0x4 DUP5 ADD SLOAD PUSH2 0x66F SWAP1 DUP3 PUSH4 0xFFFFFFFF PUSH2 0xAFE AND JUMP JUMPDEST DUP5 PUSH1 0x4 ADD DUP2 SWAP1 SSTORE POP POP POP POP POP POP POP JUMP JUMPDEST PUSH1 0x1 SLOAD PUSH1 0x2 SLOAD PUSH1 0x3 SLOAD PUSH1 0x4 SLOAD PUSH1 0x5 SLOAD PUSH1 0x6 SLOAD PUSH1 0x7 SLOAD PUSH1 0x8 SLOAD PUSH1 0x9 SLOAD PUSH1 0xA SLOAD PUSH1 0xC SLOAD PUSH1 0xD SLOAD PUSH1 0xFF DUP13 AND SWAP12 PUSH20 0xFFFFFFFFFFFFFFFFFFFFFFFFFFFFFFFFFFFFFFFF PUSH2 0x100 SWAP1 SWAP2 DIV DUP2 AND SWAP12 AND SWAP10 SWAP9 SWAP8 SWAP7 SWAP6 SWAP5 SWAP4 SWAP3 SWAP2 SWAP1 DUP14 JUMP JUMPDEST PUSH2 0x6DC PUSH2 0x7A6 JUMP JUMPDEST PUSH20 0xFFFFFFFFFFFFFFFFFFFFFFFFFFFFFFFFFFFFFFFF DUP2 AND PUSH2 0x729 JUMPI PUSH1 0x40 MLOAD PUSH32 0x8C379A000000000000000000000000000000000000000000000000000000000 DUP2 MSTORE PUSH1 0x4 ADD PUSH2 0x453 SWAP1 PUSH2 0x12FE JUMP JUMPDEST PUSH1 0x0 DUP1 SLOAD PUSH32 0xFFFFFFFFFFFFFFFFFFFFFFFF0000000000000000000000000000000000000000 AND PUSH20 0xFFFFFFFFFFFFFFFFFFFFFFFFFFFFFFFFFFFFFFFF DUP4 AND OR SWAP1 SSTORE PUSH1 0x40 MLOAD PUSH32 0x8BE0079C531659141344CD1FD0A4F28419497F9722A3DAAFE3B4186F6B6457E0 SWAP1 PUSH2 0x79B SWAP1 CALLER SWAP1 DUP5 SWAP1 PUSH2 0xFA7 JUMP JUMPDEST PUSH1 0x40 MLOAD DUP1 SWAP2 SUB SWAP1 LOG1 POP JUMP JUMPDEST PUSH1 0x0 SLOAD PUSH20 0xFFFFFFFFFFFFFFFFFFFFFFFFFFFFFFFFFFFFFFFF AND CALLER EQ PUSH2 0x7F7 JUMPI PUSH1 0x40 MLOAD PUSH32 0x8C379A000000000000000000000000000000000000000000000000000000000 DUP2 MSTORE PUSH1 0x4 ADD PUSH2 0x453 SWAP1 PUSH2 0x119F JUMP JUMPDEST JUMP JUMPDEST PUSH1 0x1 SLOAD PUSH1 0xFF AND ISZERO PUSH2 0x836 JUMPI PUSH1 0x40 MLOAD PUSH32 0x8C379A000000000000000000000000000000000000000000000000000000000 DUP2 MSTORE PUSH1 0x4 ADD PUSH2 0x453 SWAP1 PUSH2 0x11D6 JUMP JUMPDEST PUSH1 0x1 DUP1 SLOAD PUSH32 0xFFFFFFFFFFFFFFFFFFFFFF0000000000000000000000000000000000000000FF AND PUSH2 0x100 PUSH20 0xFFFFFFFFFFFFFFFFFFFFFFFFFFFFFFFFFFFFFFFF DUP6 DUP2 AND SWAP2 SWAP1 SWAP2 MUL SWAP2 SWAP1 SWAP2 OR SWAP1 SWAP2 SSTORE PUSH1 0x2 DUP1 SLOAD PUSH32 0xFFFFFFFFFFFFFFFFFFFFFFFF0000000000000000000000000000000000000000 AND SWAP2 DUP4 AND SWAP2 SWAP1 SWAP2 OR SWAP1 SSTORE PUSH2 0x8BD PUSH1 0x63 PUSH1 0x64 PUSH2 0xB3D JUMP JUMPDEST PUSH1 0x6 SSTORE PUSH1 0x63 PUSH1 0x7 DUP2 SWAP1 SSTORE PUSH2 0x8D2 SWAP1 PUSH1 0x64 PUSH2 0xB3D JUMP JUMPDEST PUSH1 0x8 SSTORE PUSH2 0x8E2 PUSH1 0x5 PUSH2 0x2710 PUSH2 0xB3D JUMP JUMPDEST PUSH1 0x9 SSTORE PUSH2 0x90A PUSH2 0x8F6 PUSH1 0x1 PUSH3 0xF4240 PUSH2 0xCA1 JUMP JUMPDEST PUSH2 0x8FE PUSH2 0xCC0 JUMP JUMPDEST SWAP1 PUSH4 0xFFFFFFFF PUSH2 0xA4C AND JUMP JUMPDEST PUSH1 0xC SSTORE PUSH2 0x91B PUSH2 0x2715 PUSH2 0x3E8 PUSH2 0xCA1 JUMP JUMPDEST PUSH1 0xD SSTORE POP POP PUSH1 0x1 DUP1 SLOAD PUSH32 0xFFFFFFFFFFFFFFFFFFFFFFFFFFFFFFFFFFFFFFFFFFFFFFFFFFFFFFFFFFFFFF00 AND DUP2 OR SWAP1 SSTORE JUMP JUMPDEST PUSH1 0x0 DUP3 PUSH2 0x95B JUMPI POP PUSH1 0x0 PUSH2 0x9A3 JUMP JUMPDEST DUP3 DUP3 MUL DUP3 DUP5 DUP3 DUP2 PUSH2 0x968 JUMPI INVALID JUMPDEST DIV EQ PUSH2 0x9A0 JUMPI PUSH1 0x40 MLOAD PUSH32 0x8C379A000000000000000000000000000000000000000000000000000000000 DUP2 MSTORE PUSH1 0x4 ADD PUSH2 0x453 SWAP1 PUSH2 0x12C7 JUMP JUMPDEST SWAP1 POP JUMPDEST SWAP3 SWAP2 POP POP JUMP JUMPDEST PUSH1 0x0 DUP2 PUSH2 0x9E2 JUMPI PUSH1 0x40 MLOAD PUSH32 0x8C379A000000000000000000000000000000000000000000000000000000000 DUP2 MSTORE PUSH1 0x4 ADD PUSH2 0x453 SWAP1 PUSH2 0x1131 JUMP JUMPDEST PUSH1 0x0 DUP3 DUP5 DUP2 PUSH2 0x9ED JUMPI INVALID JUMPDEST DIV SWAP5 SWAP4 POP POP POP POP JUMP JUMPDEST PUSH1 0x0 DUP1 DUP3 SLT ISZERO PUSH2 0xA32 JUMPI PUSH1 0x40 MLOAD PUSH32 0x8C379A000000000000000000000000000000000000000000000000000000000 DUP2 MSTORE PUSH1 0x4 ADD PUSH2 0x453 SWAP1 PUSH2 0x126A JUMP JUMPDEST PUSH2 0x9A3 DUP3 PUSH16 0x80000000000000000000000000000000 PUSH2 0xCD4 JUMP JUMPDEST PUSH1 0x0 PUSH32 0x8000000000000000000000000000000000000000000000000000000000000000 DUP3 EQ ISZERO PUSH2 0xAA8 JUMPI PUSH1 0x40 MLOAD PUSH32 0x8C379A000000000000000000000000000000000000000000000000000000000 DUP2 MSTORE PUSH1 0x4 ADD PUSH2 0x453 SWAP1 PUSH2 0x13A3 JUMP JUMPDEST PUSH2 0xAB5 DUP4 DUP4 PUSH1 0x0 SUB PUSH2 0xD4A JUMP JUMPDEST SWAP4 SWAP3 POP POP POP JUMP JUMPDEST PUSH1 0x0 DUP3 DUP3 GT ISZERO PUSH2 0xAF8 JUMPI PUSH1 0x40 MLOAD PUSH32 0x8C379A000000000000000000000000000000000000000000000000000000000 DUP2 MSTORE PUSH1 0x4 ADD PUSH2 0x453 SWAP1 PUSH2 0x1168 JUMP JUMPDEST POP SWAP1 SUB SWAP1 JUMP JUMPDEST PUSH1 0x0 DUP3 DUP3 ADD DUP4 DUP2 LT ISZERO PUSH2 0x9A0 JUMPI PUSH1 0x40 MLOAD PUSH32 0x8C379A000000000000000000000000000000000000000000000000000000000 DUP2 MSTORE PUSH1 0x4 ADD PUSH2 0x453 SWAP1 PUSH2 0x109D JUMP JUMPDEST PUSH1 0x0 DUP1 DUP4 SLT ISZERO PUSH2 0xB79 JUMPI PUSH1 0x40 MLOAD PUSH32 0x8C379A000000000000000000000000000000000000000000000000000000000 DUP2 MSTORE PUSH1 0x4 ADD PUSH2 0x453 SWAP1 PUSH2 0x13DA JUMP JUMPDEST PUSH1 0x0 DUP3 SLT ISZERO PUSH2 0xBB4 JUMPI PUSH1 0x40 MLOAD PUSH32 0x8C379A000000000000000000000000000000000000000000000000000000000 DUP2 MSTORE PUSH1 0x4 ADD PUSH2 0x453 SWAP1 PUSH2 0x120D JUMP JUMPDEST PUSH2 0xAB5 PUSH2 0xBD1 DUP5 PUSH16 0x80000000000000000000000000000000 PUSH2 0xCD4 JUMP JUMPDEST DUP4 PUSH2 0xDC0 JUMP JUMPDEST PUSH1 0x0 DUP1 PUSH2 0xC08 PUSH16 0x80000000000000000000000000000000 PUSH2 0xC03 PUSH2 0xBFA DUP8 PUSH2 0xE8F JUMP JUMPDEST PUSH2 0xC03 DUP8 PUSH2 0xE8F JUMP JUMPDEST PUSH2 0xCD4 JUMP JUMPDEST SWAP1 POP PUSH1 0x0 PUSH2 0xC21 PUSH2 0xC18 DUP7 PUSH2 0xEA5 JUMP JUMPDEST PUSH2 0xC03 DUP7 PUSH2 0xE8F JUMP JUMPDEST SWAP1 POP PUSH1 0x0 PUSH2 0xC3A PUSH2 0xC31 DUP8 PUSH2 0xE8F JUMP JUMPDEST PUSH2 0xC03 DUP8 PUSH2 0xEA5 JUMP JUMPDEST SWAP1 POP PUSH1 0x0 PUSH2 0xC6C PUSH2 0xC56 PUSH2 0xC4D DUP10 PUSH2 0xEA5 JUMP JUMPDEST PUSH2 0xC03 DUP10 PUSH2 0xEA5 JUMP JUMPDEST PUSH16 0x80000000000000000000000000000000 PUSH2 0xDC0 JUMP JUMPDEST SWAP1 POP PUSH2 0xC8A PUSH2 0xC84 PUSH2 0xC7E DUP7 DUP7 PUSH2 0xD4A JUMP JUMPDEST DUP5 PUSH2 0xD4A JUMP JUMPDEST DUP3 PUSH2 0xD4A JUMP JUMPDEST SWAP5 POP POP POP POP POP PUSH2 0x9A3 JUMP JUMPDEST PUSH1 0x0 PUSH2 0xAB5 DUP4 DUP4 PUSH2 0xD4A JUMP JUMPDEST PUSH1 0x0 PUSH2 0xAB5 PUSH2 0xBD1 DUP5 PUSH16 0x80000000000000000000000000000000 PUSH2 0xCD4 JUMP JUMPDEST PUSH16 0x80000000000000000000000000000000 SWAP1 JUMP JUMPDEST PUSH1 0x0 DUP3 ISZERO DUP1 PUSH2 0xCE1 JUMPI POP DUP2 ISZERO JUMPDEST ISZERO PUSH2 0xCEE JUMPI POP PUSH1 0x0 PUSH2 0x9A3 JUMP JUMPDEST POP DUP2 DUP2 MUL DUP2 DUP4 DUP3 DUP2 PUSH2 0xCFC JUMPI INVALID JUMPDEST SDIV EQ ISZERO DUP1 PUSH2 0xD13 JUMPI POP DUP3 DUP3 DUP3 DUP2 PUSH2 0xD0F JUMPI INVALID JUMPDEST SDIV EQ ISZERO JUMPDEST ISZERO PUSH2 0x9A3 JUMPI PUSH1 0x40 MLOAD PUSH32 0x8C379A000000000000000000000000000000000000000000000000000000000 DUP2 MSTORE PUSH1 0x4 ADD PUSH2 0x453 SWAP1 PUSH2 0x1335 JUMP JUMPDEST DUP2 DUP2 ADD PUSH1 0x0 DUP4 SLT DUP1 ISZERO PUSH2 0xD5D JUMPI POP PUSH1 0x0 DUP3 SLT JUMPDEST DUP1 ISZERO PUSH2 0xD68 JUMPI POP DUP3 DUP2 SGT JUMPDEST DUP1 PUSH2 0xD89 JUMPI POP PUSH1 0x0 DUP4 SGT DUP1 ISZERO PUSH2 0xD7E JUMPI POP PUSH1 0x0 DUP3 SGT JUMPDEST DUP1 ISZERO PUSH2 0xD89 JUMPI POP DUP3 DUP2 SLT JUMPDEST ISZERO PUSH2 0x9A3 JUMPI PUSH1 0x40 MLOAD PUSH32 0x8C379A000000000000000000000000000000000000000000000000000000000 DUP2 MSTORE PUSH1 0x4 ADD PUSH2 0x453 SWAP1 PUSH2 0x136C JUMP JUMPDEST PUSH1 0x0 DUP2 PUSH2 0xDF9 JUMPI PUSH1 0x40 MLOAD PUSH32 0x8C379A000000000000000000000000000000000000000000000000000000000 DUP2 MSTORE PUSH1 0x4 ADD PUSH2 0x453 SWAP1 PUSH2 0x1437 JUMP JUMPDEST PUSH32 0x8000000000000000000000000000000000000000000000000000000000000000 DUP4 EQ DUP1 ISZERO PUSH2 0xE47 JUMPI POP DUP2 PUSH32 0xFFFFFFFFFFFFFFFFFFFFFFFFFFFFFFFFFFFFFFFFFFFFFFFFFFFFFFFFFFFFFFFF EQ JUMPDEST ISZERO PUSH2 0xE7E JUMPI PUSH1 0x40 MLOAD PUSH32 0x8C379A000000000000000000000000000000000000000000000000000000000 DUP2 MSTORE PUSH1 0x4 ADD PUSH2 0x453 SWAP1 PUSH2 0x146E JUMP JUMPDEST DUP2 DUP4 DUP2 PUSH2 0xE87 JUMPI INVALID JUMPDEST SDIV SWAP4 SWAP3 POP POP POP JUMP JUMPDEST PUSH16 0x80000000000000000000000000000000 SWAP1 SDIV SWAP1 JUMP JUMPDEST PUSH16 0x7FFFFFFFFFFFFFFFFFFFFFFFFFFFFFFF AND SWAP1 JUMP JUMPDEST DUP1 CALLDATALOAD PUSH20 0xFFFFFFFFFFFFFFFFFFFFFFFFFFFFFFFFFFFFFFFF DUP2 AND DUP2 EQ PUSH2 0x9A3 JUMPI PUSH1 0x0 DUP1 REVERT JUMPDEST PUSH1 0x0 PUSH1 0x20 DUP3 DUP5 SUB SLT ISZERO PUSH2 0xEEF JUMPI DUP1 DUP2 REVERT JUMPDEST PUSH2 0xAB5 DUP4 DUP4 PUSH2 0xEBA JUMP JUMPDEST PUSH1 0x0 DUP1 PUSH1 0x40 DUP4 DUP6 SUB SLT ISZERO PUSH2 0xF0B JUMPI DUP1 DUP2 REVERT JUMPDEST PUSH2 0xF15 DUP5 DUP5 PUSH2 0xEBA JUMP JUMPDEST SWAP2 POP PUSH2 0xF24 DUP5 PUSH1 0x20 DUP6 ADD PUSH2 0xEBA JUMP JUMPDEST SWAP1 POP SWAP3 POP SWAP3 SWAP1 POP JUMP JUMPDEST PUSH1 0x0 PUSH1 0x20 DUP3 DUP5 SUB SLT ISZERO PUSH2 0xF3E JUMPI DUP1 DUP2 REVERT JUMPDEST DUP2 MLOAD DUP1 ISZERO ISZERO DUP2 EQ PUSH2 0x9A0 JUMPI DUP2 DUP3 REVERT JUMPDEST PUSH1 0x0 PUSH1 0x20 DUP3 DUP5 SUB SLT ISZERO PUSH2 0xF5E JUMPI DUP1 DUP2 REVERT JUMPDEST POP CALLDATALOAD SWAP2 SWAP1 POP JUMP JUMPDEST PUSH1 0x0 DUP1 PUSH1 0x40 DUP4 DUP6 SUB SLT ISZERO PUSH2 0xF77 JUMPI DUP2 DUP3 REVERT JUMPDEST POP POP DUP1 CALLDATALOAD SWAP3 PUSH1 0x20 SWAP1 SWAP2 ADD CALLDATALOAD SWAP2 POP JUMP JUMPDEST PUSH20 0xFFFFFFFFFFFFFFFFFFFFFFFFFFFFFFFFFFFFFFFF SWAP2 SWAP1 SWAP2 AND DUP2 MSTORE PUSH1 0x20 ADD SWAP1 JUMP JUMPDEST PUSH20 0xFFFFFFFFFFFFFFFFFFFFFFFFFFFFFFFFFFFFFFFF SWAP3 DUP4 AND DUP2 MSTORE SWAP2 AND PUSH1 0x20 DUP3 ADD MSTORE PUSH1 0x40 ADD SWAP1 JUMP JUMPDEST PUSH20 0xFFFFFFFFFFFFFFFFFFFFFFFFFFFFFFFFFFFFFFFF SWAP4 DUP5 AND DUP2 MSTORE SWAP2 SWAP1 SWAP3 AND PUSH1 0x20 DUP3 ADD MSTORE PUSH1 0x40 DUP2 ADD SWAP2 SWAP1 SWAP2 MSTORE PUSH1 0x60 ADD SWAP1 JUMP JUMPDEST PUSH20 0xFFFFFFFFFFFFFFFFFFFFFFFFFFFFFFFFFFFFFFFF SWAP3 SWAP1 SWAP3 AND DUP3 MSTORE PUSH1 0x20 DUP3 ADD MSTORE PUSH1 0x40 ADD SWAP1 JUMP JUMPDEST SWAP13 ISZERO ISZERO DUP14 MSTORE PUSH20 0xFFFFFFFFFFFFFFFFFFFFFFFFFFFFFFFFFFFFFFFF SWAP12 DUP13 AND PUSH1 0x20 DUP15 ADD MSTORE SWAP10 SWAP1 SWAP11 AND PUSH1 0x40 DUP13 ADD MSTORE PUSH1 0x60 DUP12 ADD SWAP8 SWAP1 SWAP8 MSTORE PUSH1 0x80 DUP11 ADD SWAP6 SWAP1 SWAP6 MSTORE PUSH1 0xA0 DUP10 ADD SWAP4 SWAP1 SWAP4 MSTORE PUSH1 0xC0 DUP9 ADD SWAP2 SWAP1 SWAP2 MSTORE PUSH1 0xE0 DUP8 ADD MSTORE PUSH2 0x100 DUP7 ADD MSTORE PUSH2 0x120 DUP6 ADD MSTORE PUSH2 0x140 DUP5 ADD MSTORE PUSH2 0x160 DUP4 ADD SWAP2 SWAP1 SWAP2 MSTORE PUSH2 0x180 DUP3 ADD MSTORE PUSH2 0x1A0 ADD SWAP1 JUMP JUMPDEST PUSH1 0x20 DUP1 DUP3 MSTORE PUSH1 0x11 SWAP1 DUP3 ADD MSTORE PUSH32 0x736166654164643A206F766572666C6F77000000000000000000000000000000 PUSH1 0x40 DUP3 ADD MSTORE PUSH1 0x60 ADD SWAP1 JUMP JUMPDEST PUSH1 0x20 DUP1 DUP3 MSTORE PUSH1 0x2A SWAP1 DUP3 ADD MSTORE PUSH32 0x4C697175696474793A416D6F756E74206465706F7369746564206E6F74207072 PUSH1 0x40 DUP3 ADD MSTORE PUSH32 0x6F706F7274696F6E616C00000000000000000000000000000000000000000000 PUSH1 0x60 DUP3 ADD MSTORE PUSH1 0x80 ADD SWAP1 JUMP JUMPDEST PUSH1 0x20 DUP1 DUP3 MSTORE PUSH1 0x11 SWAP1 DUP3 ADD MSTORE PUSH32 0x736166654469763A206F766572666C6F77000000000000000000000000000000 PUSH1 0x40 DUP3 ADD MSTORE PUSH1 0x60 ADD SWAP1 JUMP JUMPDEST PUSH1 0x20 DUP1 DUP3 MSTORE PUSH1 0x12 SWAP1 DUP3 ADD MSTORE PUSH32 0x736166655375623A20756E646572666C6F770000000000000000000000000000 PUSH1 0x40 DUP3 ADD MSTORE PUSH1 0x60 ADD SWAP1 JUMP JUMPDEST PUSH1 0x20 DUP1 DUP3 MSTORE PUSH1 0xE SWAP1 DUP3 ADD MSTORE PUSH32 0x4F6E6C794F776E65724572726F72000000000000000000000000000000000000 PUSH1 0x40 DUP3 ADD MSTORE PUSH1 0x60 ADD SWAP1 JUMP JUMPDEST PUSH1 0x20 DUP1 DUP3 MSTORE PUSH1 0x13 SWAP1 DUP3 ADD MSTORE PUSH32 0x416C726561647920496E697469616C697A656400000000000000000000000000 PUSH1 0x40 DUP3 ADD MSTORE PUSH1 0x60 ADD SWAP1 JUMP JUMPDEST PUSH1 0x20 DUP1 DUP3 MSTORE PUSH1 0x38 SWAP1 DUP3 ADD MSTORE PUSH32 0x746F46697865642875696E742C75696E74293A2064656E6F6D696E61746F7220 PUSH1 0x40 DUP3 ADD MSTORE PUSH32 0x63616E6E6F74206265206C657373207468616E207A65726F0000000000000000 PUSH1 0x60 DUP3 ADD MSTORE PUSH1 0x80 ADD SWAP1 JUMP JUMPDEST PUSH1 0x20 DUP1 DUP3 MSTORE PUSH1 0x27 SWAP1 DUP3 ADD MSTORE PUSH32 0x746F46697865643A2076616C75652063616E6E6F74206265206C657373207468 PUSH1 0x40 DUP3 ADD MSTORE PUSH32 0x616E207A65726F00000000000000000000000000000000000000000000000000 PUSH1 0x60 DUP3 ADD MSTORE PUSH1 0x80 ADD SWAP1 JUMP JUMPDEST PUSH1 0x20 DUP1 DUP3 MSTORE PUSH1 0x11 SWAP1 DUP3 ADD MSTORE PUSH32 0x736166654D756C3A206F766572666C6F77000000000000000000000000000000 PUSH1 0x40 DUP3 ADD MSTORE PUSH1 0x60 ADD SWAP1 JUMP JUMPDEST PUSH1 0x20 DUP1 DUP3 MSTORE PUSH1 0x18 SWAP1 DUP3 ADD MSTORE PUSH32 0x5472616E736665724F776E6572546F5A65726F4572726F720000000000000000 PUSH1 0x40 DUP3 ADD MSTORE PUSH1 0x60 ADD SWAP1 JUMP JUMPDEST PUSH1 0x20 DUP1 DUP3 MSTORE PUSH1 0xE SWAP1 DUP3 ADD MSTORE PUSH32 0x5F6D756C3A206F766572666C6F77000000000000000000000000000000000000 PUSH1 0x40 DUP3 ADD MSTORE PUSH1 0x60 ADD SWAP1 JUMP JUMPDEST PUSH1 0x20 DUP1 DUP3 MSTORE PUSH1 0xE SWAP1 DUP3 ADD MSTORE PUSH32 0x5F6164643A206F766572666C6F77000000000000000000000000000000000000 PUSH1 0x40 DUP3 ADD MSTORE PUSH1 0x60 ADD SWAP1 JUMP JUMPDEST PUSH1 0x20 DUP1 DUP3 MSTORE PUSH1 0x14 SWAP1 DUP3 ADD MSTORE PUSH32 0x7375623A2076616C756520746F6F20736D616C6C000000000000000000000000 PUSH1 0x40 DUP3 ADD MSTORE PUSH1 0x60 ADD SWAP1 JUMP JUMPDEST PUSH1 0x20 DUP1 DUP3 MSTORE PUSH1 0x36 SWAP1 DUP3 ADD MSTORE PUSH32 0x746F46697865642875696E742C75696E74293A206E756D657261746F72206361 PUSH1 0x40 DUP3 ADD MSTORE PUSH32 0x6E6E6F74206265206C657373207468616E207A65726F00000000000000000000 PUSH1 0x60 DUP3 ADD MSTORE PUSH1 0x80 ADD SWAP1 JUMP JUMPDEST PUSH1 0x20 DUP1 DUP3 MSTORE PUSH1 0x14 SWAP1 DUP3 ADD MSTORE PUSH32 0x5F6469763A20646976696465206279207A65726F000000000000000000000000 PUSH1 0x40 DUP3 ADD MSTORE PUSH1 0x60 ADD SWAP1 JUMP JUMPDEST PUSH1 0x20 DUP1 DUP3 MSTORE PUSH1 0xE SWAP1 DUP3 ADD MSTORE PUSH32 0x5F6469763A206F766572666C6F77000000000000000000000000000000000000 PUSH1 0x40 DUP3 ADD MSTORE PUSH1 0x60 ADD SWAP1 JUMP JUMPDEST SWAP1 DUP2 MSTORE PUSH1 0x20 ADD SWAP1 JUMP INVALID LOG3 PUSH6 0x627A7A723158 KECCAK256 0x49 0x25 SWAP3 CALLER RETURN PUSH1 0xB7 SWAP14 JUMPDEST 0xc0 SWAP9 GT SWAP13 DUP13 MSTORE CODESIZE ORIGIN 0x48 CHAINID SWAP9 SWAP8 CALLDATACOPY SWAP10 0xf7 MSIZE DUP5 0xb7 DIV 0xbc 0x4d PUSH10 0xE46C6578706572696D65 PUSH15 0x74616CF564736F6C634300050C0040 "
			}
		}
	},
	"sourceTreeHashHex": "0x4d9419b5eb3470d312f7750a31302cf11ef832123586f38bc8421ddcdaf9811e",
	"compiler": {
		"name": "solc",
		"version": "soljson-v0.5.12+commit.7709ece9.js",
		"settings": {
			"optimizer": {
				"enabled": true,
				"runs": 1000000,
				"details": {
					"yul": true,
					"deduplicate": true,
					"cse": true,
					"constantOptimizer": true
				}
			},
			"outputSelection": {
				"*": {
					"*": [
						"abi",
						"devdoc",
						"evm.bytecode.object",
						"evm.bytecode.sourceMap",
						"evm.deployedBytecode.object",
						"evm.deployedBytecode.sourceMap"
					]
				}
			},
			"evmVersion": "constantinople",
			"remappings": []
		}
	},
	"chains": {}
}