{
	"schemaVersion": "2.0.0",
	"contractName": "Scam",
	"compilerOutput": {
		"abi": [
			{
				"inputs": [],
				"payable": false,
				"stateMutability": "nonpayable",
				"type": "constructor"
			},
			{
				"anonymous": false,
				"inputs": [
					{
						"indexed": false,
						"internalType": "int256",
						"name": "lhs1",
						"type": "int256"
					},
					{
						"indexed": false,
						"internalType": "int256",
						"name": "mid",
						"type": "int256"
					},
					{
						"indexed": false,
						"internalType": "int256",
						"name": "lhs",
						"type": "int256"
					}
				],
				"name": "Bisect",
				"type": "event"
			},
			{
				"anonymous": false,
				"inputs": [
					{
						"indexed": false,
						"internalType": "int256",
						"name": "term2",
						"type": "int256"
					},
					{
						"indexed": false,
						"internalType": "int256",
						"name": "term3",
						"type": "int256"
					}
				],
				"name": "E",
				"type": "event"
			},
			{
				"anonymous": false,
				"inputs": [
					{
						"indexed": false,
						"internalType": "int256",
						"name": "rl",
						"type": "int256"
					},
					{
						"indexed": false,
						"internalType": "int256",
						"name": "rh",
						"type": "int256"
					},
					{
						"indexed": false,
						"internalType": "int256",
						"name": "yl",
						"type": "int256"
					},
					{
						"indexed": false,
						"internalType": "int256",
						"name": "yh",
						"type": "int256"
					}
				],
				"name": "EGGG",
				"type": "event"
			},
			{
				"anonymous": false,
				"inputs": [
					{
						"indexed": false,
						"internalType": "address",
						"name": "from",
						"type": "address"
					},
					{
						"indexed": false,
						"internalType": "address",
						"name": "fromToken",
						"type": "address"
					},
					{
						"indexed": false,
						"internalType": "address",
						"name": "toToken",
						"type": "address"
					},
					{
						"indexed": false,
						"internalType": "uint256",
						"name": "amountSpent",
						"type": "uint256"
					},
					{
						"indexed": false,
						"internalType": "uint256",
						"name": "amountReceived",
						"type": "uint256"
					}
				],
				"name": "Fill",
				"type": "event"
			},
			{
				"anonymous": false,
				"inputs": [
					{
						"indexed": false,
						"internalType": "address",
						"name": "from",
						"type": "address"
					},
					{
						"indexed": false,
						"internalType": "int256",
						"name": "amountSpent",
						"type": "int256"
					},
					{
						"indexed": false,
						"internalType": "int256",
						"name": "amountReceived",
						"type": "int256"
					}
				],
				"name": "FillInternal",
				"type": "event"
			},
			{
				"anonymous": false,
				"inputs": [
					{
						"indexed": false,
						"internalType": "int256",
						"name": "lhs",
						"type": "int256"
					},
					{
						"indexed": false,
						"internalType": "int256",
						"name": "rhs",
						"type": "int256"
					}
				],
				"name": "L",
				"type": "event"
			},
			{
				"anonymous": false,
				"inputs": [
					{
						"indexed": false,
						"internalType": "address",
						"name": "oldOwner",
						"type": "address"
					},
					{
						"indexed": false,
						"internalType": "address",
						"name": "newOwner",
						"type": "address"
					}
				],
				"name": "OwnershipTransferred",
				"type": "event"
			},
			{
				"anonymous": false,
				"inputs": [
					{
						"indexed": false,
						"internalType": "int256",
						"name": "price",
						"type": "int256"
					},
					{
						"indexed": false,
						"internalType": "int256",
						"name": "deltaB",
						"type": "int256"
					},
					{
						"indexed": false,
						"internalType": "int256",
						"name": "newPBarX",
						"type": "int256"
					},
					{
						"indexed": false,
						"internalType": "int256",
						"name": "pA",
						"type": "int256"
					}
				],
				"name": "Price",
				"type": "event"
			},
			{
				"anonymous": false,
				"inputs": [
					{
						"indexed": false,
						"internalType": "int256",
						"name": "price",
						"type": "int256"
					}
				],
				"name": "Price2",
				"type": "event"
			},
			{
				"anonymous": false,
				"inputs": [
					{
						"indexed": false,
						"internalType": "int256",
						"name": "a",
						"type": "int256"
					},
					{
						"indexed": false,
						"internalType": "int256",
						"name": "b",
						"type": "int256"
					},
					{
						"indexed": false,
						"internalType": "int256",
						"name": "pA",
						"type": "int256"
					},
					{
						"indexed": false,
						"internalType": "int256",
						"name": "pBarA",
						"type": "int256"
					},
					{
						"indexed": false,
						"internalType": "int256",
						"name": "deltaA",
						"type": "int256"
					},
					{
						"indexed": false,
						"internalType": "int256",
						"name": "rhoRatio",
						"type": "int256"
					},
					{
						"indexed": false,
						"internalType": "int256",
						"name": "term4",
						"type": "int256"
					},
					{
						"indexed": false,
						"internalType": "int256",
						"name": "k13",
						"type": "int256"
					}
				],
				"name": "T",
				"type": "event"
			},
			{
				"constant": false,
				"inputs": [
					{
						"internalType": "uint256",
						"name": "x_amount",
						"type": "uint256"
					},
					{
						"internalType": "uint256",
						"name": "y_amount",
						"type": "uint256"
					}
				],
				"name": "addLiquidity",
				"outputs": [],
				"payable": false,
				"stateMutability": "nonpayable",
				"type": "function"
			},
			{
				"constant": true,
				"inputs": [
					{
						"internalType": "address",
						"name": "account",
						"type": "address"
					}
				],
				"name": "balanceOf",
				"outputs": [
					{
						"internalType": "uint256",
						"name": "",
						"type": "uint256"
					}
				],
				"payable": false,
				"stateMutability": "view",
				"type": "function"
			},
			{
				"constant": true,
				"inputs": [],
				"name": "gState",
				"outputs": [
					{
						"internalType": "bool",
						"name": "isInitialized",
						"type": "bool"
					},
					{
						"internalType": "address",
						"name": "xAddress",
						"type": "address"
					},
					{
						"internalType": "address",
						"name": "yAddress",
						"type": "address"
					},
					{
						"internalType": "int256",
						"name": "x",
						"type": "int256"
					},
					{
						"internalType": "int256",
						"name": "y",
						"type": "int256"
					},
					{
						"internalType": "uint256",
						"name": "l",
						"type": "uint256"
					},
					{
						"internalType": "int256",
						"name": "pBarX",
						"type": "int256"
					},
					{
						"internalType": "uint256",
						"name": "rhoNumerator",
						"type": "uint256"
					},
					{
						"internalType": "int256",
						"name": "rhoRatio",
						"type": "int256"
					},
					{
						"internalType": "int256",
						"name": "fee",
						"type": "int256"
					},
					{
						"internalType": "uint256",
						"name": "t",
						"type": "uint256"
					},
					{
						"internalType": "int256",
						"name": "beta",
						"type": "int256"
					},
					{
						"internalType": "int256",
						"name": "eToKappa",
						"type": "int256"
					}
				],
				"payable": false,
				"stateMutability": "view",
				"type": "function"
			},
			{
				"constant": false,
				"inputs": [
					{
						"internalType": "address",
						"name": "xAddress",
						"type": "address"
					},
					{
						"internalType": "address",
						"name": "yAddress",
						"type": "address"
					}
				],
				"name": "initState",
				"outputs": [],
				"payable": false,
				"stateMutability": "nonpayable",
				"type": "function"
			},
			{
				"constant": true,
				"inputs": [],
				"name": "owner",
				"outputs": [
					{
						"internalType": "address",
						"name": "",
						"type": "address"
					}
				],
				"payable": false,
				"stateMutability": "view",
				"type": "function"
			},
			{
				"constant": false,
				"inputs": [
					{
						"internalType": "uint256",
						"name": "l_amount",
						"type": "uint256"
					}
				],
				"name": "removeLiquidity",
				"outputs": [],
				"payable": false,
				"stateMutability": "nonpayable",
				"type": "function"
			},
			{
				"constant": false,
				"inputs": [
					{
						"internalType": "address",
						"name": "fromToken",
						"type": "address"
					},
					{
						"internalType": "address",
						"name": "toToken",
						"type": "address"
					},
					{
						"internalType": "uint256",
						"name": "amount",
						"type": "uint256"
					}
				],
				"name": "swap",
				"outputs": [
					{
						"internalType": "uint256",
						"name": "amountReceived",
						"type": "uint256"
					}
				],
				"payable": false,
				"stateMutability": "nonpayable",
				"type": "function"
			},
			{
				"constant": false,
				"inputs": [
					{
						"internalType": "address",
						"name": "newOwner",
						"type": "address"
					}
				],
				"name": "transferOwnership",
				"outputs": [],
				"payable": false,
				"stateMutability": "nonpayable",
				"type": "function"
			}
		],
		"devdoc": {
			"methods": {
				"addLiquidity(uint256,uint256)": {
					"details": "Allows a sender to deposit tokens into the contract to provide liquidity.",
					"params": {
						"x_amount": "The amount of x that should be taken from the sender's balance.",
						"y_amount": "The amount of x that should be taken from the sender's balance."
					}
				},
				"removeLiquidity(uint256)": {
					"details": "Allows a sender to withdraw tokens by burning liquidity tokens.",
					"params": {
						"l_amount": "The amount of liquidity tokens to burn."
					}
				}
			}
		},
		"evm": {
			"bytecode": {
				"linkReferences": {},
				"object": "0x608060405234801561001057600080fd5b50600080546001600160a01b0319163317905561345a806100326000396000f3fe608060405234801561001057600080fd5b50600436106100885760003560e01c80639cd441da1161005b5780639cd441da146100f3578063afd46eb514610106578063df791e5014610127578063f2fde38b1461013a57610088565b806370a082311461008d5780637b689036146100b65780638da5cb5b146100cb5780639c8f9f23146100e0575b600080fd5b6100a061009b366004612c55565b61014d565b6040516100ad91906133ec565b60405180910390f35b6100c96100c4366004612c70565b610179565b005b6100d361018f565b6040516100ad9190612d3d565b6100c96100ee366004612d04565b6101ab565b6100c9610101366004612d1c565b6103e8565b61010e6106a1565b6040516100ad9d9c9b9a99989796959493929190612e4b565b6100a0610135366004612ca4565b6106f6565b6100c9610148366004612c55565b6108ad565b73ffffffffffffffffffffffffffffffffffffffff81166000908152600b60205260409020545b919050565b610181610980565b61018b82826109d3565b5050565b60005473ffffffffffffffffffffffffffffffffffffffff1681565b6005546003546001916000916101dc91906101d0908690607f1c63ffffffff610b2616565b9063ffffffff610b8316565b9050600061020383600401546101d0607f8660030154901c87610b2690919063ffffffff16565b905061021b836002015461021684610bd0565b610c26565b600284015560038301546102329061021683610bd0565b6003840155336000908152600a84016020526040902054610259908563ffffffff610c9616565b336000908152600a850160205260409020556004830154610280908563ffffffff610cd816565b60048481019190915583546040517fa9059cbb00000000000000000000000000000000000000000000000000000000815261010090910473ffffffffffffffffffffffffffffffffffffffff169163a9059cbb916102e2913391879101612e25565b602060405180830381600087803b1580156102fc57600080fd5b505af1158015610310573d6000803e3d6000fd5b505050506040513d601f19601f820116820180604052506103349190810190612ce4565b5060018301546040517fa9059cbb00000000000000000000000000000000000000000000000000000000815273ffffffffffffffffffffffffffffffffffffffff9091169063a9059cbb9061038f9033908590600401612e25565b602060405180830381600087803b1580156103a957600080fd5b505af11580156103bd573d6000803e3d6000fd5b505050506040513d601f19601f820116820180604052506103e19190810190612ce4565b5050505050565b600160006103fe84670de0b6b3a7640000610d17565b9050600061040f84620f4240610d17565b9050610428836002015482610db190919063ffffffff16565b600384015461043e90849063ffffffff610db116565b1461047e576040517f08c379a000000000000000000000000000000000000000000000000000000000815260040161047590612f08565b60405180910390fd5b82546040517f23b872dd00000000000000000000000000000000000000000000000000000000815261010090910473ffffffffffffffffffffffffffffffffffffffff16906323b872dd906104db90339030908a90600401612dc6565b602060405180830381600087803b1580156104f557600080fd5b505af1158015610509573d6000803e3d6000fd5b505050506040513d601f19601f8201168201806040525061052d9190810190612ce4565b5060018301546040517f23b872dd00000000000000000000000000000000000000000000000000000000815273ffffffffffffffffffffffffffffffffffffffff909116906323b872dd9061058a90339030908990600401612dc6565b602060405180830381600087803b1580156105a457600080fd5b505af11580156105b8573d6000803e3d6000fd5b505050506040513d601f19601f820116820180604052506105dc9190810190612ce4565b5060008360020154600014156105fb5750600160048401556000610621565b61061e607f8560020154901c6101d0866004015489610b2690919063ffffffff16565b90505b61062f846002015484610e6f565b600285015560038401546106439083610e6f565b6003850155336000908152600a8501602052604090205461066a908263ffffffff610cd816565b336000908152600a860160205260409020556004840154610691908263ffffffff610cd816565b8460040181905550505050505050565b600154600254600354600454600554600654600754600854600954600a54600c54600d5460ff8c169b73ffffffffffffffffffffffffffffffffffffffff61010090910481169b16999897969594939291908d565b6000610700612b9b565b610708610e7b565b9050806020015173ffffffffffffffffffffffffffffffffffffffff168573ffffffffffffffffffffffffffffffffffffffff161480156107785750806040015173ffffffffffffffffffffffffffffffffffffffff168473ffffffffffffffffffffffffffffffffffffffff16145b156107a6576000610793868661078d87610f21565b85610f2e565b905061079e816112aa565b925050610866565b806040015173ffffffffffffffffffffffffffffffffffffffff168573ffffffffffffffffffffffffffffffffffffffff161480156108145750806020015173ffffffffffffffffffffffffffffffffffffffff168473ffffffffffffffffffffffffffffffffffffffff16145b15610834576000610829868661078d87610f21565b905061079e816112b7565b6040517f08c379a000000000000000000000000000000000000000000000000000000000815260040161047590613078565b7f256db8090fa51c3bac981768637d5a7c46b5540644dcef89052b89dbb2f6c8ea338686868660405161089d959493929190612d85565b60405180910390a1509392505050565b6108b5610980565b73ffffffffffffffffffffffffffffffffffffffff8116610902576040517f08c379a000000000000000000000000000000000000000000000000000000000815260040161047590613245565b600080547fffffffffffffffffffffffff00000000000000000000000000000000000000001673ffffffffffffffffffffffffffffffffffffffff83161790556040517f8be0079c531659141344cd1fd0a4f28419497f9722a3daafe3b4186f6b6457e0906109749033908490612d5e565b60405180910390a15b50565b60005473ffffffffffffffffffffffffffffffffffffffff1633146109d1576040517f08c379a00000000000000000000000000000000000000000000000000000000081526004016104759061300a565b565b60015460ff1615610a10576040517f08c379a000000000000000000000000000000000000000000000000000000000815260040161047590613041565b600180547fffffffffffffffffffffff0000000000000000000000000000000000000000ff1661010073ffffffffffffffffffffffffffffffffffffffff8581169190910291909117909155600280547fffffffffffffffffffffffff000000000000000000000000000000000000000016918316919091179055610a9760636064610d17565b60065560636007819055610aac906064610d17565b600855610abc6005612710610d17565b600955610ae4610ad06001620f42406112c4565b610ad86112e3565b9063ffffffff610c2616565b600c55610af56127156103e86112c4565b600d555050600180547fffffffffffffffffffffffffffffffffffffffffffffffffffffffffffffff001681179055565b600082610b3557506000610b7d565b82820282848281610b4257fe5b0414610b7a576040517f08c379a0000000000000000000000000000000000000000000000000000000008152600401610475906131d7565b90505b92915050565b600081610bbc576040517f08c379a000000000000000000000000000000000000000000000000000000000815260040161047590612f65565b6000828481610bc757fe5b04949350505050565b600080821215610c0c576040517f08c379a00000000000000000000000000000000000000000000000000000000081526004016104759061317a565b610b7d826f800000000000000000000000000000006112f7565b60007f8000000000000000000000000000000000000000000000000000000000000000821415610c82576040517f08c379a0000000000000000000000000000000000000000000000000000000008152600401610475906132ea565b610c8f838360000361136d565b9392505050565b600082821115610cd2576040517f08c379a000000000000000000000000000000000000000000000000000000000815260040161047590612f9c565b50900390565b600082820183811015610b7a576040517f08c379a000000000000000000000000000000000000000000000000000000000815260040161047590612ed1565b600080831215610d53576040517f08c379a000000000000000000000000000000000000000000000000000000000815260040161047590613321565b6000821215610d8e576040517f08c379a0000000000000000000000000000000000000000000000000000000008152600401610475906130af565b610c8f610dab846f800000000000000000000000000000006112f7565b836113e3565b600080610de26f80000000000000000000000000000000610ddd610dd4876114b2565b610ddd876114b2565b6112f7565b90506000610dfb610df2866114c8565b610ddd866114b2565b90506000610e14610e0b876114b2565b610ddd876114c8565b90506000610e46610e30610e27896114c8565b610ddd896114c8565b6f800000000000000000000000000000006113e3565b9050610e64610e5e610e58868661136d565b8461136d565b8261136d565b979650505050505050565b6000610c8f838361136d565b610e83612b9b565b50604080516101a08101825260015460ff81161515825273ffffffffffffffffffffffffffffffffffffffff610100918290048116602084015260025416928201929092526003546060820152600454608082015260055460a082015260065460c082015260075460e082015260085491810191909152600954610120820152600a54610140820152600c54610160820152600d5461018082015290565b6000610b7d826012611505565b6020810151600090819081908190819073ffffffffffffffffffffffffffffffffffffffff8a81169116148015610f945750856040015173ffffffffffffffffffffffffffffffffffffffff168873ffffffffffffffffffffffffffffffffffffffff16145b15610fb357505050506060820151608083015160c08401516001611053565b856040015173ffffffffffffffffffffffffffffffffffffffff168973ffffffffffffffffffffffffffffffffffffffff161480156110215750856020015173ffffffffffffffffffffffffffffffffffffffff168873ffffffffffffffffffffffffffffffffffffffff16145b156108345785608001519350856060015192506110508660c001516110446112e3565b9063ffffffff61151416565b91505b60006110668585858a610100015161158e565b90506000611078868684878d8d611644565b905060006110ac6110908a6101200151610ad86112e3565b6110a08c8563ffffffff610db116565b9063ffffffff610db116565b90506110bf60008263ffffffff610c2616565b905060006110d16001620186a06112c4565b90506000821261110d576040517f08c379a000000000000000000000000000000000000000000000000000000000815260040161047590613143565b8061111e888463ffffffff610e6f16565b1361113657611133818863ffffffff610c2616565b91505b60006111568b61014001516111496117ab565b8d6101600151888b6117af565b6101808c015190915061116f908863ffffffff610db116565b811315611193576101808b015161118c908863ffffffff610db116565b90506111cc565b866111ac8c610180015183610db190919063ffffffff16565b12156111cc576101808b01516111c990889063ffffffff61151416565b90505b6111d46117ab565b6101408c01528515611216576111f0898d63ffffffff610e6f16565b60608c0152611205888463ffffffff610e6f16565b60808c015260c08b01819052611252565b611226888463ffffffff610e6f16565b60608c015261123b898d63ffffffff610e6f16565b60808c015261124c816110446112e3565b60c08c01525b61125b8b611890565b7f666804e599b015edcfb9de12153bf8a48aa5a84b8861b8fa88c1cf4b11974c15338d8560405161128e93929190612df7565b60405180910390a150506000039b9a5050505050505050505050565b6000610b7d8260066118b2565b6000610b7d8260126118b2565b6000610c8f610dab846f800000000000000000000000000000006112f7565b6f8000000000000000000000000000000090565b6000821580611304575081155b1561131157506000610b7d565b508181028183828161131f57fe5b0514158061133657508282828161133257fe5b0514155b15610b7d576040517f08c379a00000000000000000000000000000000000000000000000000000000081526004016104759061327c565b8181016000831280156113805750600082125b801561138b57508281135b806113ac57506000831380156113a15750600082135b80156113ac57508281125b15610b7d576040517f08c379a0000000000000000000000000000000000000000000000000000000008152600401610475906132b3565b60008161141c576040517f08c379a00000000000000000000000000000000000000000000000000000000081526004016104759061337e565b7f80000000000000000000000000000000000000000000000000000000000000008314801561146a5750817fffffffffffffffffffffffffffffffffffffffffffffffffffffffffffffffff145b156114a1576040517f08c379a0000000000000000000000000000000000000000000000000000000008152600401610475906133b5565b8183816114aa57fe5b059392505050565b6f80000000000000000000000000000000900590565b60008082136114ef576f7fffffffffffffffffffffffffffffff8260000316600003610b7d565b506f7fffffffffffffffffffffffffffffff1690565b6000610c8f8383600a0a610d17565b600080611520846114b2565b9050801561156b57611563611534856114b2565b610ddd61155d87610ddd6f800000000000000000000000000000006115588b6114b2565b6113e3565b866113e3565b915050610b7d565b611563611588856f800000000000000000000000000000006112f7565b846113e3565b6000806115a1848763ffffffff610db116565b905060006115b5868363ffffffff61151416565b905060006115c9838863ffffffff61151416565b905060006115d986610ad86112e3565b905060006115e56112e3565b841215611608576116016115fc836110a0876118c2565b611fac565b9050611626565b61162361161b6115fc846110a0876118c2565b6110446112e3565b90505b611636818963ffffffff610db116565b9a9950505050505050505050565b60008061169961168c61167c6116608a8863ffffffff610db116565b6116708c8c63ffffffff610db116565b9063ffffffff610e6f16565b611044898863ffffffff610db116565b899063ffffffff610db116565b905060006116bd6116b08a8763ffffffff610e6f16565b8a9063ffffffff61151416565b905060006116cf8a8a8a8a8a8a6125ba565b905060006116e28b8b8b8b8b878c6126ad565b905060006116f68c8c8c8c8c8a8a8e61274d565b905061170882828961012001516127e6565b1561178057600061171c838388888c612880565b809250819350505061173483838a61012001516127e6565b1561177e57600061174984848989868e612923565b6101208d01519397509195509350915061176690859085906127e6565b1561177c57611779848484848b8b6129a5565b93505b505b505b61178982612a55565b915061179b828b63ffffffff610db116565b9c9b505050505050505050505050565b4390565b6000806117bd878703610bd0565b905060006117dd6115fc6117d0886118c2565b849063ffffffff610db116565b905060006117ed82610ad86112e3565b90506000611801878363ffffffff610db116565b90506000611815878563ffffffff610db116565b9050600061184161182c858a63ffffffff610db116565b61183c878c63ffffffff610db116565b610e6f565b90506000611859826110448c8c63ffffffff610db116565b9050600061187e61186a6002612a77565b61104484611670898963ffffffff610e6f16565b9e9d5050505050505050505050505050565b6060810151600355608081015160045560c08101516006556101400151600a55565b6000610c8f82600a0a84026114b2565b60006f8000000000000000000000000000000082131561190e576040517f08c379a00000000000000000000000000000000000000000000000000000000081526004016104759061310c565b60008213611948576040517f08c379a000000000000000000000000000000000000000000000000000000000815260040161047590612fd3565b6f8000000000000000000000000000000082141561196857506000610174565b640733048c5a821361199b57507fffffffffffffffffffffffffffffffe010000000000000000000000000000000610174565b60008060006a01c8464f7616476000000085136119fa577ffffffffffffffffffffffffffffffff000000000000000000000000000000000909301926a01c8464f761647600000006f8000000000000000000000000000000086020594505b6cf1aaddd7742e900000000000008513611a58577ffffffffffffffffffffffffffffffff800000000000000000000000000000000909301926cf1aaddd7742e900000000000006f8000000000000000000000000000000086020594505b6e0afe10820813d780000000000000008513611aba577ffffffffffffffffffffffffffffffffc00000000000000000000000000000000909301926e0afe10820813d780000000000000006f8000000000000000000000000000000086020594505b6f02582ab704279ec000000000000000008513611b1e577ffffffffffffffffffffffffffffffffe00000000000000000000000000000000909301926f02582ab704279ec000000000000000006f8000000000000000000000000000000086020594505b6f1152aaa3bf81cc0000000000000000008513611b82577fffffffffffffffffffffffffffffffff00000000000000000000000000000000909301926f1152aaa3bf81cc0000000000000000006f8000000000000000000000000000000086020594505b6f2f16ac6c59de700000000000000000008513611be6577fffffffffffffffffffffffffffffffff80000000000000000000000000000000909301926f2f16ac6c59de700000000000000000006f8000000000000000000000000000000086020594505b6f4da2cbf1be58280000000000000000008513611c4a577fffffffffffffffffffffffffffffffffc0000000000000000000000000000000909301926f4da2cbf1be58280000000000000000006f8000000000000000000000000000000086020594505b6f63afbe7ab2082c0000000000000000008513611cae577fffffffffffffffffffffffffffffffffe0000000000000000000000000000000909301926f63afbe7ab2082c0000000000000000006f8000000000000000000000000000000086020594505b6f70f5a893b608861e1f58934f97aea57d8513611d12577ffffffffffffffffffffffffffffffffff0000000000000000000000000000000909301926f70f5a893b608861e1f58934f97aea57d6f8000000000000000000000000000000086020594505b7fffffffffffffffffffffffffffffffff80000000000000000000000000000000850192508291506f80000000000000000000000000000000828002059050700100000000000000000000000000000000838103830205840193506f8000000000000000000000000000000081830281611d8857fe5b059150700200000000000000000000000000000000836faaaaaaaaaaaaaaaaaaaaaaaaaaaaaaaa03830281611db957fe5b05840193506f8000000000000000000000000000000081830281611dd957fe5b059150700300000000000000000000000000000000836f9999999999999999999999999999999903830281611e0a57fe5b05840193506f8000000000000000000000000000000081830281611e2a57fe5b059150700400000000000000000000000000000000836f9249249249249249249249249249249203830281611e5b57fe5b05840193506f8000000000000000000000000000000081830281611e7b57fe5b059150700500000000000000000000000000000000836f8e38e38e38e38e38e38e38e38e38e38e03830281611eac57fe5b05840193506f8000000000000000000000000000000081830281611ecc57fe5b059150700600000000000000000000000000000000836f8ba2e8ba2e8ba2e8ba2e8ba2e8ba2e8b03830281611efd57fe5b05840193506f8000000000000000000000000000000081830281611f1d57fe5b059150700700000000000000000000000000000000836f89d89d89d89d89d89d89d89d89d89d8903830281611f4e57fe5b05840193506f8000000000000000000000000000000081830281611f6e57fe5b059150700800000000000000000000000000000000836f8888888888888888888888888888888803830281611f9f57fe5b0584019350505050919050565b60007fffffffffffffffffffffffffffffffe010000000000000000000000000000000821215611fde57506000610174565b81611ffa57506f80000000000000000000000000000000610174565b6000821315612035576040517f08c379a00000000000000000000000000000000000000000000000000000000081526004016104759061320e565b6f800000000000000000000000000000006f1000000000000000000000000000000083078080028290056710e1b3be415a0000810293909301929091818302059050806705a0913f6b1e000002830192506f80000000000000000000000000000000828202816120a157fe5b05905080670168244fdac7800002830192506f80000000000000000000000000000000828202816120ce57fe5b05905080664807432bc1800002830192506f80000000000000000000000000000000828202816120fa57fe5b05905080660c0135dca0400002830192506f800000000000000000000000000000008282028161212657fe5b059050806601b707b1cdc00002830192506f800000000000000000000000000000008282028161215257fe5b059050806536e0f639b80002830192506f800000000000000000000000000000008282028161217d57fe5b05905080650618fee9f80002830192506f80000000000000000000000000000000828202816121a857fe5b05905080649c197dcc0002830192506f80000000000000000000000000000000828202816121d257fe5b05905080640e30dce40002830192506f80000000000000000000000000000000828202816121fc57fe5b0590508064012ebd130002830192506f800000000000000000000000000000008282028161222657fe5b059050806317499f0002830192506f800000000000000000000000000000008282028161224f57fe5b059050806301a9d48002830192506f800000000000000000000000000000008282028161227857fe5b05905080621c638002830192506f80000000000000000000000000000000828202816122a057fe5b059050806201c63802830192506f80000000000000000000000000000000828202816122c857fe5b05905080611ab802830192506f80000000000000000000000000000000828202816122ef57fe5b0590508061017c02830192506f800000000000000000000000000000008282028161231657fe5b05905080601402830192506f800000000000000000000000000000008282028161233c57fe5b600095909503946721c3677c82b400009190059384010582016f80000000000000000000000000000000019290507010000000000000000000000000000000008416156123ab577243cbaf42a000812488fc5c220ad7b97bf6e99e6cf1aaddd7742e56d32fb9f9974484020592505b7008000000000000000000000000000000008416156123ed577105d27a9f51c31b7c2f8038212a05747799916e0afe10820813d65dfe6a33c07f738f84020592505b70040000000000000000000000000000000084161561242f57701b4c902e273a58678d6d3bfdb93db96d026f02582ab704279e8efd15e0265855c47a84020592505b700200000000000000000000000000000000841615612471577003b1cc971a9bb5b9867477440d6d1577506f1152aaa3bf81cb9fdb76eae12d02957184020592505b7001000000000000000000000000000000008416156124b35770015bf0a8b1457695355fb8ac404e7a79e36f2f16ac6c59de6f8d5d6f63c1482a7c8684020592505b6f800000000000000000000000000000008416156124f3576fd3094c70f034de4b96ff7d5b6f99fcd86f4da2cbf1be5827f9eb3ad1aa9866ebb384020592505b6f40000000000000000000000000000000841615612533576fa45af1e1f40c333b3de1db4dd55f29a76f63afbe7ab2082ba1a0ae5e4eb1b479dc84020592505b6f20000000000000000000000000000000841615612573576f910b022db7ae67ce76b441c27035c6a16f70f5a893b608861e1f58934f97aea57d84020592505b6f100000000000000000000000000000008416156125b3576f88415abbe9a76bead8d00cf112e4d4a86f783eafef1c0a8f3978c7f81824d62ebf84020592505b5050919050565b6000806125c76002612a77565b905060006126066125e689866101000151610db190919063ffffffff16565b610ad8896110a08d6110a08a610100015189610c2690919063ffffffff16565b9050600061262c6126238a6110a08d6110a08d6110a06004612a77565b61167084612a93565b9050600061264884611044612643856110446112e3565b6118c2565b600003905060008082131561266b5761266661161b83600003611fac565b612674565b61267482611fac565b9050600061269f61268b878d63ffffffff610db116565b61104460008890038563ffffffff610e6f16565b9050600061187e8a83612a9f565b6000806126e06126d36126c6868a63ffffffff610db116565b8a9063ffffffff610c2616565b8a9063ffffffff610db116565b905060006126f76126d38b8763ffffffff610e6f16565b9050600061270e612643848463ffffffff61151416565b90506000612727826110a0886101000151610ad86112e3565b9050600061273c896110448a6110a086611fac565b9d9c50505050505050505050505050565b600080612760848663ffffffff61151416565b9050600061278e61277c866110a0876101000151610ad86112e3565b6101008601519063ffffffff610e6f16565b905060006127b26127aa886110a0886101000151610ad86112e3565b6116706112e3565b905060006127c6838363ffffffff61151416565b90508084126127d5578061273c565b50919b9a5050505050505050505050565b6000806127f9848663ffffffff610c2616565b905060006128096001600a6112c4565b9050600061283961282c61281f88610ad86112e3565b879063ffffffff610e6f16565b839063ffffffff610db116565b90507f34ae76bc42b30cb0f8b76bfddc91a95efe45ed0b3c7419efccce432de252a822838260405161286c929190612ec3565b60405180910390a190911395945050505050565b60008061288c87612ab6565b905060006128be6128a8866110a0876101000151610ad86112e3565b610100860151611670908563ffffffff610db116565b905060006128eb6128de8a6110a08a6110a08a6101000151610ad86112e3565b849063ffffffff610e6f16565b90506000612903826110448c8663ffffffff610db116565b90508881126129125788612914565b805b94505050509550959350505050565b60008060008060006129358b8b612b55565b9050600061294282612ab6565b905060006129666129598c8563ffffffff610db116565b8b9063ffffffff610c2616565b905080821361298b57828c8361297b8f612ab6565b9650965096509650505050612998565b508b955090935086925090505b9650965096509692505050565b6000806129ee6129cb6129be898b63ffffffff610c2616565b859063ffffffff610db116565b6116706129de898b63ffffffff610db116565b610ad8898d63ffffffff610db116565b90506000612a25612a15612a088a8c63ffffffff610c2616565b879063ffffffff610db116565b611670888a63ffffffff610c2616565b90506000612a39838363ffffffff61151416565b9050898113612a485789611636565b9998505050505050505050565b6000612a636009600a6112c4565b8212612a6f5781610b7d565b506000919050565b6000610b7d826f800000000000000000000000000000006112f7565b6000610b7d8283610db1565b600081831315612aaf5781610c8f565b5090919050565b600080612ac9838063ffffffff610db116565b90506000612add848363ffffffff610db116565b90506000612af1828063ffffffff610db116565b90506000612b05828063ffffffff610db116565b90506000612b19828063ffffffff610db116565b90506000612b2d828063ffffffff610db116565b90506000612b41828863ffffffff610db116565b90506000611636828063ffffffff610db116565b6000610c8f612b64600a612a77565b611044612b81612b746006612a77565b869063ffffffff610db116565b611670612b8e6004612a77565b889063ffffffff610db116565b604051806101a00160405280600015158152602001600073ffffffffffffffffffffffffffffffffffffffff168152602001600073ffffffffffffffffffffffffffffffffffffffff168152602001600081526020016000815260200160008152602001600081526020016000815260200160008152602001600081526020016000815260200160008152602001600081525090565b803573ffffffffffffffffffffffffffffffffffffffff81168114610b7d57600080fd5b600060208284031215612c66578081fd5b610c8f8383612c31565b60008060408385031215612c82578081fd5b612c8c8484612c31565b9150612c9b8460208501612c31565b90509250929050565b600080600060608486031215612cb8578081fd5b8335612cc3816133f5565b92506020840135612cd3816133f5565b929592945050506040919091013590565b600060208284031215612cf5578081fd5b81518015158114610b7a578182fd5b600060208284031215612d15578081fd5b5035919050565b60008060408385031215612d2e578182fd5b50508035926020909101359150565b73ffffffffffffffffffffffffffffffffffffffff91909116815260200190565b73ffffffffffffffffffffffffffffffffffffffff92831681529116602082015260400190565b73ffffffffffffffffffffffffffffffffffffffff958616815293851660208501529190931660408301526060820192909252608081019190915260a00190565b73ffffffffffffffffffffffffffffffffffffffff9384168152919092166020820152604081019190915260600190565b73ffffffffffffffffffffffffffffffffffffffff9390931683526020830191909152604082015260600190565b73ffffffffffffffffffffffffffffffffffffffff929092168252602082015260400190565b9c15158d5273ffffffffffffffffffffffffffffffffffffffff9b8c1660208e015299909a1660408c015260608b019790975260808a019590955260a089019390935260c088019190915260e08701526101008601526101208501526101408401526101608301919091526101808201526101a00190565b918252602082015260400190565b60208082526011908201527f736166654164643a206f766572666c6f77000000000000000000000000000000604082015260600190565b6020808252602a908201527f4c697175696474793a416d6f756e74206465706f7369746564206e6f7420707260408201527f6f706f7274696f6e616c00000000000000000000000000000000000000000000606082015260800190565b60208082526011908201527f736166654469763a206f766572666c6f77000000000000000000000000000000604082015260600190565b60208082526012908201527f736166655375623a20756e646572666c6f770000000000000000000000000000604082015260600190565b60208082526013908201527f6c6e3a2076616c756520746f6f20736d616c6c00000000000000000000000000604082015260600190565b6020808252600e908201527f4f6e6c794f776e65724572726f72000000000000000000000000000000000000604082015260600190565b60208082526013908201527f416c726561647920496e697469616c697a656400000000000000000000000000604082015260600190565b60208082526017908201527f496e76616c696420746f6b656e20616464726573736573000000000000000000604082015260600190565b60208082526038908201527f746f46697865642875696e742c75696e74293a2064656e6f6d696e61746f722060408201527f63616e6e6f74206265206c657373207468616e207a65726f0000000000000000606082015260800190565b60208082526013908201527f6c6e3a2076616c756520746f6f206c6172676500000000000000000000000000604082015260600190565b6020808252601a908201527f547269656420746f20707572636861736520746f6f206d756368000000000000604082015260600190565b60208082526027908201527f746f46697865643a2076616c75652063616e6e6f74206265206c65737320746860408201527f616e207a65726f00000000000000000000000000000000000000000000000000606082015260800190565b60208082526011908201527f736166654d756c3a206f766572666c6f77000000000000000000000000000000604082015260600190565b60208082526014908201527f6578703a2076616c756520746f6f20736d616c6c000000000000000000000000604082015260600190565b60208082526018908201527f5472616e736665724f776e6572546f5a65726f4572726f720000000000000000604082015260600190565b6020808252600e908201527f5f6d756c3a206f766572666c6f77000000000000000000000000000000000000604082015260600190565b6020808252600e908201527f5f6164643a206f766572666c6f77000000000000000000000000000000000000604082015260600190565b60208082526014908201527f7375623a2076616c756520746f6f20736d616c6c000000000000000000000000604082015260600190565b60208082526036908201527f746f46697865642875696e742c75696e74293a206e756d657261746f7220636160408201527f6e6e6f74206265206c657373207468616e207a65726f00000000000000000000606082015260800190565b60208082526014908201527f5f6469763a20646976696465206279207a65726f000000000000000000000000604082015260600190565b6020808252600e908201527f5f6469763a206f766572666c6f77000000000000000000000000000000000000604082015260600190565b90815260200190565b73ffffffffffffffffffffffffffffffffffffffff8116811461097d57600080fdfea365627a7a723158205c51cfb20cf0cff1790da7a07ed00603c18714e7373bf474ed20e8a775ce41256c6578706572696d656e74616cf564736f6c634300050c0040",
				"opcodes": "PUSH1 0x80 PUSH1 0x40 MSTORE CALLVALUE DUP1 ISZERO PUSH2 0x10 JUMPI PUSH1 0x0 DUP1 REVERT JUMPDEST POP PUSH1 0x0 DUP1 SLOAD PUSH1 0x1 PUSH1 0x1 PUSH1 0xA0 SHL SUB NOT AND CALLER OR SWAP1 SSTORE PUSH2 0x345A DUP1 PUSH2 0x32 PUSH1 0x0 CODECOPY PUSH1 0x0 RETURN INVALID PUSH1 0x80 PUSH1 0x40 MSTORE CALLVALUE DUP1 ISZERO PUSH2 0x10 JUMPI PUSH1 0x0 DUP1 REVERT JUMPDEST POP PUSH1 0x4 CALLDATASIZE LT PUSH2 0x88 JUMPI PUSH1 0x0 CALLDATALOAD PUSH1 0xE0 SHR DUP1 PUSH4 0x9CD441DA GT PUSH2 0x5B JUMPI DUP1 PUSH4 0x9CD441DA EQ PUSH2 0xF3 JUMPI DUP1 PUSH4 0xAFD46EB5 EQ PUSH2 0x106 JUMPI DUP1 PUSH4 0xDF791E50 EQ PUSH2 0x127 JUMPI DUP1 PUSH4 0xF2FDE38B EQ PUSH2 0x13A JUMPI PUSH2 0x88 JUMP JUMPDEST DUP1 PUSH4 0x70A08231 EQ PUSH2 0x8D JUMPI DUP1 PUSH4 0x7B689036 EQ PUSH2 0xB6 JUMPI DUP1 PUSH4 0x8DA5CB5B EQ PUSH2 0xCB JUMPI DUP1 PUSH4 0x9C8F9F23 EQ PUSH2 0xE0 JUMPI JUMPDEST PUSH1 0x0 DUP1 REVERT JUMPDEST PUSH2 0xA0 PUSH2 0x9B CALLDATASIZE PUSH1 0x4 PUSH2 0x2C55 JUMP JUMPDEST PUSH2 0x14D JUMP JUMPDEST PUSH1 0x40 MLOAD PUSH2 0xAD SWAP2 SWAP1 PUSH2 0x33EC JUMP JUMPDEST PUSH1 0x40 MLOAD DUP1 SWAP2 SUB SWAP1 RETURN JUMPDEST PUSH2 0xC9 PUSH2 0xC4 CALLDATASIZE PUSH1 0x4 PUSH2 0x2C70 JUMP JUMPDEST PUSH2 0x179 JUMP JUMPDEST STOP JUMPDEST PUSH2 0xD3 PUSH2 0x18F JUMP JUMPDEST PUSH1 0x40 MLOAD PUSH2 0xAD SWAP2 SWAP1 PUSH2 0x2D3D JUMP JUMPDEST PUSH2 0xC9 PUSH2 0xEE CALLDATASIZE PUSH1 0x4 PUSH2 0x2D04 JUMP JUMPDEST PUSH2 0x1AB JUMP JUMPDEST PUSH2 0xC9 PUSH2 0x101 CALLDATASIZE PUSH1 0x4 PUSH2 0x2D1C JUMP JUMPDEST PUSH2 0x3E8 JUMP JUMPDEST PUSH2 0x10E PUSH2 0x6A1 JUMP JUMPDEST PUSH1 0x40 MLOAD PUSH2 0xAD SWAP14 SWAP13 SWAP12 SWAP11 SWAP10 SWAP9 SWAP8 SWAP7 SWAP6 SWAP5 SWAP4 SWAP3 SWAP2 SWAP1 PUSH2 0x2E4B JUMP JUMPDEST PUSH2 0xA0 PUSH2 0x135 CALLDATASIZE PUSH1 0x4 PUSH2 0x2CA4 JUMP JUMPDEST PUSH2 0x6F6 JUMP JUMPDEST PUSH2 0xC9 PUSH2 0x148 CALLDATASIZE PUSH1 0x4 PUSH2 0x2C55 JUMP JUMPDEST PUSH2 0x8AD JUMP JUMPDEST PUSH20 0xFFFFFFFFFFFFFFFFFFFFFFFFFFFFFFFFFFFFFFFF DUP2 AND PUSH1 0x0 SWAP1 DUP2 MSTORE PUSH1 0xB PUSH1 0x20 MSTORE PUSH1 0x40 SWAP1 KECCAK256 SLOAD JUMPDEST SWAP2 SWAP1 POP JUMP JUMPDEST PUSH2 0x181 PUSH2 0x980 JUMP JUMPDEST PUSH2 0x18B DUP3 DUP3 PUSH2 0x9D3 JUMP JUMPDEST POP POP JUMP JUMPDEST PUSH1 0x0 SLOAD PUSH20 0xFFFFFFFFFFFFFFFFFFFFFFFFFFFFFFFFFFFFFFFF AND DUP2 JUMP JUMPDEST PUSH1 0x5 SLOAD PUSH1 0x3 SLOAD PUSH1 0x1 SWAP2 PUSH1 0x0 SWAP2 PUSH2 0x1DC SWAP2 SWAP1 PUSH2 0x1D0 SWAP1 DUP7 SWAP1 PUSH1 0x7F SHR PUSH4 0xFFFFFFFF PUSH2 0xB26 AND JUMP JUMPDEST SWAP1 PUSH4 0xFFFFFFFF PUSH2 0xB83 AND JUMP JUMPDEST SWAP1 POP PUSH1 0x0 PUSH2 0x203 DUP4 PUSH1 0x4 ADD SLOAD PUSH2 0x1D0 PUSH1 0x7F DUP7 PUSH1 0x3 ADD SLOAD SWAP1 SHR DUP8 PUSH2 0xB26 SWAP1 SWAP2 SWAP1 PUSH4 0xFFFFFFFF AND JUMP JUMPDEST SWAP1 POP PUSH2 0x21B DUP4 PUSH1 0x2 ADD SLOAD PUSH2 0x216 DUP5 PUSH2 0xBD0 JUMP JUMPDEST PUSH2 0xC26 JUMP JUMPDEST PUSH1 0x2 DUP5 ADD SSTORE PUSH1 0x3 DUP4 ADD SLOAD PUSH2 0x232 SWAP1 PUSH2 0x216 DUP4 PUSH2 0xBD0 JUMP JUMPDEST PUSH1 0x3 DUP5 ADD SSTORE CALLER PUSH1 0x0 SWAP1 DUP2 MSTORE PUSH1 0xA DUP5 ADD PUSH1 0x20 MSTORE PUSH1 0x40 SWAP1 KECCAK256 SLOAD PUSH2 0x259 SWAP1 DUP6 PUSH4 0xFFFFFFFF PUSH2 0xC96 AND JUMP JUMPDEST CALLER PUSH1 0x0 SWAP1 DUP2 MSTORE PUSH1 0xA DUP6 ADD PUSH1 0x20 MSTORE PUSH1 0x40 SWAP1 KECCAK256 SSTORE PUSH1 0x4 DUP4 ADD SLOAD PUSH2 0x280 SWAP1 DUP6 PUSH4 0xFFFFFFFF PUSH2 0xCD8 AND JUMP JUMPDEST PUSH1 0x4 DUP5 DUP2 ADD SWAP2 SWAP1 SWAP2 SSTORE DUP4 SLOAD PUSH1 0x40 MLOAD PUSH32 0xA9059CBB00000000000000000000000000000000000000000000000000000000 DUP2 MSTORE PUSH2 0x100 SWAP1 SWAP2 DIV PUSH20 0xFFFFFFFFFFFFFFFFFFFFFFFFFFFFFFFFFFFFFFFF AND SWAP2 PUSH4 0xA9059CBB SWAP2 PUSH2 0x2E2 SWAP2 CALLER SWAP2 DUP8 SWAP2 ADD PUSH2 0x2E25 JUMP JUMPDEST PUSH1 0x20 PUSH1 0x40 MLOAD DUP1 DUP4 SUB DUP2 PUSH1 0x0 DUP8 DUP1 EXTCODESIZE ISZERO DUP1 ISZERO PUSH2 0x2FC JUMPI PUSH1 0x0 DUP1 REVERT JUMPDEST POP GAS CALL ISZERO DUP1 ISZERO PUSH2 0x310 JUMPI RETURNDATASIZE PUSH1 0x0 DUP1 RETURNDATACOPY RETURNDATASIZE PUSH1 0x0 REVERT JUMPDEST POP POP POP POP PUSH1 0x40 MLOAD RETURNDATASIZE PUSH1 0x1F NOT PUSH1 0x1F DUP3 ADD AND DUP3 ADD DUP1 PUSH1 0x40 MSTORE POP PUSH2 0x334 SWAP2 SWAP1 DUP2 ADD SWAP1 PUSH2 0x2CE4 JUMP JUMPDEST POP PUSH1 0x1 DUP4 ADD SLOAD PUSH1 0x40 MLOAD PUSH32 0xA9059CBB00000000000000000000000000000000000000000000000000000000 DUP2 MSTORE PUSH20 0xFFFFFFFFFFFFFFFFFFFFFFFFFFFFFFFFFFFFFFFF SWAP1 SWAP2 AND SWAP1 PUSH4 0xA9059CBB SWAP1 PUSH2 0x38F SWAP1 CALLER SWAP1 DUP6 SWAP1 PUSH1 0x4 ADD PUSH2 0x2E25 JUMP JUMPDEST PUSH1 0x20 PUSH1 0x40 MLOAD DUP1 DUP4 SUB DUP2 PUSH1 0x0 DUP8 DUP1 EXTCODESIZE ISZERO DUP1 ISZERO PUSH2 0x3A9 JUMPI PUSH1 0x0 DUP1 REVERT JUMPDEST POP GAS CALL ISZERO DUP1 ISZERO PUSH2 0x3BD JUMPI RETURNDATASIZE PUSH1 0x0 DUP1 RETURNDATACOPY RETURNDATASIZE PUSH1 0x0 REVERT JUMPDEST POP POP POP POP PUSH1 0x40 MLOAD RETURNDATASIZE PUSH1 0x1F NOT PUSH1 0x1F DUP3 ADD AND DUP3 ADD DUP1 PUSH1 0x40 MSTORE POP PUSH2 0x3E1 SWAP2 SWAP1 DUP2 ADD SWAP1 PUSH2 0x2CE4 JUMP JUMPDEST POP POP POP POP POP JUMP JUMPDEST PUSH1 0x1 PUSH1 0x0 PUSH2 0x3FE DUP5 PUSH8 0xDE0B6B3A7640000 PUSH2 0xD17 JUMP JUMPDEST SWAP1 POP PUSH1 0x0 PUSH2 0x40F DUP5 PUSH3 0xF4240 PUSH2 0xD17 JUMP JUMPDEST SWAP1 POP PUSH2 0x428 DUP4 PUSH1 0x2 ADD SLOAD DUP3 PUSH2 0xDB1 SWAP1 SWAP2 SWAP1 PUSH4 0xFFFFFFFF AND JUMP JUMPDEST PUSH1 0x3 DUP5 ADD SLOAD PUSH2 0x43E SWAP1 DUP5 SWAP1 PUSH4 0xFFFFFFFF PUSH2 0xDB1 AND JUMP JUMPDEST EQ PUSH2 0x47E JUMPI PUSH1 0x40 MLOAD PUSH32 0x8C379A000000000000000000000000000000000000000000000000000000000 DUP2 MSTORE PUSH1 0x4 ADD PUSH2 0x475 SWAP1 PUSH2 0x2F08 JUMP JUMPDEST PUSH1 0x40 MLOAD DUP1 SWAP2 SUB SWAP1 REVERT JUMPDEST DUP3 SLOAD PUSH1 0x40 MLOAD PUSH32 0x23B872DD00000000000000000000000000000000000000000000000000000000 DUP2 MSTORE PUSH2 0x100 SWAP1 SWAP2 DIV PUSH20 0xFFFFFFFFFFFFFFFFFFFFFFFFFFFFFFFFFFFFFFFF AND SWAP1 PUSH4 0x23B872DD SWAP1 PUSH2 0x4DB SWAP1 CALLER SWAP1 ADDRESS SWAP1 DUP11 SWAP1 PUSH1 0x4 ADD PUSH2 0x2DC6 JUMP JUMPDEST PUSH1 0x20 PUSH1 0x40 MLOAD DUP1 DUP4 SUB DUP2 PUSH1 0x0 DUP8 DUP1 EXTCODESIZE ISZERO DUP1 ISZERO PUSH2 0x4F5 JUMPI PUSH1 0x0 DUP1 REVERT JUMPDEST POP GAS CALL ISZERO DUP1 ISZERO PUSH2 0x509 JUMPI RETURNDATASIZE PUSH1 0x0 DUP1 RETURNDATACOPY RETURNDATASIZE PUSH1 0x0 REVERT JUMPDEST POP POP POP POP PUSH1 0x40 MLOAD RETURNDATASIZE PUSH1 0x1F NOT PUSH1 0x1F DUP3 ADD AND DUP3 ADD DUP1 PUSH1 0x40 MSTORE POP PUSH2 0x52D SWAP2 SWAP1 DUP2 ADD SWAP1 PUSH2 0x2CE4 JUMP JUMPDEST POP PUSH1 0x1 DUP4 ADD SLOAD PUSH1 0x40 MLOAD PUSH32 0x23B872DD00000000000000000000000000000000000000000000000000000000 DUP2 MSTORE PUSH20 0xFFFFFFFFFFFFFFFFFFFFFFFFFFFFFFFFFFFFFFFF SWAP1 SWAP2 AND SWAP1 PUSH4 0x23B872DD SWAP1 PUSH2 0x58A SWAP1 CALLER SWAP1 ADDRESS SWAP1 DUP10 SWAP1 PUSH1 0x4 ADD PUSH2 0x2DC6 JUMP JUMPDEST PUSH1 0x20 PUSH1 0x40 MLOAD DUP1 DUP4 SUB DUP2 PUSH1 0x0 DUP8 DUP1 EXTCODESIZE ISZERO DUP1 ISZERO PUSH2 0x5A4 JUMPI PUSH1 0x0 DUP1 REVERT JUMPDEST POP GAS CALL ISZERO DUP1 ISZERO PUSH2 0x5B8 JUMPI RETURNDATASIZE PUSH1 0x0 DUP1 RETURNDATACOPY RETURNDATASIZE PUSH1 0x0 REVERT JUMPDEST POP POP POP POP PUSH1 0x40 MLOAD RETURNDATASIZE PUSH1 0x1F NOT PUSH1 0x1F DUP3 ADD AND DUP3 ADD DUP1 PUSH1 0x40 MSTORE POP PUSH2 0x5DC SWAP2 SWAP1 DUP2 ADD SWAP1 PUSH2 0x2CE4 JUMP JUMPDEST POP PUSH1 0x0 DUP4 PUSH1 0x2 ADD SLOAD PUSH1 0x0 EQ ISZERO PUSH2 0x5FB JUMPI POP PUSH1 0x1 PUSH1 0x4 DUP5 ADD SSTORE PUSH1 0x0 PUSH2 0x621 JUMP JUMPDEST PUSH2 0x61E PUSH1 0x7F DUP6 PUSH1 0x2 ADD SLOAD SWAP1 SHR PUSH2 0x1D0 DUP7 PUSH1 0x4 ADD SLOAD DUP10 PUSH2 0xB26 SWAP1 SWAP2 SWAP1 PUSH4 0xFFFFFFFF AND JUMP JUMPDEST SWAP1 POP JUMPDEST PUSH2 0x62F DUP5 PUSH1 0x2 ADD SLOAD DUP5 PUSH2 0xE6F JUMP JUMPDEST PUSH1 0x2 DUP6 ADD SSTORE PUSH1 0x3 DUP5 ADD SLOAD PUSH2 0x643 SWAP1 DUP4 PUSH2 0xE6F JUMP JUMPDEST PUSH1 0x3 DUP6 ADD SSTORE CALLER PUSH1 0x0 SWAP1 DUP2 MSTORE PUSH1 0xA DUP6 ADD PUSH1 0x20 MSTORE PUSH1 0x40 SWAP1 KECCAK256 SLOAD PUSH2 0x66A SWAP1 DUP3 PUSH4 0xFFFFFFFF PUSH2 0xCD8 AND JUMP JUMPDEST CALLER PUSH1 0x0 SWAP1 DUP2 MSTORE PUSH1 0xA DUP7 ADD PUSH1 0x20 MSTORE PUSH1 0x40 SWAP1 KECCAK256 SSTORE PUSH1 0x4 DUP5 ADD SLOAD PUSH2 0x691 SWAP1 DUP3 PUSH4 0xFFFFFFFF PUSH2 0xCD8 AND JUMP JUMPDEST DUP5 PUSH1 0x4 ADD DUP2 SWAP1 SSTORE POP POP POP POP POP POP POP JUMP JUMPDEST PUSH1 0x1 SLOAD PUSH1 0x2 SLOAD PUSH1 0x3 SLOAD PUSH1 0x4 SLOAD PUSH1 0x5 SLOAD PUSH1 0x6 SLOAD PUSH1 0x7 SLOAD PUSH1 0x8 SLOAD PUSH1 0x9 SLOAD PUSH1 0xA SLOAD PUSH1 0xC SLOAD PUSH1 0xD SLOAD PUSH1 0xFF DUP13 AND SWAP12 PUSH20 0xFFFFFFFFFFFFFFFFFFFFFFFFFFFFFFFFFFFFFFFF PUSH2 0x100 SWAP1 SWAP2 DIV DUP2 AND SWAP12 AND SWAP10 SWAP9 SWAP8 SWAP7 SWAP6 SWAP5 SWAP4 SWAP3 SWAP2 SWAP1 DUP14 JUMP JUMPDEST PUSH1 0x0 PUSH2 0x700 PUSH2 0x2B9B JUMP JUMPDEST PUSH2 0x708 PUSH2 0xE7B JUMP JUMPDEST SWAP1 POP DUP1 PUSH1 0x20 ADD MLOAD PUSH20 0xFFFFFFFFFFFFFFFFFFFFFFFFFFFFFFFFFFFFFFFF AND DUP6 PUSH20 0xFFFFFFFFFFFFFFFFFFFFFFFFFFFFFFFFFFFFFFFF AND EQ DUP1 ISZERO PUSH2 0x778 JUMPI POP DUP1 PUSH1 0x40 ADD MLOAD PUSH20 0xFFFFFFFFFFFFFFFFFFFFFFFFFFFFFFFFFFFFFFFF AND DUP5 PUSH20 0xFFFFFFFFFFFFFFFFFFFFFFFFFFFFFFFFFFFFFFFF AND EQ JUMPDEST ISZERO PUSH2 0x7A6 JUMPI PUSH1 0x0 PUSH2 0x793 DUP7 DUP7 PUSH2 0x78D DUP8 PUSH2 0xF21 JUMP JUMPDEST DUP6 PUSH2 0xF2E JUMP JUMPDEST SWAP1 POP PUSH2 0x79E DUP2 PUSH2 0x12AA JUMP JUMPDEST SWAP3 POP POP PUSH2 0x866 JUMP JUMPDEST DUP1 PUSH1 0x40 ADD MLOAD PUSH20 0xFFFFFFFFFFFFFFFFFFFFFFFFFFFFFFFFFFFFFFFF AND DUP6 PUSH20 0xFFFFFFFFFFFFFFFFFFFFFFFFFFFFFFFFFFFFFFFF AND EQ DUP1 ISZERO PUSH2 0x814 JUMPI POP DUP1 PUSH1 0x20 ADD MLOAD PUSH20 0xFFFFFFFFFFFFFFFFFFFFFFFFFFFFFFFFFFFFFFFF AND DUP5 PUSH20 0xFFFFFFFFFFFFFFFFFFFFFFFFFFFFFFFFFFFFFFFF AND EQ JUMPDEST ISZERO PUSH2 0x834 JUMPI PUSH1 0x0 PUSH2 0x829 DUP7 DUP7 PUSH2 0x78D DUP8 PUSH2 0xF21 JUMP JUMPDEST SWAP1 POP PUSH2 0x79E DUP2 PUSH2 0x12B7 JUMP JUMPDEST PUSH1 0x40 MLOAD PUSH32 0x8C379A000000000000000000000000000000000000000000000000000000000 DUP2 MSTORE PUSH1 0x4 ADD PUSH2 0x475 SWAP1 PUSH2 0x3078 JUMP JUMPDEST PUSH32 0x256DB8090FA51C3BAC981768637D5A7C46B5540644DCEF89052B89DBB2F6C8EA CALLER DUP7 DUP7 DUP7 DUP7 PUSH1 0x40 MLOAD PUSH2 0x89D SWAP6 SWAP5 SWAP4 SWAP3 SWAP2 SWAP1 PUSH2 0x2D85 JUMP JUMPDEST PUSH1 0x40 MLOAD DUP1 SWAP2 SUB SWAP1 LOG1 POP SWAP4 SWAP3 POP POP POP JUMP JUMPDEST PUSH2 0x8B5 PUSH2 0x980 JUMP JUMPDEST PUSH20 0xFFFFFFFFFFFFFFFFFFFFFFFFFFFFFFFFFFFFFFFF DUP2 AND PUSH2 0x902 JUMPI PUSH1 0x40 MLOAD PUSH32 0x8C379A000000000000000000000000000000000000000000000000000000000 DUP2 MSTORE PUSH1 0x4 ADD PUSH2 0x475 SWAP1 PUSH2 0x3245 JUMP JUMPDEST PUSH1 0x0 DUP1 SLOAD PUSH32 0xFFFFFFFFFFFFFFFFFFFFFFFF0000000000000000000000000000000000000000 AND PUSH20 0xFFFFFFFFFFFFFFFFFFFFFFFFFFFFFFFFFFFFFFFF DUP4 AND OR SWAP1 SSTORE PUSH1 0x40 MLOAD PUSH32 0x8BE0079C531659141344CD1FD0A4F28419497F9722A3DAAFE3B4186F6B6457E0 SWAP1 PUSH2 0x974 SWAP1 CALLER SWAP1 DUP5 SWAP1 PUSH2 0x2D5E JUMP JUMPDEST PUSH1 0x40 MLOAD DUP1 SWAP2 SUB SWAP1 LOG1 JUMPDEST POP JUMP JUMPDEST PUSH1 0x0 SLOAD PUSH20 0xFFFFFFFFFFFFFFFFFFFFFFFFFFFFFFFFFFFFFFFF AND CALLER EQ PUSH2 0x9D1 JUMPI PUSH1 0x40 MLOAD PUSH32 0x8C379A000000000000000000000000000000000000000000000000000000000 DUP2 MSTORE PUSH1 0x4 ADD PUSH2 0x475 SWAP1 PUSH2 0x300A JUMP JUMPDEST JUMP JUMPDEST PUSH1 0x1 SLOAD PUSH1 0xFF AND ISZERO PUSH2 0xA10 JUMPI PUSH1 0x40 MLOAD PUSH32 0x8C379A000000000000000000000000000000000000000000000000000000000 DUP2 MSTORE PUSH1 0x4 ADD PUSH2 0x475 SWAP1 PUSH2 0x3041 JUMP JUMPDEST PUSH1 0x1 DUP1 SLOAD PUSH32 0xFFFFFFFFFFFFFFFFFFFFFF0000000000000000000000000000000000000000FF AND PUSH2 0x100 PUSH20 0xFFFFFFFFFFFFFFFFFFFFFFFFFFFFFFFFFFFFFFFF DUP6 DUP2 AND SWAP2 SWAP1 SWAP2 MUL SWAP2 SWAP1 SWAP2 OR SWAP1 SWAP2 SSTORE PUSH1 0x2 DUP1 SLOAD PUSH32 0xFFFFFFFFFFFFFFFFFFFFFFFF0000000000000000000000000000000000000000 AND SWAP2 DUP4 AND SWAP2 SWAP1 SWAP2 OR SWAP1 SSTORE PUSH2 0xA97 PUSH1 0x63 PUSH1 0x64 PUSH2 0xD17 JUMP JUMPDEST PUSH1 0x6 SSTORE PUSH1 0x63 PUSH1 0x7 DUP2 SWAP1 SSTORE PUSH2 0xAAC SWAP1 PUSH1 0x64 PUSH2 0xD17 JUMP JUMPDEST PUSH1 0x8 SSTORE PUSH2 0xABC PUSH1 0x5 PUSH2 0x2710 PUSH2 0xD17 JUMP JUMPDEST PUSH1 0x9 SSTORE PUSH2 0xAE4 PUSH2 0xAD0 PUSH1 0x1 PUSH3 0xF4240 PUSH2 0x12C4 JUMP JUMPDEST PUSH2 0xAD8 PUSH2 0x12E3 JUMP JUMPDEST SWAP1 PUSH4 0xFFFFFFFF PUSH2 0xC26 AND JUMP JUMPDEST PUSH1 0xC SSTORE PUSH2 0xAF5 PUSH2 0x2715 PUSH2 0x3E8 PUSH2 0x12C4 JUMP JUMPDEST PUSH1 0xD SSTORE POP POP PUSH1 0x1 DUP1 SLOAD PUSH32 0xFFFFFFFFFFFFFFFFFFFFFFFFFFFFFFFFFFFFFFFFFFFFFFFFFFFFFFFFFFFFFF00 AND DUP2 OR SWAP1 SSTORE JUMP JUMPDEST PUSH1 0x0 DUP3 PUSH2 0xB35 JUMPI POP PUSH1 0x0 PUSH2 0xB7D JUMP JUMPDEST DUP3 DUP3 MUL DUP3 DUP5 DUP3 DUP2 PUSH2 0xB42 JUMPI INVALID JUMPDEST DIV EQ PUSH2 0xB7A JUMPI PUSH1 0x40 MLOAD PUSH32 0x8C379A000000000000000000000000000000000000000000000000000000000 DUP2 MSTORE PUSH1 0x4 ADD PUSH2 0x475 SWAP1 PUSH2 0x31D7 JUMP JUMPDEST SWAP1 POP JUMPDEST SWAP3 SWAP2 POP POP JUMP JUMPDEST PUSH1 0x0 DUP2 PUSH2 0xBBC JUMPI PUSH1 0x40 MLOAD PUSH32 0x8C379A000000000000000000000000000000000000000000000000000000000 DUP2 MSTORE PUSH1 0x4 ADD PUSH2 0x475 SWAP1 PUSH2 0x2F65 JUMP JUMPDEST PUSH1 0x0 DUP3 DUP5 DUP2 PUSH2 0xBC7 JUMPI INVALID JUMPDEST DIV SWAP5 SWAP4 POP POP POP POP JUMP JUMPDEST PUSH1 0x0 DUP1 DUP3 SLT ISZERO PUSH2 0xC0C JUMPI PUSH1 0x40 MLOAD PUSH32 0x8C379A000000000000000000000000000000000000000000000000000000000 DUP2 MSTORE PUSH1 0x4 ADD PUSH2 0x475 SWAP1 PUSH2 0x317A JUMP JUMPDEST PUSH2 0xB7D DUP3 PUSH16 0x80000000000000000000000000000000 PUSH2 0x12F7 JUMP JUMPDEST PUSH1 0x0 PUSH32 0x8000000000000000000000000000000000000000000000000000000000000000 DUP3 EQ ISZERO PUSH2 0xC82 JUMPI PUSH1 0x40 MLOAD PUSH32 0x8C379A000000000000000000000000000000000000000000000000000000000 DUP2 MSTORE PUSH1 0x4 ADD PUSH2 0x475 SWAP1 PUSH2 0x32EA JUMP JUMPDEST PUSH2 0xC8F DUP4 DUP4 PUSH1 0x0 SUB PUSH2 0x136D JUMP JUMPDEST SWAP4 SWAP3 POP POP POP JUMP JUMPDEST PUSH1 0x0 DUP3 DUP3 GT ISZERO PUSH2 0xCD2 JUMPI PUSH1 0x40 MLOAD PUSH32 0x8C379A000000000000000000000000000000000000000000000000000000000 DUP2 MSTORE PUSH1 0x4 ADD PUSH2 0x475 SWAP1 PUSH2 0x2F9C JUMP JUMPDEST POP SWAP1 SUB SWAP1 JUMP JUMPDEST PUSH1 0x0 DUP3 DUP3 ADD DUP4 DUP2 LT ISZERO PUSH2 0xB7A JUMPI PUSH1 0x40 MLOAD PUSH32 0x8C379A000000000000000000000000000000000000000000000000000000000 DUP2 MSTORE PUSH1 0x4 ADD PUSH2 0x475 SWAP1 PUSH2 0x2ED1 JUMP JUMPDEST PUSH1 0x0 DUP1 DUP4 SLT ISZERO PUSH2 0xD53 JUMPI PUSH1 0x40 MLOAD PUSH32 0x8C379A000000000000000000000000000000000000000000000000000000000 DUP2 MSTORE PUSH1 0x4 ADD PUSH2 0x475 SWAP1 PUSH2 0x3321 JUMP JUMPDEST PUSH1 0x0 DUP3 SLT ISZERO PUSH2 0xD8E JUMPI PUSH1 0x40 MLOAD PUSH32 0x8C379A000000000000000000000000000000000000000000000000000000000 DUP2 MSTORE PUSH1 0x4 ADD PUSH2 0x475 SWAP1 PUSH2 0x30AF JUMP JUMPDEST PUSH2 0xC8F PUSH2 0xDAB DUP5 PUSH16 0x80000000000000000000000000000000 PUSH2 0x12F7 JUMP JUMPDEST DUP4 PUSH2 0x13E3 JUMP JUMPDEST PUSH1 0x0 DUP1 PUSH2 0xDE2 PUSH16 0x80000000000000000000000000000000 PUSH2 0xDDD PUSH2 0xDD4 DUP8 PUSH2 0x14B2 JUMP JUMPDEST PUSH2 0xDDD DUP8 PUSH2 0x14B2 JUMP JUMPDEST PUSH2 0x12F7 JUMP JUMPDEST SWAP1 POP PUSH1 0x0 PUSH2 0xDFB PUSH2 0xDF2 DUP7 PUSH2 0x14C8 JUMP JUMPDEST PUSH2 0xDDD DUP7 PUSH2 0x14B2 JUMP JUMPDEST SWAP1 POP PUSH1 0x0 PUSH2 0xE14 PUSH2 0xE0B DUP8 PUSH2 0x14B2 JUMP JUMPDEST PUSH2 0xDDD DUP8 PUSH2 0x14C8 JUMP JUMPDEST SWAP1 POP PUSH1 0x0 PUSH2 0xE46 PUSH2 0xE30 PUSH2 0xE27 DUP10 PUSH2 0x14C8 JUMP JUMPDEST PUSH2 0xDDD DUP10 PUSH2 0x14C8 JUMP JUMPDEST PUSH16 0x80000000000000000000000000000000 PUSH2 0x13E3 JUMP JUMPDEST SWAP1 POP PUSH2 0xE64 PUSH2 0xE5E PUSH2 0xE58 DUP7 DUP7 PUSH2 0x136D JUMP JUMPDEST DUP5 PUSH2 0x136D JUMP JUMPDEST DUP3 PUSH2 0x136D JUMP JUMPDEST SWAP8 SWAP7 POP POP POP POP POP POP POP JUMP JUMPDEST PUSH1 0x0 PUSH2 0xC8F DUP4 DUP4 PUSH2 0x136D JUMP JUMPDEST PUSH2 0xE83 PUSH2 0x2B9B JUMP JUMPDEST POP PUSH1 0x40 DUP1 MLOAD PUSH2 0x1A0 DUP2 ADD DUP3 MSTORE PUSH1 0x1 SLOAD PUSH1 0xFF DUP2 AND ISZERO ISZERO DUP3 MSTORE PUSH20 0xFFFFFFFFFFFFFFFFFFFFFFFFFFFFFFFFFFFFFFFF PUSH2 0x100 SWAP2 DUP3 SWAP1 DIV DUP2 AND PUSH1 0x20 DUP5 ADD MSTORE PUSH1 0x2 SLOAD AND SWAP3 DUP3 ADD SWAP3 SWAP1 SWAP3 MSTORE PUSH1 0x3 SLOAD PUSH1 0x60 DUP3 ADD MSTORE PUSH1 0x4 SLOAD PUSH1 0x80 DUP3 ADD MSTORE PUSH1 0x5 SLOAD PUSH1 0xA0 DUP3 ADD MSTORE PUSH1 0x6 SLOAD PUSH1 0xC0 DUP3 ADD MSTORE PUSH1 0x7 SLOAD PUSH1 0xE0 DUP3 ADD MSTORE PUSH1 0x8 SLOAD SWAP2 DUP2 ADD SWAP2 SWAP1 SWAP2 MSTORE PUSH1 0x9 SLOAD PUSH2 0x120 DUP3 ADD MSTORE PUSH1 0xA SLOAD PUSH2 0x140 DUP3 ADD MSTORE PUSH1 0xC SLOAD PUSH2 0x160 DUP3 ADD MSTORE PUSH1 0xD SLOAD PUSH2 0x180 DUP3 ADD MSTORE SWAP1 JUMP JUMPDEST PUSH1 0x0 PUSH2 0xB7D DUP3 PUSH1 0x12 PUSH2 0x1505 JUMP JUMPDEST PUSH1 0x20 DUP2 ADD MLOAD PUSH1 0x0 SWAP1 DUP2 SWAP1 DUP2 SWAP1 DUP2 SWAP1 DUP2 SWAP1 PUSH20 0xFFFFFFFFFFFFFFFFFFFFFFFFFFFFFFFFFFFFFFFF DUP11 DUP2 AND SWAP2 AND EQ DUP1 ISZERO PUSH2 0xF94 JUMPI POP DUP6 PUSH1 0x40 ADD MLOAD PUSH20 0xFFFFFFFFFFFFFFFFFFFFFFFFFFFFFFFFFFFFFFFF AND DUP9 PUSH20 0xFFFFFFFFFFFFFFFFFFFFFFFFFFFFFFFFFFFFFFFF AND EQ JUMPDEST ISZERO PUSH2 0xFB3 JUMPI POP POP POP POP PUSH1 0x60 DUP3 ADD MLOAD PUSH1 0x80 DUP4 ADD MLOAD PUSH1 0xC0 DUP5 ADD MLOAD PUSH1 0x1 PUSH2 0x1053 JUMP JUMPDEST DUP6 PUSH1 0x40 ADD MLOAD PUSH20 0xFFFFFFFFFFFFFFFFFFFFFFFFFFFFFFFFFFFFFFFF AND DUP10 PUSH20 0xFFFFFFFFFFFFFFFFFFFFFFFFFFFFFFFFFFFFFFFF AND EQ DUP1 ISZERO PUSH2 0x1021 JUMPI POP DUP6 PUSH1 0x20 ADD MLOAD PUSH20 0xFFFFFFFFFFFFFFFFFFFFFFFFFFFFFFFFFFFFFFFF AND DUP9 PUSH20 0xFFFFFFFFFFFFFFFFFFFFFFFFFFFFFFFFFFFFFFFF AND EQ JUMPDEST ISZERO PUSH2 0x834 JUMPI DUP6 PUSH1 0x80 ADD MLOAD SWAP4 POP DUP6 PUSH1 0x60 ADD MLOAD SWAP3 POP PUSH2 0x1050 DUP7 PUSH1 0xC0 ADD MLOAD PUSH2 0x1044 PUSH2 0x12E3 JUMP JUMPDEST SWAP1 PUSH4 0xFFFFFFFF PUSH2 0x1514 AND JUMP JUMPDEST SWAP2 POP JUMPDEST PUSH1 0x0 PUSH2 0x1066 DUP6 DUP6 DUP6 DUP11 PUSH2 0x100 ADD MLOAD PUSH2 0x158E JUMP JUMPDEST SWAP1 POP PUSH1 0x0 PUSH2 0x1078 DUP7 DUP7 DUP5 DUP8 DUP14 DUP14 PUSH2 0x1644 JUMP JUMPDEST SWAP1 POP PUSH1 0x0 PUSH2 0x10AC PUSH2 0x1090 DUP11 PUSH2 0x120 ADD MLOAD PUSH2 0xAD8 PUSH2 0x12E3 JUMP JUMPDEST PUSH2 0x10A0 DUP13 DUP6 PUSH4 0xFFFFFFFF PUSH2 0xDB1 AND JUMP JUMPDEST SWAP1 PUSH4 0xFFFFFFFF PUSH2 0xDB1 AND JUMP JUMPDEST SWAP1 POP PUSH2 0x10BF PUSH1 0x0 DUP3 PUSH4 0xFFFFFFFF PUSH2 0xC26 AND JUMP JUMPDEST SWAP1 POP PUSH1 0x0 PUSH2 0x10D1 PUSH1 0x1 PUSH3 0x186A0 PUSH2 0x12C4 JUMP JUMPDEST SWAP1 POP PUSH1 0x0 DUP3 SLT PUSH2 0x110D JUMPI PUSH1 0x40 MLOAD PUSH32 0x8C379A000000000000000000000000000000000000000000000000000000000 DUP2 MSTORE PUSH1 0x4 ADD PUSH2 0x475 SWAP1 PUSH2 0x3143 JUMP JUMPDEST DUP1 PUSH2 0x111E DUP9 DUP5 PUSH4 0xFFFFFFFF PUSH2 0xE6F AND JUMP JUMPDEST SGT PUSH2 0x1136 JUMPI PUSH2 0x1133 DUP2 DUP9 PUSH4 0xFFFFFFFF PUSH2 0xC26 AND JUMP JUMPDEST SWAP2 POP JUMPDEST PUSH1 0x0 PUSH2 0x1156 DUP12 PUSH2 0x140 ADD MLOAD PUSH2 0x1149 PUSH2 0x17AB JUMP JUMPDEST DUP14 PUSH2 0x160 ADD MLOAD DUP9 DUP12 PUSH2 0x17AF JUMP JUMPDEST PUSH2 0x180 DUP13 ADD MLOAD SWAP1 SWAP2 POP PUSH2 0x116F SWAP1 DUP9 PUSH4 0xFFFFFFFF PUSH2 0xDB1 AND JUMP JUMPDEST DUP2 SGT ISZERO PUSH2 0x1193 JUMPI PUSH2 0x180 DUP12 ADD MLOAD PUSH2 0x118C SWAP1 DUP9 PUSH4 0xFFFFFFFF PUSH2 0xDB1 AND JUMP JUMPDEST SWAP1 POP PUSH2 0x11CC JUMP JUMPDEST DUP7 PUSH2 0x11AC DUP13 PUSH2 0x180 ADD MLOAD DUP4 PUSH2 0xDB1 SWAP1 SWAP2 SWAP1 PUSH4 0xFFFFFFFF AND JUMP JUMPDEST SLT ISZERO PUSH2 0x11CC JUMPI PUSH2 0x180 DUP12 ADD MLOAD PUSH2 0x11C9 SWAP1 DUP9 SWAP1 PUSH4 0xFFFFFFFF PUSH2 0x1514 AND JUMP JUMPDEST SWAP1 POP JUMPDEST PUSH2 0x11D4 PUSH2 0x17AB JUMP JUMPDEST PUSH2 0x140 DUP13 ADD MSTORE DUP6 ISZERO PUSH2 0x1216 JUMPI PUSH2 0x11F0 DUP10 DUP14 PUSH4 0xFFFFFFFF PUSH2 0xE6F AND JUMP JUMPDEST PUSH1 0x60 DUP13 ADD MSTORE PUSH2 0x1205 DUP9 DUP5 PUSH4 0xFFFFFFFF PUSH2 0xE6F AND JUMP JUMPDEST PUSH1 0x80 DUP13 ADD MSTORE PUSH1 0xC0 DUP12 ADD DUP2 SWAP1 MSTORE PUSH2 0x1252 JUMP JUMPDEST PUSH2 0x1226 DUP9 DUP5 PUSH4 0xFFFFFFFF PUSH2 0xE6F AND JUMP JUMPDEST PUSH1 0x60 DUP13 ADD MSTORE PUSH2 0x123B DUP10 DUP14 PUSH4 0xFFFFFFFF PUSH2 0xE6F AND JUMP JUMPDEST PUSH1 0x80 DUP13 ADD MSTORE PUSH2 0x124C DUP2 PUSH2 0x1044 PUSH2 0x12E3 JUMP JUMPDEST PUSH1 0xC0 DUP13 ADD MSTORE JUMPDEST PUSH2 0x125B DUP12 PUSH2 0x1890 JUMP JUMPDEST PUSH32 0x666804E599B015EDCFB9DE12153BF8A48AA5A84B8861B8FA88C1CF4B11974C15 CALLER DUP14 DUP6 PUSH1 0x40 MLOAD PUSH2 0x128E SWAP4 SWAP3 SWAP2 SWAP1 PUSH2 0x2DF7 JUMP JUMPDEST PUSH1 0x40 MLOAD DUP1 SWAP2 SUB SWAP1 LOG1 POP POP PUSH1 0x0 SUB SWAP12 SWAP11 POP POP POP POP POP POP POP POP POP POP POP JUMP JUMPDEST PUSH1 0x0 PUSH2 0xB7D DUP3 PUSH1 0x6 PUSH2 0x18B2 JUMP JUMPDEST PUSH1 0x0 PUSH2 0xB7D DUP3 PUSH1 0x12 PUSH2 0x18B2 JUMP JUMPDEST PUSH1 0x0 PUSH2 0xC8F PUSH2 0xDAB DUP5 PUSH16 0x80000000000000000000000000000000 PUSH2 0x12F7 JUMP JUMPDEST PUSH16 0x80000000000000000000000000000000 SWAP1 JUMP JUMPDEST PUSH1 0x0 DUP3 ISZERO DUP1 PUSH2 0x1304 JUMPI POP DUP2 ISZERO JUMPDEST ISZERO PUSH2 0x1311 JUMPI POP PUSH1 0x0 PUSH2 0xB7D JUMP JUMPDEST POP DUP2 DUP2 MUL DUP2 DUP4 DUP3 DUP2 PUSH2 0x131F JUMPI INVALID JUMPDEST SDIV EQ ISZERO DUP1 PUSH2 0x1336 JUMPI POP DUP3 DUP3 DUP3 DUP2 PUSH2 0x1332 JUMPI INVALID JUMPDEST SDIV EQ ISZERO JUMPDEST ISZERO PUSH2 0xB7D JUMPI PUSH1 0x40 MLOAD PUSH32 0x8C379A000000000000000000000000000000000000000000000000000000000 DUP2 MSTORE PUSH1 0x4 ADD PUSH2 0x475 SWAP1 PUSH2 0x327C JUMP JUMPDEST DUP2 DUP2 ADD PUSH1 0x0 DUP4 SLT DUP1 ISZERO PUSH2 0x1380 JUMPI POP PUSH1 0x0 DUP3 SLT JUMPDEST DUP1 ISZERO PUSH2 0x138B JUMPI POP DUP3 DUP2 SGT JUMPDEST DUP1 PUSH2 0x13AC JUMPI POP PUSH1 0x0 DUP4 SGT DUP1 ISZERO PUSH2 0x13A1 JUMPI POP PUSH1 0x0 DUP3 SGT JUMPDEST DUP1 ISZERO PUSH2 0x13AC JUMPI POP DUP3 DUP2 SLT JUMPDEST ISZERO PUSH2 0xB7D JUMPI PUSH1 0x40 MLOAD PUSH32 0x8C379A000000000000000000000000000000000000000000000000000000000 DUP2 MSTORE PUSH1 0x4 ADD PUSH2 0x475 SWAP1 PUSH2 0x32B3 JUMP JUMPDEST PUSH1 0x0 DUP2 PUSH2 0x141C JUMPI PUSH1 0x40 MLOAD PUSH32 0x8C379A000000000000000000000000000000000000000000000000000000000 DUP2 MSTORE PUSH1 0x4 ADD PUSH2 0x475 SWAP1 PUSH2 0x337E JUMP JUMPDEST PUSH32 0x8000000000000000000000000000000000000000000000000000000000000000 DUP4 EQ DUP1 ISZERO PUSH2 0x146A JUMPI POP DUP2 PUSH32 0xFFFFFFFFFFFFFFFFFFFFFFFFFFFFFFFFFFFFFFFFFFFFFFFFFFFFFFFFFFFFFFFF EQ JUMPDEST ISZERO PUSH2 0x14A1 JUMPI PUSH1 0x40 MLOAD PUSH32 0x8C379A000000000000000000000000000000000000000000000000000000000 DUP2 MSTORE PUSH1 0x4 ADD PUSH2 0x475 SWAP1 PUSH2 0x33B5 JUMP JUMPDEST DUP2 DUP4 DUP2 PUSH2 0x14AA JUMPI INVALID JUMPDEST SDIV SWAP4 SWAP3 POP POP POP JUMP JUMPDEST PUSH16 0x80000000000000000000000000000000 SWAP1 SDIV SWAP1 JUMP JUMPDEST PUSH1 0x0 DUP1 DUP3 SGT PUSH2 0x14EF JUMPI PUSH16 0x7FFFFFFFFFFFFFFFFFFFFFFFFFFFFFFF DUP3 PUSH1 0x0 SUB AND PUSH1 0x0 SUB PUSH2 0xB7D JUMP JUMPDEST POP PUSH16 0x7FFFFFFFFFFFFFFFFFFFFFFFFFFFFFFF AND SWAP1 JUMP JUMPDEST PUSH1 0x0 PUSH2 0xC8F DUP4 DUP4 PUSH1 0xA EXP PUSH2 0xD17 JUMP JUMPDEST PUSH1 0x0 DUP1 PUSH2 0x1520 DUP5 PUSH2 0x14B2 JUMP JUMPDEST SWAP1 POP DUP1 ISZERO PUSH2 0x156B JUMPI PUSH2 0x1563 PUSH2 0x1534 DUP6 PUSH2 0x14B2 JUMP JUMPDEST PUSH2 0xDDD PUSH2 0x155D DUP8 PUSH2 0xDDD PUSH16 0x80000000000000000000000000000000 PUSH2 0x1558 DUP12 PUSH2 0x14B2 JUMP JUMPDEST PUSH2 0x13E3 JUMP JUMPDEST DUP7 PUSH2 0x13E3 JUMP JUMPDEST SWAP2 POP POP PUSH2 0xB7D JUMP JUMPDEST PUSH2 0x1563 PUSH2 0x1588 DUP6 PUSH16 0x80000000000000000000000000000000 PUSH2 0x12F7 JUMP JUMPDEST DUP5 PUSH2 0x13E3 JUMP JUMPDEST PUSH1 0x0 DUP1 PUSH2 0x15A1 DUP5 DUP8 PUSH4 0xFFFFFFFF PUSH2 0xDB1 AND JUMP JUMPDEST SWAP1 POP PUSH1 0x0 PUSH2 0x15B5 DUP7 DUP4 PUSH4 0xFFFFFFFF PUSH2 0x1514 AND JUMP JUMPDEST SWAP1 POP PUSH1 0x0 PUSH2 0x15C9 DUP4 DUP9 PUSH4 0xFFFFFFFF PUSH2 0x1514 AND JUMP JUMPDEST SWAP1 POP PUSH1 0x0 PUSH2 0x15D9 DUP7 PUSH2 0xAD8 PUSH2 0x12E3 JUMP JUMPDEST SWAP1 POP PUSH1 0x0 PUSH2 0x15E5 PUSH2 0x12E3 JUMP JUMPDEST DUP5 SLT ISZERO PUSH2 0x1608 JUMPI PUSH2 0x1601 PUSH2 0x15FC DUP4 PUSH2 0x10A0 DUP8 PUSH2 0x18C2 JUMP JUMPDEST PUSH2 0x1FAC JUMP JUMPDEST SWAP1 POP PUSH2 0x1626 JUMP JUMPDEST PUSH2 0x1623 PUSH2 0x161B PUSH2 0x15FC DUP5 PUSH2 0x10A0 DUP8 PUSH2 0x18C2 JUMP JUMPDEST PUSH2 0x1044 PUSH2 0x12E3 JUMP JUMPDEST SWAP1 POP JUMPDEST PUSH2 0x1636 DUP2 DUP10 PUSH4 0xFFFFFFFF PUSH2 0xDB1 AND JUMP JUMPDEST SWAP11 SWAP10 POP POP POP POP POP POP POP POP POP POP JUMP JUMPDEST PUSH1 0x0 DUP1 PUSH2 0x1699 PUSH2 0x168C PUSH2 0x167C PUSH2 0x1660 DUP11 DUP9 PUSH4 0xFFFFFFFF PUSH2 0xDB1 AND JUMP JUMPDEST PUSH2 0x1670 DUP13 DUP13 PUSH4 0xFFFFFFFF PUSH2 0xDB1 AND JUMP JUMPDEST SWAP1 PUSH4 0xFFFFFFFF PUSH2 0xE6F AND JUMP JUMPDEST PUSH2 0x1044 DUP10 DUP9 PUSH4 0xFFFFFFFF PUSH2 0xDB1 AND JUMP JUMPDEST DUP10 SWAP1 PUSH4 0xFFFFFFFF PUSH2 0xDB1 AND JUMP JUMPDEST SWAP1 POP PUSH1 0x0 PUSH2 0x16BD PUSH2 0x16B0 DUP11 DUP8 PUSH4 0xFFFFFFFF PUSH2 0xE6F AND JUMP JUMPDEST DUP11 SWAP1 PUSH4 0xFFFFFFFF PUSH2 0x1514 AND JUMP JUMPDEST SWAP1 POP PUSH1 0x0 PUSH2 0x16CF DUP11 DUP11 DUP11 DUP11 DUP11 DUP11 PUSH2 0x25BA JUMP JUMPDEST SWAP1 POP PUSH1 0x0 PUSH2 0x16E2 DUP12 DUP12 DUP12 DUP12 DUP12 DUP8 DUP13 PUSH2 0x26AD JUMP JUMPDEST SWAP1 POP PUSH1 0x0 PUSH2 0x16F6 DUP13 DUP13 DUP13 DUP13 DUP13 DUP11 DUP11 DUP15 PUSH2 0x274D JUMP JUMPDEST SWAP1 POP PUSH2 0x1708 DUP3 DUP3 DUP10 PUSH2 0x120 ADD MLOAD PUSH2 0x27E6 JUMP JUMPDEST ISZERO PUSH2 0x1780 JUMPI PUSH1 0x0 PUSH2 0x171C DUP4 DUP4 DUP9 DUP9 DUP13 PUSH2 0x2880 JUMP JUMPDEST DUP1 SWAP3 POP DUP2 SWAP4 POP POP POP PUSH2 0x1734 DUP4 DUP4 DUP11 PUSH2 0x120 ADD MLOAD PUSH2 0x27E6 JUMP JUMPDEST ISZERO PUSH2 0x177E JUMPI PUSH1 0x0 PUSH2 0x1749 DUP5 DUP5 DUP10 DUP10 DUP7 DUP15 PUSH2 0x2923 JUMP JUMPDEST PUSH2 0x120 DUP14 ADD MLOAD SWAP4 SWAP8 POP SWAP2 SWAP6 POP SWAP4 POP SWAP2 POP PUSH2 0x1766 SWAP1 DUP6 SWAP1 DUP6 SWAP1 PUSH2 0x27E6 JUMP JUMPDEST ISZERO PUSH2 0x177C JUMPI PUSH2 0x1779 DUP5 DUP5 DUP5 DUP5 DUP12 DUP12 PUSH2 0x29A5 JUMP JUMPDEST SWAP4 POP JUMPDEST POP JUMPDEST POP JUMPDEST PUSH2 0x1789 DUP3 PUSH2 0x2A55 JUMP JUMPDEST SWAP2 POP PUSH2 0x179B DUP3 DUP12 PUSH4 0xFFFFFFFF PUSH2 0xDB1 AND JUMP JUMPDEST SWAP13 SWAP12 POP POP POP POP POP POP POP POP POP POP POP POP JUMP JUMPDEST NUMBER SWAP1 JUMP JUMPDEST PUSH1 0x0 DUP1 PUSH2 0x17BD DUP8 DUP8 SUB PUSH2 0xBD0 JUMP JUMPDEST SWAP1 POP PUSH1 0x0 PUSH2 0x17DD PUSH2 0x15FC PUSH2 0x17D0 DUP9 PUSH2 0x18C2 JUMP JUMPDEST DUP5 SWAP1 PUSH4 0xFFFFFFFF PUSH2 0xDB1 AND JUMP JUMPDEST SWAP1 POP PUSH1 0x0 PUSH2 0x17ED DUP3 PUSH2 0xAD8 PUSH2 0x12E3 JUMP JUMPDEST SWAP1 POP PUSH1 0x0 PUSH2 0x1801 DUP8 DUP4 PUSH4 0xFFFFFFFF PUSH2 0xDB1 AND JUMP JUMPDEST SWAP1 POP PUSH1 0x0 PUSH2 0x1815 DUP8 DUP6 PUSH4 0xFFFFFFFF PUSH2 0xDB1 AND JUMP JUMPDEST SWAP1 POP PUSH1 0x0 PUSH2 0x1841 PUSH2 0x182C DUP6 DUP11 PUSH4 0xFFFFFFFF PUSH2 0xDB1 AND JUMP JUMPDEST PUSH2 0x183C DUP8 DUP13 PUSH4 0xFFFFFFFF PUSH2 0xDB1 AND JUMP JUMPDEST PUSH2 0xE6F JUMP JUMPDEST SWAP1 POP PUSH1 0x0 PUSH2 0x1859 DUP3 PUSH2 0x1044 DUP13 DUP13 PUSH4 0xFFFFFFFF PUSH2 0xDB1 AND JUMP JUMPDEST SWAP1 POP PUSH1 0x0 PUSH2 0x187E PUSH2 0x186A PUSH1 0x2 PUSH2 0x2A77 JUMP JUMPDEST PUSH2 0x1044 DUP5 PUSH2 0x1670 DUP10 DUP10 PUSH4 0xFFFFFFFF PUSH2 0xE6F AND JUMP JUMPDEST SWAP15 SWAP14 POP POP POP POP POP POP POP POP POP POP POP POP POP POP JUMP JUMPDEST PUSH1 0x60 DUP2 ADD MLOAD PUSH1 0x3 SSTORE PUSH1 0x80 DUP2 ADD MLOAD PUSH1 0x4 SSTORE PUSH1 0xC0 DUP2 ADD MLOAD PUSH1 0x6 SSTORE PUSH2 0x140 ADD MLOAD PUSH1 0xA SSTORE JUMP JUMPDEST PUSH1 0x0 PUSH2 0xC8F DUP3 PUSH1 0xA EXP DUP5 MUL PUSH2 0x14B2 JUMP JUMPDEST PUSH1 0x0 PUSH16 0x80000000000000000000000000000000 DUP3 SGT ISZERO PUSH2 0x190E JUMPI PUSH1 0x40 MLOAD PUSH32 0x8C379A000000000000000000000000000000000000000000000000000000000 DUP2 MSTORE PUSH1 0x4 ADD PUSH2 0x475 SWAP1 PUSH2 0x310C JUMP JUMPDEST PUSH1 0x0 DUP3 SGT PUSH2 0x1948 JUMPI PUSH1 0x40 MLOAD PUSH32 0x8C379A000000000000000000000000000000000000000000000000000000000 DUP2 MSTORE PUSH1 0x4 ADD PUSH2 0x475 SWAP1 PUSH2 0x2FD3 JUMP JUMPDEST PUSH16 0x80000000000000000000000000000000 DUP3 EQ ISZERO PUSH2 0x1968 JUMPI POP PUSH1 0x0 PUSH2 0x174 JUMP JUMPDEST PUSH5 0x733048C5A DUP3 SGT PUSH2 0x199B JUMPI POP PUSH32 0xFFFFFFFFFFFFFFFFFFFFFFFFFFFFFFE010000000000000000000000000000000 PUSH2 0x174 JUMP JUMPDEST PUSH1 0x0 DUP1 PUSH1 0x0 PUSH11 0x1C8464F76164760000000 DUP6 SGT PUSH2 0x19FA JUMPI PUSH32 0xFFFFFFFFFFFFFFFFFFFFFFFFFFFFFFF000000000000000000000000000000000 SWAP1 SWAP4 ADD SWAP3 PUSH11 0x1C8464F76164760000000 PUSH16 0x80000000000000000000000000000000 DUP7 MUL SDIV SWAP5 POP JUMPDEST PUSH13 0xF1AADDD7742E90000000000000 DUP6 SGT PUSH2 0x1A58 JUMPI PUSH32 0xFFFFFFFFFFFFFFFFFFFFFFFFFFFFFFF800000000000000000000000000000000 SWAP1 SWAP4 ADD SWAP3 PUSH13 0xF1AADDD7742E90000000000000 PUSH16 0x80000000000000000000000000000000 DUP7 MUL SDIV SWAP5 POP JUMPDEST PUSH15 0xAFE10820813D78000000000000000 DUP6 SGT PUSH2 0x1ABA JUMPI PUSH32 0xFFFFFFFFFFFFFFFFFFFFFFFFFFFFFFFC00000000000000000000000000000000 SWAP1 SWAP4 ADD SWAP3 PUSH15 0xAFE10820813D78000000000000000 PUSH16 0x80000000000000000000000000000000 DUP7 MUL SDIV SWAP5 POP JUMPDEST PUSH16 0x2582AB704279EC00000000000000000 DUP6 SGT PUSH2 0x1B1E JUMPI PUSH32 0xFFFFFFFFFFFFFFFFFFFFFFFFFFFFFFFE00000000000000000000000000000000 SWAP1 SWAP4 ADD SWAP3 PUSH16 0x2582AB704279EC00000000000000000 PUSH16 0x80000000000000000000000000000000 DUP7 MUL SDIV SWAP5 POP JUMPDEST PUSH16 0x1152AAA3BF81CC000000000000000000 DUP6 SGT PUSH2 0x1B82 JUMPI PUSH32 0xFFFFFFFFFFFFFFFFFFFFFFFFFFFFFFFF00000000000000000000000000000000 SWAP1 SWAP4 ADD SWAP3 PUSH16 0x1152AAA3BF81CC000000000000000000 PUSH16 0x80000000000000000000000000000000 DUP7 MUL SDIV SWAP5 POP JUMPDEST PUSH16 0x2F16AC6C59DE70000000000000000000 DUP6 SGT PUSH2 0x1BE6 JUMPI PUSH32 0xFFFFFFFFFFFFFFFFFFFFFFFFFFFFFFFF80000000000000000000000000000000 SWAP1 SWAP4 ADD SWAP3 PUSH16 0x2F16AC6C59DE70000000000000000000 PUSH16 0x80000000000000000000000000000000 DUP7 MUL SDIV SWAP5 POP JUMPDEST PUSH16 0x4DA2CBF1BE5828000000000000000000 DUP6 SGT PUSH2 0x1C4A JUMPI PUSH32 0xFFFFFFFFFFFFFFFFFFFFFFFFFFFFFFFFC0000000000000000000000000000000 SWAP1 SWAP4 ADD SWAP3 PUSH16 0x4DA2CBF1BE5828000000000000000000 PUSH16 0x80000000000000000000000000000000 DUP7 MUL SDIV SWAP5 POP JUMPDEST PUSH16 0x63AFBE7AB2082C000000000000000000 DUP6 SGT PUSH2 0x1CAE JUMPI PUSH32 0xFFFFFFFFFFFFFFFFFFFFFFFFFFFFFFFFE0000000000000000000000000000000 SWAP1 SWAP4 ADD SWAP3 PUSH16 0x63AFBE7AB2082C000000000000000000 PUSH16 0x80000000000000000000000000000000 DUP7 MUL SDIV SWAP5 POP JUMPDEST PUSH16 0x70F5A893B608861E1F58934F97AEA57D DUP6 SGT PUSH2 0x1D12 JUMPI PUSH32 0xFFFFFFFFFFFFFFFFFFFFFFFFFFFFFFFFF0000000000000000000000000000000 SWAP1 SWAP4 ADD SWAP3 PUSH16 0x70F5A893B608861E1F58934F97AEA57D PUSH16 0x80000000000000000000000000000000 DUP7 MUL SDIV SWAP5 POP JUMPDEST PUSH32 0xFFFFFFFFFFFFFFFFFFFFFFFFFFFFFFFF80000000000000000000000000000000 DUP6 ADD SWAP3 POP DUP3 SWAP2 POP PUSH16 0x80000000000000000000000000000000 DUP3 DUP1 MUL SDIV SWAP1 POP PUSH17 0x100000000000000000000000000000000 DUP4 DUP2 SUB DUP4 MUL SDIV DUP5 ADD SWAP4 POP PUSH16 0x80000000000000000000000000000000 DUP2 DUP4 MUL DUP2 PUSH2 0x1D88 JUMPI INVALID JUMPDEST SDIV SWAP2 POP PUSH17 0x200000000000000000000000000000000 DUP4 PUSH16 0xAAAAAAAAAAAAAAAAAAAAAAAAAAAAAAAA SUB DUP4 MUL DUP2 PUSH2 0x1DB9 JUMPI INVALID JUMPDEST SDIV DUP5 ADD SWAP4 POP PUSH16 0x80000000000000000000000000000000 DUP2 DUP4 MUL DUP2 PUSH2 0x1DD9 JUMPI INVALID JUMPDEST SDIV SWAP2 POP PUSH17 0x300000000000000000000000000000000 DUP4 PUSH16 0x99999999999999999999999999999999 SUB DUP4 MUL DUP2 PUSH2 0x1E0A JUMPI INVALID JUMPDEST SDIV DUP5 ADD SWAP4 POP PUSH16 0x80000000000000000000000000000000 DUP2 DUP4 MUL DUP2 PUSH2 0x1E2A JUMPI INVALID JUMPDEST SDIV SWAP2 POP PUSH17 0x400000000000000000000000000000000 DUP4 PUSH16 0x92492492492492492492492492492492 SUB DUP4 MUL DUP2 PUSH2 0x1E5B JUMPI INVALID JUMPDEST SDIV DUP5 ADD SWAP4 POP PUSH16 0x80000000000000000000000000000000 DUP2 DUP4 MUL DUP2 PUSH2 0x1E7B JUMPI INVALID JUMPDEST SDIV SWAP2 POP PUSH17 0x500000000000000000000000000000000 DUP4 PUSH16 0x8E38E38E38E38E38E38E38E38E38E38E SUB DUP4 MUL DUP2 PUSH2 0x1EAC JUMPI INVALID JUMPDEST SDIV DUP5 ADD SWAP4 POP PUSH16 0x80000000000000000000000000000000 DUP2 DUP4 MUL DUP2 PUSH2 0x1ECC JUMPI INVALID JUMPDEST SDIV SWAP2 POP PUSH17 0x600000000000000000000000000000000 DUP4 PUSH16 0x8BA2E8BA2E8BA2E8BA2E8BA2E8BA2E8B SUB DUP4 MUL DUP2 PUSH2 0x1EFD JUMPI INVALID JUMPDEST SDIV DUP5 ADD SWAP4 POP PUSH16 0x80000000000000000000000000000000 DUP2 DUP4 MUL DUP2 PUSH2 0x1F1D JUMPI INVALID JUMPDEST SDIV SWAP2 POP PUSH17 0x700000000000000000000000000000000 DUP4 PUSH16 0x89D89D89D89D89D89D89D89D89D89D89 SUB DUP4 MUL DUP2 PUSH2 0x1F4E JUMPI INVALID JUMPDEST SDIV DUP5 ADD SWAP4 POP PUSH16 0x80000000000000000000000000000000 DUP2 DUP4 MUL DUP2 PUSH2 0x1F6E JUMPI INVALID JUMPDEST SDIV SWAP2 POP PUSH17 0x800000000000000000000000000000000 DUP4 PUSH16 0x88888888888888888888888888888888 SUB DUP4 MUL DUP2 PUSH2 0x1F9F JUMPI INVALID JUMPDEST SDIV DUP5 ADD SWAP4 POP POP POP POP SWAP2 SWAP1 POP JUMP JUMPDEST PUSH1 0x0 PUSH32 0xFFFFFFFFFFFFFFFFFFFFFFFFFFFFFFE010000000000000000000000000000000 DUP3 SLT ISZERO PUSH2 0x1FDE JUMPI POP PUSH1 0x0 PUSH2 0x174 JUMP JUMPDEST DUP2 PUSH2 0x1FFA JUMPI POP PUSH16 0x80000000000000000000000000000000 PUSH2 0x174 JUMP JUMPDEST PUSH1 0x0 DUP3 SGT ISZERO PUSH2 0x2035 JUMPI PUSH1 0x40 MLOAD PUSH32 0x8C379A000000000000000000000000000000000000000000000000000000000 DUP2 MSTORE PUSH1 0x4 ADD PUSH2 0x475 SWAP1 PUSH2 0x320E JUMP JUMPDEST PUSH16 0x80000000000000000000000000000000 PUSH16 0x10000000000000000000000000000000 DUP4 SMOD DUP1 DUP1 MUL DUP3 SWAP1 SDIV PUSH8 0x10E1B3BE415A0000 DUP2 MUL SWAP4 SWAP1 SWAP4 ADD SWAP3 SWAP1 SWAP2 DUP2 DUP4 MUL SDIV SWAP1 POP DUP1 PUSH8 0x5A0913F6B1E0000 MUL DUP4 ADD SWAP3 POP PUSH16 0x80000000000000000000000000000000 DUP3 DUP3 MUL DUP2 PUSH2 0x20A1 JUMPI INVALID JUMPDEST SDIV SWAP1 POP DUP1 PUSH8 0x168244FDAC78000 MUL DUP4 ADD SWAP3 POP PUSH16 0x80000000000000000000000000000000 DUP3 DUP3 MUL DUP2 PUSH2 0x20CE JUMPI INVALID JUMPDEST SDIV SWAP1 POP DUP1 PUSH7 0x4807432BC18000 MUL DUP4 ADD SWAP3 POP PUSH16 0x80000000000000000000000000000000 DUP3 DUP3 MUL DUP2 PUSH2 0x20FA JUMPI INVALID JUMPDEST SDIV SWAP1 POP DUP1 PUSH7 0xC0135DCA04000 MUL DUP4 ADD SWAP3 POP PUSH16 0x80000000000000000000000000000000 DUP3 DUP3 MUL DUP2 PUSH2 0x2126 JUMPI INVALID JUMPDEST SDIV SWAP1 POP DUP1 PUSH7 0x1B707B1CDC000 MUL DUP4 ADD SWAP3 POP PUSH16 0x80000000000000000000000000000000 DUP3 DUP3 MUL DUP2 PUSH2 0x2152 JUMPI INVALID JUMPDEST SDIV SWAP1 POP DUP1 PUSH6 0x36E0F639B800 MUL DUP4 ADD SWAP3 POP PUSH16 0x80000000000000000000000000000000 DUP3 DUP3 MUL DUP2 PUSH2 0x217D JUMPI INVALID JUMPDEST SDIV SWAP1 POP DUP1 PUSH6 0x618FEE9F800 MUL DUP4 ADD SWAP3 POP PUSH16 0x80000000000000000000000000000000 DUP3 DUP3 MUL DUP2 PUSH2 0x21A8 JUMPI INVALID JUMPDEST SDIV SWAP1 POP DUP1 PUSH5 0x9C197DCC00 MUL DUP4 ADD SWAP3 POP PUSH16 0x80000000000000000000000000000000 DUP3 DUP3 MUL DUP2 PUSH2 0x21D2 JUMPI INVALID JUMPDEST SDIV SWAP1 POP DUP1 PUSH5 0xE30DCE400 MUL DUP4 ADD SWAP3 POP PUSH16 0x80000000000000000000000000000000 DUP3 DUP3 MUL DUP2 PUSH2 0x21FC JUMPI INVALID JUMPDEST SDIV SWAP1 POP DUP1 PUSH5 0x12EBD1300 MUL DUP4 ADD SWAP3 POP PUSH16 0x80000000000000000000000000000000 DUP3 DUP3 MUL DUP2 PUSH2 0x2226 JUMPI INVALID JUMPDEST SDIV SWAP1 POP DUP1 PUSH4 0x17499F00 MUL DUP4 ADD SWAP3 POP PUSH16 0x80000000000000000000000000000000 DUP3 DUP3 MUL DUP2 PUSH2 0x224F JUMPI INVALID JUMPDEST SDIV SWAP1 POP DUP1 PUSH4 0x1A9D480 MUL DUP4 ADD SWAP3 POP PUSH16 0x80000000000000000000000000000000 DUP3 DUP3 MUL DUP2 PUSH2 0x2278 JUMPI INVALID JUMPDEST SDIV SWAP1 POP DUP1 PUSH3 0x1C6380 MUL DUP4 ADD SWAP3 POP PUSH16 0x80000000000000000000000000000000 DUP3 DUP3 MUL DUP2 PUSH2 0x22A0 JUMPI INVALID JUMPDEST SDIV SWAP1 POP DUP1 PUSH3 0x1C638 MUL DUP4 ADD SWAP3 POP PUSH16 0x80000000000000000000000000000000 DUP3 DUP3 MUL DUP2 PUSH2 0x22C8 JUMPI INVALID JUMPDEST SDIV SWAP1 POP DUP1 PUSH2 0x1AB8 MUL DUP4 ADD SWAP3 POP PUSH16 0x80000000000000000000000000000000 DUP3 DUP3 MUL DUP2 PUSH2 0x22EF JUMPI INVALID JUMPDEST SDIV SWAP1 POP DUP1 PUSH2 0x17C MUL DUP4 ADD SWAP3 POP PUSH16 0x80000000000000000000000000000000 DUP3 DUP3 MUL DUP2 PUSH2 0x2316 JUMPI INVALID JUMPDEST SDIV SWAP1 POP DUP1 PUSH1 0x14 MUL DUP4 ADD SWAP3 POP PUSH16 0x80000000000000000000000000000000 DUP3 DUP3 MUL DUP2 PUSH2 0x233C JUMPI INVALID JUMPDEST PUSH1 0x0 SWAP6 SWAP1 SWAP6 SUB SWAP5 PUSH8 0x21C3677C82B40000 SWAP2 SWAP1 SDIV SWAP4 DUP5 ADD SDIV DUP3 ADD PUSH16 0x80000000000000000000000000000000 ADD SWAP3 SWAP1 POP PUSH17 0x1000000000000000000000000000000000 DUP5 AND ISZERO PUSH2 0x23AB JUMPI PUSH19 0x43CBAF42A000812488FC5C220AD7B97BF6E99E PUSH13 0xF1AADDD7742E56D32FB9F99744 DUP5 MUL SDIV SWAP3 POP JUMPDEST PUSH17 0x800000000000000000000000000000000 DUP5 AND ISZERO PUSH2 0x23ED JUMPI PUSH18 0x5D27A9F51C31B7C2F8038212A0574779991 PUSH15 0xAFE10820813D65DFE6A33C07F738F DUP5 MUL SDIV SWAP3 POP JUMPDEST PUSH17 0x400000000000000000000000000000000 DUP5 AND ISZERO PUSH2 0x242F JUMPI PUSH17 0x1B4C902E273A58678D6D3BFDB93DB96D02 PUSH16 0x2582AB704279E8EFD15E0265855C47A DUP5 MUL SDIV SWAP3 POP JUMPDEST PUSH17 0x200000000000000000000000000000000 DUP5 AND ISZERO PUSH2 0x2471 JUMPI PUSH17 0x3B1CC971A9BB5B9867477440D6D157750 PUSH16 0x1152AAA3BF81CB9FDB76EAE12D029571 DUP5 MUL SDIV SWAP3 POP JUMPDEST PUSH17 0x100000000000000000000000000000000 DUP5 AND ISZERO PUSH2 0x24B3 JUMPI PUSH17 0x15BF0A8B1457695355FB8AC404E7A79E3 PUSH16 0x2F16AC6C59DE6F8D5D6F63C1482A7C86 DUP5 MUL SDIV SWAP3 POP JUMPDEST PUSH16 0x80000000000000000000000000000000 DUP5 AND ISZERO PUSH2 0x24F3 JUMPI PUSH16 0xD3094C70F034DE4B96FF7D5B6F99FCD8 PUSH16 0x4DA2CBF1BE5827F9EB3AD1AA9866EBB3 DUP5 MUL SDIV SWAP3 POP JUMPDEST PUSH16 0x40000000000000000000000000000000 DUP5 AND ISZERO PUSH2 0x2533 JUMPI PUSH16 0xA45AF1E1F40C333B3DE1DB4DD55F29A7 PUSH16 0x63AFBE7AB2082BA1A0AE5E4EB1B479DC DUP5 MUL SDIV SWAP3 POP JUMPDEST PUSH16 0x20000000000000000000000000000000 DUP5 AND ISZERO PUSH2 0x2573 JUMPI PUSH16 0x910B022DB7AE67CE76B441C27035C6A1 PUSH16 0x70F5A893B608861E1F58934F97AEA57D DUP5 MUL SDIV SWAP3 POP JUMPDEST PUSH16 0x10000000000000000000000000000000 DUP5 AND ISZERO PUSH2 0x25B3 JUMPI PUSH16 0x88415ABBE9A76BEAD8D00CF112E4D4A8 PUSH16 0x783EAFEF1C0A8F3978C7F81824D62EBF DUP5 MUL SDIV SWAP3 POP JUMPDEST POP POP SWAP2 SWAP1 POP JUMP JUMPDEST PUSH1 0x0 DUP1 PUSH2 0x25C7 PUSH1 0x2 PUSH2 0x2A77 JUMP JUMPDEST SWAP1 POP PUSH1 0x0 PUSH2 0x2606 PUSH2 0x25E6 DUP10 DUP7 PUSH2 0x100 ADD MLOAD PUSH2 0xDB1 SWAP1 SWAP2 SWAP1 PUSH4 0xFFFFFFFF AND JUMP JUMPDEST PUSH2 0xAD8 DUP10 PUSH2 0x10A0 DUP14 PUSH2 0x10A0 DUP11 PUSH2 0x100 ADD MLOAD DUP10 PUSH2 0xC26 SWAP1 SWAP2 SWAP1 PUSH4 0xFFFFFFFF AND JUMP JUMPDEST SWAP1 POP PUSH1 0x0 PUSH2 0x262C PUSH2 0x2623 DUP11 PUSH2 0x10A0 DUP14 PUSH2 0x10A0 DUP14 PUSH2 0x10A0 PUSH1 0x4 PUSH2 0x2A77 JUMP JUMPDEST PUSH2 0x1670 DUP5 PUSH2 0x2A93 JUMP JUMPDEST SWAP1 POP PUSH1 0x0 PUSH2 0x2648 DUP5 PUSH2 0x1044 PUSH2 0x2643 DUP6 PUSH2 0x1044 PUSH2 0x12E3 JUMP JUMPDEST PUSH2 0x18C2 JUMP JUMPDEST PUSH1 0x0 SUB SWAP1 POP PUSH1 0x0 DUP1 DUP3 SGT ISZERO PUSH2 0x266B JUMPI PUSH2 0x2666 PUSH2 0x161B DUP4 PUSH1 0x0 SUB PUSH2 0x1FAC JUMP JUMPDEST PUSH2 0x2674 JUMP JUMPDEST PUSH2 0x2674 DUP3 PUSH2 0x1FAC JUMP JUMPDEST SWAP1 POP PUSH1 0x0 PUSH2 0x269F PUSH2 0x268B DUP8 DUP14 PUSH4 0xFFFFFFFF PUSH2 0xDB1 AND JUMP JUMPDEST PUSH2 0x1044 PUSH1 0x0 DUP9 SWAP1 SUB DUP6 PUSH4 0xFFFFFFFF PUSH2 0xE6F AND JUMP JUMPDEST SWAP1 POP PUSH1 0x0 PUSH2 0x187E DUP11 DUP4 PUSH2 0x2A9F JUMP JUMPDEST PUSH1 0x0 DUP1 PUSH2 0x26E0 PUSH2 0x26D3 PUSH2 0x26C6 DUP7 DUP11 PUSH4 0xFFFFFFFF PUSH2 0xDB1 AND JUMP JUMPDEST DUP11 SWAP1 PUSH4 0xFFFFFFFF PUSH2 0xC26 AND JUMP JUMPDEST DUP11 SWAP1 PUSH4 0xFFFFFFFF PUSH2 0xDB1 AND JUMP JUMPDEST SWAP1 POP PUSH1 0x0 PUSH2 0x26F7 PUSH2 0x26D3 DUP12 DUP8 PUSH4 0xFFFFFFFF PUSH2 0xE6F AND JUMP JUMPDEST SWAP1 POP PUSH1 0x0 PUSH2 0x270E PUSH2 0x2643 DUP5 DUP5 PUSH4 0xFFFFFFFF PUSH2 0x1514 AND JUMP JUMPDEST SWAP1 POP PUSH1 0x0 PUSH2 0x2727 DUP3 PUSH2 0x10A0 DUP9 PUSH2 0x100 ADD MLOAD PUSH2 0xAD8 PUSH2 0x12E3 JUMP JUMPDEST SWAP1 POP PUSH1 0x0 PUSH2 0x273C DUP10 PUSH2 0x1044 DUP11 PUSH2 0x10A0 DUP7 PUSH2 0x1FAC JUMP JUMPDEST SWAP14 SWAP13 POP POP POP POP POP POP POP POP POP POP POP POP POP JUMP JUMPDEST PUSH1 0x0 DUP1 PUSH2 0x2760 DUP5 DUP7 PUSH4 0xFFFFFFFF PUSH2 0x1514 AND JUMP JUMPDEST SWAP1 POP PUSH1 0x0 PUSH2 0x278E PUSH2 0x277C DUP7 PUSH2 0x10A0 DUP8 PUSH2 0x100 ADD MLOAD PUSH2 0xAD8 PUSH2 0x12E3 JUMP JUMPDEST PUSH2 0x100 DUP7 ADD MLOAD SWAP1 PUSH4 0xFFFFFFFF PUSH2 0xE6F AND JUMP JUMPDEST SWAP1 POP PUSH1 0x0 PUSH2 0x27B2 PUSH2 0x27AA DUP9 PUSH2 0x10A0 DUP9 PUSH2 0x100 ADD MLOAD PUSH2 0xAD8 PUSH2 0x12E3 JUMP JUMPDEST PUSH2 0x1670 PUSH2 0x12E3 JUMP JUMPDEST SWAP1 POP PUSH1 0x0 PUSH2 0x27C6 DUP4 DUP4 PUSH4 0xFFFFFFFF PUSH2 0x1514 AND JUMP JUMPDEST SWAP1 POP DUP1 DUP5 SLT PUSH2 0x27D5 JUMPI DUP1 PUSH2 0x273C JUMP JUMPDEST POP SWAP2 SWAP12 SWAP11 POP POP POP POP POP POP POP POP POP POP POP JUMP JUMPDEST PUSH1 0x0 DUP1 PUSH2 0x27F9 DUP5 DUP7 PUSH4 0xFFFFFFFF PUSH2 0xC26 AND JUMP JUMPDEST SWAP1 POP PUSH1 0x0 PUSH2 0x2809 PUSH1 0x1 PUSH1 0xA PUSH2 0x12C4 JUMP JUMPDEST SWAP1 POP PUSH1 0x0 PUSH2 0x2839 PUSH2 0x282C PUSH2 0x281F DUP9 PUSH2 0xAD8 PUSH2 0x12E3 JUMP JUMPDEST DUP8 SWAP1 PUSH4 0xFFFFFFFF PUSH2 0xE6F AND JUMP JUMPDEST DUP4 SWAP1 PUSH4 0xFFFFFFFF PUSH2 0xDB1 AND JUMP JUMPDEST SWAP1 POP PUSH32 0x34AE76BC42B30CB0F8B76BFDDC91A95EFE45ED0B3C7419EFCCCE432DE252A822 DUP4 DUP3 PUSH1 0x40 MLOAD PUSH2 0x286C SWAP3 SWAP2 SWAP1 PUSH2 0x2EC3 JUMP JUMPDEST PUSH1 0x40 MLOAD DUP1 SWAP2 SUB SWAP1 LOG1 SWAP1 SWAP2 SGT SWAP6 SWAP5 POP POP POP POP POP JUMP JUMPDEST PUSH1 0x0 DUP1 PUSH2 0x288C DUP8 PUSH2 0x2AB6 JUMP JUMPDEST SWAP1 POP PUSH1 0x0 PUSH2 0x28BE PUSH2 0x28A8 DUP7 PUSH2 0x10A0 DUP8 PUSH2 0x100 ADD MLOAD PUSH2 0xAD8 PUSH2 0x12E3 JUMP JUMPDEST PUSH2 0x100 DUP7 ADD MLOAD PUSH2 0x1670 SWAP1 DUP6 PUSH4 0xFFFFFFFF PUSH2 0xDB1 AND JUMP JUMPDEST SWAP1 POP PUSH1 0x0 PUSH2 0x28EB PUSH2 0x28DE DUP11 PUSH2 0x10A0 DUP11 PUSH2 0x10A0 DUP11 PUSH2 0x100 ADD MLOAD PUSH2 0xAD8 PUSH2 0x12E3 JUMP JUMPDEST DUP5 SWAP1 PUSH4 0xFFFFFFFF PUSH2 0xE6F AND JUMP JUMPDEST SWAP1 POP PUSH1 0x0 PUSH2 0x2903 DUP3 PUSH2 0x1044 DUP13 DUP7 PUSH4 0xFFFFFFFF PUSH2 0xDB1 AND JUMP JUMPDEST SWAP1 POP DUP9 DUP2 SLT PUSH2 0x2912 JUMPI DUP9 PUSH2 0x2914 JUMP JUMPDEST DUP1 JUMPDEST SWAP5 POP POP POP POP SWAP6 POP SWAP6 SWAP4 POP POP POP POP JUMP JUMPDEST PUSH1 0x0 DUP1 PUSH1 0x0 DUP1 PUSH1 0x0 PUSH2 0x2935 DUP12 DUP12 PUSH2 0x2B55 JUMP JUMPDEST SWAP1 POP PUSH1 0x0 PUSH2 0x2942 DUP3 PUSH2 0x2AB6 JUMP JUMPDEST SWAP1 POP PUSH1 0x0 PUSH2 0x2966 PUSH2 0x2959 DUP13 DUP6 PUSH4 0xFFFFFFFF PUSH2 0xDB1 AND JUMP JUMPDEST DUP12 SWAP1 PUSH4 0xFFFFFFFF PUSH2 0xC26 AND JUMP JUMPDEST SWAP1 POP DUP1 DUP3 SGT PUSH2 0x298B JUMPI DUP3 DUP13 DUP4 PUSH2 0x297B DUP16 PUSH2 0x2AB6 JUMP JUMPDEST SWAP7 POP SWAP7 POP SWAP7 POP SWAP7 POP POP POP POP PUSH2 0x2998 JUMP JUMPDEST POP DUP12 SWAP6 POP SWAP1 SWAP4 POP DUP7 SWAP3 POP SWAP1 POP JUMPDEST SWAP7 POP SWAP7 POP SWAP7 POP SWAP7 SWAP3 POP POP POP JUMP JUMPDEST PUSH1 0x0 DUP1 PUSH2 0x29EE PUSH2 0x29CB PUSH2 0x29BE DUP10 DUP12 PUSH4 0xFFFFFFFF PUSH2 0xC26 AND JUMP JUMPDEST DUP6 SWAP1 PUSH4 0xFFFFFFFF PUSH2 0xDB1 AND JUMP JUMPDEST PUSH2 0x1670 PUSH2 0x29DE DUP10 DUP12 PUSH4 0xFFFFFFFF PUSH2 0xDB1 AND JUMP JUMPDEST PUSH2 0xAD8 DUP10 DUP14 PUSH4 0xFFFFFFFF PUSH2 0xDB1 AND JUMP JUMPDEST SWAP1 POP PUSH1 0x0 PUSH2 0x2A25 PUSH2 0x2A15 PUSH2 0x2A08 DUP11 DUP13 PUSH4 0xFFFFFFFF PUSH2 0xC26 AND JUMP JUMPDEST DUP8 SWAP1 PUSH4 0xFFFFFFFF PUSH2 0xDB1 AND JUMP JUMPDEST PUSH2 0x1670 DUP9 DUP11 PUSH4 0xFFFFFFFF PUSH2 0xC26 AND JUMP JUMPDEST SWAP1 POP PUSH1 0x0 PUSH2 0x2A39 DUP4 DUP4 PUSH4 0xFFFFFFFF PUSH2 0x1514 AND JUMP JUMPDEST SWAP1 POP DUP10 DUP2 SGT PUSH2 0x2A48 JUMPI DUP10 PUSH2 0x1636 JUMP JUMPDEST SWAP10 SWAP9 POP POP POP POP POP POP POP POP POP JUMP JUMPDEST PUSH1 0x0 PUSH2 0x2A63 PUSH1 0x9 PUSH1 0xA PUSH2 0x12C4 JUMP JUMPDEST DUP3 SLT PUSH2 0x2A6F JUMPI DUP2 PUSH2 0xB7D JUMP JUMPDEST POP PUSH1 0x0 SWAP2 SWAP1 POP JUMP JUMPDEST PUSH1 0x0 PUSH2 0xB7D DUP3 PUSH16 0x80000000000000000000000000000000 PUSH2 0x12F7 JUMP JUMPDEST PUSH1 0x0 PUSH2 0xB7D DUP3 DUP4 PUSH2 0xDB1 JUMP JUMPDEST PUSH1 0x0 DUP2 DUP4 SGT ISZERO PUSH2 0x2AAF JUMPI DUP2 PUSH2 0xC8F JUMP JUMPDEST POP SWAP1 SWAP2 SWAP1 POP JUMP JUMPDEST PUSH1 0x0 DUP1 PUSH2 0x2AC9 DUP4 DUP1 PUSH4 0xFFFFFFFF PUSH2 0xDB1 AND JUMP JUMPDEST SWAP1 POP PUSH1 0x0 PUSH2 0x2ADD DUP5 DUP4 PUSH4 0xFFFFFFFF PUSH2 0xDB1 AND JUMP JUMPDEST SWAP1 POP PUSH1 0x0 PUSH2 0x2AF1 DUP3 DUP1 PUSH4 0xFFFFFFFF PUSH2 0xDB1 AND JUMP JUMPDEST SWAP1 POP PUSH1 0x0 PUSH2 0x2B05 DUP3 DUP1 PUSH4 0xFFFFFFFF PUSH2 0xDB1 AND JUMP JUMPDEST SWAP1 POP PUSH1 0x0 PUSH2 0x2B19 DUP3 DUP1 PUSH4 0xFFFFFFFF PUSH2 0xDB1 AND JUMP JUMPDEST SWAP1 POP PUSH1 0x0 PUSH2 0x2B2D DUP3 DUP1 PUSH4 0xFFFFFFFF PUSH2 0xDB1 AND JUMP JUMPDEST SWAP1 POP PUSH1 0x0 PUSH2 0x2B41 DUP3 DUP9 PUSH4 0xFFFFFFFF PUSH2 0xDB1 AND JUMP JUMPDEST SWAP1 POP PUSH1 0x0 PUSH2 0x1636 DUP3 DUP1 PUSH4 0xFFFFFFFF PUSH2 0xDB1 AND JUMP JUMPDEST PUSH1 0x0 PUSH2 0xC8F PUSH2 0x2B64 PUSH1 0xA PUSH2 0x2A77 JUMP JUMPDEST PUSH2 0x1044 PUSH2 0x2B81 PUSH2 0x2B74 PUSH1 0x6 PUSH2 0x2A77 JUMP JUMPDEST DUP7 SWAP1 PUSH4 0xFFFFFFFF PUSH2 0xDB1 AND JUMP JUMPDEST PUSH2 0x1670 PUSH2 0x2B8E PUSH1 0x4 PUSH2 0x2A77 JUMP JUMPDEST DUP9 SWAP1 PUSH4 0xFFFFFFFF PUSH2 0xDB1 AND JUMP JUMPDEST PUSH1 0x40 MLOAD DUP1 PUSH2 0x1A0 ADD PUSH1 0x40 MSTORE DUP1 PUSH1 0x0 ISZERO ISZERO DUP2 MSTORE PUSH1 0x20 ADD PUSH1 0x0 PUSH20 0xFFFFFFFFFFFFFFFFFFFFFFFFFFFFFFFFFFFFFFFF AND DUP2 MSTORE PUSH1 0x20 ADD PUSH1 0x0 PUSH20 0xFFFFFFFFFFFFFFFFFFFFFFFFFFFFFFFFFFFFFFFF AND DUP2 MSTORE PUSH1 0x20 ADD PUSH1 0x0 DUP2 MSTORE PUSH1 0x20 ADD PUSH1 0x0 DUP2 MSTORE PUSH1 0x20 ADD PUSH1 0x0 DUP2 MSTORE PUSH1 0x20 ADD PUSH1 0x0 DUP2 MSTORE PUSH1 0x20 ADD PUSH1 0x0 DUP2 MSTORE PUSH1 0x20 ADD PUSH1 0x0 DUP2 MSTORE PUSH1 0x20 ADD PUSH1 0x0 DUP2 MSTORE PUSH1 0x20 ADD PUSH1 0x0 DUP2 MSTORE PUSH1 0x20 ADD PUSH1 0x0 DUP2 MSTORE PUSH1 0x20 ADD PUSH1 0x0 DUP2 MSTORE POP SWAP1 JUMP JUMPDEST DUP1 CALLDATALOAD PUSH20 0xFFFFFFFFFFFFFFFFFFFFFFFFFFFFFFFFFFFFFFFF DUP2 AND DUP2 EQ PUSH2 0xB7D JUMPI PUSH1 0x0 DUP1 REVERT JUMPDEST PUSH1 0x0 PUSH1 0x20 DUP3 DUP5 SUB SLT ISZERO PUSH2 0x2C66 JUMPI DUP1 DUP2 REVERT JUMPDEST PUSH2 0xC8F DUP4 DUP4 PUSH2 0x2C31 JUMP JUMPDEST PUSH1 0x0 DUP1 PUSH1 0x40 DUP4 DUP6 SUB SLT ISZERO PUSH2 0x2C82 JUMPI DUP1 DUP2 REVERT JUMPDEST PUSH2 0x2C8C DUP5 DUP5 PUSH2 0x2C31 JUMP JUMPDEST SWAP2 POP PUSH2 0x2C9B DUP5 PUSH1 0x20 DUP6 ADD PUSH2 0x2C31 JUMP JUMPDEST SWAP1 POP SWAP3 POP SWAP3 SWAP1 POP JUMP JUMPDEST PUSH1 0x0 DUP1 PUSH1 0x0 PUSH1 0x60 DUP5 DUP7 SUB SLT ISZERO PUSH2 0x2CB8 JUMPI DUP1 DUP2 REVERT JUMPDEST DUP4 CALLDATALOAD PUSH2 0x2CC3 DUP2 PUSH2 0x33F5 JUMP JUMPDEST SWAP3 POP PUSH1 0x20 DUP5 ADD CALLDATALOAD PUSH2 0x2CD3 DUP2 PUSH2 0x33F5 JUMP JUMPDEST SWAP3 SWAP6 SWAP3 SWAP5 POP POP POP PUSH1 0x40 SWAP2 SWAP1 SWAP2 ADD CALLDATALOAD SWAP1 JUMP JUMPDEST PUSH1 0x0 PUSH1 0x20 DUP3 DUP5 SUB SLT ISZERO PUSH2 0x2CF5 JUMPI DUP1 DUP2 REVERT JUMPDEST DUP2 MLOAD DUP1 ISZERO ISZERO DUP2 EQ PUSH2 0xB7A JUMPI DUP2 DUP3 REVERT JUMPDEST PUSH1 0x0 PUSH1 0x20 DUP3 DUP5 SUB SLT ISZERO PUSH2 0x2D15 JUMPI DUP1 DUP2 REVERT JUMPDEST POP CALLDATALOAD SWAP2 SWAP1 POP JUMP JUMPDEST PUSH1 0x0 DUP1 PUSH1 0x40 DUP4 DUP6 SUB SLT ISZERO PUSH2 0x2D2E JUMPI DUP2 DUP3 REVERT JUMPDEST POP POP DUP1 CALLDATALOAD SWAP3 PUSH1 0x20 SWAP1 SWAP2 ADD CALLDATALOAD SWAP2 POP JUMP JUMPDEST PUSH20 0xFFFFFFFFFFFFFFFFFFFFFFFFFFFFFFFFFFFFFFFF SWAP2 SWAP1 SWAP2 AND DUP2 MSTORE PUSH1 0x20 ADD SWAP1 JUMP JUMPDEST PUSH20 0xFFFFFFFFFFFFFFFFFFFFFFFFFFFFFFFFFFFFFFFF SWAP3 DUP4 AND DUP2 MSTORE SWAP2 AND PUSH1 0x20 DUP3 ADD MSTORE PUSH1 0x40 ADD SWAP1 JUMP JUMPDEST PUSH20 0xFFFFFFFFFFFFFFFFFFFFFFFFFFFFFFFFFFFFFFFF SWAP6 DUP7 AND DUP2 MSTORE SWAP4 DUP6 AND PUSH1 0x20 DUP6 ADD MSTORE SWAP2 SWAP1 SWAP4 AND PUSH1 0x40 DUP4 ADD MSTORE PUSH1 0x60 DUP3 ADD SWAP3 SWAP1 SWAP3 MSTORE PUSH1 0x80 DUP2 ADD SWAP2 SWAP1 SWAP2 MSTORE PUSH1 0xA0 ADD SWAP1 JUMP JUMPDEST PUSH20 0xFFFFFFFFFFFFFFFFFFFFFFFFFFFFFFFFFFFFFFFF SWAP4 DUP5 AND DUP2 MSTORE SWAP2 SWAP1 SWAP3 AND PUSH1 0x20 DUP3 ADD MSTORE PUSH1 0x40 DUP2 ADD SWAP2 SWAP1 SWAP2 MSTORE PUSH1 0x60 ADD SWAP1 JUMP JUMPDEST PUSH20 0xFFFFFFFFFFFFFFFFFFFFFFFFFFFFFFFFFFFFFFFF SWAP4 SWAP1 SWAP4 AND DUP4 MSTORE PUSH1 0x20 DUP4 ADD SWAP2 SWAP1 SWAP2 MSTORE PUSH1 0x40 DUP3 ADD MSTORE PUSH1 0x60 ADD SWAP1 JUMP JUMPDEST PUSH20 0xFFFFFFFFFFFFFFFFFFFFFFFFFFFFFFFFFFFFFFFF SWAP3 SWAP1 SWAP3 AND DUP3 MSTORE PUSH1 0x20 DUP3 ADD MSTORE PUSH1 0x40 ADD SWAP1 JUMP JUMPDEST SWAP13 ISZERO ISZERO DUP14 MSTORE PUSH20 0xFFFFFFFFFFFFFFFFFFFFFFFFFFFFFFFFFFFFFFFF SWAP12 DUP13 AND PUSH1 0x20 DUP15 ADD MSTORE SWAP10 SWAP1 SWAP11 AND PUSH1 0x40 DUP13 ADD MSTORE PUSH1 0x60 DUP12 ADD SWAP8 SWAP1 SWAP8 MSTORE PUSH1 0x80 DUP11 ADD SWAP6 SWAP1 SWAP6 MSTORE PUSH1 0xA0 DUP10 ADD SWAP4 SWAP1 SWAP4 MSTORE PUSH1 0xC0 DUP9 ADD SWAP2 SWAP1 SWAP2 MSTORE PUSH1 0xE0 DUP8 ADD MSTORE PUSH2 0x100 DUP7 ADD MSTORE PUSH2 0x120 DUP6 ADD MSTORE PUSH2 0x140 DUP5 ADD MSTORE PUSH2 0x160 DUP4 ADD SWAP2 SWAP1 SWAP2 MSTORE PUSH2 0x180 DUP3 ADD MSTORE PUSH2 0x1A0 ADD SWAP1 JUMP JUMPDEST SWAP2 DUP3 MSTORE PUSH1 0x20 DUP3 ADD MSTORE PUSH1 0x40 ADD SWAP1 JUMP JUMPDEST PUSH1 0x20 DUP1 DUP3 MSTORE PUSH1 0x11 SWAP1 DUP3 ADD MSTORE PUSH32 0x736166654164643A206F766572666C6F77000000000000000000000000000000 PUSH1 0x40 DUP3 ADD MSTORE PUSH1 0x60 ADD SWAP1 JUMP JUMPDEST PUSH1 0x20 DUP1 DUP3 MSTORE PUSH1 0x2A SWAP1 DUP3 ADD MSTORE PUSH32 0x4C697175696474793A416D6F756E74206465706F7369746564206E6F74207072 PUSH1 0x40 DUP3 ADD MSTORE PUSH32 0x6F706F7274696F6E616C00000000000000000000000000000000000000000000 PUSH1 0x60 DUP3 ADD MSTORE PUSH1 0x80 ADD SWAP1 JUMP JUMPDEST PUSH1 0x20 DUP1 DUP3 MSTORE PUSH1 0x11 SWAP1 DUP3 ADD MSTORE PUSH32 0x736166654469763A206F766572666C6F77000000000000000000000000000000 PUSH1 0x40 DUP3 ADD MSTORE PUSH1 0x60 ADD SWAP1 JUMP JUMPDEST PUSH1 0x20 DUP1 DUP3 MSTORE PUSH1 0x12 SWAP1 DUP3 ADD MSTORE PUSH32 0x736166655375623A20756E646572666C6F770000000000000000000000000000 PUSH1 0x40 DUP3 ADD MSTORE PUSH1 0x60 ADD SWAP1 JUMP JUMPDEST PUSH1 0x20 DUP1 DUP3 MSTORE PUSH1 0x13 SWAP1 DUP3 ADD MSTORE PUSH32 0x6C6E3A2076616C756520746F6F20736D616C6C00000000000000000000000000 PUSH1 0x40 DUP3 ADD MSTORE PUSH1 0x60 ADD SWAP1 JUMP JUMPDEST PUSH1 0x20 DUP1 DUP3 MSTORE PUSH1 0xE SWAP1 DUP3 ADD MSTORE PUSH32 0x4F6E6C794F776E65724572726F72000000000000000000000000000000000000 PUSH1 0x40 DUP3 ADD MSTORE PUSH1 0x60 ADD SWAP1 JUMP JUMPDEST PUSH1 0x20 DUP1 DUP3 MSTORE PUSH1 0x13 SWAP1 DUP3 ADD MSTORE PUSH32 0x416C726561647920496E697469616C697A656400000000000000000000000000 PUSH1 0x40 DUP3 ADD MSTORE PUSH1 0x60 ADD SWAP1 JUMP JUMPDEST PUSH1 0x20 DUP1 DUP3 MSTORE PUSH1 0x17 SWAP1 DUP3 ADD MSTORE PUSH32 0x496E76616C696420746F6B656E20616464726573736573000000000000000000 PUSH1 0x40 DUP3 ADD MSTORE PUSH1 0x60 ADD SWAP1 JUMP JUMPDEST PUSH1 0x20 DUP1 DUP3 MSTORE PUSH1 0x38 SWAP1 DUP3 ADD MSTORE PUSH32 0x746F46697865642875696E742C75696E74293A2064656E6F6D696E61746F7220 PUSH1 0x40 DUP3 ADD MSTORE PUSH32 0x63616E6E6F74206265206C657373207468616E207A65726F0000000000000000 PUSH1 0x60 DUP3 ADD MSTORE PUSH1 0x80 ADD SWAP1 JUMP JUMPDEST PUSH1 0x20 DUP1 DUP3 MSTORE PUSH1 0x13 SWAP1 DUP3 ADD MSTORE PUSH32 0x6C6E3A2076616C756520746F6F206C6172676500000000000000000000000000 PUSH1 0x40 DUP3 ADD MSTORE PUSH1 0x60 ADD SWAP1 JUMP JUMPDEST PUSH1 0x20 DUP1 DUP3 MSTORE PUSH1 0x1A SWAP1 DUP3 ADD MSTORE PUSH32 0x547269656420746F20707572636861736520746F6F206D756368000000000000 PUSH1 0x40 DUP3 ADD MSTORE PUSH1 0x60 ADD SWAP1 JUMP JUMPDEST PUSH1 0x20 DUP1 DUP3 MSTORE PUSH1 0x27 SWAP1 DUP3 ADD MSTORE PUSH32 0x746F46697865643A2076616C75652063616E6E6F74206265206C657373207468 PUSH1 0x40 DUP3 ADD MSTORE PUSH32 0x616E207A65726F00000000000000000000000000000000000000000000000000 PUSH1 0x60 DUP3 ADD MSTORE PUSH1 0x80 ADD SWAP1 JUMP JUMPDEST PUSH1 0x20 DUP1 DUP3 MSTORE PUSH1 0x11 SWAP1 DUP3 ADD MSTORE PUSH32 0x736166654D756C3A206F766572666C6F77000000000000000000000000000000 PUSH1 0x40 DUP3 ADD MSTORE PUSH1 0x60 ADD SWAP1 JUMP JUMPDEST PUSH1 0x20 DUP1 DUP3 MSTORE PUSH1 0x14 SWAP1 DUP3 ADD MSTORE PUSH32 0x6578703A2076616C756520746F6F20736D616C6C000000000000000000000000 PUSH1 0x40 DUP3 ADD MSTORE PUSH1 0x60 ADD SWAP1 JUMP JUMPDEST PUSH1 0x20 DUP1 DUP3 MSTORE PUSH1 0x18 SWAP1 DUP3 ADD MSTORE PUSH32 0x5472616E736665724F776E6572546F5A65726F4572726F720000000000000000 PUSH1 0x40 DUP3 ADD MSTORE PUSH1 0x60 ADD SWAP1 JUMP JUMPDEST PUSH1 0x20 DUP1 DUP3 MSTORE PUSH1 0xE SWAP1 DUP3 ADD MSTORE PUSH32 0x5F6D756C3A206F766572666C6F77000000000000000000000000000000000000 PUSH1 0x40 DUP3 ADD MSTORE PUSH1 0x60 ADD SWAP1 JUMP JUMPDEST PUSH1 0x20 DUP1 DUP3 MSTORE PUSH1 0xE SWAP1 DUP3 ADD MSTORE PUSH32 0x5F6164643A206F766572666C6F77000000000000000000000000000000000000 PUSH1 0x40 DUP3 ADD MSTORE PUSH1 0x60 ADD SWAP1 JUMP JUMPDEST PUSH1 0x20 DUP1 DUP3 MSTORE PUSH1 0x14 SWAP1 DUP3 ADD MSTORE PUSH32 0x7375623A2076616C756520746F6F20736D616C6C000000000000000000000000 PUSH1 0x40 DUP3 ADD MSTORE PUSH1 0x60 ADD SWAP1 JUMP JUMPDEST PUSH1 0x20 DUP1 DUP3 MSTORE PUSH1 0x36 SWAP1 DUP3 ADD MSTORE PUSH32 0x746F46697865642875696E742C75696E74293A206E756D657261746F72206361 PUSH1 0x40 DUP3 ADD MSTORE PUSH32 0x6E6E6F74206265206C657373207468616E207A65726F00000000000000000000 PUSH1 0x60 DUP3 ADD MSTORE PUSH1 0x80 ADD SWAP1 JUMP JUMPDEST PUSH1 0x20 DUP1 DUP3 MSTORE PUSH1 0x14 SWAP1 DUP3 ADD MSTORE PUSH32 0x5F6469763A20646976696465206279207A65726F000000000000000000000000 PUSH1 0x40 DUP3 ADD MSTORE PUSH1 0x60 ADD SWAP1 JUMP JUMPDEST PUSH1 0x20 DUP1 DUP3 MSTORE PUSH1 0xE SWAP1 DUP3 ADD MSTORE PUSH32 0x5F6469763A206F766572666C6F77000000000000000000000000000000000000 PUSH1 0x40 DUP3 ADD MSTORE PUSH1 0x60 ADD SWAP1 JUMP JUMPDEST SWAP1 DUP2 MSTORE PUSH1 0x20 ADD SWAP1 JUMP JUMPDEST PUSH20 0xFFFFFFFFFFFFFFFFFFFFFFFFFFFFFFFFFFFFFFFF DUP2 AND DUP2 EQ PUSH2 0x97D JUMPI PUSH1 0x0 DUP1 REVERT INVALID LOG3 PUSH6 0x627A7A723158 KECCAK256 0x5c MLOAD 0xcf 0xb2 0xc CREATE 0xcf CALL PUSH26 0xDA7A07ED00603C18714E7373BF474ED20E8A775CE41256C6578 PUSH17 0x6572696D656E74616CF564736F6C634300 SDIV 0xc STOP BLOCKHASH "
			}
		}
	},
	"sourceTreeHashHex": "0xd3e9d67e8a1aa39f2ecd160d1dbdcbc8e5567434b535518acaa7574cf6a60b72",
	"compiler": {
		"name": "solc",
		"version": "soljson-v0.5.12+commit.7709ece9.js",
		"settings": {
			"optimizer": {
				"enabled": true,
				"runs": 1000000,
				"details": {
					"yul": true,
					"deduplicate": true,
					"cse": true,
					"constantOptimizer": true
				}
			},
			"outputSelection": {
				"*": {
					"*": [
						"abi",
						"devdoc",
						"evm.bytecode.object",
						"evm.bytecode.sourceMap",
						"evm.deployedBytecode.object",
						"evm.deployedBytecode.sourceMap"
					]
				}
			},
			"evmVersion": "constantinople",
			"remappings": []
		}
	},
	"chains": {}
}