{
	"schemaVersion": "2.0.0",
	"contractName": "Scam",
	"compilerOutput": {
		"abi": [
			{
				"inputs": [],
				"payable": false,
				"stateMutability": "nonpayable",
				"type": "constructor"
			},
			{
				"anonymous": false,
				"inputs": [
					{
						"indexed": false,
						"internalType": "int256",
						"name": "lhs1",
						"type": "int256"
					},
					{
						"indexed": false,
						"internalType": "int256",
						"name": "mid",
						"type": "int256"
					},
					{
						"indexed": false,
						"internalType": "int256",
						"name": "lhs",
						"type": "int256"
					}
				],
				"name": "Bisect",
				"type": "event"
			},
			{
				"anonymous": false,
				"inputs": [
					{
						"indexed": false,
						"internalType": "address",
						"name": "from",
						"type": "address"
					},
					{
						"indexed": false,
						"internalType": "address",
						"name": "fromToken",
						"type": "address"
					},
					{
						"indexed": false,
						"internalType": "address",
						"name": "toToken",
						"type": "address"
					},
					{
						"indexed": false,
						"internalType": "uint256",
						"name": "amountSpent",
						"type": "uint256"
					},
					{
						"indexed": false,
						"internalType": "uint256",
						"name": "amountReceived",
						"type": "uint256"
					}
				],
				"name": "Fill",
				"type": "event"
			},
			{
				"anonymous": false,
				"inputs": [
					{
						"indexed": false,
						"internalType": "address",
						"name": "from",
						"type": "address"
					},
					{
						"indexed": false,
						"internalType": "int256",
						"name": "amountSpent",
						"type": "int256"
					},
					{
						"indexed": false,
						"internalType": "int256",
						"name": "amountReceived",
						"type": "int256"
					}
				],
				"name": "FillInternal",
				"type": "event"
			},
			{
				"anonymous": false,
				"inputs": [
					{
						"indexed": false,
						"internalType": "address",
						"name": "oldOwner",
						"type": "address"
					},
					{
						"indexed": false,
						"internalType": "address",
						"name": "newOwner",
						"type": "address"
					}
				],
				"name": "OwnershipTransferred",
				"type": "event"
			},
			{
				"anonymous": false,
				"inputs": [
					{
						"indexed": false,
						"internalType": "int256",
						"name": "price",
						"type": "int256"
					},
					{
						"indexed": false,
						"internalType": "int256",
						"name": "deltaB",
						"type": "int256"
					},
					{
						"indexed": false,
						"internalType": "int256",
						"name": "newPBarX",
						"type": "int256"
					},
					{
						"indexed": false,
						"internalType": "int256",
						"name": "pA",
						"type": "int256"
					}
				],
				"name": "Price",
				"type": "event"
			},
			{
				"constant": false,
				"inputs": [
					{
						"internalType": "uint256",
						"name": "amount",
						"type": "uint256"
					}
				],
				"name": "addLiquidity",
				"outputs": [],
				"payable": false,
				"stateMutability": "nonpayable",
				"type": "function"
			},
			{
				"constant": false,
				"inputs": [],
				"name": "initState",
				"outputs": [],
				"payable": false,
				"stateMutability": "nonpayable",
				"type": "function"
			},
			{
				"constant": true,
				"inputs": [],
				"name": "owner",
				"outputs": [
					{
						"internalType": "address",
						"name": "",
						"type": "address"
					}
				],
				"payable": false,
				"stateMutability": "view",
				"type": "function"
			},
			{
				"constant": false,
				"inputs": [
					{
						"internalType": "uint256",
						"name": "amount",
						"type": "uint256"
					}
				],
				"name": "removeLiquidity",
				"outputs": [],
				"payable": false,
				"stateMutability": "nonpayable",
				"type": "function"
			},
			{
				"constant": false,
				"inputs": [
					{
						"internalType": "address",
						"name": "fromToken",
						"type": "address"
					},
					{
						"internalType": "address",
						"name": "toToken",
						"type": "address"
					},
					{
						"internalType": "uint256",
						"name": "amount",
						"type": "uint256"
					}
				],
				"name": "swap",
				"outputs": [
					{
						"internalType": "uint256",
						"name": "amountReceived",
						"type": "uint256"
					}
				],
				"payable": false,
				"stateMutability": "nonpayable",
				"type": "function"
			},
			{
				"constant": false,
				"inputs": [
					{
						"internalType": "address",
						"name": "newOwner",
						"type": "address"
					}
				],
				"name": "transferOwnership",
				"outputs": [],
				"payable": false,
				"stateMutability": "nonpayable",
				"type": "function"
			}
		],
		"devdoc": {
			"methods": {}
		},
		"evm": {
			"bytecode": {
				"linkReferences": {},
				"object": "0x608060405234801561001057600080fd5b50600080546001600160a01b0319163317905561242e806100326000396000f3fe608060405234801561001057600080fd5b50600436106100725760003560e01c80639c8f9f23116100505780639c8f9f2314610077578063df791e50146100b2578063f2fde38b146100d257610072565b806351c6590a146100775780636d83c92c1461008c5780638da5cb5b14610094575b600080fd5b61008a610085366004611f4e565b6100e5565b005b61008a6100e8565b61009c6101cd565b6040516100a99190611f66565b60405180910390f35b6100c56100c0366004611f0e565b6101e9565b6040516100a991906123c0565b61008a6100e0366004611eda565b61037d565b50565b6100f061044f565b60015460ff1615610136576040517f08c379a000000000000000000000000000000000000000000000000000000000815260040161012d90612083565b60405180910390fd5b61014060016104a2565b600555606360068190556101559060646104c4565b60075561016560056127106104c4565b60085561018d6101796001620f4240610565565b610181610584565b9063ffffffff61059816565b600c5561019e6127156103e8610565565b600d55600180547fffffffffffffffffffffffffffffffffffffffffffffffffffffffffffffff001681179055565b60005473ffffffffffffffffffffffffffffffffffffffff1681565b60006101f3611e44565b6101fb610601565b9050806020015173ffffffffffffffffffffffffffffffffffffffff168573ffffffffffffffffffffffffffffffffffffffff1614801561026b5750806040015173ffffffffffffffffffffffffffffffffffffffff168473ffffffffffffffffffffffffffffffffffffffff16145b156102ac57600061028f868661028987670de0b6b3a76400006104c4565b856106a7565b90506102a4670de0b6b3a764000082026109e3565b925050610375565b806040015173ffffffffffffffffffffffffffffffffffffffff168573ffffffffffffffffffffffffffffffffffffffff1614801561031a5750806020015173ffffffffffffffffffffffffffffffffffffffff168473ffffffffffffffffffffffffffffffffffffffff16145b15610343576000610333868661028987620f42406104c4565b90506102a4620f424082026109e3565b6040517f08c379a000000000000000000000000000000000000000000000000000000000815260040161012d906120ba565b509392505050565b61038561044f565b73ffffffffffffffffffffffffffffffffffffffff81166103d2576040517f08c379a000000000000000000000000000000000000000000000000000000000815260040161012d90612219565b600080547fffffffffffffffffffffffff00000000000000000000000000000000000000001673ffffffffffffffffffffffffffffffffffffffff83161790556040517f8be0079c531659141344cd1fd0a4f28419497f9722a3daafe3b4186f6b6457e0906104449033908490611f87565b60405180910390a150565b60005473ffffffffffffffffffffffffffffffffffffffff1633146104a0576040517f08c379a000000000000000000000000000000000000000000000000000000000815260040161012d9061204c565b565b60006104be826f800000000000000000000000000000006109fc565b92915050565b600080831215610500576040517f08c379a000000000000000000000000000000000000000000000000000000000815260040161012d906122f5565b600082121561053b576040517f08c379a000000000000000000000000000000000000000000000000000000000815260040161012d906120f1565b61055e610558846f800000000000000000000000000000006109fc565b83610a72565b9392505050565b600061055e610558846f800000000000000000000000000000006109fc565b6f8000000000000000000000000000000090565b60007f80000000000000000000000000000000000000000000000000000000000000008214156105f4576040517f08c379a000000000000000000000000000000000000000000000000000000000815260040161012d906122be565b61055e8383600003610b41565b610609611e44565b50604080516101a08101825260015460ff81161515825273ffffffffffffffffffffffffffffffffffffffff610100918290048116602084015260025416928201929092526003546060820152600454608082015260055460a082015260065460c082015260075460e082015260085491810191909152600954610120820152600b54610140820152600c54610160820152600d5461018082015290565b6020810151600090819081908190819073ffffffffffffffffffffffffffffffffffffffff8a8116911614801561070d5750856040015173ffffffffffffffffffffffffffffffffffffffff168873ffffffffffffffffffffffffffffffffffffffff16145b1561072c57505050506060820151608083015160a084015160016107cc565b856040015173ffffffffffffffffffffffffffffffffffffffff168973ffffffffffffffffffffffffffffffffffffffff1614801561079a5750856020015173ffffffffffffffffffffffffffffffffffffffff168873ffffffffffffffffffffffffffffffffffffffff16145b156103435785608001519350856060015192506107c98660a001516107bd610584565b9063ffffffff610bb716565b91505b6000806107dc8686868c8c610be0565b9150915060006108126107f68a6101000151610181610584565b6108068c8563ffffffff610ce516565b9063ffffffff610ce516565b905061082560008263ffffffff61059816565b905060006108376001620186a0610565565b9050600082131561084b5760009150610874565b8061085c888463ffffffff610d3816565b1361087457610871818863ffffffff61059816565b91505b60006108948b6101200151610887610d44565b8d6101600151888b610d48565b6101808c01519091506108ad908863ffffffff610ce516565b8113156108d1576101808b01516108ca908863ffffffff610ce516565b9050610905565b6108e6876108068d61018001516107bd610584565b81121561090557610902876108068d61018001516107bd610584565b90505b61090d610d44565b6101208c0152851561094f57610929898d63ffffffff610d3816565b60608c015261093e888463ffffffff610d3816565b60808c015260a08b0181905261098b565b61095f888463ffffffff610d3816565b60608c0152610974898d63ffffffff610d3816565b60808c0152610985816107bd610584565b60a08c01525b6109948b610e26565b7f666804e599b015edcfb9de12153bf8a48aa5a84b8861b8fa88c1cf4b11974c15338d856040516109c793929190611fae565b60405180910390a150506000039b9a5050505050505050505050565b6f8000000000000000000000000000000081055b919050565b6000821580610a09575081155b15610a16575060006104be565b5081810281838281610a2457fe5b05141580610a3b575082828281610a3757fe5b0514155b156104be576040517f08c379a000000000000000000000000000000000000000000000000000000000815260040161012d90612250565b600081610aab576040517f08c379a000000000000000000000000000000000000000000000000000000000815260040161012d90612352565b7f800000000000000000000000000000000000000000000000000000000000000083148015610af95750817fffffffffffffffffffffffffffffffffffffffffffffffffffffffffffffffff145b15610b30576040517f08c379a000000000000000000000000000000000000000000000000000000000815260040161012d90612389565b818381610b3957fe5b059392505050565b818101600083128015610b545750600082125b8015610b5f57508281135b80610b805750600083138015610b755750600082135b8015610b8057508281125b156104be576040517f08c379a000000000000000000000000000000000000000000000000000000000815260040161012d90612287565b6000610bd1610558846a80000000000000000000006109fc565b65010000000000029392505050565b600080610bf38787878660e00151610f28565b915060008281610c098a8863ffffffff610d3816565b905060005b6014811015610cd5576000610c238585611021565b90506000610c3f610c3a838d63ffffffff610bb716565b611049565b90506000610c76610c568c8563ffffffff610ce516565b610c6a85610806898763ffffffff610ce516565b9063ffffffff610d3816565b90507f4add19bbbe358caf4af4a31b1299356fc4dccf8b4cf3c87e401b0fa60062f31e828483604051610cab93929190611fdc565b60405180910390a18c811315610cc357829550610cc7565b8296505b505050806001019050610c0e565b5091925050509550959350505050565b60006f800000000000000000000000000000008215610d17575065010000000000909105906a80000000000000000000005b6000610d2385856109fc565b9050818181610d2e57fe5b0595945050505050565b600061055e8383610b41565b4390565b600080610d568787036110f6565b90506000610d7b610d76610d698861114c565b849063ffffffff610ce516565b611836565b90506000610d8b82610181610584565b90506000610d9f878363ffffffff610ce516565b90506000610db3878563ffffffff610ce516565b90506000610ddf610dca858b63ffffffff610bb716565b610dda878b63ffffffff610bb716565b610d38565b90506000610def826107bd610584565b90506000610e14610e0060026104a2565b6107bd84610c6a898963ffffffff610d3816565b9e9d5050505050505050505050505050565b80516001805460208401517fffffffffffffffffffffffffffffffffffffffffffffffffffffffffffffff00909116921515929092177fffffffffffffffffffffff0000000000000000000000000000000000000000ff1661010073ffffffffffffffffffffffffffffffffffffffff9384168102919091179091556040830151600280547fffffffffffffffffffffffff00000000000000000000000000000000000000001691909316179091556060820151600355608082015160045560a082015160055560c082015160065560e0820151600755810151600855610120810151600955610140810151600b55610160810151600c556101800151600d55565b600080610f3b848763ffffffff610ce516565b90506000610f4f868363ffffffff610bb716565b90506000610f63838863ffffffff610bb716565b90506000610f7386610181610584565b90506000610f7f610584565b841215610f9d57610f96610d76836108068761114c565b9050610fbb565b610fb8610fb0610d76846108068761114c565b6107bd610584565b90505b610fcb818963ffffffff610ce516565b95507f3cf9bd989028bfc957ca46fd34c8ed26f90d849442378ee442fcd56cf5cac44f8a8a8a8a610ffb8b6109e3565b60405161100c959493929190611ff2565b60405180910390a15050505050949350505050565b600061055e611039611031610584565b610c6a610584565b6107bd858563ffffffff610d3816565b60008061105c838063ffffffff610ce516565b90506000611070848363ffffffff610ce516565b90506000611084828063ffffffff610ce516565b90506000611098828063ffffffff610ce516565b905060006110ac828063ffffffff610ce516565b905060006110c0828063ffffffff610ce516565b905060006110d4828063ffffffff610ce516565b905060006110e8828863ffffffff610ce516565b9a9950505050505050505050565b600080821215611132576040517f08c379a000000000000000000000000000000000000000000000000000000000815260040161012d90612185565b6104be826f800000000000000000000000000000006109fc565b60006f80000000000000000000000000000000821315611198576040517f08c379a000000000000000000000000000000000000000000000000000000000815260040161012d9061214e565b600082136111d2576040517f08c379a000000000000000000000000000000000000000000000000000000000815260040161012d90612015565b6f800000000000000000000000000000008214156111f2575060006109f7565b640733048c5a821361122557507fffffffffffffffffffffffffffffffe0100000000000000000000000000000006109f7565b60008060006a01c8464f761647600000008513611284577ffffffffffffffffffffffffffffffff000000000000000000000000000000000909301926a01c8464f761647600000006f8000000000000000000000000000000086020594505b6cf1aaddd7742e9000000000000085136112e2577ffffffffffffffffffffffffffffffff800000000000000000000000000000000909301926cf1aaddd7742e900000000000006f8000000000000000000000000000000086020594505b6e0afe10820813d780000000000000008513611344577ffffffffffffffffffffffffffffffffc00000000000000000000000000000000909301926e0afe10820813d780000000000000006f8000000000000000000000000000000086020594505b6f02582ab704279ec0000000000000000085136113a8577ffffffffffffffffffffffffffffffffe00000000000000000000000000000000909301926f02582ab704279ec000000000000000006f8000000000000000000000000000000086020594505b6f1152aaa3bf81cc000000000000000000851361140c577fffffffffffffffffffffffffffffffff00000000000000000000000000000000909301926f1152aaa3bf81cc0000000000000000006f8000000000000000000000000000000086020594505b6f2f16ac6c59de700000000000000000008513611470577fffffffffffffffffffffffffffffffff80000000000000000000000000000000909301926f2f16ac6c59de700000000000000000006f8000000000000000000000000000000086020594505b6f4da2cbf1be582800000000000000000085136114d4577fffffffffffffffffffffffffffffffffc0000000000000000000000000000000909301926f4da2cbf1be58280000000000000000006f8000000000000000000000000000000086020594505b6f63afbe7ab2082c0000000000000000008513611538577fffffffffffffffffffffffffffffffffe0000000000000000000000000000000909301926f63afbe7ab2082c0000000000000000006f8000000000000000000000000000000086020594505b6f70f5a893b608861e1f58934f97aea57d851361159c577ffffffffffffffffffffffffffffffffff0000000000000000000000000000000909301926f70f5a893b608861e1f58934f97aea57d6f8000000000000000000000000000000086020594505b7fffffffffffffffffffffffffffffffff80000000000000000000000000000000850192508291506f80000000000000000000000000000000828002059050700100000000000000000000000000000000838103830205840193506f800000000000000000000000000000008183028161161257fe5b059150700200000000000000000000000000000000836faaaaaaaaaaaaaaaaaaaaaaaaaaaaaaaa0383028161164357fe5b05840193506f800000000000000000000000000000008183028161166357fe5b059150700300000000000000000000000000000000836f999999999999999999999999999999990383028161169457fe5b05840193506f80000000000000000000000000000000818302816116b457fe5b059150700400000000000000000000000000000000836f92492492492492492492492492492492038302816116e557fe5b05840193506f800000000000000000000000000000008183028161170557fe5b059150700500000000000000000000000000000000836f8e38e38e38e38e38e38e38e38e38e38e0383028161173657fe5b05840193506f800000000000000000000000000000008183028161175657fe5b059150700600000000000000000000000000000000836f8ba2e8ba2e8ba2e8ba2e8ba2e8ba2e8b0383028161178757fe5b05840193506f80000000000000000000000000000000818302816117a757fe5b059150700700000000000000000000000000000000836f89d89d89d89d89d89d89d89d89d89d89038302816117d857fe5b05840193506f80000000000000000000000000000000818302816117f857fe5b059150700800000000000000000000000000000000836f888888888888888888888888888888880383028161182957fe5b0584019350505050919050565b60007fffffffffffffffffffffffffffffffe010000000000000000000000000000000821215611868575060006109f7565b8161188457506f800000000000000000000000000000006109f7565b60008213156118bf576040517f08c379a000000000000000000000000000000000000000000000000000000000815260040161012d906121e2565b6f800000000000000000000000000000006f1000000000000000000000000000000083078080028290056710e1b3be415a0000810293909301929091818302059050806705a0913f6b1e000002830192506f800000000000000000000000000000008282028161192b57fe5b05905080670168244fdac7800002830192506f800000000000000000000000000000008282028161195857fe5b05905080664807432bc1800002830192506f800000000000000000000000000000008282028161198457fe5b05905080660c0135dca0400002830192506f80000000000000000000000000000000828202816119b057fe5b059050806601b707b1cdc00002830192506f80000000000000000000000000000000828202816119dc57fe5b059050806536e0f639b80002830192506f8000000000000000000000000000000082820281611a0757fe5b05905080650618fee9f80002830192506f8000000000000000000000000000000082820281611a3257fe5b05905080649c197dcc0002830192506f8000000000000000000000000000000082820281611a5c57fe5b05905080640e30dce40002830192506f8000000000000000000000000000000082820281611a8657fe5b0590508064012ebd130002830192506f8000000000000000000000000000000082820281611ab057fe5b059050806317499f0002830192506f8000000000000000000000000000000082820281611ad957fe5b059050806301a9d48002830192506f8000000000000000000000000000000082820281611b0257fe5b05905080621c638002830192506f8000000000000000000000000000000082820281611b2a57fe5b059050806201c63802830192506f8000000000000000000000000000000082820281611b5257fe5b05905080611ab802830192506f8000000000000000000000000000000082820281611b7957fe5b0590508061017c02830192506f8000000000000000000000000000000082820281611ba057fe5b05905080601402830192506f8000000000000000000000000000000082820281611bc657fe5b600095909503946721c3677c82b400009190059384010582016f8000000000000000000000000000000001929050701000000000000000000000000000000000841615611c35577243cbaf42a000812488fc5c220ad7b97bf6e99e6cf1aaddd7742e56d32fb9f9974484020592505b700800000000000000000000000000000000841615611c77577105d27a9f51c31b7c2f8038212a05747799916e0afe10820813d65dfe6a33c07f738f84020592505b700400000000000000000000000000000000841615611cb957701b4c902e273a58678d6d3bfdb93db96d026f02582ab704279e8efd15e0265855c47a84020592505b700200000000000000000000000000000000841615611cfb577003b1cc971a9bb5b9867477440d6d1577506f1152aaa3bf81cb9fdb76eae12d02957184020592505b700100000000000000000000000000000000841615611d3d5770015bf0a8b1457695355fb8ac404e7a79e36f2f16ac6c59de6f8d5d6f63c1482a7c8684020592505b6f80000000000000000000000000000000841615611d7d576fd3094c70f034de4b96ff7d5b6f99fcd86f4da2cbf1be5827f9eb3ad1aa9866ebb384020592505b6f40000000000000000000000000000000841615611dbd576fa45af1e1f40c333b3de1db4dd55f29a76f63afbe7ab2082ba1a0ae5e4eb1b479dc84020592505b6f20000000000000000000000000000000841615611dfd576f910b022db7ae67ce76b441c27035c6a16f70f5a893b608861e1f58934f97aea57d84020592505b6f10000000000000000000000000000000841615611e3d576f88415abbe9a76bead8d00cf112e4d4a86f783eafef1c0a8f3978c7f81824d62ebf84020592505b5050919050565b604051806101a00160405280600015158152602001600073ffffffffffffffffffffffffffffffffffffffff168152602001600073ffffffffffffffffffffffffffffffffffffffff168152602001600081526020016000815260200160008152602001600081526020016000815260200160008152602001600081526020016000815260200160008152602001600081525090565b600060208284031215611eeb578081fd5b813573ffffffffffffffffffffffffffffffffffffffff8116811461055e578182fd5b600080600060608486031215611f22578182fd5b8335611f2d816123c9565b92506020840135611f3d816123c9565b929592945050506040919091013590565b600060208284031215611f5f578081fd5b5035919050565b73ffffffffffffffffffffffffffffffffffffffff91909116815260200190565b73ffffffffffffffffffffffffffffffffffffffff92831681529116602082015260400190565b73ffffffffffffffffffffffffffffffffffffffff9390931683526020830191909152604082015260600190565b9283526020830191909152604082015260600190565b948552602085019390935260408401919091526060830152608082015260a00190565b60208082526013908201527f6c6e3a2076616c756520746f6f20736d616c6c00000000000000000000000000604082015260600190565b6020808252600e908201527f4f6e6c794f776e65724572726f72000000000000000000000000000000000000604082015260600190565b60208082526013908201527f416c726561647920496e697469616c697a656400000000000000000000000000604082015260600190565b60208082526017908201527f496e76616c696420746f6b656e20616464726573736573000000000000000000604082015260600190565b60208082526038908201527f746f46697865642875696e742c75696e74293a2064656e6f6d696e61746f722060408201527f63616e6e6f74206265206c657373207468616e207a65726f0000000000000000606082015260800190565b60208082526013908201527f6c6e3a2076616c756520746f6f206c6172676500000000000000000000000000604082015260600190565b60208082526027908201527f746f46697865643a2076616c75652063616e6e6f74206265206c65737320746860408201527f616e207a65726f00000000000000000000000000000000000000000000000000606082015260800190565b60208082526014908201527f6578703a2076616c756520746f6f20736d616c6c000000000000000000000000604082015260600190565b60208082526018908201527f5472616e736665724f776e6572546f5a65726f4572726f720000000000000000604082015260600190565b6020808252600e908201527f5f6d756c3a206f766572666c6f77000000000000000000000000000000000000604082015260600190565b6020808252600e908201527f5f6164643a206f766572666c6f77000000000000000000000000000000000000604082015260600190565b60208082526014908201527f7375623a2076616c756520746f6f20736d616c6c000000000000000000000000604082015260600190565b60208082526036908201527f746f46697865642875696e742c75696e74293a206e756d657261746f7220636160408201527f6e6e6f74206265206c657373207468616e207a65726f00000000000000000000606082015260800190565b60208082526014908201527f5f6469763a20646976696465206279207a65726f000000000000000000000000604082015260600190565b6020808252600e908201527f5f6469763a206f766572666c6f77000000000000000000000000000000000000604082015260600190565b90815260200190565b73ffffffffffffffffffffffffffffffffffffffff811681146100e557600080fdfea365627a7a72315820ce36d18f7118059e74d7891f82fa5d0e8a6cba7cec576951144a4900165331c06c6578706572696d656e74616cf564736f6c634300050d0040",
				"opcodes": "PUSH1 0x80 PUSH1 0x40 MSTORE CALLVALUE DUP1 ISZERO PUSH2 0x10 JUMPI PUSH1 0x0 DUP1 REVERT JUMPDEST POP PUSH1 0x0 DUP1 SLOAD PUSH1 0x1 PUSH1 0x1 PUSH1 0xA0 SHL SUB NOT AND CALLER OR SWAP1 SSTORE PUSH2 0x242E DUP1 PUSH2 0x32 PUSH1 0x0 CODECOPY PUSH1 0x0 RETURN INVALID PUSH1 0x80 PUSH1 0x40 MSTORE CALLVALUE DUP1 ISZERO PUSH2 0x10 JUMPI PUSH1 0x0 DUP1 REVERT JUMPDEST POP PUSH1 0x4 CALLDATASIZE LT PUSH2 0x72 JUMPI PUSH1 0x0 CALLDATALOAD PUSH1 0xE0 SHR DUP1 PUSH4 0x9C8F9F23 GT PUSH2 0x50 JUMPI DUP1 PUSH4 0x9C8F9F23 EQ PUSH2 0x77 JUMPI DUP1 PUSH4 0xDF791E50 EQ PUSH2 0xB2 JUMPI DUP1 PUSH4 0xF2FDE38B EQ PUSH2 0xD2 JUMPI PUSH2 0x72 JUMP JUMPDEST DUP1 PUSH4 0x51C6590A EQ PUSH2 0x77 JUMPI DUP1 PUSH4 0x6D83C92C EQ PUSH2 0x8C JUMPI DUP1 PUSH4 0x8DA5CB5B EQ PUSH2 0x94 JUMPI JUMPDEST PUSH1 0x0 DUP1 REVERT JUMPDEST PUSH2 0x8A PUSH2 0x85 CALLDATASIZE PUSH1 0x4 PUSH2 0x1F4E JUMP JUMPDEST PUSH2 0xE5 JUMP JUMPDEST STOP JUMPDEST PUSH2 0x8A PUSH2 0xE8 JUMP JUMPDEST PUSH2 0x9C PUSH2 0x1CD JUMP JUMPDEST PUSH1 0x40 MLOAD PUSH2 0xA9 SWAP2 SWAP1 PUSH2 0x1F66 JUMP JUMPDEST PUSH1 0x40 MLOAD DUP1 SWAP2 SUB SWAP1 RETURN JUMPDEST PUSH2 0xC5 PUSH2 0xC0 CALLDATASIZE PUSH1 0x4 PUSH2 0x1F0E JUMP JUMPDEST PUSH2 0x1E9 JUMP JUMPDEST PUSH1 0x40 MLOAD PUSH2 0xA9 SWAP2 SWAP1 PUSH2 0x23C0 JUMP JUMPDEST PUSH2 0x8A PUSH2 0xE0 CALLDATASIZE PUSH1 0x4 PUSH2 0x1EDA JUMP JUMPDEST PUSH2 0x37D JUMP JUMPDEST POP JUMP JUMPDEST PUSH2 0xF0 PUSH2 0x44F JUMP JUMPDEST PUSH1 0x1 SLOAD PUSH1 0xFF AND ISZERO PUSH2 0x136 JUMPI PUSH1 0x40 MLOAD PUSH32 0x8C379A000000000000000000000000000000000000000000000000000000000 DUP2 MSTORE PUSH1 0x4 ADD PUSH2 0x12D SWAP1 PUSH2 0x2083 JUMP JUMPDEST PUSH1 0x40 MLOAD DUP1 SWAP2 SUB SWAP1 REVERT JUMPDEST PUSH2 0x140 PUSH1 0x1 PUSH2 0x4A2 JUMP JUMPDEST PUSH1 0x5 SSTORE PUSH1 0x63 PUSH1 0x6 DUP2 SWAP1 SSTORE PUSH2 0x155 SWAP1 PUSH1 0x64 PUSH2 0x4C4 JUMP JUMPDEST PUSH1 0x7 SSTORE PUSH2 0x165 PUSH1 0x5 PUSH2 0x2710 PUSH2 0x4C4 JUMP JUMPDEST PUSH1 0x8 SSTORE PUSH2 0x18D PUSH2 0x179 PUSH1 0x1 PUSH3 0xF4240 PUSH2 0x565 JUMP JUMPDEST PUSH2 0x181 PUSH2 0x584 JUMP JUMPDEST SWAP1 PUSH4 0xFFFFFFFF PUSH2 0x598 AND JUMP JUMPDEST PUSH1 0xC SSTORE PUSH2 0x19E PUSH2 0x2715 PUSH2 0x3E8 PUSH2 0x565 JUMP JUMPDEST PUSH1 0xD SSTORE PUSH1 0x1 DUP1 SLOAD PUSH32 0xFFFFFFFFFFFFFFFFFFFFFFFFFFFFFFFFFFFFFFFFFFFFFFFFFFFFFFFFFFFFFF00 AND DUP2 OR SWAP1 SSTORE JUMP JUMPDEST PUSH1 0x0 SLOAD PUSH20 0xFFFFFFFFFFFFFFFFFFFFFFFFFFFFFFFFFFFFFFFF AND DUP2 JUMP JUMPDEST PUSH1 0x0 PUSH2 0x1F3 PUSH2 0x1E44 JUMP JUMPDEST PUSH2 0x1FB PUSH2 0x601 JUMP JUMPDEST SWAP1 POP DUP1 PUSH1 0x20 ADD MLOAD PUSH20 0xFFFFFFFFFFFFFFFFFFFFFFFFFFFFFFFFFFFFFFFF AND DUP6 PUSH20 0xFFFFFFFFFFFFFFFFFFFFFFFFFFFFFFFFFFFFFFFF AND EQ DUP1 ISZERO PUSH2 0x26B JUMPI POP DUP1 PUSH1 0x40 ADD MLOAD PUSH20 0xFFFFFFFFFFFFFFFFFFFFFFFFFFFFFFFFFFFFFFFF AND DUP5 PUSH20 0xFFFFFFFFFFFFFFFFFFFFFFFFFFFFFFFFFFFFFFFF AND EQ JUMPDEST ISZERO PUSH2 0x2AC JUMPI PUSH1 0x0 PUSH2 0x28F DUP7 DUP7 PUSH2 0x289 DUP8 PUSH8 0xDE0B6B3A7640000 PUSH2 0x4C4 JUMP JUMPDEST DUP6 PUSH2 0x6A7 JUMP JUMPDEST SWAP1 POP PUSH2 0x2A4 PUSH8 0xDE0B6B3A7640000 DUP3 MUL PUSH2 0x9E3 JUMP JUMPDEST SWAP3 POP POP PUSH2 0x375 JUMP JUMPDEST DUP1 PUSH1 0x40 ADD MLOAD PUSH20 0xFFFFFFFFFFFFFFFFFFFFFFFFFFFFFFFFFFFFFFFF AND DUP6 PUSH20 0xFFFFFFFFFFFFFFFFFFFFFFFFFFFFFFFFFFFFFFFF AND EQ DUP1 ISZERO PUSH2 0x31A JUMPI POP DUP1 PUSH1 0x20 ADD MLOAD PUSH20 0xFFFFFFFFFFFFFFFFFFFFFFFFFFFFFFFFFFFFFFFF AND DUP5 PUSH20 0xFFFFFFFFFFFFFFFFFFFFFFFFFFFFFFFFFFFFFFFF AND EQ JUMPDEST ISZERO PUSH2 0x343 JUMPI PUSH1 0x0 PUSH2 0x333 DUP7 DUP7 PUSH2 0x289 DUP8 PUSH3 0xF4240 PUSH2 0x4C4 JUMP JUMPDEST SWAP1 POP PUSH2 0x2A4 PUSH3 0xF4240 DUP3 MUL PUSH2 0x9E3 JUMP JUMPDEST PUSH1 0x40 MLOAD PUSH32 0x8C379A000000000000000000000000000000000000000000000000000000000 DUP2 MSTORE PUSH1 0x4 ADD PUSH2 0x12D SWAP1 PUSH2 0x20BA JUMP JUMPDEST POP SWAP4 SWAP3 POP POP POP JUMP JUMPDEST PUSH2 0x385 PUSH2 0x44F JUMP JUMPDEST PUSH20 0xFFFFFFFFFFFFFFFFFFFFFFFFFFFFFFFFFFFFFFFF DUP2 AND PUSH2 0x3D2 JUMPI PUSH1 0x40 MLOAD PUSH32 0x8C379A000000000000000000000000000000000000000000000000000000000 DUP2 MSTORE PUSH1 0x4 ADD PUSH2 0x12D SWAP1 PUSH2 0x2219 JUMP JUMPDEST PUSH1 0x0 DUP1 SLOAD PUSH32 0xFFFFFFFFFFFFFFFFFFFFFFFF0000000000000000000000000000000000000000 AND PUSH20 0xFFFFFFFFFFFFFFFFFFFFFFFFFFFFFFFFFFFFFFFF DUP4 AND OR SWAP1 SSTORE PUSH1 0x40 MLOAD PUSH32 0x8BE0079C531659141344CD1FD0A4F28419497F9722A3DAAFE3B4186F6B6457E0 SWAP1 PUSH2 0x444 SWAP1 CALLER SWAP1 DUP5 SWAP1 PUSH2 0x1F87 JUMP JUMPDEST PUSH1 0x40 MLOAD DUP1 SWAP2 SUB SWAP1 LOG1 POP JUMP JUMPDEST PUSH1 0x0 SLOAD PUSH20 0xFFFFFFFFFFFFFFFFFFFFFFFFFFFFFFFFFFFFFFFF AND CALLER EQ PUSH2 0x4A0 JUMPI PUSH1 0x40 MLOAD PUSH32 0x8C379A000000000000000000000000000000000000000000000000000000000 DUP2 MSTORE PUSH1 0x4 ADD PUSH2 0x12D SWAP1 PUSH2 0x204C JUMP JUMPDEST JUMP JUMPDEST PUSH1 0x0 PUSH2 0x4BE DUP3 PUSH16 0x80000000000000000000000000000000 PUSH2 0x9FC JUMP JUMPDEST SWAP3 SWAP2 POP POP JUMP JUMPDEST PUSH1 0x0 DUP1 DUP4 SLT ISZERO PUSH2 0x500 JUMPI PUSH1 0x40 MLOAD PUSH32 0x8C379A000000000000000000000000000000000000000000000000000000000 DUP2 MSTORE PUSH1 0x4 ADD PUSH2 0x12D SWAP1 PUSH2 0x22F5 JUMP JUMPDEST PUSH1 0x0 DUP3 SLT ISZERO PUSH2 0x53B JUMPI PUSH1 0x40 MLOAD PUSH32 0x8C379A000000000000000000000000000000000000000000000000000000000 DUP2 MSTORE PUSH1 0x4 ADD PUSH2 0x12D SWAP1 PUSH2 0x20F1 JUMP JUMPDEST PUSH2 0x55E PUSH2 0x558 DUP5 PUSH16 0x80000000000000000000000000000000 PUSH2 0x9FC JUMP JUMPDEST DUP4 PUSH2 0xA72 JUMP JUMPDEST SWAP4 SWAP3 POP POP POP JUMP JUMPDEST PUSH1 0x0 PUSH2 0x55E PUSH2 0x558 DUP5 PUSH16 0x80000000000000000000000000000000 PUSH2 0x9FC JUMP JUMPDEST PUSH16 0x80000000000000000000000000000000 SWAP1 JUMP JUMPDEST PUSH1 0x0 PUSH32 0x8000000000000000000000000000000000000000000000000000000000000000 DUP3 EQ ISZERO PUSH2 0x5F4 JUMPI PUSH1 0x40 MLOAD PUSH32 0x8C379A000000000000000000000000000000000000000000000000000000000 DUP2 MSTORE PUSH1 0x4 ADD PUSH2 0x12D SWAP1 PUSH2 0x22BE JUMP JUMPDEST PUSH2 0x55E DUP4 DUP4 PUSH1 0x0 SUB PUSH2 0xB41 JUMP JUMPDEST PUSH2 0x609 PUSH2 0x1E44 JUMP JUMPDEST POP PUSH1 0x40 DUP1 MLOAD PUSH2 0x1A0 DUP2 ADD DUP3 MSTORE PUSH1 0x1 SLOAD PUSH1 0xFF DUP2 AND ISZERO ISZERO DUP3 MSTORE PUSH20 0xFFFFFFFFFFFFFFFFFFFFFFFFFFFFFFFFFFFFFFFF PUSH2 0x100 SWAP2 DUP3 SWAP1 DIV DUP2 AND PUSH1 0x20 DUP5 ADD MSTORE PUSH1 0x2 SLOAD AND SWAP3 DUP3 ADD SWAP3 SWAP1 SWAP3 MSTORE PUSH1 0x3 SLOAD PUSH1 0x60 DUP3 ADD MSTORE PUSH1 0x4 SLOAD PUSH1 0x80 DUP3 ADD MSTORE PUSH1 0x5 SLOAD PUSH1 0xA0 DUP3 ADD MSTORE PUSH1 0x6 SLOAD PUSH1 0xC0 DUP3 ADD MSTORE PUSH1 0x7 SLOAD PUSH1 0xE0 DUP3 ADD MSTORE PUSH1 0x8 SLOAD SWAP2 DUP2 ADD SWAP2 SWAP1 SWAP2 MSTORE PUSH1 0x9 SLOAD PUSH2 0x120 DUP3 ADD MSTORE PUSH1 0xB SLOAD PUSH2 0x140 DUP3 ADD MSTORE PUSH1 0xC SLOAD PUSH2 0x160 DUP3 ADD MSTORE PUSH1 0xD SLOAD PUSH2 0x180 DUP3 ADD MSTORE SWAP1 JUMP JUMPDEST PUSH1 0x20 DUP2 ADD MLOAD PUSH1 0x0 SWAP1 DUP2 SWAP1 DUP2 SWAP1 DUP2 SWAP1 DUP2 SWAP1 PUSH20 0xFFFFFFFFFFFFFFFFFFFFFFFFFFFFFFFFFFFFFFFF DUP11 DUP2 AND SWAP2 AND EQ DUP1 ISZERO PUSH2 0x70D JUMPI POP DUP6 PUSH1 0x40 ADD MLOAD PUSH20 0xFFFFFFFFFFFFFFFFFFFFFFFFFFFFFFFFFFFFFFFF AND DUP9 PUSH20 0xFFFFFFFFFFFFFFFFFFFFFFFFFFFFFFFFFFFFFFFF AND EQ JUMPDEST ISZERO PUSH2 0x72C JUMPI POP POP POP POP PUSH1 0x60 DUP3 ADD MLOAD PUSH1 0x80 DUP4 ADD MLOAD PUSH1 0xA0 DUP5 ADD MLOAD PUSH1 0x1 PUSH2 0x7CC JUMP JUMPDEST DUP6 PUSH1 0x40 ADD MLOAD PUSH20 0xFFFFFFFFFFFFFFFFFFFFFFFFFFFFFFFFFFFFFFFF AND DUP10 PUSH20 0xFFFFFFFFFFFFFFFFFFFFFFFFFFFFFFFFFFFFFFFF AND EQ DUP1 ISZERO PUSH2 0x79A JUMPI POP DUP6 PUSH1 0x20 ADD MLOAD PUSH20 0xFFFFFFFFFFFFFFFFFFFFFFFFFFFFFFFFFFFFFFFF AND DUP9 PUSH20 0xFFFFFFFFFFFFFFFFFFFFFFFFFFFFFFFFFFFFFFFF AND EQ JUMPDEST ISZERO PUSH2 0x343 JUMPI DUP6 PUSH1 0x80 ADD MLOAD SWAP4 POP DUP6 PUSH1 0x60 ADD MLOAD SWAP3 POP PUSH2 0x7C9 DUP7 PUSH1 0xA0 ADD MLOAD PUSH2 0x7BD PUSH2 0x584 JUMP JUMPDEST SWAP1 PUSH4 0xFFFFFFFF PUSH2 0xBB7 AND JUMP JUMPDEST SWAP2 POP JUMPDEST PUSH1 0x0 DUP1 PUSH2 0x7DC DUP7 DUP7 DUP7 DUP13 DUP13 PUSH2 0xBE0 JUMP JUMPDEST SWAP2 POP SWAP2 POP PUSH1 0x0 PUSH2 0x812 PUSH2 0x7F6 DUP11 PUSH2 0x100 ADD MLOAD PUSH2 0x181 PUSH2 0x584 JUMP JUMPDEST PUSH2 0x806 DUP13 DUP6 PUSH4 0xFFFFFFFF PUSH2 0xCE5 AND JUMP JUMPDEST SWAP1 PUSH4 0xFFFFFFFF PUSH2 0xCE5 AND JUMP JUMPDEST SWAP1 POP PUSH2 0x825 PUSH1 0x0 DUP3 PUSH4 0xFFFFFFFF PUSH2 0x598 AND JUMP JUMPDEST SWAP1 POP PUSH1 0x0 PUSH2 0x837 PUSH1 0x1 PUSH3 0x186A0 PUSH2 0x565 JUMP JUMPDEST SWAP1 POP PUSH1 0x0 DUP3 SGT ISZERO PUSH2 0x84B JUMPI PUSH1 0x0 SWAP2 POP PUSH2 0x874 JUMP JUMPDEST DUP1 PUSH2 0x85C DUP9 DUP5 PUSH4 0xFFFFFFFF PUSH2 0xD38 AND JUMP JUMPDEST SGT PUSH2 0x874 JUMPI PUSH2 0x871 DUP2 DUP9 PUSH4 0xFFFFFFFF PUSH2 0x598 AND JUMP JUMPDEST SWAP2 POP JUMPDEST PUSH1 0x0 PUSH2 0x894 DUP12 PUSH2 0x120 ADD MLOAD PUSH2 0x887 PUSH2 0xD44 JUMP JUMPDEST DUP14 PUSH2 0x160 ADD MLOAD DUP9 DUP12 PUSH2 0xD48 JUMP JUMPDEST PUSH2 0x180 DUP13 ADD MLOAD SWAP1 SWAP2 POP PUSH2 0x8AD SWAP1 DUP9 PUSH4 0xFFFFFFFF PUSH2 0xCE5 AND JUMP JUMPDEST DUP2 SGT ISZERO PUSH2 0x8D1 JUMPI PUSH2 0x180 DUP12 ADD MLOAD PUSH2 0x8CA SWAP1 DUP9 PUSH4 0xFFFFFFFF PUSH2 0xCE5 AND JUMP JUMPDEST SWAP1 POP PUSH2 0x905 JUMP JUMPDEST PUSH2 0x8E6 DUP8 PUSH2 0x806 DUP14 PUSH2 0x180 ADD MLOAD PUSH2 0x7BD PUSH2 0x584 JUMP JUMPDEST DUP2 SLT ISZERO PUSH2 0x905 JUMPI PUSH2 0x902 DUP8 PUSH2 0x806 DUP14 PUSH2 0x180 ADD MLOAD PUSH2 0x7BD PUSH2 0x584 JUMP JUMPDEST SWAP1 POP JUMPDEST PUSH2 0x90D PUSH2 0xD44 JUMP JUMPDEST PUSH2 0x120 DUP13 ADD MSTORE DUP6 ISZERO PUSH2 0x94F JUMPI PUSH2 0x929 DUP10 DUP14 PUSH4 0xFFFFFFFF PUSH2 0xD38 AND JUMP JUMPDEST PUSH1 0x60 DUP13 ADD MSTORE PUSH2 0x93E DUP9 DUP5 PUSH4 0xFFFFFFFF PUSH2 0xD38 AND JUMP JUMPDEST PUSH1 0x80 DUP13 ADD MSTORE PUSH1 0xA0 DUP12 ADD DUP2 SWAP1 MSTORE PUSH2 0x98B JUMP JUMPDEST PUSH2 0x95F DUP9 DUP5 PUSH4 0xFFFFFFFF PUSH2 0xD38 AND JUMP JUMPDEST PUSH1 0x60 DUP13 ADD MSTORE PUSH2 0x974 DUP10 DUP14 PUSH4 0xFFFFFFFF PUSH2 0xD38 AND JUMP JUMPDEST PUSH1 0x80 DUP13 ADD MSTORE PUSH2 0x985 DUP2 PUSH2 0x7BD PUSH2 0x584 JUMP JUMPDEST PUSH1 0xA0 DUP13 ADD MSTORE JUMPDEST PUSH2 0x994 DUP12 PUSH2 0xE26 JUMP JUMPDEST PUSH32 0x666804E599B015EDCFB9DE12153BF8A48AA5A84B8861B8FA88C1CF4B11974C15 CALLER DUP14 DUP6 PUSH1 0x40 MLOAD PUSH2 0x9C7 SWAP4 SWAP3 SWAP2 SWAP1 PUSH2 0x1FAE JUMP JUMPDEST PUSH1 0x40 MLOAD DUP1 SWAP2 SUB SWAP1 LOG1 POP POP PUSH1 0x0 SUB SWAP12 SWAP11 POP POP POP POP POP POP POP POP POP POP POP JUMP JUMPDEST PUSH16 0x80000000000000000000000000000000 DUP2 SDIV JUMPDEST SWAP2 SWAP1 POP JUMP JUMPDEST PUSH1 0x0 DUP3 ISZERO DUP1 PUSH2 0xA09 JUMPI POP DUP2 ISZERO JUMPDEST ISZERO PUSH2 0xA16 JUMPI POP PUSH1 0x0 PUSH2 0x4BE JUMP JUMPDEST POP DUP2 DUP2 MUL DUP2 DUP4 DUP3 DUP2 PUSH2 0xA24 JUMPI INVALID JUMPDEST SDIV EQ ISZERO DUP1 PUSH2 0xA3B JUMPI POP DUP3 DUP3 DUP3 DUP2 PUSH2 0xA37 JUMPI INVALID JUMPDEST SDIV EQ ISZERO JUMPDEST ISZERO PUSH2 0x4BE JUMPI PUSH1 0x40 MLOAD PUSH32 0x8C379A000000000000000000000000000000000000000000000000000000000 DUP2 MSTORE PUSH1 0x4 ADD PUSH2 0x12D SWAP1 PUSH2 0x2250 JUMP JUMPDEST PUSH1 0x0 DUP2 PUSH2 0xAAB JUMPI PUSH1 0x40 MLOAD PUSH32 0x8C379A000000000000000000000000000000000000000000000000000000000 DUP2 MSTORE PUSH1 0x4 ADD PUSH2 0x12D SWAP1 PUSH2 0x2352 JUMP JUMPDEST PUSH32 0x8000000000000000000000000000000000000000000000000000000000000000 DUP4 EQ DUP1 ISZERO PUSH2 0xAF9 JUMPI POP DUP2 PUSH32 0xFFFFFFFFFFFFFFFFFFFFFFFFFFFFFFFFFFFFFFFFFFFFFFFFFFFFFFFFFFFFFFFF EQ JUMPDEST ISZERO PUSH2 0xB30 JUMPI PUSH1 0x40 MLOAD PUSH32 0x8C379A000000000000000000000000000000000000000000000000000000000 DUP2 MSTORE PUSH1 0x4 ADD PUSH2 0x12D SWAP1 PUSH2 0x2389 JUMP JUMPDEST DUP2 DUP4 DUP2 PUSH2 0xB39 JUMPI INVALID JUMPDEST SDIV SWAP4 SWAP3 POP POP POP JUMP JUMPDEST DUP2 DUP2 ADD PUSH1 0x0 DUP4 SLT DUP1 ISZERO PUSH2 0xB54 JUMPI POP PUSH1 0x0 DUP3 SLT JUMPDEST DUP1 ISZERO PUSH2 0xB5F JUMPI POP DUP3 DUP2 SGT JUMPDEST DUP1 PUSH2 0xB80 JUMPI POP PUSH1 0x0 DUP4 SGT DUP1 ISZERO PUSH2 0xB75 JUMPI POP PUSH1 0x0 DUP3 SGT JUMPDEST DUP1 ISZERO PUSH2 0xB80 JUMPI POP DUP3 DUP2 SLT JUMPDEST ISZERO PUSH2 0x4BE JUMPI PUSH1 0x40 MLOAD PUSH32 0x8C379A000000000000000000000000000000000000000000000000000000000 DUP2 MSTORE PUSH1 0x4 ADD PUSH2 0x12D SWAP1 PUSH2 0x2287 JUMP JUMPDEST PUSH1 0x0 PUSH2 0xBD1 PUSH2 0x558 DUP5 PUSH11 0x8000000000000000000000 PUSH2 0x9FC JUMP JUMPDEST PUSH6 0x10000000000 MUL SWAP4 SWAP3 POP POP POP JUMP JUMPDEST PUSH1 0x0 DUP1 PUSH2 0xBF3 DUP8 DUP8 DUP8 DUP7 PUSH1 0xE0 ADD MLOAD PUSH2 0xF28 JUMP JUMPDEST SWAP2 POP PUSH1 0x0 DUP3 DUP2 PUSH2 0xC09 DUP11 DUP9 PUSH4 0xFFFFFFFF PUSH2 0xD38 AND JUMP JUMPDEST SWAP1 POP PUSH1 0x0 JUMPDEST PUSH1 0x14 DUP2 LT ISZERO PUSH2 0xCD5 JUMPI PUSH1 0x0 PUSH2 0xC23 DUP6 DUP6 PUSH2 0x1021 JUMP JUMPDEST SWAP1 POP PUSH1 0x0 PUSH2 0xC3F PUSH2 0xC3A DUP4 DUP14 PUSH4 0xFFFFFFFF PUSH2 0xBB7 AND JUMP JUMPDEST PUSH2 0x1049 JUMP JUMPDEST SWAP1 POP PUSH1 0x0 PUSH2 0xC76 PUSH2 0xC56 DUP13 DUP6 PUSH4 0xFFFFFFFF PUSH2 0xCE5 AND JUMP JUMPDEST PUSH2 0xC6A DUP6 PUSH2 0x806 DUP10 DUP8 PUSH4 0xFFFFFFFF PUSH2 0xCE5 AND JUMP JUMPDEST SWAP1 PUSH4 0xFFFFFFFF PUSH2 0xD38 AND JUMP JUMPDEST SWAP1 POP PUSH32 0x4ADD19BBBE358CAF4AF4A31B1299356FC4DCCF8B4CF3C87E401B0FA60062F31E DUP3 DUP5 DUP4 PUSH1 0x40 MLOAD PUSH2 0xCAB SWAP4 SWAP3 SWAP2 SWAP1 PUSH2 0x1FDC JUMP JUMPDEST PUSH1 0x40 MLOAD DUP1 SWAP2 SUB SWAP1 LOG1 DUP13 DUP2 SGT ISZERO PUSH2 0xCC3 JUMPI DUP3 SWAP6 POP PUSH2 0xCC7 JUMP JUMPDEST DUP3 SWAP7 POP JUMPDEST POP POP POP DUP1 PUSH1 0x1 ADD SWAP1 POP PUSH2 0xC0E JUMP JUMPDEST POP SWAP2 SWAP3 POP POP POP SWAP6 POP SWAP6 SWAP4 POP POP POP POP JUMP JUMPDEST PUSH1 0x0 PUSH16 0x80000000000000000000000000000000 DUP3 ISZERO PUSH2 0xD17 JUMPI POP PUSH6 0x10000000000 SWAP1 SWAP2 SDIV SWAP1 PUSH11 0x8000000000000000000000 JUMPDEST PUSH1 0x0 PUSH2 0xD23 DUP6 DUP6 PUSH2 0x9FC JUMP JUMPDEST SWAP1 POP DUP2 DUP2 DUP2 PUSH2 0xD2E JUMPI INVALID JUMPDEST SDIV SWAP6 SWAP5 POP POP POP POP POP JUMP JUMPDEST PUSH1 0x0 PUSH2 0x55E DUP4 DUP4 PUSH2 0xB41 JUMP JUMPDEST NUMBER SWAP1 JUMP JUMPDEST PUSH1 0x0 DUP1 PUSH2 0xD56 DUP8 DUP8 SUB PUSH2 0x10F6 JUMP JUMPDEST SWAP1 POP PUSH1 0x0 PUSH2 0xD7B PUSH2 0xD76 PUSH2 0xD69 DUP9 PUSH2 0x114C JUMP JUMPDEST DUP5 SWAP1 PUSH4 0xFFFFFFFF PUSH2 0xCE5 AND JUMP JUMPDEST PUSH2 0x1836 JUMP JUMPDEST SWAP1 POP PUSH1 0x0 PUSH2 0xD8B DUP3 PUSH2 0x181 PUSH2 0x584 JUMP JUMPDEST SWAP1 POP PUSH1 0x0 PUSH2 0xD9F DUP8 DUP4 PUSH4 0xFFFFFFFF PUSH2 0xCE5 AND JUMP JUMPDEST SWAP1 POP PUSH1 0x0 PUSH2 0xDB3 DUP8 DUP6 PUSH4 0xFFFFFFFF PUSH2 0xCE5 AND JUMP JUMPDEST SWAP1 POP PUSH1 0x0 PUSH2 0xDDF PUSH2 0xDCA DUP6 DUP12 PUSH4 0xFFFFFFFF PUSH2 0xBB7 AND JUMP JUMPDEST PUSH2 0xDDA DUP8 DUP12 PUSH4 0xFFFFFFFF PUSH2 0xBB7 AND JUMP JUMPDEST PUSH2 0xD38 JUMP JUMPDEST SWAP1 POP PUSH1 0x0 PUSH2 0xDEF DUP3 PUSH2 0x7BD PUSH2 0x584 JUMP JUMPDEST SWAP1 POP PUSH1 0x0 PUSH2 0xE14 PUSH2 0xE00 PUSH1 0x2 PUSH2 0x4A2 JUMP JUMPDEST PUSH2 0x7BD DUP5 PUSH2 0xC6A DUP10 DUP10 PUSH4 0xFFFFFFFF PUSH2 0xD38 AND JUMP JUMPDEST SWAP15 SWAP14 POP POP POP POP POP POP POP POP POP POP POP POP POP POP JUMP JUMPDEST DUP1 MLOAD PUSH1 0x1 DUP1 SLOAD PUSH1 0x20 DUP5 ADD MLOAD PUSH32 0xFFFFFFFFFFFFFFFFFFFFFFFFFFFFFFFFFFFFFFFFFFFFFFFFFFFFFFFFFFFFFF00 SWAP1 SWAP2 AND SWAP3 ISZERO ISZERO SWAP3 SWAP1 SWAP3 OR PUSH32 0xFFFFFFFFFFFFFFFFFFFFFF0000000000000000000000000000000000000000FF AND PUSH2 0x100 PUSH20 0xFFFFFFFFFFFFFFFFFFFFFFFFFFFFFFFFFFFFFFFF SWAP4 DUP5 AND DUP2 MUL SWAP2 SWAP1 SWAP2 OR SWAP1 SWAP2 SSTORE PUSH1 0x40 DUP4 ADD MLOAD PUSH1 0x2 DUP1 SLOAD PUSH32 0xFFFFFFFFFFFFFFFFFFFFFFFF0000000000000000000000000000000000000000 AND SWAP2 SWAP1 SWAP4 AND OR SWAP1 SWAP2 SSTORE PUSH1 0x60 DUP3 ADD MLOAD PUSH1 0x3 SSTORE PUSH1 0x80 DUP3 ADD MLOAD PUSH1 0x4 SSTORE PUSH1 0xA0 DUP3 ADD MLOAD PUSH1 0x5 SSTORE PUSH1 0xC0 DUP3 ADD MLOAD PUSH1 0x6 SSTORE PUSH1 0xE0 DUP3 ADD MLOAD PUSH1 0x7 SSTORE DUP2 ADD MLOAD PUSH1 0x8 SSTORE PUSH2 0x120 DUP2 ADD MLOAD PUSH1 0x9 SSTORE PUSH2 0x140 DUP2 ADD MLOAD PUSH1 0xB SSTORE PUSH2 0x160 DUP2 ADD MLOAD PUSH1 0xC SSTORE PUSH2 0x180 ADD MLOAD PUSH1 0xD SSTORE JUMP JUMPDEST PUSH1 0x0 DUP1 PUSH2 0xF3B DUP5 DUP8 PUSH4 0xFFFFFFFF PUSH2 0xCE5 AND JUMP JUMPDEST SWAP1 POP PUSH1 0x0 PUSH2 0xF4F DUP7 DUP4 PUSH4 0xFFFFFFFF PUSH2 0xBB7 AND JUMP JUMPDEST SWAP1 POP PUSH1 0x0 PUSH2 0xF63 DUP4 DUP9 PUSH4 0xFFFFFFFF PUSH2 0xBB7 AND JUMP JUMPDEST SWAP1 POP PUSH1 0x0 PUSH2 0xF73 DUP7 PUSH2 0x181 PUSH2 0x584 JUMP JUMPDEST SWAP1 POP PUSH1 0x0 PUSH2 0xF7F PUSH2 0x584 JUMP JUMPDEST DUP5 SLT ISZERO PUSH2 0xF9D JUMPI PUSH2 0xF96 PUSH2 0xD76 DUP4 PUSH2 0x806 DUP8 PUSH2 0x114C JUMP JUMPDEST SWAP1 POP PUSH2 0xFBB JUMP JUMPDEST PUSH2 0xFB8 PUSH2 0xFB0 PUSH2 0xD76 DUP5 PUSH2 0x806 DUP8 PUSH2 0x114C JUMP JUMPDEST PUSH2 0x7BD PUSH2 0x584 JUMP JUMPDEST SWAP1 POP JUMPDEST PUSH2 0xFCB DUP2 DUP10 PUSH4 0xFFFFFFFF PUSH2 0xCE5 AND JUMP JUMPDEST SWAP6 POP PUSH32 0x3CF9BD989028BFC957CA46FD34C8ED26F90D849442378EE442FCD56CF5CAC44F DUP11 DUP11 DUP11 DUP11 PUSH2 0xFFB DUP12 PUSH2 0x9E3 JUMP JUMPDEST PUSH1 0x40 MLOAD PUSH2 0x100C SWAP6 SWAP5 SWAP4 SWAP3 SWAP2 SWAP1 PUSH2 0x1FF2 JUMP JUMPDEST PUSH1 0x40 MLOAD DUP1 SWAP2 SUB SWAP1 LOG1 POP POP POP POP POP SWAP5 SWAP4 POP POP POP POP JUMP JUMPDEST PUSH1 0x0 PUSH2 0x55E PUSH2 0x1039 PUSH2 0x1031 PUSH2 0x584 JUMP JUMPDEST PUSH2 0xC6A PUSH2 0x584 JUMP JUMPDEST PUSH2 0x7BD DUP6 DUP6 PUSH4 0xFFFFFFFF PUSH2 0xD38 AND JUMP JUMPDEST PUSH1 0x0 DUP1 PUSH2 0x105C DUP4 DUP1 PUSH4 0xFFFFFFFF PUSH2 0xCE5 AND JUMP JUMPDEST SWAP1 POP PUSH1 0x0 PUSH2 0x1070 DUP5 DUP4 PUSH4 0xFFFFFFFF PUSH2 0xCE5 AND JUMP JUMPDEST SWAP1 POP PUSH1 0x0 PUSH2 0x1084 DUP3 DUP1 PUSH4 0xFFFFFFFF PUSH2 0xCE5 AND JUMP JUMPDEST SWAP1 POP PUSH1 0x0 PUSH2 0x1098 DUP3 DUP1 PUSH4 0xFFFFFFFF PUSH2 0xCE5 AND JUMP JUMPDEST SWAP1 POP PUSH1 0x0 PUSH2 0x10AC DUP3 DUP1 PUSH4 0xFFFFFFFF PUSH2 0xCE5 AND JUMP JUMPDEST SWAP1 POP PUSH1 0x0 PUSH2 0x10C0 DUP3 DUP1 PUSH4 0xFFFFFFFF PUSH2 0xCE5 AND JUMP JUMPDEST SWAP1 POP PUSH1 0x0 PUSH2 0x10D4 DUP3 DUP1 PUSH4 0xFFFFFFFF PUSH2 0xCE5 AND JUMP JUMPDEST SWAP1 POP PUSH1 0x0 PUSH2 0x10E8 DUP3 DUP9 PUSH4 0xFFFFFFFF PUSH2 0xCE5 AND JUMP JUMPDEST SWAP11 SWAP10 POP POP POP POP POP POP POP POP POP POP JUMP JUMPDEST PUSH1 0x0 DUP1 DUP3 SLT ISZERO PUSH2 0x1132 JUMPI PUSH1 0x40 MLOAD PUSH32 0x8C379A000000000000000000000000000000000000000000000000000000000 DUP2 MSTORE PUSH1 0x4 ADD PUSH2 0x12D SWAP1 PUSH2 0x2185 JUMP JUMPDEST PUSH2 0x4BE DUP3 PUSH16 0x80000000000000000000000000000000 PUSH2 0x9FC JUMP JUMPDEST PUSH1 0x0 PUSH16 0x80000000000000000000000000000000 DUP3 SGT ISZERO PUSH2 0x1198 JUMPI PUSH1 0x40 MLOAD PUSH32 0x8C379A000000000000000000000000000000000000000000000000000000000 DUP2 MSTORE PUSH1 0x4 ADD PUSH2 0x12D SWAP1 PUSH2 0x214E JUMP JUMPDEST PUSH1 0x0 DUP3 SGT PUSH2 0x11D2 JUMPI PUSH1 0x40 MLOAD PUSH32 0x8C379A000000000000000000000000000000000000000000000000000000000 DUP2 MSTORE PUSH1 0x4 ADD PUSH2 0x12D SWAP1 PUSH2 0x2015 JUMP JUMPDEST PUSH16 0x80000000000000000000000000000000 DUP3 EQ ISZERO PUSH2 0x11F2 JUMPI POP PUSH1 0x0 PUSH2 0x9F7 JUMP JUMPDEST PUSH5 0x733048C5A DUP3 SGT PUSH2 0x1225 JUMPI POP PUSH32 0xFFFFFFFFFFFFFFFFFFFFFFFFFFFFFFE010000000000000000000000000000000 PUSH2 0x9F7 JUMP JUMPDEST PUSH1 0x0 DUP1 PUSH1 0x0 PUSH11 0x1C8464F76164760000000 DUP6 SGT PUSH2 0x1284 JUMPI PUSH32 0xFFFFFFFFFFFFFFFFFFFFFFFFFFFFFFF000000000000000000000000000000000 SWAP1 SWAP4 ADD SWAP3 PUSH11 0x1C8464F76164760000000 PUSH16 0x80000000000000000000000000000000 DUP7 MUL SDIV SWAP5 POP JUMPDEST PUSH13 0xF1AADDD7742E90000000000000 DUP6 SGT PUSH2 0x12E2 JUMPI PUSH32 0xFFFFFFFFFFFFFFFFFFFFFFFFFFFFFFF800000000000000000000000000000000 SWAP1 SWAP4 ADD SWAP3 PUSH13 0xF1AADDD7742E90000000000000 PUSH16 0x80000000000000000000000000000000 DUP7 MUL SDIV SWAP5 POP JUMPDEST PUSH15 0xAFE10820813D78000000000000000 DUP6 SGT PUSH2 0x1344 JUMPI PUSH32 0xFFFFFFFFFFFFFFFFFFFFFFFFFFFFFFFC00000000000000000000000000000000 SWAP1 SWAP4 ADD SWAP3 PUSH15 0xAFE10820813D78000000000000000 PUSH16 0x80000000000000000000000000000000 DUP7 MUL SDIV SWAP5 POP JUMPDEST PUSH16 0x2582AB704279EC00000000000000000 DUP6 SGT PUSH2 0x13A8 JUMPI PUSH32 0xFFFFFFFFFFFFFFFFFFFFFFFFFFFFFFFE00000000000000000000000000000000 SWAP1 SWAP4 ADD SWAP3 PUSH16 0x2582AB704279EC00000000000000000 PUSH16 0x80000000000000000000000000000000 DUP7 MUL SDIV SWAP5 POP JUMPDEST PUSH16 0x1152AAA3BF81CC000000000000000000 DUP6 SGT PUSH2 0x140C JUMPI PUSH32 0xFFFFFFFFFFFFFFFFFFFFFFFFFFFFFFFF00000000000000000000000000000000 SWAP1 SWAP4 ADD SWAP3 PUSH16 0x1152AAA3BF81CC000000000000000000 PUSH16 0x80000000000000000000000000000000 DUP7 MUL SDIV SWAP5 POP JUMPDEST PUSH16 0x2F16AC6C59DE70000000000000000000 DUP6 SGT PUSH2 0x1470 JUMPI PUSH32 0xFFFFFFFFFFFFFFFFFFFFFFFFFFFFFFFF80000000000000000000000000000000 SWAP1 SWAP4 ADD SWAP3 PUSH16 0x2F16AC6C59DE70000000000000000000 PUSH16 0x80000000000000000000000000000000 DUP7 MUL SDIV SWAP5 POP JUMPDEST PUSH16 0x4DA2CBF1BE5828000000000000000000 DUP6 SGT PUSH2 0x14D4 JUMPI PUSH32 0xFFFFFFFFFFFFFFFFFFFFFFFFFFFFFFFFC0000000000000000000000000000000 SWAP1 SWAP4 ADD SWAP3 PUSH16 0x4DA2CBF1BE5828000000000000000000 PUSH16 0x80000000000000000000000000000000 DUP7 MUL SDIV SWAP5 POP JUMPDEST PUSH16 0x63AFBE7AB2082C000000000000000000 DUP6 SGT PUSH2 0x1538 JUMPI PUSH32 0xFFFFFFFFFFFFFFFFFFFFFFFFFFFFFFFFE0000000000000000000000000000000 SWAP1 SWAP4 ADD SWAP3 PUSH16 0x63AFBE7AB2082C000000000000000000 PUSH16 0x80000000000000000000000000000000 DUP7 MUL SDIV SWAP5 POP JUMPDEST PUSH16 0x70F5A893B608861E1F58934F97AEA57D DUP6 SGT PUSH2 0x159C JUMPI PUSH32 0xFFFFFFFFFFFFFFFFFFFFFFFFFFFFFFFFF0000000000000000000000000000000 SWAP1 SWAP4 ADD SWAP3 PUSH16 0x70F5A893B608861E1F58934F97AEA57D PUSH16 0x80000000000000000000000000000000 DUP7 MUL SDIV SWAP5 POP JUMPDEST PUSH32 0xFFFFFFFFFFFFFFFFFFFFFFFFFFFFFFFF80000000000000000000000000000000 DUP6 ADD SWAP3 POP DUP3 SWAP2 POP PUSH16 0x80000000000000000000000000000000 DUP3 DUP1 MUL SDIV SWAP1 POP PUSH17 0x100000000000000000000000000000000 DUP4 DUP2 SUB DUP4 MUL SDIV DUP5 ADD SWAP4 POP PUSH16 0x80000000000000000000000000000000 DUP2 DUP4 MUL DUP2 PUSH2 0x1612 JUMPI INVALID JUMPDEST SDIV SWAP2 POP PUSH17 0x200000000000000000000000000000000 DUP4 PUSH16 0xAAAAAAAAAAAAAAAAAAAAAAAAAAAAAAAA SUB DUP4 MUL DUP2 PUSH2 0x1643 JUMPI INVALID JUMPDEST SDIV DUP5 ADD SWAP4 POP PUSH16 0x80000000000000000000000000000000 DUP2 DUP4 MUL DUP2 PUSH2 0x1663 JUMPI INVALID JUMPDEST SDIV SWAP2 POP PUSH17 0x300000000000000000000000000000000 DUP4 PUSH16 0x99999999999999999999999999999999 SUB DUP4 MUL DUP2 PUSH2 0x1694 JUMPI INVALID JUMPDEST SDIV DUP5 ADD SWAP4 POP PUSH16 0x80000000000000000000000000000000 DUP2 DUP4 MUL DUP2 PUSH2 0x16B4 JUMPI INVALID JUMPDEST SDIV SWAP2 POP PUSH17 0x400000000000000000000000000000000 DUP4 PUSH16 0x92492492492492492492492492492492 SUB DUP4 MUL DUP2 PUSH2 0x16E5 JUMPI INVALID JUMPDEST SDIV DUP5 ADD SWAP4 POP PUSH16 0x80000000000000000000000000000000 DUP2 DUP4 MUL DUP2 PUSH2 0x1705 JUMPI INVALID JUMPDEST SDIV SWAP2 POP PUSH17 0x500000000000000000000000000000000 DUP4 PUSH16 0x8E38E38E38E38E38E38E38E38E38E38E SUB DUP4 MUL DUP2 PUSH2 0x1736 JUMPI INVALID JUMPDEST SDIV DUP5 ADD SWAP4 POP PUSH16 0x80000000000000000000000000000000 DUP2 DUP4 MUL DUP2 PUSH2 0x1756 JUMPI INVALID JUMPDEST SDIV SWAP2 POP PUSH17 0x600000000000000000000000000000000 DUP4 PUSH16 0x8BA2E8BA2E8BA2E8BA2E8BA2E8BA2E8B SUB DUP4 MUL DUP2 PUSH2 0x1787 JUMPI INVALID JUMPDEST SDIV DUP5 ADD SWAP4 POP PUSH16 0x80000000000000000000000000000000 DUP2 DUP4 MUL DUP2 PUSH2 0x17A7 JUMPI INVALID JUMPDEST SDIV SWAP2 POP PUSH17 0x700000000000000000000000000000000 DUP4 PUSH16 0x89D89D89D89D89D89D89D89D89D89D89 SUB DUP4 MUL DUP2 PUSH2 0x17D8 JUMPI INVALID JUMPDEST SDIV DUP5 ADD SWAP4 POP PUSH16 0x80000000000000000000000000000000 DUP2 DUP4 MUL DUP2 PUSH2 0x17F8 JUMPI INVALID JUMPDEST SDIV SWAP2 POP PUSH17 0x800000000000000000000000000000000 DUP4 PUSH16 0x88888888888888888888888888888888 SUB DUP4 MUL DUP2 PUSH2 0x1829 JUMPI INVALID JUMPDEST SDIV DUP5 ADD SWAP4 POP POP POP POP SWAP2 SWAP1 POP JUMP JUMPDEST PUSH1 0x0 PUSH32 0xFFFFFFFFFFFFFFFFFFFFFFFFFFFFFFE010000000000000000000000000000000 DUP3 SLT ISZERO PUSH2 0x1868 JUMPI POP PUSH1 0x0 PUSH2 0x9F7 JUMP JUMPDEST DUP2 PUSH2 0x1884 JUMPI POP PUSH16 0x80000000000000000000000000000000 PUSH2 0x9F7 JUMP JUMPDEST PUSH1 0x0 DUP3 SGT ISZERO PUSH2 0x18BF JUMPI PUSH1 0x40 MLOAD PUSH32 0x8C379A000000000000000000000000000000000000000000000000000000000 DUP2 MSTORE PUSH1 0x4 ADD PUSH2 0x12D SWAP1 PUSH2 0x21E2 JUMP JUMPDEST PUSH16 0x80000000000000000000000000000000 PUSH16 0x10000000000000000000000000000000 DUP4 SMOD DUP1 DUP1 MUL DUP3 SWAP1 SDIV PUSH8 0x10E1B3BE415A0000 DUP2 MUL SWAP4 SWAP1 SWAP4 ADD SWAP3 SWAP1 SWAP2 DUP2 DUP4 MUL SDIV SWAP1 POP DUP1 PUSH8 0x5A0913F6B1E0000 MUL DUP4 ADD SWAP3 POP PUSH16 0x80000000000000000000000000000000 DUP3 DUP3 MUL DUP2 PUSH2 0x192B JUMPI INVALID JUMPDEST SDIV SWAP1 POP DUP1 PUSH8 0x168244FDAC78000 MUL DUP4 ADD SWAP3 POP PUSH16 0x80000000000000000000000000000000 DUP3 DUP3 MUL DUP2 PUSH2 0x1958 JUMPI INVALID JUMPDEST SDIV SWAP1 POP DUP1 PUSH7 0x4807432BC18000 MUL DUP4 ADD SWAP3 POP PUSH16 0x80000000000000000000000000000000 DUP3 DUP3 MUL DUP2 PUSH2 0x1984 JUMPI INVALID JUMPDEST SDIV SWAP1 POP DUP1 PUSH7 0xC0135DCA04000 MUL DUP4 ADD SWAP3 POP PUSH16 0x80000000000000000000000000000000 DUP3 DUP3 MUL DUP2 PUSH2 0x19B0 JUMPI INVALID JUMPDEST SDIV SWAP1 POP DUP1 PUSH7 0x1B707B1CDC000 MUL DUP4 ADD SWAP3 POP PUSH16 0x80000000000000000000000000000000 DUP3 DUP3 MUL DUP2 PUSH2 0x19DC JUMPI INVALID JUMPDEST SDIV SWAP1 POP DUP1 PUSH6 0x36E0F639B800 MUL DUP4 ADD SWAP3 POP PUSH16 0x80000000000000000000000000000000 DUP3 DUP3 MUL DUP2 PUSH2 0x1A07 JUMPI INVALID JUMPDEST SDIV SWAP1 POP DUP1 PUSH6 0x618FEE9F800 MUL DUP4 ADD SWAP3 POP PUSH16 0x80000000000000000000000000000000 DUP3 DUP3 MUL DUP2 PUSH2 0x1A32 JUMPI INVALID JUMPDEST SDIV SWAP1 POP DUP1 PUSH5 0x9C197DCC00 MUL DUP4 ADD SWAP3 POP PUSH16 0x80000000000000000000000000000000 DUP3 DUP3 MUL DUP2 PUSH2 0x1A5C JUMPI INVALID JUMPDEST SDIV SWAP1 POP DUP1 PUSH5 0xE30DCE400 MUL DUP4 ADD SWAP3 POP PUSH16 0x80000000000000000000000000000000 DUP3 DUP3 MUL DUP2 PUSH2 0x1A86 JUMPI INVALID JUMPDEST SDIV SWAP1 POP DUP1 PUSH5 0x12EBD1300 MUL DUP4 ADD SWAP3 POP PUSH16 0x80000000000000000000000000000000 DUP3 DUP3 MUL DUP2 PUSH2 0x1AB0 JUMPI INVALID JUMPDEST SDIV SWAP1 POP DUP1 PUSH4 0x17499F00 MUL DUP4 ADD SWAP3 POP PUSH16 0x80000000000000000000000000000000 DUP3 DUP3 MUL DUP2 PUSH2 0x1AD9 JUMPI INVALID JUMPDEST SDIV SWAP1 POP DUP1 PUSH4 0x1A9D480 MUL DUP4 ADD SWAP3 POP PUSH16 0x80000000000000000000000000000000 DUP3 DUP3 MUL DUP2 PUSH2 0x1B02 JUMPI INVALID JUMPDEST SDIV SWAP1 POP DUP1 PUSH3 0x1C6380 MUL DUP4 ADD SWAP3 POP PUSH16 0x80000000000000000000000000000000 DUP3 DUP3 MUL DUP2 PUSH2 0x1B2A JUMPI INVALID JUMPDEST SDIV SWAP1 POP DUP1 PUSH3 0x1C638 MUL DUP4 ADD SWAP3 POP PUSH16 0x80000000000000000000000000000000 DUP3 DUP3 MUL DUP2 PUSH2 0x1B52 JUMPI INVALID JUMPDEST SDIV SWAP1 POP DUP1 PUSH2 0x1AB8 MUL DUP4 ADD SWAP3 POP PUSH16 0x80000000000000000000000000000000 DUP3 DUP3 MUL DUP2 PUSH2 0x1B79 JUMPI INVALID JUMPDEST SDIV SWAP1 POP DUP1 PUSH2 0x17C MUL DUP4 ADD SWAP3 POP PUSH16 0x80000000000000000000000000000000 DUP3 DUP3 MUL DUP2 PUSH2 0x1BA0 JUMPI INVALID JUMPDEST SDIV SWAP1 POP DUP1 PUSH1 0x14 MUL DUP4 ADD SWAP3 POP PUSH16 0x80000000000000000000000000000000 DUP3 DUP3 MUL DUP2 PUSH2 0x1BC6 JUMPI INVALID JUMPDEST PUSH1 0x0 SWAP6 SWAP1 SWAP6 SUB SWAP5 PUSH8 0x21C3677C82B40000 SWAP2 SWAP1 SDIV SWAP4 DUP5 ADD SDIV DUP3 ADD PUSH16 0x80000000000000000000000000000000 ADD SWAP3 SWAP1 POP PUSH17 0x1000000000000000000000000000000000 DUP5 AND ISZERO PUSH2 0x1C35 JUMPI PUSH19 0x43CBAF42A000812488FC5C220AD7B97BF6E99E PUSH13 0xF1AADDD7742E56D32FB9F99744 DUP5 MUL SDIV SWAP3 POP JUMPDEST PUSH17 0x800000000000000000000000000000000 DUP5 AND ISZERO PUSH2 0x1C77 JUMPI PUSH18 0x5D27A9F51C31B7C2F8038212A0574779991 PUSH15 0xAFE10820813D65DFE6A33C07F738F DUP5 MUL SDIV SWAP3 POP JUMPDEST PUSH17 0x400000000000000000000000000000000 DUP5 AND ISZERO PUSH2 0x1CB9 JUMPI PUSH17 0x1B4C902E273A58678D6D3BFDB93DB96D02 PUSH16 0x2582AB704279E8EFD15E0265855C47A DUP5 MUL SDIV SWAP3 POP JUMPDEST PUSH17 0x200000000000000000000000000000000 DUP5 AND ISZERO PUSH2 0x1CFB JUMPI PUSH17 0x3B1CC971A9BB5B9867477440D6D157750 PUSH16 0x1152AAA3BF81CB9FDB76EAE12D029571 DUP5 MUL SDIV SWAP3 POP JUMPDEST PUSH17 0x100000000000000000000000000000000 DUP5 AND ISZERO PUSH2 0x1D3D JUMPI PUSH17 0x15BF0A8B1457695355FB8AC404E7A79E3 PUSH16 0x2F16AC6C59DE6F8D5D6F63C1482A7C86 DUP5 MUL SDIV SWAP3 POP JUMPDEST PUSH16 0x80000000000000000000000000000000 DUP5 AND ISZERO PUSH2 0x1D7D JUMPI PUSH16 0xD3094C70F034DE4B96FF7D5B6F99FCD8 PUSH16 0x4DA2CBF1BE5827F9EB3AD1AA9866EBB3 DUP5 MUL SDIV SWAP3 POP JUMPDEST PUSH16 0x40000000000000000000000000000000 DUP5 AND ISZERO PUSH2 0x1DBD JUMPI PUSH16 0xA45AF1E1F40C333B3DE1DB4DD55F29A7 PUSH16 0x63AFBE7AB2082BA1A0AE5E4EB1B479DC DUP5 MUL SDIV SWAP3 POP JUMPDEST PUSH16 0x20000000000000000000000000000000 DUP5 AND ISZERO PUSH2 0x1DFD JUMPI PUSH16 0x910B022DB7AE67CE76B441C27035C6A1 PUSH16 0x70F5A893B608861E1F58934F97AEA57D DUP5 MUL SDIV SWAP3 POP JUMPDEST PUSH16 0x10000000000000000000000000000000 DUP5 AND ISZERO PUSH2 0x1E3D JUMPI PUSH16 0x88415ABBE9A76BEAD8D00CF112E4D4A8 PUSH16 0x783EAFEF1C0A8F3978C7F81824D62EBF DUP5 MUL SDIV SWAP3 POP JUMPDEST POP POP SWAP2 SWAP1 POP JUMP JUMPDEST PUSH1 0x40 MLOAD DUP1 PUSH2 0x1A0 ADD PUSH1 0x40 MSTORE DUP1 PUSH1 0x0 ISZERO ISZERO DUP2 MSTORE PUSH1 0x20 ADD PUSH1 0x0 PUSH20 0xFFFFFFFFFFFFFFFFFFFFFFFFFFFFFFFFFFFFFFFF AND DUP2 MSTORE PUSH1 0x20 ADD PUSH1 0x0 PUSH20 0xFFFFFFFFFFFFFFFFFFFFFFFFFFFFFFFFFFFFFFFF AND DUP2 MSTORE PUSH1 0x20 ADD PUSH1 0x0 DUP2 MSTORE PUSH1 0x20 ADD PUSH1 0x0 DUP2 MSTORE PUSH1 0x20 ADD PUSH1 0x0 DUP2 MSTORE PUSH1 0x20 ADD PUSH1 0x0 DUP2 MSTORE PUSH1 0x20 ADD PUSH1 0x0 DUP2 MSTORE PUSH1 0x20 ADD PUSH1 0x0 DUP2 MSTORE PUSH1 0x20 ADD PUSH1 0x0 DUP2 MSTORE PUSH1 0x20 ADD PUSH1 0x0 DUP2 MSTORE PUSH1 0x20 ADD PUSH1 0x0 DUP2 MSTORE PUSH1 0x20 ADD PUSH1 0x0 DUP2 MSTORE POP SWAP1 JUMP JUMPDEST PUSH1 0x0 PUSH1 0x20 DUP3 DUP5 SUB SLT ISZERO PUSH2 0x1EEB JUMPI DUP1 DUP2 REVERT JUMPDEST DUP2 CALLDATALOAD PUSH20 0xFFFFFFFFFFFFFFFFFFFFFFFFFFFFFFFFFFFFFFFF DUP2 AND DUP2 EQ PUSH2 0x55E JUMPI DUP2 DUP3 REVERT JUMPDEST PUSH1 0x0 DUP1 PUSH1 0x0 PUSH1 0x60 DUP5 DUP7 SUB SLT ISZERO PUSH2 0x1F22 JUMPI DUP2 DUP3 REVERT JUMPDEST DUP4 CALLDATALOAD PUSH2 0x1F2D DUP2 PUSH2 0x23C9 JUMP JUMPDEST SWAP3 POP PUSH1 0x20 DUP5 ADD CALLDATALOAD PUSH2 0x1F3D DUP2 PUSH2 0x23C9 JUMP JUMPDEST SWAP3 SWAP6 SWAP3 SWAP5 POP POP POP PUSH1 0x40 SWAP2 SWAP1 SWAP2 ADD CALLDATALOAD SWAP1 JUMP JUMPDEST PUSH1 0x0 PUSH1 0x20 DUP3 DUP5 SUB SLT ISZERO PUSH2 0x1F5F JUMPI DUP1 DUP2 REVERT JUMPDEST POP CALLDATALOAD SWAP2 SWAP1 POP JUMP JUMPDEST PUSH20 0xFFFFFFFFFFFFFFFFFFFFFFFFFFFFFFFFFFFFFFFF SWAP2 SWAP1 SWAP2 AND DUP2 MSTORE PUSH1 0x20 ADD SWAP1 JUMP JUMPDEST PUSH20 0xFFFFFFFFFFFFFFFFFFFFFFFFFFFFFFFFFFFFFFFF SWAP3 DUP4 AND DUP2 MSTORE SWAP2 AND PUSH1 0x20 DUP3 ADD MSTORE PUSH1 0x40 ADD SWAP1 JUMP JUMPDEST PUSH20 0xFFFFFFFFFFFFFFFFFFFFFFFFFFFFFFFFFFFFFFFF SWAP4 SWAP1 SWAP4 AND DUP4 MSTORE PUSH1 0x20 DUP4 ADD SWAP2 SWAP1 SWAP2 MSTORE PUSH1 0x40 DUP3 ADD MSTORE PUSH1 0x60 ADD SWAP1 JUMP JUMPDEST SWAP3 DUP4 MSTORE PUSH1 0x20 DUP4 ADD SWAP2 SWAP1 SWAP2 MSTORE PUSH1 0x40 DUP3 ADD MSTORE PUSH1 0x60 ADD SWAP1 JUMP JUMPDEST SWAP5 DUP6 MSTORE PUSH1 0x20 DUP6 ADD SWAP4 SWAP1 SWAP4 MSTORE PUSH1 0x40 DUP5 ADD SWAP2 SWAP1 SWAP2 MSTORE PUSH1 0x60 DUP4 ADD MSTORE PUSH1 0x80 DUP3 ADD MSTORE PUSH1 0xA0 ADD SWAP1 JUMP JUMPDEST PUSH1 0x20 DUP1 DUP3 MSTORE PUSH1 0x13 SWAP1 DUP3 ADD MSTORE PUSH32 0x6C6E3A2076616C756520746F6F20736D616C6C00000000000000000000000000 PUSH1 0x40 DUP3 ADD MSTORE PUSH1 0x60 ADD SWAP1 JUMP JUMPDEST PUSH1 0x20 DUP1 DUP3 MSTORE PUSH1 0xE SWAP1 DUP3 ADD MSTORE PUSH32 0x4F6E6C794F776E65724572726F72000000000000000000000000000000000000 PUSH1 0x40 DUP3 ADD MSTORE PUSH1 0x60 ADD SWAP1 JUMP JUMPDEST PUSH1 0x20 DUP1 DUP3 MSTORE PUSH1 0x13 SWAP1 DUP3 ADD MSTORE PUSH32 0x416C726561647920496E697469616C697A656400000000000000000000000000 PUSH1 0x40 DUP3 ADD MSTORE PUSH1 0x60 ADD SWAP1 JUMP JUMPDEST PUSH1 0x20 DUP1 DUP3 MSTORE PUSH1 0x17 SWAP1 DUP3 ADD MSTORE PUSH32 0x496E76616C696420746F6B656E20616464726573736573000000000000000000 PUSH1 0x40 DUP3 ADD MSTORE PUSH1 0x60 ADD SWAP1 JUMP JUMPDEST PUSH1 0x20 DUP1 DUP3 MSTORE PUSH1 0x38 SWAP1 DUP3 ADD MSTORE PUSH32 0x746F46697865642875696E742C75696E74293A2064656E6F6D696E61746F7220 PUSH1 0x40 DUP3 ADD MSTORE PUSH32 0x63616E6E6F74206265206C657373207468616E207A65726F0000000000000000 PUSH1 0x60 DUP3 ADD MSTORE PUSH1 0x80 ADD SWAP1 JUMP JUMPDEST PUSH1 0x20 DUP1 DUP3 MSTORE PUSH1 0x13 SWAP1 DUP3 ADD MSTORE PUSH32 0x6C6E3A2076616C756520746F6F206C6172676500000000000000000000000000 PUSH1 0x40 DUP3 ADD MSTORE PUSH1 0x60 ADD SWAP1 JUMP JUMPDEST PUSH1 0x20 DUP1 DUP3 MSTORE PUSH1 0x27 SWAP1 DUP3 ADD MSTORE PUSH32 0x746F46697865643A2076616C75652063616E6E6F74206265206C657373207468 PUSH1 0x40 DUP3 ADD MSTORE PUSH32 0x616E207A65726F00000000000000000000000000000000000000000000000000 PUSH1 0x60 DUP3 ADD MSTORE PUSH1 0x80 ADD SWAP1 JUMP JUMPDEST PUSH1 0x20 DUP1 DUP3 MSTORE PUSH1 0x14 SWAP1 DUP3 ADD MSTORE PUSH32 0x6578703A2076616C756520746F6F20736D616C6C000000000000000000000000 PUSH1 0x40 DUP3 ADD MSTORE PUSH1 0x60 ADD SWAP1 JUMP JUMPDEST PUSH1 0x20 DUP1 DUP3 MSTORE PUSH1 0x18 SWAP1 DUP3 ADD MSTORE PUSH32 0x5472616E736665724F776E6572546F5A65726F4572726F720000000000000000 PUSH1 0x40 DUP3 ADD MSTORE PUSH1 0x60 ADD SWAP1 JUMP JUMPDEST PUSH1 0x20 DUP1 DUP3 MSTORE PUSH1 0xE SWAP1 DUP3 ADD MSTORE PUSH32 0x5F6D756C3A206F766572666C6F77000000000000000000000000000000000000 PUSH1 0x40 DUP3 ADD MSTORE PUSH1 0x60 ADD SWAP1 JUMP JUMPDEST PUSH1 0x20 DUP1 DUP3 MSTORE PUSH1 0xE SWAP1 DUP3 ADD MSTORE PUSH32 0x5F6164643A206F766572666C6F77000000000000000000000000000000000000 PUSH1 0x40 DUP3 ADD MSTORE PUSH1 0x60 ADD SWAP1 JUMP JUMPDEST PUSH1 0x20 DUP1 DUP3 MSTORE PUSH1 0x14 SWAP1 DUP3 ADD MSTORE PUSH32 0x7375623A2076616C756520746F6F20736D616C6C000000000000000000000000 PUSH1 0x40 DUP3 ADD MSTORE PUSH1 0x60 ADD SWAP1 JUMP JUMPDEST PUSH1 0x20 DUP1 DUP3 MSTORE PUSH1 0x36 SWAP1 DUP3 ADD MSTORE PUSH32 0x746F46697865642875696E742C75696E74293A206E756D657261746F72206361 PUSH1 0x40 DUP3 ADD MSTORE PUSH32 0x6E6E6F74206265206C657373207468616E207A65726F00000000000000000000 PUSH1 0x60 DUP3 ADD MSTORE PUSH1 0x80 ADD SWAP1 JUMP JUMPDEST PUSH1 0x20 DUP1 DUP3 MSTORE PUSH1 0x14 SWAP1 DUP3 ADD MSTORE PUSH32 0x5F6469763A20646976696465206279207A65726F000000000000000000000000 PUSH1 0x40 DUP3 ADD MSTORE PUSH1 0x60 ADD SWAP1 JUMP JUMPDEST PUSH1 0x20 DUP1 DUP3 MSTORE PUSH1 0xE SWAP1 DUP3 ADD MSTORE PUSH32 0x5F6469763A206F766572666C6F77000000000000000000000000000000000000 PUSH1 0x40 DUP3 ADD MSTORE PUSH1 0x60 ADD SWAP1 JUMP JUMPDEST SWAP1 DUP2 MSTORE PUSH1 0x20 ADD SWAP1 JUMP JUMPDEST PUSH20 0xFFFFFFFFFFFFFFFFFFFFFFFFFFFFFFFFFFFFFFFF DUP2 AND DUP2 EQ PUSH2 0xE5 JUMPI PUSH1 0x0 DUP1 REVERT INVALID LOG3 PUSH6 0x627A7A723158 KECCAK256 0xCE CALLDATASIZE 0xD1 DUP16 PUSH18 0x18059E74D7891F82FA5D0E8A6CBA7CEC5769 MLOAD EQ 0x4A 0x49 STOP AND MSTORE8 BALANCE 0xC0 PUSH13 0x6578706572696D656E74616CF5 PUSH5 0x736F6C6343 STOP SDIV 0xD STOP BLOCKHASH "
			}
		}
	},
	"sourceTreeHashHex": "0x7d302e33bc2a98cad2b08be670d95cea0c334abe1c32ddcc0459ca7976e0b244",
	"compiler": {
		"name": "solc",
		"version": "soljson-v0.5.13+commit.5b0b510c.js",
		"settings": {
			"optimizer": {
				"enabled": true,
				"runs": 1000000,
				"details": {
					"yul": true,
					"deduplicate": true,
					"cse": true,
					"constantOptimizer": true
				}
			},
			"outputSelection": {
				"*": {
					"*": [
						"abi",
						"devdoc",
						"evm.bytecode.object",
						"evm.bytecode.sourceMap",
						"evm.deployedBytecode.object",
						"evm.deployedBytecode.sourceMap"
					]
				}
			},
			"evmVersion": "constantinople",
			"remappings": []
		}
	},
	"chains": {}
}