{
	"schemaVersion": "2.0.0",
	"contractName": "Scam",
	"compilerOutput": {
		"abi": [
			{
				"inputs": [],
				"payable": false,
				"stateMutability": "nonpayable",
				"type": "constructor"
			},
			{
				"anonymous": false,
				"inputs": [
					{
						"indexed": false,
						"internalType": "int256",
						"name": "lhs1",
						"type": "int256"
					},
					{
						"indexed": false,
						"internalType": "int256",
						"name": "mid",
						"type": "int256"
					},
					{
						"indexed": false,
						"internalType": "int256",
						"name": "lhs",
						"type": "int256"
					}
				],
				"name": "Bisect",
				"type": "event"
			},
			{
				"anonymous": false,
				"inputs": [
					{
						"indexed": false,
						"internalType": "address",
						"name": "from",
						"type": "address"
					},
					{
						"indexed": false,
						"internalType": "uint256",
						"name": "amountSpent",
						"type": "uint256"
					},
					{
						"indexed": false,
						"internalType": "uint256",
						"name": "amountReceived",
						"type": "uint256"
					},
					{
						"indexed": false,
						"internalType": "int256",
						"name": "x",
						"type": "int256"
					},
					{
						"indexed": false,
						"internalType": "int256",
						"name": "y",
						"type": "int256"
					}
				],
				"name": "Fill",
				"type": "event"
			},
			{
				"anonymous": false,
				"inputs": [
					{
						"indexed": false,
						"internalType": "address",
						"name": "oldOwner",
						"type": "address"
					},
					{
						"indexed": false,
						"internalType": "address",
						"name": "newOwner",
						"type": "address"
					}
				],
				"name": "OwnershipTransferred",
				"type": "event"
			},
			{
				"anonymous": false,
				"inputs": [
					{
						"indexed": false,
						"internalType": "int256",
						"name": "price",
						"type": "int256"
					},
					{
						"indexed": false,
						"internalType": "int256",
						"name": "deltaB",
						"type": "int256"
					},
					{
						"indexed": false,
						"internalType": "int256",
						"name": "newPBarX",
						"type": "int256"
					},
					{
						"indexed": false,
						"internalType": "int256",
						"name": "pA",
						"type": "int256"
					}
				],
				"name": "Price",
				"type": "event"
			},
			{
				"constant": false,
				"inputs": [
					{
						"internalType": "uint256",
						"name": "amount",
						"type": "uint256"
					}
				],
				"name": "addLiquidity",
				"outputs": [],
				"payable": false,
				"stateMutability": "nonpayable",
				"type": "function"
			},
			{
				"constant": false,
				"inputs": [],
				"name": "initState",
				"outputs": [],
				"payable": false,
				"stateMutability": "nonpayable",
				"type": "function"
			},
			{
				"constant": true,
				"inputs": [],
				"name": "owner",
				"outputs": [
					{
						"internalType": "address",
						"name": "",
						"type": "address"
					}
				],
				"payable": false,
				"stateMutability": "view",
				"type": "function"
			},
			{
				"constant": false,
				"inputs": [
					{
						"internalType": "uint256",
						"name": "amount",
						"type": "uint256"
					}
				],
				"name": "removeLiquidity",
				"outputs": [],
				"payable": false,
				"stateMutability": "nonpayable",
				"type": "function"
			},
			{
				"constant": false,
				"inputs": [
					{
						"internalType": "address",
						"name": "fromToken",
						"type": "address"
					},
					{
						"internalType": "address",
						"name": "toToken",
						"type": "address"
					},
					{
						"internalType": "uint256",
						"name": "amount",
						"type": "uint256"
					}
				],
				"name": "swap",
				"outputs": [],
				"payable": false,
				"stateMutability": "nonpayable",
				"type": "function"
			},
			{
				"constant": false,
				"inputs": [
					{
						"internalType": "address",
						"name": "newOwner",
						"type": "address"
					}
				],
				"name": "transferOwnership",
				"outputs": [],
				"payable": false,
				"stateMutability": "nonpayable",
				"type": "function"
			}
		],
		"devdoc": {
			"methods": {}
		},
		"evm": {
			"bytecode": {
				"linkReferences": {},
				"object": "0x608060405234801561001057600080fd5b50600080546001600160a01b03191633179055612386806100326000396000f3fe608060405234801561001057600080fd5b50600436106100725760003560e01c80639c8f9f23116100505780639c8f9f2314610077578063df791e50146100b2578063f2fde38b146100c557610072565b806351c6590a146100775780636d83c92c1461008c5780638da5cb5b14610094575b600080fd5b61008a610085366004611e87565b6100d8565b005b61008a6100db565b61009c6101c0565b6040516100a99190611e9f565b60405180910390f35b61008a6100c0366004611e47565b6101dc565b61008a6100d3366004611e13565b6105f3565b50565b6100e36106c5565b60015460ff1615610129576040517f08c379a000000000000000000000000000000000000000000000000000000000815260040161012090611fe4565b60405180910390fd5b6101336001610718565b6005556063600681905561014890606461073a565b600755610158600561271061073a565b60085561018061016c6001620f42406107db565b6101746107fa565b9063ffffffff61080e16565b600c556101916127156103e86107db565b600d55600180547fffffffffffffffffffffffffffffffffffffffffffffffffffffffffffffff001681179055565b60005473ffffffffffffffffffffffffffffffffffffffff1681565b6101e4611d7d565b6101ec610877565b905060006101f98361091d565b602083015190915060009081908190819073ffffffffffffffffffffffffffffffffffffffff8a811691161480156102605750856040015173ffffffffffffffffffffffffffffffffffffffff168873ffffffffffffffffffffffffffffffffffffffff16145b1561027f57505050506060820151608083015160a08401516001610355565b856040015173ffffffffffffffffffffffffffffffffffffffff168973ffffffffffffffffffffffffffffffffffffffff161480156102ed5750856020015173ffffffffffffffffffffffffffffffffffffffff168873ffffffffffffffffffffffffffffffffffffffff16145b1561032357856080015193508560600151925061031c8660a001516103106107fa565b9063ffffffff61097316565b9150610355565b6040517f08c379a00000000000000000000000000000000000000000000000000000000081526004016101209061201b565b6000806103658686868a8c61099c565b91509150600061039b61037f8a61010001516101746107fa565b61038f8a8563ffffffff610aa116565b9063ffffffff610aa116565b90506103ae60008263ffffffff61080e16565b905060006103c06001620186a06107db565b905060008213156103d457600091506103fd565b806103e5888463ffffffff610af416565b136103fd576103fa818863ffffffff61080e16565b91505b600061041d8b6101200151610410610b00565b8d6101600151888b610b04565b6101808c0151909150610436908863ffffffff610aa116565b81131561045a576101808b0151610453908863ffffffff610aa116565b905061048e565b61046f8761038f8d61018001516103106107fa565b81121561048e5761048b8761038f8d61018001516103106107fa565b90505b610496610b00565b6101208c01528515610516576104b2898b63ffffffff610af416565b60608c01526104c7888463ffffffff610af416565b60808c015260a08b018190526040517f2200c1c87d346032bc0d16306152cc3e6e4dfa6d004ce38efa3f38f6f422d9e390610509908690869085908a90611f38565b60405180910390a1610590565b610526888463ffffffff610af416565b60608c015261053b898b63ffffffff610af416565b60808c015261054c816103106107fa565b60a08c018190526040517f2200c1c87d346032bc0d16306152cc3e6e4dfa6d004ce38efa3f38f6f422d9e39161058791879187918a90611f38565b60405180910390a15b6105998b610be2565b7f7e7268e5886b114d2e6cb74c6493de4027210117c3ad05fdf159a6fc21ccfc3c338b856000038e606001518f608001516040516105db959493929190611ee7565b60405180910390a15050505050505050505050505050565b6105fb6106c5565b73ffffffffffffffffffffffffffffffffffffffff8116610648576040517f08c379a00000000000000000000000000000000000000000000000000000000081526004016101209061217a565b600080547fffffffffffffffffffffffff00000000000000000000000000000000000000001673ffffffffffffffffffffffffffffffffffffffff83161790556040517f8be0079c531659141344cd1fd0a4f28419497f9722a3daafe3b4186f6b6457e0906106ba9033908490611ec0565b60405180910390a150565b60005473ffffffffffffffffffffffffffffffffffffffff163314610716576040517f08c379a000000000000000000000000000000000000000000000000000000000815260040161012090611fad565b565b6000610734826f80000000000000000000000000000000610ce4565b92915050565b600080831215610776576040517f08c379a000000000000000000000000000000000000000000000000000000000815260040161012090612256565b60008212156107b1576040517f08c379a000000000000000000000000000000000000000000000000000000000815260040161012090612052565b6107d46107ce846f80000000000000000000000000000000610ce4565b83610d5a565b9392505050565b60006107d46107ce846f80000000000000000000000000000000610ce4565b6f8000000000000000000000000000000090565b60007f800000000000000000000000000000000000000000000000000000000000000082141561086a576040517f08c379a00000000000000000000000000000000000000000000000000000000081526004016101209061221f565b6107d48383600003610e29565b61087f611d7d565b50604080516101a08101825260015460ff81161515825273ffffffffffffffffffffffffffffffffffffffff610100918290048116602084015260025416928201929092526003546060820152600454608082015260055460a082015260065460c082015260075460e082015260085491810191909152600954610120820152600b54610140820152600c54610160820152600d5461018082015290565b600080821215610959576040517f08c379a0000000000000000000000000000000000000000000000000000000008152600401610120906120e6565b610734826f80000000000000000000000000000000610ce4565b600061098d6107ce846a8000000000000000000000610ce4565b65010000000000029392505050565b6000806109af8787878660e00151610e9f565b9150600082816109c58a8863ffffffff610af416565b905060005b6014811015610a915760006109df8585610f98565b905060006109fb6109f6838d63ffffffff61097316565b610fc0565b90506000610a32610a128c8563ffffffff610aa116565b610a268561038f898763ffffffff610aa116565b9063ffffffff610af416565b90507f4add19bbbe358caf4af4a31b1299356fc4dccf8b4cf3c87e401b0fa60062f31e828483604051610a6793929190611f22565b60405180910390a18c811315610a7f57829550610a83565b8296505b5050508060010190506109ca565b5091925050509550959350505050565b60006f800000000000000000000000000000008215610ad3575065010000000000909105906a80000000000000000000005b6000610adf8585610ce4565b9050818181610aea57fe5b0595945050505050565b60006107d48383610e29565b4390565b600080610b1287870361091d565b90506000610b37610b32610b258861106f565b849063ffffffff610aa116565b611759565b90506000610b47826101746107fa565b90506000610b5b878363ffffffff610aa116565b90506000610b6f878563ffffffff610aa116565b90506000610b9b610b86858b63ffffffff61097316565b610b96878b63ffffffff61097316565b610af4565b90506000610bab826103106107fa565b90506000610bd0610bbc6002610718565b61031084610a26898963ffffffff610af416565b9e9d5050505050505050505050505050565b80516001805460208401517fffffffffffffffffffffffffffffffffffffffffffffffffffffffffffffff00909116921515929092177fffffffffffffffffffffff0000000000000000000000000000000000000000ff1661010073ffffffffffffffffffffffffffffffffffffffff9384168102919091179091556040830151600280547fffffffffffffffffffffffff00000000000000000000000000000000000000001691909316179091556060820151600355608082015160045560a082015160055560c082015160065560e0820151600755810151600855610120810151600955610140810151600b55610160810151600c556101800151600d55565b6000821580610cf1575081155b15610cfe57506000610734565b5081810281838281610d0c57fe5b05141580610d23575082828281610d1f57fe5b0514155b15610734576040517f08c379a0000000000000000000000000000000000000000000000000000000008152600401610120906121b1565b600081610d93576040517f08c379a0000000000000000000000000000000000000000000000000000000008152600401610120906122b3565b7f800000000000000000000000000000000000000000000000000000000000000083148015610de15750817fffffffffffffffffffffffffffffffffffffffffffffffffffffffffffffffff145b15610e18576040517f08c379a0000000000000000000000000000000000000000000000000000000008152600401610120906122ea565b818381610e2157fe5b059392505050565b818101600083128015610e3c5750600082125b8015610e4757508281135b80610e685750600083138015610e5d5750600082135b8015610e6857508281125b15610734576040517f08c379a0000000000000000000000000000000000000000000000000000000008152600401610120906121e8565b600080610eb2848763ffffffff610aa116565b90506000610ec6868363ffffffff61097316565b90506000610eda838863ffffffff61097316565b90506000610eea866101746107fa565b90506000610ef66107fa565b841215610f1457610f0d610b328361038f8761106f565b9050610f32565b610f2f610f27610b328461038f8761106f565b6103106107fa565b90505b610f42818963ffffffff610aa116565b95507f3cf9bd989028bfc957ca46fd34c8ed26f90d849442378ee442fcd56cf5cac44f8a8a8a8a610f728b611d67565b604051610f83959493929190611f53565b60405180910390a15050505050949350505050565b60006107d4610fb0610fa86107fa565b610a266107fa565b610310858563ffffffff610af416565b600080610fd3838063ffffffff610aa116565b90506000610fe7848363ffffffff610aa116565b90506000610ffb828063ffffffff610aa116565b9050600061100f828063ffffffff610aa116565b90506000611023828063ffffffff610aa116565b90506000611037828063ffffffff610aa116565b9050600061104b828063ffffffff610aa116565b9050600061105f828863ffffffff610aa116565b985050505050505050505b919050565b60006f800000000000000000000000000000008213156110bb576040517f08c379a0000000000000000000000000000000000000000000000000000000008152600401610120906120af565b600082136110f5576040517f08c379a000000000000000000000000000000000000000000000000000000000815260040161012090611f76565b6f800000000000000000000000000000008214156111155750600061106a565b640733048c5a821361114857507fffffffffffffffffffffffffffffffe01000000000000000000000000000000061106a565b60008060006a01c8464f7616476000000085136111a7577ffffffffffffffffffffffffffffffff000000000000000000000000000000000909301926a01c8464f761647600000006f8000000000000000000000000000000086020594505b6cf1aaddd7742e900000000000008513611205577ffffffffffffffffffffffffffffffff800000000000000000000000000000000909301926cf1aaddd7742e900000000000006f8000000000000000000000000000000086020594505b6e0afe10820813d780000000000000008513611267577ffffffffffffffffffffffffffffffffc00000000000000000000000000000000909301926e0afe10820813d780000000000000006f8000000000000000000000000000000086020594505b6f02582ab704279ec0000000000000000085136112cb577ffffffffffffffffffffffffffffffffe00000000000000000000000000000000909301926f02582ab704279ec000000000000000006f8000000000000000000000000000000086020594505b6f1152aaa3bf81cc000000000000000000851361132f577fffffffffffffffffffffffffffffffff00000000000000000000000000000000909301926f1152aaa3bf81cc0000000000000000006f8000000000000000000000000000000086020594505b6f2f16ac6c59de700000000000000000008513611393577fffffffffffffffffffffffffffffffff80000000000000000000000000000000909301926f2f16ac6c59de700000000000000000006f8000000000000000000000000000000086020594505b6f4da2cbf1be582800000000000000000085136113f7577fffffffffffffffffffffffffffffffffc0000000000000000000000000000000909301926f4da2cbf1be58280000000000000000006f8000000000000000000000000000000086020594505b6f63afbe7ab2082c000000000000000000851361145b577fffffffffffffffffffffffffffffffffe0000000000000000000000000000000909301926f63afbe7ab2082c0000000000000000006f8000000000000000000000000000000086020594505b6f70f5a893b608861e1f58934f97aea57d85136114bf577ffffffffffffffffffffffffffffffffff0000000000000000000000000000000909301926f70f5a893b608861e1f58934f97aea57d6f8000000000000000000000000000000086020594505b7fffffffffffffffffffffffffffffffff80000000000000000000000000000000850192508291506f80000000000000000000000000000000828002059050700100000000000000000000000000000000838103830205840193506f800000000000000000000000000000008183028161153557fe5b059150700200000000000000000000000000000000836faaaaaaaaaaaaaaaaaaaaaaaaaaaaaaaa0383028161156657fe5b05840193506f800000000000000000000000000000008183028161158657fe5b059150700300000000000000000000000000000000836f99999999999999999999999999999999038302816115b757fe5b05840193506f80000000000000000000000000000000818302816115d757fe5b059150700400000000000000000000000000000000836f924924924924924924924924924924920383028161160857fe5b05840193506f800000000000000000000000000000008183028161162857fe5b059150700500000000000000000000000000000000836f8e38e38e38e38e38e38e38e38e38e38e0383028161165957fe5b05840193506f800000000000000000000000000000008183028161167957fe5b059150700600000000000000000000000000000000836f8ba2e8ba2e8ba2e8ba2e8ba2e8ba2e8b038302816116aa57fe5b05840193506f80000000000000000000000000000000818302816116ca57fe5b059150700700000000000000000000000000000000836f89d89d89d89d89d89d89d89d89d89d89038302816116fb57fe5b05840193506f800000000000000000000000000000008183028161171b57fe5b059150700800000000000000000000000000000000836f888888888888888888888888888888880383028161174c57fe5b0584019350505050919050565b60007fffffffffffffffffffffffffffffffe01000000000000000000000000000000082121561178b5750600061106a565b816117a757506f8000000000000000000000000000000061106a565b60008213156117e2576040517f08c379a000000000000000000000000000000000000000000000000000000000815260040161012090612143565b6f800000000000000000000000000000006f1000000000000000000000000000000083078080028290056710e1b3be415a0000810293909301929091818302059050806705a0913f6b1e000002830192506f800000000000000000000000000000008282028161184e57fe5b05905080670168244fdac7800002830192506f800000000000000000000000000000008282028161187b57fe5b05905080664807432bc1800002830192506f80000000000000000000000000000000828202816118a757fe5b05905080660c0135dca0400002830192506f80000000000000000000000000000000828202816118d357fe5b059050806601b707b1cdc00002830192506f80000000000000000000000000000000828202816118ff57fe5b059050806536e0f639b80002830192506f800000000000000000000000000000008282028161192a57fe5b05905080650618fee9f80002830192506f800000000000000000000000000000008282028161195557fe5b05905080649c197dcc0002830192506f800000000000000000000000000000008282028161197f57fe5b05905080640e30dce40002830192506f80000000000000000000000000000000828202816119a957fe5b0590508064012ebd130002830192506f80000000000000000000000000000000828202816119d357fe5b059050806317499f0002830192506f80000000000000000000000000000000828202816119fc57fe5b059050806301a9d48002830192506f8000000000000000000000000000000082820281611a2557fe5b05905080621c638002830192506f8000000000000000000000000000000082820281611a4d57fe5b059050806201c63802830192506f8000000000000000000000000000000082820281611a7557fe5b05905080611ab802830192506f8000000000000000000000000000000082820281611a9c57fe5b0590508061017c02830192506f8000000000000000000000000000000082820281611ac357fe5b05905080601402830192506f8000000000000000000000000000000082820281611ae957fe5b600095909503946721c3677c82b400009190059384010582016f8000000000000000000000000000000001929050701000000000000000000000000000000000841615611b58577243cbaf42a000812488fc5c220ad7b97bf6e99e6cf1aaddd7742e56d32fb9f9974484020592505b700800000000000000000000000000000000841615611b9a577105d27a9f51c31b7c2f8038212a05747799916e0afe10820813d65dfe6a33c07f738f84020592505b700400000000000000000000000000000000841615611bdc57701b4c902e273a58678d6d3bfdb93db96d026f02582ab704279e8efd15e0265855c47a84020592505b700200000000000000000000000000000000841615611c1e577003b1cc971a9bb5b9867477440d6d1577506f1152aaa3bf81cb9fdb76eae12d02957184020592505b700100000000000000000000000000000000841615611c605770015bf0a8b1457695355fb8ac404e7a79e36f2f16ac6c59de6f8d5d6f63c1482a7c8684020592505b6f80000000000000000000000000000000841615611ca0576fd3094c70f034de4b96ff7d5b6f99fcd86f4da2cbf1be5827f9eb3ad1aa9866ebb384020592505b6f40000000000000000000000000000000841615611ce0576fa45af1e1f40c333b3de1db4dd55f29a76f63afbe7ab2082ba1a0ae5e4eb1b479dc84020592505b6f20000000000000000000000000000000841615611d20576f910b022db7ae67ce76b441c27035c6a16f70f5a893b608861e1f58934f97aea57d84020592505b6f10000000000000000000000000000000841615611d60576f88415abbe9a76bead8d00cf112e4d4a86f783eafef1c0a8f3978c7f81824d62ebf84020592505b5050919050565b6f80000000000000000000000000000000900590565b604051806101a00160405280600015158152602001600073ffffffffffffffffffffffffffffffffffffffff168152602001600073ffffffffffffffffffffffffffffffffffffffff168152602001600081526020016000815260200160008152602001600081526020016000815260200160008152602001600081526020016000815260200160008152602001600081525090565b600060208284031215611e24578081fd5b813573ffffffffffffffffffffffffffffffffffffffff811681146107d4578182fd5b600080600060608486031215611e5b578182fd5b8335611e6681612321565b92506020840135611e7681612321565b929592945050506040919091013590565b600060208284031215611e98578081fd5b5035919050565b73ffffffffffffffffffffffffffffffffffffffff91909116815260200190565b73ffffffffffffffffffffffffffffffffffffffff92831681529116602082015260400190565b73ffffffffffffffffffffffffffffffffffffffff959095168552602085019390935260408401919091526060830152608082015260a00190565b9283526020830191909152604082015260600190565b93845260208401929092526040830152606082015260800190565b948552602085019390935260408401919091526060830152608082015260a00190565b60208082526013908201527f6c6e3a2076616c756520746f6f20736d616c6c00000000000000000000000000604082015260600190565b6020808252600e908201527f4f6e6c794f776e65724572726f72000000000000000000000000000000000000604082015260600190565b60208082526013908201527f416c726561647920496e697469616c697a656400000000000000000000000000604082015260600190565b60208082526017908201527f496e76616c696420746f6b656e20616464726573736573000000000000000000604082015260600190565b60208082526038908201527f746f46697865642875696e742c75696e74293a2064656e6f6d696e61746f722060408201527f63616e6e6f74206265206c657373207468616e207a65726f0000000000000000606082015260800190565b60208082526013908201527f6c6e3a2076616c756520746f6f206c6172676500000000000000000000000000604082015260600190565b60208082526027908201527f746f46697865643a2076616c75652063616e6e6f74206265206c65737320746860408201527f616e207a65726f00000000000000000000000000000000000000000000000000606082015260800190565b60208082526014908201527f6578703a2076616c756520746f6f20736d616c6c000000000000000000000000604082015260600190565b60208082526018908201527f5472616e736665724f776e6572546f5a65726f4572726f720000000000000000604082015260600190565b6020808252600e908201527f5f6d756c3a206f766572666c6f77000000000000000000000000000000000000604082015260600190565b6020808252600e908201527f5f6164643a206f766572666c6f77000000000000000000000000000000000000604082015260600190565b60208082526014908201527f7375623a2076616c756520746f6f20736d616c6c000000000000000000000000604082015260600190565b60208082526036908201527f746f46697865642875696e742c75696e74293a206e756d657261746f7220636160408201527f6e6e6f74206265206c657373207468616e207a65726f00000000000000000000606082015260800190565b60208082526014908201527f5f6469763a20646976696465206279207a65726f000000000000000000000000604082015260600190565b6020808252600e908201527f5f6469763a206f766572666c6f77000000000000000000000000000000000000604082015260600190565b73ffffffffffffffffffffffffffffffffffffffff811681146100d857600080fdfea365627a7a72315820011424b2fdb8018647327d15d29fda58529bbea3ef4080435a57381c3ee5f2a96c6578706572696d656e74616cf564736f6c634300050d0040",
				"opcodes": "PUSH1 0x80 PUSH1 0x40 MSTORE CALLVALUE DUP1 ISZERO PUSH2 0x10 JUMPI PUSH1 0x0 DUP1 REVERT JUMPDEST POP PUSH1 0x0 DUP1 SLOAD PUSH1 0x1 PUSH1 0x1 PUSH1 0xA0 SHL SUB NOT AND CALLER OR SWAP1 SSTORE PUSH2 0x2386 DUP1 PUSH2 0x32 PUSH1 0x0 CODECOPY PUSH1 0x0 RETURN INVALID PUSH1 0x80 PUSH1 0x40 MSTORE CALLVALUE DUP1 ISZERO PUSH2 0x10 JUMPI PUSH1 0x0 DUP1 REVERT JUMPDEST POP PUSH1 0x4 CALLDATASIZE LT PUSH2 0x72 JUMPI PUSH1 0x0 CALLDATALOAD PUSH1 0xE0 SHR DUP1 PUSH4 0x9C8F9F23 GT PUSH2 0x50 JUMPI DUP1 PUSH4 0x9C8F9F23 EQ PUSH2 0x77 JUMPI DUP1 PUSH4 0xDF791E50 EQ PUSH2 0xB2 JUMPI DUP1 PUSH4 0xF2FDE38B EQ PUSH2 0xC5 JUMPI PUSH2 0x72 JUMP JUMPDEST DUP1 PUSH4 0x51C6590A EQ PUSH2 0x77 JUMPI DUP1 PUSH4 0x6D83C92C EQ PUSH2 0x8C JUMPI DUP1 PUSH4 0x8DA5CB5B EQ PUSH2 0x94 JUMPI JUMPDEST PUSH1 0x0 DUP1 REVERT JUMPDEST PUSH2 0x8A PUSH2 0x85 CALLDATASIZE PUSH1 0x4 PUSH2 0x1E87 JUMP JUMPDEST PUSH2 0xD8 JUMP JUMPDEST STOP JUMPDEST PUSH2 0x8A PUSH2 0xDB JUMP JUMPDEST PUSH2 0x9C PUSH2 0x1C0 JUMP JUMPDEST PUSH1 0x40 MLOAD PUSH2 0xA9 SWAP2 SWAP1 PUSH2 0x1E9F JUMP JUMPDEST PUSH1 0x40 MLOAD DUP1 SWAP2 SUB SWAP1 RETURN JUMPDEST PUSH2 0x8A PUSH2 0xC0 CALLDATASIZE PUSH1 0x4 PUSH2 0x1E47 JUMP JUMPDEST PUSH2 0x1DC JUMP JUMPDEST PUSH2 0x8A PUSH2 0xD3 CALLDATASIZE PUSH1 0x4 PUSH2 0x1E13 JUMP JUMPDEST PUSH2 0x5F3 JUMP JUMPDEST POP JUMP JUMPDEST PUSH2 0xE3 PUSH2 0x6C5 JUMP JUMPDEST PUSH1 0x1 SLOAD PUSH1 0xFF AND ISZERO PUSH2 0x129 JUMPI PUSH1 0x40 MLOAD PUSH32 0x8C379A000000000000000000000000000000000000000000000000000000000 DUP2 MSTORE PUSH1 0x4 ADD PUSH2 0x120 SWAP1 PUSH2 0x1FE4 JUMP JUMPDEST PUSH1 0x40 MLOAD DUP1 SWAP2 SUB SWAP1 REVERT JUMPDEST PUSH2 0x133 PUSH1 0x1 PUSH2 0x718 JUMP JUMPDEST PUSH1 0x5 SSTORE PUSH1 0x63 PUSH1 0x6 DUP2 SWAP1 SSTORE PUSH2 0x148 SWAP1 PUSH1 0x64 PUSH2 0x73A JUMP JUMPDEST PUSH1 0x7 SSTORE PUSH2 0x158 PUSH1 0x5 PUSH2 0x2710 PUSH2 0x73A JUMP JUMPDEST PUSH1 0x8 SSTORE PUSH2 0x180 PUSH2 0x16C PUSH1 0x1 PUSH3 0xF4240 PUSH2 0x7DB JUMP JUMPDEST PUSH2 0x174 PUSH2 0x7FA JUMP JUMPDEST SWAP1 PUSH4 0xFFFFFFFF PUSH2 0x80E AND JUMP JUMPDEST PUSH1 0xC SSTORE PUSH2 0x191 PUSH2 0x2715 PUSH2 0x3E8 PUSH2 0x7DB JUMP JUMPDEST PUSH1 0xD SSTORE PUSH1 0x1 DUP1 SLOAD PUSH32 0xFFFFFFFFFFFFFFFFFFFFFFFFFFFFFFFFFFFFFFFFFFFFFFFFFFFFFFFFFFFFFF00 AND DUP2 OR SWAP1 SSTORE JUMP JUMPDEST PUSH1 0x0 SLOAD PUSH20 0xFFFFFFFFFFFFFFFFFFFFFFFFFFFFFFFFFFFFFFFF AND DUP2 JUMP JUMPDEST PUSH2 0x1E4 PUSH2 0x1D7D JUMP JUMPDEST PUSH2 0x1EC PUSH2 0x877 JUMP JUMPDEST SWAP1 POP PUSH1 0x0 PUSH2 0x1F9 DUP4 PUSH2 0x91D JUMP JUMPDEST PUSH1 0x20 DUP4 ADD MLOAD SWAP1 SWAP2 POP PUSH1 0x0 SWAP1 DUP2 SWAP1 DUP2 SWAP1 DUP2 SWAP1 PUSH20 0xFFFFFFFFFFFFFFFFFFFFFFFFFFFFFFFFFFFFFFFF DUP11 DUP2 AND SWAP2 AND EQ DUP1 ISZERO PUSH2 0x260 JUMPI POP DUP6 PUSH1 0x40 ADD MLOAD PUSH20 0xFFFFFFFFFFFFFFFFFFFFFFFFFFFFFFFFFFFFFFFF AND DUP9 PUSH20 0xFFFFFFFFFFFFFFFFFFFFFFFFFFFFFFFFFFFFFFFF AND EQ JUMPDEST ISZERO PUSH2 0x27F JUMPI POP POP POP POP PUSH1 0x60 DUP3 ADD MLOAD PUSH1 0x80 DUP4 ADD MLOAD PUSH1 0xA0 DUP5 ADD MLOAD PUSH1 0x1 PUSH2 0x355 JUMP JUMPDEST DUP6 PUSH1 0x40 ADD MLOAD PUSH20 0xFFFFFFFFFFFFFFFFFFFFFFFFFFFFFFFFFFFFFFFF AND DUP10 PUSH20 0xFFFFFFFFFFFFFFFFFFFFFFFFFFFFFFFFFFFFFFFF AND EQ DUP1 ISZERO PUSH2 0x2ED JUMPI POP DUP6 PUSH1 0x20 ADD MLOAD PUSH20 0xFFFFFFFFFFFFFFFFFFFFFFFFFFFFFFFFFFFFFFFF AND DUP9 PUSH20 0xFFFFFFFFFFFFFFFFFFFFFFFFFFFFFFFFFFFFFFFF AND EQ JUMPDEST ISZERO PUSH2 0x323 JUMPI DUP6 PUSH1 0x80 ADD MLOAD SWAP4 POP DUP6 PUSH1 0x60 ADD MLOAD SWAP3 POP PUSH2 0x31C DUP7 PUSH1 0xA0 ADD MLOAD PUSH2 0x310 PUSH2 0x7FA JUMP JUMPDEST SWAP1 PUSH4 0xFFFFFFFF PUSH2 0x973 AND JUMP JUMPDEST SWAP2 POP PUSH2 0x355 JUMP JUMPDEST PUSH1 0x40 MLOAD PUSH32 0x8C379A000000000000000000000000000000000000000000000000000000000 DUP2 MSTORE PUSH1 0x4 ADD PUSH2 0x120 SWAP1 PUSH2 0x201B JUMP JUMPDEST PUSH1 0x0 DUP1 PUSH2 0x365 DUP7 DUP7 DUP7 DUP11 DUP13 PUSH2 0x99C JUMP JUMPDEST SWAP2 POP SWAP2 POP PUSH1 0x0 PUSH2 0x39B PUSH2 0x37F DUP11 PUSH2 0x100 ADD MLOAD PUSH2 0x174 PUSH2 0x7FA JUMP JUMPDEST PUSH2 0x38F DUP11 DUP6 PUSH4 0xFFFFFFFF PUSH2 0xAA1 AND JUMP JUMPDEST SWAP1 PUSH4 0xFFFFFFFF PUSH2 0xAA1 AND JUMP JUMPDEST SWAP1 POP PUSH2 0x3AE PUSH1 0x0 DUP3 PUSH4 0xFFFFFFFF PUSH2 0x80E AND JUMP JUMPDEST SWAP1 POP PUSH1 0x0 PUSH2 0x3C0 PUSH1 0x1 PUSH3 0x186A0 PUSH2 0x7DB JUMP JUMPDEST SWAP1 POP PUSH1 0x0 DUP3 SGT ISZERO PUSH2 0x3D4 JUMPI PUSH1 0x0 SWAP2 POP PUSH2 0x3FD JUMP JUMPDEST DUP1 PUSH2 0x3E5 DUP9 DUP5 PUSH4 0xFFFFFFFF PUSH2 0xAF4 AND JUMP JUMPDEST SGT PUSH2 0x3FD JUMPI PUSH2 0x3FA DUP2 DUP9 PUSH4 0xFFFFFFFF PUSH2 0x80E AND JUMP JUMPDEST SWAP2 POP JUMPDEST PUSH1 0x0 PUSH2 0x41D DUP12 PUSH2 0x120 ADD MLOAD PUSH2 0x410 PUSH2 0xB00 JUMP JUMPDEST DUP14 PUSH2 0x160 ADD MLOAD DUP9 DUP12 PUSH2 0xB04 JUMP JUMPDEST PUSH2 0x180 DUP13 ADD MLOAD SWAP1 SWAP2 POP PUSH2 0x436 SWAP1 DUP9 PUSH4 0xFFFFFFFF PUSH2 0xAA1 AND JUMP JUMPDEST DUP2 SGT ISZERO PUSH2 0x45A JUMPI PUSH2 0x180 DUP12 ADD MLOAD PUSH2 0x453 SWAP1 DUP9 PUSH4 0xFFFFFFFF PUSH2 0xAA1 AND JUMP JUMPDEST SWAP1 POP PUSH2 0x48E JUMP JUMPDEST PUSH2 0x46F DUP8 PUSH2 0x38F DUP14 PUSH2 0x180 ADD MLOAD PUSH2 0x310 PUSH2 0x7FA JUMP JUMPDEST DUP2 SLT ISZERO PUSH2 0x48E JUMPI PUSH2 0x48B DUP8 PUSH2 0x38F DUP14 PUSH2 0x180 ADD MLOAD PUSH2 0x310 PUSH2 0x7FA JUMP JUMPDEST SWAP1 POP JUMPDEST PUSH2 0x496 PUSH2 0xB00 JUMP JUMPDEST PUSH2 0x120 DUP13 ADD MSTORE DUP6 ISZERO PUSH2 0x516 JUMPI PUSH2 0x4B2 DUP10 DUP12 PUSH4 0xFFFFFFFF PUSH2 0xAF4 AND JUMP JUMPDEST PUSH1 0x60 DUP13 ADD MSTORE PUSH2 0x4C7 DUP9 DUP5 PUSH4 0xFFFFFFFF PUSH2 0xAF4 AND JUMP JUMPDEST PUSH1 0x80 DUP13 ADD MSTORE PUSH1 0xA0 DUP12 ADD DUP2 SWAP1 MSTORE PUSH1 0x40 MLOAD PUSH32 0x2200C1C87D346032BC0D16306152CC3E6E4DFA6D004CE38EFA3F38F6F422D9E3 SWAP1 PUSH2 0x509 SWAP1 DUP7 SWAP1 DUP7 SWAP1 DUP6 SWAP1 DUP11 SWAP1 PUSH2 0x1F38 JUMP JUMPDEST PUSH1 0x40 MLOAD DUP1 SWAP2 SUB SWAP1 LOG1 PUSH2 0x590 JUMP JUMPDEST PUSH2 0x526 DUP9 DUP5 PUSH4 0xFFFFFFFF PUSH2 0xAF4 AND JUMP JUMPDEST PUSH1 0x60 DUP13 ADD MSTORE PUSH2 0x53B DUP10 DUP12 PUSH4 0xFFFFFFFF PUSH2 0xAF4 AND JUMP JUMPDEST PUSH1 0x80 DUP13 ADD MSTORE PUSH2 0x54C DUP2 PUSH2 0x310 PUSH2 0x7FA JUMP JUMPDEST PUSH1 0xA0 DUP13 ADD DUP2 SWAP1 MSTORE PUSH1 0x40 MLOAD PUSH32 0x2200C1C87D346032BC0D16306152CC3E6E4DFA6D004CE38EFA3F38F6F422D9E3 SWAP2 PUSH2 0x587 SWAP2 DUP8 SWAP2 DUP8 SWAP2 DUP11 SWAP1 PUSH2 0x1F38 JUMP JUMPDEST PUSH1 0x40 MLOAD DUP1 SWAP2 SUB SWAP1 LOG1 JUMPDEST PUSH2 0x599 DUP12 PUSH2 0xBE2 JUMP JUMPDEST PUSH32 0x7E7268E5886B114D2E6CB74C6493DE4027210117C3AD05FDF159A6FC21CCFC3C CALLER DUP12 DUP6 PUSH1 0x0 SUB DUP15 PUSH1 0x60 ADD MLOAD DUP16 PUSH1 0x80 ADD MLOAD PUSH1 0x40 MLOAD PUSH2 0x5DB SWAP6 SWAP5 SWAP4 SWAP3 SWAP2 SWAP1 PUSH2 0x1EE7 JUMP JUMPDEST PUSH1 0x40 MLOAD DUP1 SWAP2 SUB SWAP1 LOG1 POP POP POP POP POP POP POP POP POP POP POP POP POP POP JUMP JUMPDEST PUSH2 0x5FB PUSH2 0x6C5 JUMP JUMPDEST PUSH20 0xFFFFFFFFFFFFFFFFFFFFFFFFFFFFFFFFFFFFFFFF DUP2 AND PUSH2 0x648 JUMPI PUSH1 0x40 MLOAD PUSH32 0x8C379A000000000000000000000000000000000000000000000000000000000 DUP2 MSTORE PUSH1 0x4 ADD PUSH2 0x120 SWAP1 PUSH2 0x217A JUMP JUMPDEST PUSH1 0x0 DUP1 SLOAD PUSH32 0xFFFFFFFFFFFFFFFFFFFFFFFF0000000000000000000000000000000000000000 AND PUSH20 0xFFFFFFFFFFFFFFFFFFFFFFFFFFFFFFFFFFFFFFFF DUP4 AND OR SWAP1 SSTORE PUSH1 0x40 MLOAD PUSH32 0x8BE0079C531659141344CD1FD0A4F28419497F9722A3DAAFE3B4186F6B6457E0 SWAP1 PUSH2 0x6BA SWAP1 CALLER SWAP1 DUP5 SWAP1 PUSH2 0x1EC0 JUMP JUMPDEST PUSH1 0x40 MLOAD DUP1 SWAP2 SUB SWAP1 LOG1 POP JUMP JUMPDEST PUSH1 0x0 SLOAD PUSH20 0xFFFFFFFFFFFFFFFFFFFFFFFFFFFFFFFFFFFFFFFF AND CALLER EQ PUSH2 0x716 JUMPI PUSH1 0x40 MLOAD PUSH32 0x8C379A000000000000000000000000000000000000000000000000000000000 DUP2 MSTORE PUSH1 0x4 ADD PUSH2 0x120 SWAP1 PUSH2 0x1FAD JUMP JUMPDEST JUMP JUMPDEST PUSH1 0x0 PUSH2 0x734 DUP3 PUSH16 0x80000000000000000000000000000000 PUSH2 0xCE4 JUMP JUMPDEST SWAP3 SWAP2 POP POP JUMP JUMPDEST PUSH1 0x0 DUP1 DUP4 SLT ISZERO PUSH2 0x776 JUMPI PUSH1 0x40 MLOAD PUSH32 0x8C379A000000000000000000000000000000000000000000000000000000000 DUP2 MSTORE PUSH1 0x4 ADD PUSH2 0x120 SWAP1 PUSH2 0x2256 JUMP JUMPDEST PUSH1 0x0 DUP3 SLT ISZERO PUSH2 0x7B1 JUMPI PUSH1 0x40 MLOAD PUSH32 0x8C379A000000000000000000000000000000000000000000000000000000000 DUP2 MSTORE PUSH1 0x4 ADD PUSH2 0x120 SWAP1 PUSH2 0x2052 JUMP JUMPDEST PUSH2 0x7D4 PUSH2 0x7CE DUP5 PUSH16 0x80000000000000000000000000000000 PUSH2 0xCE4 JUMP JUMPDEST DUP4 PUSH2 0xD5A JUMP JUMPDEST SWAP4 SWAP3 POP POP POP JUMP JUMPDEST PUSH1 0x0 PUSH2 0x7D4 PUSH2 0x7CE DUP5 PUSH16 0x80000000000000000000000000000000 PUSH2 0xCE4 JUMP JUMPDEST PUSH16 0x80000000000000000000000000000000 SWAP1 JUMP JUMPDEST PUSH1 0x0 PUSH32 0x8000000000000000000000000000000000000000000000000000000000000000 DUP3 EQ ISZERO PUSH2 0x86A JUMPI PUSH1 0x40 MLOAD PUSH32 0x8C379A000000000000000000000000000000000000000000000000000000000 DUP2 MSTORE PUSH1 0x4 ADD PUSH2 0x120 SWAP1 PUSH2 0x221F JUMP JUMPDEST PUSH2 0x7D4 DUP4 DUP4 PUSH1 0x0 SUB PUSH2 0xE29 JUMP JUMPDEST PUSH2 0x87F PUSH2 0x1D7D JUMP JUMPDEST POP PUSH1 0x40 DUP1 MLOAD PUSH2 0x1A0 DUP2 ADD DUP3 MSTORE PUSH1 0x1 SLOAD PUSH1 0xFF DUP2 AND ISZERO ISZERO DUP3 MSTORE PUSH20 0xFFFFFFFFFFFFFFFFFFFFFFFFFFFFFFFFFFFFFFFF PUSH2 0x100 SWAP2 DUP3 SWAP1 DIV DUP2 AND PUSH1 0x20 DUP5 ADD MSTORE PUSH1 0x2 SLOAD AND SWAP3 DUP3 ADD SWAP3 SWAP1 SWAP3 MSTORE PUSH1 0x3 SLOAD PUSH1 0x60 DUP3 ADD MSTORE PUSH1 0x4 SLOAD PUSH1 0x80 DUP3 ADD MSTORE PUSH1 0x5 SLOAD PUSH1 0xA0 DUP3 ADD MSTORE PUSH1 0x6 SLOAD PUSH1 0xC0 DUP3 ADD MSTORE PUSH1 0x7 SLOAD PUSH1 0xE0 DUP3 ADD MSTORE PUSH1 0x8 SLOAD SWAP2 DUP2 ADD SWAP2 SWAP1 SWAP2 MSTORE PUSH1 0x9 SLOAD PUSH2 0x120 DUP3 ADD MSTORE PUSH1 0xB SLOAD PUSH2 0x140 DUP3 ADD MSTORE PUSH1 0xC SLOAD PUSH2 0x160 DUP3 ADD MSTORE PUSH1 0xD SLOAD PUSH2 0x180 DUP3 ADD MSTORE SWAP1 JUMP JUMPDEST PUSH1 0x0 DUP1 DUP3 SLT ISZERO PUSH2 0x959 JUMPI PUSH1 0x40 MLOAD PUSH32 0x8C379A000000000000000000000000000000000000000000000000000000000 DUP2 MSTORE PUSH1 0x4 ADD PUSH2 0x120 SWAP1 PUSH2 0x20E6 JUMP JUMPDEST PUSH2 0x734 DUP3 PUSH16 0x80000000000000000000000000000000 PUSH2 0xCE4 JUMP JUMPDEST PUSH1 0x0 PUSH2 0x98D PUSH2 0x7CE DUP5 PUSH11 0x8000000000000000000000 PUSH2 0xCE4 JUMP JUMPDEST PUSH6 0x10000000000 MUL SWAP4 SWAP3 POP POP POP JUMP JUMPDEST PUSH1 0x0 DUP1 PUSH2 0x9AF DUP8 DUP8 DUP8 DUP7 PUSH1 0xE0 ADD MLOAD PUSH2 0xE9F JUMP JUMPDEST SWAP2 POP PUSH1 0x0 DUP3 DUP2 PUSH2 0x9C5 DUP11 DUP9 PUSH4 0xFFFFFFFF PUSH2 0xAF4 AND JUMP JUMPDEST SWAP1 POP PUSH1 0x0 JUMPDEST PUSH1 0x14 DUP2 LT ISZERO PUSH2 0xA91 JUMPI PUSH1 0x0 PUSH2 0x9DF DUP6 DUP6 PUSH2 0xF98 JUMP JUMPDEST SWAP1 POP PUSH1 0x0 PUSH2 0x9FB PUSH2 0x9F6 DUP4 DUP14 PUSH4 0xFFFFFFFF PUSH2 0x973 AND JUMP JUMPDEST PUSH2 0xFC0 JUMP JUMPDEST SWAP1 POP PUSH1 0x0 PUSH2 0xA32 PUSH2 0xA12 DUP13 DUP6 PUSH4 0xFFFFFFFF PUSH2 0xAA1 AND JUMP JUMPDEST PUSH2 0xA26 DUP6 PUSH2 0x38F DUP10 DUP8 PUSH4 0xFFFFFFFF PUSH2 0xAA1 AND JUMP JUMPDEST SWAP1 PUSH4 0xFFFFFFFF PUSH2 0xAF4 AND JUMP JUMPDEST SWAP1 POP PUSH32 0x4ADD19BBBE358CAF4AF4A31B1299356FC4DCCF8B4CF3C87E401B0FA60062F31E DUP3 DUP5 DUP4 PUSH1 0x40 MLOAD PUSH2 0xA67 SWAP4 SWAP3 SWAP2 SWAP1 PUSH2 0x1F22 JUMP JUMPDEST PUSH1 0x40 MLOAD DUP1 SWAP2 SUB SWAP1 LOG1 DUP13 DUP2 SGT ISZERO PUSH2 0xA7F JUMPI DUP3 SWAP6 POP PUSH2 0xA83 JUMP JUMPDEST DUP3 SWAP7 POP JUMPDEST POP POP POP DUP1 PUSH1 0x1 ADD SWAP1 POP PUSH2 0x9CA JUMP JUMPDEST POP SWAP2 SWAP3 POP POP POP SWAP6 POP SWAP6 SWAP4 POP POP POP POP JUMP JUMPDEST PUSH1 0x0 PUSH16 0x80000000000000000000000000000000 DUP3 ISZERO PUSH2 0xAD3 JUMPI POP PUSH6 0x10000000000 SWAP1 SWAP2 SDIV SWAP1 PUSH11 0x8000000000000000000000 JUMPDEST PUSH1 0x0 PUSH2 0xADF DUP6 DUP6 PUSH2 0xCE4 JUMP JUMPDEST SWAP1 POP DUP2 DUP2 DUP2 PUSH2 0xAEA JUMPI INVALID JUMPDEST SDIV SWAP6 SWAP5 POP POP POP POP POP JUMP JUMPDEST PUSH1 0x0 PUSH2 0x7D4 DUP4 DUP4 PUSH2 0xE29 JUMP JUMPDEST NUMBER SWAP1 JUMP JUMPDEST PUSH1 0x0 DUP1 PUSH2 0xB12 DUP8 DUP8 SUB PUSH2 0x91D JUMP JUMPDEST SWAP1 POP PUSH1 0x0 PUSH2 0xB37 PUSH2 0xB32 PUSH2 0xB25 DUP9 PUSH2 0x106F JUMP JUMPDEST DUP5 SWAP1 PUSH4 0xFFFFFFFF PUSH2 0xAA1 AND JUMP JUMPDEST PUSH2 0x1759 JUMP JUMPDEST SWAP1 POP PUSH1 0x0 PUSH2 0xB47 DUP3 PUSH2 0x174 PUSH2 0x7FA JUMP JUMPDEST SWAP1 POP PUSH1 0x0 PUSH2 0xB5B DUP8 DUP4 PUSH4 0xFFFFFFFF PUSH2 0xAA1 AND JUMP JUMPDEST SWAP1 POP PUSH1 0x0 PUSH2 0xB6F DUP8 DUP6 PUSH4 0xFFFFFFFF PUSH2 0xAA1 AND JUMP JUMPDEST SWAP1 POP PUSH1 0x0 PUSH2 0xB9B PUSH2 0xB86 DUP6 DUP12 PUSH4 0xFFFFFFFF PUSH2 0x973 AND JUMP JUMPDEST PUSH2 0xB96 DUP8 DUP12 PUSH4 0xFFFFFFFF PUSH2 0x973 AND JUMP JUMPDEST PUSH2 0xAF4 JUMP JUMPDEST SWAP1 POP PUSH1 0x0 PUSH2 0xBAB DUP3 PUSH2 0x310 PUSH2 0x7FA JUMP JUMPDEST SWAP1 POP PUSH1 0x0 PUSH2 0xBD0 PUSH2 0xBBC PUSH1 0x2 PUSH2 0x718 JUMP JUMPDEST PUSH2 0x310 DUP5 PUSH2 0xA26 DUP10 DUP10 PUSH4 0xFFFFFFFF PUSH2 0xAF4 AND JUMP JUMPDEST SWAP15 SWAP14 POP POP POP POP POP POP POP POP POP POP POP POP POP POP JUMP JUMPDEST DUP1 MLOAD PUSH1 0x1 DUP1 SLOAD PUSH1 0x20 DUP5 ADD MLOAD PUSH32 0xFFFFFFFFFFFFFFFFFFFFFFFFFFFFFFFFFFFFFFFFFFFFFFFFFFFFFFFFFFFFFF00 SWAP1 SWAP2 AND SWAP3 ISZERO ISZERO SWAP3 SWAP1 SWAP3 OR PUSH32 0xFFFFFFFFFFFFFFFFFFFFFF0000000000000000000000000000000000000000FF AND PUSH2 0x100 PUSH20 0xFFFFFFFFFFFFFFFFFFFFFFFFFFFFFFFFFFFFFFFF SWAP4 DUP5 AND DUP2 MUL SWAP2 SWAP1 SWAP2 OR SWAP1 SWAP2 SSTORE PUSH1 0x40 DUP4 ADD MLOAD PUSH1 0x2 DUP1 SLOAD PUSH32 0xFFFFFFFFFFFFFFFFFFFFFFFF0000000000000000000000000000000000000000 AND SWAP2 SWAP1 SWAP4 AND OR SWAP1 SWAP2 SSTORE PUSH1 0x60 DUP3 ADD MLOAD PUSH1 0x3 SSTORE PUSH1 0x80 DUP3 ADD MLOAD PUSH1 0x4 SSTORE PUSH1 0xA0 DUP3 ADD MLOAD PUSH1 0x5 SSTORE PUSH1 0xC0 DUP3 ADD MLOAD PUSH1 0x6 SSTORE PUSH1 0xE0 DUP3 ADD MLOAD PUSH1 0x7 SSTORE DUP2 ADD MLOAD PUSH1 0x8 SSTORE PUSH2 0x120 DUP2 ADD MLOAD PUSH1 0x9 SSTORE PUSH2 0x140 DUP2 ADD MLOAD PUSH1 0xB SSTORE PUSH2 0x160 DUP2 ADD MLOAD PUSH1 0xC SSTORE PUSH2 0x180 ADD MLOAD PUSH1 0xD SSTORE JUMP JUMPDEST PUSH1 0x0 DUP3 ISZERO DUP1 PUSH2 0xCF1 JUMPI POP DUP2 ISZERO JUMPDEST ISZERO PUSH2 0xCFE JUMPI POP PUSH1 0x0 PUSH2 0x734 JUMP JUMPDEST POP DUP2 DUP2 MUL DUP2 DUP4 DUP3 DUP2 PUSH2 0xD0C JUMPI INVALID JUMPDEST SDIV EQ ISZERO DUP1 PUSH2 0xD23 JUMPI POP DUP3 DUP3 DUP3 DUP2 PUSH2 0xD1F JUMPI INVALID JUMPDEST SDIV EQ ISZERO JUMPDEST ISZERO PUSH2 0x734 JUMPI PUSH1 0x40 MLOAD PUSH32 0x8C379A000000000000000000000000000000000000000000000000000000000 DUP2 MSTORE PUSH1 0x4 ADD PUSH2 0x120 SWAP1 PUSH2 0x21B1 JUMP JUMPDEST PUSH1 0x0 DUP2 PUSH2 0xD93 JUMPI PUSH1 0x40 MLOAD PUSH32 0x8C379A000000000000000000000000000000000000000000000000000000000 DUP2 MSTORE PUSH1 0x4 ADD PUSH2 0x120 SWAP1 PUSH2 0x22B3 JUMP JUMPDEST PUSH32 0x8000000000000000000000000000000000000000000000000000000000000000 DUP4 EQ DUP1 ISZERO PUSH2 0xDE1 JUMPI POP DUP2 PUSH32 0xFFFFFFFFFFFFFFFFFFFFFFFFFFFFFFFFFFFFFFFFFFFFFFFFFFFFFFFFFFFFFFFF EQ JUMPDEST ISZERO PUSH2 0xE18 JUMPI PUSH1 0x40 MLOAD PUSH32 0x8C379A000000000000000000000000000000000000000000000000000000000 DUP2 MSTORE PUSH1 0x4 ADD PUSH2 0x120 SWAP1 PUSH2 0x22EA JUMP JUMPDEST DUP2 DUP4 DUP2 PUSH2 0xE21 JUMPI INVALID JUMPDEST SDIV SWAP4 SWAP3 POP POP POP JUMP JUMPDEST DUP2 DUP2 ADD PUSH1 0x0 DUP4 SLT DUP1 ISZERO PUSH2 0xE3C JUMPI POP PUSH1 0x0 DUP3 SLT JUMPDEST DUP1 ISZERO PUSH2 0xE47 JUMPI POP DUP3 DUP2 SGT JUMPDEST DUP1 PUSH2 0xE68 JUMPI POP PUSH1 0x0 DUP4 SGT DUP1 ISZERO PUSH2 0xE5D JUMPI POP PUSH1 0x0 DUP3 SGT JUMPDEST DUP1 ISZERO PUSH2 0xE68 JUMPI POP DUP3 DUP2 SLT JUMPDEST ISZERO PUSH2 0x734 JUMPI PUSH1 0x40 MLOAD PUSH32 0x8C379A000000000000000000000000000000000000000000000000000000000 DUP2 MSTORE PUSH1 0x4 ADD PUSH2 0x120 SWAP1 PUSH2 0x21E8 JUMP JUMPDEST PUSH1 0x0 DUP1 PUSH2 0xEB2 DUP5 DUP8 PUSH4 0xFFFFFFFF PUSH2 0xAA1 AND JUMP JUMPDEST SWAP1 POP PUSH1 0x0 PUSH2 0xEC6 DUP7 DUP4 PUSH4 0xFFFFFFFF PUSH2 0x973 AND JUMP JUMPDEST SWAP1 POP PUSH1 0x0 PUSH2 0xEDA DUP4 DUP9 PUSH4 0xFFFFFFFF PUSH2 0x973 AND JUMP JUMPDEST SWAP1 POP PUSH1 0x0 PUSH2 0xEEA DUP7 PUSH2 0x174 PUSH2 0x7FA JUMP JUMPDEST SWAP1 POP PUSH1 0x0 PUSH2 0xEF6 PUSH2 0x7FA JUMP JUMPDEST DUP5 SLT ISZERO PUSH2 0xF14 JUMPI PUSH2 0xF0D PUSH2 0xB32 DUP4 PUSH2 0x38F DUP8 PUSH2 0x106F JUMP JUMPDEST SWAP1 POP PUSH2 0xF32 JUMP JUMPDEST PUSH2 0xF2F PUSH2 0xF27 PUSH2 0xB32 DUP5 PUSH2 0x38F DUP8 PUSH2 0x106F JUMP JUMPDEST PUSH2 0x310 PUSH2 0x7FA JUMP JUMPDEST SWAP1 POP JUMPDEST PUSH2 0xF42 DUP2 DUP10 PUSH4 0xFFFFFFFF PUSH2 0xAA1 AND JUMP JUMPDEST SWAP6 POP PUSH32 0x3CF9BD989028BFC957CA46FD34C8ED26F90D849442378EE442FCD56CF5CAC44F DUP11 DUP11 DUP11 DUP11 PUSH2 0xF72 DUP12 PUSH2 0x1D67 JUMP JUMPDEST PUSH1 0x40 MLOAD PUSH2 0xF83 SWAP6 SWAP5 SWAP4 SWAP3 SWAP2 SWAP1 PUSH2 0x1F53 JUMP JUMPDEST PUSH1 0x40 MLOAD DUP1 SWAP2 SUB SWAP1 LOG1 POP POP POP POP POP SWAP5 SWAP4 POP POP POP POP JUMP JUMPDEST PUSH1 0x0 PUSH2 0x7D4 PUSH2 0xFB0 PUSH2 0xFA8 PUSH2 0x7FA JUMP JUMPDEST PUSH2 0xA26 PUSH2 0x7FA JUMP JUMPDEST PUSH2 0x310 DUP6 DUP6 PUSH4 0xFFFFFFFF PUSH2 0xAF4 AND JUMP JUMPDEST PUSH1 0x0 DUP1 PUSH2 0xFD3 DUP4 DUP1 PUSH4 0xFFFFFFFF PUSH2 0xAA1 AND JUMP JUMPDEST SWAP1 POP PUSH1 0x0 PUSH2 0xFE7 DUP5 DUP4 PUSH4 0xFFFFFFFF PUSH2 0xAA1 AND JUMP JUMPDEST SWAP1 POP PUSH1 0x0 PUSH2 0xFFB DUP3 DUP1 PUSH4 0xFFFFFFFF PUSH2 0xAA1 AND JUMP JUMPDEST SWAP1 POP PUSH1 0x0 PUSH2 0x100F DUP3 DUP1 PUSH4 0xFFFFFFFF PUSH2 0xAA1 AND JUMP JUMPDEST SWAP1 POP PUSH1 0x0 PUSH2 0x1023 DUP3 DUP1 PUSH4 0xFFFFFFFF PUSH2 0xAA1 AND JUMP JUMPDEST SWAP1 POP PUSH1 0x0 PUSH2 0x1037 DUP3 DUP1 PUSH4 0xFFFFFFFF PUSH2 0xAA1 AND JUMP JUMPDEST SWAP1 POP PUSH1 0x0 PUSH2 0x104B DUP3 DUP1 PUSH4 0xFFFFFFFF PUSH2 0xAA1 AND JUMP JUMPDEST SWAP1 POP PUSH1 0x0 PUSH2 0x105F DUP3 DUP9 PUSH4 0xFFFFFFFF PUSH2 0xAA1 AND JUMP JUMPDEST SWAP9 POP POP POP POP POP POP POP POP POP JUMPDEST SWAP2 SWAP1 POP JUMP JUMPDEST PUSH1 0x0 PUSH16 0x80000000000000000000000000000000 DUP3 SGT ISZERO PUSH2 0x10BB JUMPI PUSH1 0x40 MLOAD PUSH32 0x8C379A000000000000000000000000000000000000000000000000000000000 DUP2 MSTORE PUSH1 0x4 ADD PUSH2 0x120 SWAP1 PUSH2 0x20AF JUMP JUMPDEST PUSH1 0x0 DUP3 SGT PUSH2 0x10F5 JUMPI PUSH1 0x40 MLOAD PUSH32 0x8C379A000000000000000000000000000000000000000000000000000000000 DUP2 MSTORE PUSH1 0x4 ADD PUSH2 0x120 SWAP1 PUSH2 0x1F76 JUMP JUMPDEST PUSH16 0x80000000000000000000000000000000 DUP3 EQ ISZERO PUSH2 0x1115 JUMPI POP PUSH1 0x0 PUSH2 0x106A JUMP JUMPDEST PUSH5 0x733048C5A DUP3 SGT PUSH2 0x1148 JUMPI POP PUSH32 0xFFFFFFFFFFFFFFFFFFFFFFFFFFFFFFE010000000000000000000000000000000 PUSH2 0x106A JUMP JUMPDEST PUSH1 0x0 DUP1 PUSH1 0x0 PUSH11 0x1C8464F76164760000000 DUP6 SGT PUSH2 0x11A7 JUMPI PUSH32 0xFFFFFFFFFFFFFFFFFFFFFFFFFFFFFFF000000000000000000000000000000000 SWAP1 SWAP4 ADD SWAP3 PUSH11 0x1C8464F76164760000000 PUSH16 0x80000000000000000000000000000000 DUP7 MUL SDIV SWAP5 POP JUMPDEST PUSH13 0xF1AADDD7742E90000000000000 DUP6 SGT PUSH2 0x1205 JUMPI PUSH32 0xFFFFFFFFFFFFFFFFFFFFFFFFFFFFFFF800000000000000000000000000000000 SWAP1 SWAP4 ADD SWAP3 PUSH13 0xF1AADDD7742E90000000000000 PUSH16 0x80000000000000000000000000000000 DUP7 MUL SDIV SWAP5 POP JUMPDEST PUSH15 0xAFE10820813D78000000000000000 DUP6 SGT PUSH2 0x1267 JUMPI PUSH32 0xFFFFFFFFFFFFFFFFFFFFFFFFFFFFFFFC00000000000000000000000000000000 SWAP1 SWAP4 ADD SWAP3 PUSH15 0xAFE10820813D78000000000000000 PUSH16 0x80000000000000000000000000000000 DUP7 MUL SDIV SWAP5 POP JUMPDEST PUSH16 0x2582AB704279EC00000000000000000 DUP6 SGT PUSH2 0x12CB JUMPI PUSH32 0xFFFFFFFFFFFFFFFFFFFFFFFFFFFFFFFE00000000000000000000000000000000 SWAP1 SWAP4 ADD SWAP3 PUSH16 0x2582AB704279EC00000000000000000 PUSH16 0x80000000000000000000000000000000 DUP7 MUL SDIV SWAP5 POP JUMPDEST PUSH16 0x1152AAA3BF81CC000000000000000000 DUP6 SGT PUSH2 0x132F JUMPI PUSH32 0xFFFFFFFFFFFFFFFFFFFFFFFFFFFFFFFF00000000000000000000000000000000 SWAP1 SWAP4 ADD SWAP3 PUSH16 0x1152AAA3BF81CC000000000000000000 PUSH16 0x80000000000000000000000000000000 DUP7 MUL SDIV SWAP5 POP JUMPDEST PUSH16 0x2F16AC6C59DE70000000000000000000 DUP6 SGT PUSH2 0x1393 JUMPI PUSH32 0xFFFFFFFFFFFFFFFFFFFFFFFFFFFFFFFF80000000000000000000000000000000 SWAP1 SWAP4 ADD SWAP3 PUSH16 0x2F16AC6C59DE70000000000000000000 PUSH16 0x80000000000000000000000000000000 DUP7 MUL SDIV SWAP5 POP JUMPDEST PUSH16 0x4DA2CBF1BE5828000000000000000000 DUP6 SGT PUSH2 0x13F7 JUMPI PUSH32 0xFFFFFFFFFFFFFFFFFFFFFFFFFFFFFFFFC0000000000000000000000000000000 SWAP1 SWAP4 ADD SWAP3 PUSH16 0x4DA2CBF1BE5828000000000000000000 PUSH16 0x80000000000000000000000000000000 DUP7 MUL SDIV SWAP5 POP JUMPDEST PUSH16 0x63AFBE7AB2082C000000000000000000 DUP6 SGT PUSH2 0x145B JUMPI PUSH32 0xFFFFFFFFFFFFFFFFFFFFFFFFFFFFFFFFE0000000000000000000000000000000 SWAP1 SWAP4 ADD SWAP3 PUSH16 0x63AFBE7AB2082C000000000000000000 PUSH16 0x80000000000000000000000000000000 DUP7 MUL SDIV SWAP5 POP JUMPDEST PUSH16 0x70F5A893B608861E1F58934F97AEA57D DUP6 SGT PUSH2 0x14BF JUMPI PUSH32 0xFFFFFFFFFFFFFFFFFFFFFFFFFFFFFFFFF0000000000000000000000000000000 SWAP1 SWAP4 ADD SWAP3 PUSH16 0x70F5A893B608861E1F58934F97AEA57D PUSH16 0x80000000000000000000000000000000 DUP7 MUL SDIV SWAP5 POP JUMPDEST PUSH32 0xFFFFFFFFFFFFFFFFFFFFFFFFFFFFFFFF80000000000000000000000000000000 DUP6 ADD SWAP3 POP DUP3 SWAP2 POP PUSH16 0x80000000000000000000000000000000 DUP3 DUP1 MUL SDIV SWAP1 POP PUSH17 0x100000000000000000000000000000000 DUP4 DUP2 SUB DUP4 MUL SDIV DUP5 ADD SWAP4 POP PUSH16 0x80000000000000000000000000000000 DUP2 DUP4 MUL DUP2 PUSH2 0x1535 JUMPI INVALID JUMPDEST SDIV SWAP2 POP PUSH17 0x200000000000000000000000000000000 DUP4 PUSH16 0xAAAAAAAAAAAAAAAAAAAAAAAAAAAAAAAA SUB DUP4 MUL DUP2 PUSH2 0x1566 JUMPI INVALID JUMPDEST SDIV DUP5 ADD SWAP4 POP PUSH16 0x80000000000000000000000000000000 DUP2 DUP4 MUL DUP2 PUSH2 0x1586 JUMPI INVALID JUMPDEST SDIV SWAP2 POP PUSH17 0x300000000000000000000000000000000 DUP4 PUSH16 0x99999999999999999999999999999999 SUB DUP4 MUL DUP2 PUSH2 0x15B7 JUMPI INVALID JUMPDEST SDIV DUP5 ADD SWAP4 POP PUSH16 0x80000000000000000000000000000000 DUP2 DUP4 MUL DUP2 PUSH2 0x15D7 JUMPI INVALID JUMPDEST SDIV SWAP2 POP PUSH17 0x400000000000000000000000000000000 DUP4 PUSH16 0x92492492492492492492492492492492 SUB DUP4 MUL DUP2 PUSH2 0x1608 JUMPI INVALID JUMPDEST SDIV DUP5 ADD SWAP4 POP PUSH16 0x80000000000000000000000000000000 DUP2 DUP4 MUL DUP2 PUSH2 0x1628 JUMPI INVALID JUMPDEST SDIV SWAP2 POP PUSH17 0x500000000000000000000000000000000 DUP4 PUSH16 0x8E38E38E38E38E38E38E38E38E38E38E SUB DUP4 MUL DUP2 PUSH2 0x1659 JUMPI INVALID JUMPDEST SDIV DUP5 ADD SWAP4 POP PUSH16 0x80000000000000000000000000000000 DUP2 DUP4 MUL DUP2 PUSH2 0x1679 JUMPI INVALID JUMPDEST SDIV SWAP2 POP PUSH17 0x600000000000000000000000000000000 DUP4 PUSH16 0x8BA2E8BA2E8BA2E8BA2E8BA2E8BA2E8B SUB DUP4 MUL DUP2 PUSH2 0x16AA JUMPI INVALID JUMPDEST SDIV DUP5 ADD SWAP4 POP PUSH16 0x80000000000000000000000000000000 DUP2 DUP4 MUL DUP2 PUSH2 0x16CA JUMPI INVALID JUMPDEST SDIV SWAP2 POP PUSH17 0x700000000000000000000000000000000 DUP4 PUSH16 0x89D89D89D89D89D89D89D89D89D89D89 SUB DUP4 MUL DUP2 PUSH2 0x16FB JUMPI INVALID JUMPDEST SDIV DUP5 ADD SWAP4 POP PUSH16 0x80000000000000000000000000000000 DUP2 DUP4 MUL DUP2 PUSH2 0x171B JUMPI INVALID JUMPDEST SDIV SWAP2 POP PUSH17 0x800000000000000000000000000000000 DUP4 PUSH16 0x88888888888888888888888888888888 SUB DUP4 MUL DUP2 PUSH2 0x174C JUMPI INVALID JUMPDEST SDIV DUP5 ADD SWAP4 POP POP POP POP SWAP2 SWAP1 POP JUMP JUMPDEST PUSH1 0x0 PUSH32 0xFFFFFFFFFFFFFFFFFFFFFFFFFFFFFFE010000000000000000000000000000000 DUP3 SLT ISZERO PUSH2 0x178B JUMPI POP PUSH1 0x0 PUSH2 0x106A JUMP JUMPDEST DUP2 PUSH2 0x17A7 JUMPI POP PUSH16 0x80000000000000000000000000000000 PUSH2 0x106A JUMP JUMPDEST PUSH1 0x0 DUP3 SGT ISZERO PUSH2 0x17E2 JUMPI PUSH1 0x40 MLOAD PUSH32 0x8C379A000000000000000000000000000000000000000000000000000000000 DUP2 MSTORE PUSH1 0x4 ADD PUSH2 0x120 SWAP1 PUSH2 0x2143 JUMP JUMPDEST PUSH16 0x80000000000000000000000000000000 PUSH16 0x10000000000000000000000000000000 DUP4 SMOD DUP1 DUP1 MUL DUP3 SWAP1 SDIV PUSH8 0x10E1B3BE415A0000 DUP2 MUL SWAP4 SWAP1 SWAP4 ADD SWAP3 SWAP1 SWAP2 DUP2 DUP4 MUL SDIV SWAP1 POP DUP1 PUSH8 0x5A0913F6B1E0000 MUL DUP4 ADD SWAP3 POP PUSH16 0x80000000000000000000000000000000 DUP3 DUP3 MUL DUP2 PUSH2 0x184E JUMPI INVALID JUMPDEST SDIV SWAP1 POP DUP1 PUSH8 0x168244FDAC78000 MUL DUP4 ADD SWAP3 POP PUSH16 0x80000000000000000000000000000000 DUP3 DUP3 MUL DUP2 PUSH2 0x187B JUMPI INVALID JUMPDEST SDIV SWAP1 POP DUP1 PUSH7 0x4807432BC18000 MUL DUP4 ADD SWAP3 POP PUSH16 0x80000000000000000000000000000000 DUP3 DUP3 MUL DUP2 PUSH2 0x18A7 JUMPI INVALID JUMPDEST SDIV SWAP1 POP DUP1 PUSH7 0xC0135DCA04000 MUL DUP4 ADD SWAP3 POP PUSH16 0x80000000000000000000000000000000 DUP3 DUP3 MUL DUP2 PUSH2 0x18D3 JUMPI INVALID JUMPDEST SDIV SWAP1 POP DUP1 PUSH7 0x1B707B1CDC000 MUL DUP4 ADD SWAP3 POP PUSH16 0x80000000000000000000000000000000 DUP3 DUP3 MUL DUP2 PUSH2 0x18FF JUMPI INVALID JUMPDEST SDIV SWAP1 POP DUP1 PUSH6 0x36E0F639B800 MUL DUP4 ADD SWAP3 POP PUSH16 0x80000000000000000000000000000000 DUP3 DUP3 MUL DUP2 PUSH2 0x192A JUMPI INVALID JUMPDEST SDIV SWAP1 POP DUP1 PUSH6 0x618FEE9F800 MUL DUP4 ADD SWAP3 POP PUSH16 0x80000000000000000000000000000000 DUP3 DUP3 MUL DUP2 PUSH2 0x1955 JUMPI INVALID JUMPDEST SDIV SWAP1 POP DUP1 PUSH5 0x9C197DCC00 MUL DUP4 ADD SWAP3 POP PUSH16 0x80000000000000000000000000000000 DUP3 DUP3 MUL DUP2 PUSH2 0x197F JUMPI INVALID JUMPDEST SDIV SWAP1 POP DUP1 PUSH5 0xE30DCE400 MUL DUP4 ADD SWAP3 POP PUSH16 0x80000000000000000000000000000000 DUP3 DUP3 MUL DUP2 PUSH2 0x19A9 JUMPI INVALID JUMPDEST SDIV SWAP1 POP DUP1 PUSH5 0x12EBD1300 MUL DUP4 ADD SWAP3 POP PUSH16 0x80000000000000000000000000000000 DUP3 DUP3 MUL DUP2 PUSH2 0x19D3 JUMPI INVALID JUMPDEST SDIV SWAP1 POP DUP1 PUSH4 0x17499F00 MUL DUP4 ADD SWAP3 POP PUSH16 0x80000000000000000000000000000000 DUP3 DUP3 MUL DUP2 PUSH2 0x19FC JUMPI INVALID JUMPDEST SDIV SWAP1 POP DUP1 PUSH4 0x1A9D480 MUL DUP4 ADD SWAP3 POP PUSH16 0x80000000000000000000000000000000 DUP3 DUP3 MUL DUP2 PUSH2 0x1A25 JUMPI INVALID JUMPDEST SDIV SWAP1 POP DUP1 PUSH3 0x1C6380 MUL DUP4 ADD SWAP3 POP PUSH16 0x80000000000000000000000000000000 DUP3 DUP3 MUL DUP2 PUSH2 0x1A4D JUMPI INVALID JUMPDEST SDIV SWAP1 POP DUP1 PUSH3 0x1C638 MUL DUP4 ADD SWAP3 POP PUSH16 0x80000000000000000000000000000000 DUP3 DUP3 MUL DUP2 PUSH2 0x1A75 JUMPI INVALID JUMPDEST SDIV SWAP1 POP DUP1 PUSH2 0x1AB8 MUL DUP4 ADD SWAP3 POP PUSH16 0x80000000000000000000000000000000 DUP3 DUP3 MUL DUP2 PUSH2 0x1A9C JUMPI INVALID JUMPDEST SDIV SWAP1 POP DUP1 PUSH2 0x17C MUL DUP4 ADD SWAP3 POP PUSH16 0x80000000000000000000000000000000 DUP3 DUP3 MUL DUP2 PUSH2 0x1AC3 JUMPI INVALID JUMPDEST SDIV SWAP1 POP DUP1 PUSH1 0x14 MUL DUP4 ADD SWAP3 POP PUSH16 0x80000000000000000000000000000000 DUP3 DUP3 MUL DUP2 PUSH2 0x1AE9 JUMPI INVALID JUMPDEST PUSH1 0x0 SWAP6 SWAP1 SWAP6 SUB SWAP5 PUSH8 0x21C3677C82B40000 SWAP2 SWAP1 SDIV SWAP4 DUP5 ADD SDIV DUP3 ADD PUSH16 0x80000000000000000000000000000000 ADD SWAP3 SWAP1 POP PUSH17 0x1000000000000000000000000000000000 DUP5 AND ISZERO PUSH2 0x1B58 JUMPI PUSH19 0x43CBAF42A000812488FC5C220AD7B97BF6E99E PUSH13 0xF1AADDD7742E56D32FB9F99744 DUP5 MUL SDIV SWAP3 POP JUMPDEST PUSH17 0x800000000000000000000000000000000 DUP5 AND ISZERO PUSH2 0x1B9A JUMPI PUSH18 0x5D27A9F51C31B7C2F8038212A0574779991 PUSH15 0xAFE10820813D65DFE6A33C07F738F DUP5 MUL SDIV SWAP3 POP JUMPDEST PUSH17 0x400000000000000000000000000000000 DUP5 AND ISZERO PUSH2 0x1BDC JUMPI PUSH17 0x1B4C902E273A58678D6D3BFDB93DB96D02 PUSH16 0x2582AB704279E8EFD15E0265855C47A DUP5 MUL SDIV SWAP3 POP JUMPDEST PUSH17 0x200000000000000000000000000000000 DUP5 AND ISZERO PUSH2 0x1C1E JUMPI PUSH17 0x3B1CC971A9BB5B9867477440D6D157750 PUSH16 0x1152AAA3BF81CB9FDB76EAE12D029571 DUP5 MUL SDIV SWAP3 POP JUMPDEST PUSH17 0x100000000000000000000000000000000 DUP5 AND ISZERO PUSH2 0x1C60 JUMPI PUSH17 0x15BF0A8B1457695355FB8AC404E7A79E3 PUSH16 0x2F16AC6C59DE6F8D5D6F63C1482A7C86 DUP5 MUL SDIV SWAP3 POP JUMPDEST PUSH16 0x80000000000000000000000000000000 DUP5 AND ISZERO PUSH2 0x1CA0 JUMPI PUSH16 0xD3094C70F034DE4B96FF7D5B6F99FCD8 PUSH16 0x4DA2CBF1BE5827F9EB3AD1AA9866EBB3 DUP5 MUL SDIV SWAP3 POP JUMPDEST PUSH16 0x40000000000000000000000000000000 DUP5 AND ISZERO PUSH2 0x1CE0 JUMPI PUSH16 0xA45AF1E1F40C333B3DE1DB4DD55F29A7 PUSH16 0x63AFBE7AB2082BA1A0AE5E4EB1B479DC DUP5 MUL SDIV SWAP3 POP JUMPDEST PUSH16 0x20000000000000000000000000000000 DUP5 AND ISZERO PUSH2 0x1D20 JUMPI PUSH16 0x910B022DB7AE67CE76B441C27035C6A1 PUSH16 0x70F5A893B608861E1F58934F97AEA57D DUP5 MUL SDIV SWAP3 POP JUMPDEST PUSH16 0x10000000000000000000000000000000 DUP5 AND ISZERO PUSH2 0x1D60 JUMPI PUSH16 0x88415ABBE9A76BEAD8D00CF112E4D4A8 PUSH16 0x783EAFEF1C0A8F3978C7F81824D62EBF DUP5 MUL SDIV SWAP3 POP JUMPDEST POP POP SWAP2 SWAP1 POP JUMP JUMPDEST PUSH16 0x80000000000000000000000000000000 SWAP1 SDIV SWAP1 JUMP JUMPDEST PUSH1 0x40 MLOAD DUP1 PUSH2 0x1A0 ADD PUSH1 0x40 MSTORE DUP1 PUSH1 0x0 ISZERO ISZERO DUP2 MSTORE PUSH1 0x20 ADD PUSH1 0x0 PUSH20 0xFFFFFFFFFFFFFFFFFFFFFFFFFFFFFFFFFFFFFFFF AND DUP2 MSTORE PUSH1 0x20 ADD PUSH1 0x0 PUSH20 0xFFFFFFFFFFFFFFFFFFFFFFFFFFFFFFFFFFFFFFFF AND DUP2 MSTORE PUSH1 0x20 ADD PUSH1 0x0 DUP2 MSTORE PUSH1 0x20 ADD PUSH1 0x0 DUP2 MSTORE PUSH1 0x20 ADD PUSH1 0x0 DUP2 MSTORE PUSH1 0x20 ADD PUSH1 0x0 DUP2 MSTORE PUSH1 0x20 ADD PUSH1 0x0 DUP2 MSTORE PUSH1 0x20 ADD PUSH1 0x0 DUP2 MSTORE PUSH1 0x20 ADD PUSH1 0x0 DUP2 MSTORE PUSH1 0x20 ADD PUSH1 0x0 DUP2 MSTORE PUSH1 0x20 ADD PUSH1 0x0 DUP2 MSTORE PUSH1 0x20 ADD PUSH1 0x0 DUP2 MSTORE POP SWAP1 JUMP JUMPDEST PUSH1 0x0 PUSH1 0x20 DUP3 DUP5 SUB SLT ISZERO PUSH2 0x1E24 JUMPI DUP1 DUP2 REVERT JUMPDEST DUP2 CALLDATALOAD PUSH20 0xFFFFFFFFFFFFFFFFFFFFFFFFFFFFFFFFFFFFFFFF DUP2 AND DUP2 EQ PUSH2 0x7D4 JUMPI DUP2 DUP3 REVERT JUMPDEST PUSH1 0x0 DUP1 PUSH1 0x0 PUSH1 0x60 DUP5 DUP7 SUB SLT ISZERO PUSH2 0x1E5B JUMPI DUP2 DUP3 REVERT JUMPDEST DUP4 CALLDATALOAD PUSH2 0x1E66 DUP2 PUSH2 0x2321 JUMP JUMPDEST SWAP3 POP PUSH1 0x20 DUP5 ADD CALLDATALOAD PUSH2 0x1E76 DUP2 PUSH2 0x2321 JUMP JUMPDEST SWAP3 SWAP6 SWAP3 SWAP5 POP POP POP PUSH1 0x40 SWAP2 SWAP1 SWAP2 ADD CALLDATALOAD SWAP1 JUMP JUMPDEST PUSH1 0x0 PUSH1 0x20 DUP3 DUP5 SUB SLT ISZERO PUSH2 0x1E98 JUMPI DUP1 DUP2 REVERT JUMPDEST POP CALLDATALOAD SWAP2 SWAP1 POP JUMP JUMPDEST PUSH20 0xFFFFFFFFFFFFFFFFFFFFFFFFFFFFFFFFFFFFFFFF SWAP2 SWAP1 SWAP2 AND DUP2 MSTORE PUSH1 0x20 ADD SWAP1 JUMP JUMPDEST PUSH20 0xFFFFFFFFFFFFFFFFFFFFFFFFFFFFFFFFFFFFFFFF SWAP3 DUP4 AND DUP2 MSTORE SWAP2 AND PUSH1 0x20 DUP3 ADD MSTORE PUSH1 0x40 ADD SWAP1 JUMP JUMPDEST PUSH20 0xFFFFFFFFFFFFFFFFFFFFFFFFFFFFFFFFFFFFFFFF SWAP6 SWAP1 SWAP6 AND DUP6 MSTORE PUSH1 0x20 DUP6 ADD SWAP4 SWAP1 SWAP4 MSTORE PUSH1 0x40 DUP5 ADD SWAP2 SWAP1 SWAP2 MSTORE PUSH1 0x60 DUP4 ADD MSTORE PUSH1 0x80 DUP3 ADD MSTORE PUSH1 0xA0 ADD SWAP1 JUMP JUMPDEST SWAP3 DUP4 MSTORE PUSH1 0x20 DUP4 ADD SWAP2 SWAP1 SWAP2 MSTORE PUSH1 0x40 DUP3 ADD MSTORE PUSH1 0x60 ADD SWAP1 JUMP JUMPDEST SWAP4 DUP5 MSTORE PUSH1 0x20 DUP5 ADD SWAP3 SWAP1 SWAP3 MSTORE PUSH1 0x40 DUP4 ADD MSTORE PUSH1 0x60 DUP3 ADD MSTORE PUSH1 0x80 ADD SWAP1 JUMP JUMPDEST SWAP5 DUP6 MSTORE PUSH1 0x20 DUP6 ADD SWAP4 SWAP1 SWAP4 MSTORE PUSH1 0x40 DUP5 ADD SWAP2 SWAP1 SWAP2 MSTORE PUSH1 0x60 DUP4 ADD MSTORE PUSH1 0x80 DUP3 ADD MSTORE PUSH1 0xA0 ADD SWAP1 JUMP JUMPDEST PUSH1 0x20 DUP1 DUP3 MSTORE PUSH1 0x13 SWAP1 DUP3 ADD MSTORE PUSH32 0x6C6E3A2076616C756520746F6F20736D616C6C00000000000000000000000000 PUSH1 0x40 DUP3 ADD MSTORE PUSH1 0x60 ADD SWAP1 JUMP JUMPDEST PUSH1 0x20 DUP1 DUP3 MSTORE PUSH1 0xE SWAP1 DUP3 ADD MSTORE PUSH32 0x4F6E6C794F776E65724572726F72000000000000000000000000000000000000 PUSH1 0x40 DUP3 ADD MSTORE PUSH1 0x60 ADD SWAP1 JUMP JUMPDEST PUSH1 0x20 DUP1 DUP3 MSTORE PUSH1 0x13 SWAP1 DUP3 ADD MSTORE PUSH32 0x416C726561647920496E697469616C697A656400000000000000000000000000 PUSH1 0x40 DUP3 ADD MSTORE PUSH1 0x60 ADD SWAP1 JUMP JUMPDEST PUSH1 0x20 DUP1 DUP3 MSTORE PUSH1 0x17 SWAP1 DUP3 ADD MSTORE PUSH32 0x496E76616C696420746F6B656E20616464726573736573000000000000000000 PUSH1 0x40 DUP3 ADD MSTORE PUSH1 0x60 ADD SWAP1 JUMP JUMPDEST PUSH1 0x20 DUP1 DUP3 MSTORE PUSH1 0x38 SWAP1 DUP3 ADD MSTORE PUSH32 0x746F46697865642875696E742C75696E74293A2064656E6F6D696E61746F7220 PUSH1 0x40 DUP3 ADD MSTORE PUSH32 0x63616E6E6F74206265206C657373207468616E207A65726F0000000000000000 PUSH1 0x60 DUP3 ADD MSTORE PUSH1 0x80 ADD SWAP1 JUMP JUMPDEST PUSH1 0x20 DUP1 DUP3 MSTORE PUSH1 0x13 SWAP1 DUP3 ADD MSTORE PUSH32 0x6C6E3A2076616C756520746F6F206C6172676500000000000000000000000000 PUSH1 0x40 DUP3 ADD MSTORE PUSH1 0x60 ADD SWAP1 JUMP JUMPDEST PUSH1 0x20 DUP1 DUP3 MSTORE PUSH1 0x27 SWAP1 DUP3 ADD MSTORE PUSH32 0x746F46697865643A2076616C75652063616E6E6F74206265206C657373207468 PUSH1 0x40 DUP3 ADD MSTORE PUSH32 0x616E207A65726F00000000000000000000000000000000000000000000000000 PUSH1 0x60 DUP3 ADD MSTORE PUSH1 0x80 ADD SWAP1 JUMP JUMPDEST PUSH1 0x20 DUP1 DUP3 MSTORE PUSH1 0x14 SWAP1 DUP3 ADD MSTORE PUSH32 0x6578703A2076616C756520746F6F20736D616C6C000000000000000000000000 PUSH1 0x40 DUP3 ADD MSTORE PUSH1 0x60 ADD SWAP1 JUMP JUMPDEST PUSH1 0x20 DUP1 DUP3 MSTORE PUSH1 0x18 SWAP1 DUP3 ADD MSTORE PUSH32 0x5472616E736665724F776E6572546F5A65726F4572726F720000000000000000 PUSH1 0x40 DUP3 ADD MSTORE PUSH1 0x60 ADD SWAP1 JUMP JUMPDEST PUSH1 0x20 DUP1 DUP3 MSTORE PUSH1 0xE SWAP1 DUP3 ADD MSTORE PUSH32 0x5F6D756C3A206F766572666C6F77000000000000000000000000000000000000 PUSH1 0x40 DUP3 ADD MSTORE PUSH1 0x60 ADD SWAP1 JUMP JUMPDEST PUSH1 0x20 DUP1 DUP3 MSTORE PUSH1 0xE SWAP1 DUP3 ADD MSTORE PUSH32 0x5F6164643A206F766572666C6F77000000000000000000000000000000000000 PUSH1 0x40 DUP3 ADD MSTORE PUSH1 0x60 ADD SWAP1 JUMP JUMPDEST PUSH1 0x20 DUP1 DUP3 MSTORE PUSH1 0x14 SWAP1 DUP3 ADD MSTORE PUSH32 0x7375623A2076616C756520746F6F20736D616C6C000000000000000000000000 PUSH1 0x40 DUP3 ADD MSTORE PUSH1 0x60 ADD SWAP1 JUMP JUMPDEST PUSH1 0x20 DUP1 DUP3 MSTORE PUSH1 0x36 SWAP1 DUP3 ADD MSTORE PUSH32 0x746F46697865642875696E742C75696E74293A206E756D657261746F72206361 PUSH1 0x40 DUP3 ADD MSTORE PUSH32 0x6E6E6F74206265206C657373207468616E207A65726F00000000000000000000 PUSH1 0x60 DUP3 ADD MSTORE PUSH1 0x80 ADD SWAP1 JUMP JUMPDEST PUSH1 0x20 DUP1 DUP3 MSTORE PUSH1 0x14 SWAP1 DUP3 ADD MSTORE PUSH32 0x5F6469763A20646976696465206279207A65726F000000000000000000000000 PUSH1 0x40 DUP3 ADD MSTORE PUSH1 0x60 ADD SWAP1 JUMP JUMPDEST PUSH1 0x20 DUP1 DUP3 MSTORE PUSH1 0xE SWAP1 DUP3 ADD MSTORE PUSH32 0x5F6469763A206F766572666C6F77000000000000000000000000000000000000 PUSH1 0x40 DUP3 ADD MSTORE PUSH1 0x60 ADD SWAP1 JUMP JUMPDEST PUSH20 0xFFFFFFFFFFFFFFFFFFFFFFFFFFFFFFFFFFFFFFFF DUP2 AND DUP2 EQ PUSH2 0xD8 JUMPI PUSH1 0x0 DUP1 REVERT INVALID LOG3 PUSH6 0x627A7A723158 KECCAK256 ADD EQ 0x24 0xB2 REVERT 0xB8 ADD DUP7 SELFBALANCE ORIGIN PUSH30 0x15D29FDA58529BBEA3EF4080435A57381C3EE5F2A96C6578706572696D65 PUSH15 0x74616CF564736F6C634300050D0040 "
			}
		}
	},
	"sourceTreeHashHex": "0x83a880c2de0ebc352d53d4dd3dc8f5744fe444b411e2de215d4e460ef4a81ba1",
	"compiler": {
		"name": "solc",
		"version": "soljson-v0.5.13+commit.5b0b510c.js",
		"settings": {
			"optimizer": {
				"enabled": true,
				"runs": 1000000,
				"details": {
					"yul": true,
					"deduplicate": true,
					"cse": true,
					"constantOptimizer": true
				}
			},
			"outputSelection": {
				"*": {
					"*": [
						"abi",
						"devdoc",
						"evm.bytecode.object",
						"evm.bytecode.sourceMap",
						"evm.deployedBytecode.object",
						"evm.deployedBytecode.sourceMap"
					]
				}
			},
			"evmVersion": "constantinople",
			"remappings": []
		}
	},
	"chains": {}
}