{
	"schemaVersion": "2.0.0",
	"contractName": "State",
	"compilerOutput": {
		"abi": [
			{
				"anonymous": false,
				"inputs": [
					{
						"indexed": false,
						"internalType": "address",
						"name": "oldOwner",
						"type": "address"
					},
					{
						"indexed": false,
						"internalType": "address",
						"name": "newOwner",
						"type": "address"
					}
				],
				"name": "OwnershipTransferred",
				"type": "event"
			},
			{
				"constant": true,
				"inputs": [],
				"name": "gState",
				"outputs": [
					{
						"internalType": "bool",
						"name": "isInitialized",
						"type": "bool"
					},
					{
						"internalType": "address",
						"name": "xAddress",
						"type": "address"
					},
					{
						"internalType": "address",
						"name": "yAddress",
						"type": "address"
					},
					{
						"internalType": "int256",
						"name": "x",
						"type": "int256"
					},
					{
						"internalType": "int256",
						"name": "y",
						"type": "int256"
					},
					{
						"internalType": "uint256",
						"name": "l",
						"type": "uint256"
					},
					{
						"internalType": "int256",
						"name": "pBarX",
						"type": "int256"
					},
					{
						"internalType": "uint256",
						"name": "rhoNumerator",
						"type": "uint256"
					},
					{
						"internalType": "int256",
						"name": "rhoRatio",
						"type": "int256"
					},
					{
						"internalType": "int256",
						"name": "fee",
						"type": "int256"
					},
					{
						"internalType": "uint256",
						"name": "t",
						"type": "uint256"
					},
					{
						"internalType": "int256",
						"name": "beta",
						"type": "int256"
					},
					{
						"internalType": "int256",
						"name": "eToKappa",
						"type": "int256"
					}
				],
				"payable": false,
				"stateMutability": "view",
				"type": "function"
			},
			{
				"constant": false,
				"inputs": [
					{
						"internalType": "address",
						"name": "xAddress",
						"type": "address"
					},
					{
						"internalType": "address",
						"name": "yAddress",
						"type": "address"
					}
				],
				"name": "initState",
				"outputs": [],
				"payable": false,
				"stateMutability": "nonpayable",
				"type": "function"
			},
			{
				"constant": true,
				"inputs": [],
				"name": "owner",
				"outputs": [
					{
						"internalType": "address",
						"name": "",
						"type": "address"
					}
				],
				"payable": false,
				"stateMutability": "view",
				"type": "function"
			},
			{
				"constant": false,
				"inputs": [
					{
						"internalType": "address",
						"name": "newOwner",
						"type": "address"
					}
				],
				"name": "transferOwnership",
				"outputs": [],
				"payable": false,
				"stateMutability": "nonpayable",
				"type": "function"
			}
		],
		"devdoc": {
			"methods": {}
		},
		"evm": {
			"bytecode": {
				"linkReferences": {},
				"object": "0x6080604052600080546001600160a01b03191633179055610aa6806100256000396000f3fe608060405234801561001057600080fd5b506004361061004c5760003560e01c80637b689036146100515780638da5cb5b14610066578063afd46eb514610084578063f2fde38b146100a5575b600080fd5b61006461005f3660046106fd565b6100b8565b005b61006e6100ce565b60405161007b9190610731565b60405180910390f35b61008c6100ea565b60405161007b9d9c9b9a99989796959493929190610779565b6100646100b33660046106e2565b61013f565b6100c061021a565b6100ca828261026d565b5050565b60005473ffffffffffffffffffffffffffffffffffffffff1681565b600154600254600354600454600554600654600754600854600954600a54600c54600d5460ff8c169b73ffffffffffffffffffffffffffffffffffffffff61010090910481169b16999897969594939291908d565b61014761021a565b73ffffffffffffffffffffffffffffffffffffffff811661019d576040517f08c379a0000000000000000000000000000000000000000000000000000000008152600401610194906108bc565b60405180910390fd5b600080547fffffffffffffffffffffffff00000000000000000000000000000000000000001673ffffffffffffffffffffffffffffffffffffffff83161790556040517f8be0079c531659141344cd1fd0a4f28419497f9722a3daafe3b4186f6b6457e09061020f9033908490610752565b60405180910390a150565b60005473ffffffffffffffffffffffffffffffffffffffff16331461026b576040517f08c379a0000000000000000000000000000000000000000000000000000000008152600401610194906107f1565b565b60015460ff16156102aa576040517f08c379a000000000000000000000000000000000000000000000000000000000815260040161019490610828565b600180547fffffffffffffffffffffff0000000000000000000000000000000000000000ff1661010073ffffffffffffffffffffffffffffffffffffffff8581169190910291909117909155600280547fffffffffffffffffffffffff000000000000000000000000000000000000000016918316919091179055610331606360646103c0565b600655606360078190556103469060646103c0565b60085561035660056127106103c0565b60095561037e61036a6001620f4240610461565b610372610480565b9063ffffffff61049416565b600c5561038f6127156103e8610461565b600d555050600180547fffffffffffffffffffffffffffffffffffffffffffffffffffffffffffffff001681179055565b6000808312156103fc576040517f08c379a000000000000000000000000000000000000000000000000000000000815260040161019490610998565b6000821215610437576040517f08c379a00000000000000000000000000000000000000000000000000000000081526004016101949061085f565b61045a610454846f800000000000000000000000000000006104fd565b83610579565b9392505050565b600061045a610454846f800000000000000000000000000000006104fd565b6f8000000000000000000000000000000090565b60007f80000000000000000000000000000000000000000000000000000000000000008214156104f0576040517f08c379a000000000000000000000000000000000000000000000000000000000815260040161019490610961565b61045a8383600003610648565b600082158061050a575081155b1561051757506000610573565b508181028183828161052557fe5b0514158061053c57508282828161053857fe5b0514155b15610573576040517f08c379a0000000000000000000000000000000000000000000000000000000008152600401610194906108f3565b92915050565b6000816105b2576040517f08c379a0000000000000000000000000000000000000000000000000000000008152600401610194906109f5565b7f8000000000000000000000000000000000000000000000000000000000000000831480156106005750817fffffffffffffffffffffffffffffffffffffffffffffffffffffffffffffffff145b15610637576040517f08c379a000000000000000000000000000000000000000000000000000000000815260040161019490610a2c565b81838161064057fe5b059392505050565b81810160008312801561065b5750600082125b801561066657508281135b80610687575060008313801561067c5750600082135b801561068757508281125b15610573576040517f08c379a00000000000000000000000000000000000000000000000000000000081526004016101949061092a565b803573ffffffffffffffffffffffffffffffffffffffff8116811461057357600080fd5b6000602082840312156106f3578081fd5b61045a83836106be565b6000806040838503121561070f578081fd5b61071984846106be565b915061072884602085016106be565b90509250929050565b73ffffffffffffffffffffffffffffffffffffffff91909116815260200190565b73ffffffffffffffffffffffffffffffffffffffff92831681529116602082015260400190565b9c15158d5273ffffffffffffffffffffffffffffffffffffffff9b8c1660208e015299909a1660408c015260608b019790975260808a019590955260a089019390935260c088019190915260e08701526101008601526101208501526101408401526101608301919091526101808201526101a00190565b6020808252600e908201527f4f6e6c794f776e65724572726f72000000000000000000000000000000000000604082015260600190565b60208082526013908201527f416c726561647920496e697469616c697a656400000000000000000000000000604082015260600190565b60208082526038908201527f746f46697865642875696e742c75696e74293a2064656e6f6d696e61746f722060408201527f63616e6e6f74206265206c657373207468616e207a65726f0000000000000000606082015260800190565b60208082526018908201527f5472616e736665724f776e6572546f5a65726f4572726f720000000000000000604082015260600190565b6020808252600e908201527f5f6d756c3a206f766572666c6f77000000000000000000000000000000000000604082015260600190565b6020808252600e908201527f5f6164643a206f766572666c6f77000000000000000000000000000000000000604082015260600190565b60208082526014908201527f7375623a2076616c756520746f6f20736d616c6c000000000000000000000000604082015260600190565b60208082526036908201527f746f46697865642875696e742c75696e74293a206e756d657261746f7220636160408201527f6e6e6f74206265206c657373207468616e207a65726f00000000000000000000606082015260800190565b60208082526014908201527f5f6469763a20646976696465206279207a65726f000000000000000000000000604082015260600190565b6020808252600e908201527f5f6469763a206f766572666c6f7700000000000000000000000000000000000060408201526060019056fea365627a7a7231582037e7bdd10bbeaa9abdcbc5a7175ce96ed0007a48fc2bdd45fcfe906d74bdccae6c6578706572696d656e74616cf564736f6c634300050c0040",
				"opcodes": "PUSH1 0x80 PUSH1 0x40 MSTORE PUSH1 0x0 DUP1 SLOAD PUSH1 0x1 PUSH1 0x1 PUSH1 0xA0 SHL SUB NOT AND CALLER OR SWAP1 SSTORE PUSH2 0xAA6 DUP1 PUSH2 0x25 PUSH1 0x0 CODECOPY PUSH1 0x0 RETURN INVALID PUSH1 0x80 PUSH1 0x40 MSTORE CALLVALUE DUP1 ISZERO PUSH2 0x10 JUMPI PUSH1 0x0 DUP1 REVERT JUMPDEST POP PUSH1 0x4 CALLDATASIZE LT PUSH2 0x4C JUMPI PUSH1 0x0 CALLDATALOAD PUSH1 0xE0 SHR DUP1 PUSH4 0x7B689036 EQ PUSH2 0x51 JUMPI DUP1 PUSH4 0x8DA5CB5B EQ PUSH2 0x66 JUMPI DUP1 PUSH4 0xAFD46EB5 EQ PUSH2 0x84 JUMPI DUP1 PUSH4 0xF2FDE38B EQ PUSH2 0xA5 JUMPI JUMPDEST PUSH1 0x0 DUP1 REVERT JUMPDEST PUSH2 0x64 PUSH2 0x5F CALLDATASIZE PUSH1 0x4 PUSH2 0x6FD JUMP JUMPDEST PUSH2 0xB8 JUMP JUMPDEST STOP JUMPDEST PUSH2 0x6E PUSH2 0xCE JUMP JUMPDEST PUSH1 0x40 MLOAD PUSH2 0x7B SWAP2 SWAP1 PUSH2 0x731 JUMP JUMPDEST PUSH1 0x40 MLOAD DUP1 SWAP2 SUB SWAP1 RETURN JUMPDEST PUSH2 0x8C PUSH2 0xEA JUMP JUMPDEST PUSH1 0x40 MLOAD PUSH2 0x7B SWAP14 SWAP13 SWAP12 SWAP11 SWAP10 SWAP9 SWAP8 SWAP7 SWAP6 SWAP5 SWAP4 SWAP3 SWAP2 SWAP1 PUSH2 0x779 JUMP JUMPDEST PUSH2 0x64 PUSH2 0xB3 CALLDATASIZE PUSH1 0x4 PUSH2 0x6E2 JUMP JUMPDEST PUSH2 0x13F JUMP JUMPDEST PUSH2 0xC0 PUSH2 0x21A JUMP JUMPDEST PUSH2 0xCA DUP3 DUP3 PUSH2 0x26D JUMP JUMPDEST POP POP JUMP JUMPDEST PUSH1 0x0 SLOAD PUSH20 0xFFFFFFFFFFFFFFFFFFFFFFFFFFFFFFFFFFFFFFFF AND DUP2 JUMP JUMPDEST PUSH1 0x1 SLOAD PUSH1 0x2 SLOAD PUSH1 0x3 SLOAD PUSH1 0x4 SLOAD PUSH1 0x5 SLOAD PUSH1 0x6 SLOAD PUSH1 0x7 SLOAD PUSH1 0x8 SLOAD PUSH1 0x9 SLOAD PUSH1 0xA SLOAD PUSH1 0xC SLOAD PUSH1 0xD SLOAD PUSH1 0xFF DUP13 AND SWAP12 PUSH20 0xFFFFFFFFFFFFFFFFFFFFFFFFFFFFFFFFFFFFFFFF PUSH2 0x100 SWAP1 SWAP2 DIV DUP2 AND SWAP12 AND SWAP10 SWAP9 SWAP8 SWAP7 SWAP6 SWAP5 SWAP4 SWAP3 SWAP2 SWAP1 DUP14 JUMP JUMPDEST PUSH2 0x147 PUSH2 0x21A JUMP JUMPDEST PUSH20 0xFFFFFFFFFFFFFFFFFFFFFFFFFFFFFFFFFFFFFFFF DUP2 AND PUSH2 0x19D JUMPI PUSH1 0x40 MLOAD PUSH32 0x8C379A000000000000000000000000000000000000000000000000000000000 DUP2 MSTORE PUSH1 0x4 ADD PUSH2 0x194 SWAP1 PUSH2 0x8BC JUMP JUMPDEST PUSH1 0x40 MLOAD DUP1 SWAP2 SUB SWAP1 REVERT JUMPDEST PUSH1 0x0 DUP1 SLOAD PUSH32 0xFFFFFFFFFFFFFFFFFFFFFFFF0000000000000000000000000000000000000000 AND PUSH20 0xFFFFFFFFFFFFFFFFFFFFFFFFFFFFFFFFFFFFFFFF DUP4 AND OR SWAP1 SSTORE PUSH1 0x40 MLOAD PUSH32 0x8BE0079C531659141344CD1FD0A4F28419497F9722A3DAAFE3B4186F6B6457E0 SWAP1 PUSH2 0x20F SWAP1 CALLER SWAP1 DUP5 SWAP1 PUSH2 0x752 JUMP JUMPDEST PUSH1 0x40 MLOAD DUP1 SWAP2 SUB SWAP1 LOG1 POP JUMP JUMPDEST PUSH1 0x0 SLOAD PUSH20 0xFFFFFFFFFFFFFFFFFFFFFFFFFFFFFFFFFFFFFFFF AND CALLER EQ PUSH2 0x26B JUMPI PUSH1 0x40 MLOAD PUSH32 0x8C379A000000000000000000000000000000000000000000000000000000000 DUP2 MSTORE PUSH1 0x4 ADD PUSH2 0x194 SWAP1 PUSH2 0x7F1 JUMP JUMPDEST JUMP JUMPDEST PUSH1 0x1 SLOAD PUSH1 0xFF AND ISZERO PUSH2 0x2AA JUMPI PUSH1 0x40 MLOAD PUSH32 0x8C379A000000000000000000000000000000000000000000000000000000000 DUP2 MSTORE PUSH1 0x4 ADD PUSH2 0x194 SWAP1 PUSH2 0x828 JUMP JUMPDEST PUSH1 0x1 DUP1 SLOAD PUSH32 0xFFFFFFFFFFFFFFFFFFFFFF0000000000000000000000000000000000000000FF AND PUSH2 0x100 PUSH20 0xFFFFFFFFFFFFFFFFFFFFFFFFFFFFFFFFFFFFFFFF DUP6 DUP2 AND SWAP2 SWAP1 SWAP2 MUL SWAP2 SWAP1 SWAP2 OR SWAP1 SWAP2 SSTORE PUSH1 0x2 DUP1 SLOAD PUSH32 0xFFFFFFFFFFFFFFFFFFFFFFFF0000000000000000000000000000000000000000 AND SWAP2 DUP4 AND SWAP2 SWAP1 SWAP2 OR SWAP1 SSTORE PUSH2 0x331 PUSH1 0x63 PUSH1 0x64 PUSH2 0x3C0 JUMP JUMPDEST PUSH1 0x6 SSTORE PUSH1 0x63 PUSH1 0x7 DUP2 SWAP1 SSTORE PUSH2 0x346 SWAP1 PUSH1 0x64 PUSH2 0x3C0 JUMP JUMPDEST PUSH1 0x8 SSTORE PUSH2 0x356 PUSH1 0x5 PUSH2 0x2710 PUSH2 0x3C0 JUMP JUMPDEST PUSH1 0x9 SSTORE PUSH2 0x37E PUSH2 0x36A PUSH1 0x1 PUSH3 0xF4240 PUSH2 0x461 JUMP JUMPDEST PUSH2 0x372 PUSH2 0x480 JUMP JUMPDEST SWAP1 PUSH4 0xFFFFFFFF PUSH2 0x494 AND JUMP JUMPDEST PUSH1 0xC SSTORE PUSH2 0x38F PUSH2 0x2715 PUSH2 0x3E8 PUSH2 0x461 JUMP JUMPDEST PUSH1 0xD SSTORE POP POP PUSH1 0x1 DUP1 SLOAD PUSH32 0xFFFFFFFFFFFFFFFFFFFFFFFFFFFFFFFFFFFFFFFFFFFFFFFFFFFFFFFFFFFFFF00 AND DUP2 OR SWAP1 SSTORE JUMP JUMPDEST PUSH1 0x0 DUP1 DUP4 SLT ISZERO PUSH2 0x3FC JUMPI PUSH1 0x40 MLOAD PUSH32 0x8C379A000000000000000000000000000000000000000000000000000000000 DUP2 MSTORE PUSH1 0x4 ADD PUSH2 0x194 SWAP1 PUSH2 0x998 JUMP JUMPDEST PUSH1 0x0 DUP3 SLT ISZERO PUSH2 0x437 JUMPI PUSH1 0x40 MLOAD PUSH32 0x8C379A000000000000000000000000000000000000000000000000000000000 DUP2 MSTORE PUSH1 0x4 ADD PUSH2 0x194 SWAP1 PUSH2 0x85F JUMP JUMPDEST PUSH2 0x45A PUSH2 0x454 DUP5 PUSH16 0x80000000000000000000000000000000 PUSH2 0x4FD JUMP JUMPDEST DUP4 PUSH2 0x579 JUMP JUMPDEST SWAP4 SWAP3 POP POP POP JUMP JUMPDEST PUSH1 0x0 PUSH2 0x45A PUSH2 0x454 DUP5 PUSH16 0x80000000000000000000000000000000 PUSH2 0x4FD JUMP JUMPDEST PUSH16 0x80000000000000000000000000000000 SWAP1 JUMP JUMPDEST PUSH1 0x0 PUSH32 0x8000000000000000000000000000000000000000000000000000000000000000 DUP3 EQ ISZERO PUSH2 0x4F0 JUMPI PUSH1 0x40 MLOAD PUSH32 0x8C379A000000000000000000000000000000000000000000000000000000000 DUP2 MSTORE PUSH1 0x4 ADD PUSH2 0x194 SWAP1 PUSH2 0x961 JUMP JUMPDEST PUSH2 0x45A DUP4 DUP4 PUSH1 0x0 SUB PUSH2 0x648 JUMP JUMPDEST PUSH1 0x0 DUP3 ISZERO DUP1 PUSH2 0x50A JUMPI POP DUP2 ISZERO JUMPDEST ISZERO PUSH2 0x517 JUMPI POP PUSH1 0x0 PUSH2 0x573 JUMP JUMPDEST POP DUP2 DUP2 MUL DUP2 DUP4 DUP3 DUP2 PUSH2 0x525 JUMPI INVALID JUMPDEST SDIV EQ ISZERO DUP1 PUSH2 0x53C JUMPI POP DUP3 DUP3 DUP3 DUP2 PUSH2 0x538 JUMPI INVALID JUMPDEST SDIV EQ ISZERO JUMPDEST ISZERO PUSH2 0x573 JUMPI PUSH1 0x40 MLOAD PUSH32 0x8C379A000000000000000000000000000000000000000000000000000000000 DUP2 MSTORE PUSH1 0x4 ADD PUSH2 0x194 SWAP1 PUSH2 0x8F3 JUMP JUMPDEST SWAP3 SWAP2 POP POP JUMP JUMPDEST PUSH1 0x0 DUP2 PUSH2 0x5B2 JUMPI PUSH1 0x40 MLOAD PUSH32 0x8C379A000000000000000000000000000000000000000000000000000000000 DUP2 MSTORE PUSH1 0x4 ADD PUSH2 0x194 SWAP1 PUSH2 0x9F5 JUMP JUMPDEST PUSH32 0x8000000000000000000000000000000000000000000000000000000000000000 DUP4 EQ DUP1 ISZERO PUSH2 0x600 JUMPI POP DUP2 PUSH32 0xFFFFFFFFFFFFFFFFFFFFFFFFFFFFFFFFFFFFFFFFFFFFFFFFFFFFFFFFFFFFFFFF EQ JUMPDEST ISZERO PUSH2 0x637 JUMPI PUSH1 0x40 MLOAD PUSH32 0x8C379A000000000000000000000000000000000000000000000000000000000 DUP2 MSTORE PUSH1 0x4 ADD PUSH2 0x194 SWAP1 PUSH2 0xA2C JUMP JUMPDEST DUP2 DUP4 DUP2 PUSH2 0x640 JUMPI INVALID JUMPDEST SDIV SWAP4 SWAP3 POP POP POP JUMP JUMPDEST DUP2 DUP2 ADD PUSH1 0x0 DUP4 SLT DUP1 ISZERO PUSH2 0x65B JUMPI POP PUSH1 0x0 DUP3 SLT JUMPDEST DUP1 ISZERO PUSH2 0x666 JUMPI POP DUP3 DUP2 SGT JUMPDEST DUP1 PUSH2 0x687 JUMPI POP PUSH1 0x0 DUP4 SGT DUP1 ISZERO PUSH2 0x67C JUMPI POP PUSH1 0x0 DUP3 SGT JUMPDEST DUP1 ISZERO PUSH2 0x687 JUMPI POP DUP3 DUP2 SLT JUMPDEST ISZERO PUSH2 0x573 JUMPI PUSH1 0x40 MLOAD PUSH32 0x8C379A000000000000000000000000000000000000000000000000000000000 DUP2 MSTORE PUSH1 0x4 ADD PUSH2 0x194 SWAP1 PUSH2 0x92A JUMP JUMPDEST DUP1 CALLDATALOAD PUSH20 0xFFFFFFFFFFFFFFFFFFFFFFFFFFFFFFFFFFFFFFFF DUP2 AND DUP2 EQ PUSH2 0x573 JUMPI PUSH1 0x0 DUP1 REVERT JUMPDEST PUSH1 0x0 PUSH1 0x20 DUP3 DUP5 SUB SLT ISZERO PUSH2 0x6F3 JUMPI DUP1 DUP2 REVERT JUMPDEST PUSH2 0x45A DUP4 DUP4 PUSH2 0x6BE JUMP JUMPDEST PUSH1 0x0 DUP1 PUSH1 0x40 DUP4 DUP6 SUB SLT ISZERO PUSH2 0x70F JUMPI DUP1 DUP2 REVERT JUMPDEST PUSH2 0x719 DUP5 DUP5 PUSH2 0x6BE JUMP JUMPDEST SWAP2 POP PUSH2 0x728 DUP5 PUSH1 0x20 DUP6 ADD PUSH2 0x6BE JUMP JUMPDEST SWAP1 POP SWAP3 POP SWAP3 SWAP1 POP JUMP JUMPDEST PUSH20 0xFFFFFFFFFFFFFFFFFFFFFFFFFFFFFFFFFFFFFFFF SWAP2 SWAP1 SWAP2 AND DUP2 MSTORE PUSH1 0x20 ADD SWAP1 JUMP JUMPDEST PUSH20 0xFFFFFFFFFFFFFFFFFFFFFFFFFFFFFFFFFFFFFFFF SWAP3 DUP4 AND DUP2 MSTORE SWAP2 AND PUSH1 0x20 DUP3 ADD MSTORE PUSH1 0x40 ADD SWAP1 JUMP JUMPDEST SWAP13 ISZERO ISZERO DUP14 MSTORE PUSH20 0xFFFFFFFFFFFFFFFFFFFFFFFFFFFFFFFFFFFFFFFF SWAP12 DUP13 AND PUSH1 0x20 DUP15 ADD MSTORE SWAP10 SWAP1 SWAP11 AND PUSH1 0x40 DUP13 ADD MSTORE PUSH1 0x60 DUP12 ADD SWAP8 SWAP1 SWAP8 MSTORE PUSH1 0x80 DUP11 ADD SWAP6 SWAP1 SWAP6 MSTORE PUSH1 0xA0 DUP10 ADD SWAP4 SWAP1 SWAP4 MSTORE PUSH1 0xC0 DUP9 ADD SWAP2 SWAP1 SWAP2 MSTORE PUSH1 0xE0 DUP8 ADD MSTORE PUSH2 0x100 DUP7 ADD MSTORE PUSH2 0x120 DUP6 ADD MSTORE PUSH2 0x140 DUP5 ADD MSTORE PUSH2 0x160 DUP4 ADD SWAP2 SWAP1 SWAP2 MSTORE PUSH2 0x180 DUP3 ADD MSTORE PUSH2 0x1A0 ADD SWAP1 JUMP JUMPDEST PUSH1 0x20 DUP1 DUP3 MSTORE PUSH1 0xE SWAP1 DUP3 ADD MSTORE PUSH32 0x4F6E6C794F776E65724572726F72000000000000000000000000000000000000 PUSH1 0x40 DUP3 ADD MSTORE PUSH1 0x60 ADD SWAP1 JUMP JUMPDEST PUSH1 0x20 DUP1 DUP3 MSTORE PUSH1 0x13 SWAP1 DUP3 ADD MSTORE PUSH32 0x416C726561647920496E697469616C697A656400000000000000000000000000 PUSH1 0x40 DUP3 ADD MSTORE PUSH1 0x60 ADD SWAP1 JUMP JUMPDEST PUSH1 0x20 DUP1 DUP3 MSTORE PUSH1 0x38 SWAP1 DUP3 ADD MSTORE PUSH32 0x746F46697865642875696E742C75696E74293A2064656E6F6D696E61746F7220 PUSH1 0x40 DUP3 ADD MSTORE PUSH32 0x63616E6E6F74206265206C657373207468616E207A65726F0000000000000000 PUSH1 0x60 DUP3 ADD MSTORE PUSH1 0x80 ADD SWAP1 JUMP JUMPDEST PUSH1 0x20 DUP1 DUP3 MSTORE PUSH1 0x18 SWAP1 DUP3 ADD MSTORE PUSH32 0x5472616E736665724F776E6572546F5A65726F4572726F720000000000000000 PUSH1 0x40 DUP3 ADD MSTORE PUSH1 0x60 ADD SWAP1 JUMP JUMPDEST PUSH1 0x20 DUP1 DUP3 MSTORE PUSH1 0xE SWAP1 DUP3 ADD MSTORE PUSH32 0x5F6D756C3A206F766572666C6F77000000000000000000000000000000000000 PUSH1 0x40 DUP3 ADD MSTORE PUSH1 0x60 ADD SWAP1 JUMP JUMPDEST PUSH1 0x20 DUP1 DUP3 MSTORE PUSH1 0xE SWAP1 DUP3 ADD MSTORE PUSH32 0x5F6164643A206F766572666C6F77000000000000000000000000000000000000 PUSH1 0x40 DUP3 ADD MSTORE PUSH1 0x60 ADD SWAP1 JUMP JUMPDEST PUSH1 0x20 DUP1 DUP3 MSTORE PUSH1 0x14 SWAP1 DUP3 ADD MSTORE PUSH32 0x7375623A2076616C756520746F6F20736D616C6C000000000000000000000000 PUSH1 0x40 DUP3 ADD MSTORE PUSH1 0x60 ADD SWAP1 JUMP JUMPDEST PUSH1 0x20 DUP1 DUP3 MSTORE PUSH1 0x36 SWAP1 DUP3 ADD MSTORE PUSH32 0x746F46697865642875696E742C75696E74293A206E756D657261746F72206361 PUSH1 0x40 DUP3 ADD MSTORE PUSH32 0x6E6E6F74206265206C657373207468616E207A65726F00000000000000000000 PUSH1 0x60 DUP3 ADD MSTORE PUSH1 0x80 ADD SWAP1 JUMP JUMPDEST PUSH1 0x20 DUP1 DUP3 MSTORE PUSH1 0x14 SWAP1 DUP3 ADD MSTORE PUSH32 0x5F6469763A20646976696465206279207A65726F000000000000000000000000 PUSH1 0x40 DUP3 ADD MSTORE PUSH1 0x60 ADD SWAP1 JUMP JUMPDEST PUSH1 0x20 DUP1 DUP3 MSTORE PUSH1 0xE SWAP1 DUP3 ADD MSTORE PUSH32 0x5F6469763A206F766572666C6F77000000000000000000000000000000000000 PUSH1 0x40 DUP3 ADD MSTORE PUSH1 0x60 ADD SWAP1 JUMP INVALID LOG3 PUSH6 0x627A7A723158 KECCAK256 CALLDATACOPY 0xe7 0xbd 0xd1 SIGNEXTEND 0xbe 0xaa SWAP11 0xbd 0xcb 0xc5 0xa7 OR 0x5c 0xe9 PUSH15 0xD0007A48FC2BDD45FCFE906D74BDCC 0xae PUSH13 0x6578706572696D656E74616CF5 PUSH5 0x736F6C6343 STOP SDIV 0xc STOP BLOCKHASH "
			}
		}
	},
	"sourceTreeHashHex": "0x53dfd08313ee29ee876dacf73e1df77a5f8f2164bffe4008e7e94a8a267f2aea",
	"compiler": {
		"name": "solc",
		"version": "soljson-v0.5.12+commit.7709ece9.js",
		"settings": {
			"optimizer": {
				"enabled": true,
				"runs": 1000000,
				"details": {
					"yul": true,
					"deduplicate": true,
					"cse": true,
					"constantOptimizer": true
				}
			},
			"outputSelection": {
				"*": {
					"*": [
						"abi",
						"devdoc",
						"evm.bytecode.object",
						"evm.bytecode.sourceMap",
						"evm.deployedBytecode.object",
						"evm.deployedBytecode.sourceMap"
					]
				}
			},
			"evmVersion": "constantinople",
			"remappings": []
		}
	},
	"chains": {}
}