{
	"schemaVersion": "2.0.0",
	"contractName": "State",
	"compilerOutput": {
		"abi": [
			{
				"anonymous": false,
				"inputs": [
					{
						"indexed": false,
						"internalType": "address",
						"name": "oldOwner",
						"type": "address"
					},
					{
						"indexed": false,
						"internalType": "address",
						"name": "newOwner",
						"type": "address"
					}
				],
				"name": "OwnershipTransferred",
				"type": "event"
			},
			{
				"constant": false,
				"inputs": [],
				"name": "initState",
				"outputs": [],
				"payable": false,
				"stateMutability": "nonpayable",
				"type": "function"
			},
			{
				"constant": true,
				"inputs": [],
				"name": "owner",
				"outputs": [
					{
						"internalType": "address",
						"name": "",
						"type": "address"
					}
				],
				"payable": false,
				"stateMutability": "view",
				"type": "function"
			},
			{
				"constant": false,
				"inputs": [
					{
						"internalType": "address",
						"name": "newOwner",
						"type": "address"
					}
				],
				"name": "transferOwnership",
				"outputs": [],
				"payable": false,
				"stateMutability": "nonpayable",
				"type": "function"
			}
		],
		"devdoc": {
			"methods": {}
		},
		"evm": {
			"bytecode": {
				"linkReferences": {},
				"object": "0x6080604052600080546001600160a01b031916331790556108f2806100256000396000f3fe608060405234801561001057600080fd5b50600436106100415760003560e01c80636d83c92c146100465780638da5cb5b14610050578063f2fde38b1461006e575b600080fd5b61004e610081565b005b610058610166565b60405161006591906105f5565b60405180910390f35b61004e61007c3660046105c1565b610182565b610089610254565b60015460ff16156100cf576040517f08c379a00000000000000000000000000000000000000000000000000000000081526004016100c690610674565b60405180910390fd5b6100d960016102a7565b600555606360068190556100ee9060646102c9565b6007556100fe60056127106102c9565b6008556101266101126001620f424061036a565b61011a610389565b9063ffffffff61039d16565b600c556101376127156103e861036a565b600d55600180547fffffffffffffffffffffffffffffffffffffffffffffffffffffffffffffff001681179055565b60005473ffffffffffffffffffffffffffffffffffffffff1681565b61018a610254565b73ffffffffffffffffffffffffffffffffffffffff81166101d7576040517f08c379a00000000000000000000000000000000000000000000000000000000081526004016100c690610708565b600080547fffffffffffffffffffffffff00000000000000000000000000000000000000001673ffffffffffffffffffffffffffffffffffffffff83161790556040517f8be0079c531659141344cd1fd0a4f28419497f9722a3daafe3b4186f6b6457e0906102499033908490610616565b60405180910390a150565b60005473ffffffffffffffffffffffffffffffffffffffff1633146102a5576040517f08c379a00000000000000000000000000000000000000000000000000000000081526004016100c69061063d565b565b60006102c3826f80000000000000000000000000000000610406565b92915050565b600080831215610305576040517f08c379a00000000000000000000000000000000000000000000000000000000081526004016100c6906107e4565b6000821215610340576040517f08c379a00000000000000000000000000000000000000000000000000000000081526004016100c6906106ab565b61036361035d846f80000000000000000000000000000000610406565b8361047c565b9392505050565b600061036361035d846f80000000000000000000000000000000610406565b6f8000000000000000000000000000000090565b60007f80000000000000000000000000000000000000000000000000000000000000008214156103f9576040517f08c379a00000000000000000000000000000000000000000000000000000000081526004016100c6906107ad565b610363838360000361054b565b6000821580610413575081155b15610420575060006102c3565b508181028183828161042e57fe5b0514158061044557508282828161044157fe5b0514155b156102c3576040517f08c379a00000000000000000000000000000000000000000000000000000000081526004016100c69061073f565b6000816104b5576040517f08c379a00000000000000000000000000000000000000000000000000000000081526004016100c690610841565b7f8000000000000000000000000000000000000000000000000000000000000000831480156105035750817fffffffffffffffffffffffffffffffffffffffffffffffffffffffffffffffff145b1561053a576040517f08c379a00000000000000000000000000000000000000000000000000000000081526004016100c690610878565b81838161054357fe5b059392505050565b81810160008312801561055e5750600082125b801561056957508281135b8061058a575060008313801561057f5750600082135b801561058a57508281125b156102c3576040517f08c379a00000000000000000000000000000000000000000000000000000000081526004016100c690610776565b6000602082840312156105d2578081fd5b813573ffffffffffffffffffffffffffffffffffffffff81168114610363578182fd5b73ffffffffffffffffffffffffffffffffffffffff91909116815260200190565b73ffffffffffffffffffffffffffffffffffffffff92831681529116602082015260400190565b6020808252600e908201527f4f6e6c794f776e65724572726f72000000000000000000000000000000000000604082015260600190565b60208082526013908201527f416c726561647920496e697469616c697a656400000000000000000000000000604082015260600190565b60208082526038908201527f746f46697865642875696e742c75696e74293a2064656e6f6d696e61746f722060408201527f63616e6e6f74206265206c657373207468616e207a65726f0000000000000000606082015260800190565b60208082526018908201527f5472616e736665724f776e6572546f5a65726f4572726f720000000000000000604082015260600190565b6020808252600e908201527f5f6d756c3a206f766572666c6f77000000000000000000000000000000000000604082015260600190565b6020808252600e908201527f5f6164643a206f766572666c6f77000000000000000000000000000000000000604082015260600190565b60208082526014908201527f7375623a2076616c756520746f6f20736d616c6c000000000000000000000000604082015260600190565b60208082526036908201527f746f46697865642875696e742c75696e74293a206e756d657261746f7220636160408201527f6e6e6f74206265206c657373207468616e207a65726f00000000000000000000606082015260800190565b60208082526014908201527f5f6469763a20646976696465206279207a65726f000000000000000000000000604082015260600190565b6020808252600e908201527f5f6469763a206f766572666c6f7700000000000000000000000000000000000060408201526060019056fea365627a7a723158207bbe647ba0fb578ef5a2ea8ce9bbcffc464b136aa4d47ab3855f808bdb0981a96c6578706572696d656e74616cf564736f6c634300050d0040",
				"opcodes": "PUSH1 0x80 PUSH1 0x40 MSTORE PUSH1 0x0 DUP1 SLOAD PUSH1 0x1 PUSH1 0x1 PUSH1 0xA0 SHL SUB NOT AND CALLER OR SWAP1 SSTORE PUSH2 0x8F2 DUP1 PUSH2 0x25 PUSH1 0x0 CODECOPY PUSH1 0x0 RETURN INVALID PUSH1 0x80 PUSH1 0x40 MSTORE CALLVALUE DUP1 ISZERO PUSH2 0x10 JUMPI PUSH1 0x0 DUP1 REVERT JUMPDEST POP PUSH1 0x4 CALLDATASIZE LT PUSH2 0x41 JUMPI PUSH1 0x0 CALLDATALOAD PUSH1 0xE0 SHR DUP1 PUSH4 0x6D83C92C EQ PUSH2 0x46 JUMPI DUP1 PUSH4 0x8DA5CB5B EQ PUSH2 0x50 JUMPI DUP1 PUSH4 0xF2FDE38B EQ PUSH2 0x6E JUMPI JUMPDEST PUSH1 0x0 DUP1 REVERT JUMPDEST PUSH2 0x4E PUSH2 0x81 JUMP JUMPDEST STOP JUMPDEST PUSH2 0x58 PUSH2 0x166 JUMP JUMPDEST PUSH1 0x40 MLOAD PUSH2 0x65 SWAP2 SWAP1 PUSH2 0x5F5 JUMP JUMPDEST PUSH1 0x40 MLOAD DUP1 SWAP2 SUB SWAP1 RETURN JUMPDEST PUSH2 0x4E PUSH2 0x7C CALLDATASIZE PUSH1 0x4 PUSH2 0x5C1 JUMP JUMPDEST PUSH2 0x182 JUMP JUMPDEST PUSH2 0x89 PUSH2 0x254 JUMP JUMPDEST PUSH1 0x1 SLOAD PUSH1 0xFF AND ISZERO PUSH2 0xCF JUMPI PUSH1 0x40 MLOAD PUSH32 0x8C379A000000000000000000000000000000000000000000000000000000000 DUP2 MSTORE PUSH1 0x4 ADD PUSH2 0xC6 SWAP1 PUSH2 0x674 JUMP JUMPDEST PUSH1 0x40 MLOAD DUP1 SWAP2 SUB SWAP1 REVERT JUMPDEST PUSH2 0xD9 PUSH1 0x1 PUSH2 0x2A7 JUMP JUMPDEST PUSH1 0x5 SSTORE PUSH1 0x63 PUSH1 0x6 DUP2 SWAP1 SSTORE PUSH2 0xEE SWAP1 PUSH1 0x64 PUSH2 0x2C9 JUMP JUMPDEST PUSH1 0x7 SSTORE PUSH2 0xFE PUSH1 0x5 PUSH2 0x2710 PUSH2 0x2C9 JUMP JUMPDEST PUSH1 0x8 SSTORE PUSH2 0x126 PUSH2 0x112 PUSH1 0x1 PUSH3 0xF4240 PUSH2 0x36A JUMP JUMPDEST PUSH2 0x11A PUSH2 0x389 JUMP JUMPDEST SWAP1 PUSH4 0xFFFFFFFF PUSH2 0x39D AND JUMP JUMPDEST PUSH1 0xC SSTORE PUSH2 0x137 PUSH2 0x2715 PUSH2 0x3E8 PUSH2 0x36A JUMP JUMPDEST PUSH1 0xD SSTORE PUSH1 0x1 DUP1 SLOAD PUSH32 0xFFFFFFFFFFFFFFFFFFFFFFFFFFFFFFFFFFFFFFFFFFFFFFFFFFFFFFFFFFFFFF00 AND DUP2 OR SWAP1 SSTORE JUMP JUMPDEST PUSH1 0x0 SLOAD PUSH20 0xFFFFFFFFFFFFFFFFFFFFFFFFFFFFFFFFFFFFFFFF AND DUP2 JUMP JUMPDEST PUSH2 0x18A PUSH2 0x254 JUMP JUMPDEST PUSH20 0xFFFFFFFFFFFFFFFFFFFFFFFFFFFFFFFFFFFFFFFF DUP2 AND PUSH2 0x1D7 JUMPI PUSH1 0x40 MLOAD PUSH32 0x8C379A000000000000000000000000000000000000000000000000000000000 DUP2 MSTORE PUSH1 0x4 ADD PUSH2 0xC6 SWAP1 PUSH2 0x708 JUMP JUMPDEST PUSH1 0x0 DUP1 SLOAD PUSH32 0xFFFFFFFFFFFFFFFFFFFFFFFF0000000000000000000000000000000000000000 AND PUSH20 0xFFFFFFFFFFFFFFFFFFFFFFFFFFFFFFFFFFFFFFFF DUP4 AND OR SWAP1 SSTORE PUSH1 0x40 MLOAD PUSH32 0x8BE0079C531659141344CD1FD0A4F28419497F9722A3DAAFE3B4186F6B6457E0 SWAP1 PUSH2 0x249 SWAP1 CALLER SWAP1 DUP5 SWAP1 PUSH2 0x616 JUMP JUMPDEST PUSH1 0x40 MLOAD DUP1 SWAP2 SUB SWAP1 LOG1 POP JUMP JUMPDEST PUSH1 0x0 SLOAD PUSH20 0xFFFFFFFFFFFFFFFFFFFFFFFFFFFFFFFFFFFFFFFF AND CALLER EQ PUSH2 0x2A5 JUMPI PUSH1 0x40 MLOAD PUSH32 0x8C379A000000000000000000000000000000000000000000000000000000000 DUP2 MSTORE PUSH1 0x4 ADD PUSH2 0xC6 SWAP1 PUSH2 0x63D JUMP JUMPDEST JUMP JUMPDEST PUSH1 0x0 PUSH2 0x2C3 DUP3 PUSH16 0x80000000000000000000000000000000 PUSH2 0x406 JUMP JUMPDEST SWAP3 SWAP2 POP POP JUMP JUMPDEST PUSH1 0x0 DUP1 DUP4 SLT ISZERO PUSH2 0x305 JUMPI PUSH1 0x40 MLOAD PUSH32 0x8C379A000000000000000000000000000000000000000000000000000000000 DUP2 MSTORE PUSH1 0x4 ADD PUSH2 0xC6 SWAP1 PUSH2 0x7E4 JUMP JUMPDEST PUSH1 0x0 DUP3 SLT ISZERO PUSH2 0x340 JUMPI PUSH1 0x40 MLOAD PUSH32 0x8C379A000000000000000000000000000000000000000000000000000000000 DUP2 MSTORE PUSH1 0x4 ADD PUSH2 0xC6 SWAP1 PUSH2 0x6AB JUMP JUMPDEST PUSH2 0x363 PUSH2 0x35D DUP5 PUSH16 0x80000000000000000000000000000000 PUSH2 0x406 JUMP JUMPDEST DUP4 PUSH2 0x47C JUMP JUMPDEST SWAP4 SWAP3 POP POP POP JUMP JUMPDEST PUSH1 0x0 PUSH2 0x363 PUSH2 0x35D DUP5 PUSH16 0x80000000000000000000000000000000 PUSH2 0x406 JUMP JUMPDEST PUSH16 0x80000000000000000000000000000000 SWAP1 JUMP JUMPDEST PUSH1 0x0 PUSH32 0x8000000000000000000000000000000000000000000000000000000000000000 DUP3 EQ ISZERO PUSH2 0x3F9 JUMPI PUSH1 0x40 MLOAD PUSH32 0x8C379A000000000000000000000000000000000000000000000000000000000 DUP2 MSTORE PUSH1 0x4 ADD PUSH2 0xC6 SWAP1 PUSH2 0x7AD JUMP JUMPDEST PUSH2 0x363 DUP4 DUP4 PUSH1 0x0 SUB PUSH2 0x54B JUMP JUMPDEST PUSH1 0x0 DUP3 ISZERO DUP1 PUSH2 0x413 JUMPI POP DUP2 ISZERO JUMPDEST ISZERO PUSH2 0x420 JUMPI POP PUSH1 0x0 PUSH2 0x2C3 JUMP JUMPDEST POP DUP2 DUP2 MUL DUP2 DUP4 DUP3 DUP2 PUSH2 0x42E JUMPI INVALID JUMPDEST SDIV EQ ISZERO DUP1 PUSH2 0x445 JUMPI POP DUP3 DUP3 DUP3 DUP2 PUSH2 0x441 JUMPI INVALID JUMPDEST SDIV EQ ISZERO JUMPDEST ISZERO PUSH2 0x2C3 JUMPI PUSH1 0x40 MLOAD PUSH32 0x8C379A000000000000000000000000000000000000000000000000000000000 DUP2 MSTORE PUSH1 0x4 ADD PUSH2 0xC6 SWAP1 PUSH2 0x73F JUMP JUMPDEST PUSH1 0x0 DUP2 PUSH2 0x4B5 JUMPI PUSH1 0x40 MLOAD PUSH32 0x8C379A000000000000000000000000000000000000000000000000000000000 DUP2 MSTORE PUSH1 0x4 ADD PUSH2 0xC6 SWAP1 PUSH2 0x841 JUMP JUMPDEST PUSH32 0x8000000000000000000000000000000000000000000000000000000000000000 DUP4 EQ DUP1 ISZERO PUSH2 0x503 JUMPI POP DUP2 PUSH32 0xFFFFFFFFFFFFFFFFFFFFFFFFFFFFFFFFFFFFFFFFFFFFFFFFFFFFFFFFFFFFFFFF EQ JUMPDEST ISZERO PUSH2 0x53A JUMPI PUSH1 0x40 MLOAD PUSH32 0x8C379A000000000000000000000000000000000000000000000000000000000 DUP2 MSTORE PUSH1 0x4 ADD PUSH2 0xC6 SWAP1 PUSH2 0x878 JUMP JUMPDEST DUP2 DUP4 DUP2 PUSH2 0x543 JUMPI INVALID JUMPDEST SDIV SWAP4 SWAP3 POP POP POP JUMP JUMPDEST DUP2 DUP2 ADD PUSH1 0x0 DUP4 SLT DUP1 ISZERO PUSH2 0x55E JUMPI POP PUSH1 0x0 DUP3 SLT JUMPDEST DUP1 ISZERO PUSH2 0x569 JUMPI POP DUP3 DUP2 SGT JUMPDEST DUP1 PUSH2 0x58A JUMPI POP PUSH1 0x0 DUP4 SGT DUP1 ISZERO PUSH2 0x57F JUMPI POP PUSH1 0x0 DUP3 SGT JUMPDEST DUP1 ISZERO PUSH2 0x58A JUMPI POP DUP3 DUP2 SLT JUMPDEST ISZERO PUSH2 0x2C3 JUMPI PUSH1 0x40 MLOAD PUSH32 0x8C379A000000000000000000000000000000000000000000000000000000000 DUP2 MSTORE PUSH1 0x4 ADD PUSH2 0xC6 SWAP1 PUSH2 0x776 JUMP JUMPDEST PUSH1 0x0 PUSH1 0x20 DUP3 DUP5 SUB SLT ISZERO PUSH2 0x5D2 JUMPI DUP1 DUP2 REVERT JUMPDEST DUP2 CALLDATALOAD PUSH20 0xFFFFFFFFFFFFFFFFFFFFFFFFFFFFFFFFFFFFFFFF DUP2 AND DUP2 EQ PUSH2 0x363 JUMPI DUP2 DUP3 REVERT JUMPDEST PUSH20 0xFFFFFFFFFFFFFFFFFFFFFFFFFFFFFFFFFFFFFFFF SWAP2 SWAP1 SWAP2 AND DUP2 MSTORE PUSH1 0x20 ADD SWAP1 JUMP JUMPDEST PUSH20 0xFFFFFFFFFFFFFFFFFFFFFFFFFFFFFFFFFFFFFFFF SWAP3 DUP4 AND DUP2 MSTORE SWAP2 AND PUSH1 0x20 DUP3 ADD MSTORE PUSH1 0x40 ADD SWAP1 JUMP JUMPDEST PUSH1 0x20 DUP1 DUP3 MSTORE PUSH1 0xE SWAP1 DUP3 ADD MSTORE PUSH32 0x4F6E6C794F776E65724572726F72000000000000000000000000000000000000 PUSH1 0x40 DUP3 ADD MSTORE PUSH1 0x60 ADD SWAP1 JUMP JUMPDEST PUSH1 0x20 DUP1 DUP3 MSTORE PUSH1 0x13 SWAP1 DUP3 ADD MSTORE PUSH32 0x416C726561647920496E697469616C697A656400000000000000000000000000 PUSH1 0x40 DUP3 ADD MSTORE PUSH1 0x60 ADD SWAP1 JUMP JUMPDEST PUSH1 0x20 DUP1 DUP3 MSTORE PUSH1 0x38 SWAP1 DUP3 ADD MSTORE PUSH32 0x746F46697865642875696E742C75696E74293A2064656E6F6D696E61746F7220 PUSH1 0x40 DUP3 ADD MSTORE PUSH32 0x63616E6E6F74206265206C657373207468616E207A65726F0000000000000000 PUSH1 0x60 DUP3 ADD MSTORE PUSH1 0x80 ADD SWAP1 JUMP JUMPDEST PUSH1 0x20 DUP1 DUP3 MSTORE PUSH1 0x18 SWAP1 DUP3 ADD MSTORE PUSH32 0x5472616E736665724F776E6572546F5A65726F4572726F720000000000000000 PUSH1 0x40 DUP3 ADD MSTORE PUSH1 0x60 ADD SWAP1 JUMP JUMPDEST PUSH1 0x20 DUP1 DUP3 MSTORE PUSH1 0xE SWAP1 DUP3 ADD MSTORE PUSH32 0x5F6D756C3A206F766572666C6F77000000000000000000000000000000000000 PUSH1 0x40 DUP3 ADD MSTORE PUSH1 0x60 ADD SWAP1 JUMP JUMPDEST PUSH1 0x20 DUP1 DUP3 MSTORE PUSH1 0xE SWAP1 DUP3 ADD MSTORE PUSH32 0x5F6164643A206F766572666C6F77000000000000000000000000000000000000 PUSH1 0x40 DUP3 ADD MSTORE PUSH1 0x60 ADD SWAP1 JUMP JUMPDEST PUSH1 0x20 DUP1 DUP3 MSTORE PUSH1 0x14 SWAP1 DUP3 ADD MSTORE PUSH32 0x7375623A2076616C756520746F6F20736D616C6C000000000000000000000000 PUSH1 0x40 DUP3 ADD MSTORE PUSH1 0x60 ADD SWAP1 JUMP JUMPDEST PUSH1 0x20 DUP1 DUP3 MSTORE PUSH1 0x36 SWAP1 DUP3 ADD MSTORE PUSH32 0x746F46697865642875696E742C75696E74293A206E756D657261746F72206361 PUSH1 0x40 DUP3 ADD MSTORE PUSH32 0x6E6E6F74206265206C657373207468616E207A65726F00000000000000000000 PUSH1 0x60 DUP3 ADD MSTORE PUSH1 0x80 ADD SWAP1 JUMP JUMPDEST PUSH1 0x20 DUP1 DUP3 MSTORE PUSH1 0x14 SWAP1 DUP3 ADD MSTORE PUSH32 0x5F6469763A20646976696465206279207A65726F000000000000000000000000 PUSH1 0x40 DUP3 ADD MSTORE PUSH1 0x60 ADD SWAP1 JUMP JUMPDEST PUSH1 0x20 DUP1 DUP3 MSTORE PUSH1 0xE SWAP1 DUP3 ADD MSTORE PUSH32 0x5F6469763A206F766572666C6F77000000000000000000000000000000000000 PUSH1 0x40 DUP3 ADD MSTORE PUSH1 0x60 ADD SWAP1 JUMP INVALID LOG3 PUSH6 0x627A7A723158 KECCAK256 PUSH28 0xBE647BA0FB578EF5A2EA8CE9BBCFFC464B136AA4D47AB3855F808BDB MULMOD DUP2 0xA9 PUSH13 0x6578706572696D656E74616CF5 PUSH5 0x736F6C6343 STOP SDIV 0xD STOP BLOCKHASH "
			}
		}
	},
	"sourceTreeHashHex": "0x78ef598f636201edd7c39aa43c9ffaae6ee2a2a8771c7604d63538c312e637d0",
	"compiler": {
		"name": "solc",
		"version": "soljson-v0.5.13+commit.5b0b510c.js",
		"settings": {
			"optimizer": {
				"enabled": true,
				"runs": 1000000,
				"details": {
					"yul": true,
					"deduplicate": true,
					"cse": true,
					"constantOptimizer": true
				}
			},
			"outputSelection": {
				"*": {
					"*": [
						"abi",
						"devdoc",
						"evm.bytecode.object",
						"evm.bytecode.sourceMap",
						"evm.deployedBytecode.object",
						"evm.deployedBytecode.sourceMap"
					]
				}
			},
			"evmVersion": "constantinople",
			"remappings": []
		}
	},
	"chains": {}
}