{
	"schemaVersion": "2.0.0",
	"contractName": "Swapper",
	"compilerOutput": {
		"abi": [
			{
				"anonymous": false,
				"inputs": [
					{
						"indexed": false,
						"internalType": "int256",
						"name": "lhs1",
						"type": "int256"
					},
					{
						"indexed": false,
						"internalType": "int256",
						"name": "mid",
						"type": "int256"
					},
					{
						"indexed": false,
						"internalType": "int256",
						"name": "lhs",
						"type": "int256"
					}
				],
				"name": "Bisect",
				"type": "event"
			},
			{
				"anonymous": false,
				"inputs": [
					{
						"indexed": false,
						"internalType": "address",
						"name": "from",
						"type": "address"
					},
					{
						"indexed": false,
						"internalType": "address",
						"name": "fromToken",
						"type": "address"
					},
					{
						"indexed": false,
						"internalType": "address",
						"name": "toToken",
						"type": "address"
					},
					{
						"indexed": false,
						"internalType": "uint256",
						"name": "amountSpent",
						"type": "uint256"
					},
					{
						"indexed": false,
						"internalType": "uint256",
						"name": "amountReceived",
						"type": "uint256"
					}
				],
				"name": "Fill",
				"type": "event"
			},
			{
				"anonymous": false,
				"inputs": [
					{
						"indexed": false,
						"internalType": "address",
						"name": "from",
						"type": "address"
					},
					{
						"indexed": false,
						"internalType": "int256",
						"name": "amountSpent",
						"type": "int256"
					},
					{
						"indexed": false,
						"internalType": "int256",
						"name": "amountReceived",
						"type": "int256"
					}
				],
				"name": "FillInternal",
				"type": "event"
			},
			{
				"anonymous": false,
				"inputs": [
					{
						"indexed": false,
						"internalType": "address",
						"name": "oldOwner",
						"type": "address"
					},
					{
						"indexed": false,
						"internalType": "address",
						"name": "newOwner",
						"type": "address"
					}
				],
				"name": "OwnershipTransferred",
				"type": "event"
			},
			{
				"anonymous": false,
				"inputs": [
					{
						"indexed": false,
						"internalType": "int256",
						"name": "price",
						"type": "int256"
					},
					{
						"indexed": false,
						"internalType": "int256",
						"name": "deltaB",
						"type": "int256"
					},
					{
						"indexed": false,
						"internalType": "int256",
						"name": "newPBarX",
						"type": "int256"
					},
					{
						"indexed": false,
						"internalType": "int256",
						"name": "pA",
						"type": "int256"
					}
				],
				"name": "Price",
				"type": "event"
			},
			{
				"constant": false,
				"inputs": [],
				"name": "initState",
				"outputs": [],
				"payable": false,
				"stateMutability": "nonpayable",
				"type": "function"
			},
			{
				"constant": true,
				"inputs": [],
				"name": "owner",
				"outputs": [
					{
						"internalType": "address",
						"name": "",
						"type": "address"
					}
				],
				"payable": false,
				"stateMutability": "view",
				"type": "function"
			},
			{
				"constant": false,
				"inputs": [
					{
						"internalType": "address",
						"name": "fromToken",
						"type": "address"
					},
					{
						"internalType": "address",
						"name": "toToken",
						"type": "address"
					},
					{
						"internalType": "uint256",
						"name": "amount",
						"type": "uint256"
					}
				],
				"name": "swap",
				"outputs": [
					{
						"internalType": "uint256",
						"name": "amountReceived",
						"type": "uint256"
					}
				],
				"payable": false,
				"stateMutability": "nonpayable",
				"type": "function"
			},
			{
				"constant": false,
				"inputs": [
					{
						"internalType": "address",
						"name": "newOwner",
						"type": "address"
					}
				],
				"name": "transferOwnership",
				"outputs": [],
				"payable": false,
				"stateMutability": "nonpayable",
				"type": "function"
			}
		],
		"devdoc": {
			"methods": {}
		},
		"evm": {
			"bytecode": {
				"linkReferences": {},
				"object": "0x6080604052600080546001600160a01b03191633179055612463806100256000396000f3fe608060405234801561001057600080fd5b506004361061004c5760003560e01c80636d83c92c146100515780638da5cb5b1461005b578063df791e5014610079578063f2fde38b14610099575b600080fd5b6100596100ac565b005b6100636100be565b6040516100709190611f5a565b60405180910390f35b61008c610087366004611f1a565b6100da565b60405161007091906123f5565b6100596100a7366004611ee6565b6102b6565b6100b4610389565b6100bc6103da565b565b60005473ffffffffffffffffffffffffffffffffffffffff1681565b60006100e4611e50565b6100ec6104ae565b9050806020015173ffffffffffffffffffffffffffffffffffffffff168573ffffffffffffffffffffffffffffffffffffffff1614801561015c5750806040015173ffffffffffffffffffffffffffffffffffffffff168473ffffffffffffffffffffffffffffffffffffffff16145b15610198576000610180868661017a87670de0b6b3a7640000610554565b856105f5565b9050610190620f42408202610931565b92505061026f565b806040015173ffffffffffffffffffffffffffffffffffffffff168573ffffffffffffffffffffffffffffffffffffffff161480156102065750806020015173ffffffffffffffffffffffffffffffffffffffff168473ffffffffffffffffffffffffffffffffffffffff16145b1561023457600061021f868661017a87620f4240610554565b9050610190670de0b6b3a76400008202610931565b6040517f08c379a0000000000000000000000000000000000000000000000000000000008152600401610266906120ef565b60405180910390fd5b7f256db8090fa51c3bac981768637d5a7c46b5540644dcef89052b89dbb2f6c8ea33868686866040516102a6959493929190611fa2565b60405180910390a1509392505050565b6102be610389565b73ffffffffffffffffffffffffffffffffffffffff811661030b576040517f08c379a00000000000000000000000000000000000000000000000000000000081526004016102669061224e565b600080547fffffffffffffffffffffffff00000000000000000000000000000000000000001673ffffffffffffffffffffffffffffffffffffffff83161790556040517f8be0079c531659141344cd1fd0a4f28419497f9722a3daafe3b4186f6b6457e09061037d9033908490611f7b565b60405180910390a15b50565b60005473ffffffffffffffffffffffffffffffffffffffff1633146100bc576040517f08c379a000000000000000000000000000000000000000000000000000000000815260040161026690612081565b60015460ff1615610417576040517f08c379a0000000000000000000000000000000000000000000000000000000008152600401610266906120b8565b610421600161094a565b60055560636006819055610436906064610554565b6007556104466005612710610554565b60085561046e61045a6001620f424061096c565b61046261098b565b9063ffffffff61099f16565b600c5561047f6127156103e861096c565b600d55600180547fffffffffffffffffffffffffffffffffffffffffffffffffffffffffffffff001681179055565b6104b6611e50565b50604080516101a08101825260015460ff81161515825273ffffffffffffffffffffffffffffffffffffffff610100918290048116602084015260025416928201929092526003546060820152600454608082015260055460a082015260065460c082015260075460e082015260085491810191909152600954610120820152600b54610140820152600c54610160820152600d5461018082015290565b600080831215610590576040517f08c379a00000000000000000000000000000000000000000000000000000000081526004016102669061232a565b60008212156105cb576040517f08c379a000000000000000000000000000000000000000000000000000000000815260040161026690612126565b6105ee6105e8846f80000000000000000000000000000000610a08565b83610a7e565b9392505050565b6020810151600090819081908190819073ffffffffffffffffffffffffffffffffffffffff8a8116911614801561065b5750856040015173ffffffffffffffffffffffffffffffffffffffff168873ffffffffffffffffffffffffffffffffffffffff16145b1561067a57505050506060820151608083015160a0840151600161071a565b856040015173ffffffffffffffffffffffffffffffffffffffff168973ffffffffffffffffffffffffffffffffffffffff161480156106e85750856020015173ffffffffffffffffffffffffffffffffffffffff168873ffffffffffffffffffffffffffffffffffffffff16145b156102345785608001519350856060015192506107178660a0015161070b61098b565b9063ffffffff610b4d16565b91505b60008061072a8686868c8c610b76565b9150915060006107606107448a610100015161046261098b565b6107548c8563ffffffff610c7b16565b9063ffffffff610c7b16565b905061077360008263ffffffff61099f16565b905060006107856001620186a061096c565b9050600082131561079957600091506107c2565b806107aa888463ffffffff610cce16565b136107c2576107bf818863ffffffff61099f16565b91505b60006107e28b61012001516107d5610cda565b8d6101600151888b610cde565b6101808c01519091506107fb908863ffffffff610c7b16565b81131561081f576101808b0151610818908863ffffffff610c7b16565b9050610853565b610834876107548d610180015161070b61098b565b81121561085357610850876107548d610180015161070b61098b565b90505b61085b610cda565b6101208c0152851561089d57610877898d63ffffffff610cce16565b60608c015261088c888463ffffffff610cce16565b60808c015260a08b018190526108d9565b6108ad888463ffffffff610cce16565b60608c01526108c2898d63ffffffff610cce16565b60808c01526108d38161070b61098b565b60a08c01525b6108e28b610dbc565b7f666804e599b015edcfb9de12153bf8a48aa5a84b8861b8fa88c1cf4b11974c15338d8560405161091593929190611fe3565b60405180910390a150506000039b9a5050505050505050505050565b6f8000000000000000000000000000000081055b919050565b6000610966826f80000000000000000000000000000000610a08565b92915050565b60006105ee6105e8846f80000000000000000000000000000000610a08565b6f8000000000000000000000000000000090565b60007f80000000000000000000000000000000000000000000000000000000000000008214156109fb576040517f08c379a0000000000000000000000000000000000000000000000000000000008152600401610266906122f3565b6105ee8383600003610ebe565b6000821580610a15575081155b15610a2257506000610966565b5081810281838281610a3057fe5b05141580610a47575082828281610a4357fe5b0514155b15610966576040517f08c379a000000000000000000000000000000000000000000000000000000000815260040161026690612285565b600081610ab7576040517f08c379a000000000000000000000000000000000000000000000000000000000815260040161026690612387565b7f800000000000000000000000000000000000000000000000000000000000000083148015610b055750817fffffffffffffffffffffffffffffffffffffffffffffffffffffffffffffffff145b15610b3c576040517f08c379a0000000000000000000000000000000000000000000000000000000008152600401610266906123be565b818381610b4557fe5b059392505050565b6000610b676105e8846a8000000000000000000000610a08565b65010000000000029392505050565b600080610b898787878660e00151610f34565b915060008281610b9f8a8863ffffffff610cce16565b905060005b6014811015610c6b576000610bb9858561102d565b90506000610bd5610bd0838d63ffffffff610b4d16565b611055565b90506000610c0c610bec8c8563ffffffff610c7b16565b610c0085610754898763ffffffff610c7b16565b9063ffffffff610cce16565b90507f4add19bbbe358caf4af4a31b1299356fc4dccf8b4cf3c87e401b0fa60062f31e828483604051610c4193929190612011565b60405180910390a18c811315610c5957829550610c5d565b8296505b505050806001019050610ba4565b5091925050509550959350505050565b60006f800000000000000000000000000000008215610cad575065010000000000909105906a80000000000000000000005b6000610cb98585610a08565b9050818181610cc457fe5b0595945050505050565b60006105ee8383610ebe565b4390565b600080610cec878703611102565b90506000610d11610d0c610cff88611158565b849063ffffffff610c7b16565b611842565b90506000610d218261046261098b565b90506000610d35878363ffffffff610c7b16565b90506000610d49878563ffffffff610c7b16565b90506000610d75610d60858b63ffffffff610b4d16565b610d70878b63ffffffff610b4d16565b610cce565b90506000610d858261070b61098b565b90506000610daa610d96600261094a565b61070b84610c00898963ffffffff610cce16565b9e9d5050505050505050505050505050565b80516001805460208401517fffffffffffffffffffffffffffffffffffffffffffffffffffffffffffffff00909116921515929092177fffffffffffffffffffffff0000000000000000000000000000000000000000ff1661010073ffffffffffffffffffffffffffffffffffffffff9384168102919091179091556040830151600280547fffffffffffffffffffffffff00000000000000000000000000000000000000001691909316179091556060820151600355608082015160045560a082015160055560c082015160065560e0820151600755810151600855610120810151600955610140810151600b55610160810151600c556101800151600d55565b818101600083128015610ed15750600082125b8015610edc57508281135b80610efd5750600083138015610ef25750600082135b8015610efd57508281125b15610966576040517f08c379a0000000000000000000000000000000000000000000000000000000008152600401610266906122bc565b600080610f47848763ffffffff610c7b16565b90506000610f5b868363ffffffff610b4d16565b90506000610f6f838863ffffffff610b4d16565b90506000610f7f8661046261098b565b90506000610f8b61098b565b841215610fa957610fa2610d0c8361075487611158565b9050610fc7565b610fc4610fbc610d0c8461075487611158565b61070b61098b565b90505b610fd7818963ffffffff610c7b16565b95507f3cf9bd989028bfc957ca46fd34c8ed26f90d849442378ee442fcd56cf5cac44f8a8a8a8a6110078b610931565b604051611018959493929190612027565b60405180910390a15050505050949350505050565b60006105ee61104561103d61098b565b610c0061098b565b61070b858563ffffffff610cce16565b600080611068838063ffffffff610c7b16565b9050600061107c848363ffffffff610c7b16565b90506000611090828063ffffffff610c7b16565b905060006110a4828063ffffffff610c7b16565b905060006110b8828063ffffffff610c7b16565b905060006110cc828063ffffffff610c7b16565b905060006110e0828063ffffffff610c7b16565b905060006110f4828863ffffffff610c7b16565b9a9950505050505050505050565b60008082121561113e576040517f08c379a0000000000000000000000000000000000000000000000000000000008152600401610266906121ba565b610966826f80000000000000000000000000000000610a08565b60006f800000000000000000000000000000008213156111a4576040517f08c379a000000000000000000000000000000000000000000000000000000000815260040161026690612183565b600082136111de576040517f08c379a00000000000000000000000000000000000000000000000000000000081526004016102669061204a565b6f800000000000000000000000000000008214156111fe57506000610945565b640733048c5a821361123157507fffffffffffffffffffffffffffffffe010000000000000000000000000000000610945565b60008060006a01c8464f761647600000008513611290577ffffffffffffffffffffffffffffffff000000000000000000000000000000000909301926a01c8464f761647600000006f8000000000000000000000000000000086020594505b6cf1aaddd7742e9000000000000085136112ee577ffffffffffffffffffffffffffffffff800000000000000000000000000000000909301926cf1aaddd7742e900000000000006f8000000000000000000000000000000086020594505b6e0afe10820813d780000000000000008513611350577ffffffffffffffffffffffffffffffffc00000000000000000000000000000000909301926e0afe10820813d780000000000000006f8000000000000000000000000000000086020594505b6f02582ab704279ec0000000000000000085136113b4577ffffffffffffffffffffffffffffffffe00000000000000000000000000000000909301926f02582ab704279ec000000000000000006f8000000000000000000000000000000086020594505b6f1152aaa3bf81cc0000000000000000008513611418577fffffffffffffffffffffffffffffffff00000000000000000000000000000000909301926f1152aaa3bf81cc0000000000000000006f8000000000000000000000000000000086020594505b6f2f16ac6c59de70000000000000000000851361147c577fffffffffffffffffffffffffffffffff80000000000000000000000000000000909301926f2f16ac6c59de700000000000000000006f8000000000000000000000000000000086020594505b6f4da2cbf1be582800000000000000000085136114e0577fffffffffffffffffffffffffffffffffc0000000000000000000000000000000909301926f4da2cbf1be58280000000000000000006f8000000000000000000000000000000086020594505b6f63afbe7ab2082c0000000000000000008513611544577fffffffffffffffffffffffffffffffffe0000000000000000000000000000000909301926f63afbe7ab2082c0000000000000000006f8000000000000000000000000000000086020594505b6f70f5a893b608861e1f58934f97aea57d85136115a8577ffffffffffffffffffffffffffffffffff0000000000000000000000000000000909301926f70f5a893b608861e1f58934f97aea57d6f8000000000000000000000000000000086020594505b7fffffffffffffffffffffffffffffffff80000000000000000000000000000000850192508291506f80000000000000000000000000000000828002059050700100000000000000000000000000000000838103830205840193506f800000000000000000000000000000008183028161161e57fe5b059150700200000000000000000000000000000000836faaaaaaaaaaaaaaaaaaaaaaaaaaaaaaaa0383028161164f57fe5b05840193506f800000000000000000000000000000008183028161166f57fe5b059150700300000000000000000000000000000000836f99999999999999999999999999999999038302816116a057fe5b05840193506f80000000000000000000000000000000818302816116c057fe5b059150700400000000000000000000000000000000836f92492492492492492492492492492492038302816116f157fe5b05840193506f800000000000000000000000000000008183028161171157fe5b059150700500000000000000000000000000000000836f8e38e38e38e38e38e38e38e38e38e38e0383028161174257fe5b05840193506f800000000000000000000000000000008183028161176257fe5b059150700600000000000000000000000000000000836f8ba2e8ba2e8ba2e8ba2e8ba2e8ba2e8b0383028161179357fe5b05840193506f80000000000000000000000000000000818302816117b357fe5b059150700700000000000000000000000000000000836f89d89d89d89d89d89d89d89d89d89d89038302816117e457fe5b05840193506f800000000000000000000000000000008183028161180457fe5b059150700800000000000000000000000000000000836f888888888888888888888888888888880383028161183557fe5b0584019350505050919050565b60007fffffffffffffffffffffffffffffffe01000000000000000000000000000000082121561187457506000610945565b8161189057506f80000000000000000000000000000000610945565b60008213156118cb576040517f08c379a000000000000000000000000000000000000000000000000000000000815260040161026690612217565b6f800000000000000000000000000000006f1000000000000000000000000000000083078080028290056710e1b3be415a0000810293909301929091818302059050806705a0913f6b1e000002830192506f800000000000000000000000000000008282028161193757fe5b05905080670168244fdac7800002830192506f800000000000000000000000000000008282028161196457fe5b05905080664807432bc1800002830192506f800000000000000000000000000000008282028161199057fe5b05905080660c0135dca0400002830192506f80000000000000000000000000000000828202816119bc57fe5b059050806601b707b1cdc00002830192506f80000000000000000000000000000000828202816119e857fe5b059050806536e0f639b80002830192506f8000000000000000000000000000000082820281611a1357fe5b05905080650618fee9f80002830192506f8000000000000000000000000000000082820281611a3e57fe5b05905080649c197dcc0002830192506f8000000000000000000000000000000082820281611a6857fe5b05905080640e30dce40002830192506f8000000000000000000000000000000082820281611a9257fe5b0590508064012ebd130002830192506f8000000000000000000000000000000082820281611abc57fe5b059050806317499f0002830192506f8000000000000000000000000000000082820281611ae557fe5b059050806301a9d48002830192506f8000000000000000000000000000000082820281611b0e57fe5b05905080621c638002830192506f8000000000000000000000000000000082820281611b3657fe5b059050806201c63802830192506f8000000000000000000000000000000082820281611b5e57fe5b05905080611ab802830192506f8000000000000000000000000000000082820281611b8557fe5b0590508061017c02830192506f8000000000000000000000000000000082820281611bac57fe5b05905080601402830192506f8000000000000000000000000000000082820281611bd257fe5b600095909503946721c3677c82b400009190059384010582016f8000000000000000000000000000000001929050701000000000000000000000000000000000841615611c41577243cbaf42a000812488fc5c220ad7b97bf6e99e6cf1aaddd7742e56d32fb9f9974484020592505b700800000000000000000000000000000000841615611c83577105d27a9f51c31b7c2f8038212a05747799916e0afe10820813d65dfe6a33c07f738f84020592505b700400000000000000000000000000000000841615611cc557701b4c902e273a58678d6d3bfdb93db96d026f02582ab704279e8efd15e0265855c47a84020592505b700200000000000000000000000000000000841615611d07577003b1cc971a9bb5b9867477440d6d1577506f1152aaa3bf81cb9fdb76eae12d02957184020592505b700100000000000000000000000000000000841615611d495770015bf0a8b1457695355fb8ac404e7a79e36f2f16ac6c59de6f8d5d6f63c1482a7c8684020592505b6f80000000000000000000000000000000841615611d89576fd3094c70f034de4b96ff7d5b6f99fcd86f4da2cbf1be5827f9eb3ad1aa9866ebb384020592505b6f40000000000000000000000000000000841615611dc9576fa45af1e1f40c333b3de1db4dd55f29a76f63afbe7ab2082ba1a0ae5e4eb1b479dc84020592505b6f20000000000000000000000000000000841615611e09576f910b022db7ae67ce76b441c27035c6a16f70f5a893b608861e1f58934f97aea57d84020592505b6f10000000000000000000000000000000841615611e49576f88415abbe9a76bead8d00cf112e4d4a86f783eafef1c0a8f3978c7f81824d62ebf84020592505b5050919050565b604051806101a00160405280600015158152602001600073ffffffffffffffffffffffffffffffffffffffff168152602001600073ffffffffffffffffffffffffffffffffffffffff168152602001600081526020016000815260200160008152602001600081526020016000815260200160008152602001600081526020016000815260200160008152602001600081525090565b600060208284031215611ef7578081fd5b813573ffffffffffffffffffffffffffffffffffffffff811681146105ee578182fd5b600080600060608486031215611f2e578182fd5b8335611f39816123fe565b92506020840135611f49816123fe565b929592945050506040919091013590565b73ffffffffffffffffffffffffffffffffffffffff91909116815260200190565b73ffffffffffffffffffffffffffffffffffffffff92831681529116602082015260400190565b73ffffffffffffffffffffffffffffffffffffffff958616815293851660208501529190931660408301526060820192909252608081019190915260a00190565b73ffffffffffffffffffffffffffffffffffffffff9390931683526020830191909152604082015260600190565b9283526020830191909152604082015260600190565b948552602085019390935260408401919091526060830152608082015260a00190565b60208082526013908201527f6c6e3a2076616c756520746f6f20736d616c6c00000000000000000000000000604082015260600190565b6020808252600e908201527f4f6e6c794f776e65724572726f72000000000000000000000000000000000000604082015260600190565b60208082526013908201527f416c726561647920496e697469616c697a656400000000000000000000000000604082015260600190565b60208082526017908201527f496e76616c696420746f6b656e20616464726573736573000000000000000000604082015260600190565b60208082526038908201527f746f46697865642875696e742c75696e74293a2064656e6f6d696e61746f722060408201527f63616e6e6f74206265206c657373207468616e207a65726f0000000000000000606082015260800190565b60208082526013908201527f6c6e3a2076616c756520746f6f206c6172676500000000000000000000000000604082015260600190565b60208082526027908201527f746f46697865643a2076616c75652063616e6e6f74206265206c65737320746860408201527f616e207a65726f00000000000000000000000000000000000000000000000000606082015260800190565b60208082526014908201527f6578703a2076616c756520746f6f20736d616c6c000000000000000000000000604082015260600190565b60208082526018908201527f5472616e736665724f776e6572546f5a65726f4572726f720000000000000000604082015260600190565b6020808252600e908201527f5f6d756c3a206f766572666c6f77000000000000000000000000000000000000604082015260600190565b6020808252600e908201527f5f6164643a206f766572666c6f77000000000000000000000000000000000000604082015260600190565b60208082526014908201527f7375623a2076616c756520746f6f20736d616c6c000000000000000000000000604082015260600190565b60208082526036908201527f746f46697865642875696e742c75696e74293a206e756d657261746f7220636160408201527f6e6e6f74206265206c657373207468616e207a65726f00000000000000000000606082015260800190565b60208082526014908201527f5f6469763a20646976696465206279207a65726f000000000000000000000000604082015260600190565b6020808252600e908201527f5f6469763a206f766572666c6f77000000000000000000000000000000000000604082015260600190565b90815260200190565b73ffffffffffffffffffffffffffffffffffffffff8116811461038657600080fdfea365627a7a7231582084e746f9c6d519fc3a7f608d73ed81000eb23e6c0f4508c2b4ce394f4eac94af6c6578706572696d656e74616cf564736f6c634300050d0040",
				"opcodes": "PUSH1 0x80 PUSH1 0x40 MSTORE PUSH1 0x0 DUP1 SLOAD PUSH1 0x1 PUSH1 0x1 PUSH1 0xA0 SHL SUB NOT AND CALLER OR SWAP1 SSTORE PUSH2 0x2463 DUP1 PUSH2 0x25 PUSH1 0x0 CODECOPY PUSH1 0x0 RETURN INVALID PUSH1 0x80 PUSH1 0x40 MSTORE CALLVALUE DUP1 ISZERO PUSH2 0x10 JUMPI PUSH1 0x0 DUP1 REVERT JUMPDEST POP PUSH1 0x4 CALLDATASIZE LT PUSH2 0x4C JUMPI PUSH1 0x0 CALLDATALOAD PUSH1 0xE0 SHR DUP1 PUSH4 0x6D83C92C EQ PUSH2 0x51 JUMPI DUP1 PUSH4 0x8DA5CB5B EQ PUSH2 0x5B JUMPI DUP1 PUSH4 0xDF791E50 EQ PUSH2 0x79 JUMPI DUP1 PUSH4 0xF2FDE38B EQ PUSH2 0x99 JUMPI JUMPDEST PUSH1 0x0 DUP1 REVERT JUMPDEST PUSH2 0x59 PUSH2 0xAC JUMP JUMPDEST STOP JUMPDEST PUSH2 0x63 PUSH2 0xBE JUMP JUMPDEST PUSH1 0x40 MLOAD PUSH2 0x70 SWAP2 SWAP1 PUSH2 0x1F5A JUMP JUMPDEST PUSH1 0x40 MLOAD DUP1 SWAP2 SUB SWAP1 RETURN JUMPDEST PUSH2 0x8C PUSH2 0x87 CALLDATASIZE PUSH1 0x4 PUSH2 0x1F1A JUMP JUMPDEST PUSH2 0xDA JUMP JUMPDEST PUSH1 0x40 MLOAD PUSH2 0x70 SWAP2 SWAP1 PUSH2 0x23F5 JUMP JUMPDEST PUSH2 0x59 PUSH2 0xA7 CALLDATASIZE PUSH1 0x4 PUSH2 0x1EE6 JUMP JUMPDEST PUSH2 0x2B6 JUMP JUMPDEST PUSH2 0xB4 PUSH2 0x389 JUMP JUMPDEST PUSH2 0xBC PUSH2 0x3DA JUMP JUMPDEST JUMP JUMPDEST PUSH1 0x0 SLOAD PUSH20 0xFFFFFFFFFFFFFFFFFFFFFFFFFFFFFFFFFFFFFFFF AND DUP2 JUMP JUMPDEST PUSH1 0x0 PUSH2 0xE4 PUSH2 0x1E50 JUMP JUMPDEST PUSH2 0xEC PUSH2 0x4AE JUMP JUMPDEST SWAP1 POP DUP1 PUSH1 0x20 ADD MLOAD PUSH20 0xFFFFFFFFFFFFFFFFFFFFFFFFFFFFFFFFFFFFFFFF AND DUP6 PUSH20 0xFFFFFFFFFFFFFFFFFFFFFFFFFFFFFFFFFFFFFFFF AND EQ DUP1 ISZERO PUSH2 0x15C JUMPI POP DUP1 PUSH1 0x40 ADD MLOAD PUSH20 0xFFFFFFFFFFFFFFFFFFFFFFFFFFFFFFFFFFFFFFFF AND DUP5 PUSH20 0xFFFFFFFFFFFFFFFFFFFFFFFFFFFFFFFFFFFFFFFF AND EQ JUMPDEST ISZERO PUSH2 0x198 JUMPI PUSH1 0x0 PUSH2 0x180 DUP7 DUP7 PUSH2 0x17A DUP8 PUSH8 0xDE0B6B3A7640000 PUSH2 0x554 JUMP JUMPDEST DUP6 PUSH2 0x5F5 JUMP JUMPDEST SWAP1 POP PUSH2 0x190 PUSH3 0xF4240 DUP3 MUL PUSH2 0x931 JUMP JUMPDEST SWAP3 POP POP PUSH2 0x26F JUMP JUMPDEST DUP1 PUSH1 0x40 ADD MLOAD PUSH20 0xFFFFFFFFFFFFFFFFFFFFFFFFFFFFFFFFFFFFFFFF AND DUP6 PUSH20 0xFFFFFFFFFFFFFFFFFFFFFFFFFFFFFFFFFFFFFFFF AND EQ DUP1 ISZERO PUSH2 0x206 JUMPI POP DUP1 PUSH1 0x20 ADD MLOAD PUSH20 0xFFFFFFFFFFFFFFFFFFFFFFFFFFFFFFFFFFFFFFFF AND DUP5 PUSH20 0xFFFFFFFFFFFFFFFFFFFFFFFFFFFFFFFFFFFFFFFF AND EQ JUMPDEST ISZERO PUSH2 0x234 JUMPI PUSH1 0x0 PUSH2 0x21F DUP7 DUP7 PUSH2 0x17A DUP8 PUSH3 0xF4240 PUSH2 0x554 JUMP JUMPDEST SWAP1 POP PUSH2 0x190 PUSH8 0xDE0B6B3A7640000 DUP3 MUL PUSH2 0x931 JUMP JUMPDEST PUSH1 0x40 MLOAD PUSH32 0x8C379A000000000000000000000000000000000000000000000000000000000 DUP2 MSTORE PUSH1 0x4 ADD PUSH2 0x266 SWAP1 PUSH2 0x20EF JUMP JUMPDEST PUSH1 0x40 MLOAD DUP1 SWAP2 SUB SWAP1 REVERT JUMPDEST PUSH32 0x256DB8090FA51C3BAC981768637D5A7C46B5540644DCEF89052B89DBB2F6C8EA CALLER DUP7 DUP7 DUP7 DUP7 PUSH1 0x40 MLOAD PUSH2 0x2A6 SWAP6 SWAP5 SWAP4 SWAP3 SWAP2 SWAP1 PUSH2 0x1FA2 JUMP JUMPDEST PUSH1 0x40 MLOAD DUP1 SWAP2 SUB SWAP1 LOG1 POP SWAP4 SWAP3 POP POP POP JUMP JUMPDEST PUSH2 0x2BE PUSH2 0x389 JUMP JUMPDEST PUSH20 0xFFFFFFFFFFFFFFFFFFFFFFFFFFFFFFFFFFFFFFFF DUP2 AND PUSH2 0x30B JUMPI PUSH1 0x40 MLOAD PUSH32 0x8C379A000000000000000000000000000000000000000000000000000000000 DUP2 MSTORE PUSH1 0x4 ADD PUSH2 0x266 SWAP1 PUSH2 0x224E JUMP JUMPDEST PUSH1 0x0 DUP1 SLOAD PUSH32 0xFFFFFFFFFFFFFFFFFFFFFFFF0000000000000000000000000000000000000000 AND PUSH20 0xFFFFFFFFFFFFFFFFFFFFFFFFFFFFFFFFFFFFFFFF DUP4 AND OR SWAP1 SSTORE PUSH1 0x40 MLOAD PUSH32 0x8BE0079C531659141344CD1FD0A4F28419497F9722A3DAAFE3B4186F6B6457E0 SWAP1 PUSH2 0x37D SWAP1 CALLER SWAP1 DUP5 SWAP1 PUSH2 0x1F7B JUMP JUMPDEST PUSH1 0x40 MLOAD DUP1 SWAP2 SUB SWAP1 LOG1 JUMPDEST POP JUMP JUMPDEST PUSH1 0x0 SLOAD PUSH20 0xFFFFFFFFFFFFFFFFFFFFFFFFFFFFFFFFFFFFFFFF AND CALLER EQ PUSH2 0xBC JUMPI PUSH1 0x40 MLOAD PUSH32 0x8C379A000000000000000000000000000000000000000000000000000000000 DUP2 MSTORE PUSH1 0x4 ADD PUSH2 0x266 SWAP1 PUSH2 0x2081 JUMP JUMPDEST PUSH1 0x1 SLOAD PUSH1 0xFF AND ISZERO PUSH2 0x417 JUMPI PUSH1 0x40 MLOAD PUSH32 0x8C379A000000000000000000000000000000000000000000000000000000000 DUP2 MSTORE PUSH1 0x4 ADD PUSH2 0x266 SWAP1 PUSH2 0x20B8 JUMP JUMPDEST PUSH2 0x421 PUSH1 0x1 PUSH2 0x94A JUMP JUMPDEST PUSH1 0x5 SSTORE PUSH1 0x63 PUSH1 0x6 DUP2 SWAP1 SSTORE PUSH2 0x436 SWAP1 PUSH1 0x64 PUSH2 0x554 JUMP JUMPDEST PUSH1 0x7 SSTORE PUSH2 0x446 PUSH1 0x5 PUSH2 0x2710 PUSH2 0x554 JUMP JUMPDEST PUSH1 0x8 SSTORE PUSH2 0x46E PUSH2 0x45A PUSH1 0x1 PUSH3 0xF4240 PUSH2 0x96C JUMP JUMPDEST PUSH2 0x462 PUSH2 0x98B JUMP JUMPDEST SWAP1 PUSH4 0xFFFFFFFF PUSH2 0x99F AND JUMP JUMPDEST PUSH1 0xC SSTORE PUSH2 0x47F PUSH2 0x2715 PUSH2 0x3E8 PUSH2 0x96C JUMP JUMPDEST PUSH1 0xD SSTORE PUSH1 0x1 DUP1 SLOAD PUSH32 0xFFFFFFFFFFFFFFFFFFFFFFFFFFFFFFFFFFFFFFFFFFFFFFFFFFFFFFFFFFFFFF00 AND DUP2 OR SWAP1 SSTORE JUMP JUMPDEST PUSH2 0x4B6 PUSH2 0x1E50 JUMP JUMPDEST POP PUSH1 0x40 DUP1 MLOAD PUSH2 0x1A0 DUP2 ADD DUP3 MSTORE PUSH1 0x1 SLOAD PUSH1 0xFF DUP2 AND ISZERO ISZERO DUP3 MSTORE PUSH20 0xFFFFFFFFFFFFFFFFFFFFFFFFFFFFFFFFFFFFFFFF PUSH2 0x100 SWAP2 DUP3 SWAP1 DIV DUP2 AND PUSH1 0x20 DUP5 ADD MSTORE PUSH1 0x2 SLOAD AND SWAP3 DUP3 ADD SWAP3 SWAP1 SWAP3 MSTORE PUSH1 0x3 SLOAD PUSH1 0x60 DUP3 ADD MSTORE PUSH1 0x4 SLOAD PUSH1 0x80 DUP3 ADD MSTORE PUSH1 0x5 SLOAD PUSH1 0xA0 DUP3 ADD MSTORE PUSH1 0x6 SLOAD PUSH1 0xC0 DUP3 ADD MSTORE PUSH1 0x7 SLOAD PUSH1 0xE0 DUP3 ADD MSTORE PUSH1 0x8 SLOAD SWAP2 DUP2 ADD SWAP2 SWAP1 SWAP2 MSTORE PUSH1 0x9 SLOAD PUSH2 0x120 DUP3 ADD MSTORE PUSH1 0xB SLOAD PUSH2 0x140 DUP3 ADD MSTORE PUSH1 0xC SLOAD PUSH2 0x160 DUP3 ADD MSTORE PUSH1 0xD SLOAD PUSH2 0x180 DUP3 ADD MSTORE SWAP1 JUMP JUMPDEST PUSH1 0x0 DUP1 DUP4 SLT ISZERO PUSH2 0x590 JUMPI PUSH1 0x40 MLOAD PUSH32 0x8C379A000000000000000000000000000000000000000000000000000000000 DUP2 MSTORE PUSH1 0x4 ADD PUSH2 0x266 SWAP1 PUSH2 0x232A JUMP JUMPDEST PUSH1 0x0 DUP3 SLT ISZERO PUSH2 0x5CB JUMPI PUSH1 0x40 MLOAD PUSH32 0x8C379A000000000000000000000000000000000000000000000000000000000 DUP2 MSTORE PUSH1 0x4 ADD PUSH2 0x266 SWAP1 PUSH2 0x2126 JUMP JUMPDEST PUSH2 0x5EE PUSH2 0x5E8 DUP5 PUSH16 0x80000000000000000000000000000000 PUSH2 0xA08 JUMP JUMPDEST DUP4 PUSH2 0xA7E JUMP JUMPDEST SWAP4 SWAP3 POP POP POP JUMP JUMPDEST PUSH1 0x20 DUP2 ADD MLOAD PUSH1 0x0 SWAP1 DUP2 SWAP1 DUP2 SWAP1 DUP2 SWAP1 DUP2 SWAP1 PUSH20 0xFFFFFFFFFFFFFFFFFFFFFFFFFFFFFFFFFFFFFFFF DUP11 DUP2 AND SWAP2 AND EQ DUP1 ISZERO PUSH2 0x65B JUMPI POP DUP6 PUSH1 0x40 ADD MLOAD PUSH20 0xFFFFFFFFFFFFFFFFFFFFFFFFFFFFFFFFFFFFFFFF AND DUP9 PUSH20 0xFFFFFFFFFFFFFFFFFFFFFFFFFFFFFFFFFFFFFFFF AND EQ JUMPDEST ISZERO PUSH2 0x67A JUMPI POP POP POP POP PUSH1 0x60 DUP3 ADD MLOAD PUSH1 0x80 DUP4 ADD MLOAD PUSH1 0xA0 DUP5 ADD MLOAD PUSH1 0x1 PUSH2 0x71A JUMP JUMPDEST DUP6 PUSH1 0x40 ADD MLOAD PUSH20 0xFFFFFFFFFFFFFFFFFFFFFFFFFFFFFFFFFFFFFFFF AND DUP10 PUSH20 0xFFFFFFFFFFFFFFFFFFFFFFFFFFFFFFFFFFFFFFFF AND EQ DUP1 ISZERO PUSH2 0x6E8 JUMPI POP DUP6 PUSH1 0x20 ADD MLOAD PUSH20 0xFFFFFFFFFFFFFFFFFFFFFFFFFFFFFFFFFFFFFFFF AND DUP9 PUSH20 0xFFFFFFFFFFFFFFFFFFFFFFFFFFFFFFFFFFFFFFFF AND EQ JUMPDEST ISZERO PUSH2 0x234 JUMPI DUP6 PUSH1 0x80 ADD MLOAD SWAP4 POP DUP6 PUSH1 0x60 ADD MLOAD SWAP3 POP PUSH2 0x717 DUP7 PUSH1 0xA0 ADD MLOAD PUSH2 0x70B PUSH2 0x98B JUMP JUMPDEST SWAP1 PUSH4 0xFFFFFFFF PUSH2 0xB4D AND JUMP JUMPDEST SWAP2 POP JUMPDEST PUSH1 0x0 DUP1 PUSH2 0x72A DUP7 DUP7 DUP7 DUP13 DUP13 PUSH2 0xB76 JUMP JUMPDEST SWAP2 POP SWAP2 POP PUSH1 0x0 PUSH2 0x760 PUSH2 0x744 DUP11 PUSH2 0x100 ADD MLOAD PUSH2 0x462 PUSH2 0x98B JUMP JUMPDEST PUSH2 0x754 DUP13 DUP6 PUSH4 0xFFFFFFFF PUSH2 0xC7B AND JUMP JUMPDEST SWAP1 PUSH4 0xFFFFFFFF PUSH2 0xC7B AND JUMP JUMPDEST SWAP1 POP PUSH2 0x773 PUSH1 0x0 DUP3 PUSH4 0xFFFFFFFF PUSH2 0x99F AND JUMP JUMPDEST SWAP1 POP PUSH1 0x0 PUSH2 0x785 PUSH1 0x1 PUSH3 0x186A0 PUSH2 0x96C JUMP JUMPDEST SWAP1 POP PUSH1 0x0 DUP3 SGT ISZERO PUSH2 0x799 JUMPI PUSH1 0x0 SWAP2 POP PUSH2 0x7C2 JUMP JUMPDEST DUP1 PUSH2 0x7AA DUP9 DUP5 PUSH4 0xFFFFFFFF PUSH2 0xCCE AND JUMP JUMPDEST SGT PUSH2 0x7C2 JUMPI PUSH2 0x7BF DUP2 DUP9 PUSH4 0xFFFFFFFF PUSH2 0x99F AND JUMP JUMPDEST SWAP2 POP JUMPDEST PUSH1 0x0 PUSH2 0x7E2 DUP12 PUSH2 0x120 ADD MLOAD PUSH2 0x7D5 PUSH2 0xCDA JUMP JUMPDEST DUP14 PUSH2 0x160 ADD MLOAD DUP9 DUP12 PUSH2 0xCDE JUMP JUMPDEST PUSH2 0x180 DUP13 ADD MLOAD SWAP1 SWAP2 POP PUSH2 0x7FB SWAP1 DUP9 PUSH4 0xFFFFFFFF PUSH2 0xC7B AND JUMP JUMPDEST DUP2 SGT ISZERO PUSH2 0x81F JUMPI PUSH2 0x180 DUP12 ADD MLOAD PUSH2 0x818 SWAP1 DUP9 PUSH4 0xFFFFFFFF PUSH2 0xC7B AND JUMP JUMPDEST SWAP1 POP PUSH2 0x853 JUMP JUMPDEST PUSH2 0x834 DUP8 PUSH2 0x754 DUP14 PUSH2 0x180 ADD MLOAD PUSH2 0x70B PUSH2 0x98B JUMP JUMPDEST DUP2 SLT ISZERO PUSH2 0x853 JUMPI PUSH2 0x850 DUP8 PUSH2 0x754 DUP14 PUSH2 0x180 ADD MLOAD PUSH2 0x70B PUSH2 0x98B JUMP JUMPDEST SWAP1 POP JUMPDEST PUSH2 0x85B PUSH2 0xCDA JUMP JUMPDEST PUSH2 0x120 DUP13 ADD MSTORE DUP6 ISZERO PUSH2 0x89D JUMPI PUSH2 0x877 DUP10 DUP14 PUSH4 0xFFFFFFFF PUSH2 0xCCE AND JUMP JUMPDEST PUSH1 0x60 DUP13 ADD MSTORE PUSH2 0x88C DUP9 DUP5 PUSH4 0xFFFFFFFF PUSH2 0xCCE AND JUMP JUMPDEST PUSH1 0x80 DUP13 ADD MSTORE PUSH1 0xA0 DUP12 ADD DUP2 SWAP1 MSTORE PUSH2 0x8D9 JUMP JUMPDEST PUSH2 0x8AD DUP9 DUP5 PUSH4 0xFFFFFFFF PUSH2 0xCCE AND JUMP JUMPDEST PUSH1 0x60 DUP13 ADD MSTORE PUSH2 0x8C2 DUP10 DUP14 PUSH4 0xFFFFFFFF PUSH2 0xCCE AND JUMP JUMPDEST PUSH1 0x80 DUP13 ADD MSTORE PUSH2 0x8D3 DUP2 PUSH2 0x70B PUSH2 0x98B JUMP JUMPDEST PUSH1 0xA0 DUP13 ADD MSTORE JUMPDEST PUSH2 0x8E2 DUP12 PUSH2 0xDBC JUMP JUMPDEST PUSH32 0x666804E599B015EDCFB9DE12153BF8A48AA5A84B8861B8FA88C1CF4B11974C15 CALLER DUP14 DUP6 PUSH1 0x40 MLOAD PUSH2 0x915 SWAP4 SWAP3 SWAP2 SWAP1 PUSH2 0x1FE3 JUMP JUMPDEST PUSH1 0x40 MLOAD DUP1 SWAP2 SUB SWAP1 LOG1 POP POP PUSH1 0x0 SUB SWAP12 SWAP11 POP POP POP POP POP POP POP POP POP POP POP JUMP JUMPDEST PUSH16 0x80000000000000000000000000000000 DUP2 SDIV JUMPDEST SWAP2 SWAP1 POP JUMP JUMPDEST PUSH1 0x0 PUSH2 0x966 DUP3 PUSH16 0x80000000000000000000000000000000 PUSH2 0xA08 JUMP JUMPDEST SWAP3 SWAP2 POP POP JUMP JUMPDEST PUSH1 0x0 PUSH2 0x5EE PUSH2 0x5E8 DUP5 PUSH16 0x80000000000000000000000000000000 PUSH2 0xA08 JUMP JUMPDEST PUSH16 0x80000000000000000000000000000000 SWAP1 JUMP JUMPDEST PUSH1 0x0 PUSH32 0x8000000000000000000000000000000000000000000000000000000000000000 DUP3 EQ ISZERO PUSH2 0x9FB JUMPI PUSH1 0x40 MLOAD PUSH32 0x8C379A000000000000000000000000000000000000000000000000000000000 DUP2 MSTORE PUSH1 0x4 ADD PUSH2 0x266 SWAP1 PUSH2 0x22F3 JUMP JUMPDEST PUSH2 0x5EE DUP4 DUP4 PUSH1 0x0 SUB PUSH2 0xEBE JUMP JUMPDEST PUSH1 0x0 DUP3 ISZERO DUP1 PUSH2 0xA15 JUMPI POP DUP2 ISZERO JUMPDEST ISZERO PUSH2 0xA22 JUMPI POP PUSH1 0x0 PUSH2 0x966 JUMP JUMPDEST POP DUP2 DUP2 MUL DUP2 DUP4 DUP3 DUP2 PUSH2 0xA30 JUMPI INVALID JUMPDEST SDIV EQ ISZERO DUP1 PUSH2 0xA47 JUMPI POP DUP3 DUP3 DUP3 DUP2 PUSH2 0xA43 JUMPI INVALID JUMPDEST SDIV EQ ISZERO JUMPDEST ISZERO PUSH2 0x966 JUMPI PUSH1 0x40 MLOAD PUSH32 0x8C379A000000000000000000000000000000000000000000000000000000000 DUP2 MSTORE PUSH1 0x4 ADD PUSH2 0x266 SWAP1 PUSH2 0x2285 JUMP JUMPDEST PUSH1 0x0 DUP2 PUSH2 0xAB7 JUMPI PUSH1 0x40 MLOAD PUSH32 0x8C379A000000000000000000000000000000000000000000000000000000000 DUP2 MSTORE PUSH1 0x4 ADD PUSH2 0x266 SWAP1 PUSH2 0x2387 JUMP JUMPDEST PUSH32 0x8000000000000000000000000000000000000000000000000000000000000000 DUP4 EQ DUP1 ISZERO PUSH2 0xB05 JUMPI POP DUP2 PUSH32 0xFFFFFFFFFFFFFFFFFFFFFFFFFFFFFFFFFFFFFFFFFFFFFFFFFFFFFFFFFFFFFFFF EQ JUMPDEST ISZERO PUSH2 0xB3C JUMPI PUSH1 0x40 MLOAD PUSH32 0x8C379A000000000000000000000000000000000000000000000000000000000 DUP2 MSTORE PUSH1 0x4 ADD PUSH2 0x266 SWAP1 PUSH2 0x23BE JUMP JUMPDEST DUP2 DUP4 DUP2 PUSH2 0xB45 JUMPI INVALID JUMPDEST SDIV SWAP4 SWAP3 POP POP POP JUMP JUMPDEST PUSH1 0x0 PUSH2 0xB67 PUSH2 0x5E8 DUP5 PUSH11 0x8000000000000000000000 PUSH2 0xA08 JUMP JUMPDEST PUSH6 0x10000000000 MUL SWAP4 SWAP3 POP POP POP JUMP JUMPDEST PUSH1 0x0 DUP1 PUSH2 0xB89 DUP8 DUP8 DUP8 DUP7 PUSH1 0xE0 ADD MLOAD PUSH2 0xF34 JUMP JUMPDEST SWAP2 POP PUSH1 0x0 DUP3 DUP2 PUSH2 0xB9F DUP11 DUP9 PUSH4 0xFFFFFFFF PUSH2 0xCCE AND JUMP JUMPDEST SWAP1 POP PUSH1 0x0 JUMPDEST PUSH1 0x14 DUP2 LT ISZERO PUSH2 0xC6B JUMPI PUSH1 0x0 PUSH2 0xBB9 DUP6 DUP6 PUSH2 0x102D JUMP JUMPDEST SWAP1 POP PUSH1 0x0 PUSH2 0xBD5 PUSH2 0xBD0 DUP4 DUP14 PUSH4 0xFFFFFFFF PUSH2 0xB4D AND JUMP JUMPDEST PUSH2 0x1055 JUMP JUMPDEST SWAP1 POP PUSH1 0x0 PUSH2 0xC0C PUSH2 0xBEC DUP13 DUP6 PUSH4 0xFFFFFFFF PUSH2 0xC7B AND JUMP JUMPDEST PUSH2 0xC00 DUP6 PUSH2 0x754 DUP10 DUP8 PUSH4 0xFFFFFFFF PUSH2 0xC7B AND JUMP JUMPDEST SWAP1 PUSH4 0xFFFFFFFF PUSH2 0xCCE AND JUMP JUMPDEST SWAP1 POP PUSH32 0x4ADD19BBBE358CAF4AF4A31B1299356FC4DCCF8B4CF3C87E401B0FA60062F31E DUP3 DUP5 DUP4 PUSH1 0x40 MLOAD PUSH2 0xC41 SWAP4 SWAP3 SWAP2 SWAP1 PUSH2 0x2011 JUMP JUMPDEST PUSH1 0x40 MLOAD DUP1 SWAP2 SUB SWAP1 LOG1 DUP13 DUP2 SGT ISZERO PUSH2 0xC59 JUMPI DUP3 SWAP6 POP PUSH2 0xC5D JUMP JUMPDEST DUP3 SWAP7 POP JUMPDEST POP POP POP DUP1 PUSH1 0x1 ADD SWAP1 POP PUSH2 0xBA4 JUMP JUMPDEST POP SWAP2 SWAP3 POP POP POP SWAP6 POP SWAP6 SWAP4 POP POP POP POP JUMP JUMPDEST PUSH1 0x0 PUSH16 0x80000000000000000000000000000000 DUP3 ISZERO PUSH2 0xCAD JUMPI POP PUSH6 0x10000000000 SWAP1 SWAP2 SDIV SWAP1 PUSH11 0x8000000000000000000000 JUMPDEST PUSH1 0x0 PUSH2 0xCB9 DUP6 DUP6 PUSH2 0xA08 JUMP JUMPDEST SWAP1 POP DUP2 DUP2 DUP2 PUSH2 0xCC4 JUMPI INVALID JUMPDEST SDIV SWAP6 SWAP5 POP POP POP POP POP JUMP JUMPDEST PUSH1 0x0 PUSH2 0x5EE DUP4 DUP4 PUSH2 0xEBE JUMP JUMPDEST NUMBER SWAP1 JUMP JUMPDEST PUSH1 0x0 DUP1 PUSH2 0xCEC DUP8 DUP8 SUB PUSH2 0x1102 JUMP JUMPDEST SWAP1 POP PUSH1 0x0 PUSH2 0xD11 PUSH2 0xD0C PUSH2 0xCFF DUP9 PUSH2 0x1158 JUMP JUMPDEST DUP5 SWAP1 PUSH4 0xFFFFFFFF PUSH2 0xC7B AND JUMP JUMPDEST PUSH2 0x1842 JUMP JUMPDEST SWAP1 POP PUSH1 0x0 PUSH2 0xD21 DUP3 PUSH2 0x462 PUSH2 0x98B JUMP JUMPDEST SWAP1 POP PUSH1 0x0 PUSH2 0xD35 DUP8 DUP4 PUSH4 0xFFFFFFFF PUSH2 0xC7B AND JUMP JUMPDEST SWAP1 POP PUSH1 0x0 PUSH2 0xD49 DUP8 DUP6 PUSH4 0xFFFFFFFF PUSH2 0xC7B AND JUMP JUMPDEST SWAP1 POP PUSH1 0x0 PUSH2 0xD75 PUSH2 0xD60 DUP6 DUP12 PUSH4 0xFFFFFFFF PUSH2 0xB4D AND JUMP JUMPDEST PUSH2 0xD70 DUP8 DUP12 PUSH4 0xFFFFFFFF PUSH2 0xB4D AND JUMP JUMPDEST PUSH2 0xCCE JUMP JUMPDEST SWAP1 POP PUSH1 0x0 PUSH2 0xD85 DUP3 PUSH2 0x70B PUSH2 0x98B JUMP JUMPDEST SWAP1 POP PUSH1 0x0 PUSH2 0xDAA PUSH2 0xD96 PUSH1 0x2 PUSH2 0x94A JUMP JUMPDEST PUSH2 0x70B DUP5 PUSH2 0xC00 DUP10 DUP10 PUSH4 0xFFFFFFFF PUSH2 0xCCE AND JUMP JUMPDEST SWAP15 SWAP14 POP POP POP POP POP POP POP POP POP POP POP POP POP POP JUMP JUMPDEST DUP1 MLOAD PUSH1 0x1 DUP1 SLOAD PUSH1 0x20 DUP5 ADD MLOAD PUSH32 0xFFFFFFFFFFFFFFFFFFFFFFFFFFFFFFFFFFFFFFFFFFFFFFFFFFFFFFFFFFFFFF00 SWAP1 SWAP2 AND SWAP3 ISZERO ISZERO SWAP3 SWAP1 SWAP3 OR PUSH32 0xFFFFFFFFFFFFFFFFFFFFFF0000000000000000000000000000000000000000FF AND PUSH2 0x100 PUSH20 0xFFFFFFFFFFFFFFFFFFFFFFFFFFFFFFFFFFFFFFFF SWAP4 DUP5 AND DUP2 MUL SWAP2 SWAP1 SWAP2 OR SWAP1 SWAP2 SSTORE PUSH1 0x40 DUP4 ADD MLOAD PUSH1 0x2 DUP1 SLOAD PUSH32 0xFFFFFFFFFFFFFFFFFFFFFFFF0000000000000000000000000000000000000000 AND SWAP2 SWAP1 SWAP4 AND OR SWAP1 SWAP2 SSTORE PUSH1 0x60 DUP3 ADD MLOAD PUSH1 0x3 SSTORE PUSH1 0x80 DUP3 ADD MLOAD PUSH1 0x4 SSTORE PUSH1 0xA0 DUP3 ADD MLOAD PUSH1 0x5 SSTORE PUSH1 0xC0 DUP3 ADD MLOAD PUSH1 0x6 SSTORE PUSH1 0xE0 DUP3 ADD MLOAD PUSH1 0x7 SSTORE DUP2 ADD MLOAD PUSH1 0x8 SSTORE PUSH2 0x120 DUP2 ADD MLOAD PUSH1 0x9 SSTORE PUSH2 0x140 DUP2 ADD MLOAD PUSH1 0xB SSTORE PUSH2 0x160 DUP2 ADD MLOAD PUSH1 0xC SSTORE PUSH2 0x180 ADD MLOAD PUSH1 0xD SSTORE JUMP JUMPDEST DUP2 DUP2 ADD PUSH1 0x0 DUP4 SLT DUP1 ISZERO PUSH2 0xED1 JUMPI POP PUSH1 0x0 DUP3 SLT JUMPDEST DUP1 ISZERO PUSH2 0xEDC JUMPI POP DUP3 DUP2 SGT JUMPDEST DUP1 PUSH2 0xEFD JUMPI POP PUSH1 0x0 DUP4 SGT DUP1 ISZERO PUSH2 0xEF2 JUMPI POP PUSH1 0x0 DUP3 SGT JUMPDEST DUP1 ISZERO PUSH2 0xEFD JUMPI POP DUP3 DUP2 SLT JUMPDEST ISZERO PUSH2 0x966 JUMPI PUSH1 0x40 MLOAD PUSH32 0x8C379A000000000000000000000000000000000000000000000000000000000 DUP2 MSTORE PUSH1 0x4 ADD PUSH2 0x266 SWAP1 PUSH2 0x22BC JUMP JUMPDEST PUSH1 0x0 DUP1 PUSH2 0xF47 DUP5 DUP8 PUSH4 0xFFFFFFFF PUSH2 0xC7B AND JUMP JUMPDEST SWAP1 POP PUSH1 0x0 PUSH2 0xF5B DUP7 DUP4 PUSH4 0xFFFFFFFF PUSH2 0xB4D AND JUMP JUMPDEST SWAP1 POP PUSH1 0x0 PUSH2 0xF6F DUP4 DUP9 PUSH4 0xFFFFFFFF PUSH2 0xB4D AND JUMP JUMPDEST SWAP1 POP PUSH1 0x0 PUSH2 0xF7F DUP7 PUSH2 0x462 PUSH2 0x98B JUMP JUMPDEST SWAP1 POP PUSH1 0x0 PUSH2 0xF8B PUSH2 0x98B JUMP JUMPDEST DUP5 SLT ISZERO PUSH2 0xFA9 JUMPI PUSH2 0xFA2 PUSH2 0xD0C DUP4 PUSH2 0x754 DUP8 PUSH2 0x1158 JUMP JUMPDEST SWAP1 POP PUSH2 0xFC7 JUMP JUMPDEST PUSH2 0xFC4 PUSH2 0xFBC PUSH2 0xD0C DUP5 PUSH2 0x754 DUP8 PUSH2 0x1158 JUMP JUMPDEST PUSH2 0x70B PUSH2 0x98B JUMP JUMPDEST SWAP1 POP JUMPDEST PUSH2 0xFD7 DUP2 DUP10 PUSH4 0xFFFFFFFF PUSH2 0xC7B AND JUMP JUMPDEST SWAP6 POP PUSH32 0x3CF9BD989028BFC957CA46FD34C8ED26F90D849442378EE442FCD56CF5CAC44F DUP11 DUP11 DUP11 DUP11 PUSH2 0x1007 DUP12 PUSH2 0x931 JUMP JUMPDEST PUSH1 0x40 MLOAD PUSH2 0x1018 SWAP6 SWAP5 SWAP4 SWAP3 SWAP2 SWAP1 PUSH2 0x2027 JUMP JUMPDEST PUSH1 0x40 MLOAD DUP1 SWAP2 SUB SWAP1 LOG1 POP POP POP POP POP SWAP5 SWAP4 POP POP POP POP JUMP JUMPDEST PUSH1 0x0 PUSH2 0x5EE PUSH2 0x1045 PUSH2 0x103D PUSH2 0x98B JUMP JUMPDEST PUSH2 0xC00 PUSH2 0x98B JUMP JUMPDEST PUSH2 0x70B DUP6 DUP6 PUSH4 0xFFFFFFFF PUSH2 0xCCE AND JUMP JUMPDEST PUSH1 0x0 DUP1 PUSH2 0x1068 DUP4 DUP1 PUSH4 0xFFFFFFFF PUSH2 0xC7B AND JUMP JUMPDEST SWAP1 POP PUSH1 0x0 PUSH2 0x107C DUP5 DUP4 PUSH4 0xFFFFFFFF PUSH2 0xC7B AND JUMP JUMPDEST SWAP1 POP PUSH1 0x0 PUSH2 0x1090 DUP3 DUP1 PUSH4 0xFFFFFFFF PUSH2 0xC7B AND JUMP JUMPDEST SWAP1 POP PUSH1 0x0 PUSH2 0x10A4 DUP3 DUP1 PUSH4 0xFFFFFFFF PUSH2 0xC7B AND JUMP JUMPDEST SWAP1 POP PUSH1 0x0 PUSH2 0x10B8 DUP3 DUP1 PUSH4 0xFFFFFFFF PUSH2 0xC7B AND JUMP JUMPDEST SWAP1 POP PUSH1 0x0 PUSH2 0x10CC DUP3 DUP1 PUSH4 0xFFFFFFFF PUSH2 0xC7B AND JUMP JUMPDEST SWAP1 POP PUSH1 0x0 PUSH2 0x10E0 DUP3 DUP1 PUSH4 0xFFFFFFFF PUSH2 0xC7B AND JUMP JUMPDEST SWAP1 POP PUSH1 0x0 PUSH2 0x10F4 DUP3 DUP9 PUSH4 0xFFFFFFFF PUSH2 0xC7B AND JUMP JUMPDEST SWAP11 SWAP10 POP POP POP POP POP POP POP POP POP POP JUMP JUMPDEST PUSH1 0x0 DUP1 DUP3 SLT ISZERO PUSH2 0x113E JUMPI PUSH1 0x40 MLOAD PUSH32 0x8C379A000000000000000000000000000000000000000000000000000000000 DUP2 MSTORE PUSH1 0x4 ADD PUSH2 0x266 SWAP1 PUSH2 0x21BA JUMP JUMPDEST PUSH2 0x966 DUP3 PUSH16 0x80000000000000000000000000000000 PUSH2 0xA08 JUMP JUMPDEST PUSH1 0x0 PUSH16 0x80000000000000000000000000000000 DUP3 SGT ISZERO PUSH2 0x11A4 JUMPI PUSH1 0x40 MLOAD PUSH32 0x8C379A000000000000000000000000000000000000000000000000000000000 DUP2 MSTORE PUSH1 0x4 ADD PUSH2 0x266 SWAP1 PUSH2 0x2183 JUMP JUMPDEST PUSH1 0x0 DUP3 SGT PUSH2 0x11DE JUMPI PUSH1 0x40 MLOAD PUSH32 0x8C379A000000000000000000000000000000000000000000000000000000000 DUP2 MSTORE PUSH1 0x4 ADD PUSH2 0x266 SWAP1 PUSH2 0x204A JUMP JUMPDEST PUSH16 0x80000000000000000000000000000000 DUP3 EQ ISZERO PUSH2 0x11FE JUMPI POP PUSH1 0x0 PUSH2 0x945 JUMP JUMPDEST PUSH5 0x733048C5A DUP3 SGT PUSH2 0x1231 JUMPI POP PUSH32 0xFFFFFFFFFFFFFFFFFFFFFFFFFFFFFFE010000000000000000000000000000000 PUSH2 0x945 JUMP JUMPDEST PUSH1 0x0 DUP1 PUSH1 0x0 PUSH11 0x1C8464F76164760000000 DUP6 SGT PUSH2 0x1290 JUMPI PUSH32 0xFFFFFFFFFFFFFFFFFFFFFFFFFFFFFFF000000000000000000000000000000000 SWAP1 SWAP4 ADD SWAP3 PUSH11 0x1C8464F76164760000000 PUSH16 0x80000000000000000000000000000000 DUP7 MUL SDIV SWAP5 POP JUMPDEST PUSH13 0xF1AADDD7742E90000000000000 DUP6 SGT PUSH2 0x12EE JUMPI PUSH32 0xFFFFFFFFFFFFFFFFFFFFFFFFFFFFFFF800000000000000000000000000000000 SWAP1 SWAP4 ADD SWAP3 PUSH13 0xF1AADDD7742E90000000000000 PUSH16 0x80000000000000000000000000000000 DUP7 MUL SDIV SWAP5 POP JUMPDEST PUSH15 0xAFE10820813D78000000000000000 DUP6 SGT PUSH2 0x1350 JUMPI PUSH32 0xFFFFFFFFFFFFFFFFFFFFFFFFFFFFFFFC00000000000000000000000000000000 SWAP1 SWAP4 ADD SWAP3 PUSH15 0xAFE10820813D78000000000000000 PUSH16 0x80000000000000000000000000000000 DUP7 MUL SDIV SWAP5 POP JUMPDEST PUSH16 0x2582AB704279EC00000000000000000 DUP6 SGT PUSH2 0x13B4 JUMPI PUSH32 0xFFFFFFFFFFFFFFFFFFFFFFFFFFFFFFFE00000000000000000000000000000000 SWAP1 SWAP4 ADD SWAP3 PUSH16 0x2582AB704279EC00000000000000000 PUSH16 0x80000000000000000000000000000000 DUP7 MUL SDIV SWAP5 POP JUMPDEST PUSH16 0x1152AAA3BF81CC000000000000000000 DUP6 SGT PUSH2 0x1418 JUMPI PUSH32 0xFFFFFFFFFFFFFFFFFFFFFFFFFFFFFFFF00000000000000000000000000000000 SWAP1 SWAP4 ADD SWAP3 PUSH16 0x1152AAA3BF81CC000000000000000000 PUSH16 0x80000000000000000000000000000000 DUP7 MUL SDIV SWAP5 POP JUMPDEST PUSH16 0x2F16AC6C59DE70000000000000000000 DUP6 SGT PUSH2 0x147C JUMPI PUSH32 0xFFFFFFFFFFFFFFFFFFFFFFFFFFFFFFFF80000000000000000000000000000000 SWAP1 SWAP4 ADD SWAP3 PUSH16 0x2F16AC6C59DE70000000000000000000 PUSH16 0x80000000000000000000000000000000 DUP7 MUL SDIV SWAP5 POP JUMPDEST PUSH16 0x4DA2CBF1BE5828000000000000000000 DUP6 SGT PUSH2 0x14E0 JUMPI PUSH32 0xFFFFFFFFFFFFFFFFFFFFFFFFFFFFFFFFC0000000000000000000000000000000 SWAP1 SWAP4 ADD SWAP3 PUSH16 0x4DA2CBF1BE5828000000000000000000 PUSH16 0x80000000000000000000000000000000 DUP7 MUL SDIV SWAP5 POP JUMPDEST PUSH16 0x63AFBE7AB2082C000000000000000000 DUP6 SGT PUSH2 0x1544 JUMPI PUSH32 0xFFFFFFFFFFFFFFFFFFFFFFFFFFFFFFFFE0000000000000000000000000000000 SWAP1 SWAP4 ADD SWAP3 PUSH16 0x63AFBE7AB2082C000000000000000000 PUSH16 0x80000000000000000000000000000000 DUP7 MUL SDIV SWAP5 POP JUMPDEST PUSH16 0x70F5A893B608861E1F58934F97AEA57D DUP6 SGT PUSH2 0x15A8 JUMPI PUSH32 0xFFFFFFFFFFFFFFFFFFFFFFFFFFFFFFFFF0000000000000000000000000000000 SWAP1 SWAP4 ADD SWAP3 PUSH16 0x70F5A893B608861E1F58934F97AEA57D PUSH16 0x80000000000000000000000000000000 DUP7 MUL SDIV SWAP5 POP JUMPDEST PUSH32 0xFFFFFFFFFFFFFFFFFFFFFFFFFFFFFFFF80000000000000000000000000000000 DUP6 ADD SWAP3 POP DUP3 SWAP2 POP PUSH16 0x80000000000000000000000000000000 DUP3 DUP1 MUL SDIV SWAP1 POP PUSH17 0x100000000000000000000000000000000 DUP4 DUP2 SUB DUP4 MUL SDIV DUP5 ADD SWAP4 POP PUSH16 0x80000000000000000000000000000000 DUP2 DUP4 MUL DUP2 PUSH2 0x161E JUMPI INVALID JUMPDEST SDIV SWAP2 POP PUSH17 0x200000000000000000000000000000000 DUP4 PUSH16 0xAAAAAAAAAAAAAAAAAAAAAAAAAAAAAAAA SUB DUP4 MUL DUP2 PUSH2 0x164F JUMPI INVALID JUMPDEST SDIV DUP5 ADD SWAP4 POP PUSH16 0x80000000000000000000000000000000 DUP2 DUP4 MUL DUP2 PUSH2 0x166F JUMPI INVALID JUMPDEST SDIV SWAP2 POP PUSH17 0x300000000000000000000000000000000 DUP4 PUSH16 0x99999999999999999999999999999999 SUB DUP4 MUL DUP2 PUSH2 0x16A0 JUMPI INVALID JUMPDEST SDIV DUP5 ADD SWAP4 POP PUSH16 0x80000000000000000000000000000000 DUP2 DUP4 MUL DUP2 PUSH2 0x16C0 JUMPI INVALID JUMPDEST SDIV SWAP2 POP PUSH17 0x400000000000000000000000000000000 DUP4 PUSH16 0x92492492492492492492492492492492 SUB DUP4 MUL DUP2 PUSH2 0x16F1 JUMPI INVALID JUMPDEST SDIV DUP5 ADD SWAP4 POP PUSH16 0x80000000000000000000000000000000 DUP2 DUP4 MUL DUP2 PUSH2 0x1711 JUMPI INVALID JUMPDEST SDIV SWAP2 POP PUSH17 0x500000000000000000000000000000000 DUP4 PUSH16 0x8E38E38E38E38E38E38E38E38E38E38E SUB DUP4 MUL DUP2 PUSH2 0x1742 JUMPI INVALID JUMPDEST SDIV DUP5 ADD SWAP4 POP PUSH16 0x80000000000000000000000000000000 DUP2 DUP4 MUL DUP2 PUSH2 0x1762 JUMPI INVALID JUMPDEST SDIV SWAP2 POP PUSH17 0x600000000000000000000000000000000 DUP4 PUSH16 0x8BA2E8BA2E8BA2E8BA2E8BA2E8BA2E8B SUB DUP4 MUL DUP2 PUSH2 0x1793 JUMPI INVALID JUMPDEST SDIV DUP5 ADD SWAP4 POP PUSH16 0x80000000000000000000000000000000 DUP2 DUP4 MUL DUP2 PUSH2 0x17B3 JUMPI INVALID JUMPDEST SDIV SWAP2 POP PUSH17 0x700000000000000000000000000000000 DUP4 PUSH16 0x89D89D89D89D89D89D89D89D89D89D89 SUB DUP4 MUL DUP2 PUSH2 0x17E4 JUMPI INVALID JUMPDEST SDIV DUP5 ADD SWAP4 POP PUSH16 0x80000000000000000000000000000000 DUP2 DUP4 MUL DUP2 PUSH2 0x1804 JUMPI INVALID JUMPDEST SDIV SWAP2 POP PUSH17 0x800000000000000000000000000000000 DUP4 PUSH16 0x88888888888888888888888888888888 SUB DUP4 MUL DUP2 PUSH2 0x1835 JUMPI INVALID JUMPDEST SDIV DUP5 ADD SWAP4 POP POP POP POP SWAP2 SWAP1 POP JUMP JUMPDEST PUSH1 0x0 PUSH32 0xFFFFFFFFFFFFFFFFFFFFFFFFFFFFFFE010000000000000000000000000000000 DUP3 SLT ISZERO PUSH2 0x1874 JUMPI POP PUSH1 0x0 PUSH2 0x945 JUMP JUMPDEST DUP2 PUSH2 0x1890 JUMPI POP PUSH16 0x80000000000000000000000000000000 PUSH2 0x945 JUMP JUMPDEST PUSH1 0x0 DUP3 SGT ISZERO PUSH2 0x18CB JUMPI PUSH1 0x40 MLOAD PUSH32 0x8C379A000000000000000000000000000000000000000000000000000000000 DUP2 MSTORE PUSH1 0x4 ADD PUSH2 0x266 SWAP1 PUSH2 0x2217 JUMP JUMPDEST PUSH16 0x80000000000000000000000000000000 PUSH16 0x10000000000000000000000000000000 DUP4 SMOD DUP1 DUP1 MUL DUP3 SWAP1 SDIV PUSH8 0x10E1B3BE415A0000 DUP2 MUL SWAP4 SWAP1 SWAP4 ADD SWAP3 SWAP1 SWAP2 DUP2 DUP4 MUL SDIV SWAP1 POP DUP1 PUSH8 0x5A0913F6B1E0000 MUL DUP4 ADD SWAP3 POP PUSH16 0x80000000000000000000000000000000 DUP3 DUP3 MUL DUP2 PUSH2 0x1937 JUMPI INVALID JUMPDEST SDIV SWAP1 POP DUP1 PUSH8 0x168244FDAC78000 MUL DUP4 ADD SWAP3 POP PUSH16 0x80000000000000000000000000000000 DUP3 DUP3 MUL DUP2 PUSH2 0x1964 JUMPI INVALID JUMPDEST SDIV SWAP1 POP DUP1 PUSH7 0x4807432BC18000 MUL DUP4 ADD SWAP3 POP PUSH16 0x80000000000000000000000000000000 DUP3 DUP3 MUL DUP2 PUSH2 0x1990 JUMPI INVALID JUMPDEST SDIV SWAP1 POP DUP1 PUSH7 0xC0135DCA04000 MUL DUP4 ADD SWAP3 POP PUSH16 0x80000000000000000000000000000000 DUP3 DUP3 MUL DUP2 PUSH2 0x19BC JUMPI INVALID JUMPDEST SDIV SWAP1 POP DUP1 PUSH7 0x1B707B1CDC000 MUL DUP4 ADD SWAP3 POP PUSH16 0x80000000000000000000000000000000 DUP3 DUP3 MUL DUP2 PUSH2 0x19E8 JUMPI INVALID JUMPDEST SDIV SWAP1 POP DUP1 PUSH6 0x36E0F639B800 MUL DUP4 ADD SWAP3 POP PUSH16 0x80000000000000000000000000000000 DUP3 DUP3 MUL DUP2 PUSH2 0x1A13 JUMPI INVALID JUMPDEST SDIV SWAP1 POP DUP1 PUSH6 0x618FEE9F800 MUL DUP4 ADD SWAP3 POP PUSH16 0x80000000000000000000000000000000 DUP3 DUP3 MUL DUP2 PUSH2 0x1A3E JUMPI INVALID JUMPDEST SDIV SWAP1 POP DUP1 PUSH5 0x9C197DCC00 MUL DUP4 ADD SWAP3 POP PUSH16 0x80000000000000000000000000000000 DUP3 DUP3 MUL DUP2 PUSH2 0x1A68 JUMPI INVALID JUMPDEST SDIV SWAP1 POP DUP1 PUSH5 0xE30DCE400 MUL DUP4 ADD SWAP3 POP PUSH16 0x80000000000000000000000000000000 DUP3 DUP3 MUL DUP2 PUSH2 0x1A92 JUMPI INVALID JUMPDEST SDIV SWAP1 POP DUP1 PUSH5 0x12EBD1300 MUL DUP4 ADD SWAP3 POP PUSH16 0x80000000000000000000000000000000 DUP3 DUP3 MUL DUP2 PUSH2 0x1ABC JUMPI INVALID JUMPDEST SDIV SWAP1 POP DUP1 PUSH4 0x17499F00 MUL DUP4 ADD SWAP3 POP PUSH16 0x80000000000000000000000000000000 DUP3 DUP3 MUL DUP2 PUSH2 0x1AE5 JUMPI INVALID JUMPDEST SDIV SWAP1 POP DUP1 PUSH4 0x1A9D480 MUL DUP4 ADD SWAP3 POP PUSH16 0x80000000000000000000000000000000 DUP3 DUP3 MUL DUP2 PUSH2 0x1B0E JUMPI INVALID JUMPDEST SDIV SWAP1 POP DUP1 PUSH3 0x1C6380 MUL DUP4 ADD SWAP3 POP PUSH16 0x80000000000000000000000000000000 DUP3 DUP3 MUL DUP2 PUSH2 0x1B36 JUMPI INVALID JUMPDEST SDIV SWAP1 POP DUP1 PUSH3 0x1C638 MUL DUP4 ADD SWAP3 POP PUSH16 0x80000000000000000000000000000000 DUP3 DUP3 MUL DUP2 PUSH2 0x1B5E JUMPI INVALID JUMPDEST SDIV SWAP1 POP DUP1 PUSH2 0x1AB8 MUL DUP4 ADD SWAP3 POP PUSH16 0x80000000000000000000000000000000 DUP3 DUP3 MUL DUP2 PUSH2 0x1B85 JUMPI INVALID JUMPDEST SDIV SWAP1 POP DUP1 PUSH2 0x17C MUL DUP4 ADD SWAP3 POP PUSH16 0x80000000000000000000000000000000 DUP3 DUP3 MUL DUP2 PUSH2 0x1BAC JUMPI INVALID JUMPDEST SDIV SWAP1 POP DUP1 PUSH1 0x14 MUL DUP4 ADD SWAP3 POP PUSH16 0x80000000000000000000000000000000 DUP3 DUP3 MUL DUP2 PUSH2 0x1BD2 JUMPI INVALID JUMPDEST PUSH1 0x0 SWAP6 SWAP1 SWAP6 SUB SWAP5 PUSH8 0x21C3677C82B40000 SWAP2 SWAP1 SDIV SWAP4 DUP5 ADD SDIV DUP3 ADD PUSH16 0x80000000000000000000000000000000 ADD SWAP3 SWAP1 POP PUSH17 0x1000000000000000000000000000000000 DUP5 AND ISZERO PUSH2 0x1C41 JUMPI PUSH19 0x43CBAF42A000812488FC5C220AD7B97BF6E99E PUSH13 0xF1AADDD7742E56D32FB9F99744 DUP5 MUL SDIV SWAP3 POP JUMPDEST PUSH17 0x800000000000000000000000000000000 DUP5 AND ISZERO PUSH2 0x1C83 JUMPI PUSH18 0x5D27A9F51C31B7C2F8038212A0574779991 PUSH15 0xAFE10820813D65DFE6A33C07F738F DUP5 MUL SDIV SWAP3 POP JUMPDEST PUSH17 0x400000000000000000000000000000000 DUP5 AND ISZERO PUSH2 0x1CC5 JUMPI PUSH17 0x1B4C902E273A58678D6D3BFDB93DB96D02 PUSH16 0x2582AB704279E8EFD15E0265855C47A DUP5 MUL SDIV SWAP3 POP JUMPDEST PUSH17 0x200000000000000000000000000000000 DUP5 AND ISZERO PUSH2 0x1D07 JUMPI PUSH17 0x3B1CC971A9BB5B9867477440D6D157750 PUSH16 0x1152AAA3BF81CB9FDB76EAE12D029571 DUP5 MUL SDIV SWAP3 POP JUMPDEST PUSH17 0x100000000000000000000000000000000 DUP5 AND ISZERO PUSH2 0x1D49 JUMPI PUSH17 0x15BF0A8B1457695355FB8AC404E7A79E3 PUSH16 0x2F16AC6C59DE6F8D5D6F63C1482A7C86 DUP5 MUL SDIV SWAP3 POP JUMPDEST PUSH16 0x80000000000000000000000000000000 DUP5 AND ISZERO PUSH2 0x1D89 JUMPI PUSH16 0xD3094C70F034DE4B96FF7D5B6F99FCD8 PUSH16 0x4DA2CBF1BE5827F9EB3AD1AA9866EBB3 DUP5 MUL SDIV SWAP3 POP JUMPDEST PUSH16 0x40000000000000000000000000000000 DUP5 AND ISZERO PUSH2 0x1DC9 JUMPI PUSH16 0xA45AF1E1F40C333B3DE1DB4DD55F29A7 PUSH16 0x63AFBE7AB2082BA1A0AE5E4EB1B479DC DUP5 MUL SDIV SWAP3 POP JUMPDEST PUSH16 0x20000000000000000000000000000000 DUP5 AND ISZERO PUSH2 0x1E09 JUMPI PUSH16 0x910B022DB7AE67CE76B441C27035C6A1 PUSH16 0x70F5A893B608861E1F58934F97AEA57D DUP5 MUL SDIV SWAP3 POP JUMPDEST PUSH16 0x10000000000000000000000000000000 DUP5 AND ISZERO PUSH2 0x1E49 JUMPI PUSH16 0x88415ABBE9A76BEAD8D00CF112E4D4A8 PUSH16 0x783EAFEF1C0A8F3978C7F81824D62EBF DUP5 MUL SDIV SWAP3 POP JUMPDEST POP POP SWAP2 SWAP1 POP JUMP JUMPDEST PUSH1 0x40 MLOAD DUP1 PUSH2 0x1A0 ADD PUSH1 0x40 MSTORE DUP1 PUSH1 0x0 ISZERO ISZERO DUP2 MSTORE PUSH1 0x20 ADD PUSH1 0x0 PUSH20 0xFFFFFFFFFFFFFFFFFFFFFFFFFFFFFFFFFFFFFFFF AND DUP2 MSTORE PUSH1 0x20 ADD PUSH1 0x0 PUSH20 0xFFFFFFFFFFFFFFFFFFFFFFFFFFFFFFFFFFFFFFFF AND DUP2 MSTORE PUSH1 0x20 ADD PUSH1 0x0 DUP2 MSTORE PUSH1 0x20 ADD PUSH1 0x0 DUP2 MSTORE PUSH1 0x20 ADD PUSH1 0x0 DUP2 MSTORE PUSH1 0x20 ADD PUSH1 0x0 DUP2 MSTORE PUSH1 0x20 ADD PUSH1 0x0 DUP2 MSTORE PUSH1 0x20 ADD PUSH1 0x0 DUP2 MSTORE PUSH1 0x20 ADD PUSH1 0x0 DUP2 MSTORE PUSH1 0x20 ADD PUSH1 0x0 DUP2 MSTORE PUSH1 0x20 ADD PUSH1 0x0 DUP2 MSTORE PUSH1 0x20 ADD PUSH1 0x0 DUP2 MSTORE POP SWAP1 JUMP JUMPDEST PUSH1 0x0 PUSH1 0x20 DUP3 DUP5 SUB SLT ISZERO PUSH2 0x1EF7 JUMPI DUP1 DUP2 REVERT JUMPDEST DUP2 CALLDATALOAD PUSH20 0xFFFFFFFFFFFFFFFFFFFFFFFFFFFFFFFFFFFFFFFF DUP2 AND DUP2 EQ PUSH2 0x5EE JUMPI DUP2 DUP3 REVERT JUMPDEST PUSH1 0x0 DUP1 PUSH1 0x0 PUSH1 0x60 DUP5 DUP7 SUB SLT ISZERO PUSH2 0x1F2E JUMPI DUP2 DUP3 REVERT JUMPDEST DUP4 CALLDATALOAD PUSH2 0x1F39 DUP2 PUSH2 0x23FE JUMP JUMPDEST SWAP3 POP PUSH1 0x20 DUP5 ADD CALLDATALOAD PUSH2 0x1F49 DUP2 PUSH2 0x23FE JUMP JUMPDEST SWAP3 SWAP6 SWAP3 SWAP5 POP POP POP PUSH1 0x40 SWAP2 SWAP1 SWAP2 ADD CALLDATALOAD SWAP1 JUMP JUMPDEST PUSH20 0xFFFFFFFFFFFFFFFFFFFFFFFFFFFFFFFFFFFFFFFF SWAP2 SWAP1 SWAP2 AND DUP2 MSTORE PUSH1 0x20 ADD SWAP1 JUMP JUMPDEST PUSH20 0xFFFFFFFFFFFFFFFFFFFFFFFFFFFFFFFFFFFFFFFF SWAP3 DUP4 AND DUP2 MSTORE SWAP2 AND PUSH1 0x20 DUP3 ADD MSTORE PUSH1 0x40 ADD SWAP1 JUMP JUMPDEST PUSH20 0xFFFFFFFFFFFFFFFFFFFFFFFFFFFFFFFFFFFFFFFF SWAP6 DUP7 AND DUP2 MSTORE SWAP4 DUP6 AND PUSH1 0x20 DUP6 ADD MSTORE SWAP2 SWAP1 SWAP4 AND PUSH1 0x40 DUP4 ADD MSTORE PUSH1 0x60 DUP3 ADD SWAP3 SWAP1 SWAP3 MSTORE PUSH1 0x80 DUP2 ADD SWAP2 SWAP1 SWAP2 MSTORE PUSH1 0xA0 ADD SWAP1 JUMP JUMPDEST PUSH20 0xFFFFFFFFFFFFFFFFFFFFFFFFFFFFFFFFFFFFFFFF SWAP4 SWAP1 SWAP4 AND DUP4 MSTORE PUSH1 0x20 DUP4 ADD SWAP2 SWAP1 SWAP2 MSTORE PUSH1 0x40 DUP3 ADD MSTORE PUSH1 0x60 ADD SWAP1 JUMP JUMPDEST SWAP3 DUP4 MSTORE PUSH1 0x20 DUP4 ADD SWAP2 SWAP1 SWAP2 MSTORE PUSH1 0x40 DUP3 ADD MSTORE PUSH1 0x60 ADD SWAP1 JUMP JUMPDEST SWAP5 DUP6 MSTORE PUSH1 0x20 DUP6 ADD SWAP4 SWAP1 SWAP4 MSTORE PUSH1 0x40 DUP5 ADD SWAP2 SWAP1 SWAP2 MSTORE PUSH1 0x60 DUP4 ADD MSTORE PUSH1 0x80 DUP3 ADD MSTORE PUSH1 0xA0 ADD SWAP1 JUMP JUMPDEST PUSH1 0x20 DUP1 DUP3 MSTORE PUSH1 0x13 SWAP1 DUP3 ADD MSTORE PUSH32 0x6C6E3A2076616C756520746F6F20736D616C6C00000000000000000000000000 PUSH1 0x40 DUP3 ADD MSTORE PUSH1 0x60 ADD SWAP1 JUMP JUMPDEST PUSH1 0x20 DUP1 DUP3 MSTORE PUSH1 0xE SWAP1 DUP3 ADD MSTORE PUSH32 0x4F6E6C794F776E65724572726F72000000000000000000000000000000000000 PUSH1 0x40 DUP3 ADD MSTORE PUSH1 0x60 ADD SWAP1 JUMP JUMPDEST PUSH1 0x20 DUP1 DUP3 MSTORE PUSH1 0x13 SWAP1 DUP3 ADD MSTORE PUSH32 0x416C726561647920496E697469616C697A656400000000000000000000000000 PUSH1 0x40 DUP3 ADD MSTORE PUSH1 0x60 ADD SWAP1 JUMP JUMPDEST PUSH1 0x20 DUP1 DUP3 MSTORE PUSH1 0x17 SWAP1 DUP3 ADD MSTORE PUSH32 0x496E76616C696420746F6B656E20616464726573736573000000000000000000 PUSH1 0x40 DUP3 ADD MSTORE PUSH1 0x60 ADD SWAP1 JUMP JUMPDEST PUSH1 0x20 DUP1 DUP3 MSTORE PUSH1 0x38 SWAP1 DUP3 ADD MSTORE PUSH32 0x746F46697865642875696E742C75696E74293A2064656E6F6D696E61746F7220 PUSH1 0x40 DUP3 ADD MSTORE PUSH32 0x63616E6E6F74206265206C657373207468616E207A65726F0000000000000000 PUSH1 0x60 DUP3 ADD MSTORE PUSH1 0x80 ADD SWAP1 JUMP JUMPDEST PUSH1 0x20 DUP1 DUP3 MSTORE PUSH1 0x13 SWAP1 DUP3 ADD MSTORE PUSH32 0x6C6E3A2076616C756520746F6F206C6172676500000000000000000000000000 PUSH1 0x40 DUP3 ADD MSTORE PUSH1 0x60 ADD SWAP1 JUMP JUMPDEST PUSH1 0x20 DUP1 DUP3 MSTORE PUSH1 0x27 SWAP1 DUP3 ADD MSTORE PUSH32 0x746F46697865643A2076616C75652063616E6E6F74206265206C657373207468 PUSH1 0x40 DUP3 ADD MSTORE PUSH32 0x616E207A65726F00000000000000000000000000000000000000000000000000 PUSH1 0x60 DUP3 ADD MSTORE PUSH1 0x80 ADD SWAP1 JUMP JUMPDEST PUSH1 0x20 DUP1 DUP3 MSTORE PUSH1 0x14 SWAP1 DUP3 ADD MSTORE PUSH32 0x6578703A2076616C756520746F6F20736D616C6C000000000000000000000000 PUSH1 0x40 DUP3 ADD MSTORE PUSH1 0x60 ADD SWAP1 JUMP JUMPDEST PUSH1 0x20 DUP1 DUP3 MSTORE PUSH1 0x18 SWAP1 DUP3 ADD MSTORE PUSH32 0x5472616E736665724F776E6572546F5A65726F4572726F720000000000000000 PUSH1 0x40 DUP3 ADD MSTORE PUSH1 0x60 ADD SWAP1 JUMP JUMPDEST PUSH1 0x20 DUP1 DUP3 MSTORE PUSH1 0xE SWAP1 DUP3 ADD MSTORE PUSH32 0x5F6D756C3A206F766572666C6F77000000000000000000000000000000000000 PUSH1 0x40 DUP3 ADD MSTORE PUSH1 0x60 ADD SWAP1 JUMP JUMPDEST PUSH1 0x20 DUP1 DUP3 MSTORE PUSH1 0xE SWAP1 DUP3 ADD MSTORE PUSH32 0x5F6164643A206F766572666C6F77000000000000000000000000000000000000 PUSH1 0x40 DUP3 ADD MSTORE PUSH1 0x60 ADD SWAP1 JUMP JUMPDEST PUSH1 0x20 DUP1 DUP3 MSTORE PUSH1 0x14 SWAP1 DUP3 ADD MSTORE PUSH32 0x7375623A2076616C756520746F6F20736D616C6C000000000000000000000000 PUSH1 0x40 DUP3 ADD MSTORE PUSH1 0x60 ADD SWAP1 JUMP JUMPDEST PUSH1 0x20 DUP1 DUP3 MSTORE PUSH1 0x36 SWAP1 DUP3 ADD MSTORE PUSH32 0x746F46697865642875696E742C75696E74293A206E756D657261746F72206361 PUSH1 0x40 DUP3 ADD MSTORE PUSH32 0x6E6E6F74206265206C657373207468616E207A65726F00000000000000000000 PUSH1 0x60 DUP3 ADD MSTORE PUSH1 0x80 ADD SWAP1 JUMP JUMPDEST PUSH1 0x20 DUP1 DUP3 MSTORE PUSH1 0x14 SWAP1 DUP3 ADD MSTORE PUSH32 0x5F6469763A20646976696465206279207A65726F000000000000000000000000 PUSH1 0x40 DUP3 ADD MSTORE PUSH1 0x60 ADD SWAP1 JUMP JUMPDEST PUSH1 0x20 DUP1 DUP3 MSTORE PUSH1 0xE SWAP1 DUP3 ADD MSTORE PUSH32 0x5F6469763A206F766572666C6F77000000000000000000000000000000000000 PUSH1 0x40 DUP3 ADD MSTORE PUSH1 0x60 ADD SWAP1 JUMP JUMPDEST SWAP1 DUP2 MSTORE PUSH1 0x20 ADD SWAP1 JUMP JUMPDEST PUSH20 0xFFFFFFFFFFFFFFFFFFFFFFFFFFFFFFFFFFFFFFFF DUP2 AND DUP2 EQ PUSH2 0x386 JUMPI PUSH1 0x0 DUP1 REVERT INVALID LOG3 PUSH6 0x627A7A723158 KECCAK256 DUP5 0xE7 CHAINID 0xF9 0xC6 0xD5 NOT 0xFC GASPRICE PUSH32 0x608D73ED81000EB23E6C0F4508C2B4CE394F4EAC94AF6C6578706572696D656E PUSH21 0x616CF564736F6C634300050D004000000000000000 "
			}
		}
	},
	"sourceTreeHashHex": "0x11fa0ca6aaf7f0b09b137f0cd8737ec96b56b2a2c97087eab15a22c8b9011202",
	"compiler": {
		"name": "solc",
		"version": "soljson-v0.5.13+commit.5b0b510c.js",
		"settings": {
			"optimizer": {
				"enabled": true,
				"runs": 1000000,
				"details": {
					"yul": true,
					"deduplicate": true,
					"cse": true,
					"constantOptimizer": true
				}
			},
			"outputSelection": {
				"*": {
					"*": [
						"abi",
						"devdoc",
						"evm.bytecode.object",
						"evm.bytecode.sourceMap",
						"evm.deployedBytecode.object",
						"evm.deployedBytecode.sourceMap"
					]
				}
			},
			"evmVersion": "constantinople",
			"remappings": []
		}
	},
	"chains": {}
}