{
	"schemaVersion": "2.0.0",
	"contractName": "Swapper",
	"compilerOutput": {
		"abi": [
			{
				"anonymous": false,
				"inputs": [
					{
						"indexed": false,
						"internalType": "int256",
						"name": "lhs1",
						"type": "int256"
					},
					{
						"indexed": false,
						"internalType": "int256",
						"name": "mid",
						"type": "int256"
					},
					{
						"indexed": false,
						"internalType": "int256",
						"name": "lhs",
						"type": "int256"
					}
				],
				"name": "Bisect",
				"type": "event"
			},
			{
				"anonymous": false,
				"inputs": [
					{
						"indexed": false,
						"internalType": "address",
						"name": "from",
						"type": "address"
					},
					{
						"indexed": false,
						"internalType": "address",
						"name": "fromToken",
						"type": "address"
					},
					{
						"indexed": false,
						"internalType": "address",
						"name": "toToken",
						"type": "address"
					},
					{
						"indexed": false,
						"internalType": "uint256",
						"name": "amountSpent",
						"type": "uint256"
					},
					{
						"indexed": false,
						"internalType": "uint256",
						"name": "amountReceived",
						"type": "uint256"
					}
				],
				"name": "Fill",
				"type": "event"
			},
			{
				"anonymous": false,
				"inputs": [
					{
						"indexed": false,
						"internalType": "int256",
						"name": "price",
						"type": "int256"
					},
					{
						"indexed": false,
						"internalType": "int256",
						"name": "deltaB",
						"type": "int256"
					},
					{
						"indexed": false,
						"internalType": "int256",
						"name": "newPBarX",
						"type": "int256"
					},
					{
						"indexed": false,
						"internalType": "int256",
						"name": "pA",
						"type": "int256"
					}
				],
				"name": "Price",
				"type": "event"
			},
			{
				"constant": false,
				"inputs": [
					{
						"internalType": "address",
						"name": "fromToken",
						"type": "address"
					},
					{
						"internalType": "address",
						"name": "toToken",
						"type": "address"
					},
					{
						"internalType": "uint256",
						"name": "amount",
						"type": "uint256"
					}
				],
				"name": "swap",
				"outputs": [],
				"payable": false,
				"stateMutability": "nonpayable",
				"type": "function"
			}
		],
		"devdoc": {
			"methods": {}
		},
		"evm": {
			"bytecode": {
				"linkReferences": {},
				"object": "0x608060405234801561001057600080fd5b50611d93806100206000396000f3fe608060405234801561001057600080fd5b506004361061002b5760003560e01c8063df791e5014610030575b600080fd5b61004361003e366004611a0a565b610045565b005b61004d61197d565b610055610414565b90506000610062836104a7565b825190915060009081908190819073ffffffffffffffffffffffffffffffffffffffff8a811691161480156100c65750856020015173ffffffffffffffffffffffffffffffffffffffff168873ffffffffffffffffffffffffffffffffffffffff16145b156100e5575050505060408201516060830151608084015160016101ae565b856020015173ffffffffffffffffffffffffffffffffffffffff168973ffffffffffffffffffffffffffffffffffffffff1614801561013d5750855173ffffffffffffffffffffffffffffffffffffffff8981169116145b1561017357856060015193508560400151925061016c8660800151610160610503565b9063ffffffff61051716565b91506101ae565b6040517f08c379a00000000000000000000000000000000000000000000000000000000081526004016101a590611b16565b60405180910390fd5b6000806101be8686868a8c610546565b9150915060006101ff6101e38a60e001516101d7610503565b9063ffffffff61064b16565b6101f38a8563ffffffff6106bb16565b9063ffffffff6106bb16565b905061021260008263ffffffff61064b16565b905060006102246001620186a061070e565b905060008213156102385760009150610261565b80610249888463ffffffff61072d16565b136102615761025e818863ffffffff61064b16565b91505b60006102858b6101000151610274610739565b8d6101400151888f6080015161073d565b6101608c015190915061029e908863ffffffff6106bb16565b8113156102c2576101608b01516102bb908863ffffffff6106bb16565b90506102f6565b6102d7876101f38d6101600151610160610503565b8112156102f6576102f3876101f38d6101600151610160610503565b90505b7f2200c1c87d346032bc0d16306152cc3e6e4dfa6d004ce38efa3f38f6f422d9e38484838860405161032b9493929190611aa1565b60405180910390a161033b610739565b6101008c0152851561037d57610357898b63ffffffff61072d16565b60408c015261036c888463ffffffff61072d16565b60608c015260808b018190526103b9565b61038d888463ffffffff61072d16565b60408c01526103a2898b63ffffffff61072d16565b60608c01526103b381610160610503565b60808c01525b6103c28b61081b565b7f256db8090fa51c3bac981768637d5a7c46b5540644dcef89052b89dbb2f6c8ea338f8f8d876000036040516103fc959493929190611a4a565b60405180910390a15050505050505050505050505050565b61041c61197d565b50604080516101808101825260005473ffffffffffffffffffffffffffffffffffffffff9081168252600154166020820152600254918101919091526003546060820152600454608082015260055460a082015260065460c082015260075460e0820152600854610100820152600a54610120820152600b54610140820152600c5461016082015290565b6000808212156104e3576040517f08c379a00000000000000000000000000000000000000000000000000000000081526004016101a590611b84565b6104fd826f800000000000000000000000000000006108c8565b92915050565b6f8000000000000000000000000000000090565b6000610537610531846a80000000000000000000006108c8565b8361093e565b65010000000000029392505050565b6000806105598787878660c00151610a0d565b91506000828161056f8a8863ffffffff61072d16565b905060005b601481101561063b5760006105898585610b06565b905060006105a56105a0838d63ffffffff61051716565b610b2e565b905060006105dc6105bc8c8563ffffffff6106bb16565b6105d0856101f3898763ffffffff6106bb16565b9063ffffffff61072d16565b90507f4add19bbbe358caf4af4a31b1299356fc4dccf8b4cf3c87e401b0fa60062f31e82848360405161061193929190611a8b565b60405180910390a18c8113156106295782955061062d565b8296505b505050806001019050610574565b5091925050509550959350505050565b60007f80000000000000000000000000000000000000000000000000000000000000008214156106a7576040517f08c379a00000000000000000000000000000000000000000000000000000000081526004016101a590611c86565b6106b48383600003610bdd565b9392505050565b60006f8000000000000000000000000000000082156106ed575065010000000000909105906a80000000000000000000005b60006106f985856108c8565b905081818161070457fe5b0595945050505050565b60006106b4610531846f800000000000000000000000000000006108c8565b60006106b48383610bdd565b4390565b60008061074b8787036104a7565b9050600061077061076b61075e88610c53565b849063ffffffff6106bb16565b61133d565b90506000610780826101d7610503565b90506000610794878363ffffffff6106bb16565b905060006107a8878563ffffffff6106bb16565b905060006107d46107bf858b63ffffffff61051716565b6107cf878b63ffffffff61051716565b61072d565b905060006107e482610160610503565b905060006108096107f5600261194b565b610160846105d0898963ffffffff61072d16565b9e9d5050505050505050505050505050565b80516000805473ffffffffffffffffffffffffffffffffffffffff9283167fffffffffffffffffffffffff00000000000000000000000000000000000000009182161790915560208301516001805491909316911617905560408101516002556060810151600355608081015160045560a081015160055560c081015160065560e0810151600755610100810151600855610120810151600a55610140810151600b556101600151600c55565b60008215806108d5575081155b156108e2575060006104fd565b50818102818382816108f057fe5b0514158061090757508282828161090357fe5b0514155b156104fd576040517f08c379a00000000000000000000000000000000000000000000000000000000081526004016101a590611c18565b600081610977576040517f08c379a00000000000000000000000000000000000000000000000000000000081526004016101a590611cbd565b7f8000000000000000000000000000000000000000000000000000000000000000831480156109c55750817fffffffffffffffffffffffffffffffffffffffffffffffffffffffffffffffff145b156109fc576040517f08c379a00000000000000000000000000000000000000000000000000000000081526004016101a590611cf4565b818381610a0557fe5b059392505050565b600080610a20848763ffffffff6106bb16565b90506000610a34868363ffffffff61051716565b90506000610a48838863ffffffff61051716565b90506000610a58866101d7610503565b90506000610a64610503565b841215610a8257610a7b61076b836101f387610c53565b9050610aa0565b610a9d610a9561076b846101f387610c53565b610160610503565b90505b610ab0818963ffffffff6106bb16565b90507f3cf9bd989028bfc957ca46fd34c8ed26f90d849442378ee442fcd56cf5cac44f8a8a8a8a610ae086611967565b604051610af1959493929190611abc565b60405180910390a19998505050505050505050565b60006106b4610b1e610b16610503565b6105d0610503565b610160858563ffffffff61072d16565b600080610b41838063ffffffff6106bb16565b90506000610b55848363ffffffff6106bb16565b90506000610b69828063ffffffff6106bb16565b90506000610b7d828063ffffffff6106bb16565b90506000610b91828063ffffffff6106bb16565b90506000610ba5828063ffffffff6106bb16565b90506000610bb9828063ffffffff6106bb16565b90506000610bcd828863ffffffff6106bb16565b985050505050505050505b919050565b818101600083128015610bf05750600082125b8015610bfb57508281135b80610c1c5750600083138015610c115750600082135b8015610c1c57508281125b156104fd576040517f08c379a00000000000000000000000000000000000000000000000000000000081526004016101a590611c4f565b60006f80000000000000000000000000000000821315610c9f576040517f08c379a00000000000000000000000000000000000000000000000000000000081526004016101a590611b4d565b60008213610cd9576040517f08c379a00000000000000000000000000000000000000000000000000000000081526004016101a590611adf565b6f80000000000000000000000000000000821415610cf957506000610bd8565b640733048c5a8213610d2c57507fffffffffffffffffffffffffffffffe010000000000000000000000000000000610bd8565b60008060006a01c8464f761647600000008513610d8b577ffffffffffffffffffffffffffffffff000000000000000000000000000000000909301926a01c8464f761647600000006f8000000000000000000000000000000086020594505b6cf1aaddd7742e900000000000008513610de9577ffffffffffffffffffffffffffffffff800000000000000000000000000000000909301926cf1aaddd7742e900000000000006f8000000000000000000000000000000086020594505b6e0afe10820813d780000000000000008513610e4b577ffffffffffffffffffffffffffffffffc00000000000000000000000000000000909301926e0afe10820813d780000000000000006f8000000000000000000000000000000086020594505b6f02582ab704279ec000000000000000008513610eaf577ffffffffffffffffffffffffffffffffe00000000000000000000000000000000909301926f02582ab704279ec000000000000000006f8000000000000000000000000000000086020594505b6f1152aaa3bf81cc0000000000000000008513610f13577fffffffffffffffffffffffffffffffff00000000000000000000000000000000909301926f1152aaa3bf81cc0000000000000000006f8000000000000000000000000000000086020594505b6f2f16ac6c59de700000000000000000008513610f77577fffffffffffffffffffffffffffffffff80000000000000000000000000000000909301926f2f16ac6c59de700000000000000000006f8000000000000000000000000000000086020594505b6f4da2cbf1be58280000000000000000008513610fdb577fffffffffffffffffffffffffffffffffc0000000000000000000000000000000909301926f4da2cbf1be58280000000000000000006f8000000000000000000000000000000086020594505b6f63afbe7ab2082c000000000000000000851361103f577fffffffffffffffffffffffffffffffffe0000000000000000000000000000000909301926f63afbe7ab2082c0000000000000000006f8000000000000000000000000000000086020594505b6f70f5a893b608861e1f58934f97aea57d85136110a3577ffffffffffffffffffffffffffffffffff0000000000000000000000000000000909301926f70f5a893b608861e1f58934f97aea57d6f8000000000000000000000000000000086020594505b7fffffffffffffffffffffffffffffffff80000000000000000000000000000000850192508291506f80000000000000000000000000000000828002059050700100000000000000000000000000000000838103830205840193506f800000000000000000000000000000008183028161111957fe5b059150700200000000000000000000000000000000836faaaaaaaaaaaaaaaaaaaaaaaaaaaaaaaa0383028161114a57fe5b05840193506f800000000000000000000000000000008183028161116a57fe5b059150700300000000000000000000000000000000836f999999999999999999999999999999990383028161119b57fe5b05840193506f80000000000000000000000000000000818302816111bb57fe5b059150700400000000000000000000000000000000836f92492492492492492492492492492492038302816111ec57fe5b05840193506f800000000000000000000000000000008183028161120c57fe5b059150700500000000000000000000000000000000836f8e38e38e38e38e38e38e38e38e38e38e0383028161123d57fe5b05840193506f800000000000000000000000000000008183028161125d57fe5b059150700600000000000000000000000000000000836f8ba2e8ba2e8ba2e8ba2e8ba2e8ba2e8b0383028161128e57fe5b05840193506f80000000000000000000000000000000818302816112ae57fe5b059150700700000000000000000000000000000000836f89d89d89d89d89d89d89d89d89d89d89038302816112df57fe5b05840193506f80000000000000000000000000000000818302816112ff57fe5b059150700800000000000000000000000000000000836f888888888888888888888888888888880383028161133057fe5b0584019350505050919050565b60007fffffffffffffffffffffffffffffffe01000000000000000000000000000000082121561136f57506000610bd8565b8161138b57506f80000000000000000000000000000000610bd8565b60008213156113c6576040517f08c379a00000000000000000000000000000000000000000000000000000000081526004016101a590611be1565b6f800000000000000000000000000000006f1000000000000000000000000000000083078080028290056710e1b3be415a0000810293909301929091818302059050806705a0913f6b1e000002830192506f800000000000000000000000000000008282028161143257fe5b05905080670168244fdac7800002830192506f800000000000000000000000000000008282028161145f57fe5b05905080664807432bc1800002830192506f800000000000000000000000000000008282028161148b57fe5b05905080660c0135dca0400002830192506f80000000000000000000000000000000828202816114b757fe5b059050806601b707b1cdc00002830192506f80000000000000000000000000000000828202816114e357fe5b059050806536e0f639b80002830192506f800000000000000000000000000000008282028161150e57fe5b05905080650618fee9f80002830192506f800000000000000000000000000000008282028161153957fe5b05905080649c197dcc0002830192506f800000000000000000000000000000008282028161156357fe5b05905080640e30dce40002830192506f800000000000000000000000000000008282028161158d57fe5b0590508064012ebd130002830192506f80000000000000000000000000000000828202816115b757fe5b059050806317499f0002830192506f80000000000000000000000000000000828202816115e057fe5b059050806301a9d48002830192506f800000000000000000000000000000008282028161160957fe5b05905080621c638002830192506f800000000000000000000000000000008282028161163157fe5b059050806201c63802830192506f800000000000000000000000000000008282028161165957fe5b05905080611ab802830192506f800000000000000000000000000000008282028161168057fe5b0590508061017c02830192506f80000000000000000000000000000000828202816116a757fe5b05905080601402830192506f80000000000000000000000000000000828202816116cd57fe5b600095909503946721c3677c82b400009190059384010582016f800000000000000000000000000000000192905070100000000000000000000000000000000084161561173c577243cbaf42a000812488fc5c220ad7b97bf6e99e6cf1aaddd7742e56d32fb9f9974484020592505b70080000000000000000000000000000000084161561177e577105d27a9f51c31b7c2f8038212a05747799916e0afe10820813d65dfe6a33c07f738f84020592505b7004000000000000000000000000000000008416156117c057701b4c902e273a58678d6d3bfdb93db96d026f02582ab704279e8efd15e0265855c47a84020592505b700200000000000000000000000000000000841615611802577003b1cc971a9bb5b9867477440d6d1577506f1152aaa3bf81cb9fdb76eae12d02957184020592505b7001000000000000000000000000000000008416156118445770015bf0a8b1457695355fb8ac404e7a79e36f2f16ac6c59de6f8d5d6f63c1482a7c8684020592505b6f80000000000000000000000000000000841615611884576fd3094c70f034de4b96ff7d5b6f99fcd86f4da2cbf1be5827f9eb3ad1aa9866ebb384020592505b6f400000000000000000000000000000008416156118c4576fa45af1e1f40c333b3de1db4dd55f29a76f63afbe7ab2082ba1a0ae5e4eb1b479dc84020592505b6f20000000000000000000000000000000841615611904576f910b022db7ae67ce76b441c27035c6a16f70f5a893b608861e1f58934f97aea57d84020592505b6f10000000000000000000000000000000841615611944576f88415abbe9a76bead8d00cf112e4d4a86f783eafef1c0a8f3978c7f81824d62ebf84020592505b5050919050565b60006104fd826f800000000000000000000000000000006108c8565b6f80000000000000000000000000000000900590565b604051806101800160405280600073ffffffffffffffffffffffffffffffffffffffff168152602001600073ffffffffffffffffffffffffffffffffffffffff168152602001600081526020016000815260200160008152602001600081526020016000815260200160008152602001600081526020016000815260200160008152602001600081525090565b600080600060608486031215611a1e578283fd5b8335611a2981611d2b565b92506020840135611a3981611d2b565b929592945050506040919091013590565b73ffffffffffffffffffffffffffffffffffffffff958616815293851660208501529190931660408301526060820192909252608081019190915260a00190565b9283526020830191909152604082015260600190565b93845260208401929092526040830152606082015260800190565b948552602085019390935260408401919091526060830152608082015260a00190565b60208082526013908201527f6c6e3a2076616c756520746f6f20736d616c6c00000000000000000000000000604082015260600190565b60208082526017908201527f496e76616c696420746f6b656e20616464726573736573000000000000000000604082015260600190565b60208082526013908201527f6c6e3a2076616c756520746f6f206c6172676500000000000000000000000000604082015260600190565b60208082526027908201527f746f46697865643a2076616c75652063616e6e6f74206265206c65737320746860408201527f616e207a65726f00000000000000000000000000000000000000000000000000606082015260800190565b60208082526014908201527f6578703a2076616c756520746f6f20736d616c6c000000000000000000000000604082015260600190565b6020808252600e908201527f5f6d756c3a206f766572666c6f77000000000000000000000000000000000000604082015260600190565b6020808252600e908201527f5f6164643a206f766572666c6f77000000000000000000000000000000000000604082015260600190565b60208082526014908201527f7375623a2076616c756520746f6f20736d616c6c000000000000000000000000604082015260600190565b60208082526014908201527f5f6469763a20646976696465206279207a65726f000000000000000000000000604082015260600190565b6020808252600e908201527f5f6469763a206f766572666c6f77000000000000000000000000000000000000604082015260600190565b73ffffffffffffffffffffffffffffffffffffffff81168114611d4d57600080fd5b5056fea365627a7a72315820b35687e5ad8b8c75958cb90a18628fe974798a7d84a38ba68d482b322adb42746c6578706572696d656e74616cf564736f6c634300050d0040",
				"opcodes": "PUSH1 0x80 PUSH1 0x40 MSTORE CALLVALUE DUP1 ISZERO PUSH2 0x10 JUMPI PUSH1 0x0 DUP1 REVERT JUMPDEST POP PUSH2 0x1D93 DUP1 PUSH2 0x20 PUSH1 0x0 CODECOPY PUSH1 0x0 RETURN INVALID PUSH1 0x80 PUSH1 0x40 MSTORE CALLVALUE DUP1 ISZERO PUSH2 0x10 JUMPI PUSH1 0x0 DUP1 REVERT JUMPDEST POP PUSH1 0x4 CALLDATASIZE LT PUSH2 0x2B JUMPI PUSH1 0x0 CALLDATALOAD PUSH1 0xE0 SHR DUP1 PUSH4 0xDF791E50 EQ PUSH2 0x30 JUMPI JUMPDEST PUSH1 0x0 DUP1 REVERT JUMPDEST PUSH2 0x43 PUSH2 0x3E CALLDATASIZE PUSH1 0x4 PUSH2 0x1A0A JUMP JUMPDEST PUSH2 0x45 JUMP JUMPDEST STOP JUMPDEST PUSH2 0x4D PUSH2 0x197D JUMP JUMPDEST PUSH2 0x55 PUSH2 0x414 JUMP JUMPDEST SWAP1 POP PUSH1 0x0 PUSH2 0x62 DUP4 PUSH2 0x4A7 JUMP JUMPDEST DUP3 MLOAD SWAP1 SWAP2 POP PUSH1 0x0 SWAP1 DUP2 SWAP1 DUP2 SWAP1 DUP2 SWAP1 PUSH20 0xFFFFFFFFFFFFFFFFFFFFFFFFFFFFFFFFFFFFFFFF DUP11 DUP2 AND SWAP2 AND EQ DUP1 ISZERO PUSH2 0xC6 JUMPI POP DUP6 PUSH1 0x20 ADD MLOAD PUSH20 0xFFFFFFFFFFFFFFFFFFFFFFFFFFFFFFFFFFFFFFFF AND DUP9 PUSH20 0xFFFFFFFFFFFFFFFFFFFFFFFFFFFFFFFFFFFFFFFF AND EQ JUMPDEST ISZERO PUSH2 0xE5 JUMPI POP POP POP POP PUSH1 0x40 DUP3 ADD MLOAD PUSH1 0x60 DUP4 ADD MLOAD PUSH1 0x80 DUP5 ADD MLOAD PUSH1 0x1 PUSH2 0x1AE JUMP JUMPDEST DUP6 PUSH1 0x20 ADD MLOAD PUSH20 0xFFFFFFFFFFFFFFFFFFFFFFFFFFFFFFFFFFFFFFFF AND DUP10 PUSH20 0xFFFFFFFFFFFFFFFFFFFFFFFFFFFFFFFFFFFFFFFF AND EQ DUP1 ISZERO PUSH2 0x13D JUMPI POP DUP6 MLOAD PUSH20 0xFFFFFFFFFFFFFFFFFFFFFFFFFFFFFFFFFFFFFFFF DUP10 DUP2 AND SWAP2 AND EQ JUMPDEST ISZERO PUSH2 0x173 JUMPI DUP6 PUSH1 0x60 ADD MLOAD SWAP4 POP DUP6 PUSH1 0x40 ADD MLOAD SWAP3 POP PUSH2 0x16C DUP7 PUSH1 0x80 ADD MLOAD PUSH2 0x160 PUSH2 0x503 JUMP JUMPDEST SWAP1 PUSH4 0xFFFFFFFF PUSH2 0x517 AND JUMP JUMPDEST SWAP2 POP PUSH2 0x1AE JUMP JUMPDEST PUSH1 0x40 MLOAD PUSH32 0x8C379A000000000000000000000000000000000000000000000000000000000 DUP2 MSTORE PUSH1 0x4 ADD PUSH2 0x1A5 SWAP1 PUSH2 0x1B16 JUMP JUMPDEST PUSH1 0x40 MLOAD DUP1 SWAP2 SUB SWAP1 REVERT JUMPDEST PUSH1 0x0 DUP1 PUSH2 0x1BE DUP7 DUP7 DUP7 DUP11 DUP13 PUSH2 0x546 JUMP JUMPDEST SWAP2 POP SWAP2 POP PUSH1 0x0 PUSH2 0x1FF PUSH2 0x1E3 DUP11 PUSH1 0xE0 ADD MLOAD PUSH2 0x1D7 PUSH2 0x503 JUMP JUMPDEST SWAP1 PUSH4 0xFFFFFFFF PUSH2 0x64B AND JUMP JUMPDEST PUSH2 0x1F3 DUP11 DUP6 PUSH4 0xFFFFFFFF PUSH2 0x6BB AND JUMP JUMPDEST SWAP1 PUSH4 0xFFFFFFFF PUSH2 0x6BB AND JUMP JUMPDEST SWAP1 POP PUSH2 0x212 PUSH1 0x0 DUP3 PUSH4 0xFFFFFFFF PUSH2 0x64B AND JUMP JUMPDEST SWAP1 POP PUSH1 0x0 PUSH2 0x224 PUSH1 0x1 PUSH3 0x186A0 PUSH2 0x70E JUMP JUMPDEST SWAP1 POP PUSH1 0x0 DUP3 SGT ISZERO PUSH2 0x238 JUMPI PUSH1 0x0 SWAP2 POP PUSH2 0x261 JUMP JUMPDEST DUP1 PUSH2 0x249 DUP9 DUP5 PUSH4 0xFFFFFFFF PUSH2 0x72D AND JUMP JUMPDEST SGT PUSH2 0x261 JUMPI PUSH2 0x25E DUP2 DUP9 PUSH4 0xFFFFFFFF PUSH2 0x64B AND JUMP JUMPDEST SWAP2 POP JUMPDEST PUSH1 0x0 PUSH2 0x285 DUP12 PUSH2 0x100 ADD MLOAD PUSH2 0x274 PUSH2 0x739 JUMP JUMPDEST DUP14 PUSH2 0x140 ADD MLOAD DUP9 DUP16 PUSH1 0x80 ADD MLOAD PUSH2 0x73D JUMP JUMPDEST PUSH2 0x160 DUP13 ADD MLOAD SWAP1 SWAP2 POP PUSH2 0x29E SWAP1 DUP9 PUSH4 0xFFFFFFFF PUSH2 0x6BB AND JUMP JUMPDEST DUP2 SGT ISZERO PUSH2 0x2C2 JUMPI PUSH2 0x160 DUP12 ADD MLOAD PUSH2 0x2BB SWAP1 DUP9 PUSH4 0xFFFFFFFF PUSH2 0x6BB AND JUMP JUMPDEST SWAP1 POP PUSH2 0x2F6 JUMP JUMPDEST PUSH2 0x2D7 DUP8 PUSH2 0x1F3 DUP14 PUSH2 0x160 ADD MLOAD PUSH2 0x160 PUSH2 0x503 JUMP JUMPDEST DUP2 SLT ISZERO PUSH2 0x2F6 JUMPI PUSH2 0x2F3 DUP8 PUSH2 0x1F3 DUP14 PUSH2 0x160 ADD MLOAD PUSH2 0x160 PUSH2 0x503 JUMP JUMPDEST SWAP1 POP JUMPDEST PUSH32 0x2200C1C87D346032BC0D16306152CC3E6E4DFA6D004CE38EFA3F38F6F422D9E3 DUP5 DUP5 DUP4 DUP9 PUSH1 0x40 MLOAD PUSH2 0x32B SWAP5 SWAP4 SWAP3 SWAP2 SWAP1 PUSH2 0x1AA1 JUMP JUMPDEST PUSH1 0x40 MLOAD DUP1 SWAP2 SUB SWAP1 LOG1 PUSH2 0x33B PUSH2 0x739 JUMP JUMPDEST PUSH2 0x100 DUP13 ADD MSTORE DUP6 ISZERO PUSH2 0x37D JUMPI PUSH2 0x357 DUP10 DUP12 PUSH4 0xFFFFFFFF PUSH2 0x72D AND JUMP JUMPDEST PUSH1 0x40 DUP13 ADD MSTORE PUSH2 0x36C DUP9 DUP5 PUSH4 0xFFFFFFFF PUSH2 0x72D AND JUMP JUMPDEST PUSH1 0x60 DUP13 ADD MSTORE PUSH1 0x80 DUP12 ADD DUP2 SWAP1 MSTORE PUSH2 0x3B9 JUMP JUMPDEST PUSH2 0x38D DUP9 DUP5 PUSH4 0xFFFFFFFF PUSH2 0x72D AND JUMP JUMPDEST PUSH1 0x40 DUP13 ADD MSTORE PUSH2 0x3A2 DUP10 DUP12 PUSH4 0xFFFFFFFF PUSH2 0x72D AND JUMP JUMPDEST PUSH1 0x60 DUP13 ADD MSTORE PUSH2 0x3B3 DUP2 PUSH2 0x160 PUSH2 0x503 JUMP JUMPDEST PUSH1 0x80 DUP13 ADD MSTORE JUMPDEST PUSH2 0x3C2 DUP12 PUSH2 0x81B JUMP JUMPDEST PUSH32 0x256DB8090FA51C3BAC981768637D5A7C46B5540644DCEF89052B89DBB2F6C8EA CALLER DUP16 DUP16 DUP14 DUP8 PUSH1 0x0 SUB PUSH1 0x40 MLOAD PUSH2 0x3FC SWAP6 SWAP5 SWAP4 SWAP3 SWAP2 SWAP1 PUSH2 0x1A4A JUMP JUMPDEST PUSH1 0x40 MLOAD DUP1 SWAP2 SUB SWAP1 LOG1 POP POP POP POP POP POP POP POP POP POP POP POP POP POP JUMP JUMPDEST PUSH2 0x41C PUSH2 0x197D JUMP JUMPDEST POP PUSH1 0x40 DUP1 MLOAD PUSH2 0x180 DUP2 ADD DUP3 MSTORE PUSH1 0x0 SLOAD PUSH20 0xFFFFFFFFFFFFFFFFFFFFFFFFFFFFFFFFFFFFFFFF SWAP1 DUP2 AND DUP3 MSTORE PUSH1 0x1 SLOAD AND PUSH1 0x20 DUP3 ADD MSTORE PUSH1 0x2 SLOAD SWAP2 DUP2 ADD SWAP2 SWAP1 SWAP2 MSTORE PUSH1 0x3 SLOAD PUSH1 0x60 DUP3 ADD MSTORE PUSH1 0x4 SLOAD PUSH1 0x80 DUP3 ADD MSTORE PUSH1 0x5 SLOAD PUSH1 0xA0 DUP3 ADD MSTORE PUSH1 0x6 SLOAD PUSH1 0xC0 DUP3 ADD MSTORE PUSH1 0x7 SLOAD PUSH1 0xE0 DUP3 ADD MSTORE PUSH1 0x8 SLOAD PUSH2 0x100 DUP3 ADD MSTORE PUSH1 0xA SLOAD PUSH2 0x120 DUP3 ADD MSTORE PUSH1 0xB SLOAD PUSH2 0x140 DUP3 ADD MSTORE PUSH1 0xC SLOAD PUSH2 0x160 DUP3 ADD MSTORE SWAP1 JUMP JUMPDEST PUSH1 0x0 DUP1 DUP3 SLT ISZERO PUSH2 0x4E3 JUMPI PUSH1 0x40 MLOAD PUSH32 0x8C379A000000000000000000000000000000000000000000000000000000000 DUP2 MSTORE PUSH1 0x4 ADD PUSH2 0x1A5 SWAP1 PUSH2 0x1B84 JUMP JUMPDEST PUSH2 0x4FD DUP3 PUSH16 0x80000000000000000000000000000000 PUSH2 0x8C8 JUMP JUMPDEST SWAP3 SWAP2 POP POP JUMP JUMPDEST PUSH16 0x80000000000000000000000000000000 SWAP1 JUMP JUMPDEST PUSH1 0x0 PUSH2 0x537 PUSH2 0x531 DUP5 PUSH11 0x8000000000000000000000 PUSH2 0x8C8 JUMP JUMPDEST DUP4 PUSH2 0x93E JUMP JUMPDEST PUSH6 0x10000000000 MUL SWAP4 SWAP3 POP POP POP JUMP JUMPDEST PUSH1 0x0 DUP1 PUSH2 0x559 DUP8 DUP8 DUP8 DUP7 PUSH1 0xC0 ADD MLOAD PUSH2 0xA0D JUMP JUMPDEST SWAP2 POP PUSH1 0x0 DUP3 DUP2 PUSH2 0x56F DUP11 DUP9 PUSH4 0xFFFFFFFF PUSH2 0x72D AND JUMP JUMPDEST SWAP1 POP PUSH1 0x0 JUMPDEST PUSH1 0x14 DUP2 LT ISZERO PUSH2 0x63B JUMPI PUSH1 0x0 PUSH2 0x589 DUP6 DUP6 PUSH2 0xB06 JUMP JUMPDEST SWAP1 POP PUSH1 0x0 PUSH2 0x5A5 PUSH2 0x5A0 DUP4 DUP14 PUSH4 0xFFFFFFFF PUSH2 0x517 AND JUMP JUMPDEST PUSH2 0xB2E JUMP JUMPDEST SWAP1 POP PUSH1 0x0 PUSH2 0x5DC PUSH2 0x5BC DUP13 DUP6 PUSH4 0xFFFFFFFF PUSH2 0x6BB AND JUMP JUMPDEST PUSH2 0x5D0 DUP6 PUSH2 0x1F3 DUP10 DUP8 PUSH4 0xFFFFFFFF PUSH2 0x6BB AND JUMP JUMPDEST SWAP1 PUSH4 0xFFFFFFFF PUSH2 0x72D AND JUMP JUMPDEST SWAP1 POP PUSH32 0x4ADD19BBBE358CAF4AF4A31B1299356FC4DCCF8B4CF3C87E401B0FA60062F31E DUP3 DUP5 DUP4 PUSH1 0x40 MLOAD PUSH2 0x611 SWAP4 SWAP3 SWAP2 SWAP1 PUSH2 0x1A8B JUMP JUMPDEST PUSH1 0x40 MLOAD DUP1 SWAP2 SUB SWAP1 LOG1 DUP13 DUP2 SGT ISZERO PUSH2 0x629 JUMPI DUP3 SWAP6 POP PUSH2 0x62D JUMP JUMPDEST DUP3 SWAP7 POP JUMPDEST POP POP POP DUP1 PUSH1 0x1 ADD SWAP1 POP PUSH2 0x574 JUMP JUMPDEST POP SWAP2 SWAP3 POP POP POP SWAP6 POP SWAP6 SWAP4 POP POP POP POP JUMP JUMPDEST PUSH1 0x0 PUSH32 0x8000000000000000000000000000000000000000000000000000000000000000 DUP3 EQ ISZERO PUSH2 0x6A7 JUMPI PUSH1 0x40 MLOAD PUSH32 0x8C379A000000000000000000000000000000000000000000000000000000000 DUP2 MSTORE PUSH1 0x4 ADD PUSH2 0x1A5 SWAP1 PUSH2 0x1C86 JUMP JUMPDEST PUSH2 0x6B4 DUP4 DUP4 PUSH1 0x0 SUB PUSH2 0xBDD JUMP JUMPDEST SWAP4 SWAP3 POP POP POP JUMP JUMPDEST PUSH1 0x0 PUSH16 0x80000000000000000000000000000000 DUP3 ISZERO PUSH2 0x6ED JUMPI POP PUSH6 0x10000000000 SWAP1 SWAP2 SDIV SWAP1 PUSH11 0x8000000000000000000000 JUMPDEST PUSH1 0x0 PUSH2 0x6F9 DUP6 DUP6 PUSH2 0x8C8 JUMP JUMPDEST SWAP1 POP DUP2 DUP2 DUP2 PUSH2 0x704 JUMPI INVALID JUMPDEST SDIV SWAP6 SWAP5 POP POP POP POP POP JUMP JUMPDEST PUSH1 0x0 PUSH2 0x6B4 PUSH2 0x531 DUP5 PUSH16 0x80000000000000000000000000000000 PUSH2 0x8C8 JUMP JUMPDEST PUSH1 0x0 PUSH2 0x6B4 DUP4 DUP4 PUSH2 0xBDD JUMP JUMPDEST NUMBER SWAP1 JUMP JUMPDEST PUSH1 0x0 DUP1 PUSH2 0x74B DUP8 DUP8 SUB PUSH2 0x4A7 JUMP JUMPDEST SWAP1 POP PUSH1 0x0 PUSH2 0x770 PUSH2 0x76B PUSH2 0x75E DUP9 PUSH2 0xC53 JUMP JUMPDEST DUP5 SWAP1 PUSH4 0xFFFFFFFF PUSH2 0x6BB AND JUMP JUMPDEST PUSH2 0x133D JUMP JUMPDEST SWAP1 POP PUSH1 0x0 PUSH2 0x780 DUP3 PUSH2 0x1D7 PUSH2 0x503 JUMP JUMPDEST SWAP1 POP PUSH1 0x0 PUSH2 0x794 DUP8 DUP4 PUSH4 0xFFFFFFFF PUSH2 0x6BB AND JUMP JUMPDEST SWAP1 POP PUSH1 0x0 PUSH2 0x7A8 DUP8 DUP6 PUSH4 0xFFFFFFFF PUSH2 0x6BB AND JUMP JUMPDEST SWAP1 POP PUSH1 0x0 PUSH2 0x7D4 PUSH2 0x7BF DUP6 DUP12 PUSH4 0xFFFFFFFF PUSH2 0x517 AND JUMP JUMPDEST PUSH2 0x7CF DUP8 DUP12 PUSH4 0xFFFFFFFF PUSH2 0x517 AND JUMP JUMPDEST PUSH2 0x72D JUMP JUMPDEST SWAP1 POP PUSH1 0x0 PUSH2 0x7E4 DUP3 PUSH2 0x160 PUSH2 0x503 JUMP JUMPDEST SWAP1 POP PUSH1 0x0 PUSH2 0x809 PUSH2 0x7F5 PUSH1 0x2 PUSH2 0x194B JUMP JUMPDEST PUSH2 0x160 DUP5 PUSH2 0x5D0 DUP10 DUP10 PUSH4 0xFFFFFFFF PUSH2 0x72D AND JUMP JUMPDEST SWAP15 SWAP14 POP POP POP POP POP POP POP POP POP POP POP POP POP POP JUMP JUMPDEST DUP1 MLOAD PUSH1 0x0 DUP1 SLOAD PUSH20 0xFFFFFFFFFFFFFFFFFFFFFFFFFFFFFFFFFFFFFFFF SWAP3 DUP4 AND PUSH32 0xFFFFFFFFFFFFFFFFFFFFFFFF0000000000000000000000000000000000000000 SWAP2 DUP3 AND OR SWAP1 SWAP2 SSTORE PUSH1 0x20 DUP4 ADD MLOAD PUSH1 0x1 DUP1 SLOAD SWAP2 SWAP1 SWAP4 AND SWAP2 AND OR SWAP1 SSTORE PUSH1 0x40 DUP2 ADD MLOAD PUSH1 0x2 SSTORE PUSH1 0x60 DUP2 ADD MLOAD PUSH1 0x3 SSTORE PUSH1 0x80 DUP2 ADD MLOAD PUSH1 0x4 SSTORE PUSH1 0xA0 DUP2 ADD MLOAD PUSH1 0x5 SSTORE PUSH1 0xC0 DUP2 ADD MLOAD PUSH1 0x6 SSTORE PUSH1 0xE0 DUP2 ADD MLOAD PUSH1 0x7 SSTORE PUSH2 0x100 DUP2 ADD MLOAD PUSH1 0x8 SSTORE PUSH2 0x120 DUP2 ADD MLOAD PUSH1 0xA SSTORE PUSH2 0x140 DUP2 ADD MLOAD PUSH1 0xB SSTORE PUSH2 0x160 ADD MLOAD PUSH1 0xC SSTORE JUMP JUMPDEST PUSH1 0x0 DUP3 ISZERO DUP1 PUSH2 0x8D5 JUMPI POP DUP2 ISZERO JUMPDEST ISZERO PUSH2 0x8E2 JUMPI POP PUSH1 0x0 PUSH2 0x4FD JUMP JUMPDEST POP DUP2 DUP2 MUL DUP2 DUP4 DUP3 DUP2 PUSH2 0x8F0 JUMPI INVALID JUMPDEST SDIV EQ ISZERO DUP1 PUSH2 0x907 JUMPI POP DUP3 DUP3 DUP3 DUP2 PUSH2 0x903 JUMPI INVALID JUMPDEST SDIV EQ ISZERO JUMPDEST ISZERO PUSH2 0x4FD JUMPI PUSH1 0x40 MLOAD PUSH32 0x8C379A000000000000000000000000000000000000000000000000000000000 DUP2 MSTORE PUSH1 0x4 ADD PUSH2 0x1A5 SWAP1 PUSH2 0x1C18 JUMP JUMPDEST PUSH1 0x0 DUP2 PUSH2 0x977 JUMPI PUSH1 0x40 MLOAD PUSH32 0x8C379A000000000000000000000000000000000000000000000000000000000 DUP2 MSTORE PUSH1 0x4 ADD PUSH2 0x1A5 SWAP1 PUSH2 0x1CBD JUMP JUMPDEST PUSH32 0x8000000000000000000000000000000000000000000000000000000000000000 DUP4 EQ DUP1 ISZERO PUSH2 0x9C5 JUMPI POP DUP2 PUSH32 0xFFFFFFFFFFFFFFFFFFFFFFFFFFFFFFFFFFFFFFFFFFFFFFFFFFFFFFFFFFFFFFFF EQ JUMPDEST ISZERO PUSH2 0x9FC JUMPI PUSH1 0x40 MLOAD PUSH32 0x8C379A000000000000000000000000000000000000000000000000000000000 DUP2 MSTORE PUSH1 0x4 ADD PUSH2 0x1A5 SWAP1 PUSH2 0x1CF4 JUMP JUMPDEST DUP2 DUP4 DUP2 PUSH2 0xA05 JUMPI INVALID JUMPDEST SDIV SWAP4 SWAP3 POP POP POP JUMP JUMPDEST PUSH1 0x0 DUP1 PUSH2 0xA20 DUP5 DUP8 PUSH4 0xFFFFFFFF PUSH2 0x6BB AND JUMP JUMPDEST SWAP1 POP PUSH1 0x0 PUSH2 0xA34 DUP7 DUP4 PUSH4 0xFFFFFFFF PUSH2 0x517 AND JUMP JUMPDEST SWAP1 POP PUSH1 0x0 PUSH2 0xA48 DUP4 DUP9 PUSH4 0xFFFFFFFF PUSH2 0x517 AND JUMP JUMPDEST SWAP1 POP PUSH1 0x0 PUSH2 0xA58 DUP7 PUSH2 0x1D7 PUSH2 0x503 JUMP JUMPDEST SWAP1 POP PUSH1 0x0 PUSH2 0xA64 PUSH2 0x503 JUMP JUMPDEST DUP5 SLT ISZERO PUSH2 0xA82 JUMPI PUSH2 0xA7B PUSH2 0x76B DUP4 PUSH2 0x1F3 DUP8 PUSH2 0xC53 JUMP JUMPDEST SWAP1 POP PUSH2 0xAA0 JUMP JUMPDEST PUSH2 0xA9D PUSH2 0xA95 PUSH2 0x76B DUP5 PUSH2 0x1F3 DUP8 PUSH2 0xC53 JUMP JUMPDEST PUSH2 0x160 PUSH2 0x503 JUMP JUMPDEST SWAP1 POP JUMPDEST PUSH2 0xAB0 DUP2 DUP10 PUSH4 0xFFFFFFFF PUSH2 0x6BB AND JUMP JUMPDEST SWAP1 POP PUSH32 0x3CF9BD989028BFC957CA46FD34C8ED26F90D849442378EE442FCD56CF5CAC44F DUP11 DUP11 DUP11 DUP11 PUSH2 0xAE0 DUP7 PUSH2 0x1967 JUMP JUMPDEST PUSH1 0x40 MLOAD PUSH2 0xAF1 SWAP6 SWAP5 SWAP4 SWAP3 SWAP2 SWAP1 PUSH2 0x1ABC JUMP JUMPDEST PUSH1 0x40 MLOAD DUP1 SWAP2 SUB SWAP1 LOG1 SWAP10 SWAP9 POP POP POP POP POP POP POP POP POP JUMP JUMPDEST PUSH1 0x0 PUSH2 0x6B4 PUSH2 0xB1E PUSH2 0xB16 PUSH2 0x503 JUMP JUMPDEST PUSH2 0x5D0 PUSH2 0x503 JUMP JUMPDEST PUSH2 0x160 DUP6 DUP6 PUSH4 0xFFFFFFFF PUSH2 0x72D AND JUMP JUMPDEST PUSH1 0x0 DUP1 PUSH2 0xB41 DUP4 DUP1 PUSH4 0xFFFFFFFF PUSH2 0x6BB AND JUMP JUMPDEST SWAP1 POP PUSH1 0x0 PUSH2 0xB55 DUP5 DUP4 PUSH4 0xFFFFFFFF PUSH2 0x6BB AND JUMP JUMPDEST SWAP1 POP PUSH1 0x0 PUSH2 0xB69 DUP3 DUP1 PUSH4 0xFFFFFFFF PUSH2 0x6BB AND JUMP JUMPDEST SWAP1 POP PUSH1 0x0 PUSH2 0xB7D DUP3 DUP1 PUSH4 0xFFFFFFFF PUSH2 0x6BB AND JUMP JUMPDEST SWAP1 POP PUSH1 0x0 PUSH2 0xB91 DUP3 DUP1 PUSH4 0xFFFFFFFF PUSH2 0x6BB AND JUMP JUMPDEST SWAP1 POP PUSH1 0x0 PUSH2 0xBA5 DUP3 DUP1 PUSH4 0xFFFFFFFF PUSH2 0x6BB AND JUMP JUMPDEST SWAP1 POP PUSH1 0x0 PUSH2 0xBB9 DUP3 DUP1 PUSH4 0xFFFFFFFF PUSH2 0x6BB AND JUMP JUMPDEST SWAP1 POP PUSH1 0x0 PUSH2 0xBCD DUP3 DUP9 PUSH4 0xFFFFFFFF PUSH2 0x6BB AND JUMP JUMPDEST SWAP9 POP POP POP POP POP POP POP POP POP JUMPDEST SWAP2 SWAP1 POP JUMP JUMPDEST DUP2 DUP2 ADD PUSH1 0x0 DUP4 SLT DUP1 ISZERO PUSH2 0xBF0 JUMPI POP PUSH1 0x0 DUP3 SLT JUMPDEST DUP1 ISZERO PUSH2 0xBFB JUMPI POP DUP3 DUP2 SGT JUMPDEST DUP1 PUSH2 0xC1C JUMPI POP PUSH1 0x0 DUP4 SGT DUP1 ISZERO PUSH2 0xC11 JUMPI POP PUSH1 0x0 DUP3 SGT JUMPDEST DUP1 ISZERO PUSH2 0xC1C JUMPI POP DUP3 DUP2 SLT JUMPDEST ISZERO PUSH2 0x4FD JUMPI PUSH1 0x40 MLOAD PUSH32 0x8C379A000000000000000000000000000000000000000000000000000000000 DUP2 MSTORE PUSH1 0x4 ADD PUSH2 0x1A5 SWAP1 PUSH2 0x1C4F JUMP JUMPDEST PUSH1 0x0 PUSH16 0x80000000000000000000000000000000 DUP3 SGT ISZERO PUSH2 0xC9F JUMPI PUSH1 0x40 MLOAD PUSH32 0x8C379A000000000000000000000000000000000000000000000000000000000 DUP2 MSTORE PUSH1 0x4 ADD PUSH2 0x1A5 SWAP1 PUSH2 0x1B4D JUMP JUMPDEST PUSH1 0x0 DUP3 SGT PUSH2 0xCD9 JUMPI PUSH1 0x40 MLOAD PUSH32 0x8C379A000000000000000000000000000000000000000000000000000000000 DUP2 MSTORE PUSH1 0x4 ADD PUSH2 0x1A5 SWAP1 PUSH2 0x1ADF JUMP JUMPDEST PUSH16 0x80000000000000000000000000000000 DUP3 EQ ISZERO PUSH2 0xCF9 JUMPI POP PUSH1 0x0 PUSH2 0xBD8 JUMP JUMPDEST PUSH5 0x733048C5A DUP3 SGT PUSH2 0xD2C JUMPI POP PUSH32 0xFFFFFFFFFFFFFFFFFFFFFFFFFFFFFFE010000000000000000000000000000000 PUSH2 0xBD8 JUMP JUMPDEST PUSH1 0x0 DUP1 PUSH1 0x0 PUSH11 0x1C8464F76164760000000 DUP6 SGT PUSH2 0xD8B JUMPI PUSH32 0xFFFFFFFFFFFFFFFFFFFFFFFFFFFFFFF000000000000000000000000000000000 SWAP1 SWAP4 ADD SWAP3 PUSH11 0x1C8464F76164760000000 PUSH16 0x80000000000000000000000000000000 DUP7 MUL SDIV SWAP5 POP JUMPDEST PUSH13 0xF1AADDD7742E90000000000000 DUP6 SGT PUSH2 0xDE9 JUMPI PUSH32 0xFFFFFFFFFFFFFFFFFFFFFFFFFFFFFFF800000000000000000000000000000000 SWAP1 SWAP4 ADD SWAP3 PUSH13 0xF1AADDD7742E90000000000000 PUSH16 0x80000000000000000000000000000000 DUP7 MUL SDIV SWAP5 POP JUMPDEST PUSH15 0xAFE10820813D78000000000000000 DUP6 SGT PUSH2 0xE4B JUMPI PUSH32 0xFFFFFFFFFFFFFFFFFFFFFFFFFFFFFFFC00000000000000000000000000000000 SWAP1 SWAP4 ADD SWAP3 PUSH15 0xAFE10820813D78000000000000000 PUSH16 0x80000000000000000000000000000000 DUP7 MUL SDIV SWAP5 POP JUMPDEST PUSH16 0x2582AB704279EC00000000000000000 DUP6 SGT PUSH2 0xEAF JUMPI PUSH32 0xFFFFFFFFFFFFFFFFFFFFFFFFFFFFFFFE00000000000000000000000000000000 SWAP1 SWAP4 ADD SWAP3 PUSH16 0x2582AB704279EC00000000000000000 PUSH16 0x80000000000000000000000000000000 DUP7 MUL SDIV SWAP5 POP JUMPDEST PUSH16 0x1152AAA3BF81CC000000000000000000 DUP6 SGT PUSH2 0xF13 JUMPI PUSH32 0xFFFFFFFFFFFFFFFFFFFFFFFFFFFFFFFF00000000000000000000000000000000 SWAP1 SWAP4 ADD SWAP3 PUSH16 0x1152AAA3BF81CC000000000000000000 PUSH16 0x80000000000000000000000000000000 DUP7 MUL SDIV SWAP5 POP JUMPDEST PUSH16 0x2F16AC6C59DE70000000000000000000 DUP6 SGT PUSH2 0xF77 JUMPI PUSH32 0xFFFFFFFFFFFFFFFFFFFFFFFFFFFFFFFF80000000000000000000000000000000 SWAP1 SWAP4 ADD SWAP3 PUSH16 0x2F16AC6C59DE70000000000000000000 PUSH16 0x80000000000000000000000000000000 DUP7 MUL SDIV SWAP5 POP JUMPDEST PUSH16 0x4DA2CBF1BE5828000000000000000000 DUP6 SGT PUSH2 0xFDB JUMPI PUSH32 0xFFFFFFFFFFFFFFFFFFFFFFFFFFFFFFFFC0000000000000000000000000000000 SWAP1 SWAP4 ADD SWAP3 PUSH16 0x4DA2CBF1BE5828000000000000000000 PUSH16 0x80000000000000000000000000000000 DUP7 MUL SDIV SWAP5 POP JUMPDEST PUSH16 0x63AFBE7AB2082C000000000000000000 DUP6 SGT PUSH2 0x103F JUMPI PUSH32 0xFFFFFFFFFFFFFFFFFFFFFFFFFFFFFFFFE0000000000000000000000000000000 SWAP1 SWAP4 ADD SWAP3 PUSH16 0x63AFBE7AB2082C000000000000000000 PUSH16 0x80000000000000000000000000000000 DUP7 MUL SDIV SWAP5 POP JUMPDEST PUSH16 0x70F5A893B608861E1F58934F97AEA57D DUP6 SGT PUSH2 0x10A3 JUMPI PUSH32 0xFFFFFFFFFFFFFFFFFFFFFFFFFFFFFFFFF0000000000000000000000000000000 SWAP1 SWAP4 ADD SWAP3 PUSH16 0x70F5A893B608861E1F58934F97AEA57D PUSH16 0x80000000000000000000000000000000 DUP7 MUL SDIV SWAP5 POP JUMPDEST PUSH32 0xFFFFFFFFFFFFFFFFFFFFFFFFFFFFFFFF80000000000000000000000000000000 DUP6 ADD SWAP3 POP DUP3 SWAP2 POP PUSH16 0x80000000000000000000000000000000 DUP3 DUP1 MUL SDIV SWAP1 POP PUSH17 0x100000000000000000000000000000000 DUP4 DUP2 SUB DUP4 MUL SDIV DUP5 ADD SWAP4 POP PUSH16 0x80000000000000000000000000000000 DUP2 DUP4 MUL DUP2 PUSH2 0x1119 JUMPI INVALID JUMPDEST SDIV SWAP2 POP PUSH17 0x200000000000000000000000000000000 DUP4 PUSH16 0xAAAAAAAAAAAAAAAAAAAAAAAAAAAAAAAA SUB DUP4 MUL DUP2 PUSH2 0x114A JUMPI INVALID JUMPDEST SDIV DUP5 ADD SWAP4 POP PUSH16 0x80000000000000000000000000000000 DUP2 DUP4 MUL DUP2 PUSH2 0x116A JUMPI INVALID JUMPDEST SDIV SWAP2 POP PUSH17 0x300000000000000000000000000000000 DUP4 PUSH16 0x99999999999999999999999999999999 SUB DUP4 MUL DUP2 PUSH2 0x119B JUMPI INVALID JUMPDEST SDIV DUP5 ADD SWAP4 POP PUSH16 0x80000000000000000000000000000000 DUP2 DUP4 MUL DUP2 PUSH2 0x11BB JUMPI INVALID JUMPDEST SDIV SWAP2 POP PUSH17 0x400000000000000000000000000000000 DUP4 PUSH16 0x92492492492492492492492492492492 SUB DUP4 MUL DUP2 PUSH2 0x11EC JUMPI INVALID JUMPDEST SDIV DUP5 ADD SWAP4 POP PUSH16 0x80000000000000000000000000000000 DUP2 DUP4 MUL DUP2 PUSH2 0x120C JUMPI INVALID JUMPDEST SDIV SWAP2 POP PUSH17 0x500000000000000000000000000000000 DUP4 PUSH16 0x8E38E38E38E38E38E38E38E38E38E38E SUB DUP4 MUL DUP2 PUSH2 0x123D JUMPI INVALID JUMPDEST SDIV DUP5 ADD SWAP4 POP PUSH16 0x80000000000000000000000000000000 DUP2 DUP4 MUL DUP2 PUSH2 0x125D JUMPI INVALID JUMPDEST SDIV SWAP2 POP PUSH17 0x600000000000000000000000000000000 DUP4 PUSH16 0x8BA2E8BA2E8BA2E8BA2E8BA2E8BA2E8B SUB DUP4 MUL DUP2 PUSH2 0x128E JUMPI INVALID JUMPDEST SDIV DUP5 ADD SWAP4 POP PUSH16 0x80000000000000000000000000000000 DUP2 DUP4 MUL DUP2 PUSH2 0x12AE JUMPI INVALID JUMPDEST SDIV SWAP2 POP PUSH17 0x700000000000000000000000000000000 DUP4 PUSH16 0x89D89D89D89D89D89D89D89D89D89D89 SUB DUP4 MUL DUP2 PUSH2 0x12DF JUMPI INVALID JUMPDEST SDIV DUP5 ADD SWAP4 POP PUSH16 0x80000000000000000000000000000000 DUP2 DUP4 MUL DUP2 PUSH2 0x12FF JUMPI INVALID JUMPDEST SDIV SWAP2 POP PUSH17 0x800000000000000000000000000000000 DUP4 PUSH16 0x88888888888888888888888888888888 SUB DUP4 MUL DUP2 PUSH2 0x1330 JUMPI INVALID JUMPDEST SDIV DUP5 ADD SWAP4 POP POP POP POP SWAP2 SWAP1 POP JUMP JUMPDEST PUSH1 0x0 PUSH32 0xFFFFFFFFFFFFFFFFFFFFFFFFFFFFFFE010000000000000000000000000000000 DUP3 SLT ISZERO PUSH2 0x136F JUMPI POP PUSH1 0x0 PUSH2 0xBD8 JUMP JUMPDEST DUP2 PUSH2 0x138B JUMPI POP PUSH16 0x80000000000000000000000000000000 PUSH2 0xBD8 JUMP JUMPDEST PUSH1 0x0 DUP3 SGT ISZERO PUSH2 0x13C6 JUMPI PUSH1 0x40 MLOAD PUSH32 0x8C379A000000000000000000000000000000000000000000000000000000000 DUP2 MSTORE PUSH1 0x4 ADD PUSH2 0x1A5 SWAP1 PUSH2 0x1BE1 JUMP JUMPDEST PUSH16 0x80000000000000000000000000000000 PUSH16 0x10000000000000000000000000000000 DUP4 SMOD DUP1 DUP1 MUL DUP3 SWAP1 SDIV PUSH8 0x10E1B3BE415A0000 DUP2 MUL SWAP4 SWAP1 SWAP4 ADD SWAP3 SWAP1 SWAP2 DUP2 DUP4 MUL SDIV SWAP1 POP DUP1 PUSH8 0x5A0913F6B1E0000 MUL DUP4 ADD SWAP3 POP PUSH16 0x80000000000000000000000000000000 DUP3 DUP3 MUL DUP2 PUSH2 0x1432 JUMPI INVALID JUMPDEST SDIV SWAP1 POP DUP1 PUSH8 0x168244FDAC78000 MUL DUP4 ADD SWAP3 POP PUSH16 0x80000000000000000000000000000000 DUP3 DUP3 MUL DUP2 PUSH2 0x145F JUMPI INVALID JUMPDEST SDIV SWAP1 POP DUP1 PUSH7 0x4807432BC18000 MUL DUP4 ADD SWAP3 POP PUSH16 0x80000000000000000000000000000000 DUP3 DUP3 MUL DUP2 PUSH2 0x148B JUMPI INVALID JUMPDEST SDIV SWAP1 POP DUP1 PUSH7 0xC0135DCA04000 MUL DUP4 ADD SWAP3 POP PUSH16 0x80000000000000000000000000000000 DUP3 DUP3 MUL DUP2 PUSH2 0x14B7 JUMPI INVALID JUMPDEST SDIV SWAP1 POP DUP1 PUSH7 0x1B707B1CDC000 MUL DUP4 ADD SWAP3 POP PUSH16 0x80000000000000000000000000000000 DUP3 DUP3 MUL DUP2 PUSH2 0x14E3 JUMPI INVALID JUMPDEST SDIV SWAP1 POP DUP1 PUSH6 0x36E0F639B800 MUL DUP4 ADD SWAP3 POP PUSH16 0x80000000000000000000000000000000 DUP3 DUP3 MUL DUP2 PUSH2 0x150E JUMPI INVALID JUMPDEST SDIV SWAP1 POP DUP1 PUSH6 0x618FEE9F800 MUL DUP4 ADD SWAP3 POP PUSH16 0x80000000000000000000000000000000 DUP3 DUP3 MUL DUP2 PUSH2 0x1539 JUMPI INVALID JUMPDEST SDIV SWAP1 POP DUP1 PUSH5 0x9C197DCC00 MUL DUP4 ADD SWAP3 POP PUSH16 0x80000000000000000000000000000000 DUP3 DUP3 MUL DUP2 PUSH2 0x1563 JUMPI INVALID JUMPDEST SDIV SWAP1 POP DUP1 PUSH5 0xE30DCE400 MUL DUP4 ADD SWAP3 POP PUSH16 0x80000000000000000000000000000000 DUP3 DUP3 MUL DUP2 PUSH2 0x158D JUMPI INVALID JUMPDEST SDIV SWAP1 POP DUP1 PUSH5 0x12EBD1300 MUL DUP4 ADD SWAP3 POP PUSH16 0x80000000000000000000000000000000 DUP3 DUP3 MUL DUP2 PUSH2 0x15B7 JUMPI INVALID JUMPDEST SDIV SWAP1 POP DUP1 PUSH4 0x17499F00 MUL DUP4 ADD SWAP3 POP PUSH16 0x80000000000000000000000000000000 DUP3 DUP3 MUL DUP2 PUSH2 0x15E0 JUMPI INVALID JUMPDEST SDIV SWAP1 POP DUP1 PUSH4 0x1A9D480 MUL DUP4 ADD SWAP3 POP PUSH16 0x80000000000000000000000000000000 DUP3 DUP3 MUL DUP2 PUSH2 0x1609 JUMPI INVALID JUMPDEST SDIV SWAP1 POP DUP1 PUSH3 0x1C6380 MUL DUP4 ADD SWAP3 POP PUSH16 0x80000000000000000000000000000000 DUP3 DUP3 MUL DUP2 PUSH2 0x1631 JUMPI INVALID JUMPDEST SDIV SWAP1 POP DUP1 PUSH3 0x1C638 MUL DUP4 ADD SWAP3 POP PUSH16 0x80000000000000000000000000000000 DUP3 DUP3 MUL DUP2 PUSH2 0x1659 JUMPI INVALID JUMPDEST SDIV SWAP1 POP DUP1 PUSH2 0x1AB8 MUL DUP4 ADD SWAP3 POP PUSH16 0x80000000000000000000000000000000 DUP3 DUP3 MUL DUP2 PUSH2 0x1680 JUMPI INVALID JUMPDEST SDIV SWAP1 POP DUP1 PUSH2 0x17C MUL DUP4 ADD SWAP3 POP PUSH16 0x80000000000000000000000000000000 DUP3 DUP3 MUL DUP2 PUSH2 0x16A7 JUMPI INVALID JUMPDEST SDIV SWAP1 POP DUP1 PUSH1 0x14 MUL DUP4 ADD SWAP3 POP PUSH16 0x80000000000000000000000000000000 DUP3 DUP3 MUL DUP2 PUSH2 0x16CD JUMPI INVALID JUMPDEST PUSH1 0x0 SWAP6 SWAP1 SWAP6 SUB SWAP5 PUSH8 0x21C3677C82B40000 SWAP2 SWAP1 SDIV SWAP4 DUP5 ADD SDIV DUP3 ADD PUSH16 0x80000000000000000000000000000000 ADD SWAP3 SWAP1 POP PUSH17 0x1000000000000000000000000000000000 DUP5 AND ISZERO PUSH2 0x173C JUMPI PUSH19 0x43CBAF42A000812488FC5C220AD7B97BF6E99E PUSH13 0xF1AADDD7742E56D32FB9F99744 DUP5 MUL SDIV SWAP3 POP JUMPDEST PUSH17 0x800000000000000000000000000000000 DUP5 AND ISZERO PUSH2 0x177E JUMPI PUSH18 0x5D27A9F51C31B7C2F8038212A0574779991 PUSH15 0xAFE10820813D65DFE6A33C07F738F DUP5 MUL SDIV SWAP3 POP JUMPDEST PUSH17 0x400000000000000000000000000000000 DUP5 AND ISZERO PUSH2 0x17C0 JUMPI PUSH17 0x1B4C902E273A58678D6D3BFDB93DB96D02 PUSH16 0x2582AB704279E8EFD15E0265855C47A DUP5 MUL SDIV SWAP3 POP JUMPDEST PUSH17 0x200000000000000000000000000000000 DUP5 AND ISZERO PUSH2 0x1802 JUMPI PUSH17 0x3B1CC971A9BB5B9867477440D6D157750 PUSH16 0x1152AAA3BF81CB9FDB76EAE12D029571 DUP5 MUL SDIV SWAP3 POP JUMPDEST PUSH17 0x100000000000000000000000000000000 DUP5 AND ISZERO PUSH2 0x1844 JUMPI PUSH17 0x15BF0A8B1457695355FB8AC404E7A79E3 PUSH16 0x2F16AC6C59DE6F8D5D6F63C1482A7C86 DUP5 MUL SDIV SWAP3 POP JUMPDEST PUSH16 0x80000000000000000000000000000000 DUP5 AND ISZERO PUSH2 0x1884 JUMPI PUSH16 0xD3094C70F034DE4B96FF7D5B6F99FCD8 PUSH16 0x4DA2CBF1BE5827F9EB3AD1AA9866EBB3 DUP5 MUL SDIV SWAP3 POP JUMPDEST PUSH16 0x40000000000000000000000000000000 DUP5 AND ISZERO PUSH2 0x18C4 JUMPI PUSH16 0xA45AF1E1F40C333B3DE1DB4DD55F29A7 PUSH16 0x63AFBE7AB2082BA1A0AE5E4EB1B479DC DUP5 MUL SDIV SWAP3 POP JUMPDEST PUSH16 0x20000000000000000000000000000000 DUP5 AND ISZERO PUSH2 0x1904 JUMPI PUSH16 0x910B022DB7AE67CE76B441C27035C6A1 PUSH16 0x70F5A893B608861E1F58934F97AEA57D DUP5 MUL SDIV SWAP3 POP JUMPDEST PUSH16 0x10000000000000000000000000000000 DUP5 AND ISZERO PUSH2 0x1944 JUMPI PUSH16 0x88415ABBE9A76BEAD8D00CF112E4D4A8 PUSH16 0x783EAFEF1C0A8F3978C7F81824D62EBF DUP5 MUL SDIV SWAP3 POP JUMPDEST POP POP SWAP2 SWAP1 POP JUMP JUMPDEST PUSH1 0x0 PUSH2 0x4FD DUP3 PUSH16 0x80000000000000000000000000000000 PUSH2 0x8C8 JUMP JUMPDEST PUSH16 0x80000000000000000000000000000000 SWAP1 SDIV SWAP1 JUMP JUMPDEST PUSH1 0x40 MLOAD DUP1 PUSH2 0x180 ADD PUSH1 0x40 MSTORE DUP1 PUSH1 0x0 PUSH20 0xFFFFFFFFFFFFFFFFFFFFFFFFFFFFFFFFFFFFFFFF AND DUP2 MSTORE PUSH1 0x20 ADD PUSH1 0x0 PUSH20 0xFFFFFFFFFFFFFFFFFFFFFFFFFFFFFFFFFFFFFFFF AND DUP2 MSTORE PUSH1 0x20 ADD PUSH1 0x0 DUP2 MSTORE PUSH1 0x20 ADD PUSH1 0x0 DUP2 MSTORE PUSH1 0x20 ADD PUSH1 0x0 DUP2 MSTORE PUSH1 0x20 ADD PUSH1 0x0 DUP2 MSTORE PUSH1 0x20 ADD PUSH1 0x0 DUP2 MSTORE PUSH1 0x20 ADD PUSH1 0x0 DUP2 MSTORE PUSH1 0x20 ADD PUSH1 0x0 DUP2 MSTORE PUSH1 0x20 ADD PUSH1 0x0 DUP2 MSTORE PUSH1 0x20 ADD PUSH1 0x0 DUP2 MSTORE PUSH1 0x20 ADD PUSH1 0x0 DUP2 MSTORE POP SWAP1 JUMP JUMPDEST PUSH1 0x0 DUP1 PUSH1 0x0 PUSH1 0x60 DUP5 DUP7 SUB SLT ISZERO PUSH2 0x1A1E JUMPI DUP3 DUP4 REVERT JUMPDEST DUP4 CALLDATALOAD PUSH2 0x1A29 DUP2 PUSH2 0x1D2B JUMP JUMPDEST SWAP3 POP PUSH1 0x20 DUP5 ADD CALLDATALOAD PUSH2 0x1A39 DUP2 PUSH2 0x1D2B JUMP JUMPDEST SWAP3 SWAP6 SWAP3 SWAP5 POP POP POP PUSH1 0x40 SWAP2 SWAP1 SWAP2 ADD CALLDATALOAD SWAP1 JUMP JUMPDEST PUSH20 0xFFFFFFFFFFFFFFFFFFFFFFFFFFFFFFFFFFFFFFFF SWAP6 DUP7 AND DUP2 MSTORE SWAP4 DUP6 AND PUSH1 0x20 DUP6 ADD MSTORE SWAP2 SWAP1 SWAP4 AND PUSH1 0x40 DUP4 ADD MSTORE PUSH1 0x60 DUP3 ADD SWAP3 SWAP1 SWAP3 MSTORE PUSH1 0x80 DUP2 ADD SWAP2 SWAP1 SWAP2 MSTORE PUSH1 0xA0 ADD SWAP1 JUMP JUMPDEST SWAP3 DUP4 MSTORE PUSH1 0x20 DUP4 ADD SWAP2 SWAP1 SWAP2 MSTORE PUSH1 0x40 DUP3 ADD MSTORE PUSH1 0x60 ADD SWAP1 JUMP JUMPDEST SWAP4 DUP5 MSTORE PUSH1 0x20 DUP5 ADD SWAP3 SWAP1 SWAP3 MSTORE PUSH1 0x40 DUP4 ADD MSTORE PUSH1 0x60 DUP3 ADD MSTORE PUSH1 0x80 ADD SWAP1 JUMP JUMPDEST SWAP5 DUP6 MSTORE PUSH1 0x20 DUP6 ADD SWAP4 SWAP1 SWAP4 MSTORE PUSH1 0x40 DUP5 ADD SWAP2 SWAP1 SWAP2 MSTORE PUSH1 0x60 DUP4 ADD MSTORE PUSH1 0x80 DUP3 ADD MSTORE PUSH1 0xA0 ADD SWAP1 JUMP JUMPDEST PUSH1 0x20 DUP1 DUP3 MSTORE PUSH1 0x13 SWAP1 DUP3 ADD MSTORE PUSH32 0x6C6E3A2076616C756520746F6F20736D616C6C00000000000000000000000000 PUSH1 0x40 DUP3 ADD MSTORE PUSH1 0x60 ADD SWAP1 JUMP JUMPDEST PUSH1 0x20 DUP1 DUP3 MSTORE PUSH1 0x17 SWAP1 DUP3 ADD MSTORE PUSH32 0x496E76616C696420746F6B656E20616464726573736573000000000000000000 PUSH1 0x40 DUP3 ADD MSTORE PUSH1 0x60 ADD SWAP1 JUMP JUMPDEST PUSH1 0x20 DUP1 DUP3 MSTORE PUSH1 0x13 SWAP1 DUP3 ADD MSTORE PUSH32 0x6C6E3A2076616C756520746F6F206C6172676500000000000000000000000000 PUSH1 0x40 DUP3 ADD MSTORE PUSH1 0x60 ADD SWAP1 JUMP JUMPDEST PUSH1 0x20 DUP1 DUP3 MSTORE PUSH1 0x27 SWAP1 DUP3 ADD MSTORE PUSH32 0x746F46697865643A2076616C75652063616E6E6F74206265206C657373207468 PUSH1 0x40 DUP3 ADD MSTORE PUSH32 0x616E207A65726F00000000000000000000000000000000000000000000000000 PUSH1 0x60 DUP3 ADD MSTORE PUSH1 0x80 ADD SWAP1 JUMP JUMPDEST PUSH1 0x20 DUP1 DUP3 MSTORE PUSH1 0x14 SWAP1 DUP3 ADD MSTORE PUSH32 0x6578703A2076616C756520746F6F20736D616C6C000000000000000000000000 PUSH1 0x40 DUP3 ADD MSTORE PUSH1 0x60 ADD SWAP1 JUMP JUMPDEST PUSH1 0x20 DUP1 DUP3 MSTORE PUSH1 0xE SWAP1 DUP3 ADD MSTORE PUSH32 0x5F6D756C3A206F766572666C6F77000000000000000000000000000000000000 PUSH1 0x40 DUP3 ADD MSTORE PUSH1 0x60 ADD SWAP1 JUMP JUMPDEST PUSH1 0x20 DUP1 DUP3 MSTORE PUSH1 0xE SWAP1 DUP3 ADD MSTORE PUSH32 0x5F6164643A206F766572666C6F77000000000000000000000000000000000000 PUSH1 0x40 DUP3 ADD MSTORE PUSH1 0x60 ADD SWAP1 JUMP JUMPDEST PUSH1 0x20 DUP1 DUP3 MSTORE PUSH1 0x14 SWAP1 DUP3 ADD MSTORE PUSH32 0x7375623A2076616C756520746F6F20736D616C6C000000000000000000000000 PUSH1 0x40 DUP3 ADD MSTORE PUSH1 0x60 ADD SWAP1 JUMP JUMPDEST PUSH1 0x20 DUP1 DUP3 MSTORE PUSH1 0x14 SWAP1 DUP3 ADD MSTORE PUSH32 0x5F6469763A20646976696465206279207A65726F000000000000000000000000 PUSH1 0x40 DUP3 ADD MSTORE PUSH1 0x60 ADD SWAP1 JUMP JUMPDEST PUSH1 0x20 DUP1 DUP3 MSTORE PUSH1 0xE SWAP1 DUP3 ADD MSTORE PUSH32 0x5F6469763A206F766572666C6F77000000000000000000000000000000000000 PUSH1 0x40 DUP3 ADD MSTORE PUSH1 0x60 ADD SWAP1 JUMP JUMPDEST PUSH20 0xFFFFFFFFFFFFFFFFFFFFFFFFFFFFFFFFFFFFFFFF DUP2 AND DUP2 EQ PUSH2 0x1D4D JUMPI PUSH1 0x0 DUP1 REVERT JUMPDEST POP JUMP INVALID LOG3 PUSH6 0x627A7A723158 KECCAK256 0xB3 JUMP DUP8 0xE5 0xAD DUP12 DUP13 PUSH22 0x958CB90A18628FE974798A7D84A38BA68D482B322ADB TIMESTAMP PUSH21 0x6C6578706572696D656E74616CF564736F6C634300 SDIV 0xD STOP BLOCKHASH "
			}
		}
	},
	"sourceTreeHashHex": "0x46e99c92abbbcebd19ce7bb28e4a83e188e4977b35491b91b11a5281112d58b3",
	"compiler": {
		"name": "solc",
		"version": "soljson-v0.5.13+commit.5b0b510c.js",
		"settings": {
			"optimizer": {
				"enabled": true,
				"runs": 1000000,
				"details": {
					"yul": true,
					"deduplicate": true,
					"cse": true,
					"constantOptimizer": true
				}
			},
			"outputSelection": {
				"*": {
					"*": [
						"abi",
						"devdoc",
						"evm.bytecode.object",
						"evm.bytecode.sourceMap",
						"evm.deployedBytecode.object",
						"evm.deployedBytecode.sourceMap"
					]
				}
			},
			"evmVersion": "constantinople",
			"remappings": []
		}
	},
	"chains": {}
}