{
	"schemaVersion": "2.0.0",
	"contractName": "Swapper",
	"compilerOutput": {
		"abi": [
			{
				"anonymous": false,
				"inputs": [
					{
						"indexed": false,
						"internalType": "int256",
						"name": "lhs1",
						"type": "int256"
					},
					{
						"indexed": false,
						"internalType": "int256",
						"name": "mid",
						"type": "int256"
					},
					{
						"indexed": false,
						"internalType": "int256",
						"name": "lhs",
						"type": "int256"
					}
				],
				"name": "Bisect",
				"type": "event"
			},
			{
				"anonymous": false,
				"inputs": [
					{
						"indexed": false,
						"internalType": "int256",
						"name": "term2",
						"type": "int256"
					},
					{
						"indexed": false,
						"internalType": "int256",
						"name": "term3",
						"type": "int256"
					}
				],
				"name": "E",
				"type": "event"
			},
			{
				"anonymous": false,
				"inputs": [
					{
						"indexed": false,
						"internalType": "int256",
						"name": "rl",
						"type": "int256"
					},
					{
						"indexed": false,
						"internalType": "int256",
						"name": "rh",
						"type": "int256"
					},
					{
						"indexed": false,
						"internalType": "int256",
						"name": "yl",
						"type": "int256"
					},
					{
						"indexed": false,
						"internalType": "int256",
						"name": "yh",
						"type": "int256"
					}
				],
				"name": "EGGG",
				"type": "event"
			},
			{
				"anonymous": false,
				"inputs": [
					{
						"indexed": false,
						"internalType": "address",
						"name": "from",
						"type": "address"
					},
					{
						"indexed": false,
						"internalType": "address",
						"name": "fromToken",
						"type": "address"
					},
					{
						"indexed": false,
						"internalType": "address",
						"name": "toToken",
						"type": "address"
					},
					{
						"indexed": false,
						"internalType": "uint256",
						"name": "amountSpent",
						"type": "uint256"
					},
					{
						"indexed": false,
						"internalType": "uint256",
						"name": "amountReceived",
						"type": "uint256"
					}
				],
				"name": "Fill",
				"type": "event"
			},
			{
				"anonymous": false,
				"inputs": [
					{
						"indexed": false,
						"internalType": "address",
						"name": "from",
						"type": "address"
					},
					{
						"indexed": false,
						"internalType": "int256",
						"name": "amountSpent",
						"type": "int256"
					},
					{
						"indexed": false,
						"internalType": "int256",
						"name": "amountReceived",
						"type": "int256"
					}
				],
				"name": "FillInternal",
				"type": "event"
			},
			{
				"anonymous": false,
				"inputs": [
					{
						"indexed": false,
						"internalType": "int256",
						"name": "lhs",
						"type": "int256"
					},
					{
						"indexed": false,
						"internalType": "int256",
						"name": "rhs",
						"type": "int256"
					}
				],
				"name": "L",
				"type": "event"
			},
			{
				"anonymous": false,
				"inputs": [
					{
						"indexed": false,
						"internalType": "address",
						"name": "oldOwner",
						"type": "address"
					},
					{
						"indexed": false,
						"internalType": "address",
						"name": "newOwner",
						"type": "address"
					}
				],
				"name": "OwnershipTransferred",
				"type": "event"
			},
			{
				"anonymous": false,
				"inputs": [
					{
						"indexed": false,
						"internalType": "int256",
						"name": "price",
						"type": "int256"
					},
					{
						"indexed": false,
						"internalType": "int256",
						"name": "deltaB",
						"type": "int256"
					},
					{
						"indexed": false,
						"internalType": "int256",
						"name": "newPBarX",
						"type": "int256"
					},
					{
						"indexed": false,
						"internalType": "int256",
						"name": "pA",
						"type": "int256"
					}
				],
				"name": "Price",
				"type": "event"
			},
			{
				"anonymous": false,
				"inputs": [
					{
						"indexed": false,
						"internalType": "int256",
						"name": "price",
						"type": "int256"
					}
				],
				"name": "Price2",
				"type": "event"
			},
			{
				"anonymous": false,
				"inputs": [
					{
						"indexed": false,
						"internalType": "int256",
						"name": "a",
						"type": "int256"
					},
					{
						"indexed": false,
						"internalType": "int256",
						"name": "b",
						"type": "int256"
					},
					{
						"indexed": false,
						"internalType": "int256",
						"name": "pA",
						"type": "int256"
					},
					{
						"indexed": false,
						"internalType": "int256",
						"name": "pBarA",
						"type": "int256"
					},
					{
						"indexed": false,
						"internalType": "int256",
						"name": "deltaA",
						"type": "int256"
					},
					{
						"indexed": false,
						"internalType": "int256",
						"name": "rhoRatio",
						"type": "int256"
					},
					{
						"indexed": false,
						"internalType": "int256",
						"name": "term4",
						"type": "int256"
					},
					{
						"indexed": false,
						"internalType": "int256",
						"name": "k13",
						"type": "int256"
					}
				],
				"name": "T",
				"type": "event"
			},
			{
				"anonymous": false,
				"inputs": [
					{
						"indexed": false,
						"internalType": "string",
						"name": "description",
						"type": "string"
					},
					{
						"indexed": false,
						"internalType": "int256",
						"name": "val",
						"type": "int256"
					}
				],
				"name": "VALUE",
				"type": "event"
			},
			{
				"constant": true,
				"inputs": [],
				"name": "gState",
				"outputs": [
					{
						"internalType": "bool",
						"name": "isInitialized",
						"type": "bool"
					},
					{
						"internalType": "address",
						"name": "xAddress",
						"type": "address"
					},
					{
						"internalType": "address",
						"name": "yAddress",
						"type": "address"
					},
					{
						"internalType": "int256",
						"name": "x",
						"type": "int256"
					},
					{
						"internalType": "int256",
						"name": "y",
						"type": "int256"
					},
					{
						"internalType": "uint256",
						"name": "l",
						"type": "uint256"
					},
					{
						"internalType": "int256",
						"name": "pBarX",
						"type": "int256"
					},
					{
						"internalType": "uint256",
						"name": "rhoNumerator",
						"type": "uint256"
					},
					{
						"internalType": "int256",
						"name": "rhoRatio",
						"type": "int256"
					},
					{
						"internalType": "int256",
						"name": "fee",
						"type": "int256"
					},
					{
						"internalType": "uint256",
						"name": "t",
						"type": "uint256"
					},
					{
						"internalType": "int256",
						"name": "beta",
						"type": "int256"
					},
					{
						"internalType": "int256",
						"name": "eToKappa",
						"type": "int256"
					}
				],
				"payable": false,
				"stateMutability": "view",
				"type": "function"
			},
			{
				"constant": false,
				"inputs": [
					{
						"internalType": "address",
						"name": "xAddress",
						"type": "address"
					},
					{
						"internalType": "address",
						"name": "yAddress",
						"type": "address"
					}
				],
				"name": "initState",
				"outputs": [],
				"payable": false,
				"stateMutability": "nonpayable",
				"type": "function"
			},
			{
				"constant": true,
				"inputs": [],
				"name": "owner",
				"outputs": [
					{
						"internalType": "address",
						"name": "",
						"type": "address"
					}
				],
				"payable": false,
				"stateMutability": "view",
				"type": "function"
			},
			{
				"constant": false,
				"inputs": [
					{
						"internalType": "address",
						"name": "fromToken",
						"type": "address"
					},
					{
						"internalType": "address",
						"name": "toToken",
						"type": "address"
					},
					{
						"internalType": "uint256",
						"name": "amount",
						"type": "uint256"
					}
				],
				"name": "swap",
				"outputs": [
					{
						"internalType": "uint256",
						"name": "amountReceived",
						"type": "uint256"
					}
				],
				"payable": false,
				"stateMutability": "nonpayable",
				"type": "function"
			},
			{
				"constant": false,
				"inputs": [
					{
						"internalType": "address",
						"name": "newOwner",
						"type": "address"
					}
				],
				"name": "transferOwnership",
				"outputs": [],
				"payable": false,
				"stateMutability": "nonpayable",
				"type": "function"
			}
		],
		"devdoc": {
			"methods": {}
		},
		"evm": {
			"bytecode": {
				"linkReferences": {},
				"object": "0x6080604052600080546001600160a01b0319163317905561332b806100256000396000f3fe608060405234801561001057600080fd5b50600436106100675760003560e01c8063afd46eb511610050578063afd46eb51461009f578063df791e50146100c0578063f2fde38b146100e057610067565b80637b6890361461006c5780638da5cb5b14610081575b600080fd5b61007f61007a366004612973565b6100f3565b005b610089610109565b60405161009691906129e7565b60405180910390f35b6100a7610125565b6040516100969d9c9b9a99989796959493929190612a9e565b6100d36100ce3660046129a7565b61017a565b60405161009691906132bd565b61007f6100ee366004612958565b61033a565b6100fb61040d565b6101058282610460565b5050565b60005473ffffffffffffffffffffffffffffffffffffffff1681565b600154600254600354600454600554600654600754600854600954600a54600c54600d5460ff8c169b73ffffffffffffffffffffffffffffffffffffffff61010090910481169b16999897969594939291908d565b600061018461289e565b61018c6105b3565b9050806020015173ffffffffffffffffffffffffffffffffffffffff168573ffffffffffffffffffffffffffffffffffffffff161480156101fc5750806040015173ffffffffffffffffffffffffffffffffffffffff168473ffffffffffffffffffffffffffffffffffffffff16145b1561022a576000610217868661021187610659565b8561066e565b905061022281610aab565b9250506102f3565b806040015173ffffffffffffffffffffffffffffffffffffffff168573ffffffffffffffffffffffffffffffffffffffff161480156102985750806020015173ffffffffffffffffffffffffffffffffffffffff168473ffffffffffffffffffffffffffffffffffffffff16145b156102b85760006102ad868661021187610659565b905061022281610ab8565b6040517f08c379a00000000000000000000000000000000000000000000000000000000081526004016102ea90612c08565b60405180910390fd5b7f256db8090fa51c3bac981768637d5a7c46b5540644dcef89052b89dbb2f6c8ea338686868660405161032a959493929190612a2f565b60405180910390a1509392505050565b61034261040d565b73ffffffffffffffffffffffffffffffffffffffff811661038f576040517f08c379a00000000000000000000000000000000000000000000000000000000081526004016102ea90612f36565b600080547fffffffffffffffffffffffff00000000000000000000000000000000000000001673ffffffffffffffffffffffffffffffffffffffff83161790556040517f8be0079c531659141344cd1fd0a4f28419497f9722a3daafe3b4186f6b6457e0906104019033908490612a08565b60405180910390a15b50565b60005473ffffffffffffffffffffffffffffffffffffffff16331461045e576040517f08c379a00000000000000000000000000000000000000000000000000000000081526004016102ea90612b9a565b565b60015460ff161561049d576040517f08c379a00000000000000000000000000000000000000000000000000000000081526004016102ea90612bd1565b600180547fffffffffffffffffffffff0000000000000000000000000000000000000000ff1661010073ffffffffffffffffffffffffffffffffffffffff8581169190910291909117909155600280547fffffffffffffffffffffffff00000000000000000000000000000000000000001691831691909117905561052460636064610ac5565b60065560636007819055610539906064610ac5565b6008556105496005612710610ac5565b60095561057161055d6001620f4240610b66565b610565610b85565b9063ffffffff610b9916565b600c556105826127156103e8610b66565b600d555050600180547fffffffffffffffffffffffffffffffffffffffffffffffffffffffffffffff001681179055565b6105bb61289e565b50604080516101a08101825260015460ff81161515825273ffffffffffffffffffffffffffffffffffffffff610100918290048116602084015260025416928201929092526003546060820152600454608082015260055460a082015260065460c082015260075460e082015260085491810191909152600954610120820152600a54610140820152600c54610160820152600d5461018082015290565b6000610666826012610c02565b90505b919050565b6020810151600090819081908190819073ffffffffffffffffffffffffffffffffffffffff8a811691161480156106d45750856040015173ffffffffffffffffffffffffffffffffffffffff168873ffffffffffffffffffffffffffffffffffffffff16145b156106f357505050506060820151608083015160c08401516001610793565b856040015173ffffffffffffffffffffffffffffffffffffffff168973ffffffffffffffffffffffffffffffffffffffff161480156107615750856020015173ffffffffffffffffffffffffffffffffffffffff168873ffffffffffffffffffffffffffffffffffffffff16145b156102b85785608001519350856060015192506107908660c00151610784610b85565b9063ffffffff610c1716565b91505b60006107a68585858a6101000151610c96565b905060006107b8868684878d8d610d4c565b905060008112156107f5576040517f08c379a00000000000000000000000000000000000000000000000000000000081526004016102ea906131d9565b8061082c576040517f08c379a00000000000000000000000000000000000000000000000000000000081526004016102ea90613247565b600061085e6108428a6101200151610565610b85565b6108528c8563ffffffff61111916565b9063ffffffff61111916565b60009081039150811261089d576040517f08c379a00000000000000000000000000000000000000000000000000000000081526004016102ea90612ed9565b60006108ad6001620186a0610b66565b9050806108c0888463ffffffff6111d216565b136108eb576108d5818863ffffffff610b9916565b9150600082126108e65760006108e8565b815b91505b6108f96001620f4240610b66565b8201915060008212610937576040517f08c379a00000000000000000000000000000000000000000000000000000000081526004016102ea90612d12565b60006109578b610140015161094a6111de565b8d6101600151888b6111e2565b6101808c0151909150610970908863ffffffff61111916565b811315610994576101808b015161098d908863ffffffff61111916565b90506109cd565b866109ad8c61018001518361111990919063ffffffff16565b12156109cd576101808b01516109ca90889063ffffffff610c1716565b90505b6109d56111de565b6101408c01528515610a17576109f1898d63ffffffff6111d216565b60608c0152610a06888463ffffffff6111d216565b60808c015260c08b01819052610a53565b610a27888463ffffffff6111d216565b60608c0152610a3c898d63ffffffff6111d216565b60808c0152610a4d81610784610b85565b60c08c01525b610a5c8b6112c3565b7f666804e599b015edcfb9de12153bf8a48aa5a84b8861b8fa88c1cf4b11974c15338d85604051610a8f93929190612a70565b60405180910390a150506000039b9a5050505050505050505050565b60006106668260066112e5565b60006106668260126112e5565b600080831215610b01576040517f08c379a00000000000000000000000000000000000000000000000000000000081526004016102ea90613090565b6000821215610b3c576040517f08c379a00000000000000000000000000000000000000000000000000000000081526004016102ea90612c7e565b610b5f610b59846f800000000000000000000000000000006112f5565b8361136b565b9392505050565b6000610b5f610b59846f800000000000000000000000000000006112f5565b6f8000000000000000000000000000000090565b60007f8000000000000000000000000000000000000000000000000000000000000000821415610bf5576040517f08c379a00000000000000000000000000000000000000000000000000000000081526004016102ea90613059565b610b5f838360000361143a565b6000610b5f8383600a0a610ac5565b92915050565b600080610c23846114b0565b90508015610c7357610c6b610c37856114b0565b610c60610c6587610c606f80000000000000000000000000000000610c5b8b6114b0565b61136b565b6112f5565b8661136b565b915050610c11565b610c6b610c90856f800000000000000000000000000000006112f5565b8461136b565b600080610ca9848763ffffffff61111916565b90506000610cbd868363ffffffff610c1716565b90506000610cd1838863ffffffff610c1716565b90506000610ce186610565610b85565b90506000610ced610b85565b841215610d1057610d09610d0483610852876114c6565b611bb0565b9050610d2e565b610d2b610d23610d0484610852876114c6565b610784610b85565b90505b610d3e818963ffffffff61111916565b9a9950505050505050505050565b600080610da1610d94610d84610d688a8863ffffffff61111916565b610d788c8c63ffffffff61111916565b9063ffffffff6111d216565b610784898863ffffffff61111916565b899063ffffffff61111916565b90506000610dc5610db88a8763ffffffff6111d216565b8a9063ffffffff610c1716565b90506000610dd78a8a8a8a8a8a6121be565b90507feab289761059c96752af5f89d5fae009fad63b60a50a884c5ce5936384b16ee681604051610e089190612b24565b60405180910390a16000610e218b8b8b8b8b878c6122b1565b90507feab289761059c96752af5f89d5fae009fad63b60a50a884c5ce5936384b16ee681604051610e5291906130ed565b60405180910390a16000610e6c8c8c8c8c8c8a8a8e612351565b90507feab289761059c96752af5f89d5fae009fad63b60a50a884c5ce5936384b16ee681604051610e9d9190612e5b565b60405180910390a1610eb582828961012001516123ea565b156110aa576000610ec9838388888c612484565b60405191935091507feab289761059c96752af5f89d5fae009fad63b60a50a884c5ce5936384b16ee690610efe90849061312c565b60405180910390a17feab289761059c96752af5f89d5fae009fad63b60a50a884c5ce5936384b16ee681604051610f359190612e1c565b60405180910390a1610f4d83838a61012001516123ea565b156110a8576000610f6284848989868e61252d565b604051939750919550935091507feab289761059c96752af5f89d5fae009fad63b60a50a884c5ce5936384b16ee690610f9c908690612f6d565b60405180910390a17feab289761059c96752af5f89d5fae009fad63b60a50a884c5ce5936384b16ee683604051610fd39190612e9a565b60405180910390a17feab289761059c96752af5f89d5fae009fad63b60a50a884c5ce5936384b16ee68260405161100a919061327e565b60405180910390a17feab289761059c96752af5f89d5fae009fad63b60a50a884c5ce5936384b16ee6816040516110419190612ddd565b60405180910390a161105984848b61012001516123ea565b156110a65761106c848484848b8b6125b5565b93507feab289761059c96752af5f89d5fae009fad63b60a50a884c5ce5936384b16ee68460405161109d9190612fe3565b60405180910390a15b505b505b6110b382612665565b7feab289761059c96752af5f89d5fae009fad63b60a50a884c5ce5936384b16ee66110e4838c63ffffffff61111916565b6040516110f19190612c3f565b60405180910390a1611109828b63ffffffff61111916565b9c9b505050505050505050505050565b6000806111456f80000000000000000000000000000000610c6061113c876114b0565b610c60876114b0565b9050600061115e611155866126aa565b610c60866114b0565b9050600061117761116e876114b0565b610c60876126aa565b905060006111a961119361118a896126aa565b610c60896126aa565b6f8000000000000000000000000000000061136b565b90506111c76111c16111bb868661143a565b8461143a565b8261143a565b979650505050505050565b6000610b5f838361143a565b4390565b6000806111f08787036126e7565b90506000611210610d04611203886114c6565b849063ffffffff61111916565b9050600061122082610565610b85565b90506000611234878363ffffffff61111916565b90506000611248878563ffffffff61111916565b9050600061127461125f858a63ffffffff61111916565b61126f878c63ffffffff61111916565b6111d2565b9050600061128c826107848c8c63ffffffff61111916565b905060006112b161129d600261273d565b61078484610d78898963ffffffff6111d216565b9e9d5050505050505050505050505050565b6060810151600355608081015160045560c08101516006556101400151600a55565b6000610b5f82600a0a84026114b0565b6000821580611302575081155b1561130f57506000610c11565b508181028183828161131d57fe5b0514158061133457508282828161133057fe5b0514155b15610c11576040517f08c379a00000000000000000000000000000000000000000000000000000000081526004016102ea90612fac565b6000816113a4576040517f08c379a00000000000000000000000000000000000000000000000000000000081526004016102ea9061316b565b7f8000000000000000000000000000000000000000000000000000000000000000831480156113f25750817fffffffffffffffffffffffffffffffffffffffffffffffffffffffffffffffff145b15611429576040517f08c379a00000000000000000000000000000000000000000000000000000000081526004016102ea906131a2565b81838161143257fe5b059392505050565b81810160008312801561144d5750600082125b801561145857508281135b80611479575060008313801561146e5750600082135b801561147957508281125b15610c11576040517f08c379a00000000000000000000000000000000000000000000000000000000081526004016102ea90613022565b6f80000000000000000000000000000000900590565b60006f80000000000000000000000000000000821315611512576040517f08c379a00000000000000000000000000000000000000000000000000000000081526004016102ea90612cdb565b6000821361154c576040517f08c379a00000000000000000000000000000000000000000000000000000000081526004016102ea90612b63565b6f8000000000000000000000000000000082141561156c57506000610669565b640733048c5a821361159f57507fffffffffffffffffffffffffffffffe010000000000000000000000000000000610669565b60008060006a01c8464f7616476000000085136115fe577ffffffffffffffffffffffffffffffff000000000000000000000000000000000909301926a01c8464f761647600000006f8000000000000000000000000000000086020594505b6cf1aaddd7742e90000000000000851361165c577ffffffffffffffffffffffffffffffff800000000000000000000000000000000909301926cf1aaddd7742e900000000000006f8000000000000000000000000000000086020594505b6e0afe10820813d7800000000000000085136116be577ffffffffffffffffffffffffffffffffc00000000000000000000000000000000909301926e0afe10820813d780000000000000006f8000000000000000000000000000000086020594505b6f02582ab704279ec000000000000000008513611722577ffffffffffffffffffffffffffffffffe00000000000000000000000000000000909301926f02582ab704279ec000000000000000006f8000000000000000000000000000000086020594505b6f1152aaa3bf81cc0000000000000000008513611786577fffffffffffffffffffffffffffffffff00000000000000000000000000000000909301926f1152aaa3bf81cc0000000000000000006f8000000000000000000000000000000086020594505b6f2f16ac6c59de7000000000000000000085136117ea577fffffffffffffffffffffffffffffffff80000000000000000000000000000000909301926f2f16ac6c59de700000000000000000006f8000000000000000000000000000000086020594505b6f4da2cbf1be5828000000000000000000851361184e577fffffffffffffffffffffffffffffffffc0000000000000000000000000000000909301926f4da2cbf1be58280000000000000000006f8000000000000000000000000000000086020594505b6f63afbe7ab2082c00000000000000000085136118b2577fffffffffffffffffffffffffffffffffe0000000000000000000000000000000909301926f63afbe7ab2082c0000000000000000006f8000000000000000000000000000000086020594505b6f70f5a893b608861e1f58934f97aea57d8513611916577ffffffffffffffffffffffffffffffffff0000000000000000000000000000000909301926f70f5a893b608861e1f58934f97aea57d6f8000000000000000000000000000000086020594505b7fffffffffffffffffffffffffffffffff80000000000000000000000000000000850192508291506f80000000000000000000000000000000828002059050700100000000000000000000000000000000838103830205840193506f800000000000000000000000000000008183028161198c57fe5b059150700200000000000000000000000000000000836faaaaaaaaaaaaaaaaaaaaaaaaaaaaaaaa038302816119bd57fe5b05840193506f80000000000000000000000000000000818302816119dd57fe5b059150700300000000000000000000000000000000836f9999999999999999999999999999999903830281611a0e57fe5b05840193506f8000000000000000000000000000000081830281611a2e57fe5b059150700400000000000000000000000000000000836f9249249249249249249249249249249203830281611a5f57fe5b05840193506f8000000000000000000000000000000081830281611a7f57fe5b059150700500000000000000000000000000000000836f8e38e38e38e38e38e38e38e38e38e38e03830281611ab057fe5b05840193506f8000000000000000000000000000000081830281611ad057fe5b059150700600000000000000000000000000000000836f8ba2e8ba2e8ba2e8ba2e8ba2e8ba2e8b03830281611b0157fe5b05840193506f8000000000000000000000000000000081830281611b2157fe5b059150700700000000000000000000000000000000836f89d89d89d89d89d89d89d89d89d89d8903830281611b5257fe5b05840193506f8000000000000000000000000000000081830281611b7257fe5b059150700800000000000000000000000000000000836f8888888888888888888888888888888803830281611ba357fe5b0584019350505050919050565b60007fffffffffffffffffffffffffffffffe010000000000000000000000000000000821215611be257506000610669565b81611bfe57506f80000000000000000000000000000000610669565b6000821315611c39576040517f08c379a00000000000000000000000000000000000000000000000000000000081526004016102ea90612da6565b6f800000000000000000000000000000006f1000000000000000000000000000000083078080028290056710e1b3be415a0000810293909301929091818302059050806705a0913f6b1e000002830192506f8000000000000000000000000000000082820281611ca557fe5b05905080670168244fdac7800002830192506f8000000000000000000000000000000082820281611cd257fe5b05905080664807432bc1800002830192506f8000000000000000000000000000000082820281611cfe57fe5b05905080660c0135dca0400002830192506f8000000000000000000000000000000082820281611d2a57fe5b059050806601b707b1cdc00002830192506f8000000000000000000000000000000082820281611d5657fe5b059050806536e0f639b80002830192506f8000000000000000000000000000000082820281611d8157fe5b05905080650618fee9f80002830192506f8000000000000000000000000000000082820281611dac57fe5b05905080649c197dcc0002830192506f8000000000000000000000000000000082820281611dd657fe5b05905080640e30dce40002830192506f8000000000000000000000000000000082820281611e0057fe5b0590508064012ebd130002830192506f8000000000000000000000000000000082820281611e2a57fe5b059050806317499f0002830192506f8000000000000000000000000000000082820281611e5357fe5b059050806301a9d48002830192506f8000000000000000000000000000000082820281611e7c57fe5b05905080621c638002830192506f8000000000000000000000000000000082820281611ea457fe5b059050806201c63802830192506f8000000000000000000000000000000082820281611ecc57fe5b05905080611ab802830192506f8000000000000000000000000000000082820281611ef357fe5b0590508061017c02830192506f8000000000000000000000000000000082820281611f1a57fe5b05905080601402830192506f8000000000000000000000000000000082820281611f4057fe5b600095909503946721c3677c82b400009190059384010582016f8000000000000000000000000000000001929050701000000000000000000000000000000000841615611faf577243cbaf42a000812488fc5c220ad7b97bf6e99e6cf1aaddd7742e56d32fb9f9974484020592505b700800000000000000000000000000000000841615611ff1577105d27a9f51c31b7c2f8038212a05747799916e0afe10820813d65dfe6a33c07f738f84020592505b70040000000000000000000000000000000084161561203357701b4c902e273a58678d6d3bfdb93db96d026f02582ab704279e8efd15e0265855c47a84020592505b700200000000000000000000000000000000841615612075577003b1cc971a9bb5b9867477440d6d1577506f1152aaa3bf81cb9fdb76eae12d02957184020592505b7001000000000000000000000000000000008416156120b75770015bf0a8b1457695355fb8ac404e7a79e36f2f16ac6c59de6f8d5d6f63c1482a7c8684020592505b6f800000000000000000000000000000008416156120f7576fd3094c70f034de4b96ff7d5b6f99fcd86f4da2cbf1be5827f9eb3ad1aa9866ebb384020592505b6f40000000000000000000000000000000841615612137576fa45af1e1f40c333b3de1db4dd55f29a76f63afbe7ab2082ba1a0ae5e4eb1b479dc84020592505b6f20000000000000000000000000000000841615612177576f910b022db7ae67ce76b441c27035c6a16f70f5a893b608861e1f58934f97aea57d84020592505b6f100000000000000000000000000000008416156121b7576f88415abbe9a76bead8d00cf112e4d4a86f783eafef1c0a8f3978c7f81824d62ebf84020592505b5050919050565b6000806121cb600261273d565b9050600061220a6121ea8986610100015161111990919063ffffffff16565b610565896108528d6108528a610100015189610b9990919063ffffffff16565b905060006122306122278a6108528d6108528d610852600461273d565b610d7884612759565b9050600061224c8461078461224785610784610b85565b6114c6565b600003905060008082131561226f5761226a610d2383600003611bb0565b612278565b61227882611bb0565b905060006122a361228f878d63ffffffff61111916565b61078460008890038563ffffffff6111d216565b905060006112b18a83612765565b6000806122e46122d76122ca868a63ffffffff61111916565b8a9063ffffffff610b9916565b8a9063ffffffff61111916565b905060006122fb6122d78b8763ffffffff6111d216565b90506000612312612247848463ffffffff610c1716565b9050600061232b82610852886101000151610565610b85565b90506000612340896107848a61085286611bb0565b9d9c50505050505050505050505050565b600080612364848663ffffffff610c1716565b9050600061239261238086610852876101000151610565610b85565b6101008601519063ffffffff6111d216565b905060006123b66123ae88610852886101000151610565610b85565b610d78610b85565b905060006123ca838363ffffffff610c1716565b90508084126123d95780612340565b50919b9a5050505050505050505050565b6000806123fd848663ffffffff610b9916565b9050600061240d6001600a610b66565b9050600061243d61243061242388610565610b85565b879063ffffffff6111d216565b839063ffffffff61111916565b90507f34ae76bc42b30cb0f8b76bfddc91a95efe45ed0b3c7419efccce432de252a8228382604051612470929190612b16565b60405180910390a190911395945050505050565b6000806124968784610100015161277c565b905060006124c86124b286610852876101000151610565610b85565b610100860151610d78908563ffffffff61111916565b905060006124f56124e88a6108528a6108528a6101000151610565610b85565b849063ffffffff6111d216565b9050600061250d826107848c8663ffffffff61111916565b905088811261251c578861251e565b805b94505050509550959350505050565b600080600080600061253f8b8b6127b9565b905060006125528288610100015161277c565b905060006125766125698c8563ffffffff61111916565b8b9063ffffffff610b9916565b905080821361259b57828c8361258b8f6127ff565b96509650965096505050506125a8565b508b955090935086925090505b9650965096509692505050565b6000806125fe6125db6125ce898b63ffffffff610b9916565b859063ffffffff61111916565b610d786125ee898b63ffffffff61111916565b610565898d63ffffffff61111916565b905060006126356126256126188a8c63ffffffff610b9916565b879063ffffffff61111916565b610d78888a63ffffffff610b9916565b90506000612649838363ffffffff610c1716565b90508981136126585789610d3e565b9998505050505050505050565b612671605f6064610b66565b81121561040a576040517f08c379a00000000000000000000000000000000000000000000000000000000081526004016102ea90613210565b60008082136126d1576f7fffffffffffffffffffffffffffffff8260000316600003610666565b506f7fffffffffffffffffffffffffffffff1690565b600080821215612723576040517f08c379a00000000000000000000000000000000000000000000000000000000081526004016102ea90612d49565b610666826f800000000000000000000000000000006112f5565b6000610666826f800000000000000000000000000000006112f5565b60006106668283611119565b6000818313156127755781610b5f565b5090919050565b60008061278e610d2384610565610b85565b9050600061279b856114c6565b90506127b0610d04838363ffffffff61111916565b95945050505050565b6000610b5f6127c8600a61273d565b6107846127e56127d8600661273d565b869063ffffffff61111916565b610d786127f2600461273d565b889063ffffffff61111916565b600080612812838063ffffffff61111916565b90506000612826848363ffffffff61111916565b9050600061283a828063ffffffff61111916565b9050600061284e828063ffffffff61111916565b90506000612862828063ffffffff61111916565b90506000612876828063ffffffff61111916565b9050600061288a828863ffffffff61111916565b90506000610d3e828063ffffffff61111916565b604051806101a00160405280600015158152602001600073ffffffffffffffffffffffffffffffffffffffff168152602001600073ffffffffffffffffffffffffffffffffffffffff168152602001600081526020016000815260200160008152602001600081526020016000815260200160008152602001600081526020016000815260200160008152602001600081525090565b803573ffffffffffffffffffffffffffffffffffffffff81168114610c1157600080fd5b600060208284031215612969578081fd5b610b5f8383612934565b60008060408385031215612985578081fd5b61298f8484612934565b915061299e8460208501612934565b90509250929050565b6000806000606084860312156129bb578081fd5b83356129c6816132c6565b925060208401356129d6816132c6565b929592945050506040919091013590565b73ffffffffffffffffffffffffffffffffffffffff91909116815260200190565b73ffffffffffffffffffffffffffffffffffffffff92831681529116602082015260400190565b73ffffffffffffffffffffffffffffffffffffffff958616815293851660208501529190931660408301526060820192909252608081019190915260a00190565b73ffffffffffffffffffffffffffffffffffffffff9390931683526020830191909152604082015260600190565b9c15158d5273ffffffffffffffffffffffffffffffffffffffff9b8c1660208e015299909a1660408c015260608b019790975260808a019590955260a089019390935260c088019190915260e08701526101008601526101208501526101408401526101608301919091526101808201526101a00190565b918252602082015260400190565b60408082526011908201527f64656c74612061667465722073746570300000000000000000000000000000006060820152602081019190915260800190565b60208082526013908201527f6c6e3a2076616c756520746f6f20736d616c6c00000000000000000000000000604082015260600190565b6020808252600e908201527f4f6e6c794f776e65724572726f72000000000000000000000000000000000000604082015260600190565b60208082526013908201527f416c726561647920496e697469616c697a656400000000000000000000000000604082015260600190565b60208082526017908201527f496e76616c696420746f6b656e20616464726573736573000000000000000000604082015260600190565b6040808252600b908201527f66696e616c2070726963650000000000000000000000000000000000000000006060820152602081019190915260800190565b60208082526038908201527f746f46697865642875696e742c75696e74293a2064656e6f6d696e61746f722060408201527f63616e6e6f74206265206c657373207468616e207a65726f0000000000000000606082015260800190565b60208082526013908201527f6c6e3a2076616c756520746f6f206c6172676500000000000000000000000000604082015260600190565b6020808252601a908201527f547269656420746f20707572636861736520746f6f206d756368000000000000604082015260600190565b60208082526027908201527f746f46697865643a2076616c75652063616e6e6f74206265206c65737320746860408201527f616e207a65726f00000000000000000000000000000000000000000000000000606082015260800190565b60208082526014908201527f6578703a2076616c756520746f6f20736d616c6c000000000000000000000000604082015260600190565b6040808252600f908201527f79682061667465722073746570203400000000000000000000000000000000006060820152602081019190915260800190565b6040808252600f908201527f796c2061667465722073746570203300000000000000000000000000000000006060820152602081019190915260800190565b6040808252600f908201527f72682061667465722073746570203200000000000000000000000000000000006060820152602081019190915260800190565b6040808252600f908201527f72682061667465722073746570203400000000000000000000000000000000006060820152602081019190915260800190565b60208082526022908201527f64656c7461422069732067726561746572206f7220657175616c20746f207a6560408201527f726f000000000000000000000000000000000000000000000000000000000000606082015260800190565b60208082526018908201527f5472616e736665724f776e6572546f5a65726f4572726f720000000000000000604082015260600190565b6040808252600f908201527f726c2061667465722073746570203400000000000000000000000000000000006060820152602081019190915260800190565b6020808252600e908201527f5f6d756c3a206f766572666c6f77000000000000000000000000000000000000604082015260600190565b6040808252600f908201527f726c2061667465722073746570203500000000000000000000000000000000006060820152602081019190915260800190565b6020808252600e908201527f5f6164643a206f766572666c6f77000000000000000000000000000000000000604082015260600190565b60208082526014908201527f7375623a2076616c756520746f6f20736d616c6c000000000000000000000000604082015260600190565b60208082526036908201527f746f46697865642875696e742c75696e74293a206e756d657261746f7220636160408201527f6e6e6f74206265206c657373207468616e207a65726f00000000000000000000606082015260800190565b6040808252600f908201527f726c2061667465722073746570203100000000000000000000000000000000006060820152602081019190915260800190565b6040808252600f908201527f72682061667465722073746570203300000000000000000000000000000000006060820152602081019190915260800190565b60208082526014908201527f5f6469763a20646976696465206279207a65726f000000000000000000000000604082015260600190565b6020808252600e908201527f5f6469763a206f766572666c6f77000000000000000000000000000000000000604082015260600190565b60208082526013908201527f70726963652063616e6e6f74206265203c203000000000000000000000000000604082015260600190565b6020808252600f908201527f4f7264657220746f6f206c617267650000000000000000000000000000000000604082015260600190565b60208082526014908201527f70726963652063616e6e6f74206265207a65726f000000000000000000000000604082015260600190565b6040808252600f908201527f796c2061667465722073746570203400000000000000000000000000000000006060820152602081019190915260800190565b90815260200190565b73ffffffffffffffffffffffffffffffffffffffff8116811461040a57600080fdfea365627a7a7231582099a143c90d1ce3bb11590fe0206c63c63c15dab7843451805aa7d1eaa6b8e6956c6578706572696d656e74616cf564736f6c634300050c0040",
				"opcodes": "PUSH1 0x80 PUSH1 0x40 MSTORE PUSH1 0x0 DUP1 SLOAD PUSH1 0x1 PUSH1 0x1 PUSH1 0xA0 SHL SUB NOT AND CALLER OR SWAP1 SSTORE PUSH2 0x332B DUP1 PUSH2 0x25 PUSH1 0x0 CODECOPY PUSH1 0x0 RETURN INVALID PUSH1 0x80 PUSH1 0x40 MSTORE CALLVALUE DUP1 ISZERO PUSH2 0x10 JUMPI PUSH1 0x0 DUP1 REVERT JUMPDEST POP PUSH1 0x4 CALLDATASIZE LT PUSH2 0x67 JUMPI PUSH1 0x0 CALLDATALOAD PUSH1 0xE0 SHR DUP1 PUSH4 0xAFD46EB5 GT PUSH2 0x50 JUMPI DUP1 PUSH4 0xAFD46EB5 EQ PUSH2 0x9F JUMPI DUP1 PUSH4 0xDF791E50 EQ PUSH2 0xC0 JUMPI DUP1 PUSH4 0xF2FDE38B EQ PUSH2 0xE0 JUMPI PUSH2 0x67 JUMP JUMPDEST DUP1 PUSH4 0x7B689036 EQ PUSH2 0x6C JUMPI DUP1 PUSH4 0x8DA5CB5B EQ PUSH2 0x81 JUMPI JUMPDEST PUSH1 0x0 DUP1 REVERT JUMPDEST PUSH2 0x7F PUSH2 0x7A CALLDATASIZE PUSH1 0x4 PUSH2 0x2973 JUMP JUMPDEST PUSH2 0xF3 JUMP JUMPDEST STOP JUMPDEST PUSH2 0x89 PUSH2 0x109 JUMP JUMPDEST PUSH1 0x40 MLOAD PUSH2 0x96 SWAP2 SWAP1 PUSH2 0x29E7 JUMP JUMPDEST PUSH1 0x40 MLOAD DUP1 SWAP2 SUB SWAP1 RETURN JUMPDEST PUSH2 0xA7 PUSH2 0x125 JUMP JUMPDEST PUSH1 0x40 MLOAD PUSH2 0x96 SWAP14 SWAP13 SWAP12 SWAP11 SWAP10 SWAP9 SWAP8 SWAP7 SWAP6 SWAP5 SWAP4 SWAP3 SWAP2 SWAP1 PUSH2 0x2A9E JUMP JUMPDEST PUSH2 0xD3 PUSH2 0xCE CALLDATASIZE PUSH1 0x4 PUSH2 0x29A7 JUMP JUMPDEST PUSH2 0x17A JUMP JUMPDEST PUSH1 0x40 MLOAD PUSH2 0x96 SWAP2 SWAP1 PUSH2 0x32BD JUMP JUMPDEST PUSH2 0x7F PUSH2 0xEE CALLDATASIZE PUSH1 0x4 PUSH2 0x2958 JUMP JUMPDEST PUSH2 0x33A JUMP JUMPDEST PUSH2 0xFB PUSH2 0x40D JUMP JUMPDEST PUSH2 0x105 DUP3 DUP3 PUSH2 0x460 JUMP JUMPDEST POP POP JUMP JUMPDEST PUSH1 0x0 SLOAD PUSH20 0xFFFFFFFFFFFFFFFFFFFFFFFFFFFFFFFFFFFFFFFF AND DUP2 JUMP JUMPDEST PUSH1 0x1 SLOAD PUSH1 0x2 SLOAD PUSH1 0x3 SLOAD PUSH1 0x4 SLOAD PUSH1 0x5 SLOAD PUSH1 0x6 SLOAD PUSH1 0x7 SLOAD PUSH1 0x8 SLOAD PUSH1 0x9 SLOAD PUSH1 0xA SLOAD PUSH1 0xC SLOAD PUSH1 0xD SLOAD PUSH1 0xFF DUP13 AND SWAP12 PUSH20 0xFFFFFFFFFFFFFFFFFFFFFFFFFFFFFFFFFFFFFFFF PUSH2 0x100 SWAP1 SWAP2 DIV DUP2 AND SWAP12 AND SWAP10 SWAP9 SWAP8 SWAP7 SWAP6 SWAP5 SWAP4 SWAP3 SWAP2 SWAP1 DUP14 JUMP JUMPDEST PUSH1 0x0 PUSH2 0x184 PUSH2 0x289E JUMP JUMPDEST PUSH2 0x18C PUSH2 0x5B3 JUMP JUMPDEST SWAP1 POP DUP1 PUSH1 0x20 ADD MLOAD PUSH20 0xFFFFFFFFFFFFFFFFFFFFFFFFFFFFFFFFFFFFFFFF AND DUP6 PUSH20 0xFFFFFFFFFFFFFFFFFFFFFFFFFFFFFFFFFFFFFFFF AND EQ DUP1 ISZERO PUSH2 0x1FC JUMPI POP DUP1 PUSH1 0x40 ADD MLOAD PUSH20 0xFFFFFFFFFFFFFFFFFFFFFFFFFFFFFFFFFFFFFFFF AND DUP5 PUSH20 0xFFFFFFFFFFFFFFFFFFFFFFFFFFFFFFFFFFFFFFFF AND EQ JUMPDEST ISZERO PUSH2 0x22A JUMPI PUSH1 0x0 PUSH2 0x217 DUP7 DUP7 PUSH2 0x211 DUP8 PUSH2 0x659 JUMP JUMPDEST DUP6 PUSH2 0x66E JUMP JUMPDEST SWAP1 POP PUSH2 0x222 DUP2 PUSH2 0xAAB JUMP JUMPDEST SWAP3 POP POP PUSH2 0x2F3 JUMP JUMPDEST DUP1 PUSH1 0x40 ADD MLOAD PUSH20 0xFFFFFFFFFFFFFFFFFFFFFFFFFFFFFFFFFFFFFFFF AND DUP6 PUSH20 0xFFFFFFFFFFFFFFFFFFFFFFFFFFFFFFFFFFFFFFFF AND EQ DUP1 ISZERO PUSH2 0x298 JUMPI POP DUP1 PUSH1 0x20 ADD MLOAD PUSH20 0xFFFFFFFFFFFFFFFFFFFFFFFFFFFFFFFFFFFFFFFF AND DUP5 PUSH20 0xFFFFFFFFFFFFFFFFFFFFFFFFFFFFFFFFFFFFFFFF AND EQ JUMPDEST ISZERO PUSH2 0x2B8 JUMPI PUSH1 0x0 PUSH2 0x2AD DUP7 DUP7 PUSH2 0x211 DUP8 PUSH2 0x659 JUMP JUMPDEST SWAP1 POP PUSH2 0x222 DUP2 PUSH2 0xAB8 JUMP JUMPDEST PUSH1 0x40 MLOAD PUSH32 0x8C379A000000000000000000000000000000000000000000000000000000000 DUP2 MSTORE PUSH1 0x4 ADD PUSH2 0x2EA SWAP1 PUSH2 0x2C08 JUMP JUMPDEST PUSH1 0x40 MLOAD DUP1 SWAP2 SUB SWAP1 REVERT JUMPDEST PUSH32 0x256DB8090FA51C3BAC981768637D5A7C46B5540644DCEF89052B89DBB2F6C8EA CALLER DUP7 DUP7 DUP7 DUP7 PUSH1 0x40 MLOAD PUSH2 0x32A SWAP6 SWAP5 SWAP4 SWAP3 SWAP2 SWAP1 PUSH2 0x2A2F JUMP JUMPDEST PUSH1 0x40 MLOAD DUP1 SWAP2 SUB SWAP1 LOG1 POP SWAP4 SWAP3 POP POP POP JUMP JUMPDEST PUSH2 0x342 PUSH2 0x40D JUMP JUMPDEST PUSH20 0xFFFFFFFFFFFFFFFFFFFFFFFFFFFFFFFFFFFFFFFF DUP2 AND PUSH2 0x38F JUMPI PUSH1 0x40 MLOAD PUSH32 0x8C379A000000000000000000000000000000000000000000000000000000000 DUP2 MSTORE PUSH1 0x4 ADD PUSH2 0x2EA SWAP1 PUSH2 0x2F36 JUMP JUMPDEST PUSH1 0x0 DUP1 SLOAD PUSH32 0xFFFFFFFFFFFFFFFFFFFFFFFF0000000000000000000000000000000000000000 AND PUSH20 0xFFFFFFFFFFFFFFFFFFFFFFFFFFFFFFFFFFFFFFFF DUP4 AND OR SWAP1 SSTORE PUSH1 0x40 MLOAD PUSH32 0x8BE0079C531659141344CD1FD0A4F28419497F9722A3DAAFE3B4186F6B6457E0 SWAP1 PUSH2 0x401 SWAP1 CALLER SWAP1 DUP5 SWAP1 PUSH2 0x2A08 JUMP JUMPDEST PUSH1 0x40 MLOAD DUP1 SWAP2 SUB SWAP1 LOG1 JUMPDEST POP JUMP JUMPDEST PUSH1 0x0 SLOAD PUSH20 0xFFFFFFFFFFFFFFFFFFFFFFFFFFFFFFFFFFFFFFFF AND CALLER EQ PUSH2 0x45E JUMPI PUSH1 0x40 MLOAD PUSH32 0x8C379A000000000000000000000000000000000000000000000000000000000 DUP2 MSTORE PUSH1 0x4 ADD PUSH2 0x2EA SWAP1 PUSH2 0x2B9A JUMP JUMPDEST JUMP JUMPDEST PUSH1 0x1 SLOAD PUSH1 0xFF AND ISZERO PUSH2 0x49D JUMPI PUSH1 0x40 MLOAD PUSH32 0x8C379A000000000000000000000000000000000000000000000000000000000 DUP2 MSTORE PUSH1 0x4 ADD PUSH2 0x2EA SWAP1 PUSH2 0x2BD1 JUMP JUMPDEST PUSH1 0x1 DUP1 SLOAD PUSH32 0xFFFFFFFFFFFFFFFFFFFFFF0000000000000000000000000000000000000000FF AND PUSH2 0x100 PUSH20 0xFFFFFFFFFFFFFFFFFFFFFFFFFFFFFFFFFFFFFFFF DUP6 DUP2 AND SWAP2 SWAP1 SWAP2 MUL SWAP2 SWAP1 SWAP2 OR SWAP1 SWAP2 SSTORE PUSH1 0x2 DUP1 SLOAD PUSH32 0xFFFFFFFFFFFFFFFFFFFFFFFF0000000000000000000000000000000000000000 AND SWAP2 DUP4 AND SWAP2 SWAP1 SWAP2 OR SWAP1 SSTORE PUSH2 0x524 PUSH1 0x63 PUSH1 0x64 PUSH2 0xAC5 JUMP JUMPDEST PUSH1 0x6 SSTORE PUSH1 0x63 PUSH1 0x7 DUP2 SWAP1 SSTORE PUSH2 0x539 SWAP1 PUSH1 0x64 PUSH2 0xAC5 JUMP JUMPDEST PUSH1 0x8 SSTORE PUSH2 0x549 PUSH1 0x5 PUSH2 0x2710 PUSH2 0xAC5 JUMP JUMPDEST PUSH1 0x9 SSTORE PUSH2 0x571 PUSH2 0x55D PUSH1 0x1 PUSH3 0xF4240 PUSH2 0xB66 JUMP JUMPDEST PUSH2 0x565 PUSH2 0xB85 JUMP JUMPDEST SWAP1 PUSH4 0xFFFFFFFF PUSH2 0xB99 AND JUMP JUMPDEST PUSH1 0xC SSTORE PUSH2 0x582 PUSH2 0x2715 PUSH2 0x3E8 PUSH2 0xB66 JUMP JUMPDEST PUSH1 0xD SSTORE POP POP PUSH1 0x1 DUP1 SLOAD PUSH32 0xFFFFFFFFFFFFFFFFFFFFFFFFFFFFFFFFFFFFFFFFFFFFFFFFFFFFFFFFFFFFFF00 AND DUP2 OR SWAP1 SSTORE JUMP JUMPDEST PUSH2 0x5BB PUSH2 0x289E JUMP JUMPDEST POP PUSH1 0x40 DUP1 MLOAD PUSH2 0x1A0 DUP2 ADD DUP3 MSTORE PUSH1 0x1 SLOAD PUSH1 0xFF DUP2 AND ISZERO ISZERO DUP3 MSTORE PUSH20 0xFFFFFFFFFFFFFFFFFFFFFFFFFFFFFFFFFFFFFFFF PUSH2 0x100 SWAP2 DUP3 SWAP1 DIV DUP2 AND PUSH1 0x20 DUP5 ADD MSTORE PUSH1 0x2 SLOAD AND SWAP3 DUP3 ADD SWAP3 SWAP1 SWAP3 MSTORE PUSH1 0x3 SLOAD PUSH1 0x60 DUP3 ADD MSTORE PUSH1 0x4 SLOAD PUSH1 0x80 DUP3 ADD MSTORE PUSH1 0x5 SLOAD PUSH1 0xA0 DUP3 ADD MSTORE PUSH1 0x6 SLOAD PUSH1 0xC0 DUP3 ADD MSTORE PUSH1 0x7 SLOAD PUSH1 0xE0 DUP3 ADD MSTORE PUSH1 0x8 SLOAD SWAP2 DUP2 ADD SWAP2 SWAP1 SWAP2 MSTORE PUSH1 0x9 SLOAD PUSH2 0x120 DUP3 ADD MSTORE PUSH1 0xA SLOAD PUSH2 0x140 DUP3 ADD MSTORE PUSH1 0xC SLOAD PUSH2 0x160 DUP3 ADD MSTORE PUSH1 0xD SLOAD PUSH2 0x180 DUP3 ADD MSTORE SWAP1 JUMP JUMPDEST PUSH1 0x0 PUSH2 0x666 DUP3 PUSH1 0x12 PUSH2 0xC02 JUMP JUMPDEST SWAP1 POP JUMPDEST SWAP2 SWAP1 POP JUMP JUMPDEST PUSH1 0x20 DUP2 ADD MLOAD PUSH1 0x0 SWAP1 DUP2 SWAP1 DUP2 SWAP1 DUP2 SWAP1 DUP2 SWAP1 PUSH20 0xFFFFFFFFFFFFFFFFFFFFFFFFFFFFFFFFFFFFFFFF DUP11 DUP2 AND SWAP2 AND EQ DUP1 ISZERO PUSH2 0x6D4 JUMPI POP DUP6 PUSH1 0x40 ADD MLOAD PUSH20 0xFFFFFFFFFFFFFFFFFFFFFFFFFFFFFFFFFFFFFFFF AND DUP9 PUSH20 0xFFFFFFFFFFFFFFFFFFFFFFFFFFFFFFFFFFFFFFFF AND EQ JUMPDEST ISZERO PUSH2 0x6F3 JUMPI POP POP POP POP PUSH1 0x60 DUP3 ADD MLOAD PUSH1 0x80 DUP4 ADD MLOAD PUSH1 0xC0 DUP5 ADD MLOAD PUSH1 0x1 PUSH2 0x793 JUMP JUMPDEST DUP6 PUSH1 0x40 ADD MLOAD PUSH20 0xFFFFFFFFFFFFFFFFFFFFFFFFFFFFFFFFFFFFFFFF AND DUP10 PUSH20 0xFFFFFFFFFFFFFFFFFFFFFFFFFFFFFFFFFFFFFFFF AND EQ DUP1 ISZERO PUSH2 0x761 JUMPI POP DUP6 PUSH1 0x20 ADD MLOAD PUSH20 0xFFFFFFFFFFFFFFFFFFFFFFFFFFFFFFFFFFFFFFFF AND DUP9 PUSH20 0xFFFFFFFFFFFFFFFFFFFFFFFFFFFFFFFFFFFFFFFF AND EQ JUMPDEST ISZERO PUSH2 0x2B8 JUMPI DUP6 PUSH1 0x80 ADD MLOAD SWAP4 POP DUP6 PUSH1 0x60 ADD MLOAD SWAP3 POP PUSH2 0x790 DUP7 PUSH1 0xC0 ADD MLOAD PUSH2 0x784 PUSH2 0xB85 JUMP JUMPDEST SWAP1 PUSH4 0xFFFFFFFF PUSH2 0xC17 AND JUMP JUMPDEST SWAP2 POP JUMPDEST PUSH1 0x0 PUSH2 0x7A6 DUP6 DUP6 DUP6 DUP11 PUSH2 0x100 ADD MLOAD PUSH2 0xC96 JUMP JUMPDEST SWAP1 POP PUSH1 0x0 PUSH2 0x7B8 DUP7 DUP7 DUP5 DUP8 DUP14 DUP14 PUSH2 0xD4C JUMP JUMPDEST SWAP1 POP PUSH1 0x0 DUP2 SLT ISZERO PUSH2 0x7F5 JUMPI PUSH1 0x40 MLOAD PUSH32 0x8C379A000000000000000000000000000000000000000000000000000000000 DUP2 MSTORE PUSH1 0x4 ADD PUSH2 0x2EA SWAP1 PUSH2 0x31D9 JUMP JUMPDEST DUP1 PUSH2 0x82C JUMPI PUSH1 0x40 MLOAD PUSH32 0x8C379A000000000000000000000000000000000000000000000000000000000 DUP2 MSTORE PUSH1 0x4 ADD PUSH2 0x2EA SWAP1 PUSH2 0x3247 JUMP JUMPDEST PUSH1 0x0 PUSH2 0x85E PUSH2 0x842 DUP11 PUSH2 0x120 ADD MLOAD PUSH2 0x565 PUSH2 0xB85 JUMP JUMPDEST PUSH2 0x852 DUP13 DUP6 PUSH4 0xFFFFFFFF PUSH2 0x1119 AND JUMP JUMPDEST SWAP1 PUSH4 0xFFFFFFFF PUSH2 0x1119 AND JUMP JUMPDEST PUSH1 0x0 SWAP1 DUP2 SUB SWAP2 POP DUP2 SLT PUSH2 0x89D JUMPI PUSH1 0x40 MLOAD PUSH32 0x8C379A000000000000000000000000000000000000000000000000000000000 DUP2 MSTORE PUSH1 0x4 ADD PUSH2 0x2EA SWAP1 PUSH2 0x2ED9 JUMP JUMPDEST PUSH1 0x0 PUSH2 0x8AD PUSH1 0x1 PUSH3 0x186A0 PUSH2 0xB66 JUMP JUMPDEST SWAP1 POP DUP1 PUSH2 0x8C0 DUP9 DUP5 PUSH4 0xFFFFFFFF PUSH2 0x11D2 AND JUMP JUMPDEST SGT PUSH2 0x8EB JUMPI PUSH2 0x8D5 DUP2 DUP9 PUSH4 0xFFFFFFFF PUSH2 0xB99 AND JUMP JUMPDEST SWAP2 POP PUSH1 0x0 DUP3 SLT PUSH2 0x8E6 JUMPI PUSH1 0x0 PUSH2 0x8E8 JUMP JUMPDEST DUP2 JUMPDEST SWAP2 POP JUMPDEST PUSH2 0x8F9 PUSH1 0x1 PUSH3 0xF4240 PUSH2 0xB66 JUMP JUMPDEST DUP3 ADD SWAP2 POP PUSH1 0x0 DUP3 SLT PUSH2 0x937 JUMPI PUSH1 0x40 MLOAD PUSH32 0x8C379A000000000000000000000000000000000000000000000000000000000 DUP2 MSTORE PUSH1 0x4 ADD PUSH2 0x2EA SWAP1 PUSH2 0x2D12 JUMP JUMPDEST PUSH1 0x0 PUSH2 0x957 DUP12 PUSH2 0x140 ADD MLOAD PUSH2 0x94A PUSH2 0x11DE JUMP JUMPDEST DUP14 PUSH2 0x160 ADD MLOAD DUP9 DUP12 PUSH2 0x11E2 JUMP JUMPDEST PUSH2 0x180 DUP13 ADD MLOAD SWAP1 SWAP2 POP PUSH2 0x970 SWAP1 DUP9 PUSH4 0xFFFFFFFF PUSH2 0x1119 AND JUMP JUMPDEST DUP2 SGT ISZERO PUSH2 0x994 JUMPI PUSH2 0x180 DUP12 ADD MLOAD PUSH2 0x98D SWAP1 DUP9 PUSH4 0xFFFFFFFF PUSH2 0x1119 AND JUMP JUMPDEST SWAP1 POP PUSH2 0x9CD JUMP JUMPDEST DUP7 PUSH2 0x9AD DUP13 PUSH2 0x180 ADD MLOAD DUP4 PUSH2 0x1119 SWAP1 SWAP2 SWAP1 PUSH4 0xFFFFFFFF AND JUMP JUMPDEST SLT ISZERO PUSH2 0x9CD JUMPI PUSH2 0x180 DUP12 ADD MLOAD PUSH2 0x9CA SWAP1 DUP9 SWAP1 PUSH4 0xFFFFFFFF PUSH2 0xC17 AND JUMP JUMPDEST SWAP1 POP JUMPDEST PUSH2 0x9D5 PUSH2 0x11DE JUMP JUMPDEST PUSH2 0x140 DUP13 ADD MSTORE DUP6 ISZERO PUSH2 0xA17 JUMPI PUSH2 0x9F1 DUP10 DUP14 PUSH4 0xFFFFFFFF PUSH2 0x11D2 AND JUMP JUMPDEST PUSH1 0x60 DUP13 ADD MSTORE PUSH2 0xA06 DUP9 DUP5 PUSH4 0xFFFFFFFF PUSH2 0x11D2 AND JUMP JUMPDEST PUSH1 0x80 DUP13 ADD MSTORE PUSH1 0xC0 DUP12 ADD DUP2 SWAP1 MSTORE PUSH2 0xA53 JUMP JUMPDEST PUSH2 0xA27 DUP9 DUP5 PUSH4 0xFFFFFFFF PUSH2 0x11D2 AND JUMP JUMPDEST PUSH1 0x60 DUP13 ADD MSTORE PUSH2 0xA3C DUP10 DUP14 PUSH4 0xFFFFFFFF PUSH2 0x11D2 AND JUMP JUMPDEST PUSH1 0x80 DUP13 ADD MSTORE PUSH2 0xA4D DUP2 PUSH2 0x784 PUSH2 0xB85 JUMP JUMPDEST PUSH1 0xC0 DUP13 ADD MSTORE JUMPDEST PUSH2 0xA5C DUP12 PUSH2 0x12C3 JUMP JUMPDEST PUSH32 0x666804E599B015EDCFB9DE12153BF8A48AA5A84B8861B8FA88C1CF4B11974C15 CALLER DUP14 DUP6 PUSH1 0x40 MLOAD PUSH2 0xA8F SWAP4 SWAP3 SWAP2 SWAP1 PUSH2 0x2A70 JUMP JUMPDEST PUSH1 0x40 MLOAD DUP1 SWAP2 SUB SWAP1 LOG1 POP POP PUSH1 0x0 SUB SWAP12 SWAP11 POP POP POP POP POP POP POP POP POP POP POP JUMP JUMPDEST PUSH1 0x0 PUSH2 0x666 DUP3 PUSH1 0x6 PUSH2 0x12E5 JUMP JUMPDEST PUSH1 0x0 PUSH2 0x666 DUP3 PUSH1 0x12 PUSH2 0x12E5 JUMP JUMPDEST PUSH1 0x0 DUP1 DUP4 SLT ISZERO PUSH2 0xB01 JUMPI PUSH1 0x40 MLOAD PUSH32 0x8C379A000000000000000000000000000000000000000000000000000000000 DUP2 MSTORE PUSH1 0x4 ADD PUSH2 0x2EA SWAP1 PUSH2 0x3090 JUMP JUMPDEST PUSH1 0x0 DUP3 SLT ISZERO PUSH2 0xB3C JUMPI PUSH1 0x40 MLOAD PUSH32 0x8C379A000000000000000000000000000000000000000000000000000000000 DUP2 MSTORE PUSH1 0x4 ADD PUSH2 0x2EA SWAP1 PUSH2 0x2C7E JUMP JUMPDEST PUSH2 0xB5F PUSH2 0xB59 DUP5 PUSH16 0x80000000000000000000000000000000 PUSH2 0x12F5 JUMP JUMPDEST DUP4 PUSH2 0x136B JUMP JUMPDEST SWAP4 SWAP3 POP POP POP JUMP JUMPDEST PUSH1 0x0 PUSH2 0xB5F PUSH2 0xB59 DUP5 PUSH16 0x80000000000000000000000000000000 PUSH2 0x12F5 JUMP JUMPDEST PUSH16 0x80000000000000000000000000000000 SWAP1 JUMP JUMPDEST PUSH1 0x0 PUSH32 0x8000000000000000000000000000000000000000000000000000000000000000 DUP3 EQ ISZERO PUSH2 0xBF5 JUMPI PUSH1 0x40 MLOAD PUSH32 0x8C379A000000000000000000000000000000000000000000000000000000000 DUP2 MSTORE PUSH1 0x4 ADD PUSH2 0x2EA SWAP1 PUSH2 0x3059 JUMP JUMPDEST PUSH2 0xB5F DUP4 DUP4 PUSH1 0x0 SUB PUSH2 0x143A JUMP JUMPDEST PUSH1 0x0 PUSH2 0xB5F DUP4 DUP4 PUSH1 0xA EXP PUSH2 0xAC5 JUMP JUMPDEST SWAP3 SWAP2 POP POP JUMP JUMPDEST PUSH1 0x0 DUP1 PUSH2 0xC23 DUP5 PUSH2 0x14B0 JUMP JUMPDEST SWAP1 POP DUP1 ISZERO PUSH2 0xC73 JUMPI PUSH2 0xC6B PUSH2 0xC37 DUP6 PUSH2 0x14B0 JUMP JUMPDEST PUSH2 0xC60 PUSH2 0xC65 DUP8 PUSH2 0xC60 PUSH16 0x80000000000000000000000000000000 PUSH2 0xC5B DUP12 PUSH2 0x14B0 JUMP JUMPDEST PUSH2 0x136B JUMP JUMPDEST PUSH2 0x12F5 JUMP JUMPDEST DUP7 PUSH2 0x136B JUMP JUMPDEST SWAP2 POP POP PUSH2 0xC11 JUMP JUMPDEST PUSH2 0xC6B PUSH2 0xC90 DUP6 PUSH16 0x80000000000000000000000000000000 PUSH2 0x12F5 JUMP JUMPDEST DUP5 PUSH2 0x136B JUMP JUMPDEST PUSH1 0x0 DUP1 PUSH2 0xCA9 DUP5 DUP8 PUSH4 0xFFFFFFFF PUSH2 0x1119 AND JUMP JUMPDEST SWAP1 POP PUSH1 0x0 PUSH2 0xCBD DUP7 DUP4 PUSH4 0xFFFFFFFF PUSH2 0xC17 AND JUMP JUMPDEST SWAP1 POP PUSH1 0x0 PUSH2 0xCD1 DUP4 DUP9 PUSH4 0xFFFFFFFF PUSH2 0xC17 AND JUMP JUMPDEST SWAP1 POP PUSH1 0x0 PUSH2 0xCE1 DUP7 PUSH2 0x565 PUSH2 0xB85 JUMP JUMPDEST SWAP1 POP PUSH1 0x0 PUSH2 0xCED PUSH2 0xB85 JUMP JUMPDEST DUP5 SLT ISZERO PUSH2 0xD10 JUMPI PUSH2 0xD09 PUSH2 0xD04 DUP4 PUSH2 0x852 DUP8 PUSH2 0x14C6 JUMP JUMPDEST PUSH2 0x1BB0 JUMP JUMPDEST SWAP1 POP PUSH2 0xD2E JUMP JUMPDEST PUSH2 0xD2B PUSH2 0xD23 PUSH2 0xD04 DUP5 PUSH2 0x852 DUP8 PUSH2 0x14C6 JUMP JUMPDEST PUSH2 0x784 PUSH2 0xB85 JUMP JUMPDEST SWAP1 POP JUMPDEST PUSH2 0xD3E DUP2 DUP10 PUSH4 0xFFFFFFFF PUSH2 0x1119 AND JUMP JUMPDEST SWAP11 SWAP10 POP POP POP POP POP POP POP POP POP POP JUMP JUMPDEST PUSH1 0x0 DUP1 PUSH2 0xDA1 PUSH2 0xD94 PUSH2 0xD84 PUSH2 0xD68 DUP11 DUP9 PUSH4 0xFFFFFFFF PUSH2 0x1119 AND JUMP JUMPDEST PUSH2 0xD78 DUP13 DUP13 PUSH4 0xFFFFFFFF PUSH2 0x1119 AND JUMP JUMPDEST SWAP1 PUSH4 0xFFFFFFFF PUSH2 0x11D2 AND JUMP JUMPDEST PUSH2 0x784 DUP10 DUP9 PUSH4 0xFFFFFFFF PUSH2 0x1119 AND JUMP JUMPDEST DUP10 SWAP1 PUSH4 0xFFFFFFFF PUSH2 0x1119 AND JUMP JUMPDEST SWAP1 POP PUSH1 0x0 PUSH2 0xDC5 PUSH2 0xDB8 DUP11 DUP8 PUSH4 0xFFFFFFFF PUSH2 0x11D2 AND JUMP JUMPDEST DUP11 SWAP1 PUSH4 0xFFFFFFFF PUSH2 0xC17 AND JUMP JUMPDEST SWAP1 POP PUSH1 0x0 PUSH2 0xDD7 DUP11 DUP11 DUP11 DUP11 DUP11 DUP11 PUSH2 0x21BE JUMP JUMPDEST SWAP1 POP PUSH32 0xEAB289761059C96752AF5F89D5FAE009FAD63B60A50A884C5CE5936384B16EE6 DUP2 PUSH1 0x40 MLOAD PUSH2 0xE08 SWAP2 SWAP1 PUSH2 0x2B24 JUMP JUMPDEST PUSH1 0x40 MLOAD DUP1 SWAP2 SUB SWAP1 LOG1 PUSH1 0x0 PUSH2 0xE21 DUP12 DUP12 DUP12 DUP12 DUP12 DUP8 DUP13 PUSH2 0x22B1 JUMP JUMPDEST SWAP1 POP PUSH32 0xEAB289761059C96752AF5F89D5FAE009FAD63B60A50A884C5CE5936384B16EE6 DUP2 PUSH1 0x40 MLOAD PUSH2 0xE52 SWAP2 SWAP1 PUSH2 0x30ED JUMP JUMPDEST PUSH1 0x40 MLOAD DUP1 SWAP2 SUB SWAP1 LOG1 PUSH1 0x0 PUSH2 0xE6C DUP13 DUP13 DUP13 DUP13 DUP13 DUP11 DUP11 DUP15 PUSH2 0x2351 JUMP JUMPDEST SWAP1 POP PUSH32 0xEAB289761059C96752AF5F89D5FAE009FAD63B60A50A884C5CE5936384B16EE6 DUP2 PUSH1 0x40 MLOAD PUSH2 0xE9D SWAP2 SWAP1 PUSH2 0x2E5B JUMP JUMPDEST PUSH1 0x40 MLOAD DUP1 SWAP2 SUB SWAP1 LOG1 PUSH2 0xEB5 DUP3 DUP3 DUP10 PUSH2 0x120 ADD MLOAD PUSH2 0x23EA JUMP JUMPDEST ISZERO PUSH2 0x10AA JUMPI PUSH1 0x0 PUSH2 0xEC9 DUP4 DUP4 DUP9 DUP9 DUP13 PUSH2 0x2484 JUMP JUMPDEST PUSH1 0x40 MLOAD SWAP2 SWAP4 POP SWAP2 POP PUSH32 0xEAB289761059C96752AF5F89D5FAE009FAD63B60A50A884C5CE5936384B16EE6 SWAP1 PUSH2 0xEFE SWAP1 DUP5 SWAP1 PUSH2 0x312C JUMP JUMPDEST PUSH1 0x40 MLOAD DUP1 SWAP2 SUB SWAP1 LOG1 PUSH32 0xEAB289761059C96752AF5F89D5FAE009FAD63B60A50A884C5CE5936384B16EE6 DUP2 PUSH1 0x40 MLOAD PUSH2 0xF35 SWAP2 SWAP1 PUSH2 0x2E1C JUMP JUMPDEST PUSH1 0x40 MLOAD DUP1 SWAP2 SUB SWAP1 LOG1 PUSH2 0xF4D DUP4 DUP4 DUP11 PUSH2 0x120 ADD MLOAD PUSH2 0x23EA JUMP JUMPDEST ISZERO PUSH2 0x10A8 JUMPI PUSH1 0x0 PUSH2 0xF62 DUP5 DUP5 DUP10 DUP10 DUP7 DUP15 PUSH2 0x252D JUMP JUMPDEST PUSH1 0x40 MLOAD SWAP4 SWAP8 POP SWAP2 SWAP6 POP SWAP4 POP SWAP2 POP PUSH32 0xEAB289761059C96752AF5F89D5FAE009FAD63B60A50A884C5CE5936384B16EE6 SWAP1 PUSH2 0xF9C SWAP1 DUP7 SWAP1 PUSH2 0x2F6D JUMP JUMPDEST PUSH1 0x40 MLOAD DUP1 SWAP2 SUB SWAP1 LOG1 PUSH32 0xEAB289761059C96752AF5F89D5FAE009FAD63B60A50A884C5CE5936384B16EE6 DUP4 PUSH1 0x40 MLOAD PUSH2 0xFD3 SWAP2 SWAP1 PUSH2 0x2E9A JUMP JUMPDEST PUSH1 0x40 MLOAD DUP1 SWAP2 SUB SWAP1 LOG1 PUSH32 0xEAB289761059C96752AF5F89D5FAE009FAD63B60A50A884C5CE5936384B16EE6 DUP3 PUSH1 0x40 MLOAD PUSH2 0x100A SWAP2 SWAP1 PUSH2 0x327E JUMP JUMPDEST PUSH1 0x40 MLOAD DUP1 SWAP2 SUB SWAP1 LOG1 PUSH32 0xEAB289761059C96752AF5F89D5FAE009FAD63B60A50A884C5CE5936384B16EE6 DUP2 PUSH1 0x40 MLOAD PUSH2 0x1041 SWAP2 SWAP1 PUSH2 0x2DDD JUMP JUMPDEST PUSH1 0x40 MLOAD DUP1 SWAP2 SUB SWAP1 LOG1 PUSH2 0x1059 DUP5 DUP5 DUP12 PUSH2 0x120 ADD MLOAD PUSH2 0x23EA JUMP JUMPDEST ISZERO PUSH2 0x10A6 JUMPI PUSH2 0x106C DUP5 DUP5 DUP5 DUP5 DUP12 DUP12 PUSH2 0x25B5 JUMP JUMPDEST SWAP4 POP PUSH32 0xEAB289761059C96752AF5F89D5FAE009FAD63B60A50A884C5CE5936384B16EE6 DUP5 PUSH1 0x40 MLOAD PUSH2 0x109D SWAP2 SWAP1 PUSH2 0x2FE3 JUMP JUMPDEST PUSH1 0x40 MLOAD DUP1 SWAP2 SUB SWAP1 LOG1 JUMPDEST POP JUMPDEST POP JUMPDEST PUSH2 0x10B3 DUP3 PUSH2 0x2665 JUMP JUMPDEST PUSH32 0xEAB289761059C96752AF5F89D5FAE009FAD63B60A50A884C5CE5936384B16EE6 PUSH2 0x10E4 DUP4 DUP13 PUSH4 0xFFFFFFFF PUSH2 0x1119 AND JUMP JUMPDEST PUSH1 0x40 MLOAD PUSH2 0x10F1 SWAP2 SWAP1 PUSH2 0x2C3F JUMP JUMPDEST PUSH1 0x40 MLOAD DUP1 SWAP2 SUB SWAP1 LOG1 PUSH2 0x1109 DUP3 DUP12 PUSH4 0xFFFFFFFF PUSH2 0x1119 AND JUMP JUMPDEST SWAP13 SWAP12 POP POP POP POP POP POP POP POP POP POP POP POP JUMP JUMPDEST PUSH1 0x0 DUP1 PUSH2 0x1145 PUSH16 0x80000000000000000000000000000000 PUSH2 0xC60 PUSH2 0x113C DUP8 PUSH2 0x14B0 JUMP JUMPDEST PUSH2 0xC60 DUP8 PUSH2 0x14B0 JUMP JUMPDEST SWAP1 POP PUSH1 0x0 PUSH2 0x115E PUSH2 0x1155 DUP7 PUSH2 0x26AA JUMP JUMPDEST PUSH2 0xC60 DUP7 PUSH2 0x14B0 JUMP JUMPDEST SWAP1 POP PUSH1 0x0 PUSH2 0x1177 PUSH2 0x116E DUP8 PUSH2 0x14B0 JUMP JUMPDEST PUSH2 0xC60 DUP8 PUSH2 0x26AA JUMP JUMPDEST SWAP1 POP PUSH1 0x0 PUSH2 0x11A9 PUSH2 0x1193 PUSH2 0x118A DUP10 PUSH2 0x26AA JUMP JUMPDEST PUSH2 0xC60 DUP10 PUSH2 0x26AA JUMP JUMPDEST PUSH16 0x80000000000000000000000000000000 PUSH2 0x136B JUMP JUMPDEST SWAP1 POP PUSH2 0x11C7 PUSH2 0x11C1 PUSH2 0x11BB DUP7 DUP7 PUSH2 0x143A JUMP JUMPDEST DUP5 PUSH2 0x143A JUMP JUMPDEST DUP3 PUSH2 0x143A JUMP JUMPDEST SWAP8 SWAP7 POP POP POP POP POP POP POP JUMP JUMPDEST PUSH1 0x0 PUSH2 0xB5F DUP4 DUP4 PUSH2 0x143A JUMP JUMPDEST NUMBER SWAP1 JUMP JUMPDEST PUSH1 0x0 DUP1 PUSH2 0x11F0 DUP8 DUP8 SUB PUSH2 0x26E7 JUMP JUMPDEST SWAP1 POP PUSH1 0x0 PUSH2 0x1210 PUSH2 0xD04 PUSH2 0x1203 DUP9 PUSH2 0x14C6 JUMP JUMPDEST DUP5 SWAP1 PUSH4 0xFFFFFFFF PUSH2 0x1119 AND JUMP JUMPDEST SWAP1 POP PUSH1 0x0 PUSH2 0x1220 DUP3 PUSH2 0x565 PUSH2 0xB85 JUMP JUMPDEST SWAP1 POP PUSH1 0x0 PUSH2 0x1234 DUP8 DUP4 PUSH4 0xFFFFFFFF PUSH2 0x1119 AND JUMP JUMPDEST SWAP1 POP PUSH1 0x0 PUSH2 0x1248 DUP8 DUP6 PUSH4 0xFFFFFFFF PUSH2 0x1119 AND JUMP JUMPDEST SWAP1 POP PUSH1 0x0 PUSH2 0x1274 PUSH2 0x125F DUP6 DUP11 PUSH4 0xFFFFFFFF PUSH2 0x1119 AND JUMP JUMPDEST PUSH2 0x126F DUP8 DUP13 PUSH4 0xFFFFFFFF PUSH2 0x1119 AND JUMP JUMPDEST PUSH2 0x11D2 JUMP JUMPDEST SWAP1 POP PUSH1 0x0 PUSH2 0x128C DUP3 PUSH2 0x784 DUP13 DUP13 PUSH4 0xFFFFFFFF PUSH2 0x1119 AND JUMP JUMPDEST SWAP1 POP PUSH1 0x0 PUSH2 0x12B1 PUSH2 0x129D PUSH1 0x2 PUSH2 0x273D JUMP JUMPDEST PUSH2 0x784 DUP5 PUSH2 0xD78 DUP10 DUP10 PUSH4 0xFFFFFFFF PUSH2 0x11D2 AND JUMP JUMPDEST SWAP15 SWAP14 POP POP POP POP POP POP POP POP POP POP POP POP POP POP JUMP JUMPDEST PUSH1 0x60 DUP2 ADD MLOAD PUSH1 0x3 SSTORE PUSH1 0x80 DUP2 ADD MLOAD PUSH1 0x4 SSTORE PUSH1 0xC0 DUP2 ADD MLOAD PUSH1 0x6 SSTORE PUSH2 0x140 ADD MLOAD PUSH1 0xA SSTORE JUMP JUMPDEST PUSH1 0x0 PUSH2 0xB5F DUP3 PUSH1 0xA EXP DUP5 MUL PUSH2 0x14B0 JUMP JUMPDEST PUSH1 0x0 DUP3 ISZERO DUP1 PUSH2 0x1302 JUMPI POP DUP2 ISZERO JUMPDEST ISZERO PUSH2 0x130F JUMPI POP PUSH1 0x0 PUSH2 0xC11 JUMP JUMPDEST POP DUP2 DUP2 MUL DUP2 DUP4 DUP3 DUP2 PUSH2 0x131D JUMPI INVALID JUMPDEST SDIV EQ ISZERO DUP1 PUSH2 0x1334 JUMPI POP DUP3 DUP3 DUP3 DUP2 PUSH2 0x1330 JUMPI INVALID JUMPDEST SDIV EQ ISZERO JUMPDEST ISZERO PUSH2 0xC11 JUMPI PUSH1 0x40 MLOAD PUSH32 0x8C379A000000000000000000000000000000000000000000000000000000000 DUP2 MSTORE PUSH1 0x4 ADD PUSH2 0x2EA SWAP1 PUSH2 0x2FAC JUMP JUMPDEST PUSH1 0x0 DUP2 PUSH2 0x13A4 JUMPI PUSH1 0x40 MLOAD PUSH32 0x8C379A000000000000000000000000000000000000000000000000000000000 DUP2 MSTORE PUSH1 0x4 ADD PUSH2 0x2EA SWAP1 PUSH2 0x316B JUMP JUMPDEST PUSH32 0x8000000000000000000000000000000000000000000000000000000000000000 DUP4 EQ DUP1 ISZERO PUSH2 0x13F2 JUMPI POP DUP2 PUSH32 0xFFFFFFFFFFFFFFFFFFFFFFFFFFFFFFFFFFFFFFFFFFFFFFFFFFFFFFFFFFFFFFFF EQ JUMPDEST ISZERO PUSH2 0x1429 JUMPI PUSH1 0x40 MLOAD PUSH32 0x8C379A000000000000000000000000000000000000000000000000000000000 DUP2 MSTORE PUSH1 0x4 ADD PUSH2 0x2EA SWAP1 PUSH2 0x31A2 JUMP JUMPDEST DUP2 DUP4 DUP2 PUSH2 0x1432 JUMPI INVALID JUMPDEST SDIV SWAP4 SWAP3 POP POP POP JUMP JUMPDEST DUP2 DUP2 ADD PUSH1 0x0 DUP4 SLT DUP1 ISZERO PUSH2 0x144D JUMPI POP PUSH1 0x0 DUP3 SLT JUMPDEST DUP1 ISZERO PUSH2 0x1458 JUMPI POP DUP3 DUP2 SGT JUMPDEST DUP1 PUSH2 0x1479 JUMPI POP PUSH1 0x0 DUP4 SGT DUP1 ISZERO PUSH2 0x146E JUMPI POP PUSH1 0x0 DUP3 SGT JUMPDEST DUP1 ISZERO PUSH2 0x1479 JUMPI POP DUP3 DUP2 SLT JUMPDEST ISZERO PUSH2 0xC11 JUMPI PUSH1 0x40 MLOAD PUSH32 0x8C379A000000000000000000000000000000000000000000000000000000000 DUP2 MSTORE PUSH1 0x4 ADD PUSH2 0x2EA SWAP1 PUSH2 0x3022 JUMP JUMPDEST PUSH16 0x80000000000000000000000000000000 SWAP1 SDIV SWAP1 JUMP JUMPDEST PUSH1 0x0 PUSH16 0x80000000000000000000000000000000 DUP3 SGT ISZERO PUSH2 0x1512 JUMPI PUSH1 0x40 MLOAD PUSH32 0x8C379A000000000000000000000000000000000000000000000000000000000 DUP2 MSTORE PUSH1 0x4 ADD PUSH2 0x2EA SWAP1 PUSH2 0x2CDB JUMP JUMPDEST PUSH1 0x0 DUP3 SGT PUSH2 0x154C JUMPI PUSH1 0x40 MLOAD PUSH32 0x8C379A000000000000000000000000000000000000000000000000000000000 DUP2 MSTORE PUSH1 0x4 ADD PUSH2 0x2EA SWAP1 PUSH2 0x2B63 JUMP JUMPDEST PUSH16 0x80000000000000000000000000000000 DUP3 EQ ISZERO PUSH2 0x156C JUMPI POP PUSH1 0x0 PUSH2 0x669 JUMP JUMPDEST PUSH5 0x733048C5A DUP3 SGT PUSH2 0x159F JUMPI POP PUSH32 0xFFFFFFFFFFFFFFFFFFFFFFFFFFFFFFE010000000000000000000000000000000 PUSH2 0x669 JUMP JUMPDEST PUSH1 0x0 DUP1 PUSH1 0x0 PUSH11 0x1C8464F76164760000000 DUP6 SGT PUSH2 0x15FE JUMPI PUSH32 0xFFFFFFFFFFFFFFFFFFFFFFFFFFFFFFF000000000000000000000000000000000 SWAP1 SWAP4 ADD SWAP3 PUSH11 0x1C8464F76164760000000 PUSH16 0x80000000000000000000000000000000 DUP7 MUL SDIV SWAP5 POP JUMPDEST PUSH13 0xF1AADDD7742E90000000000000 DUP6 SGT PUSH2 0x165C JUMPI PUSH32 0xFFFFFFFFFFFFFFFFFFFFFFFFFFFFFFF800000000000000000000000000000000 SWAP1 SWAP4 ADD SWAP3 PUSH13 0xF1AADDD7742E90000000000000 PUSH16 0x80000000000000000000000000000000 DUP7 MUL SDIV SWAP5 POP JUMPDEST PUSH15 0xAFE10820813D78000000000000000 DUP6 SGT PUSH2 0x16BE JUMPI PUSH32 0xFFFFFFFFFFFFFFFFFFFFFFFFFFFFFFFC00000000000000000000000000000000 SWAP1 SWAP4 ADD SWAP3 PUSH15 0xAFE10820813D78000000000000000 PUSH16 0x80000000000000000000000000000000 DUP7 MUL SDIV SWAP5 POP JUMPDEST PUSH16 0x2582AB704279EC00000000000000000 DUP6 SGT PUSH2 0x1722 JUMPI PUSH32 0xFFFFFFFFFFFFFFFFFFFFFFFFFFFFFFFE00000000000000000000000000000000 SWAP1 SWAP4 ADD SWAP3 PUSH16 0x2582AB704279EC00000000000000000 PUSH16 0x80000000000000000000000000000000 DUP7 MUL SDIV SWAP5 POP JUMPDEST PUSH16 0x1152AAA3BF81CC000000000000000000 DUP6 SGT PUSH2 0x1786 JUMPI PUSH32 0xFFFFFFFFFFFFFFFFFFFFFFFFFFFFFFFF00000000000000000000000000000000 SWAP1 SWAP4 ADD SWAP3 PUSH16 0x1152AAA3BF81CC000000000000000000 PUSH16 0x80000000000000000000000000000000 DUP7 MUL SDIV SWAP5 POP JUMPDEST PUSH16 0x2F16AC6C59DE70000000000000000000 DUP6 SGT PUSH2 0x17EA JUMPI PUSH32 0xFFFFFFFFFFFFFFFFFFFFFFFFFFFFFFFF80000000000000000000000000000000 SWAP1 SWAP4 ADD SWAP3 PUSH16 0x2F16AC6C59DE70000000000000000000 PUSH16 0x80000000000000000000000000000000 DUP7 MUL SDIV SWAP5 POP JUMPDEST PUSH16 0x4DA2CBF1BE5828000000000000000000 DUP6 SGT PUSH2 0x184E JUMPI PUSH32 0xFFFFFFFFFFFFFFFFFFFFFFFFFFFFFFFFC0000000000000000000000000000000 SWAP1 SWAP4 ADD SWAP3 PUSH16 0x4DA2CBF1BE5828000000000000000000 PUSH16 0x80000000000000000000000000000000 DUP7 MUL SDIV SWAP5 POP JUMPDEST PUSH16 0x63AFBE7AB2082C000000000000000000 DUP6 SGT PUSH2 0x18B2 JUMPI PUSH32 0xFFFFFFFFFFFFFFFFFFFFFFFFFFFFFFFFE0000000000000000000000000000000 SWAP1 SWAP4 ADD SWAP3 PUSH16 0x63AFBE7AB2082C000000000000000000 PUSH16 0x80000000000000000000000000000000 DUP7 MUL SDIV SWAP5 POP JUMPDEST PUSH16 0x70F5A893B608861E1F58934F97AEA57D DUP6 SGT PUSH2 0x1916 JUMPI PUSH32 0xFFFFFFFFFFFFFFFFFFFFFFFFFFFFFFFFF0000000000000000000000000000000 SWAP1 SWAP4 ADD SWAP3 PUSH16 0x70F5A893B608861E1F58934F97AEA57D PUSH16 0x80000000000000000000000000000000 DUP7 MUL SDIV SWAP5 POP JUMPDEST PUSH32 0xFFFFFFFFFFFFFFFFFFFFFFFFFFFFFFFF80000000000000000000000000000000 DUP6 ADD SWAP3 POP DUP3 SWAP2 POP PUSH16 0x80000000000000000000000000000000 DUP3 DUP1 MUL SDIV SWAP1 POP PUSH17 0x100000000000000000000000000000000 DUP4 DUP2 SUB DUP4 MUL SDIV DUP5 ADD SWAP4 POP PUSH16 0x80000000000000000000000000000000 DUP2 DUP4 MUL DUP2 PUSH2 0x198C JUMPI INVALID JUMPDEST SDIV SWAP2 POP PUSH17 0x200000000000000000000000000000000 DUP4 PUSH16 0xAAAAAAAAAAAAAAAAAAAAAAAAAAAAAAAA SUB DUP4 MUL DUP2 PUSH2 0x19BD JUMPI INVALID JUMPDEST SDIV DUP5 ADD SWAP4 POP PUSH16 0x80000000000000000000000000000000 DUP2 DUP4 MUL DUP2 PUSH2 0x19DD JUMPI INVALID JUMPDEST SDIV SWAP2 POP PUSH17 0x300000000000000000000000000000000 DUP4 PUSH16 0x99999999999999999999999999999999 SUB DUP4 MUL DUP2 PUSH2 0x1A0E JUMPI INVALID JUMPDEST SDIV DUP5 ADD SWAP4 POP PUSH16 0x80000000000000000000000000000000 DUP2 DUP4 MUL DUP2 PUSH2 0x1A2E JUMPI INVALID JUMPDEST SDIV SWAP2 POP PUSH17 0x400000000000000000000000000000000 DUP4 PUSH16 0x92492492492492492492492492492492 SUB DUP4 MUL DUP2 PUSH2 0x1A5F JUMPI INVALID JUMPDEST SDIV DUP5 ADD SWAP4 POP PUSH16 0x80000000000000000000000000000000 DUP2 DUP4 MUL DUP2 PUSH2 0x1A7F JUMPI INVALID JUMPDEST SDIV SWAP2 POP PUSH17 0x500000000000000000000000000000000 DUP4 PUSH16 0x8E38E38E38E38E38E38E38E38E38E38E SUB DUP4 MUL DUP2 PUSH2 0x1AB0 JUMPI INVALID JUMPDEST SDIV DUP5 ADD SWAP4 POP PUSH16 0x80000000000000000000000000000000 DUP2 DUP4 MUL DUP2 PUSH2 0x1AD0 JUMPI INVALID JUMPDEST SDIV SWAP2 POP PUSH17 0x600000000000000000000000000000000 DUP4 PUSH16 0x8BA2E8BA2E8BA2E8BA2E8BA2E8BA2E8B SUB DUP4 MUL DUP2 PUSH2 0x1B01 JUMPI INVALID JUMPDEST SDIV DUP5 ADD SWAP4 POP PUSH16 0x80000000000000000000000000000000 DUP2 DUP4 MUL DUP2 PUSH2 0x1B21 JUMPI INVALID JUMPDEST SDIV SWAP2 POP PUSH17 0x700000000000000000000000000000000 DUP4 PUSH16 0x89D89D89D89D89D89D89D89D89D89D89 SUB DUP4 MUL DUP2 PUSH2 0x1B52 JUMPI INVALID JUMPDEST SDIV DUP5 ADD SWAP4 POP PUSH16 0x80000000000000000000000000000000 DUP2 DUP4 MUL DUP2 PUSH2 0x1B72 JUMPI INVALID JUMPDEST SDIV SWAP2 POP PUSH17 0x800000000000000000000000000000000 DUP4 PUSH16 0x88888888888888888888888888888888 SUB DUP4 MUL DUP2 PUSH2 0x1BA3 JUMPI INVALID JUMPDEST SDIV DUP5 ADD SWAP4 POP POP POP POP SWAP2 SWAP1 POP JUMP JUMPDEST PUSH1 0x0 PUSH32 0xFFFFFFFFFFFFFFFFFFFFFFFFFFFFFFE010000000000000000000000000000000 DUP3 SLT ISZERO PUSH2 0x1BE2 JUMPI POP PUSH1 0x0 PUSH2 0x669 JUMP JUMPDEST DUP2 PUSH2 0x1BFE JUMPI POP PUSH16 0x80000000000000000000000000000000 PUSH2 0x669 JUMP JUMPDEST PUSH1 0x0 DUP3 SGT ISZERO PUSH2 0x1C39 JUMPI PUSH1 0x40 MLOAD PUSH32 0x8C379A000000000000000000000000000000000000000000000000000000000 DUP2 MSTORE PUSH1 0x4 ADD PUSH2 0x2EA SWAP1 PUSH2 0x2DA6 JUMP JUMPDEST PUSH16 0x80000000000000000000000000000000 PUSH16 0x10000000000000000000000000000000 DUP4 SMOD DUP1 DUP1 MUL DUP3 SWAP1 SDIV PUSH8 0x10E1B3BE415A0000 DUP2 MUL SWAP4 SWAP1 SWAP4 ADD SWAP3 SWAP1 SWAP2 DUP2 DUP4 MUL SDIV SWAP1 POP DUP1 PUSH8 0x5A0913F6B1E0000 MUL DUP4 ADD SWAP3 POP PUSH16 0x80000000000000000000000000000000 DUP3 DUP3 MUL DUP2 PUSH2 0x1CA5 JUMPI INVALID JUMPDEST SDIV SWAP1 POP DUP1 PUSH8 0x168244FDAC78000 MUL DUP4 ADD SWAP3 POP PUSH16 0x80000000000000000000000000000000 DUP3 DUP3 MUL DUP2 PUSH2 0x1CD2 JUMPI INVALID JUMPDEST SDIV SWAP1 POP DUP1 PUSH7 0x4807432BC18000 MUL DUP4 ADD SWAP3 POP PUSH16 0x80000000000000000000000000000000 DUP3 DUP3 MUL DUP2 PUSH2 0x1CFE JUMPI INVALID JUMPDEST SDIV SWAP1 POP DUP1 PUSH7 0xC0135DCA04000 MUL DUP4 ADD SWAP3 POP PUSH16 0x80000000000000000000000000000000 DUP3 DUP3 MUL DUP2 PUSH2 0x1D2A JUMPI INVALID JUMPDEST SDIV SWAP1 POP DUP1 PUSH7 0x1B707B1CDC000 MUL DUP4 ADD SWAP3 POP PUSH16 0x80000000000000000000000000000000 DUP3 DUP3 MUL DUP2 PUSH2 0x1D56 JUMPI INVALID JUMPDEST SDIV SWAP1 POP DUP1 PUSH6 0x36E0F639B800 MUL DUP4 ADD SWAP3 POP PUSH16 0x80000000000000000000000000000000 DUP3 DUP3 MUL DUP2 PUSH2 0x1D81 JUMPI INVALID JUMPDEST SDIV SWAP1 POP DUP1 PUSH6 0x618FEE9F800 MUL DUP4 ADD SWAP3 POP PUSH16 0x80000000000000000000000000000000 DUP3 DUP3 MUL DUP2 PUSH2 0x1DAC JUMPI INVALID JUMPDEST SDIV SWAP1 POP DUP1 PUSH5 0x9C197DCC00 MUL DUP4 ADD SWAP3 POP PUSH16 0x80000000000000000000000000000000 DUP3 DUP3 MUL DUP2 PUSH2 0x1DD6 JUMPI INVALID JUMPDEST SDIV SWAP1 POP DUP1 PUSH5 0xE30DCE400 MUL DUP4 ADD SWAP3 POP PUSH16 0x80000000000000000000000000000000 DUP3 DUP3 MUL DUP2 PUSH2 0x1E00 JUMPI INVALID JUMPDEST SDIV SWAP1 POP DUP1 PUSH5 0x12EBD1300 MUL DUP4 ADD SWAP3 POP PUSH16 0x80000000000000000000000000000000 DUP3 DUP3 MUL DUP2 PUSH2 0x1E2A JUMPI INVALID JUMPDEST SDIV SWAP1 POP DUP1 PUSH4 0x17499F00 MUL DUP4 ADD SWAP3 POP PUSH16 0x80000000000000000000000000000000 DUP3 DUP3 MUL DUP2 PUSH2 0x1E53 JUMPI INVALID JUMPDEST SDIV SWAP1 POP DUP1 PUSH4 0x1A9D480 MUL DUP4 ADD SWAP3 POP PUSH16 0x80000000000000000000000000000000 DUP3 DUP3 MUL DUP2 PUSH2 0x1E7C JUMPI INVALID JUMPDEST SDIV SWAP1 POP DUP1 PUSH3 0x1C6380 MUL DUP4 ADD SWAP3 POP PUSH16 0x80000000000000000000000000000000 DUP3 DUP3 MUL DUP2 PUSH2 0x1EA4 JUMPI INVALID JUMPDEST SDIV SWAP1 POP DUP1 PUSH3 0x1C638 MUL DUP4 ADD SWAP3 POP PUSH16 0x80000000000000000000000000000000 DUP3 DUP3 MUL DUP2 PUSH2 0x1ECC JUMPI INVALID JUMPDEST SDIV SWAP1 POP DUP1 PUSH2 0x1AB8 MUL DUP4 ADD SWAP3 POP PUSH16 0x80000000000000000000000000000000 DUP3 DUP3 MUL DUP2 PUSH2 0x1EF3 JUMPI INVALID JUMPDEST SDIV SWAP1 POP DUP1 PUSH2 0x17C MUL DUP4 ADD SWAP3 POP PUSH16 0x80000000000000000000000000000000 DUP3 DUP3 MUL DUP2 PUSH2 0x1F1A JUMPI INVALID JUMPDEST SDIV SWAP1 POP DUP1 PUSH1 0x14 MUL DUP4 ADD SWAP3 POP PUSH16 0x80000000000000000000000000000000 DUP3 DUP3 MUL DUP2 PUSH2 0x1F40 JUMPI INVALID JUMPDEST PUSH1 0x0 SWAP6 SWAP1 SWAP6 SUB SWAP5 PUSH8 0x21C3677C82B40000 SWAP2 SWAP1 SDIV SWAP4 DUP5 ADD SDIV DUP3 ADD PUSH16 0x80000000000000000000000000000000 ADD SWAP3 SWAP1 POP PUSH17 0x1000000000000000000000000000000000 DUP5 AND ISZERO PUSH2 0x1FAF JUMPI PUSH19 0x43CBAF42A000812488FC5C220AD7B97BF6E99E PUSH13 0xF1AADDD7742E56D32FB9F99744 DUP5 MUL SDIV SWAP3 POP JUMPDEST PUSH17 0x800000000000000000000000000000000 DUP5 AND ISZERO PUSH2 0x1FF1 JUMPI PUSH18 0x5D27A9F51C31B7C2F8038212A0574779991 PUSH15 0xAFE10820813D65DFE6A33C07F738F DUP5 MUL SDIV SWAP3 POP JUMPDEST PUSH17 0x400000000000000000000000000000000 DUP5 AND ISZERO PUSH2 0x2033 JUMPI PUSH17 0x1B4C902E273A58678D6D3BFDB93DB96D02 PUSH16 0x2582AB704279E8EFD15E0265855C47A DUP5 MUL SDIV SWAP3 POP JUMPDEST PUSH17 0x200000000000000000000000000000000 DUP5 AND ISZERO PUSH2 0x2075 JUMPI PUSH17 0x3B1CC971A9BB5B9867477440D6D157750 PUSH16 0x1152AAA3BF81CB9FDB76EAE12D029571 DUP5 MUL SDIV SWAP3 POP JUMPDEST PUSH17 0x100000000000000000000000000000000 DUP5 AND ISZERO PUSH2 0x20B7 JUMPI PUSH17 0x15BF0A8B1457695355FB8AC404E7A79E3 PUSH16 0x2F16AC6C59DE6F8D5D6F63C1482A7C86 DUP5 MUL SDIV SWAP3 POP JUMPDEST PUSH16 0x80000000000000000000000000000000 DUP5 AND ISZERO PUSH2 0x20F7 JUMPI PUSH16 0xD3094C70F034DE4B96FF7D5B6F99FCD8 PUSH16 0x4DA2CBF1BE5827F9EB3AD1AA9866EBB3 DUP5 MUL SDIV SWAP3 POP JUMPDEST PUSH16 0x40000000000000000000000000000000 DUP5 AND ISZERO PUSH2 0x2137 JUMPI PUSH16 0xA45AF1E1F40C333B3DE1DB4DD55F29A7 PUSH16 0x63AFBE7AB2082BA1A0AE5E4EB1B479DC DUP5 MUL SDIV SWAP3 POP JUMPDEST PUSH16 0x20000000000000000000000000000000 DUP5 AND ISZERO PUSH2 0x2177 JUMPI PUSH16 0x910B022DB7AE67CE76B441C27035C6A1 PUSH16 0x70F5A893B608861E1F58934F97AEA57D DUP5 MUL SDIV SWAP3 POP JUMPDEST PUSH16 0x10000000000000000000000000000000 DUP5 AND ISZERO PUSH2 0x21B7 JUMPI PUSH16 0x88415ABBE9A76BEAD8D00CF112E4D4A8 PUSH16 0x783EAFEF1C0A8F3978C7F81824D62EBF DUP5 MUL SDIV SWAP3 POP JUMPDEST POP POP SWAP2 SWAP1 POP JUMP JUMPDEST PUSH1 0x0 DUP1 PUSH2 0x21CB PUSH1 0x2 PUSH2 0x273D JUMP JUMPDEST SWAP1 POP PUSH1 0x0 PUSH2 0x220A PUSH2 0x21EA DUP10 DUP7 PUSH2 0x100 ADD MLOAD PUSH2 0x1119 SWAP1 SWAP2 SWAP1 PUSH4 0xFFFFFFFF AND JUMP JUMPDEST PUSH2 0x565 DUP10 PUSH2 0x852 DUP14 PUSH2 0x852 DUP11 PUSH2 0x100 ADD MLOAD DUP10 PUSH2 0xB99 SWAP1 SWAP2 SWAP1 PUSH4 0xFFFFFFFF AND JUMP JUMPDEST SWAP1 POP PUSH1 0x0 PUSH2 0x2230 PUSH2 0x2227 DUP11 PUSH2 0x852 DUP14 PUSH2 0x852 DUP14 PUSH2 0x852 PUSH1 0x4 PUSH2 0x273D JUMP JUMPDEST PUSH2 0xD78 DUP5 PUSH2 0x2759 JUMP JUMPDEST SWAP1 POP PUSH1 0x0 PUSH2 0x224C DUP5 PUSH2 0x784 PUSH2 0x2247 DUP6 PUSH2 0x784 PUSH2 0xB85 JUMP JUMPDEST PUSH2 0x14C6 JUMP JUMPDEST PUSH1 0x0 SUB SWAP1 POP PUSH1 0x0 DUP1 DUP3 SGT ISZERO PUSH2 0x226F JUMPI PUSH2 0x226A PUSH2 0xD23 DUP4 PUSH1 0x0 SUB PUSH2 0x1BB0 JUMP JUMPDEST PUSH2 0x2278 JUMP JUMPDEST PUSH2 0x2278 DUP3 PUSH2 0x1BB0 JUMP JUMPDEST SWAP1 POP PUSH1 0x0 PUSH2 0x22A3 PUSH2 0x228F DUP8 DUP14 PUSH4 0xFFFFFFFF PUSH2 0x1119 AND JUMP JUMPDEST PUSH2 0x784 PUSH1 0x0 DUP9 SWAP1 SUB DUP6 PUSH4 0xFFFFFFFF PUSH2 0x11D2 AND JUMP JUMPDEST SWAP1 POP PUSH1 0x0 PUSH2 0x12B1 DUP11 DUP4 PUSH2 0x2765 JUMP JUMPDEST PUSH1 0x0 DUP1 PUSH2 0x22E4 PUSH2 0x22D7 PUSH2 0x22CA DUP7 DUP11 PUSH4 0xFFFFFFFF PUSH2 0x1119 AND JUMP JUMPDEST DUP11 SWAP1 PUSH4 0xFFFFFFFF PUSH2 0xB99 AND JUMP JUMPDEST DUP11 SWAP1 PUSH4 0xFFFFFFFF PUSH2 0x1119 AND JUMP JUMPDEST SWAP1 POP PUSH1 0x0 PUSH2 0x22FB PUSH2 0x22D7 DUP12 DUP8 PUSH4 0xFFFFFFFF PUSH2 0x11D2 AND JUMP JUMPDEST SWAP1 POP PUSH1 0x0 PUSH2 0x2312 PUSH2 0x2247 DUP5 DUP5 PUSH4 0xFFFFFFFF PUSH2 0xC17 AND JUMP JUMPDEST SWAP1 POP PUSH1 0x0 PUSH2 0x232B DUP3 PUSH2 0x852 DUP9 PUSH2 0x100 ADD MLOAD PUSH2 0x565 PUSH2 0xB85 JUMP JUMPDEST SWAP1 POP PUSH1 0x0 PUSH2 0x2340 DUP10 PUSH2 0x784 DUP11 PUSH2 0x852 DUP7 PUSH2 0x1BB0 JUMP JUMPDEST SWAP14 SWAP13 POP POP POP POP POP POP POP POP POP POP POP POP POP JUMP JUMPDEST PUSH1 0x0 DUP1 PUSH2 0x2364 DUP5 DUP7 PUSH4 0xFFFFFFFF PUSH2 0xC17 AND JUMP JUMPDEST SWAP1 POP PUSH1 0x0 PUSH2 0x2392 PUSH2 0x2380 DUP7 PUSH2 0x852 DUP8 PUSH2 0x100 ADD MLOAD PUSH2 0x565 PUSH2 0xB85 JUMP JUMPDEST PUSH2 0x100 DUP7 ADD MLOAD SWAP1 PUSH4 0xFFFFFFFF PUSH2 0x11D2 AND JUMP JUMPDEST SWAP1 POP PUSH1 0x0 PUSH2 0x23B6 PUSH2 0x23AE DUP9 PUSH2 0x852 DUP9 PUSH2 0x100 ADD MLOAD PUSH2 0x565 PUSH2 0xB85 JUMP JUMPDEST PUSH2 0xD78 PUSH2 0xB85 JUMP JUMPDEST SWAP1 POP PUSH1 0x0 PUSH2 0x23CA DUP4 DUP4 PUSH4 0xFFFFFFFF PUSH2 0xC17 AND JUMP JUMPDEST SWAP1 POP DUP1 DUP5 SLT PUSH2 0x23D9 JUMPI DUP1 PUSH2 0x2340 JUMP JUMPDEST POP SWAP2 SWAP12 SWAP11 POP POP POP POP POP POP POP POP POP POP POP JUMP JUMPDEST PUSH1 0x0 DUP1 PUSH2 0x23FD DUP5 DUP7 PUSH4 0xFFFFFFFF PUSH2 0xB99 AND JUMP JUMPDEST SWAP1 POP PUSH1 0x0 PUSH2 0x240D PUSH1 0x1 PUSH1 0xA PUSH2 0xB66 JUMP JUMPDEST SWAP1 POP PUSH1 0x0 PUSH2 0x243D PUSH2 0x2430 PUSH2 0x2423 DUP9 PUSH2 0x565 PUSH2 0xB85 JUMP JUMPDEST DUP8 SWAP1 PUSH4 0xFFFFFFFF PUSH2 0x11D2 AND JUMP JUMPDEST DUP4 SWAP1 PUSH4 0xFFFFFFFF PUSH2 0x1119 AND JUMP JUMPDEST SWAP1 POP PUSH32 0x34AE76BC42B30CB0F8B76BFDDC91A95EFE45ED0B3C7419EFCCCE432DE252A822 DUP4 DUP3 PUSH1 0x40 MLOAD PUSH2 0x2470 SWAP3 SWAP2 SWAP1 PUSH2 0x2B16 JUMP JUMPDEST PUSH1 0x40 MLOAD DUP1 SWAP2 SUB SWAP1 LOG1 SWAP1 SWAP2 SGT SWAP6 SWAP5 POP POP POP POP POP JUMP JUMPDEST PUSH1 0x0 DUP1 PUSH2 0x2496 DUP8 DUP5 PUSH2 0x100 ADD MLOAD PUSH2 0x277C JUMP JUMPDEST SWAP1 POP PUSH1 0x0 PUSH2 0x24C8 PUSH2 0x24B2 DUP7 PUSH2 0x852 DUP8 PUSH2 0x100 ADD MLOAD PUSH2 0x565 PUSH2 0xB85 JUMP JUMPDEST PUSH2 0x100 DUP7 ADD MLOAD PUSH2 0xD78 SWAP1 DUP6 PUSH4 0xFFFFFFFF PUSH2 0x1119 AND JUMP JUMPDEST SWAP1 POP PUSH1 0x0 PUSH2 0x24F5 PUSH2 0x24E8 DUP11 PUSH2 0x852 DUP11 PUSH2 0x852 DUP11 PUSH2 0x100 ADD MLOAD PUSH2 0x565 PUSH2 0xB85 JUMP JUMPDEST DUP5 SWAP1 PUSH4 0xFFFFFFFF PUSH2 0x11D2 AND JUMP JUMPDEST SWAP1 POP PUSH1 0x0 PUSH2 0x250D DUP3 PUSH2 0x784 DUP13 DUP7 PUSH4 0xFFFFFFFF PUSH2 0x1119 AND JUMP JUMPDEST SWAP1 POP DUP9 DUP2 SLT PUSH2 0x251C JUMPI DUP9 PUSH2 0x251E JUMP JUMPDEST DUP1 JUMPDEST SWAP5 POP POP POP POP SWAP6 POP SWAP6 SWAP4 POP POP POP POP JUMP JUMPDEST PUSH1 0x0 DUP1 PUSH1 0x0 DUP1 PUSH1 0x0 PUSH2 0x253F DUP12 DUP12 PUSH2 0x27B9 JUMP JUMPDEST SWAP1 POP PUSH1 0x0 PUSH2 0x2552 DUP3 DUP9 PUSH2 0x100 ADD MLOAD PUSH2 0x277C JUMP JUMPDEST SWAP1 POP PUSH1 0x0 PUSH2 0x2576 PUSH2 0x2569 DUP13 DUP6 PUSH4 0xFFFFFFFF PUSH2 0x1119 AND JUMP JUMPDEST DUP12 SWAP1 PUSH4 0xFFFFFFFF PUSH2 0xB99 AND JUMP JUMPDEST SWAP1 POP DUP1 DUP3 SGT PUSH2 0x259B JUMPI DUP3 DUP13 DUP4 PUSH2 0x258B DUP16 PUSH2 0x27FF JUMP JUMPDEST SWAP7 POP SWAP7 POP SWAP7 POP SWAP7 POP POP POP POP PUSH2 0x25A8 JUMP JUMPDEST POP DUP12 SWAP6 POP SWAP1 SWAP4 POP DUP7 SWAP3 POP SWAP1 POP JUMPDEST SWAP7 POP SWAP7 POP SWAP7 POP SWAP7 SWAP3 POP POP POP JUMP JUMPDEST PUSH1 0x0 DUP1 PUSH2 0x25FE PUSH2 0x25DB PUSH2 0x25CE DUP10 DUP12 PUSH4 0xFFFFFFFF PUSH2 0xB99 AND JUMP JUMPDEST DUP6 SWAP1 PUSH4 0xFFFFFFFF PUSH2 0x1119 AND JUMP JUMPDEST PUSH2 0xD78 PUSH2 0x25EE DUP10 DUP12 PUSH4 0xFFFFFFFF PUSH2 0x1119 AND JUMP JUMPDEST PUSH2 0x565 DUP10 DUP14 PUSH4 0xFFFFFFFF PUSH2 0x1119 AND JUMP JUMPDEST SWAP1 POP PUSH1 0x0 PUSH2 0x2635 PUSH2 0x2625 PUSH2 0x2618 DUP11 DUP13 PUSH4 0xFFFFFFFF PUSH2 0xB99 AND JUMP JUMPDEST DUP8 SWAP1 PUSH4 0xFFFFFFFF PUSH2 0x1119 AND JUMP JUMPDEST PUSH2 0xD78 DUP9 DUP11 PUSH4 0xFFFFFFFF PUSH2 0xB99 AND JUMP JUMPDEST SWAP1 POP PUSH1 0x0 PUSH2 0x2649 DUP4 DUP4 PUSH4 0xFFFFFFFF PUSH2 0xC17 AND JUMP JUMPDEST SWAP1 POP DUP10 DUP2 SGT PUSH2 0x2658 JUMPI DUP10 PUSH2 0xD3E JUMP JUMPDEST SWAP10 SWAP9 POP POP POP POP POP POP POP POP POP JUMP JUMPDEST PUSH2 0x2671 PUSH1 0x5F PUSH1 0x64 PUSH2 0xB66 JUMP JUMPDEST DUP2 SLT ISZERO PUSH2 0x40A JUMPI PUSH1 0x40 MLOAD PUSH32 0x8C379A000000000000000000000000000000000000000000000000000000000 DUP2 MSTORE PUSH1 0x4 ADD PUSH2 0x2EA SWAP1 PUSH2 0x3210 JUMP JUMPDEST PUSH1 0x0 DUP1 DUP3 SGT PUSH2 0x26D1 JUMPI PUSH16 0x7FFFFFFFFFFFFFFFFFFFFFFFFFFFFFFF DUP3 PUSH1 0x0 SUB AND PUSH1 0x0 SUB PUSH2 0x666 JUMP JUMPDEST POP PUSH16 0x7FFFFFFFFFFFFFFFFFFFFFFFFFFFFFFF AND SWAP1 JUMP JUMPDEST PUSH1 0x0 DUP1 DUP3 SLT ISZERO PUSH2 0x2723 JUMPI PUSH1 0x40 MLOAD PUSH32 0x8C379A000000000000000000000000000000000000000000000000000000000 DUP2 MSTORE PUSH1 0x4 ADD PUSH2 0x2EA SWAP1 PUSH2 0x2D49 JUMP JUMPDEST PUSH2 0x666 DUP3 PUSH16 0x80000000000000000000000000000000 PUSH2 0x12F5 JUMP JUMPDEST PUSH1 0x0 PUSH2 0x666 DUP3 PUSH16 0x80000000000000000000000000000000 PUSH2 0x12F5 JUMP JUMPDEST PUSH1 0x0 PUSH2 0x666 DUP3 DUP4 PUSH2 0x1119 JUMP JUMPDEST PUSH1 0x0 DUP2 DUP4 SGT ISZERO PUSH2 0x2775 JUMPI DUP2 PUSH2 0xB5F JUMP JUMPDEST POP SWAP1 SWAP2 SWAP1 POP JUMP JUMPDEST PUSH1 0x0 DUP1 PUSH2 0x278E PUSH2 0xD23 DUP5 PUSH2 0x565 PUSH2 0xB85 JUMP JUMPDEST SWAP1 POP PUSH1 0x0 PUSH2 0x279B DUP6 PUSH2 0x14C6 JUMP JUMPDEST SWAP1 POP PUSH2 0x27B0 PUSH2 0xD04 DUP4 DUP4 PUSH4 0xFFFFFFFF PUSH2 0x1119 AND JUMP JUMPDEST SWAP6 SWAP5 POP POP POP POP POP JUMP JUMPDEST PUSH1 0x0 PUSH2 0xB5F PUSH2 0x27C8 PUSH1 0xA PUSH2 0x273D JUMP JUMPDEST PUSH2 0x784 PUSH2 0x27E5 PUSH2 0x27D8 PUSH1 0x6 PUSH2 0x273D JUMP JUMPDEST DUP7 SWAP1 PUSH4 0xFFFFFFFF PUSH2 0x1119 AND JUMP JUMPDEST PUSH2 0xD78 PUSH2 0x27F2 PUSH1 0x4 PUSH2 0x273D JUMP JUMPDEST DUP9 SWAP1 PUSH4 0xFFFFFFFF PUSH2 0x1119 AND JUMP JUMPDEST PUSH1 0x0 DUP1 PUSH2 0x2812 DUP4 DUP1 PUSH4 0xFFFFFFFF PUSH2 0x1119 AND JUMP JUMPDEST SWAP1 POP PUSH1 0x0 PUSH2 0x2826 DUP5 DUP4 PUSH4 0xFFFFFFFF PUSH2 0x1119 AND JUMP JUMPDEST SWAP1 POP PUSH1 0x0 PUSH2 0x283A DUP3 DUP1 PUSH4 0xFFFFFFFF PUSH2 0x1119 AND JUMP JUMPDEST SWAP1 POP PUSH1 0x0 PUSH2 0x284E DUP3 DUP1 PUSH4 0xFFFFFFFF PUSH2 0x1119 AND JUMP JUMPDEST SWAP1 POP PUSH1 0x0 PUSH2 0x2862 DUP3 DUP1 PUSH4 0xFFFFFFFF PUSH2 0x1119 AND JUMP JUMPDEST SWAP1 POP PUSH1 0x0 PUSH2 0x2876 DUP3 DUP1 PUSH4 0xFFFFFFFF PUSH2 0x1119 AND JUMP JUMPDEST SWAP1 POP PUSH1 0x0 PUSH2 0x288A DUP3 DUP9 PUSH4 0xFFFFFFFF PUSH2 0x1119 AND JUMP JUMPDEST SWAP1 POP PUSH1 0x0 PUSH2 0xD3E DUP3 DUP1 PUSH4 0xFFFFFFFF PUSH2 0x1119 AND JUMP JUMPDEST PUSH1 0x40 MLOAD DUP1 PUSH2 0x1A0 ADD PUSH1 0x40 MSTORE DUP1 PUSH1 0x0 ISZERO ISZERO DUP2 MSTORE PUSH1 0x20 ADD PUSH1 0x0 PUSH20 0xFFFFFFFFFFFFFFFFFFFFFFFFFFFFFFFFFFFFFFFF AND DUP2 MSTORE PUSH1 0x20 ADD PUSH1 0x0 PUSH20 0xFFFFFFFFFFFFFFFFFFFFFFFFFFFFFFFFFFFFFFFF AND DUP2 MSTORE PUSH1 0x20 ADD PUSH1 0x0 DUP2 MSTORE PUSH1 0x20 ADD PUSH1 0x0 DUP2 MSTORE PUSH1 0x20 ADD PUSH1 0x0 DUP2 MSTORE PUSH1 0x20 ADD PUSH1 0x0 DUP2 MSTORE PUSH1 0x20 ADD PUSH1 0x0 DUP2 MSTORE PUSH1 0x20 ADD PUSH1 0x0 DUP2 MSTORE PUSH1 0x20 ADD PUSH1 0x0 DUP2 MSTORE PUSH1 0x20 ADD PUSH1 0x0 DUP2 MSTORE PUSH1 0x20 ADD PUSH1 0x0 DUP2 MSTORE PUSH1 0x20 ADD PUSH1 0x0 DUP2 MSTORE POP SWAP1 JUMP JUMPDEST DUP1 CALLDATALOAD PUSH20 0xFFFFFFFFFFFFFFFFFFFFFFFFFFFFFFFFFFFFFFFF DUP2 AND DUP2 EQ PUSH2 0xC11 JUMPI PUSH1 0x0 DUP1 REVERT JUMPDEST PUSH1 0x0 PUSH1 0x20 DUP3 DUP5 SUB SLT ISZERO PUSH2 0x2969 JUMPI DUP1 DUP2 REVERT JUMPDEST PUSH2 0xB5F DUP4 DUP4 PUSH2 0x2934 JUMP JUMPDEST PUSH1 0x0 DUP1 PUSH1 0x40 DUP4 DUP6 SUB SLT ISZERO PUSH2 0x2985 JUMPI DUP1 DUP2 REVERT JUMPDEST PUSH2 0x298F DUP5 DUP5 PUSH2 0x2934 JUMP JUMPDEST SWAP2 POP PUSH2 0x299E DUP5 PUSH1 0x20 DUP6 ADD PUSH2 0x2934 JUMP JUMPDEST SWAP1 POP SWAP3 POP SWAP3 SWAP1 POP JUMP JUMPDEST PUSH1 0x0 DUP1 PUSH1 0x0 PUSH1 0x60 DUP5 DUP7 SUB SLT ISZERO PUSH2 0x29BB JUMPI DUP1 DUP2 REVERT JUMPDEST DUP4 CALLDATALOAD PUSH2 0x29C6 DUP2 PUSH2 0x32C6 JUMP JUMPDEST SWAP3 POP PUSH1 0x20 DUP5 ADD CALLDATALOAD PUSH2 0x29D6 DUP2 PUSH2 0x32C6 JUMP JUMPDEST SWAP3 SWAP6 SWAP3 SWAP5 POP POP POP PUSH1 0x40 SWAP2 SWAP1 SWAP2 ADD CALLDATALOAD SWAP1 JUMP JUMPDEST PUSH20 0xFFFFFFFFFFFFFFFFFFFFFFFFFFFFFFFFFFFFFFFF SWAP2 SWAP1 SWAP2 AND DUP2 MSTORE PUSH1 0x20 ADD SWAP1 JUMP JUMPDEST PUSH20 0xFFFFFFFFFFFFFFFFFFFFFFFFFFFFFFFFFFFFFFFF SWAP3 DUP4 AND DUP2 MSTORE SWAP2 AND PUSH1 0x20 DUP3 ADD MSTORE PUSH1 0x40 ADD SWAP1 JUMP JUMPDEST PUSH20 0xFFFFFFFFFFFFFFFFFFFFFFFFFFFFFFFFFFFFFFFF SWAP6 DUP7 AND DUP2 MSTORE SWAP4 DUP6 AND PUSH1 0x20 DUP6 ADD MSTORE SWAP2 SWAP1 SWAP4 AND PUSH1 0x40 DUP4 ADD MSTORE PUSH1 0x60 DUP3 ADD SWAP3 SWAP1 SWAP3 MSTORE PUSH1 0x80 DUP2 ADD SWAP2 SWAP1 SWAP2 MSTORE PUSH1 0xA0 ADD SWAP1 JUMP JUMPDEST PUSH20 0xFFFFFFFFFFFFFFFFFFFFFFFFFFFFFFFFFFFFFFFF SWAP4 SWAP1 SWAP4 AND DUP4 MSTORE PUSH1 0x20 DUP4 ADD SWAP2 SWAP1 SWAP2 MSTORE PUSH1 0x40 DUP3 ADD MSTORE PUSH1 0x60 ADD SWAP1 JUMP JUMPDEST SWAP13 ISZERO ISZERO DUP14 MSTORE PUSH20 0xFFFFFFFFFFFFFFFFFFFFFFFFFFFFFFFFFFFFFFFF SWAP12 DUP13 AND PUSH1 0x20 DUP15 ADD MSTORE SWAP10 SWAP1 SWAP11 AND PUSH1 0x40 DUP13 ADD MSTORE PUSH1 0x60 DUP12 ADD SWAP8 SWAP1 SWAP8 MSTORE PUSH1 0x80 DUP11 ADD SWAP6 SWAP1 SWAP6 MSTORE PUSH1 0xA0 DUP10 ADD SWAP4 SWAP1 SWAP4 MSTORE PUSH1 0xC0 DUP9 ADD SWAP2 SWAP1 SWAP2 MSTORE PUSH1 0xE0 DUP8 ADD MSTORE PUSH2 0x100 DUP7 ADD MSTORE PUSH2 0x120 DUP6 ADD MSTORE PUSH2 0x140 DUP5 ADD MSTORE PUSH2 0x160 DUP4 ADD SWAP2 SWAP1 SWAP2 MSTORE PUSH2 0x180 DUP3 ADD MSTORE PUSH2 0x1A0 ADD SWAP1 JUMP JUMPDEST SWAP2 DUP3 MSTORE PUSH1 0x20 DUP3 ADD MSTORE PUSH1 0x40 ADD SWAP1 JUMP JUMPDEST PUSH1 0x40 DUP1 DUP3 MSTORE PUSH1 0x11 SWAP1 DUP3 ADD MSTORE PUSH32 0x64656C7461206166746572207374657030000000000000000000000000000000 PUSH1 0x60 DUP3 ADD MSTORE PUSH1 0x20 DUP2 ADD SWAP2 SWAP1 SWAP2 MSTORE PUSH1 0x80 ADD SWAP1 JUMP JUMPDEST PUSH1 0x20 DUP1 DUP3 MSTORE PUSH1 0x13 SWAP1 DUP3 ADD MSTORE PUSH32 0x6C6E3A2076616C756520746F6F20736D616C6C00000000000000000000000000 PUSH1 0x40 DUP3 ADD MSTORE PUSH1 0x60 ADD SWAP1 JUMP JUMPDEST PUSH1 0x20 DUP1 DUP3 MSTORE PUSH1 0xE SWAP1 DUP3 ADD MSTORE PUSH32 0x4F6E6C794F776E65724572726F72000000000000000000000000000000000000 PUSH1 0x40 DUP3 ADD MSTORE PUSH1 0x60 ADD SWAP1 JUMP JUMPDEST PUSH1 0x20 DUP1 DUP3 MSTORE PUSH1 0x13 SWAP1 DUP3 ADD MSTORE PUSH32 0x416C726561647920496E697469616C697A656400000000000000000000000000 PUSH1 0x40 DUP3 ADD MSTORE PUSH1 0x60 ADD SWAP1 JUMP JUMPDEST PUSH1 0x20 DUP1 DUP3 MSTORE PUSH1 0x17 SWAP1 DUP3 ADD MSTORE PUSH32 0x496E76616C696420746F6B656E20616464726573736573000000000000000000 PUSH1 0x40 DUP3 ADD MSTORE PUSH1 0x60 ADD SWAP1 JUMP JUMPDEST PUSH1 0x40 DUP1 DUP3 MSTORE PUSH1 0xB SWAP1 DUP3 ADD MSTORE PUSH32 0x66696E616C207072696365000000000000000000000000000000000000000000 PUSH1 0x60 DUP3 ADD MSTORE PUSH1 0x20 DUP2 ADD SWAP2 SWAP1 SWAP2 MSTORE PUSH1 0x80 ADD SWAP1 JUMP JUMPDEST PUSH1 0x20 DUP1 DUP3 MSTORE PUSH1 0x38 SWAP1 DUP3 ADD MSTORE PUSH32 0x746F46697865642875696E742C75696E74293A2064656E6F6D696E61746F7220 PUSH1 0x40 DUP3 ADD MSTORE PUSH32 0x63616E6E6F74206265206C657373207468616E207A65726F0000000000000000 PUSH1 0x60 DUP3 ADD MSTORE PUSH1 0x80 ADD SWAP1 JUMP JUMPDEST PUSH1 0x20 DUP1 DUP3 MSTORE PUSH1 0x13 SWAP1 DUP3 ADD MSTORE PUSH32 0x6C6E3A2076616C756520746F6F206C6172676500000000000000000000000000 PUSH1 0x40 DUP3 ADD MSTORE PUSH1 0x60 ADD SWAP1 JUMP JUMPDEST PUSH1 0x20 DUP1 DUP3 MSTORE PUSH1 0x1A SWAP1 DUP3 ADD MSTORE PUSH32 0x547269656420746F20707572636861736520746F6F206D756368000000000000 PUSH1 0x40 DUP3 ADD MSTORE PUSH1 0x60 ADD SWAP1 JUMP JUMPDEST PUSH1 0x20 DUP1 DUP3 MSTORE PUSH1 0x27 SWAP1 DUP3 ADD MSTORE PUSH32 0x746F46697865643A2076616C75652063616E6E6F74206265206C657373207468 PUSH1 0x40 DUP3 ADD MSTORE PUSH32 0x616E207A65726F00000000000000000000000000000000000000000000000000 PUSH1 0x60 DUP3 ADD MSTORE PUSH1 0x80 ADD SWAP1 JUMP JUMPDEST PUSH1 0x20 DUP1 DUP3 MSTORE PUSH1 0x14 SWAP1 DUP3 ADD MSTORE PUSH32 0x6578703A2076616C756520746F6F20736D616C6C000000000000000000000000 PUSH1 0x40 DUP3 ADD MSTORE PUSH1 0x60 ADD SWAP1 JUMP JUMPDEST PUSH1 0x40 DUP1 DUP3 MSTORE PUSH1 0xF SWAP1 DUP3 ADD MSTORE PUSH32 0x7968206166746572207374657020340000000000000000000000000000000000 PUSH1 0x60 DUP3 ADD MSTORE PUSH1 0x20 DUP2 ADD SWAP2 SWAP1 SWAP2 MSTORE PUSH1 0x80 ADD SWAP1 JUMP JUMPDEST PUSH1 0x40 DUP1 DUP3 MSTORE PUSH1 0xF SWAP1 DUP3 ADD MSTORE PUSH32 0x796C206166746572207374657020330000000000000000000000000000000000 PUSH1 0x60 DUP3 ADD MSTORE PUSH1 0x20 DUP2 ADD SWAP2 SWAP1 SWAP2 MSTORE PUSH1 0x80 ADD SWAP1 JUMP JUMPDEST PUSH1 0x40 DUP1 DUP3 MSTORE PUSH1 0xF SWAP1 DUP3 ADD MSTORE PUSH32 0x7268206166746572207374657020320000000000000000000000000000000000 PUSH1 0x60 DUP3 ADD MSTORE PUSH1 0x20 DUP2 ADD SWAP2 SWAP1 SWAP2 MSTORE PUSH1 0x80 ADD SWAP1 JUMP JUMPDEST PUSH1 0x40 DUP1 DUP3 MSTORE PUSH1 0xF SWAP1 DUP3 ADD MSTORE PUSH32 0x7268206166746572207374657020340000000000000000000000000000000000 PUSH1 0x60 DUP3 ADD MSTORE PUSH1 0x20 DUP2 ADD SWAP2 SWAP1 SWAP2 MSTORE PUSH1 0x80 ADD SWAP1 JUMP JUMPDEST PUSH1 0x20 DUP1 DUP3 MSTORE PUSH1 0x22 SWAP1 DUP3 ADD MSTORE PUSH32 0x64656C7461422069732067726561746572206F7220657175616C20746F207A65 PUSH1 0x40 DUP3 ADD MSTORE PUSH32 0x726F000000000000000000000000000000000000000000000000000000000000 PUSH1 0x60 DUP3 ADD MSTORE PUSH1 0x80 ADD SWAP1 JUMP JUMPDEST PUSH1 0x20 DUP1 DUP3 MSTORE PUSH1 0x18 SWAP1 DUP3 ADD MSTORE PUSH32 0x5472616E736665724F776E6572546F5A65726F4572726F720000000000000000 PUSH1 0x40 DUP3 ADD MSTORE PUSH1 0x60 ADD SWAP1 JUMP JUMPDEST PUSH1 0x40 DUP1 DUP3 MSTORE PUSH1 0xF SWAP1 DUP3 ADD MSTORE PUSH32 0x726C206166746572207374657020340000000000000000000000000000000000 PUSH1 0x60 DUP3 ADD MSTORE PUSH1 0x20 DUP2 ADD SWAP2 SWAP1 SWAP2 MSTORE PUSH1 0x80 ADD SWAP1 JUMP JUMPDEST PUSH1 0x20 DUP1 DUP3 MSTORE PUSH1 0xE SWAP1 DUP3 ADD MSTORE PUSH32 0x5F6D756C3A206F766572666C6F77000000000000000000000000000000000000 PUSH1 0x40 DUP3 ADD MSTORE PUSH1 0x60 ADD SWAP1 JUMP JUMPDEST PUSH1 0x40 DUP1 DUP3 MSTORE PUSH1 0xF SWAP1 DUP3 ADD MSTORE PUSH32 0x726C206166746572207374657020350000000000000000000000000000000000 PUSH1 0x60 DUP3 ADD MSTORE PUSH1 0x20 DUP2 ADD SWAP2 SWAP1 SWAP2 MSTORE PUSH1 0x80 ADD SWAP1 JUMP JUMPDEST PUSH1 0x20 DUP1 DUP3 MSTORE PUSH1 0xE SWAP1 DUP3 ADD MSTORE PUSH32 0x5F6164643A206F766572666C6F77000000000000000000000000000000000000 PUSH1 0x40 DUP3 ADD MSTORE PUSH1 0x60 ADD SWAP1 JUMP JUMPDEST PUSH1 0x20 DUP1 DUP3 MSTORE PUSH1 0x14 SWAP1 DUP3 ADD MSTORE PUSH32 0x7375623A2076616C756520746F6F20736D616C6C000000000000000000000000 PUSH1 0x40 DUP3 ADD MSTORE PUSH1 0x60 ADD SWAP1 JUMP JUMPDEST PUSH1 0x20 DUP1 DUP3 MSTORE PUSH1 0x36 SWAP1 DUP3 ADD MSTORE PUSH32 0x746F46697865642875696E742C75696E74293A206E756D657261746F72206361 PUSH1 0x40 DUP3 ADD MSTORE PUSH32 0x6E6E6F74206265206C657373207468616E207A65726F00000000000000000000 PUSH1 0x60 DUP3 ADD MSTORE PUSH1 0x80 ADD SWAP1 JUMP JUMPDEST PUSH1 0x40 DUP1 DUP3 MSTORE PUSH1 0xF SWAP1 DUP3 ADD MSTORE PUSH32 0x726C206166746572207374657020310000000000000000000000000000000000 PUSH1 0x60 DUP3 ADD MSTORE PUSH1 0x20 DUP2 ADD SWAP2 SWAP1 SWAP2 MSTORE PUSH1 0x80 ADD SWAP1 JUMP JUMPDEST PUSH1 0x40 DUP1 DUP3 MSTORE PUSH1 0xF SWAP1 DUP3 ADD MSTORE PUSH32 0x7268206166746572207374657020330000000000000000000000000000000000 PUSH1 0x60 DUP3 ADD MSTORE PUSH1 0x20 DUP2 ADD SWAP2 SWAP1 SWAP2 MSTORE PUSH1 0x80 ADD SWAP1 JUMP JUMPDEST PUSH1 0x20 DUP1 DUP3 MSTORE PUSH1 0x14 SWAP1 DUP3 ADD MSTORE PUSH32 0x5F6469763A20646976696465206279207A65726F000000000000000000000000 PUSH1 0x40 DUP3 ADD MSTORE PUSH1 0x60 ADD SWAP1 JUMP JUMPDEST PUSH1 0x20 DUP1 DUP3 MSTORE PUSH1 0xE SWAP1 DUP3 ADD MSTORE PUSH32 0x5F6469763A206F766572666C6F77000000000000000000000000000000000000 PUSH1 0x40 DUP3 ADD MSTORE PUSH1 0x60 ADD SWAP1 JUMP JUMPDEST PUSH1 0x20 DUP1 DUP3 MSTORE PUSH1 0x13 SWAP1 DUP3 ADD MSTORE PUSH32 0x70726963652063616E6E6F74206265203C203000000000000000000000000000 PUSH1 0x40 DUP3 ADD MSTORE PUSH1 0x60 ADD SWAP1 JUMP JUMPDEST PUSH1 0x20 DUP1 DUP3 MSTORE PUSH1 0xF SWAP1 DUP3 ADD MSTORE PUSH32 0x4F7264657220746F6F206C617267650000000000000000000000000000000000 PUSH1 0x40 DUP3 ADD MSTORE PUSH1 0x60 ADD SWAP1 JUMP JUMPDEST PUSH1 0x20 DUP1 DUP3 MSTORE PUSH1 0x14 SWAP1 DUP3 ADD MSTORE PUSH32 0x70726963652063616E6E6F74206265207A65726F000000000000000000000000 PUSH1 0x40 DUP3 ADD MSTORE PUSH1 0x60 ADD SWAP1 JUMP JUMPDEST PUSH1 0x40 DUP1 DUP3 MSTORE PUSH1 0xF SWAP1 DUP3 ADD MSTORE PUSH32 0x796C206166746572207374657020340000000000000000000000000000000000 PUSH1 0x60 DUP3 ADD MSTORE PUSH1 0x20 DUP2 ADD SWAP2 SWAP1 SWAP2 MSTORE PUSH1 0x80 ADD SWAP1 JUMP JUMPDEST SWAP1 DUP2 MSTORE PUSH1 0x20 ADD SWAP1 JUMP JUMPDEST PUSH20 0xFFFFFFFFFFFFFFFFFFFFFFFFFFFFFFFFFFFFFFFF DUP2 AND DUP2 EQ PUSH2 0x40A JUMPI PUSH1 0x0 DUP1 REVERT INVALID LOG3 PUSH6 0x627A7A723158 KECCAK256 SWAP10 LOG1 NUMBER 0xc9 0xd SHR 0xe3 0xbb GT MSIZE 0xf 0xe0 KECCAK256 PUSH13 0x63C63C15DAB7843451805AA7D1 0xea 0xa6 0xb8 0xe6 SWAP6 PUSH13 0x6578706572696D656E74616CF5 PUSH5 0x736F6C6343 STOP SDIV 0xc STOP BLOCKHASH "
			}
		}
	},
	"sourceTreeHashHex": "0x3c156fdb185685cfff4f247592dbfef6575699306dc397044d4de03d8f1e9cba",
	"compiler": {
		"name": "solc",
		"version": "soljson-v0.5.12+commit.7709ece9.js",
		"settings": {
			"optimizer": {
				"enabled": true,
				"runs": 1000000,
				"details": {
					"yul": true,
					"deduplicate": true,
					"cse": true,
					"constantOptimizer": true
				}
			},
			"outputSelection": {
				"*": {
					"*": [
						"abi",
						"devdoc",
						"evm.bytecode.object",
						"evm.bytecode.sourceMap",
						"evm.deployedBytecode.object",
						"evm.deployedBytecode.sourceMap"
					]
				}
			},
			"evmVersion": "constantinople",
			"remappings": []
		}
	},
	"chains": {}
}