{
	"schemaVersion": "2.0.0",
	"contractName": "Swapper",
	"compilerOutput": {
		"abi": [
			{
				"anonymous": false,
				"inputs": [
					{
						"indexed": false,
						"internalType": "int256",
						"name": "lhs1",
						"type": "int256"
					},
					{
						"indexed": false,
						"internalType": "int256",
						"name": "mid",
						"type": "int256"
					},
					{
						"indexed": false,
						"internalType": "int256",
						"name": "lhs",
						"type": "int256"
					}
				],
				"name": "Bisect",
				"type": "event"
			},
			{
				"anonymous": false,
				"inputs": [
					{
						"indexed": false,
						"internalType": "int256",
						"name": "term2",
						"type": "int256"
					},
					{
						"indexed": false,
						"internalType": "int256",
						"name": "term3",
						"type": "int256"
					}
				],
				"name": "E",
				"type": "event"
			},
			{
				"anonymous": false,
				"inputs": [
					{
						"indexed": false,
						"internalType": "address",
						"name": "from",
						"type": "address"
					},
					{
						"indexed": false,
						"internalType": "address",
						"name": "fromToken",
						"type": "address"
					},
					{
						"indexed": false,
						"internalType": "address",
						"name": "toToken",
						"type": "address"
					},
					{
						"indexed": false,
						"internalType": "uint256",
						"name": "amountSpent",
						"type": "uint256"
					},
					{
						"indexed": false,
						"internalType": "uint256",
						"name": "amountReceived",
						"type": "uint256"
					}
				],
				"name": "Fill",
				"type": "event"
			},
			{
				"anonymous": false,
				"inputs": [
					{
						"indexed": false,
						"internalType": "address",
						"name": "from",
						"type": "address"
					},
					{
						"indexed": false,
						"internalType": "int256",
						"name": "amountSpent",
						"type": "int256"
					},
					{
						"indexed": false,
						"internalType": "int256",
						"name": "amountReceived",
						"type": "int256"
					}
				],
				"name": "FillInternal",
				"type": "event"
			},
			{
				"anonymous": false,
				"inputs": [
					{
						"indexed": false,
						"internalType": "address",
						"name": "oldOwner",
						"type": "address"
					},
					{
						"indexed": false,
						"internalType": "address",
						"name": "newOwner",
						"type": "address"
					}
				],
				"name": "OwnershipTransferred",
				"type": "event"
			},
			{
				"anonymous": false,
				"inputs": [
					{
						"indexed": false,
						"internalType": "int256",
						"name": "price",
						"type": "int256"
					},
					{
						"indexed": false,
						"internalType": "int256",
						"name": "deltaB",
						"type": "int256"
					},
					{
						"indexed": false,
						"internalType": "int256",
						"name": "newPBarX",
						"type": "int256"
					},
					{
						"indexed": false,
						"internalType": "int256",
						"name": "pA",
						"type": "int256"
					}
				],
				"name": "Price",
				"type": "event"
			},
			{
				"anonymous": false,
				"inputs": [
					{
						"indexed": false,
						"internalType": "int256",
						"name": "a",
						"type": "int256"
					},
					{
						"indexed": false,
						"internalType": "int256",
						"name": "b",
						"type": "int256"
					},
					{
						"indexed": false,
						"internalType": "int256",
						"name": "pA",
						"type": "int256"
					},
					{
						"indexed": false,
						"internalType": "int256",
						"name": "pBarA",
						"type": "int256"
					},
					{
						"indexed": false,
						"internalType": "int256",
						"name": "deltaA",
						"type": "int256"
					},
					{
						"indexed": false,
						"internalType": "int256",
						"name": "rhoRatio",
						"type": "int256"
					},
					{
						"indexed": false,
						"internalType": "int256",
						"name": "term4",
						"type": "int256"
					},
					{
						"indexed": false,
						"internalType": "int256",
						"name": "k13",
						"type": "int256"
					}
				],
				"name": "T",
				"type": "event"
			},
			{
				"constant": true,
				"inputs": [],
				"name": "gState",
				"outputs": [
					{
						"internalType": "bool",
						"name": "isInitialized",
						"type": "bool"
					},
					{
						"internalType": "address",
						"name": "xAddress",
						"type": "address"
					},
					{
						"internalType": "address",
						"name": "yAddress",
						"type": "address"
					},
					{
						"internalType": "int256",
						"name": "x",
						"type": "int256"
					},
					{
						"internalType": "int256",
						"name": "y",
						"type": "int256"
					},
					{
						"internalType": "uint256",
						"name": "l",
						"type": "uint256"
					},
					{
						"internalType": "int256",
						"name": "pBarX",
						"type": "int256"
					},
					{
						"internalType": "uint256",
						"name": "rhoNumerator",
						"type": "uint256"
					},
					{
						"internalType": "int256",
						"name": "rhoRatio",
						"type": "int256"
					},
					{
						"internalType": "int256",
						"name": "fee",
						"type": "int256"
					},
					{
						"internalType": "uint256",
						"name": "t",
						"type": "uint256"
					},
					{
						"internalType": "int256",
						"name": "beta",
						"type": "int256"
					},
					{
						"internalType": "int256",
						"name": "eToKappa",
						"type": "int256"
					}
				],
				"payable": false,
				"stateMutability": "view",
				"type": "function"
			},
			{
				"constant": false,
				"inputs": [
					{
						"internalType": "address",
						"name": "xAddress",
						"type": "address"
					},
					{
						"internalType": "address",
						"name": "yAddress",
						"type": "address"
					}
				],
				"name": "initState",
				"outputs": [],
				"payable": false,
				"stateMutability": "nonpayable",
				"type": "function"
			},
			{
				"constant": true,
				"inputs": [],
				"name": "owner",
				"outputs": [
					{
						"internalType": "address",
						"name": "",
						"type": "address"
					}
				],
				"payable": false,
				"stateMutability": "view",
				"type": "function"
			},
			{
				"constant": false,
				"inputs": [
					{
						"internalType": "address",
						"name": "fromToken",
						"type": "address"
					},
					{
						"internalType": "address",
						"name": "toToken",
						"type": "address"
					},
					{
						"internalType": "uint256",
						"name": "amount",
						"type": "uint256"
					}
				],
				"name": "swap",
				"outputs": [
					{
						"internalType": "uint256",
						"name": "amountReceived",
						"type": "uint256"
					}
				],
				"payable": false,
				"stateMutability": "nonpayable",
				"type": "function"
			},
			{
				"constant": false,
				"inputs": [
					{
						"internalType": "address",
						"name": "newOwner",
						"type": "address"
					}
				],
				"name": "transferOwnership",
				"outputs": [],
				"payable": false,
				"stateMutability": "nonpayable",
				"type": "function"
			}
		],
		"devdoc": {
			"methods": {}
		},
		"evm": {
			"bytecode": {
				"linkReferences": {},
				"object": "0x6080604052600080546001600160a01b031916331790556124d5806100256000396000f3fe608060405234801561001057600080fd5b50600436106100675760003560e01c8063afd46eb511610050578063afd46eb51461009f578063df791e50146100c0578063f2fde38b146100e057610067565b80637b6890361461006c5780638da5cb5b14610081575b600080fd5b61007f61007a366004611f58565b6100f3565b005b610089610109565b6040516100969190611fcc565b60405180910390f35b6100a7610125565b6040516100969d9c9b9a99989796959493929190612055565b6100d36100ce366004611f8c565b61017a565b6040516100969190612467565b61007f6100ee366004611f3d565b61033a565b6100fb61040d565b6101058282610460565b5050565b60005473ffffffffffffffffffffffffffffffffffffffff1681565b600154600254600354600454600554600654600754600854600954600a54600c54600d5460ff8c169b73ffffffffffffffffffffffffffffffffffffffff61010090910481169b16999897969594939291908d565b6000610184611e83565b61018c6105b3565b9050806020015173ffffffffffffffffffffffffffffffffffffffff168573ffffffffffffffffffffffffffffffffffffffff161480156101fc5750806040015173ffffffffffffffffffffffffffffffffffffffff168473ffffffffffffffffffffffffffffffffffffffff16145b1561022a576000610217868661021187610659565b8561066e565b9050610222816107c6565b9250506102f3565b806040015173ffffffffffffffffffffffffffffffffffffffff168573ffffffffffffffffffffffffffffffffffffffff161480156102985750806020015173ffffffffffffffffffffffffffffffffffffffff168473ffffffffffffffffffffffffffffffffffffffff16145b156102b85760006102ad8686610211876107d3565b9050610222816107e0565b6040517f08c379a00000000000000000000000000000000000000000000000000000000081526004016102ea906121be565b60405180910390fd5b7f256db8090fa51c3bac981768637d5a7c46b5540644dcef89052b89dbb2f6c8ea338686868660405161032a959493929190612014565b60405180910390a1509392505050565b61034261040d565b73ffffffffffffffffffffffffffffffffffffffff811661038f576040517f08c379a00000000000000000000000000000000000000000000000000000000081526004016102ea906122c0565b600080547fffffffffffffffffffffffff00000000000000000000000000000000000000001673ffffffffffffffffffffffffffffffffffffffff83161790556040517f8be0079c531659141344cd1fd0a4f28419497f9722a3daafe3b4186f6b6457e0906104019033908490611fed565b60405180910390a15b50565b60005473ffffffffffffffffffffffffffffffffffffffff16331461045e576040517f08c379a00000000000000000000000000000000000000000000000000000000081526004016102ea90612150565b565b60015460ff161561049d576040517f08c379a00000000000000000000000000000000000000000000000000000000081526004016102ea90612187565b600180547fffffffffffffffffffffff0000000000000000000000000000000000000000ff1661010073ffffffffffffffffffffffffffffffffffffffff8581169190910291909117909155600280547fffffffffffffffffffffffff000000000000000000000000000000000000000016918316919091179055610524606360646107ed565b600655606360078190556105399060646107ed565b60085561054960056127106107ed565b60095561057161055d6001620f424061088e565b6105656108ad565b9063ffffffff6108c116565b600c556105826127156103e861088e565b600d555050600180547fffffffffffffffffffffffffffffffffffffffffffffffffffffffffffffff001681179055565b6105bb611e83565b50604080516101a08101825260015460ff81161515825273ffffffffffffffffffffffffffffffffffffffff610100918290048116602084015260025416928201929092526003546060820152600454608082015260055460a082015260065460c082015260075460e082015260085491810191909152600954610120820152600a54610140820152600c54610160820152600d5461018082015290565b600061066682601261092a565b90505b919050565b6020810151600090819081908190819073ffffffffffffffffffffffffffffffffffffffff8a811691161480156106d45750856040015173ffffffffffffffffffffffffffffffffffffffff168873ffffffffffffffffffffffffffffffffffffffff16145b156106f357505050506060820151608083015160c08401516001610793565b856040015173ffffffffffffffffffffffffffffffffffffffff168973ffffffffffffffffffffffffffffffffffffffff161480156107615750856020015173ffffffffffffffffffffffffffffffffffffffff168873ffffffffffffffffffffffffffffffffffffffff16145b156102b85785608001519350856060015192506107908660c001516107846108ad565b9063ffffffff61093f16565b91505b60006107a68585858a6101000151610968565b90506107b6858583868c8c610a2a565b5060009998505050505050505050565b6000610666826006610c4e565b600061066682600661092a565b6000610666826012610c4e565b600080831215610829576040517f08c379a00000000000000000000000000000000000000000000000000000000081526004016102ea9061239c565b6000821215610864576040517f08c379a00000000000000000000000000000000000000000000000000000000081526004016102ea906121f5565b610887610881846f80000000000000000000000000000000610c5e565b83610cd4565b9392505050565b6000610887610881846f80000000000000000000000000000000610c5e565b6f8000000000000000000000000000000090565b60007f800000000000000000000000000000000000000000000000000000000000000082141561091d576040517f08c379a00000000000000000000000000000000000000000000000000000000081526004016102ea90612365565b6108878383600003610da3565b60006108878383600a0a6107ed565b92915050565b6000610959610881846a8000000000000000000000610c5e565b65010000000000029392505050565b60008061097b848763ffffffff610e1916565b9050600061098f868363ffffffff61093f16565b905060006109a3838863ffffffff61093f16565b905060006109b3866105656108ad565b905060006109bf6108ad565b8412156109ee576109e76109e2836109d687610e6c565b9063ffffffff610e1916565b611556565b9050610a0c565b610a09610a016109e2846109d687610e6c565b6107846108ad565b90505b610a1c818963ffffffff610e1916565b9a9950505050505050505050565b6000610a366002611b64565b90506000610a8c610a7f610a6f610a538a8863ffffffff610e1916565b610a638c8c63ffffffff610e1916565b9063ffffffff611b8016565b610784898863ffffffff610e1916565b899063ffffffff610e1916565b90506000610ab0610aa38a8763ffffffff611b8016565b8a9063ffffffff61093f16565b90506000610aef610acf8a876101000151610e1990919063ffffffff16565b6105658a6109d68e6109d68b61010001518b6108c190919063ffffffff16565b90506000610b028b8b8b8b8b878c611b8c565b90506000610b158c8c8c8c8c878d611c52565b90506000610b298d8d8d8d8d8b8b8f611cf2565b90507fe86e669442090f039da8c025bf7c63c92aade03b41b73a1d7bef302c109960dc8d8d8d8d8d8d61010001518988604051610b6d9897969594939291906120e3565b60405180910390a150505050505050505050505050565b6014811015610c3f576000610b998585611d8b565b90506000610bb5610bb0838c63ffffffff61093f16565b611dab565b90506000610be0610bcc8b8563ffffffff610e1916565b610a63856109d6898763ffffffff610e1916565b90507f4add19bbbe358caf4af4a31b1299356fc4dccf8b4cf3c87e401b0fa60062f31e828483604051610c15939291906120cd565b60405180910390a18c811315610c2d57829550610c31565b8296505b505050806001019050610b84565b50919998505050505050505050565b600061088782600a0a8402611e4a565b6000821580610c6b575081155b15610c7857506000610939565b5081810281838281610c8657fe5b05141580610c9d575082828281610c9957fe5b0514155b15610939576040517f08c379a00000000000000000000000000000000000000000000000000000000081526004016102ea906122f7565b600081610d0d576040517f08c379a00000000000000000000000000000000000000000000000000000000081526004016102ea906123f9565b7f800000000000000000000000000000000000000000000000000000000000000083148015610d5b5750817fffffffffffffffffffffffffffffffffffffffffffffffffffffffffffffffff145b15610d92576040517f08c379a00000000000000000000000000000000000000000000000000000000081526004016102ea90612430565b818381610d9b57fe5b059392505050565b818101600083128015610db65750600082125b8015610dc157508281135b80610de25750600083138015610dd75750600082135b8015610de257508281125b15610939576040517f08c379a00000000000000000000000000000000000000000000000000000000081526004016102ea9061232e565b60006f800000000000000000000000000000008215610e4b575065010000000000909105906a80000000000000000000005b6000610e578585610c5e565b9050818181610e6257fe5b0595945050505050565b60006f80000000000000000000000000000000821315610eb8576040517f08c379a00000000000000000000000000000000000000000000000000000000081526004016102ea90612252565b60008213610ef2576040517f08c379a00000000000000000000000000000000000000000000000000000000081526004016102ea90612119565b6f80000000000000000000000000000000821415610f1257506000610669565b640733048c5a8213610f4557507fffffffffffffffffffffffffffffffe010000000000000000000000000000000610669565b60008060006a01c8464f761647600000008513610fa4577ffffffffffffffffffffffffffffffff000000000000000000000000000000000909301926a01c8464f761647600000006f8000000000000000000000000000000086020594505b6cf1aaddd7742e900000000000008513611002577ffffffffffffffffffffffffffffffff800000000000000000000000000000000909301926cf1aaddd7742e900000000000006f8000000000000000000000000000000086020594505b6e0afe10820813d780000000000000008513611064577ffffffffffffffffffffffffffffffffc00000000000000000000000000000000909301926e0afe10820813d780000000000000006f8000000000000000000000000000000086020594505b6f02582ab704279ec0000000000000000085136110c8577ffffffffffffffffffffffffffffffffe00000000000000000000000000000000909301926f02582ab704279ec000000000000000006f8000000000000000000000000000000086020594505b6f1152aaa3bf81cc000000000000000000851361112c577fffffffffffffffffffffffffffffffff00000000000000000000000000000000909301926f1152aaa3bf81cc0000000000000000006f8000000000000000000000000000000086020594505b6f2f16ac6c59de700000000000000000008513611190577fffffffffffffffffffffffffffffffff80000000000000000000000000000000909301926f2f16ac6c59de700000000000000000006f8000000000000000000000000000000086020594505b6f4da2cbf1be582800000000000000000085136111f4577fffffffffffffffffffffffffffffffffc0000000000000000000000000000000909301926f4da2cbf1be58280000000000000000006f8000000000000000000000000000000086020594505b6f63afbe7ab2082c0000000000000000008513611258577fffffffffffffffffffffffffffffffffe0000000000000000000000000000000909301926f63afbe7ab2082c0000000000000000006f8000000000000000000000000000000086020594505b6f70f5a893b608861e1f58934f97aea57d85136112bc577ffffffffffffffffffffffffffffffffff0000000000000000000000000000000909301926f70f5a893b608861e1f58934f97aea57d6f8000000000000000000000000000000086020594505b7fffffffffffffffffffffffffffffffff80000000000000000000000000000000850192508291506f80000000000000000000000000000000828002059050700100000000000000000000000000000000838103830205840193506f800000000000000000000000000000008183028161133257fe5b059150700200000000000000000000000000000000836faaaaaaaaaaaaaaaaaaaaaaaaaaaaaaaa0383028161136357fe5b05840193506f800000000000000000000000000000008183028161138357fe5b059150700300000000000000000000000000000000836f99999999999999999999999999999999038302816113b457fe5b05840193506f80000000000000000000000000000000818302816113d457fe5b059150700400000000000000000000000000000000836f924924924924924924924924924924920383028161140557fe5b05840193506f800000000000000000000000000000008183028161142557fe5b059150700500000000000000000000000000000000836f8e38e38e38e38e38e38e38e38e38e38e0383028161145657fe5b05840193506f800000000000000000000000000000008183028161147657fe5b059150700600000000000000000000000000000000836f8ba2e8ba2e8ba2e8ba2e8ba2e8ba2e8b038302816114a757fe5b05840193506f80000000000000000000000000000000818302816114c757fe5b059150700700000000000000000000000000000000836f89d89d89d89d89d89d89d89d89d89d89038302816114f857fe5b05840193506f800000000000000000000000000000008183028161151857fe5b059150700800000000000000000000000000000000836f888888888888888888888888888888880383028161154957fe5b0584019350505050919050565b60007fffffffffffffffffffffffffffffffe01000000000000000000000000000000082121561158857506000610669565b816115a457506f80000000000000000000000000000000610669565b60008213156115df576040517f08c379a00000000000000000000000000000000000000000000000000000000081526004016102ea90612289565b6f800000000000000000000000000000006f1000000000000000000000000000000083078080028290056710e1b3be415a0000810293909301929091818302059050806705a0913f6b1e000002830192506f800000000000000000000000000000008282028161164b57fe5b05905080670168244fdac7800002830192506f800000000000000000000000000000008282028161167857fe5b05905080664807432bc1800002830192506f80000000000000000000000000000000828202816116a457fe5b05905080660c0135dca0400002830192506f80000000000000000000000000000000828202816116d057fe5b059050806601b707b1cdc00002830192506f80000000000000000000000000000000828202816116fc57fe5b059050806536e0f639b80002830192506f800000000000000000000000000000008282028161172757fe5b05905080650618fee9f80002830192506f800000000000000000000000000000008282028161175257fe5b05905080649c197dcc0002830192506f800000000000000000000000000000008282028161177c57fe5b05905080640e30dce40002830192506f80000000000000000000000000000000828202816117a657fe5b0590508064012ebd130002830192506f80000000000000000000000000000000828202816117d057fe5b059050806317499f0002830192506f80000000000000000000000000000000828202816117f957fe5b059050806301a9d48002830192506f800000000000000000000000000000008282028161182257fe5b05905080621c638002830192506f800000000000000000000000000000008282028161184a57fe5b059050806201c63802830192506f800000000000000000000000000000008282028161187257fe5b05905080611ab802830192506f800000000000000000000000000000008282028161189957fe5b0590508061017c02830192506f80000000000000000000000000000000828202816118c057fe5b05905080601402830192506f80000000000000000000000000000000828202816118e657fe5b600095909503946721c3677c82b400009190059384010582016f8000000000000000000000000000000001929050701000000000000000000000000000000000841615611955577243cbaf42a000812488fc5c220ad7b97bf6e99e6cf1aaddd7742e56d32fb9f9974484020592505b700800000000000000000000000000000000841615611997577105d27a9f51c31b7c2f8038212a05747799916e0afe10820813d65dfe6a33c07f738f84020592505b7004000000000000000000000000000000008416156119d957701b4c902e273a58678d6d3bfdb93db96d026f02582ab704279e8efd15e0265855c47a84020592505b700200000000000000000000000000000000841615611a1b577003b1cc971a9bb5b9867477440d6d1577506f1152aaa3bf81cb9fdb76eae12d02957184020592505b700100000000000000000000000000000000841615611a5d5770015bf0a8b1457695355fb8ac404e7a79e36f2f16ac6c59de6f8d5d6f63c1482a7c8684020592505b6f80000000000000000000000000000000841615611a9d576fd3094c70f034de4b96ff7d5b6f99fcd86f4da2cbf1be5827f9eb3ad1aa9866ebb384020592505b6f40000000000000000000000000000000841615611add576fa45af1e1f40c333b3de1db4dd55f29a76f63afbe7ab2082ba1a0ae5e4eb1b479dc84020592505b6f20000000000000000000000000000000841615611b1d576f910b022db7ae67ce76b441c27035c6a16f70f5a893b608861e1f58934f97aea57d84020592505b6f10000000000000000000000000000000841615611b5d576f88415abbe9a76bead8d00cf112e4d4a86f783eafef1c0a8f3978c7f81824d62ebf84020592505b5050919050565b6000610666826f80000000000000000000000000000000610c5e565b60006108878383610da3565b600080611b996002611b64565b90506000611bbf611bb68a6109d68d6109d68d6109d66004611b64565b610a6387611e60565b90506000611bdb83610784611bd6856107846108ad565b610e6c565b6000039050600080821315611bfe57611bf9610a0183600003611556565b611c07565b611c0782611556565b90506000611c32611c1e868d63ffffffff610e1916565b61078460008b90038563ffffffff611b8016565b90506000611c408a83611e6c565b9e9d5050505050505050505050505050565b600080611c85611c78611c6b868a63ffffffff610e1916565b8a9063ffffffff6108c116565b8a9063ffffffff610e1916565b90506000611c9c611c788b8763ffffffff611b8016565b90506000611cb3611bd6848463ffffffff61093f16565b90506000611ccc826109d68861010001516105656108ad565b90506000611ce1896107848a6109d686611556565b9d9c50505050505050505050505050565b600080611d05848663ffffffff61093f16565b90506000611d33611d21866109d68761010001516105656108ad565b6101008601519063ffffffff611b8016565b90506000611d57611d4f886109d68861010001516105656108ad565b610a636108ad565b90506000611d6b838363ffffffff61093f16565b9050808412611d7a5780611ce1565b50919b9a5050505050505050505050565b6000610887611d9b611d4f6108ad565b610784858563ffffffff611b8016565b600080611dbe838063ffffffff610e1916565b90506000611dd2848363ffffffff610e1916565b90506000611de6828063ffffffff610e1916565b90506000611dfa828063ffffffff610e1916565b90506000611e0e828063ffffffff610e1916565b90506000611e22828063ffffffff610e1916565b90506000611e36828063ffffffff610e1916565b90506000610a1c828863ffffffff610e1916565b6f80000000000000000000000000000000900590565b60006106668283610e19565b600081831315611e7c5781610887565b5090919050565b604051806101a00160405280600015158152602001600073ffffffffffffffffffffffffffffffffffffffff168152602001600073ffffffffffffffffffffffffffffffffffffffff168152602001600081526020016000815260200160008152602001600081526020016000815260200160008152602001600081526020016000815260200160008152602001600081525090565b803573ffffffffffffffffffffffffffffffffffffffff8116811461093957600080fd5b600060208284031215611f4e578081fd5b6108878383611f19565b60008060408385031215611f6a578081fd5b611f748484611f19565b9150611f838460208501611f19565b90509250929050565b600080600060608486031215611fa0578081fd5b8335611fab81612470565b92506020840135611fbb81612470565b929592945050506040919091013590565b73ffffffffffffffffffffffffffffffffffffffff91909116815260200190565b73ffffffffffffffffffffffffffffffffffffffff92831681529116602082015260400190565b73ffffffffffffffffffffffffffffffffffffffff958616815293851660208501529190931660408301526060820192909252608081019190915260a00190565b9c15158d5273ffffffffffffffffffffffffffffffffffffffff9b8c1660208e015299909a1660408c015260608b019790975260808a019590955260a089019390935260c088019190915260e08701526101008601526101208501526101408401526101608301919091526101808201526101a00190565b9283526020830191909152604082015260600190565b978852602088019690965260408701949094526060860192909252608085015260a084015260c083015260e08201526101000190565b60208082526013908201527f6c6e3a2076616c756520746f6f20736d616c6c00000000000000000000000000604082015260600190565b6020808252600e908201527f4f6e6c794f776e65724572726f72000000000000000000000000000000000000604082015260600190565b60208082526013908201527f416c726561647920496e697469616c697a656400000000000000000000000000604082015260600190565b60208082526017908201527f496e76616c696420746f6b656e20616464726573736573000000000000000000604082015260600190565b60208082526038908201527f746f46697865642875696e742c75696e74293a2064656e6f6d696e61746f722060408201527f63616e6e6f74206265206c657373207468616e207a65726f0000000000000000606082015260800190565b60208082526013908201527f6c6e3a2076616c756520746f6f206c6172676500000000000000000000000000604082015260600190565b60208082526014908201527f6578703a2076616c756520746f6f20736d616c6c000000000000000000000000604082015260600190565b60208082526018908201527f5472616e736665724f776e6572546f5a65726f4572726f720000000000000000604082015260600190565b6020808252600e908201527f5f6d756c3a206f766572666c6f77000000000000000000000000000000000000604082015260600190565b6020808252600e908201527f5f6164643a206f766572666c6f77000000000000000000000000000000000000604082015260600190565b60208082526014908201527f7375623a2076616c756520746f6f20736d616c6c000000000000000000000000604082015260600190565b60208082526036908201527f746f46697865642875696e742c75696e74293a206e756d657261746f7220636160408201527f6e6e6f74206265206c657373207468616e207a65726f00000000000000000000606082015260800190565b60208082526014908201527f5f6469763a20646976696465206279207a65726f000000000000000000000000604082015260600190565b6020808252600e908201527f5f6469763a206f766572666c6f77000000000000000000000000000000000000604082015260600190565b90815260200190565b73ffffffffffffffffffffffffffffffffffffffff8116811461040a57600080fdfea365627a7a72315820d2cbb34411431053566b3b7c2d877bb079c550b59293e324a0cd73f2b7aa533e6c6578706572696d656e74616cf564736f6c634300050f0040",
				"opcodes": "PUSH1 0x80 PUSH1 0x40 MSTORE PUSH1 0x0 DUP1 SLOAD PUSH1 0x1 PUSH1 0x1 PUSH1 0xA0 SHL SUB NOT AND CALLER OR SWAP1 SSTORE PUSH2 0x24D5 DUP1 PUSH2 0x25 PUSH1 0x0 CODECOPY PUSH1 0x0 RETURN INVALID PUSH1 0x80 PUSH1 0x40 MSTORE CALLVALUE DUP1 ISZERO PUSH2 0x10 JUMPI PUSH1 0x0 DUP1 REVERT JUMPDEST POP PUSH1 0x4 CALLDATASIZE LT PUSH2 0x67 JUMPI PUSH1 0x0 CALLDATALOAD PUSH1 0xE0 SHR DUP1 PUSH4 0xAFD46EB5 GT PUSH2 0x50 JUMPI DUP1 PUSH4 0xAFD46EB5 EQ PUSH2 0x9F JUMPI DUP1 PUSH4 0xDF791E50 EQ PUSH2 0xC0 JUMPI DUP1 PUSH4 0xF2FDE38B EQ PUSH2 0xE0 JUMPI PUSH2 0x67 JUMP JUMPDEST DUP1 PUSH4 0x7B689036 EQ PUSH2 0x6C JUMPI DUP1 PUSH4 0x8DA5CB5B EQ PUSH2 0x81 JUMPI JUMPDEST PUSH1 0x0 DUP1 REVERT JUMPDEST PUSH2 0x7F PUSH2 0x7A CALLDATASIZE PUSH1 0x4 PUSH2 0x1F58 JUMP JUMPDEST PUSH2 0xF3 JUMP JUMPDEST STOP JUMPDEST PUSH2 0x89 PUSH2 0x109 JUMP JUMPDEST PUSH1 0x40 MLOAD PUSH2 0x96 SWAP2 SWAP1 PUSH2 0x1FCC JUMP JUMPDEST PUSH1 0x40 MLOAD DUP1 SWAP2 SUB SWAP1 RETURN JUMPDEST PUSH2 0xA7 PUSH2 0x125 JUMP JUMPDEST PUSH1 0x40 MLOAD PUSH2 0x96 SWAP14 SWAP13 SWAP12 SWAP11 SWAP10 SWAP9 SWAP8 SWAP7 SWAP6 SWAP5 SWAP4 SWAP3 SWAP2 SWAP1 PUSH2 0x2055 JUMP JUMPDEST PUSH2 0xD3 PUSH2 0xCE CALLDATASIZE PUSH1 0x4 PUSH2 0x1F8C JUMP JUMPDEST PUSH2 0x17A JUMP JUMPDEST PUSH1 0x40 MLOAD PUSH2 0x96 SWAP2 SWAP1 PUSH2 0x2467 JUMP JUMPDEST PUSH2 0x7F PUSH2 0xEE CALLDATASIZE PUSH1 0x4 PUSH2 0x1F3D JUMP JUMPDEST PUSH2 0x33A JUMP JUMPDEST PUSH2 0xFB PUSH2 0x40D JUMP JUMPDEST PUSH2 0x105 DUP3 DUP3 PUSH2 0x460 JUMP JUMPDEST POP POP JUMP JUMPDEST PUSH1 0x0 SLOAD PUSH20 0xFFFFFFFFFFFFFFFFFFFFFFFFFFFFFFFFFFFFFFFF AND DUP2 JUMP JUMPDEST PUSH1 0x1 SLOAD PUSH1 0x2 SLOAD PUSH1 0x3 SLOAD PUSH1 0x4 SLOAD PUSH1 0x5 SLOAD PUSH1 0x6 SLOAD PUSH1 0x7 SLOAD PUSH1 0x8 SLOAD PUSH1 0x9 SLOAD PUSH1 0xA SLOAD PUSH1 0xC SLOAD PUSH1 0xD SLOAD PUSH1 0xFF DUP13 AND SWAP12 PUSH20 0xFFFFFFFFFFFFFFFFFFFFFFFFFFFFFFFFFFFFFFFF PUSH2 0x100 SWAP1 SWAP2 DIV DUP2 AND SWAP12 AND SWAP10 SWAP9 SWAP8 SWAP7 SWAP6 SWAP5 SWAP4 SWAP3 SWAP2 SWAP1 DUP14 JUMP JUMPDEST PUSH1 0x0 PUSH2 0x184 PUSH2 0x1E83 JUMP JUMPDEST PUSH2 0x18C PUSH2 0x5B3 JUMP JUMPDEST SWAP1 POP DUP1 PUSH1 0x20 ADD MLOAD PUSH20 0xFFFFFFFFFFFFFFFFFFFFFFFFFFFFFFFFFFFFFFFF AND DUP6 PUSH20 0xFFFFFFFFFFFFFFFFFFFFFFFFFFFFFFFFFFFFFFFF AND EQ DUP1 ISZERO PUSH2 0x1FC JUMPI POP DUP1 PUSH1 0x40 ADD MLOAD PUSH20 0xFFFFFFFFFFFFFFFFFFFFFFFFFFFFFFFFFFFFFFFF AND DUP5 PUSH20 0xFFFFFFFFFFFFFFFFFFFFFFFFFFFFFFFFFFFFFFFF AND EQ JUMPDEST ISZERO PUSH2 0x22A JUMPI PUSH1 0x0 PUSH2 0x217 DUP7 DUP7 PUSH2 0x211 DUP8 PUSH2 0x659 JUMP JUMPDEST DUP6 PUSH2 0x66E JUMP JUMPDEST SWAP1 POP PUSH2 0x222 DUP2 PUSH2 0x7C6 JUMP JUMPDEST SWAP3 POP POP PUSH2 0x2F3 JUMP JUMPDEST DUP1 PUSH1 0x40 ADD MLOAD PUSH20 0xFFFFFFFFFFFFFFFFFFFFFFFFFFFFFFFFFFFFFFFF AND DUP6 PUSH20 0xFFFFFFFFFFFFFFFFFFFFFFFFFFFFFFFFFFFFFFFF AND EQ DUP1 ISZERO PUSH2 0x298 JUMPI POP DUP1 PUSH1 0x20 ADD MLOAD PUSH20 0xFFFFFFFFFFFFFFFFFFFFFFFFFFFFFFFFFFFFFFFF AND DUP5 PUSH20 0xFFFFFFFFFFFFFFFFFFFFFFFFFFFFFFFFFFFFFFFF AND EQ JUMPDEST ISZERO PUSH2 0x2B8 JUMPI PUSH1 0x0 PUSH2 0x2AD DUP7 DUP7 PUSH2 0x211 DUP8 PUSH2 0x7D3 JUMP JUMPDEST SWAP1 POP PUSH2 0x222 DUP2 PUSH2 0x7E0 JUMP JUMPDEST PUSH1 0x40 MLOAD PUSH32 0x8C379A000000000000000000000000000000000000000000000000000000000 DUP2 MSTORE PUSH1 0x4 ADD PUSH2 0x2EA SWAP1 PUSH2 0x21BE JUMP JUMPDEST PUSH1 0x40 MLOAD DUP1 SWAP2 SUB SWAP1 REVERT JUMPDEST PUSH32 0x256DB8090FA51C3BAC981768637D5A7C46B5540644DCEF89052B89DBB2F6C8EA CALLER DUP7 DUP7 DUP7 DUP7 PUSH1 0x40 MLOAD PUSH2 0x32A SWAP6 SWAP5 SWAP4 SWAP3 SWAP2 SWAP1 PUSH2 0x2014 JUMP JUMPDEST PUSH1 0x40 MLOAD DUP1 SWAP2 SUB SWAP1 LOG1 POP SWAP4 SWAP3 POP POP POP JUMP JUMPDEST PUSH2 0x342 PUSH2 0x40D JUMP JUMPDEST PUSH20 0xFFFFFFFFFFFFFFFFFFFFFFFFFFFFFFFFFFFFFFFF DUP2 AND PUSH2 0x38F JUMPI PUSH1 0x40 MLOAD PUSH32 0x8C379A000000000000000000000000000000000000000000000000000000000 DUP2 MSTORE PUSH1 0x4 ADD PUSH2 0x2EA SWAP1 PUSH2 0x22C0 JUMP JUMPDEST PUSH1 0x0 DUP1 SLOAD PUSH32 0xFFFFFFFFFFFFFFFFFFFFFFFF0000000000000000000000000000000000000000 AND PUSH20 0xFFFFFFFFFFFFFFFFFFFFFFFFFFFFFFFFFFFFFFFF DUP4 AND OR SWAP1 SSTORE PUSH1 0x40 MLOAD PUSH32 0x8BE0079C531659141344CD1FD0A4F28419497F9722A3DAAFE3B4186F6B6457E0 SWAP1 PUSH2 0x401 SWAP1 CALLER SWAP1 DUP5 SWAP1 PUSH2 0x1FED JUMP JUMPDEST PUSH1 0x40 MLOAD DUP1 SWAP2 SUB SWAP1 LOG1 JUMPDEST POP JUMP JUMPDEST PUSH1 0x0 SLOAD PUSH20 0xFFFFFFFFFFFFFFFFFFFFFFFFFFFFFFFFFFFFFFFF AND CALLER EQ PUSH2 0x45E JUMPI PUSH1 0x40 MLOAD PUSH32 0x8C379A000000000000000000000000000000000000000000000000000000000 DUP2 MSTORE PUSH1 0x4 ADD PUSH2 0x2EA SWAP1 PUSH2 0x2150 JUMP JUMPDEST JUMP JUMPDEST PUSH1 0x1 SLOAD PUSH1 0xFF AND ISZERO PUSH2 0x49D JUMPI PUSH1 0x40 MLOAD PUSH32 0x8C379A000000000000000000000000000000000000000000000000000000000 DUP2 MSTORE PUSH1 0x4 ADD PUSH2 0x2EA SWAP1 PUSH2 0x2187 JUMP JUMPDEST PUSH1 0x1 DUP1 SLOAD PUSH32 0xFFFFFFFFFFFFFFFFFFFFFF0000000000000000000000000000000000000000FF AND PUSH2 0x100 PUSH20 0xFFFFFFFFFFFFFFFFFFFFFFFFFFFFFFFFFFFFFFFF DUP6 DUP2 AND SWAP2 SWAP1 SWAP2 MUL SWAP2 SWAP1 SWAP2 OR SWAP1 SWAP2 SSTORE PUSH1 0x2 DUP1 SLOAD PUSH32 0xFFFFFFFFFFFFFFFFFFFFFFFF0000000000000000000000000000000000000000 AND SWAP2 DUP4 AND SWAP2 SWAP1 SWAP2 OR SWAP1 SSTORE PUSH2 0x524 PUSH1 0x63 PUSH1 0x64 PUSH2 0x7ED JUMP JUMPDEST PUSH1 0x6 SSTORE PUSH1 0x63 PUSH1 0x7 DUP2 SWAP1 SSTORE PUSH2 0x539 SWAP1 PUSH1 0x64 PUSH2 0x7ED JUMP JUMPDEST PUSH1 0x8 SSTORE PUSH2 0x549 PUSH1 0x5 PUSH2 0x2710 PUSH2 0x7ED JUMP JUMPDEST PUSH1 0x9 SSTORE PUSH2 0x571 PUSH2 0x55D PUSH1 0x1 PUSH3 0xF4240 PUSH2 0x88E JUMP JUMPDEST PUSH2 0x565 PUSH2 0x8AD JUMP JUMPDEST SWAP1 PUSH4 0xFFFFFFFF PUSH2 0x8C1 AND JUMP JUMPDEST PUSH1 0xC SSTORE PUSH2 0x582 PUSH2 0x2715 PUSH2 0x3E8 PUSH2 0x88E JUMP JUMPDEST PUSH1 0xD SSTORE POP POP PUSH1 0x1 DUP1 SLOAD PUSH32 0xFFFFFFFFFFFFFFFFFFFFFFFFFFFFFFFFFFFFFFFFFFFFFFFFFFFFFFFFFFFFFF00 AND DUP2 OR SWAP1 SSTORE JUMP JUMPDEST PUSH2 0x5BB PUSH2 0x1E83 JUMP JUMPDEST POP PUSH1 0x40 DUP1 MLOAD PUSH2 0x1A0 DUP2 ADD DUP3 MSTORE PUSH1 0x1 SLOAD PUSH1 0xFF DUP2 AND ISZERO ISZERO DUP3 MSTORE PUSH20 0xFFFFFFFFFFFFFFFFFFFFFFFFFFFFFFFFFFFFFFFF PUSH2 0x100 SWAP2 DUP3 SWAP1 DIV DUP2 AND PUSH1 0x20 DUP5 ADD MSTORE PUSH1 0x2 SLOAD AND SWAP3 DUP3 ADD SWAP3 SWAP1 SWAP3 MSTORE PUSH1 0x3 SLOAD PUSH1 0x60 DUP3 ADD MSTORE PUSH1 0x4 SLOAD PUSH1 0x80 DUP3 ADD MSTORE PUSH1 0x5 SLOAD PUSH1 0xA0 DUP3 ADD MSTORE PUSH1 0x6 SLOAD PUSH1 0xC0 DUP3 ADD MSTORE PUSH1 0x7 SLOAD PUSH1 0xE0 DUP3 ADD MSTORE PUSH1 0x8 SLOAD SWAP2 DUP2 ADD SWAP2 SWAP1 SWAP2 MSTORE PUSH1 0x9 SLOAD PUSH2 0x120 DUP3 ADD MSTORE PUSH1 0xA SLOAD PUSH2 0x140 DUP3 ADD MSTORE PUSH1 0xC SLOAD PUSH2 0x160 DUP3 ADD MSTORE PUSH1 0xD SLOAD PUSH2 0x180 DUP3 ADD MSTORE SWAP1 JUMP JUMPDEST PUSH1 0x0 PUSH2 0x666 DUP3 PUSH1 0x12 PUSH2 0x92A JUMP JUMPDEST SWAP1 POP JUMPDEST SWAP2 SWAP1 POP JUMP JUMPDEST PUSH1 0x20 DUP2 ADD MLOAD PUSH1 0x0 SWAP1 DUP2 SWAP1 DUP2 SWAP1 DUP2 SWAP1 DUP2 SWAP1 PUSH20 0xFFFFFFFFFFFFFFFFFFFFFFFFFFFFFFFFFFFFFFFF DUP11 DUP2 AND SWAP2 AND EQ DUP1 ISZERO PUSH2 0x6D4 JUMPI POP DUP6 PUSH1 0x40 ADD MLOAD PUSH20 0xFFFFFFFFFFFFFFFFFFFFFFFFFFFFFFFFFFFFFFFF AND DUP9 PUSH20 0xFFFFFFFFFFFFFFFFFFFFFFFFFFFFFFFFFFFFFFFF AND EQ JUMPDEST ISZERO PUSH2 0x6F3 JUMPI POP POP POP POP PUSH1 0x60 DUP3 ADD MLOAD PUSH1 0x80 DUP4 ADD MLOAD PUSH1 0xC0 DUP5 ADD MLOAD PUSH1 0x1 PUSH2 0x793 JUMP JUMPDEST DUP6 PUSH1 0x40 ADD MLOAD PUSH20 0xFFFFFFFFFFFFFFFFFFFFFFFFFFFFFFFFFFFFFFFF AND DUP10 PUSH20 0xFFFFFFFFFFFFFFFFFFFFFFFFFFFFFFFFFFFFFFFF AND EQ DUP1 ISZERO PUSH2 0x761 JUMPI POP DUP6 PUSH1 0x20 ADD MLOAD PUSH20 0xFFFFFFFFFFFFFFFFFFFFFFFFFFFFFFFFFFFFFFFF AND DUP9 PUSH20 0xFFFFFFFFFFFFFFFFFFFFFFFFFFFFFFFFFFFFFFFF AND EQ JUMPDEST ISZERO PUSH2 0x2B8 JUMPI DUP6 PUSH1 0x80 ADD MLOAD SWAP4 POP DUP6 PUSH1 0x60 ADD MLOAD SWAP3 POP PUSH2 0x790 DUP7 PUSH1 0xC0 ADD MLOAD PUSH2 0x784 PUSH2 0x8AD JUMP JUMPDEST SWAP1 PUSH4 0xFFFFFFFF PUSH2 0x93F AND JUMP JUMPDEST SWAP2 POP JUMPDEST PUSH1 0x0 PUSH2 0x7A6 DUP6 DUP6 DUP6 DUP11 PUSH2 0x100 ADD MLOAD PUSH2 0x968 JUMP JUMPDEST SWAP1 POP PUSH2 0x7B6 DUP6 DUP6 DUP4 DUP7 DUP13 DUP13 PUSH2 0xA2A JUMP JUMPDEST POP PUSH1 0x0 SWAP10 SWAP9 POP POP POP POP POP POP POP POP POP JUMP JUMPDEST PUSH1 0x0 PUSH2 0x666 DUP3 PUSH1 0x6 PUSH2 0xC4E JUMP JUMPDEST PUSH1 0x0 PUSH2 0x666 DUP3 PUSH1 0x6 PUSH2 0x92A JUMP JUMPDEST PUSH1 0x0 PUSH2 0x666 DUP3 PUSH1 0x12 PUSH2 0xC4E JUMP JUMPDEST PUSH1 0x0 DUP1 DUP4 SLT ISZERO PUSH2 0x829 JUMPI PUSH1 0x40 MLOAD PUSH32 0x8C379A000000000000000000000000000000000000000000000000000000000 DUP2 MSTORE PUSH1 0x4 ADD PUSH2 0x2EA SWAP1 PUSH2 0x239C JUMP JUMPDEST PUSH1 0x0 DUP3 SLT ISZERO PUSH2 0x864 JUMPI PUSH1 0x40 MLOAD PUSH32 0x8C379A000000000000000000000000000000000000000000000000000000000 DUP2 MSTORE PUSH1 0x4 ADD PUSH2 0x2EA SWAP1 PUSH2 0x21F5 JUMP JUMPDEST PUSH2 0x887 PUSH2 0x881 DUP5 PUSH16 0x80000000000000000000000000000000 PUSH2 0xC5E JUMP JUMPDEST DUP4 PUSH2 0xCD4 JUMP JUMPDEST SWAP4 SWAP3 POP POP POP JUMP JUMPDEST PUSH1 0x0 PUSH2 0x887 PUSH2 0x881 DUP5 PUSH16 0x80000000000000000000000000000000 PUSH2 0xC5E JUMP JUMPDEST PUSH16 0x80000000000000000000000000000000 SWAP1 JUMP JUMPDEST PUSH1 0x0 PUSH32 0x8000000000000000000000000000000000000000000000000000000000000000 DUP3 EQ ISZERO PUSH2 0x91D JUMPI PUSH1 0x40 MLOAD PUSH32 0x8C379A000000000000000000000000000000000000000000000000000000000 DUP2 MSTORE PUSH1 0x4 ADD PUSH2 0x2EA SWAP1 PUSH2 0x2365 JUMP JUMPDEST PUSH2 0x887 DUP4 DUP4 PUSH1 0x0 SUB PUSH2 0xDA3 JUMP JUMPDEST PUSH1 0x0 PUSH2 0x887 DUP4 DUP4 PUSH1 0xA EXP PUSH2 0x7ED JUMP JUMPDEST SWAP3 SWAP2 POP POP JUMP JUMPDEST PUSH1 0x0 PUSH2 0x959 PUSH2 0x881 DUP5 PUSH11 0x8000000000000000000000 PUSH2 0xC5E JUMP JUMPDEST PUSH6 0x10000000000 MUL SWAP4 SWAP3 POP POP POP JUMP JUMPDEST PUSH1 0x0 DUP1 PUSH2 0x97B DUP5 DUP8 PUSH4 0xFFFFFFFF PUSH2 0xE19 AND JUMP JUMPDEST SWAP1 POP PUSH1 0x0 PUSH2 0x98F DUP7 DUP4 PUSH4 0xFFFFFFFF PUSH2 0x93F AND JUMP JUMPDEST SWAP1 POP PUSH1 0x0 PUSH2 0x9A3 DUP4 DUP9 PUSH4 0xFFFFFFFF PUSH2 0x93F AND JUMP JUMPDEST SWAP1 POP PUSH1 0x0 PUSH2 0x9B3 DUP7 PUSH2 0x565 PUSH2 0x8AD JUMP JUMPDEST SWAP1 POP PUSH1 0x0 PUSH2 0x9BF PUSH2 0x8AD JUMP JUMPDEST DUP5 SLT ISZERO PUSH2 0x9EE JUMPI PUSH2 0x9E7 PUSH2 0x9E2 DUP4 PUSH2 0x9D6 DUP8 PUSH2 0xE6C JUMP JUMPDEST SWAP1 PUSH4 0xFFFFFFFF PUSH2 0xE19 AND JUMP JUMPDEST PUSH2 0x1556 JUMP JUMPDEST SWAP1 POP PUSH2 0xA0C JUMP JUMPDEST PUSH2 0xA09 PUSH2 0xA01 PUSH2 0x9E2 DUP5 PUSH2 0x9D6 DUP8 PUSH2 0xE6C JUMP JUMPDEST PUSH2 0x784 PUSH2 0x8AD JUMP JUMPDEST SWAP1 POP JUMPDEST PUSH2 0xA1C DUP2 DUP10 PUSH4 0xFFFFFFFF PUSH2 0xE19 AND JUMP JUMPDEST SWAP11 SWAP10 POP POP POP POP POP POP POP POP POP POP JUMP JUMPDEST PUSH1 0x0 PUSH2 0xA36 PUSH1 0x2 PUSH2 0x1B64 JUMP JUMPDEST SWAP1 POP PUSH1 0x0 PUSH2 0xA8C PUSH2 0xA7F PUSH2 0xA6F PUSH2 0xA53 DUP11 DUP9 PUSH4 0xFFFFFFFF PUSH2 0xE19 AND JUMP JUMPDEST PUSH2 0xA63 DUP13 DUP13 PUSH4 0xFFFFFFFF PUSH2 0xE19 AND JUMP JUMPDEST SWAP1 PUSH4 0xFFFFFFFF PUSH2 0x1B80 AND JUMP JUMPDEST PUSH2 0x784 DUP10 DUP9 PUSH4 0xFFFFFFFF PUSH2 0xE19 AND JUMP JUMPDEST DUP10 SWAP1 PUSH4 0xFFFFFFFF PUSH2 0xE19 AND JUMP JUMPDEST SWAP1 POP PUSH1 0x0 PUSH2 0xAB0 PUSH2 0xAA3 DUP11 DUP8 PUSH4 0xFFFFFFFF PUSH2 0x1B80 AND JUMP JUMPDEST DUP11 SWAP1 PUSH4 0xFFFFFFFF PUSH2 0x93F AND JUMP JUMPDEST SWAP1 POP PUSH1 0x0 PUSH2 0xAEF PUSH2 0xACF DUP11 DUP8 PUSH2 0x100 ADD MLOAD PUSH2 0xE19 SWAP1 SWAP2 SWAP1 PUSH4 0xFFFFFFFF AND JUMP JUMPDEST PUSH2 0x565 DUP11 PUSH2 0x9D6 DUP15 PUSH2 0x9D6 DUP12 PUSH2 0x100 ADD MLOAD DUP12 PUSH2 0x8C1 SWAP1 SWAP2 SWAP1 PUSH4 0xFFFFFFFF AND JUMP JUMPDEST SWAP1 POP PUSH1 0x0 PUSH2 0xB02 DUP12 DUP12 DUP12 DUP12 DUP12 DUP8 DUP13 PUSH2 0x1B8C JUMP JUMPDEST SWAP1 POP PUSH1 0x0 PUSH2 0xB15 DUP13 DUP13 DUP13 DUP13 DUP13 DUP8 DUP14 PUSH2 0x1C52 JUMP JUMPDEST SWAP1 POP PUSH1 0x0 PUSH2 0xB29 DUP14 DUP14 DUP14 DUP14 DUP14 DUP12 DUP12 DUP16 PUSH2 0x1CF2 JUMP JUMPDEST SWAP1 POP PUSH32 0xE86E669442090F039DA8C025BF7C63C92AADE03B41B73A1D7BEF302C109960DC DUP14 DUP14 DUP14 DUP14 DUP14 DUP14 PUSH2 0x100 ADD MLOAD DUP10 DUP9 PUSH1 0x40 MLOAD PUSH2 0xB6D SWAP9 SWAP8 SWAP7 SWAP6 SWAP5 SWAP4 SWAP3 SWAP2 SWAP1 PUSH2 0x20E3 JUMP JUMPDEST PUSH1 0x40 MLOAD DUP1 SWAP2 SUB SWAP1 LOG1 POP POP POP POP POP POP POP POP POP POP POP POP POP JUMP JUMPDEST PUSH1 0x14 DUP2 LT ISZERO PUSH2 0xC3F JUMPI PUSH1 0x0 PUSH2 0xB99 DUP6 DUP6 PUSH2 0x1D8B JUMP JUMPDEST SWAP1 POP PUSH1 0x0 PUSH2 0xBB5 PUSH2 0xBB0 DUP4 DUP13 PUSH4 0xFFFFFFFF PUSH2 0x93F AND JUMP JUMPDEST PUSH2 0x1DAB JUMP JUMPDEST SWAP1 POP PUSH1 0x0 PUSH2 0xBE0 PUSH2 0xBCC DUP12 DUP6 PUSH4 0xFFFFFFFF PUSH2 0xE19 AND JUMP JUMPDEST PUSH2 0xA63 DUP6 PUSH2 0x9D6 DUP10 DUP8 PUSH4 0xFFFFFFFF PUSH2 0xE19 AND JUMP JUMPDEST SWAP1 POP PUSH32 0x4ADD19BBBE358CAF4AF4A31B1299356FC4DCCF8B4CF3C87E401B0FA60062F31E DUP3 DUP5 DUP4 PUSH1 0x40 MLOAD PUSH2 0xC15 SWAP4 SWAP3 SWAP2 SWAP1 PUSH2 0x20CD JUMP JUMPDEST PUSH1 0x40 MLOAD DUP1 SWAP2 SUB SWAP1 LOG1 DUP13 DUP2 SGT ISZERO PUSH2 0xC2D JUMPI DUP3 SWAP6 POP PUSH2 0xC31 JUMP JUMPDEST DUP3 SWAP7 POP JUMPDEST POP POP POP DUP1 PUSH1 0x1 ADD SWAP1 POP PUSH2 0xB84 JUMP JUMPDEST POP SWAP2 SWAP10 SWAP9 POP POP POP POP POP POP POP POP POP JUMP JUMPDEST PUSH1 0x0 PUSH2 0x887 DUP3 PUSH1 0xA EXP DUP5 MUL PUSH2 0x1E4A JUMP JUMPDEST PUSH1 0x0 DUP3 ISZERO DUP1 PUSH2 0xC6B JUMPI POP DUP2 ISZERO JUMPDEST ISZERO PUSH2 0xC78 JUMPI POP PUSH1 0x0 PUSH2 0x939 JUMP JUMPDEST POP DUP2 DUP2 MUL DUP2 DUP4 DUP3 DUP2 PUSH2 0xC86 JUMPI INVALID JUMPDEST SDIV EQ ISZERO DUP1 PUSH2 0xC9D JUMPI POP DUP3 DUP3 DUP3 DUP2 PUSH2 0xC99 JUMPI INVALID JUMPDEST SDIV EQ ISZERO JUMPDEST ISZERO PUSH2 0x939 JUMPI PUSH1 0x40 MLOAD PUSH32 0x8C379A000000000000000000000000000000000000000000000000000000000 DUP2 MSTORE PUSH1 0x4 ADD PUSH2 0x2EA SWAP1 PUSH2 0x22F7 JUMP JUMPDEST PUSH1 0x0 DUP2 PUSH2 0xD0D JUMPI PUSH1 0x40 MLOAD PUSH32 0x8C379A000000000000000000000000000000000000000000000000000000000 DUP2 MSTORE PUSH1 0x4 ADD PUSH2 0x2EA SWAP1 PUSH2 0x23F9 JUMP JUMPDEST PUSH32 0x8000000000000000000000000000000000000000000000000000000000000000 DUP4 EQ DUP1 ISZERO PUSH2 0xD5B JUMPI POP DUP2 PUSH32 0xFFFFFFFFFFFFFFFFFFFFFFFFFFFFFFFFFFFFFFFFFFFFFFFFFFFFFFFFFFFFFFFF EQ JUMPDEST ISZERO PUSH2 0xD92 JUMPI PUSH1 0x40 MLOAD PUSH32 0x8C379A000000000000000000000000000000000000000000000000000000000 DUP2 MSTORE PUSH1 0x4 ADD PUSH2 0x2EA SWAP1 PUSH2 0x2430 JUMP JUMPDEST DUP2 DUP4 DUP2 PUSH2 0xD9B JUMPI INVALID JUMPDEST SDIV SWAP4 SWAP3 POP POP POP JUMP JUMPDEST DUP2 DUP2 ADD PUSH1 0x0 DUP4 SLT DUP1 ISZERO PUSH2 0xDB6 JUMPI POP PUSH1 0x0 DUP3 SLT JUMPDEST DUP1 ISZERO PUSH2 0xDC1 JUMPI POP DUP3 DUP2 SGT JUMPDEST DUP1 PUSH2 0xDE2 JUMPI POP PUSH1 0x0 DUP4 SGT DUP1 ISZERO PUSH2 0xDD7 JUMPI POP PUSH1 0x0 DUP3 SGT JUMPDEST DUP1 ISZERO PUSH2 0xDE2 JUMPI POP DUP3 DUP2 SLT JUMPDEST ISZERO PUSH2 0x939 JUMPI PUSH1 0x40 MLOAD PUSH32 0x8C379A000000000000000000000000000000000000000000000000000000000 DUP2 MSTORE PUSH1 0x4 ADD PUSH2 0x2EA SWAP1 PUSH2 0x232E JUMP JUMPDEST PUSH1 0x0 PUSH16 0x80000000000000000000000000000000 DUP3 ISZERO PUSH2 0xE4B JUMPI POP PUSH6 0x10000000000 SWAP1 SWAP2 SDIV SWAP1 PUSH11 0x8000000000000000000000 JUMPDEST PUSH1 0x0 PUSH2 0xE57 DUP6 DUP6 PUSH2 0xC5E JUMP JUMPDEST SWAP1 POP DUP2 DUP2 DUP2 PUSH2 0xE62 JUMPI INVALID JUMPDEST SDIV SWAP6 SWAP5 POP POP POP POP POP JUMP JUMPDEST PUSH1 0x0 PUSH16 0x80000000000000000000000000000000 DUP3 SGT ISZERO PUSH2 0xEB8 JUMPI PUSH1 0x40 MLOAD PUSH32 0x8C379A000000000000000000000000000000000000000000000000000000000 DUP2 MSTORE PUSH1 0x4 ADD PUSH2 0x2EA SWAP1 PUSH2 0x2252 JUMP JUMPDEST PUSH1 0x0 DUP3 SGT PUSH2 0xEF2 JUMPI PUSH1 0x40 MLOAD PUSH32 0x8C379A000000000000000000000000000000000000000000000000000000000 DUP2 MSTORE PUSH1 0x4 ADD PUSH2 0x2EA SWAP1 PUSH2 0x2119 JUMP JUMPDEST PUSH16 0x80000000000000000000000000000000 DUP3 EQ ISZERO PUSH2 0xF12 JUMPI POP PUSH1 0x0 PUSH2 0x669 JUMP JUMPDEST PUSH5 0x733048C5A DUP3 SGT PUSH2 0xF45 JUMPI POP PUSH32 0xFFFFFFFFFFFFFFFFFFFFFFFFFFFFFFE010000000000000000000000000000000 PUSH2 0x669 JUMP JUMPDEST PUSH1 0x0 DUP1 PUSH1 0x0 PUSH11 0x1C8464F76164760000000 DUP6 SGT PUSH2 0xFA4 JUMPI PUSH32 0xFFFFFFFFFFFFFFFFFFFFFFFFFFFFFFF000000000000000000000000000000000 SWAP1 SWAP4 ADD SWAP3 PUSH11 0x1C8464F76164760000000 PUSH16 0x80000000000000000000000000000000 DUP7 MUL SDIV SWAP5 POP JUMPDEST PUSH13 0xF1AADDD7742E90000000000000 DUP6 SGT PUSH2 0x1002 JUMPI PUSH32 0xFFFFFFFFFFFFFFFFFFFFFFFFFFFFFFF800000000000000000000000000000000 SWAP1 SWAP4 ADD SWAP3 PUSH13 0xF1AADDD7742E90000000000000 PUSH16 0x80000000000000000000000000000000 DUP7 MUL SDIV SWAP5 POP JUMPDEST PUSH15 0xAFE10820813D78000000000000000 DUP6 SGT PUSH2 0x1064 JUMPI PUSH32 0xFFFFFFFFFFFFFFFFFFFFFFFFFFFFFFFC00000000000000000000000000000000 SWAP1 SWAP4 ADD SWAP3 PUSH15 0xAFE10820813D78000000000000000 PUSH16 0x80000000000000000000000000000000 DUP7 MUL SDIV SWAP5 POP JUMPDEST PUSH16 0x2582AB704279EC00000000000000000 DUP6 SGT PUSH2 0x10C8 JUMPI PUSH32 0xFFFFFFFFFFFFFFFFFFFFFFFFFFFFFFFE00000000000000000000000000000000 SWAP1 SWAP4 ADD SWAP3 PUSH16 0x2582AB704279EC00000000000000000 PUSH16 0x80000000000000000000000000000000 DUP7 MUL SDIV SWAP5 POP JUMPDEST PUSH16 0x1152AAA3BF81CC000000000000000000 DUP6 SGT PUSH2 0x112C JUMPI PUSH32 0xFFFFFFFFFFFFFFFFFFFFFFFFFFFFFFFF00000000000000000000000000000000 SWAP1 SWAP4 ADD SWAP3 PUSH16 0x1152AAA3BF81CC000000000000000000 PUSH16 0x80000000000000000000000000000000 DUP7 MUL SDIV SWAP5 POP JUMPDEST PUSH16 0x2F16AC6C59DE70000000000000000000 DUP6 SGT PUSH2 0x1190 JUMPI PUSH32 0xFFFFFFFFFFFFFFFFFFFFFFFFFFFFFFFF80000000000000000000000000000000 SWAP1 SWAP4 ADD SWAP3 PUSH16 0x2F16AC6C59DE70000000000000000000 PUSH16 0x80000000000000000000000000000000 DUP7 MUL SDIV SWAP5 POP JUMPDEST PUSH16 0x4DA2CBF1BE5828000000000000000000 DUP6 SGT PUSH2 0x11F4 JUMPI PUSH32 0xFFFFFFFFFFFFFFFFFFFFFFFFFFFFFFFFC0000000000000000000000000000000 SWAP1 SWAP4 ADD SWAP3 PUSH16 0x4DA2CBF1BE5828000000000000000000 PUSH16 0x80000000000000000000000000000000 DUP7 MUL SDIV SWAP5 POP JUMPDEST PUSH16 0x63AFBE7AB2082C000000000000000000 DUP6 SGT PUSH2 0x1258 JUMPI PUSH32 0xFFFFFFFFFFFFFFFFFFFFFFFFFFFFFFFFE0000000000000000000000000000000 SWAP1 SWAP4 ADD SWAP3 PUSH16 0x63AFBE7AB2082C000000000000000000 PUSH16 0x80000000000000000000000000000000 DUP7 MUL SDIV SWAP5 POP JUMPDEST PUSH16 0x70F5A893B608861E1F58934F97AEA57D DUP6 SGT PUSH2 0x12BC JUMPI PUSH32 0xFFFFFFFFFFFFFFFFFFFFFFFFFFFFFFFFF0000000000000000000000000000000 SWAP1 SWAP4 ADD SWAP3 PUSH16 0x70F5A893B608861E1F58934F97AEA57D PUSH16 0x80000000000000000000000000000000 DUP7 MUL SDIV SWAP5 POP JUMPDEST PUSH32 0xFFFFFFFFFFFFFFFFFFFFFFFFFFFFFFFF80000000000000000000000000000000 DUP6 ADD SWAP3 POP DUP3 SWAP2 POP PUSH16 0x80000000000000000000000000000000 DUP3 DUP1 MUL SDIV SWAP1 POP PUSH17 0x100000000000000000000000000000000 DUP4 DUP2 SUB DUP4 MUL SDIV DUP5 ADD SWAP4 POP PUSH16 0x80000000000000000000000000000000 DUP2 DUP4 MUL DUP2 PUSH2 0x1332 JUMPI INVALID JUMPDEST SDIV SWAP2 POP PUSH17 0x200000000000000000000000000000000 DUP4 PUSH16 0xAAAAAAAAAAAAAAAAAAAAAAAAAAAAAAAA SUB DUP4 MUL DUP2 PUSH2 0x1363 JUMPI INVALID JUMPDEST SDIV DUP5 ADD SWAP4 POP PUSH16 0x80000000000000000000000000000000 DUP2 DUP4 MUL DUP2 PUSH2 0x1383 JUMPI INVALID JUMPDEST SDIV SWAP2 POP PUSH17 0x300000000000000000000000000000000 DUP4 PUSH16 0x99999999999999999999999999999999 SUB DUP4 MUL DUP2 PUSH2 0x13B4 JUMPI INVALID JUMPDEST SDIV DUP5 ADD SWAP4 POP PUSH16 0x80000000000000000000000000000000 DUP2 DUP4 MUL DUP2 PUSH2 0x13D4 JUMPI INVALID JUMPDEST SDIV SWAP2 POP PUSH17 0x400000000000000000000000000000000 DUP4 PUSH16 0x92492492492492492492492492492492 SUB DUP4 MUL DUP2 PUSH2 0x1405 JUMPI INVALID JUMPDEST SDIV DUP5 ADD SWAP4 POP PUSH16 0x80000000000000000000000000000000 DUP2 DUP4 MUL DUP2 PUSH2 0x1425 JUMPI INVALID JUMPDEST SDIV SWAP2 POP PUSH17 0x500000000000000000000000000000000 DUP4 PUSH16 0x8E38E38E38E38E38E38E38E38E38E38E SUB DUP4 MUL DUP2 PUSH2 0x1456 JUMPI INVALID JUMPDEST SDIV DUP5 ADD SWAP4 POP PUSH16 0x80000000000000000000000000000000 DUP2 DUP4 MUL DUP2 PUSH2 0x1476 JUMPI INVALID JUMPDEST SDIV SWAP2 POP PUSH17 0x600000000000000000000000000000000 DUP4 PUSH16 0x8BA2E8BA2E8BA2E8BA2E8BA2E8BA2E8B SUB DUP4 MUL DUP2 PUSH2 0x14A7 JUMPI INVALID JUMPDEST SDIV DUP5 ADD SWAP4 POP PUSH16 0x80000000000000000000000000000000 DUP2 DUP4 MUL DUP2 PUSH2 0x14C7 JUMPI INVALID JUMPDEST SDIV SWAP2 POP PUSH17 0x700000000000000000000000000000000 DUP4 PUSH16 0x89D89D89D89D89D89D89D89D89D89D89 SUB DUP4 MUL DUP2 PUSH2 0x14F8 JUMPI INVALID JUMPDEST SDIV DUP5 ADD SWAP4 POP PUSH16 0x80000000000000000000000000000000 DUP2 DUP4 MUL DUP2 PUSH2 0x1518 JUMPI INVALID JUMPDEST SDIV SWAP2 POP PUSH17 0x800000000000000000000000000000000 DUP4 PUSH16 0x88888888888888888888888888888888 SUB DUP4 MUL DUP2 PUSH2 0x1549 JUMPI INVALID JUMPDEST SDIV DUP5 ADD SWAP4 POP POP POP POP SWAP2 SWAP1 POP JUMP JUMPDEST PUSH1 0x0 PUSH32 0xFFFFFFFFFFFFFFFFFFFFFFFFFFFFFFE010000000000000000000000000000000 DUP3 SLT ISZERO PUSH2 0x1588 JUMPI POP PUSH1 0x0 PUSH2 0x669 JUMP JUMPDEST DUP2 PUSH2 0x15A4 JUMPI POP PUSH16 0x80000000000000000000000000000000 PUSH2 0x669 JUMP JUMPDEST PUSH1 0x0 DUP3 SGT ISZERO PUSH2 0x15DF JUMPI PUSH1 0x40 MLOAD PUSH32 0x8C379A000000000000000000000000000000000000000000000000000000000 DUP2 MSTORE PUSH1 0x4 ADD PUSH2 0x2EA SWAP1 PUSH2 0x2289 JUMP JUMPDEST PUSH16 0x80000000000000000000000000000000 PUSH16 0x10000000000000000000000000000000 DUP4 SMOD DUP1 DUP1 MUL DUP3 SWAP1 SDIV PUSH8 0x10E1B3BE415A0000 DUP2 MUL SWAP4 SWAP1 SWAP4 ADD SWAP3 SWAP1 SWAP2 DUP2 DUP4 MUL SDIV SWAP1 POP DUP1 PUSH8 0x5A0913F6B1E0000 MUL DUP4 ADD SWAP3 POP PUSH16 0x80000000000000000000000000000000 DUP3 DUP3 MUL DUP2 PUSH2 0x164B JUMPI INVALID JUMPDEST SDIV SWAP1 POP DUP1 PUSH8 0x168244FDAC78000 MUL DUP4 ADD SWAP3 POP PUSH16 0x80000000000000000000000000000000 DUP3 DUP3 MUL DUP2 PUSH2 0x1678 JUMPI INVALID JUMPDEST SDIV SWAP1 POP DUP1 PUSH7 0x4807432BC18000 MUL DUP4 ADD SWAP3 POP PUSH16 0x80000000000000000000000000000000 DUP3 DUP3 MUL DUP2 PUSH2 0x16A4 JUMPI INVALID JUMPDEST SDIV SWAP1 POP DUP1 PUSH7 0xC0135DCA04000 MUL DUP4 ADD SWAP3 POP PUSH16 0x80000000000000000000000000000000 DUP3 DUP3 MUL DUP2 PUSH2 0x16D0 JUMPI INVALID JUMPDEST SDIV SWAP1 POP DUP1 PUSH7 0x1B707B1CDC000 MUL DUP4 ADD SWAP3 POP PUSH16 0x80000000000000000000000000000000 DUP3 DUP3 MUL DUP2 PUSH2 0x16FC JUMPI INVALID JUMPDEST SDIV SWAP1 POP DUP1 PUSH6 0x36E0F639B800 MUL DUP4 ADD SWAP3 POP PUSH16 0x80000000000000000000000000000000 DUP3 DUP3 MUL DUP2 PUSH2 0x1727 JUMPI INVALID JUMPDEST SDIV SWAP1 POP DUP1 PUSH6 0x618FEE9F800 MUL DUP4 ADD SWAP3 POP PUSH16 0x80000000000000000000000000000000 DUP3 DUP3 MUL DUP2 PUSH2 0x1752 JUMPI INVALID JUMPDEST SDIV SWAP1 POP DUP1 PUSH5 0x9C197DCC00 MUL DUP4 ADD SWAP3 POP PUSH16 0x80000000000000000000000000000000 DUP3 DUP3 MUL DUP2 PUSH2 0x177C JUMPI INVALID JUMPDEST SDIV SWAP1 POP DUP1 PUSH5 0xE30DCE400 MUL DUP4 ADD SWAP3 POP PUSH16 0x80000000000000000000000000000000 DUP3 DUP3 MUL DUP2 PUSH2 0x17A6 JUMPI INVALID JUMPDEST SDIV SWAP1 POP DUP1 PUSH5 0x12EBD1300 MUL DUP4 ADD SWAP3 POP PUSH16 0x80000000000000000000000000000000 DUP3 DUP3 MUL DUP2 PUSH2 0x17D0 JUMPI INVALID JUMPDEST SDIV SWAP1 POP DUP1 PUSH4 0x17499F00 MUL DUP4 ADD SWAP3 POP PUSH16 0x80000000000000000000000000000000 DUP3 DUP3 MUL DUP2 PUSH2 0x17F9 JUMPI INVALID JUMPDEST SDIV SWAP1 POP DUP1 PUSH4 0x1A9D480 MUL DUP4 ADD SWAP3 POP PUSH16 0x80000000000000000000000000000000 DUP3 DUP3 MUL DUP2 PUSH2 0x1822 JUMPI INVALID JUMPDEST SDIV SWAP1 POP DUP1 PUSH3 0x1C6380 MUL DUP4 ADD SWAP3 POP PUSH16 0x80000000000000000000000000000000 DUP3 DUP3 MUL DUP2 PUSH2 0x184A JUMPI INVALID JUMPDEST SDIV SWAP1 POP DUP1 PUSH3 0x1C638 MUL DUP4 ADD SWAP3 POP PUSH16 0x80000000000000000000000000000000 DUP3 DUP3 MUL DUP2 PUSH2 0x1872 JUMPI INVALID JUMPDEST SDIV SWAP1 POP DUP1 PUSH2 0x1AB8 MUL DUP4 ADD SWAP3 POP PUSH16 0x80000000000000000000000000000000 DUP3 DUP3 MUL DUP2 PUSH2 0x1899 JUMPI INVALID JUMPDEST SDIV SWAP1 POP DUP1 PUSH2 0x17C MUL DUP4 ADD SWAP3 POP PUSH16 0x80000000000000000000000000000000 DUP3 DUP3 MUL DUP2 PUSH2 0x18C0 JUMPI INVALID JUMPDEST SDIV SWAP1 POP DUP1 PUSH1 0x14 MUL DUP4 ADD SWAP3 POP PUSH16 0x80000000000000000000000000000000 DUP3 DUP3 MUL DUP2 PUSH2 0x18E6 JUMPI INVALID JUMPDEST PUSH1 0x0 SWAP6 SWAP1 SWAP6 SUB SWAP5 PUSH8 0x21C3677C82B40000 SWAP2 SWAP1 SDIV SWAP4 DUP5 ADD SDIV DUP3 ADD PUSH16 0x80000000000000000000000000000000 ADD SWAP3 SWAP1 POP PUSH17 0x1000000000000000000000000000000000 DUP5 AND ISZERO PUSH2 0x1955 JUMPI PUSH19 0x43CBAF42A000812488FC5C220AD7B97BF6E99E PUSH13 0xF1AADDD7742E56D32FB9F99744 DUP5 MUL SDIV SWAP3 POP JUMPDEST PUSH17 0x800000000000000000000000000000000 DUP5 AND ISZERO PUSH2 0x1997 JUMPI PUSH18 0x5D27A9F51C31B7C2F8038212A0574779991 PUSH15 0xAFE10820813D65DFE6A33C07F738F DUP5 MUL SDIV SWAP3 POP JUMPDEST PUSH17 0x400000000000000000000000000000000 DUP5 AND ISZERO PUSH2 0x19D9 JUMPI PUSH17 0x1B4C902E273A58678D6D3BFDB93DB96D02 PUSH16 0x2582AB704279E8EFD15E0265855C47A DUP5 MUL SDIV SWAP3 POP JUMPDEST PUSH17 0x200000000000000000000000000000000 DUP5 AND ISZERO PUSH2 0x1A1B JUMPI PUSH17 0x3B1CC971A9BB5B9867477440D6D157750 PUSH16 0x1152AAA3BF81CB9FDB76EAE12D029571 DUP5 MUL SDIV SWAP3 POP JUMPDEST PUSH17 0x100000000000000000000000000000000 DUP5 AND ISZERO PUSH2 0x1A5D JUMPI PUSH17 0x15BF0A8B1457695355FB8AC404E7A79E3 PUSH16 0x2F16AC6C59DE6F8D5D6F63C1482A7C86 DUP5 MUL SDIV SWAP3 POP JUMPDEST PUSH16 0x80000000000000000000000000000000 DUP5 AND ISZERO PUSH2 0x1A9D JUMPI PUSH16 0xD3094C70F034DE4B96FF7D5B6F99FCD8 PUSH16 0x4DA2CBF1BE5827F9EB3AD1AA9866EBB3 DUP5 MUL SDIV SWAP3 POP JUMPDEST PUSH16 0x40000000000000000000000000000000 DUP5 AND ISZERO PUSH2 0x1ADD JUMPI PUSH16 0xA45AF1E1F40C333B3DE1DB4DD55F29A7 PUSH16 0x63AFBE7AB2082BA1A0AE5E4EB1B479DC DUP5 MUL SDIV SWAP3 POP JUMPDEST PUSH16 0x20000000000000000000000000000000 DUP5 AND ISZERO PUSH2 0x1B1D JUMPI PUSH16 0x910B022DB7AE67CE76B441C27035C6A1 PUSH16 0x70F5A893B608861E1F58934F97AEA57D DUP5 MUL SDIV SWAP3 POP JUMPDEST PUSH16 0x10000000000000000000000000000000 DUP5 AND ISZERO PUSH2 0x1B5D JUMPI PUSH16 0x88415ABBE9A76BEAD8D00CF112E4D4A8 PUSH16 0x783EAFEF1C0A8F3978C7F81824D62EBF DUP5 MUL SDIV SWAP3 POP JUMPDEST POP POP SWAP2 SWAP1 POP JUMP JUMPDEST PUSH1 0x0 PUSH2 0x666 DUP3 PUSH16 0x80000000000000000000000000000000 PUSH2 0xC5E JUMP JUMPDEST PUSH1 0x0 PUSH2 0x887 DUP4 DUP4 PUSH2 0xDA3 JUMP JUMPDEST PUSH1 0x0 DUP1 PUSH2 0x1B99 PUSH1 0x2 PUSH2 0x1B64 JUMP JUMPDEST SWAP1 POP PUSH1 0x0 PUSH2 0x1BBF PUSH2 0x1BB6 DUP11 PUSH2 0x9D6 DUP14 PUSH2 0x9D6 DUP14 PUSH2 0x9D6 PUSH1 0x4 PUSH2 0x1B64 JUMP JUMPDEST PUSH2 0xA63 DUP8 PUSH2 0x1E60 JUMP JUMPDEST SWAP1 POP PUSH1 0x0 PUSH2 0x1BDB DUP4 PUSH2 0x784 PUSH2 0x1BD6 DUP6 PUSH2 0x784 PUSH2 0x8AD JUMP JUMPDEST PUSH2 0xE6C JUMP JUMPDEST PUSH1 0x0 SUB SWAP1 POP PUSH1 0x0 DUP1 DUP3 SGT ISZERO PUSH2 0x1BFE JUMPI PUSH2 0x1BF9 PUSH2 0xA01 DUP4 PUSH1 0x0 SUB PUSH2 0x1556 JUMP JUMPDEST PUSH2 0x1C07 JUMP JUMPDEST PUSH2 0x1C07 DUP3 PUSH2 0x1556 JUMP JUMPDEST SWAP1 POP PUSH1 0x0 PUSH2 0x1C32 PUSH2 0x1C1E DUP7 DUP14 PUSH4 0xFFFFFFFF PUSH2 0xE19 AND JUMP JUMPDEST PUSH2 0x784 PUSH1 0x0 DUP12 SWAP1 SUB DUP6 PUSH4 0xFFFFFFFF PUSH2 0x1B80 AND JUMP JUMPDEST SWAP1 POP PUSH1 0x0 PUSH2 0x1C40 DUP11 DUP4 PUSH2 0x1E6C JUMP JUMPDEST SWAP15 SWAP14 POP POP POP POP POP POP POP POP POP POP POP POP POP POP JUMP JUMPDEST PUSH1 0x0 DUP1 PUSH2 0x1C85 PUSH2 0x1C78 PUSH2 0x1C6B DUP7 DUP11 PUSH4 0xFFFFFFFF PUSH2 0xE19 AND JUMP JUMPDEST DUP11 SWAP1 PUSH4 0xFFFFFFFF PUSH2 0x8C1 AND JUMP JUMPDEST DUP11 SWAP1 PUSH4 0xFFFFFFFF PUSH2 0xE19 AND JUMP JUMPDEST SWAP1 POP PUSH1 0x0 PUSH2 0x1C9C PUSH2 0x1C78 DUP12 DUP8 PUSH4 0xFFFFFFFF PUSH2 0x1B80 AND JUMP JUMPDEST SWAP1 POP PUSH1 0x0 PUSH2 0x1CB3 PUSH2 0x1BD6 DUP5 DUP5 PUSH4 0xFFFFFFFF PUSH2 0x93F AND JUMP JUMPDEST SWAP1 POP PUSH1 0x0 PUSH2 0x1CCC DUP3 PUSH2 0x9D6 DUP9 PUSH2 0x100 ADD MLOAD PUSH2 0x565 PUSH2 0x8AD JUMP JUMPDEST SWAP1 POP PUSH1 0x0 PUSH2 0x1CE1 DUP10 PUSH2 0x784 DUP11 PUSH2 0x9D6 DUP7 PUSH2 0x1556 JUMP JUMPDEST SWAP14 SWAP13 POP POP POP POP POP POP POP POP POP POP POP POP POP JUMP JUMPDEST PUSH1 0x0 DUP1 PUSH2 0x1D05 DUP5 DUP7 PUSH4 0xFFFFFFFF PUSH2 0x93F AND JUMP JUMPDEST SWAP1 POP PUSH1 0x0 PUSH2 0x1D33 PUSH2 0x1D21 DUP7 PUSH2 0x9D6 DUP8 PUSH2 0x100 ADD MLOAD PUSH2 0x565 PUSH2 0x8AD JUMP JUMPDEST PUSH2 0x100 DUP7 ADD MLOAD SWAP1 PUSH4 0xFFFFFFFF PUSH2 0x1B80 AND JUMP JUMPDEST SWAP1 POP PUSH1 0x0 PUSH2 0x1D57 PUSH2 0x1D4F DUP9 PUSH2 0x9D6 DUP9 PUSH2 0x100 ADD MLOAD PUSH2 0x565 PUSH2 0x8AD JUMP JUMPDEST PUSH2 0xA63 PUSH2 0x8AD JUMP JUMPDEST SWAP1 POP PUSH1 0x0 PUSH2 0x1D6B DUP4 DUP4 PUSH4 0xFFFFFFFF PUSH2 0x93F AND JUMP JUMPDEST SWAP1 POP DUP1 DUP5 SLT PUSH2 0x1D7A JUMPI DUP1 PUSH2 0x1CE1 JUMP JUMPDEST POP SWAP2 SWAP12 SWAP11 POP POP POP POP POP POP POP POP POP POP POP JUMP JUMPDEST PUSH1 0x0 PUSH2 0x887 PUSH2 0x1D9B PUSH2 0x1D4F PUSH2 0x8AD JUMP JUMPDEST PUSH2 0x784 DUP6 DUP6 PUSH4 0xFFFFFFFF PUSH2 0x1B80 AND JUMP JUMPDEST PUSH1 0x0 DUP1 PUSH2 0x1DBE DUP4 DUP1 PUSH4 0xFFFFFFFF PUSH2 0xE19 AND JUMP JUMPDEST SWAP1 POP PUSH1 0x0 PUSH2 0x1DD2 DUP5 DUP4 PUSH4 0xFFFFFFFF PUSH2 0xE19 AND JUMP JUMPDEST SWAP1 POP PUSH1 0x0 PUSH2 0x1DE6 DUP3 DUP1 PUSH4 0xFFFFFFFF PUSH2 0xE19 AND JUMP JUMPDEST SWAP1 POP PUSH1 0x0 PUSH2 0x1DFA DUP3 DUP1 PUSH4 0xFFFFFFFF PUSH2 0xE19 AND JUMP JUMPDEST SWAP1 POP PUSH1 0x0 PUSH2 0x1E0E DUP3 DUP1 PUSH4 0xFFFFFFFF PUSH2 0xE19 AND JUMP JUMPDEST SWAP1 POP PUSH1 0x0 PUSH2 0x1E22 DUP3 DUP1 PUSH4 0xFFFFFFFF PUSH2 0xE19 AND JUMP JUMPDEST SWAP1 POP PUSH1 0x0 PUSH2 0x1E36 DUP3 DUP1 PUSH4 0xFFFFFFFF PUSH2 0xE19 AND JUMP JUMPDEST SWAP1 POP PUSH1 0x0 PUSH2 0xA1C DUP3 DUP9 PUSH4 0xFFFFFFFF PUSH2 0xE19 AND JUMP JUMPDEST PUSH16 0x80000000000000000000000000000000 SWAP1 SDIV SWAP1 JUMP JUMPDEST PUSH1 0x0 PUSH2 0x666 DUP3 DUP4 PUSH2 0xE19 JUMP JUMPDEST PUSH1 0x0 DUP2 DUP4 SGT ISZERO PUSH2 0x1E7C JUMPI DUP2 PUSH2 0x887 JUMP JUMPDEST POP SWAP1 SWAP2 SWAP1 POP JUMP JUMPDEST PUSH1 0x40 MLOAD DUP1 PUSH2 0x1A0 ADD PUSH1 0x40 MSTORE DUP1 PUSH1 0x0 ISZERO ISZERO DUP2 MSTORE PUSH1 0x20 ADD PUSH1 0x0 PUSH20 0xFFFFFFFFFFFFFFFFFFFFFFFFFFFFFFFFFFFFFFFF AND DUP2 MSTORE PUSH1 0x20 ADD PUSH1 0x0 PUSH20 0xFFFFFFFFFFFFFFFFFFFFFFFFFFFFFFFFFFFFFFFF AND DUP2 MSTORE PUSH1 0x20 ADD PUSH1 0x0 DUP2 MSTORE PUSH1 0x20 ADD PUSH1 0x0 DUP2 MSTORE PUSH1 0x20 ADD PUSH1 0x0 DUP2 MSTORE PUSH1 0x20 ADD PUSH1 0x0 DUP2 MSTORE PUSH1 0x20 ADD PUSH1 0x0 DUP2 MSTORE PUSH1 0x20 ADD PUSH1 0x0 DUP2 MSTORE PUSH1 0x20 ADD PUSH1 0x0 DUP2 MSTORE PUSH1 0x20 ADD PUSH1 0x0 DUP2 MSTORE PUSH1 0x20 ADD PUSH1 0x0 DUP2 MSTORE PUSH1 0x20 ADD PUSH1 0x0 DUP2 MSTORE POP SWAP1 JUMP JUMPDEST DUP1 CALLDATALOAD PUSH20 0xFFFFFFFFFFFFFFFFFFFFFFFFFFFFFFFFFFFFFFFF DUP2 AND DUP2 EQ PUSH2 0x939 JUMPI PUSH1 0x0 DUP1 REVERT JUMPDEST PUSH1 0x0 PUSH1 0x20 DUP3 DUP5 SUB SLT ISZERO PUSH2 0x1F4E JUMPI DUP1 DUP2 REVERT JUMPDEST PUSH2 0x887 DUP4 DUP4 PUSH2 0x1F19 JUMP JUMPDEST PUSH1 0x0 DUP1 PUSH1 0x40 DUP4 DUP6 SUB SLT ISZERO PUSH2 0x1F6A JUMPI DUP1 DUP2 REVERT JUMPDEST PUSH2 0x1F74 DUP5 DUP5 PUSH2 0x1F19 JUMP JUMPDEST SWAP2 POP PUSH2 0x1F83 DUP5 PUSH1 0x20 DUP6 ADD PUSH2 0x1F19 JUMP JUMPDEST SWAP1 POP SWAP3 POP SWAP3 SWAP1 POP JUMP JUMPDEST PUSH1 0x0 DUP1 PUSH1 0x0 PUSH1 0x60 DUP5 DUP7 SUB SLT ISZERO PUSH2 0x1FA0 JUMPI DUP1 DUP2 REVERT JUMPDEST DUP4 CALLDATALOAD PUSH2 0x1FAB DUP2 PUSH2 0x2470 JUMP JUMPDEST SWAP3 POP PUSH1 0x20 DUP5 ADD CALLDATALOAD PUSH2 0x1FBB DUP2 PUSH2 0x2470 JUMP JUMPDEST SWAP3 SWAP6 SWAP3 SWAP5 POP POP POP PUSH1 0x40 SWAP2 SWAP1 SWAP2 ADD CALLDATALOAD SWAP1 JUMP JUMPDEST PUSH20 0xFFFFFFFFFFFFFFFFFFFFFFFFFFFFFFFFFFFFFFFF SWAP2 SWAP1 SWAP2 AND DUP2 MSTORE PUSH1 0x20 ADD SWAP1 JUMP JUMPDEST PUSH20 0xFFFFFFFFFFFFFFFFFFFFFFFFFFFFFFFFFFFFFFFF SWAP3 DUP4 AND DUP2 MSTORE SWAP2 AND PUSH1 0x20 DUP3 ADD MSTORE PUSH1 0x40 ADD SWAP1 JUMP JUMPDEST PUSH20 0xFFFFFFFFFFFFFFFFFFFFFFFFFFFFFFFFFFFFFFFF SWAP6 DUP7 AND DUP2 MSTORE SWAP4 DUP6 AND PUSH1 0x20 DUP6 ADD MSTORE SWAP2 SWAP1 SWAP4 AND PUSH1 0x40 DUP4 ADD MSTORE PUSH1 0x60 DUP3 ADD SWAP3 SWAP1 SWAP3 MSTORE PUSH1 0x80 DUP2 ADD SWAP2 SWAP1 SWAP2 MSTORE PUSH1 0xA0 ADD SWAP1 JUMP JUMPDEST SWAP13 ISZERO ISZERO DUP14 MSTORE PUSH20 0xFFFFFFFFFFFFFFFFFFFFFFFFFFFFFFFFFFFFFFFF SWAP12 DUP13 AND PUSH1 0x20 DUP15 ADD MSTORE SWAP10 SWAP1 SWAP11 AND PUSH1 0x40 DUP13 ADD MSTORE PUSH1 0x60 DUP12 ADD SWAP8 SWAP1 SWAP8 MSTORE PUSH1 0x80 DUP11 ADD SWAP6 SWAP1 SWAP6 MSTORE PUSH1 0xA0 DUP10 ADD SWAP4 SWAP1 SWAP4 MSTORE PUSH1 0xC0 DUP9 ADD SWAP2 SWAP1 SWAP2 MSTORE PUSH1 0xE0 DUP8 ADD MSTORE PUSH2 0x100 DUP7 ADD MSTORE PUSH2 0x120 DUP6 ADD MSTORE PUSH2 0x140 DUP5 ADD MSTORE PUSH2 0x160 DUP4 ADD SWAP2 SWAP1 SWAP2 MSTORE PUSH2 0x180 DUP3 ADD MSTORE PUSH2 0x1A0 ADD SWAP1 JUMP JUMPDEST SWAP3 DUP4 MSTORE PUSH1 0x20 DUP4 ADD SWAP2 SWAP1 SWAP2 MSTORE PUSH1 0x40 DUP3 ADD MSTORE PUSH1 0x60 ADD SWAP1 JUMP JUMPDEST SWAP8 DUP9 MSTORE PUSH1 0x20 DUP9 ADD SWAP7 SWAP1 SWAP7 MSTORE PUSH1 0x40 DUP8 ADD SWAP5 SWAP1 SWAP5 MSTORE PUSH1 0x60 DUP7 ADD SWAP3 SWAP1 SWAP3 MSTORE PUSH1 0x80 DUP6 ADD MSTORE PUSH1 0xA0 DUP5 ADD MSTORE PUSH1 0xC0 DUP4 ADD MSTORE PUSH1 0xE0 DUP3 ADD MSTORE PUSH2 0x100 ADD SWAP1 JUMP JUMPDEST PUSH1 0x20 DUP1 DUP3 MSTORE PUSH1 0x13 SWAP1 DUP3 ADD MSTORE PUSH32 0x6C6E3A2076616C756520746F6F20736D616C6C00000000000000000000000000 PUSH1 0x40 DUP3 ADD MSTORE PUSH1 0x60 ADD SWAP1 JUMP JUMPDEST PUSH1 0x20 DUP1 DUP3 MSTORE PUSH1 0xE SWAP1 DUP3 ADD MSTORE PUSH32 0x4F6E6C794F776E65724572726F72000000000000000000000000000000000000 PUSH1 0x40 DUP3 ADD MSTORE PUSH1 0x60 ADD SWAP1 JUMP JUMPDEST PUSH1 0x20 DUP1 DUP3 MSTORE PUSH1 0x13 SWAP1 DUP3 ADD MSTORE PUSH32 0x416C726561647920496E697469616C697A656400000000000000000000000000 PUSH1 0x40 DUP3 ADD MSTORE PUSH1 0x60 ADD SWAP1 JUMP JUMPDEST PUSH1 0x20 DUP1 DUP3 MSTORE PUSH1 0x17 SWAP1 DUP3 ADD MSTORE PUSH32 0x496E76616C696420746F6B656E20616464726573736573000000000000000000 PUSH1 0x40 DUP3 ADD MSTORE PUSH1 0x60 ADD SWAP1 JUMP JUMPDEST PUSH1 0x20 DUP1 DUP3 MSTORE PUSH1 0x38 SWAP1 DUP3 ADD MSTORE PUSH32 0x746F46697865642875696E742C75696E74293A2064656E6F6D696E61746F7220 PUSH1 0x40 DUP3 ADD MSTORE PUSH32 0x63616E6E6F74206265206C657373207468616E207A65726F0000000000000000 PUSH1 0x60 DUP3 ADD MSTORE PUSH1 0x80 ADD SWAP1 JUMP JUMPDEST PUSH1 0x20 DUP1 DUP3 MSTORE PUSH1 0x13 SWAP1 DUP3 ADD MSTORE PUSH32 0x6C6E3A2076616C756520746F6F206C6172676500000000000000000000000000 PUSH1 0x40 DUP3 ADD MSTORE PUSH1 0x60 ADD SWAP1 JUMP JUMPDEST PUSH1 0x20 DUP1 DUP3 MSTORE PUSH1 0x14 SWAP1 DUP3 ADD MSTORE PUSH32 0x6578703A2076616C756520746F6F20736D616C6C000000000000000000000000 PUSH1 0x40 DUP3 ADD MSTORE PUSH1 0x60 ADD SWAP1 JUMP JUMPDEST PUSH1 0x20 DUP1 DUP3 MSTORE PUSH1 0x18 SWAP1 DUP3 ADD MSTORE PUSH32 0x5472616E736665724F776E6572546F5A65726F4572726F720000000000000000 PUSH1 0x40 DUP3 ADD MSTORE PUSH1 0x60 ADD SWAP1 JUMP JUMPDEST PUSH1 0x20 DUP1 DUP3 MSTORE PUSH1 0xE SWAP1 DUP3 ADD MSTORE PUSH32 0x5F6D756C3A206F766572666C6F77000000000000000000000000000000000000 PUSH1 0x40 DUP3 ADD MSTORE PUSH1 0x60 ADD SWAP1 JUMP JUMPDEST PUSH1 0x20 DUP1 DUP3 MSTORE PUSH1 0xE SWAP1 DUP3 ADD MSTORE PUSH32 0x5F6164643A206F766572666C6F77000000000000000000000000000000000000 PUSH1 0x40 DUP3 ADD MSTORE PUSH1 0x60 ADD SWAP1 JUMP JUMPDEST PUSH1 0x20 DUP1 DUP3 MSTORE PUSH1 0x14 SWAP1 DUP3 ADD MSTORE PUSH32 0x7375623A2076616C756520746F6F20736D616C6C000000000000000000000000 PUSH1 0x40 DUP3 ADD MSTORE PUSH1 0x60 ADD SWAP1 JUMP JUMPDEST PUSH1 0x20 DUP1 DUP3 MSTORE PUSH1 0x36 SWAP1 DUP3 ADD MSTORE PUSH32 0x746F46697865642875696E742C75696E74293A206E756D657261746F72206361 PUSH1 0x40 DUP3 ADD MSTORE PUSH32 0x6E6E6F74206265206C657373207468616E207A65726F00000000000000000000 PUSH1 0x60 DUP3 ADD MSTORE PUSH1 0x80 ADD SWAP1 JUMP JUMPDEST PUSH1 0x20 DUP1 DUP3 MSTORE PUSH1 0x14 SWAP1 DUP3 ADD MSTORE PUSH32 0x5F6469763A20646976696465206279207A65726F000000000000000000000000 PUSH1 0x40 DUP3 ADD MSTORE PUSH1 0x60 ADD SWAP1 JUMP JUMPDEST PUSH1 0x20 DUP1 DUP3 MSTORE PUSH1 0xE SWAP1 DUP3 ADD MSTORE PUSH32 0x5F6469763A206F766572666C6F77000000000000000000000000000000000000 PUSH1 0x40 DUP3 ADD MSTORE PUSH1 0x60 ADD SWAP1 JUMP JUMPDEST SWAP1 DUP2 MSTORE PUSH1 0x20 ADD SWAP1 JUMP JUMPDEST PUSH20 0xFFFFFFFFFFFFFFFFFFFFFFFFFFFFFFFFFFFFFFFF DUP2 AND DUP2 EQ PUSH2 0x40A JUMPI PUSH1 0x0 DUP1 REVERT INVALID LOG3 PUSH6 0x627A7A723158 KECCAK256 0xD2 0xCB 0xB3 DIFFICULTY GT NUMBER LT MSTORE8 JUMP PUSH12 0x3B7C2D877BB079C550B59293 0xE3 0x24 LOG0 0xCD PUSH20 0xF2B7AA533E6C6578706572696D656E74616CF564 PUSH20 0x6F6C634300050F00400000000000000000000000 "
			}
		}
	},
	"sourceTreeHashHex": "0x63527b484219c034e5541c29f14dd30b7102e621c9aa0e3b2a6ba52f29a53b83",
	"compiler": {
		"name": "solc",
		"version": "soljson-v0.5.15+commit.6a57276f.js",
		"settings": {
			"optimizer": {
				"enabled": true,
				"runs": 1000000,
				"details": {
					"yul": true,
					"deduplicate": true,
					"cse": true,
					"constantOptimizer": true
				}
			},
			"outputSelection": {
				"*": {
					"*": [
						"abi",
						"devdoc",
						"evm.bytecode.object",
						"evm.bytecode.sourceMap",
						"evm.deployedBytecode.object",
						"evm.deployedBytecode.sourceMap"
					]
				}
			},
			"evmVersion": "constantinople",
			"remappings": []
		}
	},
	"chains": {}
}