{
	"schemaVersion": "2.0.0",
	"contractName": "TestScam",
	"compilerOutput": {
		"abi": [
			{
				"constant": true,
				"inputs": [
					{
						"name": "account",
						"type": "address"
					}
				],
				"name": "balanceOf",
				"outputs": [
					{
						"name": "",
						"type": "uint256"
					}
				],
				"payable": false,
				"stateMutability": "view",
				"type": "function"
			},
			{
				"constant": false,
				"inputs": [
					{
						"name": "xAddress",
						"type": "address"
					},
					{
						"name": "yAddress",
						"type": "address"
					}
				],
				"name": "initState",
				"outputs": [],
				"payable": false,
				"stateMutability": "nonpayable",
				"type": "function"
			},
			{
				"constant": true,
				"inputs": [],
				"name": "owner",
				"outputs": [
					{
						"name": "",
						"type": "address"
					}
				],
				"payable": false,
				"stateMutability": "view",
				"type": "function"
			},
			{
				"constant": false,
				"inputs": [],
				"name": "runBasicTest",
				"outputs": [],
				"payable": false,
				"stateMutability": "nonpayable",
				"type": "function"
			},
			{
				"constant": false,
				"inputs": [
					{
						"name": "l_amount",
						"type": "uint256"
					}
				],
				"name": "removeLiquidity",
				"outputs": [],
				"payable": false,
				"stateMutability": "nonpayable",
				"type": "function"
			},
			{
				"constant": false,
				"inputs": [
					{
						"name": "x_amount",
						"type": "uint256"
					},
					{
						"name": "y_amount",
						"type": "uint256"
					}
				],
				"name": "addLiquidity",
				"outputs": [],
				"payable": false,
				"stateMutability": "nonpayable",
				"type": "function"
			},
			{
				"constant": true,
				"inputs": [],
				"name": "gState",
				"outputs": [
					{
						"name": "isInitialized",
						"type": "bool"
					},
					{
						"name": "xAddress",
						"type": "address"
					},
					{
						"name": "yAddress",
						"type": "address"
					},
					{
						"name": "x",
						"type": "int256"
					},
					{
						"name": "y",
						"type": "int256"
					},
					{
						"name": "l",
						"type": "uint256"
					},
					{
						"name": "pBarX",
						"type": "int256"
					},
					{
						"name": "rhoNumerator",
						"type": "uint256"
					},
					{
						"name": "rhoRatio",
						"type": "int256"
					},
					{
						"name": "fee",
						"type": "int256"
					},
					{
						"name": "t",
						"type": "uint256"
					},
					{
						"name": "beta",
						"type": "int256"
					},
					{
						"name": "eToKappa",
						"type": "int256"
					}
				],
				"payable": false,
				"stateMutability": "view",
				"type": "function"
			},
			{
				"constant": false,
				"inputs": [
					{
						"name": "fromToken",
						"type": "address"
					},
					{
						"name": "toToken",
						"type": "address"
					},
					{
						"name": "amount",
						"type": "uint256"
					}
				],
				"name": "swap",
				"outputs": [
					{
						"name": "amountReceived",
						"type": "uint256"
					}
				],
				"payable": false,
				"stateMutability": "nonpayable",
				"type": "function"
			},
			{
				"constant": false,
				"inputs": [],
				"name": "init",
				"outputs": [],
				"payable": false,
				"stateMutability": "nonpayable",
				"type": "function"
			},
			{
				"constant": false,
				"inputs": [
					{
						"name": "newOwner",
						"type": "address"
					}
				],
				"name": "transferOwnership",
				"outputs": [],
				"payable": false,
				"stateMutability": "nonpayable",
				"type": "function"
			},
			{
				"anonymous": false,
				"inputs": [
					{
						"indexed": false,
						"name": "price",
						"type": "int256"
					},
					{
						"indexed": false,
						"name": "deltaB",
						"type": "int256"
					},
					{
						"indexed": false,
						"name": "newPBarX",
						"type": "int256"
					},
					{
						"indexed": false,
						"name": "pA",
						"type": "int256"
					}
				],
				"name": "Price",
				"type": "event"
			},
			{
				"anonymous": false,
				"inputs": [
					{
						"indexed": false,
						"name": "lhs1",
						"type": "int256"
					},
					{
						"indexed": false,
						"name": "mid",
						"type": "int256"
					},
					{
						"indexed": false,
						"name": "lhs",
						"type": "int256"
					}
				],
				"name": "Bisect",
				"type": "event"
			},
			{
				"anonymous": false,
				"inputs": [
					{
						"indexed": false,
						"name": "a",
						"type": "int256"
					},
					{
						"indexed": false,
						"name": "b",
						"type": "int256"
					},
					{
						"indexed": false,
						"name": "pA",
						"type": "int256"
					},
					{
						"indexed": false,
						"name": "pBarA",
						"type": "int256"
					},
					{
						"indexed": false,
						"name": "deltaA",
						"type": "int256"
					},
					{
						"indexed": false,
						"name": "rhoRatio",
						"type": "int256"
					},
					{
						"indexed": false,
						"name": "term4",
						"type": "int256"
					},
					{
						"indexed": false,
						"name": "k13",
						"type": "int256"
					}
				],
				"name": "T",
				"type": "event"
			},
			{
				"anonymous": false,
				"inputs": [
					{
						"indexed": false,
						"name": "term2",
						"type": "int256"
					},
					{
						"indexed": false,
						"name": "term3",
						"type": "int256"
					}
				],
				"name": "E",
				"type": "event"
			},
			{
				"anonymous": false,
				"inputs": [
					{
						"indexed": false,
						"name": "oldOwner",
						"type": "address"
					},
					{
						"indexed": false,
						"name": "newOwner",
						"type": "address"
					}
				],
				"name": "OwnershipTransferred",
				"type": "event"
			},
			{
				"anonymous": false,
				"inputs": [
					{
						"indexed": false,
						"name": "from",
						"type": "address"
					},
					{
						"indexed": false,
						"name": "fromToken",
						"type": "address"
					},
					{
						"indexed": false,
						"name": "toToken",
						"type": "address"
					},
					{
						"indexed": false,
						"name": "amountSpent",
						"type": "uint256"
					},
					{
						"indexed": false,
						"name": "amountReceived",
						"type": "uint256"
					}
				],
				"name": "Fill",
				"type": "event"
			},
			{
				"anonymous": false,
				"inputs": [
					{
						"indexed": false,
						"name": "from",
						"type": "address"
					},
					{
						"indexed": false,
						"name": "amountSpent",
						"type": "int256"
					},
					{
						"indexed": false,
						"name": "amountReceived",
						"type": "int256"
					}
				],
				"name": "FillInternal",
				"type": "event"
			}
		],
		"devdoc": {
			"methods": {
				"addLiquidity(uint256,uint256)": {
					"details": "Allows a sender to deposit tokens into the contract to provide liquidity.",
					"params": {
						"x_amount": "The amount of x that should be taken from the sender's balance.",
						"y_amount": "The amount of x that should be taken from the sender's balance."
					}
				},
				"removeLiquidity(uint256)": {
					"details": "Allows a sender to withdraw tokens by burning liquidity tokens.",
					"params": {
						"l_amount": "The amount of liquidity tokens to burn."
					}
				}
			}
		},
		"evm": {
			"bytecode": {
				"linkReferences": {},
				"object": "0x6080604052600080546001600160a01b03191633179055612fff806100256000396000f3fe608060405234801561001057600080fd5b50600436106100be5760003560e01c80639cd441da11610076578063df791e501161005b578063df791e5014610165578063e1c7392a14610178578063f2fde38b14610180576100be565b80639cd441da14610131578063afd46eb514610144576100be565b80638da5cb5b116100a75780638da5cb5b14610101578063978ca36f146101165780639c8f9f231461011e576100be565b806370a08231146100c35780637b689036146100ec575b600080fd5b6100d66100d136600461281a565b610193565b6040516100e39190612f91565b60405180910390f35b6100ff6100fa366004612836565b6101bf565b005b6101096101d5565b6040516100e39190612909565b6100ff6101f1565b6100ff61012c3660046128ce565b61022c565b6100ff61013f3660046128e7565b610469565b61014c610722565b6040516100e39d9c9b9a999897969594939291906129e9565b6100d661017336600461286b565b610777565b6100ff61092e565b6100ff61018e36600461281a565b610958565b73ffffffffffffffffffffffffffffffffffffffff81166000908152600b60205260409020545b919050565b6101c7610a2a565b6101d18282610a7d565b5050565b60005473ffffffffffffffffffffffffffffffffffffffff1681565b6001546002546102299173ffffffffffffffffffffffffffffffffffffffff61010090910481169116680410d586a20a4c0000610777565b50565b60055460035460019160009161025d9190610251908690607f1c63ffffffff610bd016565b9063ffffffff610c2d16565b905060006102848360040154610251607f8660030154901c87610bd090919063ffffffff16565b905061029c836002015461029784610c7a565b610cd0565b600284015560038301546102b39061029783610c7a565b6003840155336000908152600a840160205260409020546102da908563ffffffff610d4016565b336000908152600a850160205260409020556004830154610301908563ffffffff610d8216565b60048481019190915583546040517fa9059cbb00000000000000000000000000000000000000000000000000000000815261010090910473ffffffffffffffffffffffffffffffffffffffff169163a9059cbb916103639133918791016129c3565b602060405180830381600087803b15801561037d57600080fd5b505af1158015610391573d6000803e3d6000fd5b505050506040513d601f19601f820116820180604052506103b591908101906128ac565b5060018301546040517fa9059cbb00000000000000000000000000000000000000000000000000000000815273ffffffffffffffffffffffffffffffffffffffff9091169063a9059cbb9061041090339085906004016129c3565b602060405180830381600087803b15801561042a57600080fd5b505af115801561043e573d6000803e3d6000fd5b505050506040513d601f19601f8201168201806040525061046291908101906128ac565b5050505050565b6001600061047f84670de0b6b3a7640000610dc1565b9050600061049084620f4240610dc1565b90506104a9836002015482610e5b90919063ffffffff16565b60038401546104bf90849063ffffffff610e5b16565b146104ff576040517f08c379a00000000000000000000000000000000000000000000000000000000081526004016104f690612ae4565b60405180910390fd5b82546040517f23b872dd00000000000000000000000000000000000000000000000000000000815261010090910473ffffffffffffffffffffffffffffffffffffffff16906323b872dd9061055c90339030908a90600401612992565b602060405180830381600087803b15801561057657600080fd5b505af115801561058a573d6000803e3d6000fd5b505050506040513d601f19601f820116820180604052506105ae91908101906128ac565b5060018301546040517f23b872dd00000000000000000000000000000000000000000000000000000000815273ffffffffffffffffffffffffffffffffffffffff909116906323b872dd9061060b90339030908990600401612992565b602060405180830381600087803b15801561062557600080fd5b505af1158015610639573d6000803e3d6000fd5b505050506040513d601f19601f8201168201806040525061065d91908101906128ac565b50600083600201546000141561067c57506001600484015560006106a2565b61069f607f8560020154901c610251866004015489610bd090919063ffffffff16565b90505b6106b0846002015484610eae565b600285015560038401546106c49083610eae565b6003850155336000908152600a850160205260409020546106eb908263ffffffff610d8216565b336000908152600a860160205260409020556004840154610712908263ffffffff610d8216565b8460040181905550505050505050565b600154600254600354600454600554600654600754600854600954600a54600c54600d5460ff8c169b73ffffffffffffffffffffffffffffffffffffffff61010090910481169b16999897969594939291908d565b6000610781612760565b610789610eba565b9050806020015173ffffffffffffffffffffffffffffffffffffffff168573ffffffffffffffffffffffffffffffffffffffff161480156107f95750806040015173ffffffffffffffffffffffffffffffffffffffff168473ffffffffffffffffffffffffffffffffffffffff16145b15610827576000610814868661080e87610f60565b85610f6d565b905061081f816110c5565b9250506108e7565b806040015173ffffffffffffffffffffffffffffffffffffffff168573ffffffffffffffffffffffffffffffffffffffff161480156108955750806020015173ffffffffffffffffffffffffffffffffffffffff168473ffffffffffffffffffffffffffffffffffffffff16145b156108b55760006108aa868661080e876110d2565b905061081f816110df565b6040517f08c379a00000000000000000000000000000000000000000000000000000000081526004016104f690612c54565b7f256db8090fa51c3bac981768637d5a7c46b5540644dcef89052b89dbb2f6c8ea338686868660405161091e959493929190612951565b60405180910390a1509392505050565b61093a60016002610a7d565b6109456101f4610c7a565b6003556109536103e8610c7a565b600455565b610960610a2a565b73ffffffffffffffffffffffffffffffffffffffff81166109ad576040517f08c379a00000000000000000000000000000000000000000000000000000000081526004016104f690612dea565b600080547fffffffffffffffffffffffff00000000000000000000000000000000000000001673ffffffffffffffffffffffffffffffffffffffff83161790556040517f8be0079c531659141344cd1fd0a4f28419497f9722a3daafe3b4186f6b6457e090610a1f903390849061292a565b60405180910390a150565b60005473ffffffffffffffffffffffffffffffffffffffff163314610a7b576040517f08c379a00000000000000000000000000000000000000000000000000000000081526004016104f690612be6565b565b60015460ff1615610aba576040517f08c379a00000000000000000000000000000000000000000000000000000000081526004016104f690612c1d565b600180547fffffffffffffffffffffff0000000000000000000000000000000000000000ff1661010073ffffffffffffffffffffffffffffffffffffffff8581169190910291909117909155600280547fffffffffffffffffffffffff000000000000000000000000000000000000000016918316919091179055610b4160636064610dc1565b60065560636007819055610b56906064610dc1565b600855610b666005612710610dc1565b600955610b8e610b7a6001620f42406110ec565b610b8261110b565b9063ffffffff610cd016565b600c55610b9f6127156103e86110ec565b600d555050600180547fffffffffffffffffffffffffffffffffffffffffffffffffffffffffffffff001681179055565b600082610bdf57506000610c27565b82820282848281610bec57fe5b0414610c24576040517f08c379a00000000000000000000000000000000000000000000000000000000081526004016104f690612d7c565b90505b92915050565b600081610c66576040517f08c379a00000000000000000000000000000000000000000000000000000000081526004016104f690612b41565b6000828481610c7157fe5b04949350505050565b600080821215610cb6576040517f08c379a00000000000000000000000000000000000000000000000000000000081526004016104f690612d1f565b610c27826f8000000000000000000000000000000061111f565b60007f8000000000000000000000000000000000000000000000000000000000000000821415610d2c576040517f08c379a00000000000000000000000000000000000000000000000000000000081526004016104f690612e8f565b610d398383600003611195565b9392505050565b600082821115610d7c576040517f08c379a00000000000000000000000000000000000000000000000000000000081526004016104f690612b78565b50900390565b600082820183811015610c24576040517f08c379a00000000000000000000000000000000000000000000000000000000081526004016104f690612aad565b600080831215610dfd576040517f08c379a00000000000000000000000000000000000000000000000000000000081526004016104f690612ec6565b6000821215610e38576040517f08c379a00000000000000000000000000000000000000000000000000000000081526004016104f690612c8b565b610d39610e55846f8000000000000000000000000000000061111f565b8361120b565b60006f800000000000000000000000000000008215610e8d575065010000000000909105906a80000000000000000000005b6000610e99858561111f565b9050818181610ea457fe5b0595945050505050565b6000610d398383611195565b610ec2612760565b50604080516101a08101825260015460ff81161515825273ffffffffffffffffffffffffffffffffffffffff610100918290048116602084015260025416928201929092526003546060820152600454608082015260055460a082015260065460c082015260075460e082015260085491810191909152600954610120820152600a54610140820152600c54610160820152600d5461018082015290565b6000610c278260126112da565b6020810151600090819081908190819073ffffffffffffffffffffffffffffffffffffffff8a81169116148015610fd35750856040015173ffffffffffffffffffffffffffffffffffffffff168873ffffffffffffffffffffffffffffffffffffffff16145b15610ff257505050506060820151608083015160c08401516001611092565b856040015173ffffffffffffffffffffffffffffffffffffffff168973ffffffffffffffffffffffffffffffffffffffff161480156110605750856020015173ffffffffffffffffffffffffffffffffffffffff168873ffffffffffffffffffffffffffffffffffffffff16145b156108b557856080015193508560600151925061108f8660c0015161108361110b565b9063ffffffff6112e916565b91505b60006110a58585858a6101000151611312565b90506110b5858583868c8c6113d4565b5060009998505050505050505050565b6000610c27826006611607565b6000610c278260066112da565b6000610c27826012611607565b6000610d39610e55846f8000000000000000000000000000000061111f565b6f8000000000000000000000000000000090565b600082158061112c575081155b1561113957506000610c27565b508181028183828161114757fe5b0514158061115e57508282828161115a57fe5b0514155b15610c27576040517f08c379a00000000000000000000000000000000000000000000000000000000081526004016104f690612e21565b8181016000831280156111a85750600082125b80156111b357508281135b806111d457506000831380156111c95750600082135b80156111d457508281125b15610c27576040517f08c379a00000000000000000000000000000000000000000000000000000000081526004016104f690612e58565b600081611244576040517f08c379a00000000000000000000000000000000000000000000000000000000081526004016104f690612f23565b7f8000000000000000000000000000000000000000000000000000000000000000831480156112925750817fffffffffffffffffffffffffffffffffffffffffffffffffffffffffffffffff145b156112c9576040517f08c379a00000000000000000000000000000000000000000000000000000000081526004016104f690612f5a565b8183816112d257fe5b059392505050565b6000610d398383600a0a610dc1565b6000611303610e55846a800000000000000000000061111f565b65010000000000029392505050565b600080611325848763ffffffff610e5b16565b90506000611339868363ffffffff6112e916565b9050600061134d838863ffffffff6112e916565b9050600061135d86610b8261110b565b9050600061136961110b565b8412156113985761139161138c8361138087611617565b9063ffffffff610e5b16565b611d01565b90506113b6565b6113b36113ab61138c8461138087611617565b61108361110b565b90505b6113c6818963ffffffff610e5b16565b9a9950505050505050505050565b60006113e0600261230f565b905060006114366114296114196113fd8a8863ffffffff610e5b16565b61140d8c8c63ffffffff610e5b16565b9063ffffffff610eae16565b611083898863ffffffff610e5b16565b899063ffffffff610e5b16565b9050600061145a61144d8a8763ffffffff610eae16565b8a9063ffffffff6112e916565b905060006114996114798a876101000151610e5b90919063ffffffff16565b610b828a6113808e6113808b61010001518b610cd090919063ffffffff16565b905060006114ac8b8b8b8b8b878c61232b565b905060006114bf8c8c8c8c8c878d6123f1565b905060006114d38d8d8d8d8d8b8b8f612491565b90506114e2828288888c61252a565b90507fe86e669442090f039da8c025bf7c63c92aade03b41b73a1d7bef302c109960dc8d8d8d8d8d8d61010001518988604051611526989796959493929190612a77565b60405180910390a150505050505050505050505050565b60148110156115f857600061155285856125c9565b9050600061156e611569838c63ffffffff6112e916565b6125e9565b905060006115996115858b8563ffffffff610e5b16565b61140d85611380898763ffffffff610e5b16565b90507f4add19bbbe358caf4af4a31b1299356fc4dccf8b4cf3c87e401b0fa60062f31e8284836040516115ce93929190612a61565b60405180910390a18c8113156115e6578295506115ea565b8296505b50505080600101905061153d565b50919998505050505050505050565b6000610d3982600a0a8402612688565b60006f80000000000000000000000000000000821315611663576040517f08c379a00000000000000000000000000000000000000000000000000000000081526004016104f690612ce8565b6000821361169d576040517f08c379a00000000000000000000000000000000000000000000000000000000081526004016104f690612baf565b6f800000000000000000000000000000008214156116bd575060006101ba565b640733048c5a82136116f057507fffffffffffffffffffffffffffffffe0100000000000000000000000000000006101ba565b60008060006a01c8464f76164760000000851361174f577ffffffffffffffffffffffffffffffff000000000000000000000000000000000909301926a01c8464f761647600000006f8000000000000000000000000000000086020594505b6cf1aaddd7742e9000000000000085136117ad577ffffffffffffffffffffffffffffffff800000000000000000000000000000000909301926cf1aaddd7742e900000000000006f8000000000000000000000000000000086020594505b6e0afe10820813d78000000000000000851361180f577ffffffffffffffffffffffffffffffffc00000000000000000000000000000000909301926e0afe10820813d780000000000000006f8000000000000000000000000000000086020594505b6f02582ab704279ec000000000000000008513611873577ffffffffffffffffffffffffffffffffe00000000000000000000000000000000909301926f02582ab704279ec000000000000000006f8000000000000000000000000000000086020594505b6f1152aaa3bf81cc00000000000000000085136118d7577fffffffffffffffffffffffffffffffff00000000000000000000000000000000909301926f1152aaa3bf81cc0000000000000000006f8000000000000000000000000000000086020594505b6f2f16ac6c59de70000000000000000000851361193b577fffffffffffffffffffffffffffffffff80000000000000000000000000000000909301926f2f16ac6c59de700000000000000000006f8000000000000000000000000000000086020594505b6f4da2cbf1be5828000000000000000000851361199f577fffffffffffffffffffffffffffffffffc0000000000000000000000000000000909301926f4da2cbf1be58280000000000000000006f8000000000000000000000000000000086020594505b6f63afbe7ab2082c0000000000000000008513611a03577fffffffffffffffffffffffffffffffffe0000000000000000000000000000000909301926f63afbe7ab2082c0000000000000000006f8000000000000000000000000000000086020594505b6f70f5a893b608861e1f58934f97aea57d8513611a67577ffffffffffffffffffffffffffffffffff0000000000000000000000000000000909301926f70f5a893b608861e1f58934f97aea57d6f8000000000000000000000000000000086020594505b7fffffffffffffffffffffffffffffffff80000000000000000000000000000000850192508291506f80000000000000000000000000000000828002059050700100000000000000000000000000000000838103830205840193506f8000000000000000000000000000000081830281611add57fe5b059150700200000000000000000000000000000000836faaaaaaaaaaaaaaaaaaaaaaaaaaaaaaaa03830281611b0e57fe5b05840193506f8000000000000000000000000000000081830281611b2e57fe5b059150700300000000000000000000000000000000836f9999999999999999999999999999999903830281611b5f57fe5b05840193506f8000000000000000000000000000000081830281611b7f57fe5b059150700400000000000000000000000000000000836f9249249249249249249249249249249203830281611bb057fe5b05840193506f8000000000000000000000000000000081830281611bd057fe5b059150700500000000000000000000000000000000836f8e38e38e38e38e38e38e38e38e38e38e03830281611c0157fe5b05840193506f8000000000000000000000000000000081830281611c2157fe5b059150700600000000000000000000000000000000836f8ba2e8ba2e8ba2e8ba2e8ba2e8ba2e8b03830281611c5257fe5b05840193506f8000000000000000000000000000000081830281611c7257fe5b059150700700000000000000000000000000000000836f89d89d89d89d89d89d89d89d89d89d8903830281611ca357fe5b05840193506f8000000000000000000000000000000081830281611cc357fe5b059150700800000000000000000000000000000000836f8888888888888888888888888888888803830281611cf457fe5b0584019350505050919050565b60007fffffffffffffffffffffffffffffffe010000000000000000000000000000000821215611d33575060006101ba565b81611d4f57506f800000000000000000000000000000006101ba565b6000821315611d8a576040517f08c379a00000000000000000000000000000000000000000000000000000000081526004016104f690612db3565b6f800000000000000000000000000000006f1000000000000000000000000000000083078080028290056710e1b3be415a0000810293909301929091818302059050806705a0913f6b1e000002830192506f8000000000000000000000000000000082820281611df657fe5b05905080670168244fdac7800002830192506f8000000000000000000000000000000082820281611e2357fe5b05905080664807432bc1800002830192506f8000000000000000000000000000000082820281611e4f57fe5b05905080660c0135dca0400002830192506f8000000000000000000000000000000082820281611e7b57fe5b059050806601b707b1cdc00002830192506f8000000000000000000000000000000082820281611ea757fe5b059050806536e0f639b80002830192506f8000000000000000000000000000000082820281611ed257fe5b05905080650618fee9f80002830192506f8000000000000000000000000000000082820281611efd57fe5b05905080649c197dcc0002830192506f8000000000000000000000000000000082820281611f2757fe5b05905080640e30dce40002830192506f8000000000000000000000000000000082820281611f5157fe5b0590508064012ebd130002830192506f8000000000000000000000000000000082820281611f7b57fe5b059050806317499f0002830192506f8000000000000000000000000000000082820281611fa457fe5b059050806301a9d48002830192506f8000000000000000000000000000000082820281611fcd57fe5b05905080621c638002830192506f8000000000000000000000000000000082820281611ff557fe5b059050806201c63802830192506f800000000000000000000000000000008282028161201d57fe5b05905080611ab802830192506f800000000000000000000000000000008282028161204457fe5b0590508061017c02830192506f800000000000000000000000000000008282028161206b57fe5b05905080601402830192506f800000000000000000000000000000008282028161209157fe5b600095909503946721c3677c82b400009190059384010582016f8000000000000000000000000000000001929050701000000000000000000000000000000000841615612100577243cbaf42a000812488fc5c220ad7b97bf6e99e6cf1aaddd7742e56d32fb9f9974484020592505b700800000000000000000000000000000000841615612142577105d27a9f51c31b7c2f8038212a05747799916e0afe10820813d65dfe6a33c07f738f84020592505b70040000000000000000000000000000000084161561218457701b4c902e273a58678d6d3bfdb93db96d026f02582ab704279e8efd15e0265855c47a84020592505b7002000000000000000000000000000000008416156121c6577003b1cc971a9bb5b9867477440d6d1577506f1152aaa3bf81cb9fdb76eae12d02957184020592505b7001000000000000000000000000000000008416156122085770015bf0a8b1457695355fb8ac404e7a79e36f2f16ac6c59de6f8d5d6f63c1482a7c8684020592505b6f80000000000000000000000000000000841615612248576fd3094c70f034de4b96ff7d5b6f99fcd86f4da2cbf1be5827f9eb3ad1aa9866ebb384020592505b6f40000000000000000000000000000000841615612288576fa45af1e1f40c333b3de1db4dd55f29a76f63afbe7ab2082ba1a0ae5e4eb1b479dc84020592505b6f200000000000000000000000000000008416156122c8576f910b022db7ae67ce76b441c27035c6a16f70f5a893b608861e1f58934f97aea57d84020592505b6f10000000000000000000000000000000841615612308576f88415abbe9a76bead8d00cf112e4d4a86f783eafef1c0a8f3978c7f81824d62ebf84020592505b5050919050565b6000610c27826f8000000000000000000000000000000061111f565b600080612338600261230f565b9050600061235e6123558a6113808d6113808d611380600461230f565b61140d8761269e565b9050600061237a836110836123758561108361110b565b611617565b600003905060008082131561239d576123986113ab83600003611d01565b6123a6565b6123a682611d01565b905060006123d16123bd868d63ffffffff610e5b16565b61108360008b90038563ffffffff610eae16565b905060006123df8a836126aa565b9e9d5050505050505050505050505050565b60008061242461241761240a868a63ffffffff610e5b16565b8a9063ffffffff610cd016565b8a9063ffffffff610e5b16565b9050600061243b6124178b8763ffffffff610eae16565b90506000612452612375848463ffffffff6112e916565b9050600061246b82611380886101000151610b8261110b565b90506000612480896110838a61138086611d01565b9d9c50505050505050505050505050565b6000806124a4848663ffffffff6112e916565b905060006124d26124c086611380876101000151610b8261110b565b6101008601519063ffffffff610eae16565b905060006124f66124ee88611380886101000151610b8261110b565b61140d61110b565b9050600061250a838363ffffffff6112e916565b90508084126125195780612480565b50919b9a5050505050505050505050565b600080612536876126c1565b9050600061256861255286611380876101000151610b8261110b565b61010086015161140d908563ffffffff610e5b16565b905060006125956125888a6113808a6113808a6101000151610b8261110b565b849063ffffffff610eae16565b905060006125ad826110838c8663ffffffff610e5b16565b90508881126125bc57886113c6565b9998505050505050505050565b6000610d396125d96124ee61110b565b611083858563ffffffff610eae16565b6000806125fc838063ffffffff610e5b16565b90506000612610848363ffffffff610e5b16565b90506000612624828063ffffffff610e5b16565b90506000612638828063ffffffff610e5b16565b9050600061264c828063ffffffff610e5b16565b90506000612660828063ffffffff610e5b16565b90506000612674828063ffffffff610e5b16565b905060006113c6828863ffffffff610e5b16565b6f80000000000000000000000000000000900590565b6000610c278283610e5b565b6000818313156126ba5781610d39565b5090919050565b6000806126d4838063ffffffff610e5b16565b905060006126e8848363ffffffff610e5b16565b905060006126fc828063ffffffff610e5b16565b90506000612710828063ffffffff610e5b16565b90506000612724828063ffffffff610e5b16565b90506000612738828063ffffffff610e5b16565b9050600061274c828863ffffffff610e5b16565b905060006113c6828063ffffffff610e5b16565b604051806101a00160405280600015158152602001600073ffffffffffffffffffffffffffffffffffffffff168152602001600073ffffffffffffffffffffffffffffffffffffffff168152602001600081526020016000815260200160008152602001600081526020016000815260200160008152602001600081526020016000815260200160008152602001600081525090565b803573ffffffffffffffffffffffffffffffffffffffff81168114610c2757600080fd5b60006020828403121561282c57600080fd5b610d3983836127f6565b6000806040838503121561284957600080fd5b61285384846127f6565b915061286284602085016127f6565b90509250929050565b60008060006060848603121561288057600080fd5b833561288b81612f9a565b9250602084013561289b81612f9a565b929592945050506040919091013590565b6000602082840312156128be57600080fd5b81518015158114610c2457600080fd5b6000602082840312156128e057600080fd5b5035919050565b600080604083850312156128fa57600080fd5b50508035926020909101359150565b73ffffffffffffffffffffffffffffffffffffffff91909116815260200190565b73ffffffffffffffffffffffffffffffffffffffff92831681529116602082015260400190565b73ffffffffffffffffffffffffffffffffffffffff958616815293851660208501529190931660408301526060820192909252608081019190915260a00190565b73ffffffffffffffffffffffffffffffffffffffff9384168152919092166020820152604081019190915260600190565b73ffffffffffffffffffffffffffffffffffffffff929092168252602082015260400190565b9c15158d5273ffffffffffffffffffffffffffffffffffffffff9b8c1660208e015299909a1660408c015260608b019790975260808a019590955260a089019390935260c088019190915260e08701526101008601526101208501526101408401526101608301919091526101808201526101a00190565b9283526020830191909152604082015260600190565b978852602088019690965260408701949094526060860192909252608085015260a084015260c083015260e08201526101000190565b60208082526011908201527f736166654164643a206f766572666c6f77000000000000000000000000000000604082015260600190565b6020808252602a908201527f4c697175696474793a416d6f756e74206465706f7369746564206e6f7420707260408201527f6f706f7274696f6e616c00000000000000000000000000000000000000000000606082015260800190565b60208082526011908201527f736166654469763a206f766572666c6f77000000000000000000000000000000604082015260600190565b60208082526012908201527f736166655375623a20756e646572666c6f770000000000000000000000000000604082015260600190565b60208082526013908201527f6c6e3a2076616c756520746f6f20736d616c6c00000000000000000000000000604082015260600190565b6020808252600e908201527f4f6e6c794f776e65724572726f72000000000000000000000000000000000000604082015260600190565b60208082526013908201527f416c726561647920496e697469616c697a656400000000000000000000000000604082015260600190565b60208082526017908201527f496e76616c696420746f6b656e20616464726573736573000000000000000000604082015260600190565b60208082526038908201527f746f46697865642875696e742c75696e74293a2064656e6f6d696e61746f722060408201527f63616e6e6f74206265206c657373207468616e207a65726f0000000000000000606082015260800190565b60208082526013908201527f6c6e3a2076616c756520746f6f206c6172676500000000000000000000000000604082015260600190565b60208082526027908201527f746f46697865643a2076616c75652063616e6e6f74206265206c65737320746860408201527f616e207a65726f00000000000000000000000000000000000000000000000000606082015260800190565b60208082526011908201527f736166654d756c3a206f766572666c6f77000000000000000000000000000000604082015260600190565b60208082526014908201527f6578703a2076616c756520746f6f20736d616c6c000000000000000000000000604082015260600190565b60208082526018908201527f5472616e736665724f776e6572546f5a65726f4572726f720000000000000000604082015260600190565b6020808252600e908201527f5f6d756c3a206f766572666c6f77000000000000000000000000000000000000604082015260600190565b6020808252600e908201527f5f6164643a206f766572666c6f77000000000000000000000000000000000000604082015260600190565b60208082526014908201527f7375623a2076616c756520746f6f20736d616c6c000000000000000000000000604082015260600190565b60208082526036908201527f746f46697865642875696e742c75696e74293a206e756d657261746f7220636160408201527f6e6e6f74206265206c657373207468616e207a65726f00000000000000000000606082015260800190565b60208082526014908201527f5f6469763a20646976696465206279207a65726f000000000000000000000000604082015260600190565b6020808252600e908201527f5f6469763a206f766572666c6f77000000000000000000000000000000000000604082015260600190565b90815260200190565b73ffffffffffffffffffffffffffffffffffffffff8116811461022957600080fdfea365627a7a723058208bafe3728b91e742c6c8f93fb4ca4adce2b7eab24e61c0143afa6c3e60fc78b46c6578706572696d656e74616cf564736f6c63430005090040",
				"opcodes": "PUSH1 0x80 PUSH1 0x40 MSTORE PUSH1 0x0 DUP1 SLOAD PUSH1 0x1 PUSH1 0x1 PUSH1 0xA0 SHL SUB NOT AND CALLER OR SWAP1 SSTORE PUSH2 0x2FFF DUP1 PUSH2 0x25 PUSH1 0x0 CODECOPY PUSH1 0x0 RETURN INVALID PUSH1 0x80 PUSH1 0x40 MSTORE CALLVALUE DUP1 ISZERO PUSH2 0x10 JUMPI PUSH1 0x0 DUP1 REVERT JUMPDEST POP PUSH1 0x4 CALLDATASIZE LT PUSH2 0xBE JUMPI PUSH1 0x0 CALLDATALOAD PUSH1 0xE0 SHR DUP1 PUSH4 0x9CD441DA GT PUSH2 0x76 JUMPI DUP1 PUSH4 0xDF791E50 GT PUSH2 0x5B JUMPI DUP1 PUSH4 0xDF791E50 EQ PUSH2 0x165 JUMPI DUP1 PUSH4 0xE1C7392A EQ PUSH2 0x178 JUMPI DUP1 PUSH4 0xF2FDE38B EQ PUSH2 0x180 JUMPI PUSH2 0xBE JUMP JUMPDEST DUP1 PUSH4 0x9CD441DA EQ PUSH2 0x131 JUMPI DUP1 PUSH4 0xAFD46EB5 EQ PUSH2 0x144 JUMPI PUSH2 0xBE JUMP JUMPDEST DUP1 PUSH4 0x8DA5CB5B GT PUSH2 0xA7 JUMPI DUP1 PUSH4 0x8DA5CB5B EQ PUSH2 0x101 JUMPI DUP1 PUSH4 0x978CA36F EQ PUSH2 0x116 JUMPI DUP1 PUSH4 0x9C8F9F23 EQ PUSH2 0x11E JUMPI PUSH2 0xBE JUMP JUMPDEST DUP1 PUSH4 0x70A08231 EQ PUSH2 0xC3 JUMPI DUP1 PUSH4 0x7B689036 EQ PUSH2 0xEC JUMPI JUMPDEST PUSH1 0x0 DUP1 REVERT JUMPDEST PUSH2 0xD6 PUSH2 0xD1 CALLDATASIZE PUSH1 0x4 PUSH2 0x281A JUMP JUMPDEST PUSH2 0x193 JUMP JUMPDEST PUSH1 0x40 MLOAD PUSH2 0xE3 SWAP2 SWAP1 PUSH2 0x2F91 JUMP JUMPDEST PUSH1 0x40 MLOAD DUP1 SWAP2 SUB SWAP1 RETURN JUMPDEST PUSH2 0xFF PUSH2 0xFA CALLDATASIZE PUSH1 0x4 PUSH2 0x2836 JUMP JUMPDEST PUSH2 0x1BF JUMP JUMPDEST STOP JUMPDEST PUSH2 0x109 PUSH2 0x1D5 JUMP JUMPDEST PUSH1 0x40 MLOAD PUSH2 0xE3 SWAP2 SWAP1 PUSH2 0x2909 JUMP JUMPDEST PUSH2 0xFF PUSH2 0x1F1 JUMP JUMPDEST PUSH2 0xFF PUSH2 0x12C CALLDATASIZE PUSH1 0x4 PUSH2 0x28CE JUMP JUMPDEST PUSH2 0x22C JUMP JUMPDEST PUSH2 0xFF PUSH2 0x13F CALLDATASIZE PUSH1 0x4 PUSH2 0x28E7 JUMP JUMPDEST PUSH2 0x469 JUMP JUMPDEST PUSH2 0x14C PUSH2 0x722 JUMP JUMPDEST PUSH1 0x40 MLOAD PUSH2 0xE3 SWAP14 SWAP13 SWAP12 SWAP11 SWAP10 SWAP9 SWAP8 SWAP7 SWAP6 SWAP5 SWAP4 SWAP3 SWAP2 SWAP1 PUSH2 0x29E9 JUMP JUMPDEST PUSH2 0xD6 PUSH2 0x173 CALLDATASIZE PUSH1 0x4 PUSH2 0x286B JUMP JUMPDEST PUSH2 0x777 JUMP JUMPDEST PUSH2 0xFF PUSH2 0x92E JUMP JUMPDEST PUSH2 0xFF PUSH2 0x18E CALLDATASIZE PUSH1 0x4 PUSH2 0x281A JUMP JUMPDEST PUSH2 0x958 JUMP JUMPDEST PUSH20 0xFFFFFFFFFFFFFFFFFFFFFFFFFFFFFFFFFFFFFFFF DUP2 AND PUSH1 0x0 SWAP1 DUP2 MSTORE PUSH1 0xB PUSH1 0x20 MSTORE PUSH1 0x40 SWAP1 KECCAK256 SLOAD JUMPDEST SWAP2 SWAP1 POP JUMP JUMPDEST PUSH2 0x1C7 PUSH2 0xA2A JUMP JUMPDEST PUSH2 0x1D1 DUP3 DUP3 PUSH2 0xA7D JUMP JUMPDEST POP POP JUMP JUMPDEST PUSH1 0x0 SLOAD PUSH20 0xFFFFFFFFFFFFFFFFFFFFFFFFFFFFFFFFFFFFFFFF AND DUP2 JUMP JUMPDEST PUSH1 0x1 SLOAD PUSH1 0x2 SLOAD PUSH2 0x229 SWAP2 PUSH20 0xFFFFFFFFFFFFFFFFFFFFFFFFFFFFFFFFFFFFFFFF PUSH2 0x100 SWAP1 SWAP2 DIV DUP2 AND SWAP2 AND PUSH9 0x410D586A20A4C0000 PUSH2 0x777 JUMP JUMPDEST POP JUMP JUMPDEST PUSH1 0x5 SLOAD PUSH1 0x3 SLOAD PUSH1 0x1 SWAP2 PUSH1 0x0 SWAP2 PUSH2 0x25D SWAP2 SWAP1 PUSH2 0x251 SWAP1 DUP7 SWAP1 PUSH1 0x7F SHR PUSH4 0xFFFFFFFF PUSH2 0xBD0 AND JUMP JUMPDEST SWAP1 PUSH4 0xFFFFFFFF PUSH2 0xC2D AND JUMP JUMPDEST SWAP1 POP PUSH1 0x0 PUSH2 0x284 DUP4 PUSH1 0x4 ADD SLOAD PUSH2 0x251 PUSH1 0x7F DUP7 PUSH1 0x3 ADD SLOAD SWAP1 SHR DUP8 PUSH2 0xBD0 SWAP1 SWAP2 SWAP1 PUSH4 0xFFFFFFFF AND JUMP JUMPDEST SWAP1 POP PUSH2 0x29C DUP4 PUSH1 0x2 ADD SLOAD PUSH2 0x297 DUP5 PUSH2 0xC7A JUMP JUMPDEST PUSH2 0xCD0 JUMP JUMPDEST PUSH1 0x2 DUP5 ADD SSTORE PUSH1 0x3 DUP4 ADD SLOAD PUSH2 0x2B3 SWAP1 PUSH2 0x297 DUP4 PUSH2 0xC7A JUMP JUMPDEST PUSH1 0x3 DUP5 ADD SSTORE CALLER PUSH1 0x0 SWAP1 DUP2 MSTORE PUSH1 0xA DUP5 ADD PUSH1 0x20 MSTORE PUSH1 0x40 SWAP1 KECCAK256 SLOAD PUSH2 0x2DA SWAP1 DUP6 PUSH4 0xFFFFFFFF PUSH2 0xD40 AND JUMP JUMPDEST CALLER PUSH1 0x0 SWAP1 DUP2 MSTORE PUSH1 0xA DUP6 ADD PUSH1 0x20 MSTORE PUSH1 0x40 SWAP1 KECCAK256 SSTORE PUSH1 0x4 DUP4 ADD SLOAD PUSH2 0x301 SWAP1 DUP6 PUSH4 0xFFFFFFFF PUSH2 0xD82 AND JUMP JUMPDEST PUSH1 0x4 DUP5 DUP2 ADD SWAP2 SWAP1 SWAP2 SSTORE DUP4 SLOAD PUSH1 0x40 MLOAD PUSH32 0xA9059CBB00000000000000000000000000000000000000000000000000000000 DUP2 MSTORE PUSH2 0x100 SWAP1 SWAP2 DIV PUSH20 0xFFFFFFFFFFFFFFFFFFFFFFFFFFFFFFFFFFFFFFFF AND SWAP2 PUSH4 0xA9059CBB SWAP2 PUSH2 0x363 SWAP2 CALLER SWAP2 DUP8 SWAP2 ADD PUSH2 0x29C3 JUMP JUMPDEST PUSH1 0x20 PUSH1 0x40 MLOAD DUP1 DUP4 SUB DUP2 PUSH1 0x0 DUP8 DUP1 EXTCODESIZE ISZERO DUP1 ISZERO PUSH2 0x37D JUMPI PUSH1 0x0 DUP1 REVERT JUMPDEST POP GAS CALL ISZERO DUP1 ISZERO PUSH2 0x391 JUMPI RETURNDATASIZE PUSH1 0x0 DUP1 RETURNDATACOPY RETURNDATASIZE PUSH1 0x0 REVERT JUMPDEST POP POP POP POP PUSH1 0x40 MLOAD RETURNDATASIZE PUSH1 0x1F NOT PUSH1 0x1F DUP3 ADD AND DUP3 ADD DUP1 PUSH1 0x40 MSTORE POP PUSH2 0x3B5 SWAP2 SWAP1 DUP2 ADD SWAP1 PUSH2 0x28AC JUMP JUMPDEST POP PUSH1 0x1 DUP4 ADD SLOAD PUSH1 0x40 MLOAD PUSH32 0xA9059CBB00000000000000000000000000000000000000000000000000000000 DUP2 MSTORE PUSH20 0xFFFFFFFFFFFFFFFFFFFFFFFFFFFFFFFFFFFFFFFF SWAP1 SWAP2 AND SWAP1 PUSH4 0xA9059CBB SWAP1 PUSH2 0x410 SWAP1 CALLER SWAP1 DUP6 SWAP1 PUSH1 0x4 ADD PUSH2 0x29C3 JUMP JUMPDEST PUSH1 0x20 PUSH1 0x40 MLOAD DUP1 DUP4 SUB DUP2 PUSH1 0x0 DUP8 DUP1 EXTCODESIZE ISZERO DUP1 ISZERO PUSH2 0x42A JUMPI PUSH1 0x0 DUP1 REVERT JUMPDEST POP GAS CALL ISZERO DUP1 ISZERO PUSH2 0x43E JUMPI RETURNDATASIZE PUSH1 0x0 DUP1 RETURNDATACOPY RETURNDATASIZE PUSH1 0x0 REVERT JUMPDEST POP POP POP POP PUSH1 0x40 MLOAD RETURNDATASIZE PUSH1 0x1F NOT PUSH1 0x1F DUP3 ADD AND DUP3 ADD DUP1 PUSH1 0x40 MSTORE POP PUSH2 0x462 SWAP2 SWAP1 DUP2 ADD SWAP1 PUSH2 0x28AC JUMP JUMPDEST POP POP POP POP POP JUMP JUMPDEST PUSH1 0x1 PUSH1 0x0 PUSH2 0x47F DUP5 PUSH8 0xDE0B6B3A7640000 PUSH2 0xDC1 JUMP JUMPDEST SWAP1 POP PUSH1 0x0 PUSH2 0x490 DUP5 PUSH3 0xF4240 PUSH2 0xDC1 JUMP JUMPDEST SWAP1 POP PUSH2 0x4A9 DUP4 PUSH1 0x2 ADD SLOAD DUP3 PUSH2 0xE5B SWAP1 SWAP2 SWAP1 PUSH4 0xFFFFFFFF AND JUMP JUMPDEST PUSH1 0x3 DUP5 ADD SLOAD PUSH2 0x4BF SWAP1 DUP5 SWAP1 PUSH4 0xFFFFFFFF PUSH2 0xE5B AND JUMP JUMPDEST EQ PUSH2 0x4FF JUMPI PUSH1 0x40 MLOAD PUSH32 0x8C379A000000000000000000000000000000000000000000000000000000000 DUP2 MSTORE PUSH1 0x4 ADD PUSH2 0x4F6 SWAP1 PUSH2 0x2AE4 JUMP JUMPDEST PUSH1 0x40 MLOAD DUP1 SWAP2 SUB SWAP1 REVERT JUMPDEST DUP3 SLOAD PUSH1 0x40 MLOAD PUSH32 0x23B872DD00000000000000000000000000000000000000000000000000000000 DUP2 MSTORE PUSH2 0x100 SWAP1 SWAP2 DIV PUSH20 0xFFFFFFFFFFFFFFFFFFFFFFFFFFFFFFFFFFFFFFFF AND SWAP1 PUSH4 0x23B872DD SWAP1 PUSH2 0x55C SWAP1 CALLER SWAP1 ADDRESS SWAP1 DUP11 SWAP1 PUSH1 0x4 ADD PUSH2 0x2992 JUMP JUMPDEST PUSH1 0x20 PUSH1 0x40 MLOAD DUP1 DUP4 SUB DUP2 PUSH1 0x0 DUP8 DUP1 EXTCODESIZE ISZERO DUP1 ISZERO PUSH2 0x576 JUMPI PUSH1 0x0 DUP1 REVERT JUMPDEST POP GAS CALL ISZERO DUP1 ISZERO PUSH2 0x58A JUMPI RETURNDATASIZE PUSH1 0x0 DUP1 RETURNDATACOPY RETURNDATASIZE PUSH1 0x0 REVERT JUMPDEST POP POP POP POP PUSH1 0x40 MLOAD RETURNDATASIZE PUSH1 0x1F NOT PUSH1 0x1F DUP3 ADD AND DUP3 ADD DUP1 PUSH1 0x40 MSTORE POP PUSH2 0x5AE SWAP2 SWAP1 DUP2 ADD SWAP1 PUSH2 0x28AC JUMP JUMPDEST POP PUSH1 0x1 DUP4 ADD SLOAD PUSH1 0x40 MLOAD PUSH32 0x23B872DD00000000000000000000000000000000000000000000000000000000 DUP2 MSTORE PUSH20 0xFFFFFFFFFFFFFFFFFFFFFFFFFFFFFFFFFFFFFFFF SWAP1 SWAP2 AND SWAP1 PUSH4 0x23B872DD SWAP1 PUSH2 0x60B SWAP1 CALLER SWAP1 ADDRESS SWAP1 DUP10 SWAP1 PUSH1 0x4 ADD PUSH2 0x2992 JUMP JUMPDEST PUSH1 0x20 PUSH1 0x40 MLOAD DUP1 DUP4 SUB DUP2 PUSH1 0x0 DUP8 DUP1 EXTCODESIZE ISZERO DUP1 ISZERO PUSH2 0x625 JUMPI PUSH1 0x0 DUP1 REVERT JUMPDEST POP GAS CALL ISZERO DUP1 ISZERO PUSH2 0x639 JUMPI RETURNDATASIZE PUSH1 0x0 DUP1 RETURNDATACOPY RETURNDATASIZE PUSH1 0x0 REVERT JUMPDEST POP POP POP POP PUSH1 0x40 MLOAD RETURNDATASIZE PUSH1 0x1F NOT PUSH1 0x1F DUP3 ADD AND DUP3 ADD DUP1 PUSH1 0x40 MSTORE POP PUSH2 0x65D SWAP2 SWAP1 DUP2 ADD SWAP1 PUSH2 0x28AC JUMP JUMPDEST POP PUSH1 0x0 DUP4 PUSH1 0x2 ADD SLOAD PUSH1 0x0 EQ ISZERO PUSH2 0x67C JUMPI POP PUSH1 0x1 PUSH1 0x4 DUP5 ADD SSTORE PUSH1 0x0 PUSH2 0x6A2 JUMP JUMPDEST PUSH2 0x69F PUSH1 0x7F DUP6 PUSH1 0x2 ADD SLOAD SWAP1 SHR PUSH2 0x251 DUP7 PUSH1 0x4 ADD SLOAD DUP10 PUSH2 0xBD0 SWAP1 SWAP2 SWAP1 PUSH4 0xFFFFFFFF AND JUMP JUMPDEST SWAP1 POP JUMPDEST PUSH2 0x6B0 DUP5 PUSH1 0x2 ADD SLOAD DUP5 PUSH2 0xEAE JUMP JUMPDEST PUSH1 0x2 DUP6 ADD SSTORE PUSH1 0x3 DUP5 ADD SLOAD PUSH2 0x6C4 SWAP1 DUP4 PUSH2 0xEAE JUMP JUMPDEST PUSH1 0x3 DUP6 ADD SSTORE CALLER PUSH1 0x0 SWAP1 DUP2 MSTORE PUSH1 0xA DUP6 ADD PUSH1 0x20 MSTORE PUSH1 0x40 SWAP1 KECCAK256 SLOAD PUSH2 0x6EB SWAP1 DUP3 PUSH4 0xFFFFFFFF PUSH2 0xD82 AND JUMP JUMPDEST CALLER PUSH1 0x0 SWAP1 DUP2 MSTORE PUSH1 0xA DUP7 ADD PUSH1 0x20 MSTORE PUSH1 0x40 SWAP1 KECCAK256 SSTORE PUSH1 0x4 DUP5 ADD SLOAD PUSH2 0x712 SWAP1 DUP3 PUSH4 0xFFFFFFFF PUSH2 0xD82 AND JUMP JUMPDEST DUP5 PUSH1 0x4 ADD DUP2 SWAP1 SSTORE POP POP POP POP POP POP POP JUMP JUMPDEST PUSH1 0x1 SLOAD PUSH1 0x2 SLOAD PUSH1 0x3 SLOAD PUSH1 0x4 SLOAD PUSH1 0x5 SLOAD PUSH1 0x6 SLOAD PUSH1 0x7 SLOAD PUSH1 0x8 SLOAD PUSH1 0x9 SLOAD PUSH1 0xA SLOAD PUSH1 0xC SLOAD PUSH1 0xD SLOAD PUSH1 0xFF DUP13 AND SWAP12 PUSH20 0xFFFFFFFFFFFFFFFFFFFFFFFFFFFFFFFFFFFFFFFF PUSH2 0x100 SWAP1 SWAP2 DIV DUP2 AND SWAP12 AND SWAP10 SWAP9 SWAP8 SWAP7 SWAP6 SWAP5 SWAP4 SWAP3 SWAP2 SWAP1 DUP14 JUMP JUMPDEST PUSH1 0x0 PUSH2 0x781 PUSH2 0x2760 JUMP JUMPDEST PUSH2 0x789 PUSH2 0xEBA JUMP JUMPDEST SWAP1 POP DUP1 PUSH1 0x20 ADD MLOAD PUSH20 0xFFFFFFFFFFFFFFFFFFFFFFFFFFFFFFFFFFFFFFFF AND DUP6 PUSH20 0xFFFFFFFFFFFFFFFFFFFFFFFFFFFFFFFFFFFFFFFF AND EQ DUP1 ISZERO PUSH2 0x7F9 JUMPI POP DUP1 PUSH1 0x40 ADD MLOAD PUSH20 0xFFFFFFFFFFFFFFFFFFFFFFFFFFFFFFFFFFFFFFFF AND DUP5 PUSH20 0xFFFFFFFFFFFFFFFFFFFFFFFFFFFFFFFFFFFFFFFF AND EQ JUMPDEST ISZERO PUSH2 0x827 JUMPI PUSH1 0x0 PUSH2 0x814 DUP7 DUP7 PUSH2 0x80E DUP8 PUSH2 0xF60 JUMP JUMPDEST DUP6 PUSH2 0xF6D JUMP JUMPDEST SWAP1 POP PUSH2 0x81F DUP2 PUSH2 0x10C5 JUMP JUMPDEST SWAP3 POP POP PUSH2 0x8E7 JUMP JUMPDEST DUP1 PUSH1 0x40 ADD MLOAD PUSH20 0xFFFFFFFFFFFFFFFFFFFFFFFFFFFFFFFFFFFFFFFF AND DUP6 PUSH20 0xFFFFFFFFFFFFFFFFFFFFFFFFFFFFFFFFFFFFFFFF AND EQ DUP1 ISZERO PUSH2 0x895 JUMPI POP DUP1 PUSH1 0x20 ADD MLOAD PUSH20 0xFFFFFFFFFFFFFFFFFFFFFFFFFFFFFFFFFFFFFFFF AND DUP5 PUSH20 0xFFFFFFFFFFFFFFFFFFFFFFFFFFFFFFFFFFFFFFFF AND EQ JUMPDEST ISZERO PUSH2 0x8B5 JUMPI PUSH1 0x0 PUSH2 0x8AA DUP7 DUP7 PUSH2 0x80E DUP8 PUSH2 0x10D2 JUMP JUMPDEST SWAP1 POP PUSH2 0x81F DUP2 PUSH2 0x10DF JUMP JUMPDEST PUSH1 0x40 MLOAD PUSH32 0x8C379A000000000000000000000000000000000000000000000000000000000 DUP2 MSTORE PUSH1 0x4 ADD PUSH2 0x4F6 SWAP1 PUSH2 0x2C54 JUMP JUMPDEST PUSH32 0x256DB8090FA51C3BAC981768637D5A7C46B5540644DCEF89052B89DBB2F6C8EA CALLER DUP7 DUP7 DUP7 DUP7 PUSH1 0x40 MLOAD PUSH2 0x91E SWAP6 SWAP5 SWAP4 SWAP3 SWAP2 SWAP1 PUSH2 0x2951 JUMP JUMPDEST PUSH1 0x40 MLOAD DUP1 SWAP2 SUB SWAP1 LOG1 POP SWAP4 SWAP3 POP POP POP JUMP JUMPDEST PUSH2 0x93A PUSH1 0x1 PUSH1 0x2 PUSH2 0xA7D JUMP JUMPDEST PUSH2 0x945 PUSH2 0x1F4 PUSH2 0xC7A JUMP JUMPDEST PUSH1 0x3 SSTORE PUSH2 0x953 PUSH2 0x3E8 PUSH2 0xC7A JUMP JUMPDEST PUSH1 0x4 SSTORE JUMP JUMPDEST PUSH2 0x960 PUSH2 0xA2A JUMP JUMPDEST PUSH20 0xFFFFFFFFFFFFFFFFFFFFFFFFFFFFFFFFFFFFFFFF DUP2 AND PUSH2 0x9AD JUMPI PUSH1 0x40 MLOAD PUSH32 0x8C379A000000000000000000000000000000000000000000000000000000000 DUP2 MSTORE PUSH1 0x4 ADD PUSH2 0x4F6 SWAP1 PUSH2 0x2DEA JUMP JUMPDEST PUSH1 0x0 DUP1 SLOAD PUSH32 0xFFFFFFFFFFFFFFFFFFFFFFFF0000000000000000000000000000000000000000 AND PUSH20 0xFFFFFFFFFFFFFFFFFFFFFFFFFFFFFFFFFFFFFFFF DUP4 AND OR SWAP1 SSTORE PUSH1 0x40 MLOAD PUSH32 0x8BE0079C531659141344CD1FD0A4F28419497F9722A3DAAFE3B4186F6B6457E0 SWAP1 PUSH2 0xA1F SWAP1 CALLER SWAP1 DUP5 SWAP1 PUSH2 0x292A JUMP JUMPDEST PUSH1 0x40 MLOAD DUP1 SWAP2 SUB SWAP1 LOG1 POP JUMP JUMPDEST PUSH1 0x0 SLOAD PUSH20 0xFFFFFFFFFFFFFFFFFFFFFFFFFFFFFFFFFFFFFFFF AND CALLER EQ PUSH2 0xA7B JUMPI PUSH1 0x40 MLOAD PUSH32 0x8C379A000000000000000000000000000000000000000000000000000000000 DUP2 MSTORE PUSH1 0x4 ADD PUSH2 0x4F6 SWAP1 PUSH2 0x2BE6 JUMP JUMPDEST JUMP JUMPDEST PUSH1 0x1 SLOAD PUSH1 0xFF AND ISZERO PUSH2 0xABA JUMPI PUSH1 0x40 MLOAD PUSH32 0x8C379A000000000000000000000000000000000000000000000000000000000 DUP2 MSTORE PUSH1 0x4 ADD PUSH2 0x4F6 SWAP1 PUSH2 0x2C1D JUMP JUMPDEST PUSH1 0x1 DUP1 SLOAD PUSH32 0xFFFFFFFFFFFFFFFFFFFFFF0000000000000000000000000000000000000000FF AND PUSH2 0x100 PUSH20 0xFFFFFFFFFFFFFFFFFFFFFFFFFFFFFFFFFFFFFFFF DUP6 DUP2 AND SWAP2 SWAP1 SWAP2 MUL SWAP2 SWAP1 SWAP2 OR SWAP1 SWAP2 SSTORE PUSH1 0x2 DUP1 SLOAD PUSH32 0xFFFFFFFFFFFFFFFFFFFFFFFF0000000000000000000000000000000000000000 AND SWAP2 DUP4 AND SWAP2 SWAP1 SWAP2 OR SWAP1 SSTORE PUSH2 0xB41 PUSH1 0x63 PUSH1 0x64 PUSH2 0xDC1 JUMP JUMPDEST PUSH1 0x6 SSTORE PUSH1 0x63 PUSH1 0x7 DUP2 SWAP1 SSTORE PUSH2 0xB56 SWAP1 PUSH1 0x64 PUSH2 0xDC1 JUMP JUMPDEST PUSH1 0x8 SSTORE PUSH2 0xB66 PUSH1 0x5 PUSH2 0x2710 PUSH2 0xDC1 JUMP JUMPDEST PUSH1 0x9 SSTORE PUSH2 0xB8E PUSH2 0xB7A PUSH1 0x1 PUSH3 0xF4240 PUSH2 0x10EC JUMP JUMPDEST PUSH2 0xB82 PUSH2 0x110B JUMP JUMPDEST SWAP1 PUSH4 0xFFFFFFFF PUSH2 0xCD0 AND JUMP JUMPDEST PUSH1 0xC SSTORE PUSH2 0xB9F PUSH2 0x2715 PUSH2 0x3E8 PUSH2 0x10EC JUMP JUMPDEST PUSH1 0xD SSTORE POP POP PUSH1 0x1 DUP1 SLOAD PUSH32 0xFFFFFFFFFFFFFFFFFFFFFFFFFFFFFFFFFFFFFFFFFFFFFFFFFFFFFFFFFFFFFF00 AND DUP2 OR SWAP1 SSTORE JUMP JUMPDEST PUSH1 0x0 DUP3 PUSH2 0xBDF JUMPI POP PUSH1 0x0 PUSH2 0xC27 JUMP JUMPDEST DUP3 DUP3 MUL DUP3 DUP5 DUP3 DUP2 PUSH2 0xBEC JUMPI INVALID JUMPDEST DIV EQ PUSH2 0xC24 JUMPI PUSH1 0x40 MLOAD PUSH32 0x8C379A000000000000000000000000000000000000000000000000000000000 DUP2 MSTORE PUSH1 0x4 ADD PUSH2 0x4F6 SWAP1 PUSH2 0x2D7C JUMP JUMPDEST SWAP1 POP JUMPDEST SWAP3 SWAP2 POP POP JUMP JUMPDEST PUSH1 0x0 DUP2 PUSH2 0xC66 JUMPI PUSH1 0x40 MLOAD PUSH32 0x8C379A000000000000000000000000000000000000000000000000000000000 DUP2 MSTORE PUSH1 0x4 ADD PUSH2 0x4F6 SWAP1 PUSH2 0x2B41 JUMP JUMPDEST PUSH1 0x0 DUP3 DUP5 DUP2 PUSH2 0xC71 JUMPI INVALID JUMPDEST DIV SWAP5 SWAP4 POP POP POP POP JUMP JUMPDEST PUSH1 0x0 DUP1 DUP3 SLT ISZERO PUSH2 0xCB6 JUMPI PUSH1 0x40 MLOAD PUSH32 0x8C379A000000000000000000000000000000000000000000000000000000000 DUP2 MSTORE PUSH1 0x4 ADD PUSH2 0x4F6 SWAP1 PUSH2 0x2D1F JUMP JUMPDEST PUSH2 0xC27 DUP3 PUSH16 0x80000000000000000000000000000000 PUSH2 0x111F JUMP JUMPDEST PUSH1 0x0 PUSH32 0x8000000000000000000000000000000000000000000000000000000000000000 DUP3 EQ ISZERO PUSH2 0xD2C JUMPI PUSH1 0x40 MLOAD PUSH32 0x8C379A000000000000000000000000000000000000000000000000000000000 DUP2 MSTORE PUSH1 0x4 ADD PUSH2 0x4F6 SWAP1 PUSH2 0x2E8F JUMP JUMPDEST PUSH2 0xD39 DUP4 DUP4 PUSH1 0x0 SUB PUSH2 0x1195 JUMP JUMPDEST SWAP4 SWAP3 POP POP POP JUMP JUMPDEST PUSH1 0x0 DUP3 DUP3 GT ISZERO PUSH2 0xD7C JUMPI PUSH1 0x40 MLOAD PUSH32 0x8C379A000000000000000000000000000000000000000000000000000000000 DUP2 MSTORE PUSH1 0x4 ADD PUSH2 0x4F6 SWAP1 PUSH2 0x2B78 JUMP JUMPDEST POP SWAP1 SUB SWAP1 JUMP JUMPDEST PUSH1 0x0 DUP3 DUP3 ADD DUP4 DUP2 LT ISZERO PUSH2 0xC24 JUMPI PUSH1 0x40 MLOAD PUSH32 0x8C379A000000000000000000000000000000000000000000000000000000000 DUP2 MSTORE PUSH1 0x4 ADD PUSH2 0x4F6 SWAP1 PUSH2 0x2AAD JUMP JUMPDEST PUSH1 0x0 DUP1 DUP4 SLT ISZERO PUSH2 0xDFD JUMPI PUSH1 0x40 MLOAD PUSH32 0x8C379A000000000000000000000000000000000000000000000000000000000 DUP2 MSTORE PUSH1 0x4 ADD PUSH2 0x4F6 SWAP1 PUSH2 0x2EC6 JUMP JUMPDEST PUSH1 0x0 DUP3 SLT ISZERO PUSH2 0xE38 JUMPI PUSH1 0x40 MLOAD PUSH32 0x8C379A000000000000000000000000000000000000000000000000000000000 DUP2 MSTORE PUSH1 0x4 ADD PUSH2 0x4F6 SWAP1 PUSH2 0x2C8B JUMP JUMPDEST PUSH2 0xD39 PUSH2 0xE55 DUP5 PUSH16 0x80000000000000000000000000000000 PUSH2 0x111F JUMP JUMPDEST DUP4 PUSH2 0x120B JUMP JUMPDEST PUSH1 0x0 PUSH16 0x80000000000000000000000000000000 DUP3 ISZERO PUSH2 0xE8D JUMPI POP PUSH6 0x10000000000 SWAP1 SWAP2 SDIV SWAP1 PUSH11 0x8000000000000000000000 JUMPDEST PUSH1 0x0 PUSH2 0xE99 DUP6 DUP6 PUSH2 0x111F JUMP JUMPDEST SWAP1 POP DUP2 DUP2 DUP2 PUSH2 0xEA4 JUMPI INVALID JUMPDEST SDIV SWAP6 SWAP5 POP POP POP POP POP JUMP JUMPDEST PUSH1 0x0 PUSH2 0xD39 DUP4 DUP4 PUSH2 0x1195 JUMP JUMPDEST PUSH2 0xEC2 PUSH2 0x2760 JUMP JUMPDEST POP PUSH1 0x40 DUP1 MLOAD PUSH2 0x1A0 DUP2 ADD DUP3 MSTORE PUSH1 0x1 SLOAD PUSH1 0xFF DUP2 AND ISZERO ISZERO DUP3 MSTORE PUSH20 0xFFFFFFFFFFFFFFFFFFFFFFFFFFFFFFFFFFFFFFFF PUSH2 0x100 SWAP2 DUP3 SWAP1 DIV DUP2 AND PUSH1 0x20 DUP5 ADD MSTORE PUSH1 0x2 SLOAD AND SWAP3 DUP3 ADD SWAP3 SWAP1 SWAP3 MSTORE PUSH1 0x3 SLOAD PUSH1 0x60 DUP3 ADD MSTORE PUSH1 0x4 SLOAD PUSH1 0x80 DUP3 ADD MSTORE PUSH1 0x5 SLOAD PUSH1 0xA0 DUP3 ADD MSTORE PUSH1 0x6 SLOAD PUSH1 0xC0 DUP3 ADD MSTORE PUSH1 0x7 SLOAD PUSH1 0xE0 DUP3 ADD MSTORE PUSH1 0x8 SLOAD SWAP2 DUP2 ADD SWAP2 SWAP1 SWAP2 MSTORE PUSH1 0x9 SLOAD PUSH2 0x120 DUP3 ADD MSTORE PUSH1 0xA SLOAD PUSH2 0x140 DUP3 ADD MSTORE PUSH1 0xC SLOAD PUSH2 0x160 DUP3 ADD MSTORE PUSH1 0xD SLOAD PUSH2 0x180 DUP3 ADD MSTORE SWAP1 JUMP JUMPDEST PUSH1 0x0 PUSH2 0xC27 DUP3 PUSH1 0x12 PUSH2 0x12DA JUMP JUMPDEST PUSH1 0x20 DUP2 ADD MLOAD PUSH1 0x0 SWAP1 DUP2 SWAP1 DUP2 SWAP1 DUP2 SWAP1 DUP2 SWAP1 PUSH20 0xFFFFFFFFFFFFFFFFFFFFFFFFFFFFFFFFFFFFFFFF DUP11 DUP2 AND SWAP2 AND EQ DUP1 ISZERO PUSH2 0xFD3 JUMPI POP DUP6 PUSH1 0x40 ADD MLOAD PUSH20 0xFFFFFFFFFFFFFFFFFFFFFFFFFFFFFFFFFFFFFFFF AND DUP9 PUSH20 0xFFFFFFFFFFFFFFFFFFFFFFFFFFFFFFFFFFFFFFFF AND EQ JUMPDEST ISZERO PUSH2 0xFF2 JUMPI POP POP POP POP PUSH1 0x60 DUP3 ADD MLOAD PUSH1 0x80 DUP4 ADD MLOAD PUSH1 0xC0 DUP5 ADD MLOAD PUSH1 0x1 PUSH2 0x1092 JUMP JUMPDEST DUP6 PUSH1 0x40 ADD MLOAD PUSH20 0xFFFFFFFFFFFFFFFFFFFFFFFFFFFFFFFFFFFFFFFF AND DUP10 PUSH20 0xFFFFFFFFFFFFFFFFFFFFFFFFFFFFFFFFFFFFFFFF AND EQ DUP1 ISZERO PUSH2 0x1060 JUMPI POP DUP6 PUSH1 0x20 ADD MLOAD PUSH20 0xFFFFFFFFFFFFFFFFFFFFFFFFFFFFFFFFFFFFFFFF AND DUP9 PUSH20 0xFFFFFFFFFFFFFFFFFFFFFFFFFFFFFFFFFFFFFFFF AND EQ JUMPDEST ISZERO PUSH2 0x8B5 JUMPI DUP6 PUSH1 0x80 ADD MLOAD SWAP4 POP DUP6 PUSH1 0x60 ADD MLOAD SWAP3 POP PUSH2 0x108F DUP7 PUSH1 0xC0 ADD MLOAD PUSH2 0x1083 PUSH2 0x110B JUMP JUMPDEST SWAP1 PUSH4 0xFFFFFFFF PUSH2 0x12E9 AND JUMP JUMPDEST SWAP2 POP JUMPDEST PUSH1 0x0 PUSH2 0x10A5 DUP6 DUP6 DUP6 DUP11 PUSH2 0x100 ADD MLOAD PUSH2 0x1312 JUMP JUMPDEST SWAP1 POP PUSH2 0x10B5 DUP6 DUP6 DUP4 DUP7 DUP13 DUP13 PUSH2 0x13D4 JUMP JUMPDEST POP PUSH1 0x0 SWAP10 SWAP9 POP POP POP POP POP POP POP POP POP JUMP JUMPDEST PUSH1 0x0 PUSH2 0xC27 DUP3 PUSH1 0x6 PUSH2 0x1607 JUMP JUMPDEST PUSH1 0x0 PUSH2 0xC27 DUP3 PUSH1 0x6 PUSH2 0x12DA JUMP JUMPDEST PUSH1 0x0 PUSH2 0xC27 DUP3 PUSH1 0x12 PUSH2 0x1607 JUMP JUMPDEST PUSH1 0x0 PUSH2 0xD39 PUSH2 0xE55 DUP5 PUSH16 0x80000000000000000000000000000000 PUSH2 0x111F JUMP JUMPDEST PUSH16 0x80000000000000000000000000000000 SWAP1 JUMP JUMPDEST PUSH1 0x0 DUP3 ISZERO DUP1 PUSH2 0x112C JUMPI POP DUP2 ISZERO JUMPDEST ISZERO PUSH2 0x1139 JUMPI POP PUSH1 0x0 PUSH2 0xC27 JUMP JUMPDEST POP DUP2 DUP2 MUL DUP2 DUP4 DUP3 DUP2 PUSH2 0x1147 JUMPI INVALID JUMPDEST SDIV EQ ISZERO DUP1 PUSH2 0x115E JUMPI POP DUP3 DUP3 DUP3 DUP2 PUSH2 0x115A JUMPI INVALID JUMPDEST SDIV EQ ISZERO JUMPDEST ISZERO PUSH2 0xC27 JUMPI PUSH1 0x40 MLOAD PUSH32 0x8C379A000000000000000000000000000000000000000000000000000000000 DUP2 MSTORE PUSH1 0x4 ADD PUSH2 0x4F6 SWAP1 PUSH2 0x2E21 JUMP JUMPDEST DUP2 DUP2 ADD PUSH1 0x0 DUP4 SLT DUP1 ISZERO PUSH2 0x11A8 JUMPI POP PUSH1 0x0 DUP3 SLT JUMPDEST DUP1 ISZERO PUSH2 0x11B3 JUMPI POP DUP3 DUP2 SGT JUMPDEST DUP1 PUSH2 0x11D4 JUMPI POP PUSH1 0x0 DUP4 SGT DUP1 ISZERO PUSH2 0x11C9 JUMPI POP PUSH1 0x0 DUP3 SGT JUMPDEST DUP1 ISZERO PUSH2 0x11D4 JUMPI POP DUP3 DUP2 SLT JUMPDEST ISZERO PUSH2 0xC27 JUMPI PUSH1 0x40 MLOAD PUSH32 0x8C379A000000000000000000000000000000000000000000000000000000000 DUP2 MSTORE PUSH1 0x4 ADD PUSH2 0x4F6 SWAP1 PUSH2 0x2E58 JUMP JUMPDEST PUSH1 0x0 DUP2 PUSH2 0x1244 JUMPI PUSH1 0x40 MLOAD PUSH32 0x8C379A000000000000000000000000000000000000000000000000000000000 DUP2 MSTORE PUSH1 0x4 ADD PUSH2 0x4F6 SWAP1 PUSH2 0x2F23 JUMP JUMPDEST PUSH32 0x8000000000000000000000000000000000000000000000000000000000000000 DUP4 EQ DUP1 ISZERO PUSH2 0x1292 JUMPI POP DUP2 PUSH32 0xFFFFFFFFFFFFFFFFFFFFFFFFFFFFFFFFFFFFFFFFFFFFFFFFFFFFFFFFFFFFFFFF EQ JUMPDEST ISZERO PUSH2 0x12C9 JUMPI PUSH1 0x40 MLOAD PUSH32 0x8C379A000000000000000000000000000000000000000000000000000000000 DUP2 MSTORE PUSH1 0x4 ADD PUSH2 0x4F6 SWAP1 PUSH2 0x2F5A JUMP JUMPDEST DUP2 DUP4 DUP2 PUSH2 0x12D2 JUMPI INVALID JUMPDEST SDIV SWAP4 SWAP3 POP POP POP JUMP JUMPDEST PUSH1 0x0 PUSH2 0xD39 DUP4 DUP4 PUSH1 0xA EXP PUSH2 0xDC1 JUMP JUMPDEST PUSH1 0x0 PUSH2 0x1303 PUSH2 0xE55 DUP5 PUSH11 0x8000000000000000000000 PUSH2 0x111F JUMP JUMPDEST PUSH6 0x10000000000 MUL SWAP4 SWAP3 POP POP POP JUMP JUMPDEST PUSH1 0x0 DUP1 PUSH2 0x1325 DUP5 DUP8 PUSH4 0xFFFFFFFF PUSH2 0xE5B AND JUMP JUMPDEST SWAP1 POP PUSH1 0x0 PUSH2 0x1339 DUP7 DUP4 PUSH4 0xFFFFFFFF PUSH2 0x12E9 AND JUMP JUMPDEST SWAP1 POP PUSH1 0x0 PUSH2 0x134D DUP4 DUP9 PUSH4 0xFFFFFFFF PUSH2 0x12E9 AND JUMP JUMPDEST SWAP1 POP PUSH1 0x0 PUSH2 0x135D DUP7 PUSH2 0xB82 PUSH2 0x110B JUMP JUMPDEST SWAP1 POP PUSH1 0x0 PUSH2 0x1369 PUSH2 0x110B JUMP JUMPDEST DUP5 SLT ISZERO PUSH2 0x1398 JUMPI PUSH2 0x1391 PUSH2 0x138C DUP4 PUSH2 0x1380 DUP8 PUSH2 0x1617 JUMP JUMPDEST SWAP1 PUSH4 0xFFFFFFFF PUSH2 0xE5B AND JUMP JUMPDEST PUSH2 0x1D01 JUMP JUMPDEST SWAP1 POP PUSH2 0x13B6 JUMP JUMPDEST PUSH2 0x13B3 PUSH2 0x13AB PUSH2 0x138C DUP5 PUSH2 0x1380 DUP8 PUSH2 0x1617 JUMP JUMPDEST PUSH2 0x1083 PUSH2 0x110B JUMP JUMPDEST SWAP1 POP JUMPDEST PUSH2 0x13C6 DUP2 DUP10 PUSH4 0xFFFFFFFF PUSH2 0xE5B AND JUMP JUMPDEST SWAP11 SWAP10 POP POP POP POP POP POP POP POP POP POP JUMP JUMPDEST PUSH1 0x0 PUSH2 0x13E0 PUSH1 0x2 PUSH2 0x230F JUMP JUMPDEST SWAP1 POP PUSH1 0x0 PUSH2 0x1436 PUSH2 0x1429 PUSH2 0x1419 PUSH2 0x13FD DUP11 DUP9 PUSH4 0xFFFFFFFF PUSH2 0xE5B AND JUMP JUMPDEST PUSH2 0x140D DUP13 DUP13 PUSH4 0xFFFFFFFF PUSH2 0xE5B AND JUMP JUMPDEST SWAP1 PUSH4 0xFFFFFFFF PUSH2 0xEAE AND JUMP JUMPDEST PUSH2 0x1083 DUP10 DUP9 PUSH4 0xFFFFFFFF PUSH2 0xE5B AND JUMP JUMPDEST DUP10 SWAP1 PUSH4 0xFFFFFFFF PUSH2 0xE5B AND JUMP JUMPDEST SWAP1 POP PUSH1 0x0 PUSH2 0x145A PUSH2 0x144D DUP11 DUP8 PUSH4 0xFFFFFFFF PUSH2 0xEAE AND JUMP JUMPDEST DUP11 SWAP1 PUSH4 0xFFFFFFFF PUSH2 0x12E9 AND JUMP JUMPDEST SWAP1 POP PUSH1 0x0 PUSH2 0x1499 PUSH2 0x1479 DUP11 DUP8 PUSH2 0x100 ADD MLOAD PUSH2 0xE5B SWAP1 SWAP2 SWAP1 PUSH4 0xFFFFFFFF AND JUMP JUMPDEST PUSH2 0xB82 DUP11 PUSH2 0x1380 DUP15 PUSH2 0x1380 DUP12 PUSH2 0x100 ADD MLOAD DUP12 PUSH2 0xCD0 SWAP1 SWAP2 SWAP1 PUSH4 0xFFFFFFFF AND JUMP JUMPDEST SWAP1 POP PUSH1 0x0 PUSH2 0x14AC DUP12 DUP12 DUP12 DUP12 DUP12 DUP8 DUP13 PUSH2 0x232B JUMP JUMPDEST SWAP1 POP PUSH1 0x0 PUSH2 0x14BF DUP13 DUP13 DUP13 DUP13 DUP13 DUP8 DUP14 PUSH2 0x23F1 JUMP JUMPDEST SWAP1 POP PUSH1 0x0 PUSH2 0x14D3 DUP14 DUP14 DUP14 DUP14 DUP14 DUP12 DUP12 DUP16 PUSH2 0x2491 JUMP JUMPDEST SWAP1 POP PUSH2 0x14E2 DUP3 DUP3 DUP9 DUP9 DUP13 PUSH2 0x252A JUMP JUMPDEST SWAP1 POP PUSH32 0xE86E669442090F039DA8C025BF7C63C92AADE03B41B73A1D7BEF302C109960DC DUP14 DUP14 DUP14 DUP14 DUP14 DUP14 PUSH2 0x100 ADD MLOAD DUP10 DUP9 PUSH1 0x40 MLOAD PUSH2 0x1526 SWAP9 SWAP8 SWAP7 SWAP6 SWAP5 SWAP4 SWAP3 SWAP2 SWAP1 PUSH2 0x2A77 JUMP JUMPDEST PUSH1 0x40 MLOAD DUP1 SWAP2 SUB SWAP1 LOG1 POP POP POP POP POP POP POP POP POP POP POP POP POP JUMP JUMPDEST PUSH1 0x14 DUP2 LT ISZERO PUSH2 0x15F8 JUMPI PUSH1 0x0 PUSH2 0x1552 DUP6 DUP6 PUSH2 0x25C9 JUMP JUMPDEST SWAP1 POP PUSH1 0x0 PUSH2 0x156E PUSH2 0x1569 DUP4 DUP13 PUSH4 0xFFFFFFFF PUSH2 0x12E9 AND JUMP JUMPDEST PUSH2 0x25E9 JUMP JUMPDEST SWAP1 POP PUSH1 0x0 PUSH2 0x1599 PUSH2 0x1585 DUP12 DUP6 PUSH4 0xFFFFFFFF PUSH2 0xE5B AND JUMP JUMPDEST PUSH2 0x140D DUP6 PUSH2 0x1380 DUP10 DUP8 PUSH4 0xFFFFFFFF PUSH2 0xE5B AND JUMP JUMPDEST SWAP1 POP PUSH32 0x4ADD19BBBE358CAF4AF4A31B1299356FC4DCCF8B4CF3C87E401B0FA60062F31E DUP3 DUP5 DUP4 PUSH1 0x40 MLOAD PUSH2 0x15CE SWAP4 SWAP3 SWAP2 SWAP1 PUSH2 0x2A61 JUMP JUMPDEST PUSH1 0x40 MLOAD DUP1 SWAP2 SUB SWAP1 LOG1 DUP13 DUP2 SGT ISZERO PUSH2 0x15E6 JUMPI DUP3 SWAP6 POP PUSH2 0x15EA JUMP JUMPDEST DUP3 SWAP7 POP JUMPDEST POP POP POP DUP1 PUSH1 0x1 ADD SWAP1 POP PUSH2 0x153D JUMP JUMPDEST POP SWAP2 SWAP10 SWAP9 POP POP POP POP POP POP POP POP POP JUMP JUMPDEST PUSH1 0x0 PUSH2 0xD39 DUP3 PUSH1 0xA EXP DUP5 MUL PUSH2 0x2688 JUMP JUMPDEST PUSH1 0x0 PUSH16 0x80000000000000000000000000000000 DUP3 SGT ISZERO PUSH2 0x1663 JUMPI PUSH1 0x40 MLOAD PUSH32 0x8C379A000000000000000000000000000000000000000000000000000000000 DUP2 MSTORE PUSH1 0x4 ADD PUSH2 0x4F6 SWAP1 PUSH2 0x2CE8 JUMP JUMPDEST PUSH1 0x0 DUP3 SGT PUSH2 0x169D JUMPI PUSH1 0x40 MLOAD PUSH32 0x8C379A000000000000000000000000000000000000000000000000000000000 DUP2 MSTORE PUSH1 0x4 ADD PUSH2 0x4F6 SWAP1 PUSH2 0x2BAF JUMP JUMPDEST PUSH16 0x80000000000000000000000000000000 DUP3 EQ ISZERO PUSH2 0x16BD JUMPI POP PUSH1 0x0 PUSH2 0x1BA JUMP JUMPDEST PUSH5 0x733048C5A DUP3 SGT PUSH2 0x16F0 JUMPI POP PUSH32 0xFFFFFFFFFFFFFFFFFFFFFFFFFFFFFFE010000000000000000000000000000000 PUSH2 0x1BA JUMP JUMPDEST PUSH1 0x0 DUP1 PUSH1 0x0 PUSH11 0x1C8464F76164760000000 DUP6 SGT PUSH2 0x174F JUMPI PUSH32 0xFFFFFFFFFFFFFFFFFFFFFFFFFFFFFFF000000000000000000000000000000000 SWAP1 SWAP4 ADD SWAP3 PUSH11 0x1C8464F76164760000000 PUSH16 0x80000000000000000000000000000000 DUP7 MUL SDIV SWAP5 POP JUMPDEST PUSH13 0xF1AADDD7742E90000000000000 DUP6 SGT PUSH2 0x17AD JUMPI PUSH32 0xFFFFFFFFFFFFFFFFFFFFFFFFFFFFFFF800000000000000000000000000000000 SWAP1 SWAP4 ADD SWAP3 PUSH13 0xF1AADDD7742E90000000000000 PUSH16 0x80000000000000000000000000000000 DUP7 MUL SDIV SWAP5 POP JUMPDEST PUSH15 0xAFE10820813D78000000000000000 DUP6 SGT PUSH2 0x180F JUMPI PUSH32 0xFFFFFFFFFFFFFFFFFFFFFFFFFFFFFFFC00000000000000000000000000000000 SWAP1 SWAP4 ADD SWAP3 PUSH15 0xAFE10820813D78000000000000000 PUSH16 0x80000000000000000000000000000000 DUP7 MUL SDIV SWAP5 POP JUMPDEST PUSH16 0x2582AB704279EC00000000000000000 DUP6 SGT PUSH2 0x1873 JUMPI PUSH32 0xFFFFFFFFFFFFFFFFFFFFFFFFFFFFFFFE00000000000000000000000000000000 SWAP1 SWAP4 ADD SWAP3 PUSH16 0x2582AB704279EC00000000000000000 PUSH16 0x80000000000000000000000000000000 DUP7 MUL SDIV SWAP5 POP JUMPDEST PUSH16 0x1152AAA3BF81CC000000000000000000 DUP6 SGT PUSH2 0x18D7 JUMPI PUSH32 0xFFFFFFFFFFFFFFFFFFFFFFFFFFFFFFFF00000000000000000000000000000000 SWAP1 SWAP4 ADD SWAP3 PUSH16 0x1152AAA3BF81CC000000000000000000 PUSH16 0x80000000000000000000000000000000 DUP7 MUL SDIV SWAP5 POP JUMPDEST PUSH16 0x2F16AC6C59DE70000000000000000000 DUP6 SGT PUSH2 0x193B JUMPI PUSH32 0xFFFFFFFFFFFFFFFFFFFFFFFFFFFFFFFF80000000000000000000000000000000 SWAP1 SWAP4 ADD SWAP3 PUSH16 0x2F16AC6C59DE70000000000000000000 PUSH16 0x80000000000000000000000000000000 DUP7 MUL SDIV SWAP5 POP JUMPDEST PUSH16 0x4DA2CBF1BE5828000000000000000000 DUP6 SGT PUSH2 0x199F JUMPI PUSH32 0xFFFFFFFFFFFFFFFFFFFFFFFFFFFFFFFFC0000000000000000000000000000000 SWAP1 SWAP4 ADD SWAP3 PUSH16 0x4DA2CBF1BE5828000000000000000000 PUSH16 0x80000000000000000000000000000000 DUP7 MUL SDIV SWAP5 POP JUMPDEST PUSH16 0x63AFBE7AB2082C000000000000000000 DUP6 SGT PUSH2 0x1A03 JUMPI PUSH32 0xFFFFFFFFFFFFFFFFFFFFFFFFFFFFFFFFE0000000000000000000000000000000 SWAP1 SWAP4 ADD SWAP3 PUSH16 0x63AFBE7AB2082C000000000000000000 PUSH16 0x80000000000000000000000000000000 DUP7 MUL SDIV SWAP5 POP JUMPDEST PUSH16 0x70F5A893B608861E1F58934F97AEA57D DUP6 SGT PUSH2 0x1A67 JUMPI PUSH32 0xFFFFFFFFFFFFFFFFFFFFFFFFFFFFFFFFF0000000000000000000000000000000 SWAP1 SWAP4 ADD SWAP3 PUSH16 0x70F5A893B608861E1F58934F97AEA57D PUSH16 0x80000000000000000000000000000000 DUP7 MUL SDIV SWAP5 POP JUMPDEST PUSH32 0xFFFFFFFFFFFFFFFFFFFFFFFFFFFFFFFF80000000000000000000000000000000 DUP6 ADD SWAP3 POP DUP3 SWAP2 POP PUSH16 0x80000000000000000000000000000000 DUP3 DUP1 MUL SDIV SWAP1 POP PUSH17 0x100000000000000000000000000000000 DUP4 DUP2 SUB DUP4 MUL SDIV DUP5 ADD SWAP4 POP PUSH16 0x80000000000000000000000000000000 DUP2 DUP4 MUL DUP2 PUSH2 0x1ADD JUMPI INVALID JUMPDEST SDIV SWAP2 POP PUSH17 0x200000000000000000000000000000000 DUP4 PUSH16 0xAAAAAAAAAAAAAAAAAAAAAAAAAAAAAAAA SUB DUP4 MUL DUP2 PUSH2 0x1B0E JUMPI INVALID JUMPDEST SDIV DUP5 ADD SWAP4 POP PUSH16 0x80000000000000000000000000000000 DUP2 DUP4 MUL DUP2 PUSH2 0x1B2E JUMPI INVALID JUMPDEST SDIV SWAP2 POP PUSH17 0x300000000000000000000000000000000 DUP4 PUSH16 0x99999999999999999999999999999999 SUB DUP4 MUL DUP2 PUSH2 0x1B5F JUMPI INVALID JUMPDEST SDIV DUP5 ADD SWAP4 POP PUSH16 0x80000000000000000000000000000000 DUP2 DUP4 MUL DUP2 PUSH2 0x1B7F JUMPI INVALID JUMPDEST SDIV SWAP2 POP PUSH17 0x400000000000000000000000000000000 DUP4 PUSH16 0x92492492492492492492492492492492 SUB DUP4 MUL DUP2 PUSH2 0x1BB0 JUMPI INVALID JUMPDEST SDIV DUP5 ADD SWAP4 POP PUSH16 0x80000000000000000000000000000000 DUP2 DUP4 MUL DUP2 PUSH2 0x1BD0 JUMPI INVALID JUMPDEST SDIV SWAP2 POP PUSH17 0x500000000000000000000000000000000 DUP4 PUSH16 0x8E38E38E38E38E38E38E38E38E38E38E SUB DUP4 MUL DUP2 PUSH2 0x1C01 JUMPI INVALID JUMPDEST SDIV DUP5 ADD SWAP4 POP PUSH16 0x80000000000000000000000000000000 DUP2 DUP4 MUL DUP2 PUSH2 0x1C21 JUMPI INVALID JUMPDEST SDIV SWAP2 POP PUSH17 0x600000000000000000000000000000000 DUP4 PUSH16 0x8BA2E8BA2E8BA2E8BA2E8BA2E8BA2E8B SUB DUP4 MUL DUP2 PUSH2 0x1C52 JUMPI INVALID JUMPDEST SDIV DUP5 ADD SWAP4 POP PUSH16 0x80000000000000000000000000000000 DUP2 DUP4 MUL DUP2 PUSH2 0x1C72 JUMPI INVALID JUMPDEST SDIV SWAP2 POP PUSH17 0x700000000000000000000000000000000 DUP4 PUSH16 0x89D89D89D89D89D89D89D89D89D89D89 SUB DUP4 MUL DUP2 PUSH2 0x1CA3 JUMPI INVALID JUMPDEST SDIV DUP5 ADD SWAP4 POP PUSH16 0x80000000000000000000000000000000 DUP2 DUP4 MUL DUP2 PUSH2 0x1CC3 JUMPI INVALID JUMPDEST SDIV SWAP2 POP PUSH17 0x800000000000000000000000000000000 DUP4 PUSH16 0x88888888888888888888888888888888 SUB DUP4 MUL DUP2 PUSH2 0x1CF4 JUMPI INVALID JUMPDEST SDIV DUP5 ADD SWAP4 POP POP POP POP SWAP2 SWAP1 POP JUMP JUMPDEST PUSH1 0x0 PUSH32 0xFFFFFFFFFFFFFFFFFFFFFFFFFFFFFFE010000000000000000000000000000000 DUP3 SLT ISZERO PUSH2 0x1D33 JUMPI POP PUSH1 0x0 PUSH2 0x1BA JUMP JUMPDEST DUP2 PUSH2 0x1D4F JUMPI POP PUSH16 0x80000000000000000000000000000000 PUSH2 0x1BA JUMP JUMPDEST PUSH1 0x0 DUP3 SGT ISZERO PUSH2 0x1D8A JUMPI PUSH1 0x40 MLOAD PUSH32 0x8C379A000000000000000000000000000000000000000000000000000000000 DUP2 MSTORE PUSH1 0x4 ADD PUSH2 0x4F6 SWAP1 PUSH2 0x2DB3 JUMP JUMPDEST PUSH16 0x80000000000000000000000000000000 PUSH16 0x10000000000000000000000000000000 DUP4 SMOD DUP1 DUP1 MUL DUP3 SWAP1 SDIV PUSH8 0x10E1B3BE415A0000 DUP2 MUL SWAP4 SWAP1 SWAP4 ADD SWAP3 SWAP1 SWAP2 DUP2 DUP4 MUL SDIV SWAP1 POP DUP1 PUSH8 0x5A0913F6B1E0000 MUL DUP4 ADD SWAP3 POP PUSH16 0x80000000000000000000000000000000 DUP3 DUP3 MUL DUP2 PUSH2 0x1DF6 JUMPI INVALID JUMPDEST SDIV SWAP1 POP DUP1 PUSH8 0x168244FDAC78000 MUL DUP4 ADD SWAP3 POP PUSH16 0x80000000000000000000000000000000 DUP3 DUP3 MUL DUP2 PUSH2 0x1E23 JUMPI INVALID JUMPDEST SDIV SWAP1 POP DUP1 PUSH7 0x4807432BC18000 MUL DUP4 ADD SWAP3 POP PUSH16 0x80000000000000000000000000000000 DUP3 DUP3 MUL DUP2 PUSH2 0x1E4F JUMPI INVALID JUMPDEST SDIV SWAP1 POP DUP1 PUSH7 0xC0135DCA04000 MUL DUP4 ADD SWAP3 POP PUSH16 0x80000000000000000000000000000000 DUP3 DUP3 MUL DUP2 PUSH2 0x1E7B JUMPI INVALID JUMPDEST SDIV SWAP1 POP DUP1 PUSH7 0x1B707B1CDC000 MUL DUP4 ADD SWAP3 POP PUSH16 0x80000000000000000000000000000000 DUP3 DUP3 MUL DUP2 PUSH2 0x1EA7 JUMPI INVALID JUMPDEST SDIV SWAP1 POP DUP1 PUSH6 0x36E0F639B800 MUL DUP4 ADD SWAP3 POP PUSH16 0x80000000000000000000000000000000 DUP3 DUP3 MUL DUP2 PUSH2 0x1ED2 JUMPI INVALID JUMPDEST SDIV SWAP1 POP DUP1 PUSH6 0x618FEE9F800 MUL DUP4 ADD SWAP3 POP PUSH16 0x80000000000000000000000000000000 DUP3 DUP3 MUL DUP2 PUSH2 0x1EFD JUMPI INVALID JUMPDEST SDIV SWAP1 POP DUP1 PUSH5 0x9C197DCC00 MUL DUP4 ADD SWAP3 POP PUSH16 0x80000000000000000000000000000000 DUP3 DUP3 MUL DUP2 PUSH2 0x1F27 JUMPI INVALID JUMPDEST SDIV SWAP1 POP DUP1 PUSH5 0xE30DCE400 MUL DUP4 ADD SWAP3 POP PUSH16 0x80000000000000000000000000000000 DUP3 DUP3 MUL DUP2 PUSH2 0x1F51 JUMPI INVALID JUMPDEST SDIV SWAP1 POP DUP1 PUSH5 0x12EBD1300 MUL DUP4 ADD SWAP3 POP PUSH16 0x80000000000000000000000000000000 DUP3 DUP3 MUL DUP2 PUSH2 0x1F7B JUMPI INVALID JUMPDEST SDIV SWAP1 POP DUP1 PUSH4 0x17499F00 MUL DUP4 ADD SWAP3 POP PUSH16 0x80000000000000000000000000000000 DUP3 DUP3 MUL DUP2 PUSH2 0x1FA4 JUMPI INVALID JUMPDEST SDIV SWAP1 POP DUP1 PUSH4 0x1A9D480 MUL DUP4 ADD SWAP3 POP PUSH16 0x80000000000000000000000000000000 DUP3 DUP3 MUL DUP2 PUSH2 0x1FCD JUMPI INVALID JUMPDEST SDIV SWAP1 POP DUP1 PUSH3 0x1C6380 MUL DUP4 ADD SWAP3 POP PUSH16 0x80000000000000000000000000000000 DUP3 DUP3 MUL DUP2 PUSH2 0x1FF5 JUMPI INVALID JUMPDEST SDIV SWAP1 POP DUP1 PUSH3 0x1C638 MUL DUP4 ADD SWAP3 POP PUSH16 0x80000000000000000000000000000000 DUP3 DUP3 MUL DUP2 PUSH2 0x201D JUMPI INVALID JUMPDEST SDIV SWAP1 POP DUP1 PUSH2 0x1AB8 MUL DUP4 ADD SWAP3 POP PUSH16 0x80000000000000000000000000000000 DUP3 DUP3 MUL DUP2 PUSH2 0x2044 JUMPI INVALID JUMPDEST SDIV SWAP1 POP DUP1 PUSH2 0x17C MUL DUP4 ADD SWAP3 POP PUSH16 0x80000000000000000000000000000000 DUP3 DUP3 MUL DUP2 PUSH2 0x206B JUMPI INVALID JUMPDEST SDIV SWAP1 POP DUP1 PUSH1 0x14 MUL DUP4 ADD SWAP3 POP PUSH16 0x80000000000000000000000000000000 DUP3 DUP3 MUL DUP2 PUSH2 0x2091 JUMPI INVALID JUMPDEST PUSH1 0x0 SWAP6 SWAP1 SWAP6 SUB SWAP5 PUSH8 0x21C3677C82B40000 SWAP2 SWAP1 SDIV SWAP4 DUP5 ADD SDIV DUP3 ADD PUSH16 0x80000000000000000000000000000000 ADD SWAP3 SWAP1 POP PUSH17 0x1000000000000000000000000000000000 DUP5 AND ISZERO PUSH2 0x2100 JUMPI PUSH19 0x43CBAF42A000812488FC5C220AD7B97BF6E99E PUSH13 0xF1AADDD7742E56D32FB9F99744 DUP5 MUL SDIV SWAP3 POP JUMPDEST PUSH17 0x800000000000000000000000000000000 DUP5 AND ISZERO PUSH2 0x2142 JUMPI PUSH18 0x5D27A9F51C31B7C2F8038212A0574779991 PUSH15 0xAFE10820813D65DFE6A33C07F738F DUP5 MUL SDIV SWAP3 POP JUMPDEST PUSH17 0x400000000000000000000000000000000 DUP5 AND ISZERO PUSH2 0x2184 JUMPI PUSH17 0x1B4C902E273A58678D6D3BFDB93DB96D02 PUSH16 0x2582AB704279E8EFD15E0265855C47A DUP5 MUL SDIV SWAP3 POP JUMPDEST PUSH17 0x200000000000000000000000000000000 DUP5 AND ISZERO PUSH2 0x21C6 JUMPI PUSH17 0x3B1CC971A9BB5B9867477440D6D157750 PUSH16 0x1152AAA3BF81CB9FDB76EAE12D029571 DUP5 MUL SDIV SWAP3 POP JUMPDEST PUSH17 0x100000000000000000000000000000000 DUP5 AND ISZERO PUSH2 0x2208 JUMPI PUSH17 0x15BF0A8B1457695355FB8AC404E7A79E3 PUSH16 0x2F16AC6C59DE6F8D5D6F63C1482A7C86 DUP5 MUL SDIV SWAP3 POP JUMPDEST PUSH16 0x80000000000000000000000000000000 DUP5 AND ISZERO PUSH2 0x2248 JUMPI PUSH16 0xD3094C70F034DE4B96FF7D5B6F99FCD8 PUSH16 0x4DA2CBF1BE5827F9EB3AD1AA9866EBB3 DUP5 MUL SDIV SWAP3 POP JUMPDEST PUSH16 0x40000000000000000000000000000000 DUP5 AND ISZERO PUSH2 0x2288 JUMPI PUSH16 0xA45AF1E1F40C333B3DE1DB4DD55F29A7 PUSH16 0x63AFBE7AB2082BA1A0AE5E4EB1B479DC DUP5 MUL SDIV SWAP3 POP JUMPDEST PUSH16 0x20000000000000000000000000000000 DUP5 AND ISZERO PUSH2 0x22C8 JUMPI PUSH16 0x910B022DB7AE67CE76B441C27035C6A1 PUSH16 0x70F5A893B608861E1F58934F97AEA57D DUP5 MUL SDIV SWAP3 POP JUMPDEST PUSH16 0x10000000000000000000000000000000 DUP5 AND ISZERO PUSH2 0x2308 JUMPI PUSH16 0x88415ABBE9A76BEAD8D00CF112E4D4A8 PUSH16 0x783EAFEF1C0A8F3978C7F81824D62EBF DUP5 MUL SDIV SWAP3 POP JUMPDEST POP POP SWAP2 SWAP1 POP JUMP JUMPDEST PUSH1 0x0 PUSH2 0xC27 DUP3 PUSH16 0x80000000000000000000000000000000 PUSH2 0x111F JUMP JUMPDEST PUSH1 0x0 DUP1 PUSH2 0x2338 PUSH1 0x2 PUSH2 0x230F JUMP JUMPDEST SWAP1 POP PUSH1 0x0 PUSH2 0x235E PUSH2 0x2355 DUP11 PUSH2 0x1380 DUP14 PUSH2 0x1380 DUP14 PUSH2 0x1380 PUSH1 0x4 PUSH2 0x230F JUMP JUMPDEST PUSH2 0x140D DUP8 PUSH2 0x269E JUMP JUMPDEST SWAP1 POP PUSH1 0x0 PUSH2 0x237A DUP4 PUSH2 0x1083 PUSH2 0x2375 DUP6 PUSH2 0x1083 PUSH2 0x110B JUMP JUMPDEST PUSH2 0x1617 JUMP JUMPDEST PUSH1 0x0 SUB SWAP1 POP PUSH1 0x0 DUP1 DUP3 SGT ISZERO PUSH2 0x239D JUMPI PUSH2 0x2398 PUSH2 0x13AB DUP4 PUSH1 0x0 SUB PUSH2 0x1D01 JUMP JUMPDEST PUSH2 0x23A6 JUMP JUMPDEST PUSH2 0x23A6 DUP3 PUSH2 0x1D01 JUMP JUMPDEST SWAP1 POP PUSH1 0x0 PUSH2 0x23D1 PUSH2 0x23BD DUP7 DUP14 PUSH4 0xFFFFFFFF PUSH2 0xE5B AND JUMP JUMPDEST PUSH2 0x1083 PUSH1 0x0 DUP12 SWAP1 SUB DUP6 PUSH4 0xFFFFFFFF PUSH2 0xEAE AND JUMP JUMPDEST SWAP1 POP PUSH1 0x0 PUSH2 0x23DF DUP11 DUP4 PUSH2 0x26AA JUMP JUMPDEST SWAP15 SWAP14 POP POP POP POP POP POP POP POP POP POP POP POP POP POP JUMP JUMPDEST PUSH1 0x0 DUP1 PUSH2 0x2424 PUSH2 0x2417 PUSH2 0x240A DUP7 DUP11 PUSH4 0xFFFFFFFF PUSH2 0xE5B AND JUMP JUMPDEST DUP11 SWAP1 PUSH4 0xFFFFFFFF PUSH2 0xCD0 AND JUMP JUMPDEST DUP11 SWAP1 PUSH4 0xFFFFFFFF PUSH2 0xE5B AND JUMP JUMPDEST SWAP1 POP PUSH1 0x0 PUSH2 0x243B PUSH2 0x2417 DUP12 DUP8 PUSH4 0xFFFFFFFF PUSH2 0xEAE AND JUMP JUMPDEST SWAP1 POP PUSH1 0x0 PUSH2 0x2452 PUSH2 0x2375 DUP5 DUP5 PUSH4 0xFFFFFFFF PUSH2 0x12E9 AND JUMP JUMPDEST SWAP1 POP PUSH1 0x0 PUSH2 0x246B DUP3 PUSH2 0x1380 DUP9 PUSH2 0x100 ADD MLOAD PUSH2 0xB82 PUSH2 0x110B JUMP JUMPDEST SWAP1 POP PUSH1 0x0 PUSH2 0x2480 DUP10 PUSH2 0x1083 DUP11 PUSH2 0x1380 DUP7 PUSH2 0x1D01 JUMP JUMPDEST SWAP14 SWAP13 POP POP POP POP POP POP POP POP POP POP POP POP POP JUMP JUMPDEST PUSH1 0x0 DUP1 PUSH2 0x24A4 DUP5 DUP7 PUSH4 0xFFFFFFFF PUSH2 0x12E9 AND JUMP JUMPDEST SWAP1 POP PUSH1 0x0 PUSH2 0x24D2 PUSH2 0x24C0 DUP7 PUSH2 0x1380 DUP8 PUSH2 0x100 ADD MLOAD PUSH2 0xB82 PUSH2 0x110B JUMP JUMPDEST PUSH2 0x100 DUP7 ADD MLOAD SWAP1 PUSH4 0xFFFFFFFF PUSH2 0xEAE AND JUMP JUMPDEST SWAP1 POP PUSH1 0x0 PUSH2 0x24F6 PUSH2 0x24EE DUP9 PUSH2 0x1380 DUP9 PUSH2 0x100 ADD MLOAD PUSH2 0xB82 PUSH2 0x110B JUMP JUMPDEST PUSH2 0x140D PUSH2 0x110B JUMP JUMPDEST SWAP1 POP PUSH1 0x0 PUSH2 0x250A DUP4 DUP4 PUSH4 0xFFFFFFFF PUSH2 0x12E9 AND JUMP JUMPDEST SWAP1 POP DUP1 DUP5 SLT PUSH2 0x2519 JUMPI DUP1 PUSH2 0x2480 JUMP JUMPDEST POP SWAP2 SWAP12 SWAP11 POP POP POP POP POP POP POP POP POP POP POP JUMP JUMPDEST PUSH1 0x0 DUP1 PUSH2 0x2536 DUP8 PUSH2 0x26C1 JUMP JUMPDEST SWAP1 POP PUSH1 0x0 PUSH2 0x2568 PUSH2 0x2552 DUP7 PUSH2 0x1380 DUP8 PUSH2 0x100 ADD MLOAD PUSH2 0xB82 PUSH2 0x110B JUMP JUMPDEST PUSH2 0x100 DUP7 ADD MLOAD PUSH2 0x140D SWAP1 DUP6 PUSH4 0xFFFFFFFF PUSH2 0xE5B AND JUMP JUMPDEST SWAP1 POP PUSH1 0x0 PUSH2 0x2595 PUSH2 0x2588 DUP11 PUSH2 0x1380 DUP11 PUSH2 0x1380 DUP11 PUSH2 0x100 ADD MLOAD PUSH2 0xB82 PUSH2 0x110B JUMP JUMPDEST DUP5 SWAP1 PUSH4 0xFFFFFFFF PUSH2 0xEAE AND JUMP JUMPDEST SWAP1 POP PUSH1 0x0 PUSH2 0x25AD DUP3 PUSH2 0x1083 DUP13 DUP7 PUSH4 0xFFFFFFFF PUSH2 0xE5B AND JUMP JUMPDEST SWAP1 POP DUP9 DUP2 SLT PUSH2 0x25BC JUMPI DUP9 PUSH2 0x13C6 JUMP JUMPDEST SWAP10 SWAP9 POP POP POP POP POP POP POP POP POP JUMP JUMPDEST PUSH1 0x0 PUSH2 0xD39 PUSH2 0x25D9 PUSH2 0x24EE PUSH2 0x110B JUMP JUMPDEST PUSH2 0x1083 DUP6 DUP6 PUSH4 0xFFFFFFFF PUSH2 0xEAE AND JUMP JUMPDEST PUSH1 0x0 DUP1 PUSH2 0x25FC DUP4 DUP1 PUSH4 0xFFFFFFFF PUSH2 0xE5B AND JUMP JUMPDEST SWAP1 POP PUSH1 0x0 PUSH2 0x2610 DUP5 DUP4 PUSH4 0xFFFFFFFF PUSH2 0xE5B AND JUMP JUMPDEST SWAP1 POP PUSH1 0x0 PUSH2 0x2624 DUP3 DUP1 PUSH4 0xFFFFFFFF PUSH2 0xE5B AND JUMP JUMPDEST SWAP1 POP PUSH1 0x0 PUSH2 0x2638 DUP3 DUP1 PUSH4 0xFFFFFFFF PUSH2 0xE5B AND JUMP JUMPDEST SWAP1 POP PUSH1 0x0 PUSH2 0x264C DUP3 DUP1 PUSH4 0xFFFFFFFF PUSH2 0xE5B AND JUMP JUMPDEST SWAP1 POP PUSH1 0x0 PUSH2 0x2660 DUP3 DUP1 PUSH4 0xFFFFFFFF PUSH2 0xE5B AND JUMP JUMPDEST SWAP1 POP PUSH1 0x0 PUSH2 0x2674 DUP3 DUP1 PUSH4 0xFFFFFFFF PUSH2 0xE5B AND JUMP JUMPDEST SWAP1 POP PUSH1 0x0 PUSH2 0x13C6 DUP3 DUP9 PUSH4 0xFFFFFFFF PUSH2 0xE5B AND JUMP JUMPDEST PUSH16 0x80000000000000000000000000000000 SWAP1 SDIV SWAP1 JUMP JUMPDEST PUSH1 0x0 PUSH2 0xC27 DUP3 DUP4 PUSH2 0xE5B JUMP JUMPDEST PUSH1 0x0 DUP2 DUP4 SGT ISZERO PUSH2 0x26BA JUMPI DUP2 PUSH2 0xD39 JUMP JUMPDEST POP SWAP1 SWAP2 SWAP1 POP JUMP JUMPDEST PUSH1 0x0 DUP1 PUSH2 0x26D4 DUP4 DUP1 PUSH4 0xFFFFFFFF PUSH2 0xE5B AND JUMP JUMPDEST SWAP1 POP PUSH1 0x0 PUSH2 0x26E8 DUP5 DUP4 PUSH4 0xFFFFFFFF PUSH2 0xE5B AND JUMP JUMPDEST SWAP1 POP PUSH1 0x0 PUSH2 0x26FC DUP3 DUP1 PUSH4 0xFFFFFFFF PUSH2 0xE5B AND JUMP JUMPDEST SWAP1 POP PUSH1 0x0 PUSH2 0x2710 DUP3 DUP1 PUSH4 0xFFFFFFFF PUSH2 0xE5B AND JUMP JUMPDEST SWAP1 POP PUSH1 0x0 PUSH2 0x2724 DUP3 DUP1 PUSH4 0xFFFFFFFF PUSH2 0xE5B AND JUMP JUMPDEST SWAP1 POP PUSH1 0x0 PUSH2 0x2738 DUP3 DUP1 PUSH4 0xFFFFFFFF PUSH2 0xE5B AND JUMP JUMPDEST SWAP1 POP PUSH1 0x0 PUSH2 0x274C DUP3 DUP9 PUSH4 0xFFFFFFFF PUSH2 0xE5B AND JUMP JUMPDEST SWAP1 POP PUSH1 0x0 PUSH2 0x13C6 DUP3 DUP1 PUSH4 0xFFFFFFFF PUSH2 0xE5B AND JUMP JUMPDEST PUSH1 0x40 MLOAD DUP1 PUSH2 0x1A0 ADD PUSH1 0x40 MSTORE DUP1 PUSH1 0x0 ISZERO ISZERO DUP2 MSTORE PUSH1 0x20 ADD PUSH1 0x0 PUSH20 0xFFFFFFFFFFFFFFFFFFFFFFFFFFFFFFFFFFFFFFFF AND DUP2 MSTORE PUSH1 0x20 ADD PUSH1 0x0 PUSH20 0xFFFFFFFFFFFFFFFFFFFFFFFFFFFFFFFFFFFFFFFF AND DUP2 MSTORE PUSH1 0x20 ADD PUSH1 0x0 DUP2 MSTORE PUSH1 0x20 ADD PUSH1 0x0 DUP2 MSTORE PUSH1 0x20 ADD PUSH1 0x0 DUP2 MSTORE PUSH1 0x20 ADD PUSH1 0x0 DUP2 MSTORE PUSH1 0x20 ADD PUSH1 0x0 DUP2 MSTORE PUSH1 0x20 ADD PUSH1 0x0 DUP2 MSTORE PUSH1 0x20 ADD PUSH1 0x0 DUP2 MSTORE PUSH1 0x20 ADD PUSH1 0x0 DUP2 MSTORE PUSH1 0x20 ADD PUSH1 0x0 DUP2 MSTORE PUSH1 0x20 ADD PUSH1 0x0 DUP2 MSTORE POP SWAP1 JUMP JUMPDEST DUP1 CALLDATALOAD PUSH20 0xFFFFFFFFFFFFFFFFFFFFFFFFFFFFFFFFFFFFFFFF DUP2 AND DUP2 EQ PUSH2 0xC27 JUMPI PUSH1 0x0 DUP1 REVERT JUMPDEST PUSH1 0x0 PUSH1 0x20 DUP3 DUP5 SUB SLT ISZERO PUSH2 0x282C JUMPI PUSH1 0x0 DUP1 REVERT JUMPDEST PUSH2 0xD39 DUP4 DUP4 PUSH2 0x27F6 JUMP JUMPDEST PUSH1 0x0 DUP1 PUSH1 0x40 DUP4 DUP6 SUB SLT ISZERO PUSH2 0x2849 JUMPI PUSH1 0x0 DUP1 REVERT JUMPDEST PUSH2 0x2853 DUP5 DUP5 PUSH2 0x27F6 JUMP JUMPDEST SWAP2 POP PUSH2 0x2862 DUP5 PUSH1 0x20 DUP6 ADD PUSH2 0x27F6 JUMP JUMPDEST SWAP1 POP SWAP3 POP SWAP3 SWAP1 POP JUMP JUMPDEST PUSH1 0x0 DUP1 PUSH1 0x0 PUSH1 0x60 DUP5 DUP7 SUB SLT ISZERO PUSH2 0x2880 JUMPI PUSH1 0x0 DUP1 REVERT JUMPDEST DUP4 CALLDATALOAD PUSH2 0x288B DUP2 PUSH2 0x2F9A JUMP JUMPDEST SWAP3 POP PUSH1 0x20 DUP5 ADD CALLDATALOAD PUSH2 0x289B DUP2 PUSH2 0x2F9A JUMP JUMPDEST SWAP3 SWAP6 SWAP3 SWAP5 POP POP POP PUSH1 0x40 SWAP2 SWAP1 SWAP2 ADD CALLDATALOAD SWAP1 JUMP JUMPDEST PUSH1 0x0 PUSH1 0x20 DUP3 DUP5 SUB SLT ISZERO PUSH2 0x28BE JUMPI PUSH1 0x0 DUP1 REVERT JUMPDEST DUP2 MLOAD DUP1 ISZERO ISZERO DUP2 EQ PUSH2 0xC24 JUMPI PUSH1 0x0 DUP1 REVERT JUMPDEST PUSH1 0x0 PUSH1 0x20 DUP3 DUP5 SUB SLT ISZERO PUSH2 0x28E0 JUMPI PUSH1 0x0 DUP1 REVERT JUMPDEST POP CALLDATALOAD SWAP2 SWAP1 POP JUMP JUMPDEST PUSH1 0x0 DUP1 PUSH1 0x40 DUP4 DUP6 SUB SLT ISZERO PUSH2 0x28FA JUMPI PUSH1 0x0 DUP1 REVERT JUMPDEST POP POP DUP1 CALLDATALOAD SWAP3 PUSH1 0x20 SWAP1 SWAP2 ADD CALLDATALOAD SWAP2 POP JUMP JUMPDEST PUSH20 0xFFFFFFFFFFFFFFFFFFFFFFFFFFFFFFFFFFFFFFFF SWAP2 SWAP1 SWAP2 AND DUP2 MSTORE PUSH1 0x20 ADD SWAP1 JUMP JUMPDEST PUSH20 0xFFFFFFFFFFFFFFFFFFFFFFFFFFFFFFFFFFFFFFFF SWAP3 DUP4 AND DUP2 MSTORE SWAP2 AND PUSH1 0x20 DUP3 ADD MSTORE PUSH1 0x40 ADD SWAP1 JUMP JUMPDEST PUSH20 0xFFFFFFFFFFFFFFFFFFFFFFFFFFFFFFFFFFFFFFFF SWAP6 DUP7 AND DUP2 MSTORE SWAP4 DUP6 AND PUSH1 0x20 DUP6 ADD MSTORE SWAP2 SWAP1 SWAP4 AND PUSH1 0x40 DUP4 ADD MSTORE PUSH1 0x60 DUP3 ADD SWAP3 SWAP1 SWAP3 MSTORE PUSH1 0x80 DUP2 ADD SWAP2 SWAP1 SWAP2 MSTORE PUSH1 0xA0 ADD SWAP1 JUMP JUMPDEST PUSH20 0xFFFFFFFFFFFFFFFFFFFFFFFFFFFFFFFFFFFFFFFF SWAP4 DUP5 AND DUP2 MSTORE SWAP2 SWAP1 SWAP3 AND PUSH1 0x20 DUP3 ADD MSTORE PUSH1 0x40 DUP2 ADD SWAP2 SWAP1 SWAP2 MSTORE PUSH1 0x60 ADD SWAP1 JUMP JUMPDEST PUSH20 0xFFFFFFFFFFFFFFFFFFFFFFFFFFFFFFFFFFFFFFFF SWAP3 SWAP1 SWAP3 AND DUP3 MSTORE PUSH1 0x20 DUP3 ADD MSTORE PUSH1 0x40 ADD SWAP1 JUMP JUMPDEST SWAP13 ISZERO ISZERO DUP14 MSTORE PUSH20 0xFFFFFFFFFFFFFFFFFFFFFFFFFFFFFFFFFFFFFFFF SWAP12 DUP13 AND PUSH1 0x20 DUP15 ADD MSTORE SWAP10 SWAP1 SWAP11 AND PUSH1 0x40 DUP13 ADD MSTORE PUSH1 0x60 DUP12 ADD SWAP8 SWAP1 SWAP8 MSTORE PUSH1 0x80 DUP11 ADD SWAP6 SWAP1 SWAP6 MSTORE PUSH1 0xA0 DUP10 ADD SWAP4 SWAP1 SWAP4 MSTORE PUSH1 0xC0 DUP9 ADD SWAP2 SWAP1 SWAP2 MSTORE PUSH1 0xE0 DUP8 ADD MSTORE PUSH2 0x100 DUP7 ADD MSTORE PUSH2 0x120 DUP6 ADD MSTORE PUSH2 0x140 DUP5 ADD MSTORE PUSH2 0x160 DUP4 ADD SWAP2 SWAP1 SWAP2 MSTORE PUSH2 0x180 DUP3 ADD MSTORE PUSH2 0x1A0 ADD SWAP1 JUMP JUMPDEST SWAP3 DUP4 MSTORE PUSH1 0x20 DUP4 ADD SWAP2 SWAP1 SWAP2 MSTORE PUSH1 0x40 DUP3 ADD MSTORE PUSH1 0x60 ADD SWAP1 JUMP JUMPDEST SWAP8 DUP9 MSTORE PUSH1 0x20 DUP9 ADD SWAP7 SWAP1 SWAP7 MSTORE PUSH1 0x40 DUP8 ADD SWAP5 SWAP1 SWAP5 MSTORE PUSH1 0x60 DUP7 ADD SWAP3 SWAP1 SWAP3 MSTORE PUSH1 0x80 DUP6 ADD MSTORE PUSH1 0xA0 DUP5 ADD MSTORE PUSH1 0xC0 DUP4 ADD MSTORE PUSH1 0xE0 DUP3 ADD MSTORE PUSH2 0x100 ADD SWAP1 JUMP JUMPDEST PUSH1 0x20 DUP1 DUP3 MSTORE PUSH1 0x11 SWAP1 DUP3 ADD MSTORE PUSH32 0x736166654164643A206F766572666C6F77000000000000000000000000000000 PUSH1 0x40 DUP3 ADD MSTORE PUSH1 0x60 ADD SWAP1 JUMP JUMPDEST PUSH1 0x20 DUP1 DUP3 MSTORE PUSH1 0x2A SWAP1 DUP3 ADD MSTORE PUSH32 0x4C697175696474793A416D6F756E74206465706F7369746564206E6F74207072 PUSH1 0x40 DUP3 ADD MSTORE PUSH32 0x6F706F7274696F6E616C00000000000000000000000000000000000000000000 PUSH1 0x60 DUP3 ADD MSTORE PUSH1 0x80 ADD SWAP1 JUMP JUMPDEST PUSH1 0x20 DUP1 DUP3 MSTORE PUSH1 0x11 SWAP1 DUP3 ADD MSTORE PUSH32 0x736166654469763A206F766572666C6F77000000000000000000000000000000 PUSH1 0x40 DUP3 ADD MSTORE PUSH1 0x60 ADD SWAP1 JUMP JUMPDEST PUSH1 0x20 DUP1 DUP3 MSTORE PUSH1 0x12 SWAP1 DUP3 ADD MSTORE PUSH32 0x736166655375623A20756E646572666C6F770000000000000000000000000000 PUSH1 0x40 DUP3 ADD MSTORE PUSH1 0x60 ADD SWAP1 JUMP JUMPDEST PUSH1 0x20 DUP1 DUP3 MSTORE PUSH1 0x13 SWAP1 DUP3 ADD MSTORE PUSH32 0x6C6E3A2076616C756520746F6F20736D616C6C00000000000000000000000000 PUSH1 0x40 DUP3 ADD MSTORE PUSH1 0x60 ADD SWAP1 JUMP JUMPDEST PUSH1 0x20 DUP1 DUP3 MSTORE PUSH1 0xE SWAP1 DUP3 ADD MSTORE PUSH32 0x4F6E6C794F776E65724572726F72000000000000000000000000000000000000 PUSH1 0x40 DUP3 ADD MSTORE PUSH1 0x60 ADD SWAP1 JUMP JUMPDEST PUSH1 0x20 DUP1 DUP3 MSTORE PUSH1 0x13 SWAP1 DUP3 ADD MSTORE PUSH32 0x416C726561647920496E697469616C697A656400000000000000000000000000 PUSH1 0x40 DUP3 ADD MSTORE PUSH1 0x60 ADD SWAP1 JUMP JUMPDEST PUSH1 0x20 DUP1 DUP3 MSTORE PUSH1 0x17 SWAP1 DUP3 ADD MSTORE PUSH32 0x496E76616C696420746F6B656E20616464726573736573000000000000000000 PUSH1 0x40 DUP3 ADD MSTORE PUSH1 0x60 ADD SWAP1 JUMP JUMPDEST PUSH1 0x20 DUP1 DUP3 MSTORE PUSH1 0x38 SWAP1 DUP3 ADD MSTORE PUSH32 0x746F46697865642875696E742C75696E74293A2064656E6F6D696E61746F7220 PUSH1 0x40 DUP3 ADD MSTORE PUSH32 0x63616E6E6F74206265206C657373207468616E207A65726F0000000000000000 PUSH1 0x60 DUP3 ADD MSTORE PUSH1 0x80 ADD SWAP1 JUMP JUMPDEST PUSH1 0x20 DUP1 DUP3 MSTORE PUSH1 0x13 SWAP1 DUP3 ADD MSTORE PUSH32 0x6C6E3A2076616C756520746F6F206C6172676500000000000000000000000000 PUSH1 0x40 DUP3 ADD MSTORE PUSH1 0x60 ADD SWAP1 JUMP JUMPDEST PUSH1 0x20 DUP1 DUP3 MSTORE PUSH1 0x27 SWAP1 DUP3 ADD MSTORE PUSH32 0x746F46697865643A2076616C75652063616E6E6F74206265206C657373207468 PUSH1 0x40 DUP3 ADD MSTORE PUSH32 0x616E207A65726F00000000000000000000000000000000000000000000000000 PUSH1 0x60 DUP3 ADD MSTORE PUSH1 0x80 ADD SWAP1 JUMP JUMPDEST PUSH1 0x20 DUP1 DUP3 MSTORE PUSH1 0x11 SWAP1 DUP3 ADD MSTORE PUSH32 0x736166654D756C3A206F766572666C6F77000000000000000000000000000000 PUSH1 0x40 DUP3 ADD MSTORE PUSH1 0x60 ADD SWAP1 JUMP JUMPDEST PUSH1 0x20 DUP1 DUP3 MSTORE PUSH1 0x14 SWAP1 DUP3 ADD MSTORE PUSH32 0x6578703A2076616C756520746F6F20736D616C6C000000000000000000000000 PUSH1 0x40 DUP3 ADD MSTORE PUSH1 0x60 ADD SWAP1 JUMP JUMPDEST PUSH1 0x20 DUP1 DUP3 MSTORE PUSH1 0x18 SWAP1 DUP3 ADD MSTORE PUSH32 0x5472616E736665724F776E6572546F5A65726F4572726F720000000000000000 PUSH1 0x40 DUP3 ADD MSTORE PUSH1 0x60 ADD SWAP1 JUMP JUMPDEST PUSH1 0x20 DUP1 DUP3 MSTORE PUSH1 0xE SWAP1 DUP3 ADD MSTORE PUSH32 0x5F6D756C3A206F766572666C6F77000000000000000000000000000000000000 PUSH1 0x40 DUP3 ADD MSTORE PUSH1 0x60 ADD SWAP1 JUMP JUMPDEST PUSH1 0x20 DUP1 DUP3 MSTORE PUSH1 0xE SWAP1 DUP3 ADD MSTORE PUSH32 0x5F6164643A206F766572666C6F77000000000000000000000000000000000000 PUSH1 0x40 DUP3 ADD MSTORE PUSH1 0x60 ADD SWAP1 JUMP JUMPDEST PUSH1 0x20 DUP1 DUP3 MSTORE PUSH1 0x14 SWAP1 DUP3 ADD MSTORE PUSH32 0x7375623A2076616C756520746F6F20736D616C6C000000000000000000000000 PUSH1 0x40 DUP3 ADD MSTORE PUSH1 0x60 ADD SWAP1 JUMP JUMPDEST PUSH1 0x20 DUP1 DUP3 MSTORE PUSH1 0x36 SWAP1 DUP3 ADD MSTORE PUSH32 0x746F46697865642875696E742C75696E74293A206E756D657261746F72206361 PUSH1 0x40 DUP3 ADD MSTORE PUSH32 0x6E6E6F74206265206C657373207468616E207A65726F00000000000000000000 PUSH1 0x60 DUP3 ADD MSTORE PUSH1 0x80 ADD SWAP1 JUMP JUMPDEST PUSH1 0x20 DUP1 DUP3 MSTORE PUSH1 0x14 SWAP1 DUP3 ADD MSTORE PUSH32 0x5F6469763A20646976696465206279207A65726F000000000000000000000000 PUSH1 0x40 DUP3 ADD MSTORE PUSH1 0x60 ADD SWAP1 JUMP JUMPDEST PUSH1 0x20 DUP1 DUP3 MSTORE PUSH1 0xE SWAP1 DUP3 ADD MSTORE PUSH32 0x5F6469763A206F766572666C6F77000000000000000000000000000000000000 PUSH1 0x40 DUP3 ADD MSTORE PUSH1 0x60 ADD SWAP1 JUMP JUMPDEST SWAP1 DUP2 MSTORE PUSH1 0x20 ADD SWAP1 JUMP JUMPDEST PUSH20 0xFFFFFFFFFFFFFFFFFFFFFFFFFFFFFFFFFFFFFFFF DUP2 AND DUP2 EQ PUSH2 0x229 JUMPI PUSH1 0x0 DUP1 REVERT INVALID LOG3 PUSH6 0x627A7A723058 KECCAK256 DUP12 0xaf 0xe3 PUSH19 0x8B91E742C6C8F93FB4CA4ADCE2B7EAB24E61C0 EQ GASPRICE STATICCALL PUSH13 0x3E60FC78B46C6578706572696D PUSH6 0x6E74616CF564 PUSH20 0x6F6C634300050900400000000000000000000000 "
			}
		}
	},
	"sourceTreeHashHex": "0xa3735b1592ada02856d1dcb72a497e7393085561b19776d4b89612045d9b6435",
	"compiler": {
		"name": "solc",
		"version": "soljson-v0.5.9+commit.e560f70d.js",
		"settings": {
			"optimizer": {
				"enabled": true,
				"runs": 1000000,
				"details": {
					"yul": true,
					"deduplicate": true,
					"cse": true,
					"constantOptimizer": true
				}
			},
			"outputSelection": {
				"*": {
					"*": [
						"abi",
						"devdoc",
						"evm.bytecode.object",
						"evm.bytecode.sourceMap",
						"evm.deployedBytecode.object",
						"evm.deployedBytecode.sourceMap"
					]
				}
			},
			"evmVersion": "constantinople",
			"remappings": []
		}
	},
	"chains": {}
}