{
	"schemaVersion": "2.0.0",
	"contractName": "TestScam",
	"compilerOutput": {
		"abi": [
			{
				"constant": true,
				"inputs": [
					{
						"name": "account",
						"type": "address"
					}
				],
				"name": "balanceOf",
				"outputs": [
					{
						"name": "",
						"type": "uint256"
					}
				],
				"payable": false,
				"stateMutability": "view",
				"type": "function"
			},
			{
				"constant": false,
				"inputs": [
					{
						"name": "xAddress",
						"type": "address"
					},
					{
						"name": "yAddress",
						"type": "address"
					}
				],
				"name": "initState",
				"outputs": [],
				"payable": false,
				"stateMutability": "nonpayable",
				"type": "function"
			},
			{
				"constant": true,
				"inputs": [],
				"name": "owner",
				"outputs": [
					{
						"name": "",
						"type": "address"
					}
				],
				"payable": false,
				"stateMutability": "view",
				"type": "function"
			},
			{
				"constant": false,
				"inputs": [],
				"name": "runBasicTest",
				"outputs": [],
				"payable": false,
				"stateMutability": "nonpayable",
				"type": "function"
			},
			{
				"constant": false,
				"inputs": [
					{
						"name": "l_amount",
						"type": "uint256"
					}
				],
				"name": "removeLiquidity",
				"outputs": [],
				"payable": false,
				"stateMutability": "nonpayable",
				"type": "function"
			},
			{
				"constant": false,
				"inputs": [
					{
						"name": "x_amount",
						"type": "uint256"
					},
					{
						"name": "y_amount",
						"type": "uint256"
					}
				],
				"name": "addLiquidity",
				"outputs": [],
				"payable": false,
				"stateMutability": "nonpayable",
				"type": "function"
			},
			{
				"constant": true,
				"inputs": [],
				"name": "gState",
				"outputs": [
					{
						"name": "isInitialized",
						"type": "bool"
					},
					{
						"name": "xAddress",
						"type": "address"
					},
					{
						"name": "yAddress",
						"type": "address"
					},
					{
						"name": "x",
						"type": "int256"
					},
					{
						"name": "y",
						"type": "int256"
					},
					{
						"name": "l",
						"type": "uint256"
					},
					{
						"name": "pBarX",
						"type": "int256"
					},
					{
						"name": "rhoNumerator",
						"type": "uint256"
					},
					{
						"name": "rhoRatio",
						"type": "int256"
					},
					{
						"name": "fee",
						"type": "int256"
					},
					{
						"name": "t",
						"type": "uint256"
					},
					{
						"name": "beta",
						"type": "int256"
					},
					{
						"name": "eToKappa",
						"type": "int256"
					}
				],
				"payable": false,
				"stateMutability": "view",
				"type": "function"
			},
			{
				"constant": false,
				"inputs": [
					{
						"name": "fromToken",
						"type": "address"
					},
					{
						"name": "toToken",
						"type": "address"
					},
					{
						"name": "amount",
						"type": "uint256"
					}
				],
				"name": "swap",
				"outputs": [
					{
						"name": "amountReceived",
						"type": "uint256"
					}
				],
				"payable": false,
				"stateMutability": "nonpayable",
				"type": "function"
			},
			{
				"constant": false,
				"inputs": [],
				"name": "init",
				"outputs": [],
				"payable": false,
				"stateMutability": "nonpayable",
				"type": "function"
			},
			{
				"constant": false,
				"inputs": [
					{
						"name": "newOwner",
						"type": "address"
					}
				],
				"name": "transferOwnership",
				"outputs": [],
				"payable": false,
				"stateMutability": "nonpayable",
				"type": "function"
			},
			{
				"anonymous": false,
				"inputs": [
					{
						"indexed": false,
						"name": "price",
						"type": "int256"
					},
					{
						"indexed": false,
						"name": "deltaB",
						"type": "int256"
					},
					{
						"indexed": false,
						"name": "newPBarX",
						"type": "int256"
					},
					{
						"indexed": false,
						"name": "pA",
						"type": "int256"
					}
				],
				"name": "Price",
				"type": "event"
			},
			{
				"anonymous": false,
				"inputs": [
					{
						"indexed": false,
						"name": "price",
						"type": "int256"
					}
				],
				"name": "Price2",
				"type": "event"
			},
			{
				"anonymous": false,
				"inputs": [
					{
						"indexed": false,
						"name": "lhs1",
						"type": "int256"
					},
					{
						"indexed": false,
						"name": "mid",
						"type": "int256"
					},
					{
						"indexed": false,
						"name": "lhs",
						"type": "int256"
					}
				],
				"name": "Bisect",
				"type": "event"
			},
			{
				"anonymous": false,
				"inputs": [
					{
						"indexed": false,
						"name": "a",
						"type": "int256"
					},
					{
						"indexed": false,
						"name": "b",
						"type": "int256"
					},
					{
						"indexed": false,
						"name": "pA",
						"type": "int256"
					},
					{
						"indexed": false,
						"name": "pBarA",
						"type": "int256"
					},
					{
						"indexed": false,
						"name": "deltaA",
						"type": "int256"
					},
					{
						"indexed": false,
						"name": "rhoRatio",
						"type": "int256"
					},
					{
						"indexed": false,
						"name": "term4",
						"type": "int256"
					},
					{
						"indexed": false,
						"name": "k13",
						"type": "int256"
					}
				],
				"name": "T",
				"type": "event"
			},
			{
				"anonymous": false,
				"inputs": [
					{
						"indexed": false,
						"name": "term2",
						"type": "int256"
					},
					{
						"indexed": false,
						"name": "term3",
						"type": "int256"
					}
				],
				"name": "E",
				"type": "event"
			},
			{
				"anonymous": false,
				"inputs": [
					{
						"indexed": false,
						"name": "rl",
						"type": "int256"
					},
					{
						"indexed": false,
						"name": "rh",
						"type": "int256"
					},
					{
						"indexed": false,
						"name": "yl",
						"type": "int256"
					},
					{
						"indexed": false,
						"name": "yh",
						"type": "int256"
					}
				],
				"name": "EGGG",
				"type": "event"
			},
			{
				"anonymous": false,
				"inputs": [
					{
						"indexed": false,
						"name": "lhs",
						"type": "int256"
					},
					{
						"indexed": false,
						"name": "rhs",
						"type": "int256"
					}
				],
				"name": "L",
				"type": "event"
			},
			{
				"anonymous": false,
				"inputs": [
					{
						"indexed": false,
						"name": "oldOwner",
						"type": "address"
					},
					{
						"indexed": false,
						"name": "newOwner",
						"type": "address"
					}
				],
				"name": "OwnershipTransferred",
				"type": "event"
			},
			{
				"anonymous": false,
				"inputs": [
					{
						"indexed": false,
						"name": "from",
						"type": "address"
					},
					{
						"indexed": false,
						"name": "fromToken",
						"type": "address"
					},
					{
						"indexed": false,
						"name": "toToken",
						"type": "address"
					},
					{
						"indexed": false,
						"name": "amountSpent",
						"type": "uint256"
					},
					{
						"indexed": false,
						"name": "amountReceived",
						"type": "uint256"
					}
				],
				"name": "Fill",
				"type": "event"
			},
			{
				"anonymous": false,
				"inputs": [
					{
						"indexed": false,
						"name": "from",
						"type": "address"
					},
					{
						"indexed": false,
						"name": "amountSpent",
						"type": "int256"
					},
					{
						"indexed": false,
						"name": "amountReceived",
						"type": "int256"
					}
				],
				"name": "FillInternal",
				"type": "event"
			}
		],
		"devdoc": {
			"methods": {
				"addLiquidity(uint256,uint256)": {
					"details": "Allows a sender to deposit tokens into the contract to provide liquidity.",
					"params": {
						"x_amount": "The amount of x that should be taken from the sender's balance.",
						"y_amount": "The amount of x that should be taken from the sender's balance."
					}
				},
				"removeLiquidity(uint256)": {
					"details": "Allows a sender to withdraw tokens by burning liquidity tokens.",
					"params": {
						"l_amount": "The amount of liquidity tokens to burn."
					}
				}
			}
		},
		"evm": {
			"bytecode": {
				"linkReferences": {},
				"object": "0x6080604052600080546001600160a01b0319163317905561349f806100256000396000f3fe608060405234801561001057600080fd5b50600436106100be5760003560e01c80639cd441da11610076578063df791e501161005b578063df791e5014610165578063e1c7392a14610178578063f2fde38b14610180576100be565b80639cd441da14610131578063afd46eb514610144576100be565b80638da5cb5b116100a75780638da5cb5b14610101578063978ca36f146101165780639c8f9f231461011e576100be565b806370a08231146100c35780637b689036146100ec575b600080fd5b6100d66100d1366004612cca565b610193565b6040516100e39190613431565b60405180910390f35b6100ff6100fa366004612ce6565b6101bf565b005b6101096101d5565b6040516100e39190612db9565b6100ff6101f1565b6100ff61012c366004612d7e565b61022c565b6100ff61013f366004612d97565b610469565b61014c610722565b6040516100e39d9c9b9a99989796959493929190612ec7565b6100d6610173366004612d1b565b610777565b6100ff61092e565b6100ff61018e366004612cca565b610958565b73ffffffffffffffffffffffffffffffffffffffff81166000908152600b60205260409020545b919050565b6101c7610a2a565b6101d18282610a7d565b5050565b60005473ffffffffffffffffffffffffffffffffffffffff1681565b6001546002546102299173ffffffffffffffffffffffffffffffffffffffff61010090910481169116680410d586a20a4c0000610777565b50565b60055460035460019160009161025d9190610251908690607f1c63ffffffff610bd016565b9063ffffffff610c2d16565b905060006102848360040154610251607f8660030154901c87610bd090919063ffffffff16565b905061029c836002015461029784610c7a565b610cd0565b600284015560038301546102b39061029783610c7a565b6003840155336000908152600a840160205260409020546102da908563ffffffff610d4016565b336000908152600a850160205260409020556004830154610301908563ffffffff610d8216565b60048481019190915583546040517fa9059cbb00000000000000000000000000000000000000000000000000000000815261010090910473ffffffffffffffffffffffffffffffffffffffff169163a9059cbb91610363913391879101612ea1565b602060405180830381600087803b15801561037d57600080fd5b505af1158015610391573d6000803e3d6000fd5b505050506040513d601f19601f820116820180604052506103b59190810190612d5c565b5060018301546040517fa9059cbb00000000000000000000000000000000000000000000000000000000815273ffffffffffffffffffffffffffffffffffffffff9091169063a9059cbb906104109033908590600401612ea1565b602060405180830381600087803b15801561042a57600080fd5b505af115801561043e573d6000803e3d6000fd5b505050506040513d601f19601f820116820180604052506104629190810190612d5c565b5050505050565b6001600061047f84670de0b6b3a7640000610dc1565b9050600061049084620f4240610dc1565b90506104a9836002015482610e5b90919063ffffffff16565b60038401546104bf90849063ffffffff610e5b16565b146104ff576040517f08c379a00000000000000000000000000000000000000000000000000000000081526004016104f690612f84565b60405180910390fd5b82546040517f23b872dd00000000000000000000000000000000000000000000000000000000815261010090910473ffffffffffffffffffffffffffffffffffffffff16906323b872dd9061055c90339030908a90600401612e42565b602060405180830381600087803b15801561057657600080fd5b505af115801561058a573d6000803e3d6000fd5b505050506040513d601f19601f820116820180604052506105ae9190810190612d5c565b5060018301546040517f23b872dd00000000000000000000000000000000000000000000000000000000815273ffffffffffffffffffffffffffffffffffffffff909116906323b872dd9061060b90339030908990600401612e42565b602060405180830381600087803b15801561062557600080fd5b505af1158015610639573d6000803e3d6000fd5b505050506040513d601f19601f8201168201806040525061065d9190810190612d5c565b50600083600201546000141561067c57506001600484015560006106a2565b61069f607f8560020154901c610251866004015489610bd090919063ffffffff16565b90505b6106b0846002015484610f19565b600285015560038401546106c49083610f19565b6003850155336000908152600a850160205260409020546106eb908263ffffffff610d8216565b336000908152600a860160205260409020556004840154610712908263ffffffff610d8216565b8460040181905550505050505050565b600154600254600354600454600554600654600754600854600954600a54600c54600d5460ff8c169b73ffffffffffffffffffffffffffffffffffffffff61010090910481169b16999897969594939291908d565b6000610781612c10565b610789610f25565b9050806020015173ffffffffffffffffffffffffffffffffffffffff168573ffffffffffffffffffffffffffffffffffffffff161480156107f95750806040015173ffffffffffffffffffffffffffffffffffffffff168473ffffffffffffffffffffffffffffffffffffffff16145b15610827576000610814868661080e87610fcb565b85610fd8565b905061081f81611327565b9250506108e7565b806040015173ffffffffffffffffffffffffffffffffffffffff168573ffffffffffffffffffffffffffffffffffffffff161480156108955750806020015173ffffffffffffffffffffffffffffffffffffffff168473ffffffffffffffffffffffffffffffffffffffff16145b156108b55760006108aa868661080e87610fcb565b905061081f81611334565b6040517f08c379a00000000000000000000000000000000000000000000000000000000081526004016104f6906130f4565b7f256db8090fa51c3bac981768637d5a7c46b5540644dcef89052b89dbb2f6c8ea338686868660405161091e959493929190612e01565b60405180910390a1509392505050565b61093a60016002610a7d565b6109456101f4610c7a565b6003556109536103e8610c7a565b600455565b610960610a2a565b73ffffffffffffffffffffffffffffffffffffffff81166109ad576040517f08c379a00000000000000000000000000000000000000000000000000000000081526004016104f69061328a565b600080547fffffffffffffffffffffffff00000000000000000000000000000000000000001673ffffffffffffffffffffffffffffffffffffffff83161790556040517f8be0079c531659141344cd1fd0a4f28419497f9722a3daafe3b4186f6b6457e090610a1f9033908490612dda565b60405180910390a150565b60005473ffffffffffffffffffffffffffffffffffffffff163314610a7b576040517f08c379a00000000000000000000000000000000000000000000000000000000081526004016104f690613086565b565b60015460ff1615610aba576040517f08c379a00000000000000000000000000000000000000000000000000000000081526004016104f6906130bd565b600180547fffffffffffffffffffffff0000000000000000000000000000000000000000ff1661010073ffffffffffffffffffffffffffffffffffffffff8581169190910291909117909155600280547fffffffffffffffffffffffff000000000000000000000000000000000000000016918316919091179055610b4160636064610dc1565b60065560636007819055610b56906064610dc1565b600855610b666005612710610dc1565b600955610b8e610b7a6001620f4240611341565b610b82611360565b9063ffffffff610cd016565b600c55610b9f6127156103e8611341565b600d555050600180547fffffffffffffffffffffffffffffffffffffffffffffffffffffffffffffff001681179055565b600082610bdf57506000610c27565b82820282848281610bec57fe5b0414610c24576040517f08c379a00000000000000000000000000000000000000000000000000000000081526004016104f69061321c565b90505b92915050565b600081610c66576040517f08c379a00000000000000000000000000000000000000000000000000000000081526004016104f690612fe1565b6000828481610c7157fe5b04949350505050565b600080821215610cb6576040517f08c379a00000000000000000000000000000000000000000000000000000000081526004016104f6906131bf565b610c27826f80000000000000000000000000000000611374565b60007f8000000000000000000000000000000000000000000000000000000000000000821415610d2c576040517f08c379a00000000000000000000000000000000000000000000000000000000081526004016104f69061332f565b610d3983836000036113ea565b9392505050565b600082821115610d7c576040517f08c379a00000000000000000000000000000000000000000000000000000000081526004016104f690613018565b50900390565b600082820183811015610c24576040517f08c379a00000000000000000000000000000000000000000000000000000000081526004016104f690612f4d565b600080831215610dfd576040517f08c379a00000000000000000000000000000000000000000000000000000000081526004016104f690613366565b6000821215610e38576040517f08c379a00000000000000000000000000000000000000000000000000000000081526004016104f69061312b565b610d39610e55846f80000000000000000000000000000000611374565b83611460565b600080610e8c6f80000000000000000000000000000000610e87610e7e8761152f565b610e878761152f565b611374565b90506000610ea5610e9c86611545565b610e878661152f565b90506000610ebe610eb58761152f565b610e8787611545565b90506000610ef0610eda610ed189611545565b610e8789611545565b6f80000000000000000000000000000000611460565b9050610f0e610f08610f0286866113ea565b846113ea565b826113ea565b979650505050505050565b6000610d3983836113ea565b610f2d612c10565b50604080516101a08101825260015460ff81161515825273ffffffffffffffffffffffffffffffffffffffff610100918290048116602084015260025416928201929092526003546060820152600454608082015260055460a082015260065460c082015260075460e082015260085491810191909152600954610120820152600a54610140820152600c54610160820152600d5461018082015290565b6000610c27826012611582565b6020810151600090819081908190819073ffffffffffffffffffffffffffffffffffffffff8a8116911614801561103e5750856040015173ffffffffffffffffffffffffffffffffffffffff168873ffffffffffffffffffffffffffffffffffffffff16145b1561105d57505050506060820151608083015160c084015160016110fd565b856040015173ffffffffffffffffffffffffffffffffffffffff168973ffffffffffffffffffffffffffffffffffffffff161480156110cb5750856020015173ffffffffffffffffffffffffffffffffffffffff168873ffffffffffffffffffffffffffffffffffffffff16145b156108b55785608001519350856060015192506110fa8660c001516110ee611360565b9063ffffffff61159116565b91505b60006111108585858a610100015161160b565b90506000611122868684878d8d6116c1565b9050600061115661113a8a6101200151610b82611360565b61114a8c8563ffffffff610e5b16565b9063ffffffff610e5b16565b905061116960008263ffffffff610cd016565b9050600061117b6001620186a0611341565b9050600082131561118f57600091506111b8565b806111a0888463ffffffff610f1916565b136111b8576111b5818863ffffffff610cd016565b91505b60006111d88b61014001516111cb611828565b8d6101600151888b61182c565b6101808c01519091506111f1908863ffffffff610e5b16565b811315611215576101808b015161120e908863ffffffff610e5b16565b9050611249565b61122a8761114a8d61018001516110ee611360565b811215611249576112468761114a8d61018001516110ee611360565b90505b611251611828565b6101408c015285156112935761126d898d63ffffffff610f1916565b60608c0152611282888463ffffffff610f1916565b60808c015260c08b018190526112cf565b6112a3888463ffffffff610f1916565b60608c01526112b8898d63ffffffff610f1916565b60808c01526112c9816110ee611360565b60c08c01525b6112d88b611905565b7f666804e599b015edcfb9de12153bf8a48aa5a84b8861b8fa88c1cf4b11974c15338d8560405161130b93929190612e73565b60405180910390a150506000039b9a5050505050505050505050565b6000610c27826006611927565b6000610c27826012611927565b6000610d39610e55846f80000000000000000000000000000000611374565b6f8000000000000000000000000000000090565b6000821580611381575081155b1561138e57506000610c27565b508181028183828161139c57fe5b051415806113b35750828282816113af57fe5b0514155b15610c27576040517f08c379a00000000000000000000000000000000000000000000000000000000081526004016104f6906132c1565b8181016000831280156113fd5750600082125b801561140857508281135b80611429575060008313801561141e5750600082135b801561142957508281125b15610c27576040517f08c379a00000000000000000000000000000000000000000000000000000000081526004016104f6906132f8565b600081611499576040517f08c379a00000000000000000000000000000000000000000000000000000000081526004016104f6906133c3565b7f8000000000000000000000000000000000000000000000000000000000000000831480156114e75750817fffffffffffffffffffffffffffffffffffffffffffffffffffffffffffffffff145b1561151e576040517f08c379a00000000000000000000000000000000000000000000000000000000081526004016104f6906133fa565b81838161152757fe5b059392505050565b6f80000000000000000000000000000000900590565b600080821361156c576f7fffffffffffffffffffffffffffffff8260000316600003610c27565b506f7fffffffffffffffffffffffffffffff1690565b6000610d398383600a0a610dc1565b60008061159d8461152f565b905080156115e8576115e06115b18561152f565b610e876115da87610e876f800000000000000000000000000000006115d58b61152f565b611460565b86611460565b915050610c27565b6115e0611605856f80000000000000000000000000000000611374565b84611460565b60008061161e848763ffffffff610e5b16565b90506000611632868363ffffffff61159116565b90506000611646838863ffffffff61159116565b9050600061165686610b82611360565b90506000611662611360565b8412156116855761167e6116798361114a87611937565b612021565b90506116a3565b6116a06116986116798461114a87611937565b6110ee611360565b90505b6116b3818963ffffffff610e5b16565b9a9950505050505050505050565b6000806117166117096116f96116dd8a8863ffffffff610e5b16565b6116ed8c8c63ffffffff610e5b16565b9063ffffffff610f1916565b6110ee898863ffffffff610e5b16565b899063ffffffff610e5b16565b9050600061173a61172d8a8763ffffffff610f1916565b8a9063ffffffff61159116565b9050600061174c8a8a8a8a8a8a61262f565b9050600061175f8b8b8b8b8b878c612722565b905060006117738c8c8c8c8c8a8a8e6127c2565b9050611785828289610120015161285b565b156117fd576000611799838388888c6128f5565b80925081935050506117b183838a610120015161285b565b156117fb5760006117c684848989868e612998565b6101208d0151939750919550935091506117e3908590859061285b565b156117f9576117f6848484848b8b612a1a565b93505b505b505b61180682612aca565b9150611818828b63ffffffff610e5b16565b9c9b505050505050505050505050565b4390565b60008061183a878703610c7a565b9050600061185a61167961184d88611937565b849063ffffffff610e5b16565b9050600061186a82610b82611360565b9050600061187e878363ffffffff610e5b16565b90506000611892878563ffffffff610e5b16565b905060006118be6118a9858b63ffffffff61159116565b6118b9878b63ffffffff61159116565b610f19565b905060006118ce826110ee611360565b905060006118f36118df6002612aec565b6110ee846116ed898963ffffffff610f1916565b9e9d5050505050505050505050505050565b6060810151600355608081015160045560c08101516006556101400151600a55565b6000610d3982600a0a840261152f565b60006f80000000000000000000000000000000821315611983576040517f08c379a00000000000000000000000000000000000000000000000000000000081526004016104f690613188565b600082136119bd576040517f08c379a00000000000000000000000000000000000000000000000000000000081526004016104f69061304f565b6f800000000000000000000000000000008214156119dd575060006101ba565b640733048c5a8213611a1057507fffffffffffffffffffffffffffffffe0100000000000000000000000000000006101ba565b60008060006a01c8464f761647600000008513611a6f577ffffffffffffffffffffffffffffffff000000000000000000000000000000000909301926a01c8464f761647600000006f8000000000000000000000000000000086020594505b6cf1aaddd7742e900000000000008513611acd577ffffffffffffffffffffffffffffffff800000000000000000000000000000000909301926cf1aaddd7742e900000000000006f8000000000000000000000000000000086020594505b6e0afe10820813d780000000000000008513611b2f577ffffffffffffffffffffffffffffffffc00000000000000000000000000000000909301926e0afe10820813d780000000000000006f8000000000000000000000000000000086020594505b6f02582ab704279ec000000000000000008513611b93577ffffffffffffffffffffffffffffffffe00000000000000000000000000000000909301926f02582ab704279ec000000000000000006f8000000000000000000000000000000086020594505b6f1152aaa3bf81cc0000000000000000008513611bf7577fffffffffffffffffffffffffffffffff00000000000000000000000000000000909301926f1152aaa3bf81cc0000000000000000006f8000000000000000000000000000000086020594505b6f2f16ac6c59de700000000000000000008513611c5b577fffffffffffffffffffffffffffffffff80000000000000000000000000000000909301926f2f16ac6c59de700000000000000000006f8000000000000000000000000000000086020594505b6f4da2cbf1be58280000000000000000008513611cbf577fffffffffffffffffffffffffffffffffc0000000000000000000000000000000909301926f4da2cbf1be58280000000000000000006f8000000000000000000000000000000086020594505b6f63afbe7ab2082c0000000000000000008513611d23577fffffffffffffffffffffffffffffffffe0000000000000000000000000000000909301926f63afbe7ab2082c0000000000000000006f8000000000000000000000000000000086020594505b6f70f5a893b608861e1f58934f97aea57d8513611d87577ffffffffffffffffffffffffffffffffff0000000000000000000000000000000909301926f70f5a893b608861e1f58934f97aea57d6f8000000000000000000000000000000086020594505b7fffffffffffffffffffffffffffffffff80000000000000000000000000000000850192508291506f80000000000000000000000000000000828002059050700100000000000000000000000000000000838103830205840193506f8000000000000000000000000000000081830281611dfd57fe5b059150700200000000000000000000000000000000836faaaaaaaaaaaaaaaaaaaaaaaaaaaaaaaa03830281611e2e57fe5b05840193506f8000000000000000000000000000000081830281611e4e57fe5b059150700300000000000000000000000000000000836f9999999999999999999999999999999903830281611e7f57fe5b05840193506f8000000000000000000000000000000081830281611e9f57fe5b059150700400000000000000000000000000000000836f9249249249249249249249249249249203830281611ed057fe5b05840193506f8000000000000000000000000000000081830281611ef057fe5b059150700500000000000000000000000000000000836f8e38e38e38e38e38e38e38e38e38e38e03830281611f2157fe5b05840193506f8000000000000000000000000000000081830281611f4157fe5b059150700600000000000000000000000000000000836f8ba2e8ba2e8ba2e8ba2e8ba2e8ba2e8b03830281611f7257fe5b05840193506f8000000000000000000000000000000081830281611f9257fe5b059150700700000000000000000000000000000000836f89d89d89d89d89d89d89d89d89d89d8903830281611fc357fe5b05840193506f8000000000000000000000000000000081830281611fe357fe5b059150700800000000000000000000000000000000836f888888888888888888888888888888880383028161201457fe5b0584019350505050919050565b60007fffffffffffffffffffffffffffffffe010000000000000000000000000000000821215612053575060006101ba565b8161206f57506f800000000000000000000000000000006101ba565b60008213156120aa576040517f08c379a00000000000000000000000000000000000000000000000000000000081526004016104f690613253565b6f800000000000000000000000000000006f1000000000000000000000000000000083078080028290056710e1b3be415a0000810293909301929091818302059050806705a0913f6b1e000002830192506f800000000000000000000000000000008282028161211657fe5b05905080670168244fdac7800002830192506f800000000000000000000000000000008282028161214357fe5b05905080664807432bc1800002830192506f800000000000000000000000000000008282028161216f57fe5b05905080660c0135dca0400002830192506f800000000000000000000000000000008282028161219b57fe5b059050806601b707b1cdc00002830192506f80000000000000000000000000000000828202816121c757fe5b059050806536e0f639b80002830192506f80000000000000000000000000000000828202816121f257fe5b05905080650618fee9f80002830192506f800000000000000000000000000000008282028161221d57fe5b05905080649c197dcc0002830192506f800000000000000000000000000000008282028161224757fe5b05905080640e30dce40002830192506f800000000000000000000000000000008282028161227157fe5b0590508064012ebd130002830192506f800000000000000000000000000000008282028161229b57fe5b059050806317499f0002830192506f80000000000000000000000000000000828202816122c457fe5b059050806301a9d48002830192506f80000000000000000000000000000000828202816122ed57fe5b05905080621c638002830192506f800000000000000000000000000000008282028161231557fe5b059050806201c63802830192506f800000000000000000000000000000008282028161233d57fe5b05905080611ab802830192506f800000000000000000000000000000008282028161236457fe5b0590508061017c02830192506f800000000000000000000000000000008282028161238b57fe5b05905080601402830192506f80000000000000000000000000000000828202816123b157fe5b600095909503946721c3677c82b400009190059384010582016f8000000000000000000000000000000001929050701000000000000000000000000000000000841615612420577243cbaf42a000812488fc5c220ad7b97bf6e99e6cf1aaddd7742e56d32fb9f9974484020592505b700800000000000000000000000000000000841615612462577105d27a9f51c31b7c2f8038212a05747799916e0afe10820813d65dfe6a33c07f738f84020592505b7004000000000000000000000000000000008416156124a457701b4c902e273a58678d6d3bfdb93db96d026f02582ab704279e8efd15e0265855c47a84020592505b7002000000000000000000000000000000008416156124e6577003b1cc971a9bb5b9867477440d6d1577506f1152aaa3bf81cb9fdb76eae12d02957184020592505b7001000000000000000000000000000000008416156125285770015bf0a8b1457695355fb8ac404e7a79e36f2f16ac6c59de6f8d5d6f63c1482a7c8684020592505b6f80000000000000000000000000000000841615612568576fd3094c70f034de4b96ff7d5b6f99fcd86f4da2cbf1be5827f9eb3ad1aa9866ebb384020592505b6f400000000000000000000000000000008416156125a8576fa45af1e1f40c333b3de1db4dd55f29a76f63afbe7ab2082ba1a0ae5e4eb1b479dc84020592505b6f200000000000000000000000000000008416156125e8576f910b022db7ae67ce76b441c27035c6a16f70f5a893b608861e1f58934f97aea57d84020592505b6f10000000000000000000000000000000841615612628576f88415abbe9a76bead8d00cf112e4d4a86f783eafef1c0a8f3978c7f81824d62ebf84020592505b5050919050565b60008061263c6002612aec565b9050600061267b61265b89866101000151610e5b90919063ffffffff16565b610b828961114a8d61114a8a610100015189610cd090919063ffffffff16565b905060006126a16126988a61114a8d61114a8d61114a6004612aec565b6116ed84612b08565b905060006126bd846110ee6126b8856110ee611360565b611937565b60000390506000808213156126e0576126db61169883600003612021565b6126e9565b6126e982612021565b90506000612714612700878d63ffffffff610e5b16565b6110ee60008890038563ffffffff610f1916565b905060006118f38a83612b14565b60008061275561274861273b868a63ffffffff610e5b16565b8a9063ffffffff610cd016565b8a9063ffffffff610e5b16565b9050600061276c6127488b8763ffffffff610f1916565b905060006127836126b8848463ffffffff61159116565b9050600061279c8261114a886101000151610b82611360565b905060006127b1896110ee8a61114a86612021565b9d9c50505050505050505050505050565b6000806127d5848663ffffffff61159116565b905060006128036127f18661114a876101000151610b82611360565b6101008601519063ffffffff610f1916565b9050600061282761281f8861114a886101000151610b82611360565b6116ed611360565b9050600061283b838363ffffffff61159116565b905080841261284a57806127b1565b50919b9a5050505050505050505050565b60008061286e848663ffffffff610cd016565b9050600061287e6001600a611341565b905060006128ae6128a161289488610b82611360565b879063ffffffff610f1916565b839063ffffffff610e5b16565b90507f34ae76bc42b30cb0f8b76bfddc91a95efe45ed0b3c7419efccce432de252a82283826040516128e1929190612f3f565b60405180910390a190911395945050505050565b60008061290187612b2b565b9050600061293361291d8661114a876101000151610b82611360565b6101008601516116ed908563ffffffff610e5b16565b905060006129606129538a61114a8a61114a8a6101000151610b82611360565b849063ffffffff610f1916565b90506000612978826110ee8c8663ffffffff610e5b16565b90508881126129875788612989565b805b94505050509550959350505050565b60008060008060006129aa8b8b612bca565b905060006129b782612b2b565b905060006129db6129ce8c8563ffffffff610e5b16565b8b9063ffffffff610cd016565b9050808213612a0057828c836129f08f612b2b565b9650965096509650505050612a0d565b508b955090935086925090505b9650965096509692505050565b600080612a63612a40612a33898b63ffffffff610cd016565b859063ffffffff610e5b16565b6116ed612a53898b63ffffffff610e5b16565b610b82898d63ffffffff610e5b16565b90506000612a9a612a8a612a7d8a8c63ffffffff610cd016565b879063ffffffff610e5b16565b6116ed888a63ffffffff610cd016565b90506000612aae838363ffffffff61159116565b9050898113612abd57896116b3565b9998505050505050505050565b6000612ad86009600a611341565b8212612ae45781610c27565b506000919050565b6000610c27826f80000000000000000000000000000000611374565b6000610c278283610e5b565b600081831315612b245781610d39565b5090919050565b600080612b3e838063ffffffff610e5b16565b90506000612b52848363ffffffff610e5b16565b90506000612b66828063ffffffff610e5b16565b90506000612b7a828063ffffffff610e5b16565b90506000612b8e828063ffffffff610e5b16565b90506000612ba2828063ffffffff610e5b16565b90506000612bb6828863ffffffff610e5b16565b905060006116b3828063ffffffff610e5b16565b6000610d39612bd9600a612aec565b6110ee612bf6612be96006612aec565b869063ffffffff610e5b16565b6116ed612c036004612aec565b889063ffffffff610e5b16565b604051806101a00160405280600015158152602001600073ffffffffffffffffffffffffffffffffffffffff168152602001600073ffffffffffffffffffffffffffffffffffffffff168152602001600081526020016000815260200160008152602001600081526020016000815260200160008152602001600081526020016000815260200160008152602001600081525090565b803573ffffffffffffffffffffffffffffffffffffffff81168114610c2757600080fd5b600060208284031215612cdc57600080fd5b610d398383612ca6565b60008060408385031215612cf957600080fd5b612d038484612ca6565b9150612d128460208501612ca6565b90509250929050565b600080600060608486031215612d3057600080fd5b8335612d3b8161343a565b92506020840135612d4b8161343a565b929592945050506040919091013590565b600060208284031215612d6e57600080fd5b81518015158114610c2457600080fd5b600060208284031215612d9057600080fd5b5035919050565b60008060408385031215612daa57600080fd5b50508035926020909101359150565b73ffffffffffffffffffffffffffffffffffffffff91909116815260200190565b73ffffffffffffffffffffffffffffffffffffffff92831681529116602082015260400190565b73ffffffffffffffffffffffffffffffffffffffff958616815293851660208501529190931660408301526060820192909252608081019190915260a00190565b73ffffffffffffffffffffffffffffffffffffffff9384168152919092166020820152604081019190915260600190565b73ffffffffffffffffffffffffffffffffffffffff9390931683526020830191909152604082015260600190565b73ffffffffffffffffffffffffffffffffffffffff929092168252602082015260400190565b9c15158d5273ffffffffffffffffffffffffffffffffffffffff9b8c1660208e015299909a1660408c015260608b019790975260808a019590955260a089019390935260c088019190915260e08701526101008601526101208501526101408401526101608301919091526101808201526101a00190565b918252602082015260400190565b60208082526011908201527f736166654164643a206f766572666c6f77000000000000000000000000000000604082015260600190565b6020808252602a908201527f4c697175696474793a416d6f756e74206465706f7369746564206e6f7420707260408201527f6f706f7274696f6e616c00000000000000000000000000000000000000000000606082015260800190565b60208082526011908201527f736166654469763a206f766572666c6f77000000000000000000000000000000604082015260600190565b60208082526012908201527f736166655375623a20756e646572666c6f770000000000000000000000000000604082015260600190565b60208082526013908201527f6c6e3a2076616c756520746f6f20736d616c6c00000000000000000000000000604082015260600190565b6020808252600e908201527f4f6e6c794f776e65724572726f72000000000000000000000000000000000000604082015260600190565b60208082526013908201527f416c726561647920496e697469616c697a656400000000000000000000000000604082015260600190565b60208082526017908201527f496e76616c696420746f6b656e20616464726573736573000000000000000000604082015260600190565b60208082526038908201527f746f46697865642875696e742c75696e74293a2064656e6f6d696e61746f722060408201527f63616e6e6f74206265206c657373207468616e207a65726f0000000000000000606082015260800190565b60208082526013908201527f6c6e3a2076616c756520746f6f206c6172676500000000000000000000000000604082015260600190565b60208082526027908201527f746f46697865643a2076616c75652063616e6e6f74206265206c65737320746860408201527f616e207a65726f00000000000000000000000000000000000000000000000000606082015260800190565b60208082526011908201527f736166654d756c3a206f766572666c6f77000000000000000000000000000000604082015260600190565b60208082526014908201527f6578703a2076616c756520746f6f20736d616c6c000000000000000000000000604082015260600190565b60208082526018908201527f5472616e736665724f776e6572546f5a65726f4572726f720000000000000000604082015260600190565b6020808252600e908201527f5f6d756c3a206f766572666c6f77000000000000000000000000000000000000604082015260600190565b6020808252600e908201527f5f6164643a206f766572666c6f77000000000000000000000000000000000000604082015260600190565b60208082526014908201527f7375623a2076616c756520746f6f20736d616c6c000000000000000000000000604082015260600190565b60208082526036908201527f746f46697865642875696e742c75696e74293a206e756d657261746f7220636160408201527f6e6e6f74206265206c657373207468616e207a65726f00000000000000000000606082015260800190565b60208082526014908201527f5f6469763a20646976696465206279207a65726f000000000000000000000000604082015260600190565b6020808252600e908201527f5f6469763a206f766572666c6f77000000000000000000000000000000000000604082015260600190565b90815260200190565b73ffffffffffffffffffffffffffffffffffffffff8116811461022957600080fdfea365627a7a7230582089b63bf2c3175a23e5207806783dabfee5ee82098107c3cfdac4be5bcfef11716c6578706572696d656e74616cf564736f6c63430005090040",
				"opcodes": "PUSH1 0x80 PUSH1 0x40 MSTORE PUSH1 0x0 DUP1 SLOAD PUSH1 0x1 PUSH1 0x1 PUSH1 0xA0 SHL SUB NOT AND CALLER OR SWAP1 SSTORE PUSH2 0x349F DUP1 PUSH2 0x25 PUSH1 0x0 CODECOPY PUSH1 0x0 RETURN INVALID PUSH1 0x80 PUSH1 0x40 MSTORE CALLVALUE DUP1 ISZERO PUSH2 0x10 JUMPI PUSH1 0x0 DUP1 REVERT JUMPDEST POP PUSH1 0x4 CALLDATASIZE LT PUSH2 0xBE JUMPI PUSH1 0x0 CALLDATALOAD PUSH1 0xE0 SHR DUP1 PUSH4 0x9CD441DA GT PUSH2 0x76 JUMPI DUP1 PUSH4 0xDF791E50 GT PUSH2 0x5B JUMPI DUP1 PUSH4 0xDF791E50 EQ PUSH2 0x165 JUMPI DUP1 PUSH4 0xE1C7392A EQ PUSH2 0x178 JUMPI DUP1 PUSH4 0xF2FDE38B EQ PUSH2 0x180 JUMPI PUSH2 0xBE JUMP JUMPDEST DUP1 PUSH4 0x9CD441DA EQ PUSH2 0x131 JUMPI DUP1 PUSH4 0xAFD46EB5 EQ PUSH2 0x144 JUMPI PUSH2 0xBE JUMP JUMPDEST DUP1 PUSH4 0x8DA5CB5B GT PUSH2 0xA7 JUMPI DUP1 PUSH4 0x8DA5CB5B EQ PUSH2 0x101 JUMPI DUP1 PUSH4 0x978CA36F EQ PUSH2 0x116 JUMPI DUP1 PUSH4 0x9C8F9F23 EQ PUSH2 0x11E JUMPI PUSH2 0xBE JUMP JUMPDEST DUP1 PUSH4 0x70A08231 EQ PUSH2 0xC3 JUMPI DUP1 PUSH4 0x7B689036 EQ PUSH2 0xEC JUMPI JUMPDEST PUSH1 0x0 DUP1 REVERT JUMPDEST PUSH2 0xD6 PUSH2 0xD1 CALLDATASIZE PUSH1 0x4 PUSH2 0x2CCA JUMP JUMPDEST PUSH2 0x193 JUMP JUMPDEST PUSH1 0x40 MLOAD PUSH2 0xE3 SWAP2 SWAP1 PUSH2 0x3431 JUMP JUMPDEST PUSH1 0x40 MLOAD DUP1 SWAP2 SUB SWAP1 RETURN JUMPDEST PUSH2 0xFF PUSH2 0xFA CALLDATASIZE PUSH1 0x4 PUSH2 0x2CE6 JUMP JUMPDEST PUSH2 0x1BF JUMP JUMPDEST STOP JUMPDEST PUSH2 0x109 PUSH2 0x1D5 JUMP JUMPDEST PUSH1 0x40 MLOAD PUSH2 0xE3 SWAP2 SWAP1 PUSH2 0x2DB9 JUMP JUMPDEST PUSH2 0xFF PUSH2 0x1F1 JUMP JUMPDEST PUSH2 0xFF PUSH2 0x12C CALLDATASIZE PUSH1 0x4 PUSH2 0x2D7E JUMP JUMPDEST PUSH2 0x22C JUMP JUMPDEST PUSH2 0xFF PUSH2 0x13F CALLDATASIZE PUSH1 0x4 PUSH2 0x2D97 JUMP JUMPDEST PUSH2 0x469 JUMP JUMPDEST PUSH2 0x14C PUSH2 0x722 JUMP JUMPDEST PUSH1 0x40 MLOAD PUSH2 0xE3 SWAP14 SWAP13 SWAP12 SWAP11 SWAP10 SWAP9 SWAP8 SWAP7 SWAP6 SWAP5 SWAP4 SWAP3 SWAP2 SWAP1 PUSH2 0x2EC7 JUMP JUMPDEST PUSH2 0xD6 PUSH2 0x173 CALLDATASIZE PUSH1 0x4 PUSH2 0x2D1B JUMP JUMPDEST PUSH2 0x777 JUMP JUMPDEST PUSH2 0xFF PUSH2 0x92E JUMP JUMPDEST PUSH2 0xFF PUSH2 0x18E CALLDATASIZE PUSH1 0x4 PUSH2 0x2CCA JUMP JUMPDEST PUSH2 0x958 JUMP JUMPDEST PUSH20 0xFFFFFFFFFFFFFFFFFFFFFFFFFFFFFFFFFFFFFFFF DUP2 AND PUSH1 0x0 SWAP1 DUP2 MSTORE PUSH1 0xB PUSH1 0x20 MSTORE PUSH1 0x40 SWAP1 KECCAK256 SLOAD JUMPDEST SWAP2 SWAP1 POP JUMP JUMPDEST PUSH2 0x1C7 PUSH2 0xA2A JUMP JUMPDEST PUSH2 0x1D1 DUP3 DUP3 PUSH2 0xA7D JUMP JUMPDEST POP POP JUMP JUMPDEST PUSH1 0x0 SLOAD PUSH20 0xFFFFFFFFFFFFFFFFFFFFFFFFFFFFFFFFFFFFFFFF AND DUP2 JUMP JUMPDEST PUSH1 0x1 SLOAD PUSH1 0x2 SLOAD PUSH2 0x229 SWAP2 PUSH20 0xFFFFFFFFFFFFFFFFFFFFFFFFFFFFFFFFFFFFFFFF PUSH2 0x100 SWAP1 SWAP2 DIV DUP2 AND SWAP2 AND PUSH9 0x410D586A20A4C0000 PUSH2 0x777 JUMP JUMPDEST POP JUMP JUMPDEST PUSH1 0x5 SLOAD PUSH1 0x3 SLOAD PUSH1 0x1 SWAP2 PUSH1 0x0 SWAP2 PUSH2 0x25D SWAP2 SWAP1 PUSH2 0x251 SWAP1 DUP7 SWAP1 PUSH1 0x7F SHR PUSH4 0xFFFFFFFF PUSH2 0xBD0 AND JUMP JUMPDEST SWAP1 PUSH4 0xFFFFFFFF PUSH2 0xC2D AND JUMP JUMPDEST SWAP1 POP PUSH1 0x0 PUSH2 0x284 DUP4 PUSH1 0x4 ADD SLOAD PUSH2 0x251 PUSH1 0x7F DUP7 PUSH1 0x3 ADD SLOAD SWAP1 SHR DUP8 PUSH2 0xBD0 SWAP1 SWAP2 SWAP1 PUSH4 0xFFFFFFFF AND JUMP JUMPDEST SWAP1 POP PUSH2 0x29C DUP4 PUSH1 0x2 ADD SLOAD PUSH2 0x297 DUP5 PUSH2 0xC7A JUMP JUMPDEST PUSH2 0xCD0 JUMP JUMPDEST PUSH1 0x2 DUP5 ADD SSTORE PUSH1 0x3 DUP4 ADD SLOAD PUSH2 0x2B3 SWAP1 PUSH2 0x297 DUP4 PUSH2 0xC7A JUMP JUMPDEST PUSH1 0x3 DUP5 ADD SSTORE CALLER PUSH1 0x0 SWAP1 DUP2 MSTORE PUSH1 0xA DUP5 ADD PUSH1 0x20 MSTORE PUSH1 0x40 SWAP1 KECCAK256 SLOAD PUSH2 0x2DA SWAP1 DUP6 PUSH4 0xFFFFFFFF PUSH2 0xD40 AND JUMP JUMPDEST CALLER PUSH1 0x0 SWAP1 DUP2 MSTORE PUSH1 0xA DUP6 ADD PUSH1 0x20 MSTORE PUSH1 0x40 SWAP1 KECCAK256 SSTORE PUSH1 0x4 DUP4 ADD SLOAD PUSH2 0x301 SWAP1 DUP6 PUSH4 0xFFFFFFFF PUSH2 0xD82 AND JUMP JUMPDEST PUSH1 0x4 DUP5 DUP2 ADD SWAP2 SWAP1 SWAP2 SSTORE DUP4 SLOAD PUSH1 0x40 MLOAD PUSH32 0xA9059CBB00000000000000000000000000000000000000000000000000000000 DUP2 MSTORE PUSH2 0x100 SWAP1 SWAP2 DIV PUSH20 0xFFFFFFFFFFFFFFFFFFFFFFFFFFFFFFFFFFFFFFFF AND SWAP2 PUSH4 0xA9059CBB SWAP2 PUSH2 0x363 SWAP2 CALLER SWAP2 DUP8 SWAP2 ADD PUSH2 0x2EA1 JUMP JUMPDEST PUSH1 0x20 PUSH1 0x40 MLOAD DUP1 DUP4 SUB DUP2 PUSH1 0x0 DUP8 DUP1 EXTCODESIZE ISZERO DUP1 ISZERO PUSH2 0x37D JUMPI PUSH1 0x0 DUP1 REVERT JUMPDEST POP GAS CALL ISZERO DUP1 ISZERO PUSH2 0x391 JUMPI RETURNDATASIZE PUSH1 0x0 DUP1 RETURNDATACOPY RETURNDATASIZE PUSH1 0x0 REVERT JUMPDEST POP POP POP POP PUSH1 0x40 MLOAD RETURNDATASIZE PUSH1 0x1F NOT PUSH1 0x1F DUP3 ADD AND DUP3 ADD DUP1 PUSH1 0x40 MSTORE POP PUSH2 0x3B5 SWAP2 SWAP1 DUP2 ADD SWAP1 PUSH2 0x2D5C JUMP JUMPDEST POP PUSH1 0x1 DUP4 ADD SLOAD PUSH1 0x40 MLOAD PUSH32 0xA9059CBB00000000000000000000000000000000000000000000000000000000 DUP2 MSTORE PUSH20 0xFFFFFFFFFFFFFFFFFFFFFFFFFFFFFFFFFFFFFFFF SWAP1 SWAP2 AND SWAP1 PUSH4 0xA9059CBB SWAP1 PUSH2 0x410 SWAP1 CALLER SWAP1 DUP6 SWAP1 PUSH1 0x4 ADD PUSH2 0x2EA1 JUMP JUMPDEST PUSH1 0x20 PUSH1 0x40 MLOAD DUP1 DUP4 SUB DUP2 PUSH1 0x0 DUP8 DUP1 EXTCODESIZE ISZERO DUP1 ISZERO PUSH2 0x42A JUMPI PUSH1 0x0 DUP1 REVERT JUMPDEST POP GAS CALL ISZERO DUP1 ISZERO PUSH2 0x43E JUMPI RETURNDATASIZE PUSH1 0x0 DUP1 RETURNDATACOPY RETURNDATASIZE PUSH1 0x0 REVERT JUMPDEST POP POP POP POP PUSH1 0x40 MLOAD RETURNDATASIZE PUSH1 0x1F NOT PUSH1 0x1F DUP3 ADD AND DUP3 ADD DUP1 PUSH1 0x40 MSTORE POP PUSH2 0x462 SWAP2 SWAP1 DUP2 ADD SWAP1 PUSH2 0x2D5C JUMP JUMPDEST POP POP POP POP POP JUMP JUMPDEST PUSH1 0x1 PUSH1 0x0 PUSH2 0x47F DUP5 PUSH8 0xDE0B6B3A7640000 PUSH2 0xDC1 JUMP JUMPDEST SWAP1 POP PUSH1 0x0 PUSH2 0x490 DUP5 PUSH3 0xF4240 PUSH2 0xDC1 JUMP JUMPDEST SWAP1 POP PUSH2 0x4A9 DUP4 PUSH1 0x2 ADD SLOAD DUP3 PUSH2 0xE5B SWAP1 SWAP2 SWAP1 PUSH4 0xFFFFFFFF AND JUMP JUMPDEST PUSH1 0x3 DUP5 ADD SLOAD PUSH2 0x4BF SWAP1 DUP5 SWAP1 PUSH4 0xFFFFFFFF PUSH2 0xE5B AND JUMP JUMPDEST EQ PUSH2 0x4FF JUMPI PUSH1 0x40 MLOAD PUSH32 0x8C379A000000000000000000000000000000000000000000000000000000000 DUP2 MSTORE PUSH1 0x4 ADD PUSH2 0x4F6 SWAP1 PUSH2 0x2F84 JUMP JUMPDEST PUSH1 0x40 MLOAD DUP1 SWAP2 SUB SWAP1 REVERT JUMPDEST DUP3 SLOAD PUSH1 0x40 MLOAD PUSH32 0x23B872DD00000000000000000000000000000000000000000000000000000000 DUP2 MSTORE PUSH2 0x100 SWAP1 SWAP2 DIV PUSH20 0xFFFFFFFFFFFFFFFFFFFFFFFFFFFFFFFFFFFFFFFF AND SWAP1 PUSH4 0x23B872DD SWAP1 PUSH2 0x55C SWAP1 CALLER SWAP1 ADDRESS SWAP1 DUP11 SWAP1 PUSH1 0x4 ADD PUSH2 0x2E42 JUMP JUMPDEST PUSH1 0x20 PUSH1 0x40 MLOAD DUP1 DUP4 SUB DUP2 PUSH1 0x0 DUP8 DUP1 EXTCODESIZE ISZERO DUP1 ISZERO PUSH2 0x576 JUMPI PUSH1 0x0 DUP1 REVERT JUMPDEST POP GAS CALL ISZERO DUP1 ISZERO PUSH2 0x58A JUMPI RETURNDATASIZE PUSH1 0x0 DUP1 RETURNDATACOPY RETURNDATASIZE PUSH1 0x0 REVERT JUMPDEST POP POP POP POP PUSH1 0x40 MLOAD RETURNDATASIZE PUSH1 0x1F NOT PUSH1 0x1F DUP3 ADD AND DUP3 ADD DUP1 PUSH1 0x40 MSTORE POP PUSH2 0x5AE SWAP2 SWAP1 DUP2 ADD SWAP1 PUSH2 0x2D5C JUMP JUMPDEST POP PUSH1 0x1 DUP4 ADD SLOAD PUSH1 0x40 MLOAD PUSH32 0x23B872DD00000000000000000000000000000000000000000000000000000000 DUP2 MSTORE PUSH20 0xFFFFFFFFFFFFFFFFFFFFFFFFFFFFFFFFFFFFFFFF SWAP1 SWAP2 AND SWAP1 PUSH4 0x23B872DD SWAP1 PUSH2 0x60B SWAP1 CALLER SWAP1 ADDRESS SWAP1 DUP10 SWAP1 PUSH1 0x4 ADD PUSH2 0x2E42 JUMP JUMPDEST PUSH1 0x20 PUSH1 0x40 MLOAD DUP1 DUP4 SUB DUP2 PUSH1 0x0 DUP8 DUP1 EXTCODESIZE ISZERO DUP1 ISZERO PUSH2 0x625 JUMPI PUSH1 0x0 DUP1 REVERT JUMPDEST POP GAS CALL ISZERO DUP1 ISZERO PUSH2 0x639 JUMPI RETURNDATASIZE PUSH1 0x0 DUP1 RETURNDATACOPY RETURNDATASIZE PUSH1 0x0 REVERT JUMPDEST POP POP POP POP PUSH1 0x40 MLOAD RETURNDATASIZE PUSH1 0x1F NOT PUSH1 0x1F DUP3 ADD AND DUP3 ADD DUP1 PUSH1 0x40 MSTORE POP PUSH2 0x65D SWAP2 SWAP1 DUP2 ADD SWAP1 PUSH2 0x2D5C JUMP JUMPDEST POP PUSH1 0x0 DUP4 PUSH1 0x2 ADD SLOAD PUSH1 0x0 EQ ISZERO PUSH2 0x67C JUMPI POP PUSH1 0x1 PUSH1 0x4 DUP5 ADD SSTORE PUSH1 0x0 PUSH2 0x6A2 JUMP JUMPDEST PUSH2 0x69F PUSH1 0x7F DUP6 PUSH1 0x2 ADD SLOAD SWAP1 SHR PUSH2 0x251 DUP7 PUSH1 0x4 ADD SLOAD DUP10 PUSH2 0xBD0 SWAP1 SWAP2 SWAP1 PUSH4 0xFFFFFFFF AND JUMP JUMPDEST SWAP1 POP JUMPDEST PUSH2 0x6B0 DUP5 PUSH1 0x2 ADD SLOAD DUP5 PUSH2 0xF19 JUMP JUMPDEST PUSH1 0x2 DUP6 ADD SSTORE PUSH1 0x3 DUP5 ADD SLOAD PUSH2 0x6C4 SWAP1 DUP4 PUSH2 0xF19 JUMP JUMPDEST PUSH1 0x3 DUP6 ADD SSTORE CALLER PUSH1 0x0 SWAP1 DUP2 MSTORE PUSH1 0xA DUP6 ADD PUSH1 0x20 MSTORE PUSH1 0x40 SWAP1 KECCAK256 SLOAD PUSH2 0x6EB SWAP1 DUP3 PUSH4 0xFFFFFFFF PUSH2 0xD82 AND JUMP JUMPDEST CALLER PUSH1 0x0 SWAP1 DUP2 MSTORE PUSH1 0xA DUP7 ADD PUSH1 0x20 MSTORE PUSH1 0x40 SWAP1 KECCAK256 SSTORE PUSH1 0x4 DUP5 ADD SLOAD PUSH2 0x712 SWAP1 DUP3 PUSH4 0xFFFFFFFF PUSH2 0xD82 AND JUMP JUMPDEST DUP5 PUSH1 0x4 ADD DUP2 SWAP1 SSTORE POP POP POP POP POP POP POP JUMP JUMPDEST PUSH1 0x1 SLOAD PUSH1 0x2 SLOAD PUSH1 0x3 SLOAD PUSH1 0x4 SLOAD PUSH1 0x5 SLOAD PUSH1 0x6 SLOAD PUSH1 0x7 SLOAD PUSH1 0x8 SLOAD PUSH1 0x9 SLOAD PUSH1 0xA SLOAD PUSH1 0xC SLOAD PUSH1 0xD SLOAD PUSH1 0xFF DUP13 AND SWAP12 PUSH20 0xFFFFFFFFFFFFFFFFFFFFFFFFFFFFFFFFFFFFFFFF PUSH2 0x100 SWAP1 SWAP2 DIV DUP2 AND SWAP12 AND SWAP10 SWAP9 SWAP8 SWAP7 SWAP6 SWAP5 SWAP4 SWAP3 SWAP2 SWAP1 DUP14 JUMP JUMPDEST PUSH1 0x0 PUSH2 0x781 PUSH2 0x2C10 JUMP JUMPDEST PUSH2 0x789 PUSH2 0xF25 JUMP JUMPDEST SWAP1 POP DUP1 PUSH1 0x20 ADD MLOAD PUSH20 0xFFFFFFFFFFFFFFFFFFFFFFFFFFFFFFFFFFFFFFFF AND DUP6 PUSH20 0xFFFFFFFFFFFFFFFFFFFFFFFFFFFFFFFFFFFFFFFF AND EQ DUP1 ISZERO PUSH2 0x7F9 JUMPI POP DUP1 PUSH1 0x40 ADD MLOAD PUSH20 0xFFFFFFFFFFFFFFFFFFFFFFFFFFFFFFFFFFFFFFFF AND DUP5 PUSH20 0xFFFFFFFFFFFFFFFFFFFFFFFFFFFFFFFFFFFFFFFF AND EQ JUMPDEST ISZERO PUSH2 0x827 JUMPI PUSH1 0x0 PUSH2 0x814 DUP7 DUP7 PUSH2 0x80E DUP8 PUSH2 0xFCB JUMP JUMPDEST DUP6 PUSH2 0xFD8 JUMP JUMPDEST SWAP1 POP PUSH2 0x81F DUP2 PUSH2 0x1327 JUMP JUMPDEST SWAP3 POP POP PUSH2 0x8E7 JUMP JUMPDEST DUP1 PUSH1 0x40 ADD MLOAD PUSH20 0xFFFFFFFFFFFFFFFFFFFFFFFFFFFFFFFFFFFFFFFF AND DUP6 PUSH20 0xFFFFFFFFFFFFFFFFFFFFFFFFFFFFFFFFFFFFFFFF AND EQ DUP1 ISZERO PUSH2 0x895 JUMPI POP DUP1 PUSH1 0x20 ADD MLOAD PUSH20 0xFFFFFFFFFFFFFFFFFFFFFFFFFFFFFFFFFFFFFFFF AND DUP5 PUSH20 0xFFFFFFFFFFFFFFFFFFFFFFFFFFFFFFFFFFFFFFFF AND EQ JUMPDEST ISZERO PUSH2 0x8B5 JUMPI PUSH1 0x0 PUSH2 0x8AA DUP7 DUP7 PUSH2 0x80E DUP8 PUSH2 0xFCB JUMP JUMPDEST SWAP1 POP PUSH2 0x81F DUP2 PUSH2 0x1334 JUMP JUMPDEST PUSH1 0x40 MLOAD PUSH32 0x8C379A000000000000000000000000000000000000000000000000000000000 DUP2 MSTORE PUSH1 0x4 ADD PUSH2 0x4F6 SWAP1 PUSH2 0x30F4 JUMP JUMPDEST PUSH32 0x256DB8090FA51C3BAC981768637D5A7C46B5540644DCEF89052B89DBB2F6C8EA CALLER DUP7 DUP7 DUP7 DUP7 PUSH1 0x40 MLOAD PUSH2 0x91E SWAP6 SWAP5 SWAP4 SWAP3 SWAP2 SWAP1 PUSH2 0x2E01 JUMP JUMPDEST PUSH1 0x40 MLOAD DUP1 SWAP2 SUB SWAP1 LOG1 POP SWAP4 SWAP3 POP POP POP JUMP JUMPDEST PUSH2 0x93A PUSH1 0x1 PUSH1 0x2 PUSH2 0xA7D JUMP JUMPDEST PUSH2 0x945 PUSH2 0x1F4 PUSH2 0xC7A JUMP JUMPDEST PUSH1 0x3 SSTORE PUSH2 0x953 PUSH2 0x3E8 PUSH2 0xC7A JUMP JUMPDEST PUSH1 0x4 SSTORE JUMP JUMPDEST PUSH2 0x960 PUSH2 0xA2A JUMP JUMPDEST PUSH20 0xFFFFFFFFFFFFFFFFFFFFFFFFFFFFFFFFFFFFFFFF DUP2 AND PUSH2 0x9AD JUMPI PUSH1 0x40 MLOAD PUSH32 0x8C379A000000000000000000000000000000000000000000000000000000000 DUP2 MSTORE PUSH1 0x4 ADD PUSH2 0x4F6 SWAP1 PUSH2 0x328A JUMP JUMPDEST PUSH1 0x0 DUP1 SLOAD PUSH32 0xFFFFFFFFFFFFFFFFFFFFFFFF0000000000000000000000000000000000000000 AND PUSH20 0xFFFFFFFFFFFFFFFFFFFFFFFFFFFFFFFFFFFFFFFF DUP4 AND OR SWAP1 SSTORE PUSH1 0x40 MLOAD PUSH32 0x8BE0079C531659141344CD1FD0A4F28419497F9722A3DAAFE3B4186F6B6457E0 SWAP1 PUSH2 0xA1F SWAP1 CALLER SWAP1 DUP5 SWAP1 PUSH2 0x2DDA JUMP JUMPDEST PUSH1 0x40 MLOAD DUP1 SWAP2 SUB SWAP1 LOG1 POP JUMP JUMPDEST PUSH1 0x0 SLOAD PUSH20 0xFFFFFFFFFFFFFFFFFFFFFFFFFFFFFFFFFFFFFFFF AND CALLER EQ PUSH2 0xA7B JUMPI PUSH1 0x40 MLOAD PUSH32 0x8C379A000000000000000000000000000000000000000000000000000000000 DUP2 MSTORE PUSH1 0x4 ADD PUSH2 0x4F6 SWAP1 PUSH2 0x3086 JUMP JUMPDEST JUMP JUMPDEST PUSH1 0x1 SLOAD PUSH1 0xFF AND ISZERO PUSH2 0xABA JUMPI PUSH1 0x40 MLOAD PUSH32 0x8C379A000000000000000000000000000000000000000000000000000000000 DUP2 MSTORE PUSH1 0x4 ADD PUSH2 0x4F6 SWAP1 PUSH2 0x30BD JUMP JUMPDEST PUSH1 0x1 DUP1 SLOAD PUSH32 0xFFFFFFFFFFFFFFFFFFFFFF0000000000000000000000000000000000000000FF AND PUSH2 0x100 PUSH20 0xFFFFFFFFFFFFFFFFFFFFFFFFFFFFFFFFFFFFFFFF DUP6 DUP2 AND SWAP2 SWAP1 SWAP2 MUL SWAP2 SWAP1 SWAP2 OR SWAP1 SWAP2 SSTORE PUSH1 0x2 DUP1 SLOAD PUSH32 0xFFFFFFFFFFFFFFFFFFFFFFFF0000000000000000000000000000000000000000 AND SWAP2 DUP4 AND SWAP2 SWAP1 SWAP2 OR SWAP1 SSTORE PUSH2 0xB41 PUSH1 0x63 PUSH1 0x64 PUSH2 0xDC1 JUMP JUMPDEST PUSH1 0x6 SSTORE PUSH1 0x63 PUSH1 0x7 DUP2 SWAP1 SSTORE PUSH2 0xB56 SWAP1 PUSH1 0x64 PUSH2 0xDC1 JUMP JUMPDEST PUSH1 0x8 SSTORE PUSH2 0xB66 PUSH1 0x5 PUSH2 0x2710 PUSH2 0xDC1 JUMP JUMPDEST PUSH1 0x9 SSTORE PUSH2 0xB8E PUSH2 0xB7A PUSH1 0x1 PUSH3 0xF4240 PUSH2 0x1341 JUMP JUMPDEST PUSH2 0xB82 PUSH2 0x1360 JUMP JUMPDEST SWAP1 PUSH4 0xFFFFFFFF PUSH2 0xCD0 AND JUMP JUMPDEST PUSH1 0xC SSTORE PUSH2 0xB9F PUSH2 0x2715 PUSH2 0x3E8 PUSH2 0x1341 JUMP JUMPDEST PUSH1 0xD SSTORE POP POP PUSH1 0x1 DUP1 SLOAD PUSH32 0xFFFFFFFFFFFFFFFFFFFFFFFFFFFFFFFFFFFFFFFFFFFFFFFFFFFFFFFFFFFFFF00 AND DUP2 OR SWAP1 SSTORE JUMP JUMPDEST PUSH1 0x0 DUP3 PUSH2 0xBDF JUMPI POP PUSH1 0x0 PUSH2 0xC27 JUMP JUMPDEST DUP3 DUP3 MUL DUP3 DUP5 DUP3 DUP2 PUSH2 0xBEC JUMPI INVALID JUMPDEST DIV EQ PUSH2 0xC24 JUMPI PUSH1 0x40 MLOAD PUSH32 0x8C379A000000000000000000000000000000000000000000000000000000000 DUP2 MSTORE PUSH1 0x4 ADD PUSH2 0x4F6 SWAP1 PUSH2 0x321C JUMP JUMPDEST SWAP1 POP JUMPDEST SWAP3 SWAP2 POP POP JUMP JUMPDEST PUSH1 0x0 DUP2 PUSH2 0xC66 JUMPI PUSH1 0x40 MLOAD PUSH32 0x8C379A000000000000000000000000000000000000000000000000000000000 DUP2 MSTORE PUSH1 0x4 ADD PUSH2 0x4F6 SWAP1 PUSH2 0x2FE1 JUMP JUMPDEST PUSH1 0x0 DUP3 DUP5 DUP2 PUSH2 0xC71 JUMPI INVALID JUMPDEST DIV SWAP5 SWAP4 POP POP POP POP JUMP JUMPDEST PUSH1 0x0 DUP1 DUP3 SLT ISZERO PUSH2 0xCB6 JUMPI PUSH1 0x40 MLOAD PUSH32 0x8C379A000000000000000000000000000000000000000000000000000000000 DUP2 MSTORE PUSH1 0x4 ADD PUSH2 0x4F6 SWAP1 PUSH2 0x31BF JUMP JUMPDEST PUSH2 0xC27 DUP3 PUSH16 0x80000000000000000000000000000000 PUSH2 0x1374 JUMP JUMPDEST PUSH1 0x0 PUSH32 0x8000000000000000000000000000000000000000000000000000000000000000 DUP3 EQ ISZERO PUSH2 0xD2C JUMPI PUSH1 0x40 MLOAD PUSH32 0x8C379A000000000000000000000000000000000000000000000000000000000 DUP2 MSTORE PUSH1 0x4 ADD PUSH2 0x4F6 SWAP1 PUSH2 0x332F JUMP JUMPDEST PUSH2 0xD39 DUP4 DUP4 PUSH1 0x0 SUB PUSH2 0x13EA JUMP JUMPDEST SWAP4 SWAP3 POP POP POP JUMP JUMPDEST PUSH1 0x0 DUP3 DUP3 GT ISZERO PUSH2 0xD7C JUMPI PUSH1 0x40 MLOAD PUSH32 0x8C379A000000000000000000000000000000000000000000000000000000000 DUP2 MSTORE PUSH1 0x4 ADD PUSH2 0x4F6 SWAP1 PUSH2 0x3018 JUMP JUMPDEST POP SWAP1 SUB SWAP1 JUMP JUMPDEST PUSH1 0x0 DUP3 DUP3 ADD DUP4 DUP2 LT ISZERO PUSH2 0xC24 JUMPI PUSH1 0x40 MLOAD PUSH32 0x8C379A000000000000000000000000000000000000000000000000000000000 DUP2 MSTORE PUSH1 0x4 ADD PUSH2 0x4F6 SWAP1 PUSH2 0x2F4D JUMP JUMPDEST PUSH1 0x0 DUP1 DUP4 SLT ISZERO PUSH2 0xDFD JUMPI PUSH1 0x40 MLOAD PUSH32 0x8C379A000000000000000000000000000000000000000000000000000000000 DUP2 MSTORE PUSH1 0x4 ADD PUSH2 0x4F6 SWAP1 PUSH2 0x3366 JUMP JUMPDEST PUSH1 0x0 DUP3 SLT ISZERO PUSH2 0xE38 JUMPI PUSH1 0x40 MLOAD PUSH32 0x8C379A000000000000000000000000000000000000000000000000000000000 DUP2 MSTORE PUSH1 0x4 ADD PUSH2 0x4F6 SWAP1 PUSH2 0x312B JUMP JUMPDEST PUSH2 0xD39 PUSH2 0xE55 DUP5 PUSH16 0x80000000000000000000000000000000 PUSH2 0x1374 JUMP JUMPDEST DUP4 PUSH2 0x1460 JUMP JUMPDEST PUSH1 0x0 DUP1 PUSH2 0xE8C PUSH16 0x80000000000000000000000000000000 PUSH2 0xE87 PUSH2 0xE7E DUP8 PUSH2 0x152F JUMP JUMPDEST PUSH2 0xE87 DUP8 PUSH2 0x152F JUMP JUMPDEST PUSH2 0x1374 JUMP JUMPDEST SWAP1 POP PUSH1 0x0 PUSH2 0xEA5 PUSH2 0xE9C DUP7 PUSH2 0x1545 JUMP JUMPDEST PUSH2 0xE87 DUP7 PUSH2 0x152F JUMP JUMPDEST SWAP1 POP PUSH1 0x0 PUSH2 0xEBE PUSH2 0xEB5 DUP8 PUSH2 0x152F JUMP JUMPDEST PUSH2 0xE87 DUP8 PUSH2 0x1545 JUMP JUMPDEST SWAP1 POP PUSH1 0x0 PUSH2 0xEF0 PUSH2 0xEDA PUSH2 0xED1 DUP10 PUSH2 0x1545 JUMP JUMPDEST PUSH2 0xE87 DUP10 PUSH2 0x1545 JUMP JUMPDEST PUSH16 0x80000000000000000000000000000000 PUSH2 0x1460 JUMP JUMPDEST SWAP1 POP PUSH2 0xF0E PUSH2 0xF08 PUSH2 0xF02 DUP7 DUP7 PUSH2 0x13EA JUMP JUMPDEST DUP5 PUSH2 0x13EA JUMP JUMPDEST DUP3 PUSH2 0x13EA JUMP JUMPDEST SWAP8 SWAP7 POP POP POP POP POP POP POP JUMP JUMPDEST PUSH1 0x0 PUSH2 0xD39 DUP4 DUP4 PUSH2 0x13EA JUMP JUMPDEST PUSH2 0xF2D PUSH2 0x2C10 JUMP JUMPDEST POP PUSH1 0x40 DUP1 MLOAD PUSH2 0x1A0 DUP2 ADD DUP3 MSTORE PUSH1 0x1 SLOAD PUSH1 0xFF DUP2 AND ISZERO ISZERO DUP3 MSTORE PUSH20 0xFFFFFFFFFFFFFFFFFFFFFFFFFFFFFFFFFFFFFFFF PUSH2 0x100 SWAP2 DUP3 SWAP1 DIV DUP2 AND PUSH1 0x20 DUP5 ADD MSTORE PUSH1 0x2 SLOAD AND SWAP3 DUP3 ADD SWAP3 SWAP1 SWAP3 MSTORE PUSH1 0x3 SLOAD PUSH1 0x60 DUP3 ADD MSTORE PUSH1 0x4 SLOAD PUSH1 0x80 DUP3 ADD MSTORE PUSH1 0x5 SLOAD PUSH1 0xA0 DUP3 ADD MSTORE PUSH1 0x6 SLOAD PUSH1 0xC0 DUP3 ADD MSTORE PUSH1 0x7 SLOAD PUSH1 0xE0 DUP3 ADD MSTORE PUSH1 0x8 SLOAD SWAP2 DUP2 ADD SWAP2 SWAP1 SWAP2 MSTORE PUSH1 0x9 SLOAD PUSH2 0x120 DUP3 ADD MSTORE PUSH1 0xA SLOAD PUSH2 0x140 DUP3 ADD MSTORE PUSH1 0xC SLOAD PUSH2 0x160 DUP3 ADD MSTORE PUSH1 0xD SLOAD PUSH2 0x180 DUP3 ADD MSTORE SWAP1 JUMP JUMPDEST PUSH1 0x0 PUSH2 0xC27 DUP3 PUSH1 0x12 PUSH2 0x1582 JUMP JUMPDEST PUSH1 0x20 DUP2 ADD MLOAD PUSH1 0x0 SWAP1 DUP2 SWAP1 DUP2 SWAP1 DUP2 SWAP1 DUP2 SWAP1 PUSH20 0xFFFFFFFFFFFFFFFFFFFFFFFFFFFFFFFFFFFFFFFF DUP11 DUP2 AND SWAP2 AND EQ DUP1 ISZERO PUSH2 0x103E JUMPI POP DUP6 PUSH1 0x40 ADD MLOAD PUSH20 0xFFFFFFFFFFFFFFFFFFFFFFFFFFFFFFFFFFFFFFFF AND DUP9 PUSH20 0xFFFFFFFFFFFFFFFFFFFFFFFFFFFFFFFFFFFFFFFF AND EQ JUMPDEST ISZERO PUSH2 0x105D JUMPI POP POP POP POP PUSH1 0x60 DUP3 ADD MLOAD PUSH1 0x80 DUP4 ADD MLOAD PUSH1 0xC0 DUP5 ADD MLOAD PUSH1 0x1 PUSH2 0x10FD JUMP JUMPDEST DUP6 PUSH1 0x40 ADD MLOAD PUSH20 0xFFFFFFFFFFFFFFFFFFFFFFFFFFFFFFFFFFFFFFFF AND DUP10 PUSH20 0xFFFFFFFFFFFFFFFFFFFFFFFFFFFFFFFFFFFFFFFF AND EQ DUP1 ISZERO PUSH2 0x10CB JUMPI POP DUP6 PUSH1 0x20 ADD MLOAD PUSH20 0xFFFFFFFFFFFFFFFFFFFFFFFFFFFFFFFFFFFFFFFF AND DUP9 PUSH20 0xFFFFFFFFFFFFFFFFFFFFFFFFFFFFFFFFFFFFFFFF AND EQ JUMPDEST ISZERO PUSH2 0x8B5 JUMPI DUP6 PUSH1 0x80 ADD MLOAD SWAP4 POP DUP6 PUSH1 0x60 ADD MLOAD SWAP3 POP PUSH2 0x10FA DUP7 PUSH1 0xC0 ADD MLOAD PUSH2 0x10EE PUSH2 0x1360 JUMP JUMPDEST SWAP1 PUSH4 0xFFFFFFFF PUSH2 0x1591 AND JUMP JUMPDEST SWAP2 POP JUMPDEST PUSH1 0x0 PUSH2 0x1110 DUP6 DUP6 DUP6 DUP11 PUSH2 0x100 ADD MLOAD PUSH2 0x160B JUMP JUMPDEST SWAP1 POP PUSH1 0x0 PUSH2 0x1122 DUP7 DUP7 DUP5 DUP8 DUP14 DUP14 PUSH2 0x16C1 JUMP JUMPDEST SWAP1 POP PUSH1 0x0 PUSH2 0x1156 PUSH2 0x113A DUP11 PUSH2 0x120 ADD MLOAD PUSH2 0xB82 PUSH2 0x1360 JUMP JUMPDEST PUSH2 0x114A DUP13 DUP6 PUSH4 0xFFFFFFFF PUSH2 0xE5B AND JUMP JUMPDEST SWAP1 PUSH4 0xFFFFFFFF PUSH2 0xE5B AND JUMP JUMPDEST SWAP1 POP PUSH2 0x1169 PUSH1 0x0 DUP3 PUSH4 0xFFFFFFFF PUSH2 0xCD0 AND JUMP JUMPDEST SWAP1 POP PUSH1 0x0 PUSH2 0x117B PUSH1 0x1 PUSH3 0x186A0 PUSH2 0x1341 JUMP JUMPDEST SWAP1 POP PUSH1 0x0 DUP3 SGT ISZERO PUSH2 0x118F JUMPI PUSH1 0x0 SWAP2 POP PUSH2 0x11B8 JUMP JUMPDEST DUP1 PUSH2 0x11A0 DUP9 DUP5 PUSH4 0xFFFFFFFF PUSH2 0xF19 AND JUMP JUMPDEST SGT PUSH2 0x11B8 JUMPI PUSH2 0x11B5 DUP2 DUP9 PUSH4 0xFFFFFFFF PUSH2 0xCD0 AND JUMP JUMPDEST SWAP2 POP JUMPDEST PUSH1 0x0 PUSH2 0x11D8 DUP12 PUSH2 0x140 ADD MLOAD PUSH2 0x11CB PUSH2 0x1828 JUMP JUMPDEST DUP14 PUSH2 0x160 ADD MLOAD DUP9 DUP12 PUSH2 0x182C JUMP JUMPDEST PUSH2 0x180 DUP13 ADD MLOAD SWAP1 SWAP2 POP PUSH2 0x11F1 SWAP1 DUP9 PUSH4 0xFFFFFFFF PUSH2 0xE5B AND JUMP JUMPDEST DUP2 SGT ISZERO PUSH2 0x1215 JUMPI PUSH2 0x180 DUP12 ADD MLOAD PUSH2 0x120E SWAP1 DUP9 PUSH4 0xFFFFFFFF PUSH2 0xE5B AND JUMP JUMPDEST SWAP1 POP PUSH2 0x1249 JUMP JUMPDEST PUSH2 0x122A DUP8 PUSH2 0x114A DUP14 PUSH2 0x180 ADD MLOAD PUSH2 0x10EE PUSH2 0x1360 JUMP JUMPDEST DUP2 SLT ISZERO PUSH2 0x1249 JUMPI PUSH2 0x1246 DUP8 PUSH2 0x114A DUP14 PUSH2 0x180 ADD MLOAD PUSH2 0x10EE PUSH2 0x1360 JUMP JUMPDEST SWAP1 POP JUMPDEST PUSH2 0x1251 PUSH2 0x1828 JUMP JUMPDEST PUSH2 0x140 DUP13 ADD MSTORE DUP6 ISZERO PUSH2 0x1293 JUMPI PUSH2 0x126D DUP10 DUP14 PUSH4 0xFFFFFFFF PUSH2 0xF19 AND JUMP JUMPDEST PUSH1 0x60 DUP13 ADD MSTORE PUSH2 0x1282 DUP9 DUP5 PUSH4 0xFFFFFFFF PUSH2 0xF19 AND JUMP JUMPDEST PUSH1 0x80 DUP13 ADD MSTORE PUSH1 0xC0 DUP12 ADD DUP2 SWAP1 MSTORE PUSH2 0x12CF JUMP JUMPDEST PUSH2 0x12A3 DUP9 DUP5 PUSH4 0xFFFFFFFF PUSH2 0xF19 AND JUMP JUMPDEST PUSH1 0x60 DUP13 ADD MSTORE PUSH2 0x12B8 DUP10 DUP14 PUSH4 0xFFFFFFFF PUSH2 0xF19 AND JUMP JUMPDEST PUSH1 0x80 DUP13 ADD MSTORE PUSH2 0x12C9 DUP2 PUSH2 0x10EE PUSH2 0x1360 JUMP JUMPDEST PUSH1 0xC0 DUP13 ADD MSTORE JUMPDEST PUSH2 0x12D8 DUP12 PUSH2 0x1905 JUMP JUMPDEST PUSH32 0x666804E599B015EDCFB9DE12153BF8A48AA5A84B8861B8FA88C1CF4B11974C15 CALLER DUP14 DUP6 PUSH1 0x40 MLOAD PUSH2 0x130B SWAP4 SWAP3 SWAP2 SWAP1 PUSH2 0x2E73 JUMP JUMPDEST PUSH1 0x40 MLOAD DUP1 SWAP2 SUB SWAP1 LOG1 POP POP PUSH1 0x0 SUB SWAP12 SWAP11 POP POP POP POP POP POP POP POP POP POP POP JUMP JUMPDEST PUSH1 0x0 PUSH2 0xC27 DUP3 PUSH1 0x6 PUSH2 0x1927 JUMP JUMPDEST PUSH1 0x0 PUSH2 0xC27 DUP3 PUSH1 0x12 PUSH2 0x1927 JUMP JUMPDEST PUSH1 0x0 PUSH2 0xD39 PUSH2 0xE55 DUP5 PUSH16 0x80000000000000000000000000000000 PUSH2 0x1374 JUMP JUMPDEST PUSH16 0x80000000000000000000000000000000 SWAP1 JUMP JUMPDEST PUSH1 0x0 DUP3 ISZERO DUP1 PUSH2 0x1381 JUMPI POP DUP2 ISZERO JUMPDEST ISZERO PUSH2 0x138E JUMPI POP PUSH1 0x0 PUSH2 0xC27 JUMP JUMPDEST POP DUP2 DUP2 MUL DUP2 DUP4 DUP3 DUP2 PUSH2 0x139C JUMPI INVALID JUMPDEST SDIV EQ ISZERO DUP1 PUSH2 0x13B3 JUMPI POP DUP3 DUP3 DUP3 DUP2 PUSH2 0x13AF JUMPI INVALID JUMPDEST SDIV EQ ISZERO JUMPDEST ISZERO PUSH2 0xC27 JUMPI PUSH1 0x40 MLOAD PUSH32 0x8C379A000000000000000000000000000000000000000000000000000000000 DUP2 MSTORE PUSH1 0x4 ADD PUSH2 0x4F6 SWAP1 PUSH2 0x32C1 JUMP JUMPDEST DUP2 DUP2 ADD PUSH1 0x0 DUP4 SLT DUP1 ISZERO PUSH2 0x13FD JUMPI POP PUSH1 0x0 DUP3 SLT JUMPDEST DUP1 ISZERO PUSH2 0x1408 JUMPI POP DUP3 DUP2 SGT JUMPDEST DUP1 PUSH2 0x1429 JUMPI POP PUSH1 0x0 DUP4 SGT DUP1 ISZERO PUSH2 0x141E JUMPI POP PUSH1 0x0 DUP3 SGT JUMPDEST DUP1 ISZERO PUSH2 0x1429 JUMPI POP DUP3 DUP2 SLT JUMPDEST ISZERO PUSH2 0xC27 JUMPI PUSH1 0x40 MLOAD PUSH32 0x8C379A000000000000000000000000000000000000000000000000000000000 DUP2 MSTORE PUSH1 0x4 ADD PUSH2 0x4F6 SWAP1 PUSH2 0x32F8 JUMP JUMPDEST PUSH1 0x0 DUP2 PUSH2 0x1499 JUMPI PUSH1 0x40 MLOAD PUSH32 0x8C379A000000000000000000000000000000000000000000000000000000000 DUP2 MSTORE PUSH1 0x4 ADD PUSH2 0x4F6 SWAP1 PUSH2 0x33C3 JUMP JUMPDEST PUSH32 0x8000000000000000000000000000000000000000000000000000000000000000 DUP4 EQ DUP1 ISZERO PUSH2 0x14E7 JUMPI POP DUP2 PUSH32 0xFFFFFFFFFFFFFFFFFFFFFFFFFFFFFFFFFFFFFFFFFFFFFFFFFFFFFFFFFFFFFFFF EQ JUMPDEST ISZERO PUSH2 0x151E JUMPI PUSH1 0x40 MLOAD PUSH32 0x8C379A000000000000000000000000000000000000000000000000000000000 DUP2 MSTORE PUSH1 0x4 ADD PUSH2 0x4F6 SWAP1 PUSH2 0x33FA JUMP JUMPDEST DUP2 DUP4 DUP2 PUSH2 0x1527 JUMPI INVALID JUMPDEST SDIV SWAP4 SWAP3 POP POP POP JUMP JUMPDEST PUSH16 0x80000000000000000000000000000000 SWAP1 SDIV SWAP1 JUMP JUMPDEST PUSH1 0x0 DUP1 DUP3 SGT PUSH2 0x156C JUMPI PUSH16 0x7FFFFFFFFFFFFFFFFFFFFFFFFFFFFFFF DUP3 PUSH1 0x0 SUB AND PUSH1 0x0 SUB PUSH2 0xC27 JUMP JUMPDEST POP PUSH16 0x7FFFFFFFFFFFFFFFFFFFFFFFFFFFFFFF AND SWAP1 JUMP JUMPDEST PUSH1 0x0 PUSH2 0xD39 DUP4 DUP4 PUSH1 0xA EXP PUSH2 0xDC1 JUMP JUMPDEST PUSH1 0x0 DUP1 PUSH2 0x159D DUP5 PUSH2 0x152F JUMP JUMPDEST SWAP1 POP DUP1 ISZERO PUSH2 0x15E8 JUMPI PUSH2 0x15E0 PUSH2 0x15B1 DUP6 PUSH2 0x152F JUMP JUMPDEST PUSH2 0xE87 PUSH2 0x15DA DUP8 PUSH2 0xE87 PUSH16 0x80000000000000000000000000000000 PUSH2 0x15D5 DUP12 PUSH2 0x152F JUMP JUMPDEST PUSH2 0x1460 JUMP JUMPDEST DUP7 PUSH2 0x1460 JUMP JUMPDEST SWAP2 POP POP PUSH2 0xC27 JUMP JUMPDEST PUSH2 0x15E0 PUSH2 0x1605 DUP6 PUSH16 0x80000000000000000000000000000000 PUSH2 0x1374 JUMP JUMPDEST DUP5 PUSH2 0x1460 JUMP JUMPDEST PUSH1 0x0 DUP1 PUSH2 0x161E DUP5 DUP8 PUSH4 0xFFFFFFFF PUSH2 0xE5B AND JUMP JUMPDEST SWAP1 POP PUSH1 0x0 PUSH2 0x1632 DUP7 DUP4 PUSH4 0xFFFFFFFF PUSH2 0x1591 AND JUMP JUMPDEST SWAP1 POP PUSH1 0x0 PUSH2 0x1646 DUP4 DUP9 PUSH4 0xFFFFFFFF PUSH2 0x1591 AND JUMP JUMPDEST SWAP1 POP PUSH1 0x0 PUSH2 0x1656 DUP7 PUSH2 0xB82 PUSH2 0x1360 JUMP JUMPDEST SWAP1 POP PUSH1 0x0 PUSH2 0x1662 PUSH2 0x1360 JUMP JUMPDEST DUP5 SLT ISZERO PUSH2 0x1685 JUMPI PUSH2 0x167E PUSH2 0x1679 DUP4 PUSH2 0x114A DUP8 PUSH2 0x1937 JUMP JUMPDEST PUSH2 0x2021 JUMP JUMPDEST SWAP1 POP PUSH2 0x16A3 JUMP JUMPDEST PUSH2 0x16A0 PUSH2 0x1698 PUSH2 0x1679 DUP5 PUSH2 0x114A DUP8 PUSH2 0x1937 JUMP JUMPDEST PUSH2 0x10EE PUSH2 0x1360 JUMP JUMPDEST SWAP1 POP JUMPDEST PUSH2 0x16B3 DUP2 DUP10 PUSH4 0xFFFFFFFF PUSH2 0xE5B AND JUMP JUMPDEST SWAP11 SWAP10 POP POP POP POP POP POP POP POP POP POP JUMP JUMPDEST PUSH1 0x0 DUP1 PUSH2 0x1716 PUSH2 0x1709 PUSH2 0x16F9 PUSH2 0x16DD DUP11 DUP9 PUSH4 0xFFFFFFFF PUSH2 0xE5B AND JUMP JUMPDEST PUSH2 0x16ED DUP13 DUP13 PUSH4 0xFFFFFFFF PUSH2 0xE5B AND JUMP JUMPDEST SWAP1 PUSH4 0xFFFFFFFF PUSH2 0xF19 AND JUMP JUMPDEST PUSH2 0x10EE DUP10 DUP9 PUSH4 0xFFFFFFFF PUSH2 0xE5B AND JUMP JUMPDEST DUP10 SWAP1 PUSH4 0xFFFFFFFF PUSH2 0xE5B AND JUMP JUMPDEST SWAP1 POP PUSH1 0x0 PUSH2 0x173A PUSH2 0x172D DUP11 DUP8 PUSH4 0xFFFFFFFF PUSH2 0xF19 AND JUMP JUMPDEST DUP11 SWAP1 PUSH4 0xFFFFFFFF PUSH2 0x1591 AND JUMP JUMPDEST SWAP1 POP PUSH1 0x0 PUSH2 0x174C DUP11 DUP11 DUP11 DUP11 DUP11 DUP11 PUSH2 0x262F JUMP JUMPDEST SWAP1 POP PUSH1 0x0 PUSH2 0x175F DUP12 DUP12 DUP12 DUP12 DUP12 DUP8 DUP13 PUSH2 0x2722 JUMP JUMPDEST SWAP1 POP PUSH1 0x0 PUSH2 0x1773 DUP13 DUP13 DUP13 DUP13 DUP13 DUP11 DUP11 DUP15 PUSH2 0x27C2 JUMP JUMPDEST SWAP1 POP PUSH2 0x1785 DUP3 DUP3 DUP10 PUSH2 0x120 ADD MLOAD PUSH2 0x285B JUMP JUMPDEST ISZERO PUSH2 0x17FD JUMPI PUSH1 0x0 PUSH2 0x1799 DUP4 DUP4 DUP9 DUP9 DUP13 PUSH2 0x28F5 JUMP JUMPDEST DUP1 SWAP3 POP DUP2 SWAP4 POP POP POP PUSH2 0x17B1 DUP4 DUP4 DUP11 PUSH2 0x120 ADD MLOAD PUSH2 0x285B JUMP JUMPDEST ISZERO PUSH2 0x17FB JUMPI PUSH1 0x0 PUSH2 0x17C6 DUP5 DUP5 DUP10 DUP10 DUP7 DUP15 PUSH2 0x2998 JUMP JUMPDEST PUSH2 0x120 DUP14 ADD MLOAD SWAP4 SWAP8 POP SWAP2 SWAP6 POP SWAP4 POP SWAP2 POP PUSH2 0x17E3 SWAP1 DUP6 SWAP1 DUP6 SWAP1 PUSH2 0x285B JUMP JUMPDEST ISZERO PUSH2 0x17F9 JUMPI PUSH2 0x17F6 DUP5 DUP5 DUP5 DUP5 DUP12 DUP12 PUSH2 0x2A1A JUMP JUMPDEST SWAP4 POP JUMPDEST POP JUMPDEST POP JUMPDEST PUSH2 0x1806 DUP3 PUSH2 0x2ACA JUMP JUMPDEST SWAP2 POP PUSH2 0x1818 DUP3 DUP12 PUSH4 0xFFFFFFFF PUSH2 0xE5B AND JUMP JUMPDEST SWAP13 SWAP12 POP POP POP POP POP POP POP POP POP POP POP POP JUMP JUMPDEST NUMBER SWAP1 JUMP JUMPDEST PUSH1 0x0 DUP1 PUSH2 0x183A DUP8 DUP8 SUB PUSH2 0xC7A JUMP JUMPDEST SWAP1 POP PUSH1 0x0 PUSH2 0x185A PUSH2 0x1679 PUSH2 0x184D DUP9 PUSH2 0x1937 JUMP JUMPDEST DUP5 SWAP1 PUSH4 0xFFFFFFFF PUSH2 0xE5B AND JUMP JUMPDEST SWAP1 POP PUSH1 0x0 PUSH2 0x186A DUP3 PUSH2 0xB82 PUSH2 0x1360 JUMP JUMPDEST SWAP1 POP PUSH1 0x0 PUSH2 0x187E DUP8 DUP4 PUSH4 0xFFFFFFFF PUSH2 0xE5B AND JUMP JUMPDEST SWAP1 POP PUSH1 0x0 PUSH2 0x1892 DUP8 DUP6 PUSH4 0xFFFFFFFF PUSH2 0xE5B AND JUMP JUMPDEST SWAP1 POP PUSH1 0x0 PUSH2 0x18BE PUSH2 0x18A9 DUP6 DUP12 PUSH4 0xFFFFFFFF PUSH2 0x1591 AND JUMP JUMPDEST PUSH2 0x18B9 DUP8 DUP12 PUSH4 0xFFFFFFFF PUSH2 0x1591 AND JUMP JUMPDEST PUSH2 0xF19 JUMP JUMPDEST SWAP1 POP PUSH1 0x0 PUSH2 0x18CE DUP3 PUSH2 0x10EE PUSH2 0x1360 JUMP JUMPDEST SWAP1 POP PUSH1 0x0 PUSH2 0x18F3 PUSH2 0x18DF PUSH1 0x2 PUSH2 0x2AEC JUMP JUMPDEST PUSH2 0x10EE DUP5 PUSH2 0x16ED DUP10 DUP10 PUSH4 0xFFFFFFFF PUSH2 0xF19 AND JUMP JUMPDEST SWAP15 SWAP14 POP POP POP POP POP POP POP POP POP POP POP POP POP POP JUMP JUMPDEST PUSH1 0x60 DUP2 ADD MLOAD PUSH1 0x3 SSTORE PUSH1 0x80 DUP2 ADD MLOAD PUSH1 0x4 SSTORE PUSH1 0xC0 DUP2 ADD MLOAD PUSH1 0x6 SSTORE PUSH2 0x140 ADD MLOAD PUSH1 0xA SSTORE JUMP JUMPDEST PUSH1 0x0 PUSH2 0xD39 DUP3 PUSH1 0xA EXP DUP5 MUL PUSH2 0x152F JUMP JUMPDEST PUSH1 0x0 PUSH16 0x80000000000000000000000000000000 DUP3 SGT ISZERO PUSH2 0x1983 JUMPI PUSH1 0x40 MLOAD PUSH32 0x8C379A000000000000000000000000000000000000000000000000000000000 DUP2 MSTORE PUSH1 0x4 ADD PUSH2 0x4F6 SWAP1 PUSH2 0x3188 JUMP JUMPDEST PUSH1 0x0 DUP3 SGT PUSH2 0x19BD JUMPI PUSH1 0x40 MLOAD PUSH32 0x8C379A000000000000000000000000000000000000000000000000000000000 DUP2 MSTORE PUSH1 0x4 ADD PUSH2 0x4F6 SWAP1 PUSH2 0x304F JUMP JUMPDEST PUSH16 0x80000000000000000000000000000000 DUP3 EQ ISZERO PUSH2 0x19DD JUMPI POP PUSH1 0x0 PUSH2 0x1BA JUMP JUMPDEST PUSH5 0x733048C5A DUP3 SGT PUSH2 0x1A10 JUMPI POP PUSH32 0xFFFFFFFFFFFFFFFFFFFFFFFFFFFFFFE010000000000000000000000000000000 PUSH2 0x1BA JUMP JUMPDEST PUSH1 0x0 DUP1 PUSH1 0x0 PUSH11 0x1C8464F76164760000000 DUP6 SGT PUSH2 0x1A6F JUMPI PUSH32 0xFFFFFFFFFFFFFFFFFFFFFFFFFFFFFFF000000000000000000000000000000000 SWAP1 SWAP4 ADD SWAP3 PUSH11 0x1C8464F76164760000000 PUSH16 0x80000000000000000000000000000000 DUP7 MUL SDIV SWAP5 POP JUMPDEST PUSH13 0xF1AADDD7742E90000000000000 DUP6 SGT PUSH2 0x1ACD JUMPI PUSH32 0xFFFFFFFFFFFFFFFFFFFFFFFFFFFFFFF800000000000000000000000000000000 SWAP1 SWAP4 ADD SWAP3 PUSH13 0xF1AADDD7742E90000000000000 PUSH16 0x80000000000000000000000000000000 DUP7 MUL SDIV SWAP5 POP JUMPDEST PUSH15 0xAFE10820813D78000000000000000 DUP6 SGT PUSH2 0x1B2F JUMPI PUSH32 0xFFFFFFFFFFFFFFFFFFFFFFFFFFFFFFFC00000000000000000000000000000000 SWAP1 SWAP4 ADD SWAP3 PUSH15 0xAFE10820813D78000000000000000 PUSH16 0x80000000000000000000000000000000 DUP7 MUL SDIV SWAP5 POP JUMPDEST PUSH16 0x2582AB704279EC00000000000000000 DUP6 SGT PUSH2 0x1B93 JUMPI PUSH32 0xFFFFFFFFFFFFFFFFFFFFFFFFFFFFFFFE00000000000000000000000000000000 SWAP1 SWAP4 ADD SWAP3 PUSH16 0x2582AB704279EC00000000000000000 PUSH16 0x80000000000000000000000000000000 DUP7 MUL SDIV SWAP5 POP JUMPDEST PUSH16 0x1152AAA3BF81CC000000000000000000 DUP6 SGT PUSH2 0x1BF7 JUMPI PUSH32 0xFFFFFFFFFFFFFFFFFFFFFFFFFFFFFFFF00000000000000000000000000000000 SWAP1 SWAP4 ADD SWAP3 PUSH16 0x1152AAA3BF81CC000000000000000000 PUSH16 0x80000000000000000000000000000000 DUP7 MUL SDIV SWAP5 POP JUMPDEST PUSH16 0x2F16AC6C59DE70000000000000000000 DUP6 SGT PUSH2 0x1C5B JUMPI PUSH32 0xFFFFFFFFFFFFFFFFFFFFFFFFFFFFFFFF80000000000000000000000000000000 SWAP1 SWAP4 ADD SWAP3 PUSH16 0x2F16AC6C59DE70000000000000000000 PUSH16 0x80000000000000000000000000000000 DUP7 MUL SDIV SWAP5 POP JUMPDEST PUSH16 0x4DA2CBF1BE5828000000000000000000 DUP6 SGT PUSH2 0x1CBF JUMPI PUSH32 0xFFFFFFFFFFFFFFFFFFFFFFFFFFFFFFFFC0000000000000000000000000000000 SWAP1 SWAP4 ADD SWAP3 PUSH16 0x4DA2CBF1BE5828000000000000000000 PUSH16 0x80000000000000000000000000000000 DUP7 MUL SDIV SWAP5 POP JUMPDEST PUSH16 0x63AFBE7AB2082C000000000000000000 DUP6 SGT PUSH2 0x1D23 JUMPI PUSH32 0xFFFFFFFFFFFFFFFFFFFFFFFFFFFFFFFFE0000000000000000000000000000000 SWAP1 SWAP4 ADD SWAP3 PUSH16 0x63AFBE7AB2082C000000000000000000 PUSH16 0x80000000000000000000000000000000 DUP7 MUL SDIV SWAP5 POP JUMPDEST PUSH16 0x70F5A893B608861E1F58934F97AEA57D DUP6 SGT PUSH2 0x1D87 JUMPI PUSH32 0xFFFFFFFFFFFFFFFFFFFFFFFFFFFFFFFFF0000000000000000000000000000000 SWAP1 SWAP4 ADD SWAP3 PUSH16 0x70F5A893B608861E1F58934F97AEA57D PUSH16 0x80000000000000000000000000000000 DUP7 MUL SDIV SWAP5 POP JUMPDEST PUSH32 0xFFFFFFFFFFFFFFFFFFFFFFFFFFFFFFFF80000000000000000000000000000000 DUP6 ADD SWAP3 POP DUP3 SWAP2 POP PUSH16 0x80000000000000000000000000000000 DUP3 DUP1 MUL SDIV SWAP1 POP PUSH17 0x100000000000000000000000000000000 DUP4 DUP2 SUB DUP4 MUL SDIV DUP5 ADD SWAP4 POP PUSH16 0x80000000000000000000000000000000 DUP2 DUP4 MUL DUP2 PUSH2 0x1DFD JUMPI INVALID JUMPDEST SDIV SWAP2 POP PUSH17 0x200000000000000000000000000000000 DUP4 PUSH16 0xAAAAAAAAAAAAAAAAAAAAAAAAAAAAAAAA SUB DUP4 MUL DUP2 PUSH2 0x1E2E JUMPI INVALID JUMPDEST SDIV DUP5 ADD SWAP4 POP PUSH16 0x80000000000000000000000000000000 DUP2 DUP4 MUL DUP2 PUSH2 0x1E4E JUMPI INVALID JUMPDEST SDIV SWAP2 POP PUSH17 0x300000000000000000000000000000000 DUP4 PUSH16 0x99999999999999999999999999999999 SUB DUP4 MUL DUP2 PUSH2 0x1E7F JUMPI INVALID JUMPDEST SDIV DUP5 ADD SWAP4 POP PUSH16 0x80000000000000000000000000000000 DUP2 DUP4 MUL DUP2 PUSH2 0x1E9F JUMPI INVALID JUMPDEST SDIV SWAP2 POP PUSH17 0x400000000000000000000000000000000 DUP4 PUSH16 0x92492492492492492492492492492492 SUB DUP4 MUL DUP2 PUSH2 0x1ED0 JUMPI INVALID JUMPDEST SDIV DUP5 ADD SWAP4 POP PUSH16 0x80000000000000000000000000000000 DUP2 DUP4 MUL DUP2 PUSH2 0x1EF0 JUMPI INVALID JUMPDEST SDIV SWAP2 POP PUSH17 0x500000000000000000000000000000000 DUP4 PUSH16 0x8E38E38E38E38E38E38E38E38E38E38E SUB DUP4 MUL DUP2 PUSH2 0x1F21 JUMPI INVALID JUMPDEST SDIV DUP5 ADD SWAP4 POP PUSH16 0x80000000000000000000000000000000 DUP2 DUP4 MUL DUP2 PUSH2 0x1F41 JUMPI INVALID JUMPDEST SDIV SWAP2 POP PUSH17 0x600000000000000000000000000000000 DUP4 PUSH16 0x8BA2E8BA2E8BA2E8BA2E8BA2E8BA2E8B SUB DUP4 MUL DUP2 PUSH2 0x1F72 JUMPI INVALID JUMPDEST SDIV DUP5 ADD SWAP4 POP PUSH16 0x80000000000000000000000000000000 DUP2 DUP4 MUL DUP2 PUSH2 0x1F92 JUMPI INVALID JUMPDEST SDIV SWAP2 POP PUSH17 0x700000000000000000000000000000000 DUP4 PUSH16 0x89D89D89D89D89D89D89D89D89D89D89 SUB DUP4 MUL DUP2 PUSH2 0x1FC3 JUMPI INVALID JUMPDEST SDIV DUP5 ADD SWAP4 POP PUSH16 0x80000000000000000000000000000000 DUP2 DUP4 MUL DUP2 PUSH2 0x1FE3 JUMPI INVALID JUMPDEST SDIV SWAP2 POP PUSH17 0x800000000000000000000000000000000 DUP4 PUSH16 0x88888888888888888888888888888888 SUB DUP4 MUL DUP2 PUSH2 0x2014 JUMPI INVALID JUMPDEST SDIV DUP5 ADD SWAP4 POP POP POP POP SWAP2 SWAP1 POP JUMP JUMPDEST PUSH1 0x0 PUSH32 0xFFFFFFFFFFFFFFFFFFFFFFFFFFFFFFE010000000000000000000000000000000 DUP3 SLT ISZERO PUSH2 0x2053 JUMPI POP PUSH1 0x0 PUSH2 0x1BA JUMP JUMPDEST DUP2 PUSH2 0x206F JUMPI POP PUSH16 0x80000000000000000000000000000000 PUSH2 0x1BA JUMP JUMPDEST PUSH1 0x0 DUP3 SGT ISZERO PUSH2 0x20AA JUMPI PUSH1 0x40 MLOAD PUSH32 0x8C379A000000000000000000000000000000000000000000000000000000000 DUP2 MSTORE PUSH1 0x4 ADD PUSH2 0x4F6 SWAP1 PUSH2 0x3253 JUMP JUMPDEST PUSH16 0x80000000000000000000000000000000 PUSH16 0x10000000000000000000000000000000 DUP4 SMOD DUP1 DUP1 MUL DUP3 SWAP1 SDIV PUSH8 0x10E1B3BE415A0000 DUP2 MUL SWAP4 SWAP1 SWAP4 ADD SWAP3 SWAP1 SWAP2 DUP2 DUP4 MUL SDIV SWAP1 POP DUP1 PUSH8 0x5A0913F6B1E0000 MUL DUP4 ADD SWAP3 POP PUSH16 0x80000000000000000000000000000000 DUP3 DUP3 MUL DUP2 PUSH2 0x2116 JUMPI INVALID JUMPDEST SDIV SWAP1 POP DUP1 PUSH8 0x168244FDAC78000 MUL DUP4 ADD SWAP3 POP PUSH16 0x80000000000000000000000000000000 DUP3 DUP3 MUL DUP2 PUSH2 0x2143 JUMPI INVALID JUMPDEST SDIV SWAP1 POP DUP1 PUSH7 0x4807432BC18000 MUL DUP4 ADD SWAP3 POP PUSH16 0x80000000000000000000000000000000 DUP3 DUP3 MUL DUP2 PUSH2 0x216F JUMPI INVALID JUMPDEST SDIV SWAP1 POP DUP1 PUSH7 0xC0135DCA04000 MUL DUP4 ADD SWAP3 POP PUSH16 0x80000000000000000000000000000000 DUP3 DUP3 MUL DUP2 PUSH2 0x219B JUMPI INVALID JUMPDEST SDIV SWAP1 POP DUP1 PUSH7 0x1B707B1CDC000 MUL DUP4 ADD SWAP3 POP PUSH16 0x80000000000000000000000000000000 DUP3 DUP3 MUL DUP2 PUSH2 0x21C7 JUMPI INVALID JUMPDEST SDIV SWAP1 POP DUP1 PUSH6 0x36E0F639B800 MUL DUP4 ADD SWAP3 POP PUSH16 0x80000000000000000000000000000000 DUP3 DUP3 MUL DUP2 PUSH2 0x21F2 JUMPI INVALID JUMPDEST SDIV SWAP1 POP DUP1 PUSH6 0x618FEE9F800 MUL DUP4 ADD SWAP3 POP PUSH16 0x80000000000000000000000000000000 DUP3 DUP3 MUL DUP2 PUSH2 0x221D JUMPI INVALID JUMPDEST SDIV SWAP1 POP DUP1 PUSH5 0x9C197DCC00 MUL DUP4 ADD SWAP3 POP PUSH16 0x80000000000000000000000000000000 DUP3 DUP3 MUL DUP2 PUSH2 0x2247 JUMPI INVALID JUMPDEST SDIV SWAP1 POP DUP1 PUSH5 0xE30DCE400 MUL DUP4 ADD SWAP3 POP PUSH16 0x80000000000000000000000000000000 DUP3 DUP3 MUL DUP2 PUSH2 0x2271 JUMPI INVALID JUMPDEST SDIV SWAP1 POP DUP1 PUSH5 0x12EBD1300 MUL DUP4 ADD SWAP3 POP PUSH16 0x80000000000000000000000000000000 DUP3 DUP3 MUL DUP2 PUSH2 0x229B JUMPI INVALID JUMPDEST SDIV SWAP1 POP DUP1 PUSH4 0x17499F00 MUL DUP4 ADD SWAP3 POP PUSH16 0x80000000000000000000000000000000 DUP3 DUP3 MUL DUP2 PUSH2 0x22C4 JUMPI INVALID JUMPDEST SDIV SWAP1 POP DUP1 PUSH4 0x1A9D480 MUL DUP4 ADD SWAP3 POP PUSH16 0x80000000000000000000000000000000 DUP3 DUP3 MUL DUP2 PUSH2 0x22ED JUMPI INVALID JUMPDEST SDIV SWAP1 POP DUP1 PUSH3 0x1C6380 MUL DUP4 ADD SWAP3 POP PUSH16 0x80000000000000000000000000000000 DUP3 DUP3 MUL DUP2 PUSH2 0x2315 JUMPI INVALID JUMPDEST SDIV SWAP1 POP DUP1 PUSH3 0x1C638 MUL DUP4 ADD SWAP3 POP PUSH16 0x80000000000000000000000000000000 DUP3 DUP3 MUL DUP2 PUSH2 0x233D JUMPI INVALID JUMPDEST SDIV SWAP1 POP DUP1 PUSH2 0x1AB8 MUL DUP4 ADD SWAP3 POP PUSH16 0x80000000000000000000000000000000 DUP3 DUP3 MUL DUP2 PUSH2 0x2364 JUMPI INVALID JUMPDEST SDIV SWAP1 POP DUP1 PUSH2 0x17C MUL DUP4 ADD SWAP3 POP PUSH16 0x80000000000000000000000000000000 DUP3 DUP3 MUL DUP2 PUSH2 0x238B JUMPI INVALID JUMPDEST SDIV SWAP1 POP DUP1 PUSH1 0x14 MUL DUP4 ADD SWAP3 POP PUSH16 0x80000000000000000000000000000000 DUP3 DUP3 MUL DUP2 PUSH2 0x23B1 JUMPI INVALID JUMPDEST PUSH1 0x0 SWAP6 SWAP1 SWAP6 SUB SWAP5 PUSH8 0x21C3677C82B40000 SWAP2 SWAP1 SDIV SWAP4 DUP5 ADD SDIV DUP3 ADD PUSH16 0x80000000000000000000000000000000 ADD SWAP3 SWAP1 POP PUSH17 0x1000000000000000000000000000000000 DUP5 AND ISZERO PUSH2 0x2420 JUMPI PUSH19 0x43CBAF42A000812488FC5C220AD7B97BF6E99E PUSH13 0xF1AADDD7742E56D32FB9F99744 DUP5 MUL SDIV SWAP3 POP JUMPDEST PUSH17 0x800000000000000000000000000000000 DUP5 AND ISZERO PUSH2 0x2462 JUMPI PUSH18 0x5D27A9F51C31B7C2F8038212A0574779991 PUSH15 0xAFE10820813D65DFE6A33C07F738F DUP5 MUL SDIV SWAP3 POP JUMPDEST PUSH17 0x400000000000000000000000000000000 DUP5 AND ISZERO PUSH2 0x24A4 JUMPI PUSH17 0x1B4C902E273A58678D6D3BFDB93DB96D02 PUSH16 0x2582AB704279E8EFD15E0265855C47A DUP5 MUL SDIV SWAP3 POP JUMPDEST PUSH17 0x200000000000000000000000000000000 DUP5 AND ISZERO PUSH2 0x24E6 JUMPI PUSH17 0x3B1CC971A9BB5B9867477440D6D157750 PUSH16 0x1152AAA3BF81CB9FDB76EAE12D029571 DUP5 MUL SDIV SWAP3 POP JUMPDEST PUSH17 0x100000000000000000000000000000000 DUP5 AND ISZERO PUSH2 0x2528 JUMPI PUSH17 0x15BF0A8B1457695355FB8AC404E7A79E3 PUSH16 0x2F16AC6C59DE6F8D5D6F63C1482A7C86 DUP5 MUL SDIV SWAP3 POP JUMPDEST PUSH16 0x80000000000000000000000000000000 DUP5 AND ISZERO PUSH2 0x2568 JUMPI PUSH16 0xD3094C70F034DE4B96FF7D5B6F99FCD8 PUSH16 0x4DA2CBF1BE5827F9EB3AD1AA9866EBB3 DUP5 MUL SDIV SWAP3 POP JUMPDEST PUSH16 0x40000000000000000000000000000000 DUP5 AND ISZERO PUSH2 0x25A8 JUMPI PUSH16 0xA45AF1E1F40C333B3DE1DB4DD55F29A7 PUSH16 0x63AFBE7AB2082BA1A0AE5E4EB1B479DC DUP5 MUL SDIV SWAP3 POP JUMPDEST PUSH16 0x20000000000000000000000000000000 DUP5 AND ISZERO PUSH2 0x25E8 JUMPI PUSH16 0x910B022DB7AE67CE76B441C27035C6A1 PUSH16 0x70F5A893B608861E1F58934F97AEA57D DUP5 MUL SDIV SWAP3 POP JUMPDEST PUSH16 0x10000000000000000000000000000000 DUP5 AND ISZERO PUSH2 0x2628 JUMPI PUSH16 0x88415ABBE9A76BEAD8D00CF112E4D4A8 PUSH16 0x783EAFEF1C0A8F3978C7F81824D62EBF DUP5 MUL SDIV SWAP3 POP JUMPDEST POP POP SWAP2 SWAP1 POP JUMP JUMPDEST PUSH1 0x0 DUP1 PUSH2 0x263C PUSH1 0x2 PUSH2 0x2AEC JUMP JUMPDEST SWAP1 POP PUSH1 0x0 PUSH2 0x267B PUSH2 0x265B DUP10 DUP7 PUSH2 0x100 ADD MLOAD PUSH2 0xE5B SWAP1 SWAP2 SWAP1 PUSH4 0xFFFFFFFF AND JUMP JUMPDEST PUSH2 0xB82 DUP10 PUSH2 0x114A DUP14 PUSH2 0x114A DUP11 PUSH2 0x100 ADD MLOAD DUP10 PUSH2 0xCD0 SWAP1 SWAP2 SWAP1 PUSH4 0xFFFFFFFF AND JUMP JUMPDEST SWAP1 POP PUSH1 0x0 PUSH2 0x26A1 PUSH2 0x2698 DUP11 PUSH2 0x114A DUP14 PUSH2 0x114A DUP14 PUSH2 0x114A PUSH1 0x4 PUSH2 0x2AEC JUMP JUMPDEST PUSH2 0x16ED DUP5 PUSH2 0x2B08 JUMP JUMPDEST SWAP1 POP PUSH1 0x0 PUSH2 0x26BD DUP5 PUSH2 0x10EE PUSH2 0x26B8 DUP6 PUSH2 0x10EE PUSH2 0x1360 JUMP JUMPDEST PUSH2 0x1937 JUMP JUMPDEST PUSH1 0x0 SUB SWAP1 POP PUSH1 0x0 DUP1 DUP3 SGT ISZERO PUSH2 0x26E0 JUMPI PUSH2 0x26DB PUSH2 0x1698 DUP4 PUSH1 0x0 SUB PUSH2 0x2021 JUMP JUMPDEST PUSH2 0x26E9 JUMP JUMPDEST PUSH2 0x26E9 DUP3 PUSH2 0x2021 JUMP JUMPDEST SWAP1 POP PUSH1 0x0 PUSH2 0x2714 PUSH2 0x2700 DUP8 DUP14 PUSH4 0xFFFFFFFF PUSH2 0xE5B AND JUMP JUMPDEST PUSH2 0x10EE PUSH1 0x0 DUP9 SWAP1 SUB DUP6 PUSH4 0xFFFFFFFF PUSH2 0xF19 AND JUMP JUMPDEST SWAP1 POP PUSH1 0x0 PUSH2 0x18F3 DUP11 DUP4 PUSH2 0x2B14 JUMP JUMPDEST PUSH1 0x0 DUP1 PUSH2 0x2755 PUSH2 0x2748 PUSH2 0x273B DUP7 DUP11 PUSH4 0xFFFFFFFF PUSH2 0xE5B AND JUMP JUMPDEST DUP11 SWAP1 PUSH4 0xFFFFFFFF PUSH2 0xCD0 AND JUMP JUMPDEST DUP11 SWAP1 PUSH4 0xFFFFFFFF PUSH2 0xE5B AND JUMP JUMPDEST SWAP1 POP PUSH1 0x0 PUSH2 0x276C PUSH2 0x2748 DUP12 DUP8 PUSH4 0xFFFFFFFF PUSH2 0xF19 AND JUMP JUMPDEST SWAP1 POP PUSH1 0x0 PUSH2 0x2783 PUSH2 0x26B8 DUP5 DUP5 PUSH4 0xFFFFFFFF PUSH2 0x1591 AND JUMP JUMPDEST SWAP1 POP PUSH1 0x0 PUSH2 0x279C DUP3 PUSH2 0x114A DUP9 PUSH2 0x100 ADD MLOAD PUSH2 0xB82 PUSH2 0x1360 JUMP JUMPDEST SWAP1 POP PUSH1 0x0 PUSH2 0x27B1 DUP10 PUSH2 0x10EE DUP11 PUSH2 0x114A DUP7 PUSH2 0x2021 JUMP JUMPDEST SWAP14 SWAP13 POP POP POP POP POP POP POP POP POP POP POP POP POP JUMP JUMPDEST PUSH1 0x0 DUP1 PUSH2 0x27D5 DUP5 DUP7 PUSH4 0xFFFFFFFF PUSH2 0x1591 AND JUMP JUMPDEST SWAP1 POP PUSH1 0x0 PUSH2 0x2803 PUSH2 0x27F1 DUP7 PUSH2 0x114A DUP8 PUSH2 0x100 ADD MLOAD PUSH2 0xB82 PUSH2 0x1360 JUMP JUMPDEST PUSH2 0x100 DUP7 ADD MLOAD SWAP1 PUSH4 0xFFFFFFFF PUSH2 0xF19 AND JUMP JUMPDEST SWAP1 POP PUSH1 0x0 PUSH2 0x2827 PUSH2 0x281F DUP9 PUSH2 0x114A DUP9 PUSH2 0x100 ADD MLOAD PUSH2 0xB82 PUSH2 0x1360 JUMP JUMPDEST PUSH2 0x16ED PUSH2 0x1360 JUMP JUMPDEST SWAP1 POP PUSH1 0x0 PUSH2 0x283B DUP4 DUP4 PUSH4 0xFFFFFFFF PUSH2 0x1591 AND JUMP JUMPDEST SWAP1 POP DUP1 DUP5 SLT PUSH2 0x284A JUMPI DUP1 PUSH2 0x27B1 JUMP JUMPDEST POP SWAP2 SWAP12 SWAP11 POP POP POP POP POP POP POP POP POP POP POP JUMP JUMPDEST PUSH1 0x0 DUP1 PUSH2 0x286E DUP5 DUP7 PUSH4 0xFFFFFFFF PUSH2 0xCD0 AND JUMP JUMPDEST SWAP1 POP PUSH1 0x0 PUSH2 0x287E PUSH1 0x1 PUSH1 0xA PUSH2 0x1341 JUMP JUMPDEST SWAP1 POP PUSH1 0x0 PUSH2 0x28AE PUSH2 0x28A1 PUSH2 0x2894 DUP9 PUSH2 0xB82 PUSH2 0x1360 JUMP JUMPDEST DUP8 SWAP1 PUSH4 0xFFFFFFFF PUSH2 0xF19 AND JUMP JUMPDEST DUP4 SWAP1 PUSH4 0xFFFFFFFF PUSH2 0xE5B AND JUMP JUMPDEST SWAP1 POP PUSH32 0x34AE76BC42B30CB0F8B76BFDDC91A95EFE45ED0B3C7419EFCCCE432DE252A822 DUP4 DUP3 PUSH1 0x40 MLOAD PUSH2 0x28E1 SWAP3 SWAP2 SWAP1 PUSH2 0x2F3F JUMP JUMPDEST PUSH1 0x40 MLOAD DUP1 SWAP2 SUB SWAP1 LOG1 SWAP1 SWAP2 SGT SWAP6 SWAP5 POP POP POP POP POP JUMP JUMPDEST PUSH1 0x0 DUP1 PUSH2 0x2901 DUP8 PUSH2 0x2B2B JUMP JUMPDEST SWAP1 POP PUSH1 0x0 PUSH2 0x2933 PUSH2 0x291D DUP7 PUSH2 0x114A DUP8 PUSH2 0x100 ADD MLOAD PUSH2 0xB82 PUSH2 0x1360 JUMP JUMPDEST PUSH2 0x100 DUP7 ADD MLOAD PUSH2 0x16ED SWAP1 DUP6 PUSH4 0xFFFFFFFF PUSH2 0xE5B AND JUMP JUMPDEST SWAP1 POP PUSH1 0x0 PUSH2 0x2960 PUSH2 0x2953 DUP11 PUSH2 0x114A DUP11 PUSH2 0x114A DUP11 PUSH2 0x100 ADD MLOAD PUSH2 0xB82 PUSH2 0x1360 JUMP JUMPDEST DUP5 SWAP1 PUSH4 0xFFFFFFFF PUSH2 0xF19 AND JUMP JUMPDEST SWAP1 POP PUSH1 0x0 PUSH2 0x2978 DUP3 PUSH2 0x10EE DUP13 DUP7 PUSH4 0xFFFFFFFF PUSH2 0xE5B AND JUMP JUMPDEST SWAP1 POP DUP9 DUP2 SLT PUSH2 0x2987 JUMPI DUP9 PUSH2 0x2989 JUMP JUMPDEST DUP1 JUMPDEST SWAP5 POP POP POP POP SWAP6 POP SWAP6 SWAP4 POP POP POP POP JUMP JUMPDEST PUSH1 0x0 DUP1 PUSH1 0x0 DUP1 PUSH1 0x0 PUSH2 0x29AA DUP12 DUP12 PUSH2 0x2BCA JUMP JUMPDEST SWAP1 POP PUSH1 0x0 PUSH2 0x29B7 DUP3 PUSH2 0x2B2B JUMP JUMPDEST SWAP1 POP PUSH1 0x0 PUSH2 0x29DB PUSH2 0x29CE DUP13 DUP6 PUSH4 0xFFFFFFFF PUSH2 0xE5B AND JUMP JUMPDEST DUP12 SWAP1 PUSH4 0xFFFFFFFF PUSH2 0xCD0 AND JUMP JUMPDEST SWAP1 POP DUP1 DUP3 SGT PUSH2 0x2A00 JUMPI DUP3 DUP13 DUP4 PUSH2 0x29F0 DUP16 PUSH2 0x2B2B JUMP JUMPDEST SWAP7 POP SWAP7 POP SWAP7 POP SWAP7 POP POP POP POP PUSH2 0x2A0D JUMP JUMPDEST POP DUP12 SWAP6 POP SWAP1 SWAP4 POP DUP7 SWAP3 POP SWAP1 POP JUMPDEST SWAP7 POP SWAP7 POP SWAP7 POP SWAP7 SWAP3 POP POP POP JUMP JUMPDEST PUSH1 0x0 DUP1 PUSH2 0x2A63 PUSH2 0x2A40 PUSH2 0x2A33 DUP10 DUP12 PUSH4 0xFFFFFFFF PUSH2 0xCD0 AND JUMP JUMPDEST DUP6 SWAP1 PUSH4 0xFFFFFFFF PUSH2 0xE5B AND JUMP JUMPDEST PUSH2 0x16ED PUSH2 0x2A53 DUP10 DUP12 PUSH4 0xFFFFFFFF PUSH2 0xE5B AND JUMP JUMPDEST PUSH2 0xB82 DUP10 DUP14 PUSH4 0xFFFFFFFF PUSH2 0xE5B AND JUMP JUMPDEST SWAP1 POP PUSH1 0x0 PUSH2 0x2A9A PUSH2 0x2A8A PUSH2 0x2A7D DUP11 DUP13 PUSH4 0xFFFFFFFF PUSH2 0xCD0 AND JUMP JUMPDEST DUP8 SWAP1 PUSH4 0xFFFFFFFF PUSH2 0xE5B AND JUMP JUMPDEST PUSH2 0x16ED DUP9 DUP11 PUSH4 0xFFFFFFFF PUSH2 0xCD0 AND JUMP JUMPDEST SWAP1 POP PUSH1 0x0 PUSH2 0x2AAE DUP4 DUP4 PUSH4 0xFFFFFFFF PUSH2 0x1591 AND JUMP JUMPDEST SWAP1 POP DUP10 DUP2 SGT PUSH2 0x2ABD JUMPI DUP10 PUSH2 0x16B3 JUMP JUMPDEST SWAP10 SWAP9 POP POP POP POP POP POP POP POP POP JUMP JUMPDEST PUSH1 0x0 PUSH2 0x2AD8 PUSH1 0x9 PUSH1 0xA PUSH2 0x1341 JUMP JUMPDEST DUP3 SLT PUSH2 0x2AE4 JUMPI DUP2 PUSH2 0xC27 JUMP JUMPDEST POP PUSH1 0x0 SWAP2 SWAP1 POP JUMP JUMPDEST PUSH1 0x0 PUSH2 0xC27 DUP3 PUSH16 0x80000000000000000000000000000000 PUSH2 0x1374 JUMP JUMPDEST PUSH1 0x0 PUSH2 0xC27 DUP3 DUP4 PUSH2 0xE5B JUMP JUMPDEST PUSH1 0x0 DUP2 DUP4 SGT ISZERO PUSH2 0x2B24 JUMPI DUP2 PUSH2 0xD39 JUMP JUMPDEST POP SWAP1 SWAP2 SWAP1 POP JUMP JUMPDEST PUSH1 0x0 DUP1 PUSH2 0x2B3E DUP4 DUP1 PUSH4 0xFFFFFFFF PUSH2 0xE5B AND JUMP JUMPDEST SWAP1 POP PUSH1 0x0 PUSH2 0x2B52 DUP5 DUP4 PUSH4 0xFFFFFFFF PUSH2 0xE5B AND JUMP JUMPDEST SWAP1 POP PUSH1 0x0 PUSH2 0x2B66 DUP3 DUP1 PUSH4 0xFFFFFFFF PUSH2 0xE5B AND JUMP JUMPDEST SWAP1 POP PUSH1 0x0 PUSH2 0x2B7A DUP3 DUP1 PUSH4 0xFFFFFFFF PUSH2 0xE5B AND JUMP JUMPDEST SWAP1 POP PUSH1 0x0 PUSH2 0x2B8E DUP3 DUP1 PUSH4 0xFFFFFFFF PUSH2 0xE5B AND JUMP JUMPDEST SWAP1 POP PUSH1 0x0 PUSH2 0x2BA2 DUP3 DUP1 PUSH4 0xFFFFFFFF PUSH2 0xE5B AND JUMP JUMPDEST SWAP1 POP PUSH1 0x0 PUSH2 0x2BB6 DUP3 DUP9 PUSH4 0xFFFFFFFF PUSH2 0xE5B AND JUMP JUMPDEST SWAP1 POP PUSH1 0x0 PUSH2 0x16B3 DUP3 DUP1 PUSH4 0xFFFFFFFF PUSH2 0xE5B AND JUMP JUMPDEST PUSH1 0x0 PUSH2 0xD39 PUSH2 0x2BD9 PUSH1 0xA PUSH2 0x2AEC JUMP JUMPDEST PUSH2 0x10EE PUSH2 0x2BF6 PUSH2 0x2BE9 PUSH1 0x6 PUSH2 0x2AEC JUMP JUMPDEST DUP7 SWAP1 PUSH4 0xFFFFFFFF PUSH2 0xE5B AND JUMP JUMPDEST PUSH2 0x16ED PUSH2 0x2C03 PUSH1 0x4 PUSH2 0x2AEC JUMP JUMPDEST DUP9 SWAP1 PUSH4 0xFFFFFFFF PUSH2 0xE5B AND JUMP JUMPDEST PUSH1 0x40 MLOAD DUP1 PUSH2 0x1A0 ADD PUSH1 0x40 MSTORE DUP1 PUSH1 0x0 ISZERO ISZERO DUP2 MSTORE PUSH1 0x20 ADD PUSH1 0x0 PUSH20 0xFFFFFFFFFFFFFFFFFFFFFFFFFFFFFFFFFFFFFFFF AND DUP2 MSTORE PUSH1 0x20 ADD PUSH1 0x0 PUSH20 0xFFFFFFFFFFFFFFFFFFFFFFFFFFFFFFFFFFFFFFFF AND DUP2 MSTORE PUSH1 0x20 ADD PUSH1 0x0 DUP2 MSTORE PUSH1 0x20 ADD PUSH1 0x0 DUP2 MSTORE PUSH1 0x20 ADD PUSH1 0x0 DUP2 MSTORE PUSH1 0x20 ADD PUSH1 0x0 DUP2 MSTORE PUSH1 0x20 ADD PUSH1 0x0 DUP2 MSTORE PUSH1 0x20 ADD PUSH1 0x0 DUP2 MSTORE PUSH1 0x20 ADD PUSH1 0x0 DUP2 MSTORE PUSH1 0x20 ADD PUSH1 0x0 DUP2 MSTORE PUSH1 0x20 ADD PUSH1 0x0 DUP2 MSTORE PUSH1 0x20 ADD PUSH1 0x0 DUP2 MSTORE POP SWAP1 JUMP JUMPDEST DUP1 CALLDATALOAD PUSH20 0xFFFFFFFFFFFFFFFFFFFFFFFFFFFFFFFFFFFFFFFF DUP2 AND DUP2 EQ PUSH2 0xC27 JUMPI PUSH1 0x0 DUP1 REVERT JUMPDEST PUSH1 0x0 PUSH1 0x20 DUP3 DUP5 SUB SLT ISZERO PUSH2 0x2CDC JUMPI PUSH1 0x0 DUP1 REVERT JUMPDEST PUSH2 0xD39 DUP4 DUP4 PUSH2 0x2CA6 JUMP JUMPDEST PUSH1 0x0 DUP1 PUSH1 0x40 DUP4 DUP6 SUB SLT ISZERO PUSH2 0x2CF9 JUMPI PUSH1 0x0 DUP1 REVERT JUMPDEST PUSH2 0x2D03 DUP5 DUP5 PUSH2 0x2CA6 JUMP JUMPDEST SWAP2 POP PUSH2 0x2D12 DUP5 PUSH1 0x20 DUP6 ADD PUSH2 0x2CA6 JUMP JUMPDEST SWAP1 POP SWAP3 POP SWAP3 SWAP1 POP JUMP JUMPDEST PUSH1 0x0 DUP1 PUSH1 0x0 PUSH1 0x60 DUP5 DUP7 SUB SLT ISZERO PUSH2 0x2D30 JUMPI PUSH1 0x0 DUP1 REVERT JUMPDEST DUP4 CALLDATALOAD PUSH2 0x2D3B DUP2 PUSH2 0x343A JUMP JUMPDEST SWAP3 POP PUSH1 0x20 DUP5 ADD CALLDATALOAD PUSH2 0x2D4B DUP2 PUSH2 0x343A JUMP JUMPDEST SWAP3 SWAP6 SWAP3 SWAP5 POP POP POP PUSH1 0x40 SWAP2 SWAP1 SWAP2 ADD CALLDATALOAD SWAP1 JUMP JUMPDEST PUSH1 0x0 PUSH1 0x20 DUP3 DUP5 SUB SLT ISZERO PUSH2 0x2D6E JUMPI PUSH1 0x0 DUP1 REVERT JUMPDEST DUP2 MLOAD DUP1 ISZERO ISZERO DUP2 EQ PUSH2 0xC24 JUMPI PUSH1 0x0 DUP1 REVERT JUMPDEST PUSH1 0x0 PUSH1 0x20 DUP3 DUP5 SUB SLT ISZERO PUSH2 0x2D90 JUMPI PUSH1 0x0 DUP1 REVERT JUMPDEST POP CALLDATALOAD SWAP2 SWAP1 POP JUMP JUMPDEST PUSH1 0x0 DUP1 PUSH1 0x40 DUP4 DUP6 SUB SLT ISZERO PUSH2 0x2DAA JUMPI PUSH1 0x0 DUP1 REVERT JUMPDEST POP POP DUP1 CALLDATALOAD SWAP3 PUSH1 0x20 SWAP1 SWAP2 ADD CALLDATALOAD SWAP2 POP JUMP JUMPDEST PUSH20 0xFFFFFFFFFFFFFFFFFFFFFFFFFFFFFFFFFFFFFFFF SWAP2 SWAP1 SWAP2 AND DUP2 MSTORE PUSH1 0x20 ADD SWAP1 JUMP JUMPDEST PUSH20 0xFFFFFFFFFFFFFFFFFFFFFFFFFFFFFFFFFFFFFFFF SWAP3 DUP4 AND DUP2 MSTORE SWAP2 AND PUSH1 0x20 DUP3 ADD MSTORE PUSH1 0x40 ADD SWAP1 JUMP JUMPDEST PUSH20 0xFFFFFFFFFFFFFFFFFFFFFFFFFFFFFFFFFFFFFFFF SWAP6 DUP7 AND DUP2 MSTORE SWAP4 DUP6 AND PUSH1 0x20 DUP6 ADD MSTORE SWAP2 SWAP1 SWAP4 AND PUSH1 0x40 DUP4 ADD MSTORE PUSH1 0x60 DUP3 ADD SWAP3 SWAP1 SWAP3 MSTORE PUSH1 0x80 DUP2 ADD SWAP2 SWAP1 SWAP2 MSTORE PUSH1 0xA0 ADD SWAP1 JUMP JUMPDEST PUSH20 0xFFFFFFFFFFFFFFFFFFFFFFFFFFFFFFFFFFFFFFFF SWAP4 DUP5 AND DUP2 MSTORE SWAP2 SWAP1 SWAP3 AND PUSH1 0x20 DUP3 ADD MSTORE PUSH1 0x40 DUP2 ADD SWAP2 SWAP1 SWAP2 MSTORE PUSH1 0x60 ADD SWAP1 JUMP JUMPDEST PUSH20 0xFFFFFFFFFFFFFFFFFFFFFFFFFFFFFFFFFFFFFFFF SWAP4 SWAP1 SWAP4 AND DUP4 MSTORE PUSH1 0x20 DUP4 ADD SWAP2 SWAP1 SWAP2 MSTORE PUSH1 0x40 DUP3 ADD MSTORE PUSH1 0x60 ADD SWAP1 JUMP JUMPDEST PUSH20 0xFFFFFFFFFFFFFFFFFFFFFFFFFFFFFFFFFFFFFFFF SWAP3 SWAP1 SWAP3 AND DUP3 MSTORE PUSH1 0x20 DUP3 ADD MSTORE PUSH1 0x40 ADD SWAP1 JUMP JUMPDEST SWAP13 ISZERO ISZERO DUP14 MSTORE PUSH20 0xFFFFFFFFFFFFFFFFFFFFFFFFFFFFFFFFFFFFFFFF SWAP12 DUP13 AND PUSH1 0x20 DUP15 ADD MSTORE SWAP10 SWAP1 SWAP11 AND PUSH1 0x40 DUP13 ADD MSTORE PUSH1 0x60 DUP12 ADD SWAP8 SWAP1 SWAP8 MSTORE PUSH1 0x80 DUP11 ADD SWAP6 SWAP1 SWAP6 MSTORE PUSH1 0xA0 DUP10 ADD SWAP4 SWAP1 SWAP4 MSTORE PUSH1 0xC0 DUP9 ADD SWAP2 SWAP1 SWAP2 MSTORE PUSH1 0xE0 DUP8 ADD MSTORE PUSH2 0x100 DUP7 ADD MSTORE PUSH2 0x120 DUP6 ADD MSTORE PUSH2 0x140 DUP5 ADD MSTORE PUSH2 0x160 DUP4 ADD SWAP2 SWAP1 SWAP2 MSTORE PUSH2 0x180 DUP3 ADD MSTORE PUSH2 0x1A0 ADD SWAP1 JUMP JUMPDEST SWAP2 DUP3 MSTORE PUSH1 0x20 DUP3 ADD MSTORE PUSH1 0x40 ADD SWAP1 JUMP JUMPDEST PUSH1 0x20 DUP1 DUP3 MSTORE PUSH1 0x11 SWAP1 DUP3 ADD MSTORE PUSH32 0x736166654164643A206F766572666C6F77000000000000000000000000000000 PUSH1 0x40 DUP3 ADD MSTORE PUSH1 0x60 ADD SWAP1 JUMP JUMPDEST PUSH1 0x20 DUP1 DUP3 MSTORE PUSH1 0x2A SWAP1 DUP3 ADD MSTORE PUSH32 0x4C697175696474793A416D6F756E74206465706F7369746564206E6F74207072 PUSH1 0x40 DUP3 ADD MSTORE PUSH32 0x6F706F7274696F6E616C00000000000000000000000000000000000000000000 PUSH1 0x60 DUP3 ADD MSTORE PUSH1 0x80 ADD SWAP1 JUMP JUMPDEST PUSH1 0x20 DUP1 DUP3 MSTORE PUSH1 0x11 SWAP1 DUP3 ADD MSTORE PUSH32 0x736166654469763A206F766572666C6F77000000000000000000000000000000 PUSH1 0x40 DUP3 ADD MSTORE PUSH1 0x60 ADD SWAP1 JUMP JUMPDEST PUSH1 0x20 DUP1 DUP3 MSTORE PUSH1 0x12 SWAP1 DUP3 ADD MSTORE PUSH32 0x736166655375623A20756E646572666C6F770000000000000000000000000000 PUSH1 0x40 DUP3 ADD MSTORE PUSH1 0x60 ADD SWAP1 JUMP JUMPDEST PUSH1 0x20 DUP1 DUP3 MSTORE PUSH1 0x13 SWAP1 DUP3 ADD MSTORE PUSH32 0x6C6E3A2076616C756520746F6F20736D616C6C00000000000000000000000000 PUSH1 0x40 DUP3 ADD MSTORE PUSH1 0x60 ADD SWAP1 JUMP JUMPDEST PUSH1 0x20 DUP1 DUP3 MSTORE PUSH1 0xE SWAP1 DUP3 ADD MSTORE PUSH32 0x4F6E6C794F776E65724572726F72000000000000000000000000000000000000 PUSH1 0x40 DUP3 ADD MSTORE PUSH1 0x60 ADD SWAP1 JUMP JUMPDEST PUSH1 0x20 DUP1 DUP3 MSTORE PUSH1 0x13 SWAP1 DUP3 ADD MSTORE PUSH32 0x416C726561647920496E697469616C697A656400000000000000000000000000 PUSH1 0x40 DUP3 ADD MSTORE PUSH1 0x60 ADD SWAP1 JUMP JUMPDEST PUSH1 0x20 DUP1 DUP3 MSTORE PUSH1 0x17 SWAP1 DUP3 ADD MSTORE PUSH32 0x496E76616C696420746F6B656E20616464726573736573000000000000000000 PUSH1 0x40 DUP3 ADD MSTORE PUSH1 0x60 ADD SWAP1 JUMP JUMPDEST PUSH1 0x20 DUP1 DUP3 MSTORE PUSH1 0x38 SWAP1 DUP3 ADD MSTORE PUSH32 0x746F46697865642875696E742C75696E74293A2064656E6F6D696E61746F7220 PUSH1 0x40 DUP3 ADD MSTORE PUSH32 0x63616E6E6F74206265206C657373207468616E207A65726F0000000000000000 PUSH1 0x60 DUP3 ADD MSTORE PUSH1 0x80 ADD SWAP1 JUMP JUMPDEST PUSH1 0x20 DUP1 DUP3 MSTORE PUSH1 0x13 SWAP1 DUP3 ADD MSTORE PUSH32 0x6C6E3A2076616C756520746F6F206C6172676500000000000000000000000000 PUSH1 0x40 DUP3 ADD MSTORE PUSH1 0x60 ADD SWAP1 JUMP JUMPDEST PUSH1 0x20 DUP1 DUP3 MSTORE PUSH1 0x27 SWAP1 DUP3 ADD MSTORE PUSH32 0x746F46697865643A2076616C75652063616E6E6F74206265206C657373207468 PUSH1 0x40 DUP3 ADD MSTORE PUSH32 0x616E207A65726F00000000000000000000000000000000000000000000000000 PUSH1 0x60 DUP3 ADD MSTORE PUSH1 0x80 ADD SWAP1 JUMP JUMPDEST PUSH1 0x20 DUP1 DUP3 MSTORE PUSH1 0x11 SWAP1 DUP3 ADD MSTORE PUSH32 0x736166654D756C3A206F766572666C6F77000000000000000000000000000000 PUSH1 0x40 DUP3 ADD MSTORE PUSH1 0x60 ADD SWAP1 JUMP JUMPDEST PUSH1 0x20 DUP1 DUP3 MSTORE PUSH1 0x14 SWAP1 DUP3 ADD MSTORE PUSH32 0x6578703A2076616C756520746F6F20736D616C6C000000000000000000000000 PUSH1 0x40 DUP3 ADD MSTORE PUSH1 0x60 ADD SWAP1 JUMP JUMPDEST PUSH1 0x20 DUP1 DUP3 MSTORE PUSH1 0x18 SWAP1 DUP3 ADD MSTORE PUSH32 0x5472616E736665724F776E6572546F5A65726F4572726F720000000000000000 PUSH1 0x40 DUP3 ADD MSTORE PUSH1 0x60 ADD SWAP1 JUMP JUMPDEST PUSH1 0x20 DUP1 DUP3 MSTORE PUSH1 0xE SWAP1 DUP3 ADD MSTORE PUSH32 0x5F6D756C3A206F766572666C6F77000000000000000000000000000000000000 PUSH1 0x40 DUP3 ADD MSTORE PUSH1 0x60 ADD SWAP1 JUMP JUMPDEST PUSH1 0x20 DUP1 DUP3 MSTORE PUSH1 0xE SWAP1 DUP3 ADD MSTORE PUSH32 0x5F6164643A206F766572666C6F77000000000000000000000000000000000000 PUSH1 0x40 DUP3 ADD MSTORE PUSH1 0x60 ADD SWAP1 JUMP JUMPDEST PUSH1 0x20 DUP1 DUP3 MSTORE PUSH1 0x14 SWAP1 DUP3 ADD MSTORE PUSH32 0x7375623A2076616C756520746F6F20736D616C6C000000000000000000000000 PUSH1 0x40 DUP3 ADD MSTORE PUSH1 0x60 ADD SWAP1 JUMP JUMPDEST PUSH1 0x20 DUP1 DUP3 MSTORE PUSH1 0x36 SWAP1 DUP3 ADD MSTORE PUSH32 0x746F46697865642875696E742C75696E74293A206E756D657261746F72206361 PUSH1 0x40 DUP3 ADD MSTORE PUSH32 0x6E6E6F74206265206C657373207468616E207A65726F00000000000000000000 PUSH1 0x60 DUP3 ADD MSTORE PUSH1 0x80 ADD SWAP1 JUMP JUMPDEST PUSH1 0x20 DUP1 DUP3 MSTORE PUSH1 0x14 SWAP1 DUP3 ADD MSTORE PUSH32 0x5F6469763A20646976696465206279207A65726F000000000000000000000000 PUSH1 0x40 DUP3 ADD MSTORE PUSH1 0x60 ADD SWAP1 JUMP JUMPDEST PUSH1 0x20 DUP1 DUP3 MSTORE PUSH1 0xE SWAP1 DUP3 ADD MSTORE PUSH32 0x5F6469763A206F766572666C6F77000000000000000000000000000000000000 PUSH1 0x40 DUP3 ADD MSTORE PUSH1 0x60 ADD SWAP1 JUMP JUMPDEST SWAP1 DUP2 MSTORE PUSH1 0x20 ADD SWAP1 JUMP JUMPDEST PUSH20 0xFFFFFFFFFFFFFFFFFFFFFFFFFFFFFFFFFFFFFFFF DUP2 AND DUP2 EQ PUSH2 0x229 JUMPI PUSH1 0x0 DUP1 REVERT INVALID LOG3 PUSH6 0x627A7A723058 KECCAK256 DUP10 0xb6 EXTCODESIZE CALLCODE 0xc3 OR GAS 0x23 0xe5 KECCAK256 PUSH25 0x6783DABFEE5EE82098107C3CFDAC4BE5BCFEF11716C657870 PUSH6 0x72696D656E74 PUSH2 0x6CF5 PUSH5 0x736F6C6343 STOP SDIV MULMOD STOP BLOCKHASH "
			}
		}
	},
	"sourceTreeHashHex": "0x970fa008fe60a090bd19ed7bb0229c4a4671872c0cf9d91f7d40f39e35ee1322",
	"compiler": {
		"name": "solc",
		"version": "soljson-v0.5.9+commit.e560f70d.js",
		"settings": {
			"optimizer": {
				"enabled": true,
				"runs": 1000000,
				"details": {
					"yul": true,
					"deduplicate": true,
					"cse": true,
					"constantOptimizer": true
				}
			},
			"outputSelection": {
				"*": {
					"*": [
						"abi",
						"devdoc",
						"evm.bytecode.object",
						"evm.bytecode.sourceMap",
						"evm.deployedBytecode.object",
						"evm.deployedBytecode.sourceMap"
					]
				}
			},
			"evmVersion": "constantinople",
			"remappings": []
		}
	},
	"chains": {}
}