{
	"schemaVersion": "2.0.0",
	"contractName": "TestScam",
	"compilerOutput": {
		"abi": [
			{
				"anonymous": false,
				"inputs": [
					{
						"indexed": false,
						"internalType": "int256",
						"name": "lhs1",
						"type": "int256"
					},
					{
						"indexed": false,
						"internalType": "int256",
						"name": "mid",
						"type": "int256"
					},
					{
						"indexed": false,
						"internalType": "int256",
						"name": "lhs",
						"type": "int256"
					}
				],
				"name": "Bisect",
				"type": "event"
			},
			{
				"anonymous": false,
				"inputs": [
					{
						"indexed": false,
						"internalType": "address",
						"name": "from",
						"type": "address"
					},
					{
						"indexed": false,
						"internalType": "address",
						"name": "fromToken",
						"type": "address"
					},
					{
						"indexed": false,
						"internalType": "address",
						"name": "toToken",
						"type": "address"
					},
					{
						"indexed": false,
						"internalType": "uint256",
						"name": "amountSpent",
						"type": "uint256"
					},
					{
						"indexed": false,
						"internalType": "uint256",
						"name": "amountReceived",
						"type": "uint256"
					}
				],
				"name": "Fill",
				"type": "event"
			},
			{
				"anonymous": false,
				"inputs": [
					{
						"indexed": false,
						"internalType": "address",
						"name": "from",
						"type": "address"
					},
					{
						"indexed": false,
						"internalType": "int256",
						"name": "amountSpent",
						"type": "int256"
					},
					{
						"indexed": false,
						"internalType": "int256",
						"name": "amountReceived",
						"type": "int256"
					}
				],
				"name": "FillInternal",
				"type": "event"
			},
			{
				"anonymous": false,
				"inputs": [
					{
						"indexed": false,
						"internalType": "address",
						"name": "oldOwner",
						"type": "address"
					},
					{
						"indexed": false,
						"internalType": "address",
						"name": "newOwner",
						"type": "address"
					}
				],
				"name": "OwnershipTransferred",
				"type": "event"
			},
			{
				"anonymous": false,
				"inputs": [
					{
						"indexed": false,
						"internalType": "int256",
						"name": "price",
						"type": "int256"
					},
					{
						"indexed": false,
						"internalType": "int256",
						"name": "deltaB",
						"type": "int256"
					},
					{
						"indexed": false,
						"internalType": "int256",
						"name": "newPBarX",
						"type": "int256"
					},
					{
						"indexed": false,
						"internalType": "int256",
						"name": "pA",
						"type": "int256"
					}
				],
				"name": "Price",
				"type": "event"
			},
			{
				"constant": false,
				"inputs": [
					{
						"internalType": "uint256",
						"name": "amount",
						"type": "uint256"
					}
				],
				"name": "addLiquidity",
				"outputs": [],
				"payable": false,
				"stateMutability": "nonpayable",
				"type": "function"
			},
			{
				"constant": false,
				"inputs": [],
				"name": "initState",
				"outputs": [],
				"payable": false,
				"stateMutability": "nonpayable",
				"type": "function"
			},
			{
				"constant": true,
				"inputs": [],
				"name": "owner",
				"outputs": [
					{
						"internalType": "address",
						"name": "",
						"type": "address"
					}
				],
				"payable": false,
				"stateMutability": "view",
				"type": "function"
			},
			{
				"constant": false,
				"inputs": [
					{
						"internalType": "uint256",
						"name": "amount",
						"type": "uint256"
					}
				],
				"name": "removeLiquidity",
				"outputs": [],
				"payable": false,
				"stateMutability": "nonpayable",
				"type": "function"
			},
			{
				"constant": false,
				"inputs": [],
				"name": "runBasicTest",
				"outputs": [],
				"payable": false,
				"stateMutability": "nonpayable",
				"type": "function"
			},
			{
				"constant": false,
				"inputs": [
					{
						"internalType": "address",
						"name": "fromToken",
						"type": "address"
					},
					{
						"internalType": "address",
						"name": "toToken",
						"type": "address"
					},
					{
						"internalType": "uint256",
						"name": "amount",
						"type": "uint256"
					}
				],
				"name": "swap",
				"outputs": [
					{
						"internalType": "uint256",
						"name": "amountReceived",
						"type": "uint256"
					}
				],
				"payable": false,
				"stateMutability": "nonpayable",
				"type": "function"
			},
			{
				"constant": false,
				"inputs": [
					{
						"internalType": "address",
						"name": "newOwner",
						"type": "address"
					}
				],
				"name": "transferOwnership",
				"outputs": [],
				"payable": false,
				"stateMutability": "nonpayable",
				"type": "function"
			}
		],
		"devdoc": {
			"methods": {}
		},
		"evm": {
			"bytecode": {
				"linkReferences": {},
				"object": "0x6080604052600080546001600160a01b031916331790556125f9806100256000396000f3fe608060405234801561001057600080fd5b506004361061007d5760003560e01c8063978ca36f1161005b578063978ca36f146100bd5780639c8f9f2314610082578063df791e50146100c5578063f2fde38b146100e55761007d565b806351c6590a146100825780636d83c92c146100975780638da5cb5b1461009f575b600080fd5b6100956100903660046120d8565b6100f8565b005b6100956100fb565b6100a76101e0565b6040516100b491906120f0565b60405180910390f35b6100956101fc565b6100d86100d3366004612098565b610332565b6040516100b4919061258b565b6100956100f3366004612064565b610505565b50565b6101036105d7565b60015460ff1615610149576040517f08c379a00000000000000000000000000000000000000000000000000000000081526004016101409061224e565b60405180910390fd5b610153600161062a565b6005556063600681905561016890606461064c565b600755610178600561271061064c565b6008556101a061018c6001620f42406106ed565b61019461070c565b9063ffffffff61072016565b600c556101b16127156103e86106ed565b600d55600180547fffffffffffffffffffffffffffffffffffffffffffffffffffffffffffffff001681179055565b60005473ffffffffffffffffffffffffffffffffffffffff1681565b600180547fffffffffffffffffffffff0000000000000000000000000000000000000000ff16610100179055600280547fffffffffffffffffffffffff0000000000000000000000000000000000000000168117905561025d61c350610789565b60035561026c620186a0610789565b60045561027b6065606461064c565b6005556063600681905561029090606461064c565b6007556102a0600561271061064c565b6008556102b461018c6001620f42406106ed565b600c556102c56127156103e86106ed565b600d556001546002546103019173ffffffffffffffffffffffffffffffffffffffff6101009091048116911669021e19e0c9bab2400000610332565b506002546001546100f89173ffffffffffffffffffffffffffffffffffffffff908116916101009004166402540be4005b600061033c611fce565b6103446107df565b9050806020015173ffffffffffffffffffffffffffffffffffffffff168573ffffffffffffffffffffffffffffffffffffffff161480156103b45750806040015173ffffffffffffffffffffffffffffffffffffffff168473ffffffffffffffffffffffffffffffffffffffff16145b156103f05760006103d886866103d287670de0b6b3a764000061064c565b85610885565b90506103e8620f42408202610bc1565b9250506104be565b806040015173ffffffffffffffffffffffffffffffffffffffff168573ffffffffffffffffffffffffffffffffffffffff1614801561045e5750806020015173ffffffffffffffffffffffffffffffffffffffff168473ffffffffffffffffffffffffffffffffffffffff16145b1561048c57600061047786866103d287620f424061064c565b90506103e8670de0b6b3a76400008202610bc1565b6040517f08c379a000000000000000000000000000000000000000000000000000000000815260040161014090612285565b7f256db8090fa51c3bac981768637d5a7c46b5540644dcef89052b89dbb2f6c8ea33868686866040516104f5959493929190612138565b60405180910390a1509392505050565b61050d6105d7565b73ffffffffffffffffffffffffffffffffffffffff811661055a576040517f08c379a0000000000000000000000000000000000000000000000000000000008152600401610140906123e4565b600080547fffffffffffffffffffffffff00000000000000000000000000000000000000001673ffffffffffffffffffffffffffffffffffffffff83161790556040517f8be0079c531659141344cd1fd0a4f28419497f9722a3daafe3b4186f6b6457e0906105cc9033908490612111565b60405180910390a150565b60005473ffffffffffffffffffffffffffffffffffffffff163314610628576040517f08c379a000000000000000000000000000000000000000000000000000000000815260040161014090612217565b565b6000610646826f80000000000000000000000000000000610bda565b92915050565b600080831215610688576040517f08c379a0000000000000000000000000000000000000000000000000000000008152600401610140906124c0565b60008212156106c3576040517f08c379a0000000000000000000000000000000000000000000000000000000008152600401610140906122bc565b6106e66106e0846f80000000000000000000000000000000610bda565b83610c50565b9392505050565b60006106e66106e0846f80000000000000000000000000000000610bda565b6f8000000000000000000000000000000090565b60007f800000000000000000000000000000000000000000000000000000000000000082141561077c576040517f08c379a000000000000000000000000000000000000000000000000000000000815260040161014090612489565b6106e68383600003610d1f565b6000808212156107c5576040517f08c379a000000000000000000000000000000000000000000000000000000000815260040161014090612350565b610646826f80000000000000000000000000000000610bda565b6107e7611fce565b50604080516101a08101825260015460ff81161515825273ffffffffffffffffffffffffffffffffffffffff610100918290048116602084015260025416928201929092526003546060820152600454608082015260055460a082015260065460c082015260075460e082015260085491810191909152600954610120820152600b54610140820152600c54610160820152600d5461018082015290565b6020810151600090819081908190819073ffffffffffffffffffffffffffffffffffffffff8a811691161480156108eb5750856040015173ffffffffffffffffffffffffffffffffffffffff168873ffffffffffffffffffffffffffffffffffffffff16145b1561090a57505050506060820151608083015160a084015160016109aa565b856040015173ffffffffffffffffffffffffffffffffffffffff168973ffffffffffffffffffffffffffffffffffffffff161480156109785750856020015173ffffffffffffffffffffffffffffffffffffffff168873ffffffffffffffffffffffffffffffffffffffff16145b1561048c5785608001519350856060015192506109a78660a0015161099b61070c565b9063ffffffff610d9516565b91505b6000806109ba8686868c8c610dbe565b9150915060006109f06109d48a610100015161019461070c565b6109e48c8563ffffffff610ec316565b9063ffffffff610ec316565b9050610a0360008263ffffffff61072016565b90506000610a156001620186a06106ed565b90506000821315610a295760009150610a52565b80610a3a888463ffffffff610f1616565b13610a5257610a4f818863ffffffff61072016565b91505b6000610a728b6101200151610a65610f22565b8d6101600151888b610f28565b6101808c0151909150610a8b908863ffffffff610ec316565b811315610aaf576101808b0151610aa8908863ffffffff610ec316565b9050610ae3565b610ac4876109e48d610180015161099b61070c565b811215610ae357610ae0876109e48d610180015161099b61070c565b90505b610aeb610f22565b6101208c01528515610b2d57610b07898d63ffffffff610f1616565b60608c0152610b1c888463ffffffff610f1616565b60808c015260a08b01819052610b69565b610b3d888463ffffffff610f1616565b60608c0152610b52898d63ffffffff610f1616565b60808c0152610b638161099b61070c565b60a08c01525b610b728b611006565b7f666804e599b015edcfb9de12153bf8a48aa5a84b8861b8fa88c1cf4b11974c15338d85604051610ba593929190612179565b60405180910390a150506000039b9a5050505050505050505050565b6f8000000000000000000000000000000081055b919050565b6000821580610be7575081155b15610bf457506000610646565b5081810281838281610c0257fe5b05141580610c19575082828281610c1557fe5b0514155b15610646576040517f08c379a00000000000000000000000000000000000000000000000000000000081526004016101409061241b565b600081610c89576040517f08c379a00000000000000000000000000000000000000000000000000000000081526004016101409061251d565b7f800000000000000000000000000000000000000000000000000000000000000083148015610cd75750817fffffffffffffffffffffffffffffffffffffffffffffffffffffffffffffffff145b15610d0e576040517f08c379a000000000000000000000000000000000000000000000000000000000815260040161014090612554565b818381610d1757fe5b059392505050565b818101600083128015610d325750600082125b8015610d3d57508281135b80610d5e5750600083138015610d535750600082135b8015610d5e57508281125b15610646576040517f08c379a000000000000000000000000000000000000000000000000000000000815260040161014090612452565b6000610daf6106e0846a8000000000000000000000610bda565b65010000000000029392505050565b600080610dd18787878660e00151611108565b915060008281610de78a8863ffffffff610f1616565b905060005b6014811015610eb3576000610e018585611201565b90506000610e1d610e18838d63ffffffff610d9516565b611229565b90506000610e54610e348c8563ffffffff610ec316565b610e48856109e4898763ffffffff610ec316565b9063ffffffff610f1616565b90507f4add19bbbe358caf4af4a31b1299356fc4dccf8b4cf3c87e401b0fa60062f31e828483604051610e89939291906121a7565b60405180910390a18c811315610ea157829550610ea5565b8296505b505050806001019050610dec565b5091925050509550959350505050565b60006f800000000000000000000000000000008215610ef5575065010000000000909105906a80000000000000000000005b6000610f018585610bda565b9050818181610f0c57fe5b0595945050505050565b60006106e68383610d1f565b61023a90565b600080610f36878703610789565b90506000610f5b610f56610f49886112d6565b849063ffffffff610ec316565b6119c0565b90506000610f6b8261019461070c565b90506000610f7f878363ffffffff610ec316565b90506000610f93878563ffffffff610ec316565b90506000610fbf610faa858b63ffffffff610d9516565b610fba878b63ffffffff610d9516565b610f16565b90506000610fcf8261099b61070c565b90506000610ff4610fe0600261062a565b61099b84610e48898963ffffffff610f1616565b9e9d5050505050505050505050505050565b80516001805460208401517fffffffffffffffffffffffffffffffffffffffffffffffffffffffffffffff00909116921515929092177fffffffffffffffffffffff0000000000000000000000000000000000000000ff1661010073ffffffffffffffffffffffffffffffffffffffff9384168102919091179091556040830151600280547fffffffffffffffffffffffff00000000000000000000000000000000000000001691909316179091556060820151600355608082015160045560a082015160055560c082015160065560e0820151600755810151600855610120810151600955610140810151600b55610160810151600c556101800151600d55565b60008061111b848763ffffffff610ec316565b9050600061112f868363ffffffff610d9516565b90506000611143838863ffffffff610d9516565b905060006111538661019461070c565b9050600061115f61070c565b84121561117d57611176610f56836109e4876112d6565b905061119b565b611198611190610f56846109e4876112d6565b61099b61070c565b90505b6111ab818963ffffffff610ec316565b95507f3cf9bd989028bfc957ca46fd34c8ed26f90d849442378ee442fcd56cf5cac44f8a8a8a8a6111db8b610bc1565b6040516111ec9594939291906121bd565b60405180910390a15050505050949350505050565b60006106e661121961121161070c565b610e4861070c565b61099b858563ffffffff610f1616565b60008061123c838063ffffffff610ec316565b90506000611250848363ffffffff610ec316565b90506000611264828063ffffffff610ec316565b90506000611278828063ffffffff610ec316565b9050600061128c828063ffffffff610ec316565b905060006112a0828063ffffffff610ec316565b905060006112b4828063ffffffff610ec316565b905060006112c8828863ffffffff610ec316565b9a9950505050505050505050565b60006f80000000000000000000000000000000821315611322576040517f08c379a000000000000000000000000000000000000000000000000000000000815260040161014090612319565b6000821361135c576040517f08c379a0000000000000000000000000000000000000000000000000000000008152600401610140906121e0565b6f8000000000000000000000000000000082141561137c57506000610bd5565b640733048c5a82136113af57507fffffffffffffffffffffffffffffffe010000000000000000000000000000000610bd5565b60008060006a01c8464f76164760000000851361140e577ffffffffffffffffffffffffffffffff000000000000000000000000000000000909301926a01c8464f761647600000006f8000000000000000000000000000000086020594505b6cf1aaddd7742e90000000000000851361146c577ffffffffffffffffffffffffffffffff800000000000000000000000000000000909301926cf1aaddd7742e900000000000006f8000000000000000000000000000000086020594505b6e0afe10820813d7800000000000000085136114ce577ffffffffffffffffffffffffffffffffc00000000000000000000000000000000909301926e0afe10820813d780000000000000006f8000000000000000000000000000000086020594505b6f02582ab704279ec000000000000000008513611532577ffffffffffffffffffffffffffffffffe00000000000000000000000000000000909301926f02582ab704279ec000000000000000006f8000000000000000000000000000000086020594505b6f1152aaa3bf81cc0000000000000000008513611596577fffffffffffffffffffffffffffffffff00000000000000000000000000000000909301926f1152aaa3bf81cc0000000000000000006f8000000000000000000000000000000086020594505b6f2f16ac6c59de7000000000000000000085136115fa577fffffffffffffffffffffffffffffffff80000000000000000000000000000000909301926f2f16ac6c59de700000000000000000006f8000000000000000000000000000000086020594505b6f4da2cbf1be5828000000000000000000851361165e577fffffffffffffffffffffffffffffffffc0000000000000000000000000000000909301926f4da2cbf1be58280000000000000000006f8000000000000000000000000000000086020594505b6f63afbe7ab2082c00000000000000000085136116c2577fffffffffffffffffffffffffffffffffe0000000000000000000000000000000909301926f63afbe7ab2082c0000000000000000006f8000000000000000000000000000000086020594505b6f70f5a893b608861e1f58934f97aea57d8513611726577ffffffffffffffffffffffffffffffffff0000000000000000000000000000000909301926f70f5a893b608861e1f58934f97aea57d6f8000000000000000000000000000000086020594505b7fffffffffffffffffffffffffffffffff80000000000000000000000000000000850192508291506f80000000000000000000000000000000828002059050700100000000000000000000000000000000838103830205840193506f800000000000000000000000000000008183028161179c57fe5b059150700200000000000000000000000000000000836faaaaaaaaaaaaaaaaaaaaaaaaaaaaaaaa038302816117cd57fe5b05840193506f80000000000000000000000000000000818302816117ed57fe5b059150700300000000000000000000000000000000836f999999999999999999999999999999990383028161181e57fe5b05840193506f800000000000000000000000000000008183028161183e57fe5b059150700400000000000000000000000000000000836f924924924924924924924924924924920383028161186f57fe5b05840193506f800000000000000000000000000000008183028161188f57fe5b059150700500000000000000000000000000000000836f8e38e38e38e38e38e38e38e38e38e38e038302816118c057fe5b05840193506f80000000000000000000000000000000818302816118e057fe5b059150700600000000000000000000000000000000836f8ba2e8ba2e8ba2e8ba2e8ba2e8ba2e8b0383028161191157fe5b05840193506f800000000000000000000000000000008183028161193157fe5b059150700700000000000000000000000000000000836f89d89d89d89d89d89d89d89d89d89d890383028161196257fe5b05840193506f800000000000000000000000000000008183028161198257fe5b059150700800000000000000000000000000000000836f88888888888888888888888888888888038302816119b357fe5b0584019350505050919050565b60007fffffffffffffffffffffffffffffffe0100000000000000000000000000000008212156119f257506000610bd5565b81611a0e57506f80000000000000000000000000000000610bd5565b6000821315611a49576040517f08c379a0000000000000000000000000000000000000000000000000000000008152600401610140906123ad565b6f800000000000000000000000000000006f1000000000000000000000000000000083078080028290056710e1b3be415a0000810293909301929091818302059050806705a0913f6b1e000002830192506f8000000000000000000000000000000082820281611ab557fe5b05905080670168244fdac7800002830192506f8000000000000000000000000000000082820281611ae257fe5b05905080664807432bc1800002830192506f8000000000000000000000000000000082820281611b0e57fe5b05905080660c0135dca0400002830192506f8000000000000000000000000000000082820281611b3a57fe5b059050806601b707b1cdc00002830192506f8000000000000000000000000000000082820281611b6657fe5b059050806536e0f639b80002830192506f8000000000000000000000000000000082820281611b9157fe5b05905080650618fee9f80002830192506f8000000000000000000000000000000082820281611bbc57fe5b05905080649c197dcc0002830192506f8000000000000000000000000000000082820281611be657fe5b05905080640e30dce40002830192506f8000000000000000000000000000000082820281611c1057fe5b0590508064012ebd130002830192506f8000000000000000000000000000000082820281611c3a57fe5b059050806317499f0002830192506f8000000000000000000000000000000082820281611c6357fe5b059050806301a9d48002830192506f8000000000000000000000000000000082820281611c8c57fe5b05905080621c638002830192506f8000000000000000000000000000000082820281611cb457fe5b059050806201c63802830192506f8000000000000000000000000000000082820281611cdc57fe5b05905080611ab802830192506f8000000000000000000000000000000082820281611d0357fe5b0590508061017c02830192506f8000000000000000000000000000000082820281611d2a57fe5b05905080601402830192506f8000000000000000000000000000000082820281611d5057fe5b600095909503946721c3677c82b400009190059384010582016f8000000000000000000000000000000001929050701000000000000000000000000000000000841615611dbf577243cbaf42a000812488fc5c220ad7b97bf6e99e6cf1aaddd7742e56d32fb9f9974484020592505b700800000000000000000000000000000000841615611e01577105d27a9f51c31b7c2f8038212a05747799916e0afe10820813d65dfe6a33c07f738f84020592505b700400000000000000000000000000000000841615611e4357701b4c902e273a58678d6d3bfdb93db96d026f02582ab704279e8efd15e0265855c47a84020592505b700200000000000000000000000000000000841615611e85577003b1cc971a9bb5b9867477440d6d1577506f1152aaa3bf81cb9fdb76eae12d02957184020592505b700100000000000000000000000000000000841615611ec75770015bf0a8b1457695355fb8ac404e7a79e36f2f16ac6c59de6f8d5d6f63c1482a7c8684020592505b6f80000000000000000000000000000000841615611f07576fd3094c70f034de4b96ff7d5b6f99fcd86f4da2cbf1be5827f9eb3ad1aa9866ebb384020592505b6f40000000000000000000000000000000841615611f47576fa45af1e1f40c333b3de1db4dd55f29a76f63afbe7ab2082ba1a0ae5e4eb1b479dc84020592505b6f20000000000000000000000000000000841615611f87576f910b022db7ae67ce76b441c27035c6a16f70f5a893b608861e1f58934f97aea57d84020592505b6f10000000000000000000000000000000841615611fc7576f88415abbe9a76bead8d00cf112e4d4a86f783eafef1c0a8f3978c7f81824d62ebf84020592505b5050919050565b604051806101a00160405280600015158152602001600073ffffffffffffffffffffffffffffffffffffffff168152602001600073ffffffffffffffffffffffffffffffffffffffff168152602001600081526020016000815260200160008152602001600081526020016000815260200160008152602001600081526020016000815260200160008152602001600081525090565b600060208284031215612075578081fd5b813573ffffffffffffffffffffffffffffffffffffffff811681146106e6578182fd5b6000806000606084860312156120ac578182fd5b83356120b781612594565b925060208401356120c781612594565b929592945050506040919091013590565b6000602082840312156120e9578081fd5b5035919050565b73ffffffffffffffffffffffffffffffffffffffff91909116815260200190565b73ffffffffffffffffffffffffffffffffffffffff92831681529116602082015260400190565b73ffffffffffffffffffffffffffffffffffffffff958616815293851660208501529190931660408301526060820192909252608081019190915260a00190565b73ffffffffffffffffffffffffffffffffffffffff9390931683526020830191909152604082015260600190565b9283526020830191909152604082015260600190565b948552602085019390935260408401919091526060830152608082015260a00190565b60208082526013908201527f6c6e3a2076616c756520746f6f20736d616c6c00000000000000000000000000604082015260600190565b6020808252600e908201527f4f6e6c794f776e65724572726f72000000000000000000000000000000000000604082015260600190565b60208082526013908201527f416c726561647920496e697469616c697a656400000000000000000000000000604082015260600190565b60208082526017908201527f496e76616c696420746f6b656e20616464726573736573000000000000000000604082015260600190565b60208082526038908201527f746f46697865642875696e742c75696e74293a2064656e6f6d696e61746f722060408201527f63616e6e6f74206265206c657373207468616e207a65726f0000000000000000606082015260800190565b60208082526013908201527f6c6e3a2076616c756520746f6f206c6172676500000000000000000000000000604082015260600190565b60208082526027908201527f746f46697865643a2076616c75652063616e6e6f74206265206c65737320746860408201527f616e207a65726f00000000000000000000000000000000000000000000000000606082015260800190565b60208082526014908201527f6578703a2076616c756520746f6f20736d616c6c000000000000000000000000604082015260600190565b60208082526018908201527f5472616e736665724f776e6572546f5a65726f4572726f720000000000000000604082015260600190565b6020808252600e908201527f5f6d756c3a206f766572666c6f77000000000000000000000000000000000000604082015260600190565b6020808252600e908201527f5f6164643a206f766572666c6f77000000000000000000000000000000000000604082015260600190565b60208082526014908201527f7375623a2076616c756520746f6f20736d616c6c000000000000000000000000604082015260600190565b60208082526036908201527f746f46697865642875696e742c75696e74293a206e756d657261746f7220636160408201527f6e6e6f74206265206c657373207468616e207a65726f00000000000000000000606082015260800190565b60208082526014908201527f5f6469763a20646976696465206279207a65726f000000000000000000000000604082015260600190565b6020808252600e908201527f5f6469763a206f766572666c6f77000000000000000000000000000000000000604082015260600190565b90815260200190565b73ffffffffffffffffffffffffffffffffffffffff811681146100f857600080fdfea365627a7a72315820667f95a7d76c1689e85c2d93d34bc90733e63224a48a090b5dbf31d9a2a94bd16c6578706572696d656e74616cf564736f6c634300050d0040",
				"opcodes": "PUSH1 0x80 PUSH1 0x40 MSTORE PUSH1 0x0 DUP1 SLOAD PUSH1 0x1 PUSH1 0x1 PUSH1 0xA0 SHL SUB NOT AND CALLER OR SWAP1 SSTORE PUSH2 0x25F9 DUP1 PUSH2 0x25 PUSH1 0x0 CODECOPY PUSH1 0x0 RETURN INVALID PUSH1 0x80 PUSH1 0x40 MSTORE CALLVALUE DUP1 ISZERO PUSH2 0x10 JUMPI PUSH1 0x0 DUP1 REVERT JUMPDEST POP PUSH1 0x4 CALLDATASIZE LT PUSH2 0x7D JUMPI PUSH1 0x0 CALLDATALOAD PUSH1 0xE0 SHR DUP1 PUSH4 0x978CA36F GT PUSH2 0x5B JUMPI DUP1 PUSH4 0x978CA36F EQ PUSH2 0xBD JUMPI DUP1 PUSH4 0x9C8F9F23 EQ PUSH2 0x82 JUMPI DUP1 PUSH4 0xDF791E50 EQ PUSH2 0xC5 JUMPI DUP1 PUSH4 0xF2FDE38B EQ PUSH2 0xE5 JUMPI PUSH2 0x7D JUMP JUMPDEST DUP1 PUSH4 0x51C6590A EQ PUSH2 0x82 JUMPI DUP1 PUSH4 0x6D83C92C EQ PUSH2 0x97 JUMPI DUP1 PUSH4 0x8DA5CB5B EQ PUSH2 0x9F JUMPI JUMPDEST PUSH1 0x0 DUP1 REVERT JUMPDEST PUSH2 0x95 PUSH2 0x90 CALLDATASIZE PUSH1 0x4 PUSH2 0x20D8 JUMP JUMPDEST PUSH2 0xF8 JUMP JUMPDEST STOP JUMPDEST PUSH2 0x95 PUSH2 0xFB JUMP JUMPDEST PUSH2 0xA7 PUSH2 0x1E0 JUMP JUMPDEST PUSH1 0x40 MLOAD PUSH2 0xB4 SWAP2 SWAP1 PUSH2 0x20F0 JUMP JUMPDEST PUSH1 0x40 MLOAD DUP1 SWAP2 SUB SWAP1 RETURN JUMPDEST PUSH2 0x95 PUSH2 0x1FC JUMP JUMPDEST PUSH2 0xD8 PUSH2 0xD3 CALLDATASIZE PUSH1 0x4 PUSH2 0x2098 JUMP JUMPDEST PUSH2 0x332 JUMP JUMPDEST PUSH1 0x40 MLOAD PUSH2 0xB4 SWAP2 SWAP1 PUSH2 0x258B JUMP JUMPDEST PUSH2 0x95 PUSH2 0xF3 CALLDATASIZE PUSH1 0x4 PUSH2 0x2064 JUMP JUMPDEST PUSH2 0x505 JUMP JUMPDEST POP JUMP JUMPDEST PUSH2 0x103 PUSH2 0x5D7 JUMP JUMPDEST PUSH1 0x1 SLOAD PUSH1 0xFF AND ISZERO PUSH2 0x149 JUMPI PUSH1 0x40 MLOAD PUSH32 0x8C379A000000000000000000000000000000000000000000000000000000000 DUP2 MSTORE PUSH1 0x4 ADD PUSH2 0x140 SWAP1 PUSH2 0x224E JUMP JUMPDEST PUSH1 0x40 MLOAD DUP1 SWAP2 SUB SWAP1 REVERT JUMPDEST PUSH2 0x153 PUSH1 0x1 PUSH2 0x62A JUMP JUMPDEST PUSH1 0x5 SSTORE PUSH1 0x63 PUSH1 0x6 DUP2 SWAP1 SSTORE PUSH2 0x168 SWAP1 PUSH1 0x64 PUSH2 0x64C JUMP JUMPDEST PUSH1 0x7 SSTORE PUSH2 0x178 PUSH1 0x5 PUSH2 0x2710 PUSH2 0x64C JUMP JUMPDEST PUSH1 0x8 SSTORE PUSH2 0x1A0 PUSH2 0x18C PUSH1 0x1 PUSH3 0xF4240 PUSH2 0x6ED JUMP JUMPDEST PUSH2 0x194 PUSH2 0x70C JUMP JUMPDEST SWAP1 PUSH4 0xFFFFFFFF PUSH2 0x720 AND JUMP JUMPDEST PUSH1 0xC SSTORE PUSH2 0x1B1 PUSH2 0x2715 PUSH2 0x3E8 PUSH2 0x6ED JUMP JUMPDEST PUSH1 0xD SSTORE PUSH1 0x1 DUP1 SLOAD PUSH32 0xFFFFFFFFFFFFFFFFFFFFFFFFFFFFFFFFFFFFFFFFFFFFFFFFFFFFFFFFFFFFFF00 AND DUP2 OR SWAP1 SSTORE JUMP JUMPDEST PUSH1 0x0 SLOAD PUSH20 0xFFFFFFFFFFFFFFFFFFFFFFFFFFFFFFFFFFFFFFFF AND DUP2 JUMP JUMPDEST PUSH1 0x1 DUP1 SLOAD PUSH32 0xFFFFFFFFFFFFFFFFFFFFFF0000000000000000000000000000000000000000FF AND PUSH2 0x100 OR SWAP1 SSTORE PUSH1 0x2 DUP1 SLOAD PUSH32 0xFFFFFFFFFFFFFFFFFFFFFFFF0000000000000000000000000000000000000000 AND DUP2 OR SWAP1 SSTORE PUSH2 0x25D PUSH2 0xC350 PUSH2 0x789 JUMP JUMPDEST PUSH1 0x3 SSTORE PUSH2 0x26C PUSH3 0x186A0 PUSH2 0x789 JUMP JUMPDEST PUSH1 0x4 SSTORE PUSH2 0x27B PUSH1 0x65 PUSH1 0x64 PUSH2 0x64C JUMP JUMPDEST PUSH1 0x5 SSTORE PUSH1 0x63 PUSH1 0x6 DUP2 SWAP1 SSTORE PUSH2 0x290 SWAP1 PUSH1 0x64 PUSH2 0x64C JUMP JUMPDEST PUSH1 0x7 SSTORE PUSH2 0x2A0 PUSH1 0x5 PUSH2 0x2710 PUSH2 0x64C JUMP JUMPDEST PUSH1 0x8 SSTORE PUSH2 0x2B4 PUSH2 0x18C PUSH1 0x1 PUSH3 0xF4240 PUSH2 0x6ED JUMP JUMPDEST PUSH1 0xC SSTORE PUSH2 0x2C5 PUSH2 0x2715 PUSH2 0x3E8 PUSH2 0x6ED JUMP JUMPDEST PUSH1 0xD SSTORE PUSH1 0x1 SLOAD PUSH1 0x2 SLOAD PUSH2 0x301 SWAP2 PUSH20 0xFFFFFFFFFFFFFFFFFFFFFFFFFFFFFFFFFFFFFFFF PUSH2 0x100 SWAP1 SWAP2 DIV DUP2 AND SWAP2 AND PUSH10 0x21E19E0C9BAB2400000 PUSH2 0x332 JUMP JUMPDEST POP PUSH1 0x2 SLOAD PUSH1 0x1 SLOAD PUSH2 0xF8 SWAP2 PUSH20 0xFFFFFFFFFFFFFFFFFFFFFFFFFFFFFFFFFFFFFFFF SWAP1 DUP2 AND SWAP2 PUSH2 0x100 SWAP1 DIV AND PUSH5 0x2540BE400 JUMPDEST PUSH1 0x0 PUSH2 0x33C PUSH2 0x1FCE JUMP JUMPDEST PUSH2 0x344 PUSH2 0x7DF JUMP JUMPDEST SWAP1 POP DUP1 PUSH1 0x20 ADD MLOAD PUSH20 0xFFFFFFFFFFFFFFFFFFFFFFFFFFFFFFFFFFFFFFFF AND DUP6 PUSH20 0xFFFFFFFFFFFFFFFFFFFFFFFFFFFFFFFFFFFFFFFF AND EQ DUP1 ISZERO PUSH2 0x3B4 JUMPI POP DUP1 PUSH1 0x40 ADD MLOAD PUSH20 0xFFFFFFFFFFFFFFFFFFFFFFFFFFFFFFFFFFFFFFFF AND DUP5 PUSH20 0xFFFFFFFFFFFFFFFFFFFFFFFFFFFFFFFFFFFFFFFF AND EQ JUMPDEST ISZERO PUSH2 0x3F0 JUMPI PUSH1 0x0 PUSH2 0x3D8 DUP7 DUP7 PUSH2 0x3D2 DUP8 PUSH8 0xDE0B6B3A7640000 PUSH2 0x64C JUMP JUMPDEST DUP6 PUSH2 0x885 JUMP JUMPDEST SWAP1 POP PUSH2 0x3E8 PUSH3 0xF4240 DUP3 MUL PUSH2 0xBC1 JUMP JUMPDEST SWAP3 POP POP PUSH2 0x4BE JUMP JUMPDEST DUP1 PUSH1 0x40 ADD MLOAD PUSH20 0xFFFFFFFFFFFFFFFFFFFFFFFFFFFFFFFFFFFFFFFF AND DUP6 PUSH20 0xFFFFFFFFFFFFFFFFFFFFFFFFFFFFFFFFFFFFFFFF AND EQ DUP1 ISZERO PUSH2 0x45E JUMPI POP DUP1 PUSH1 0x20 ADD MLOAD PUSH20 0xFFFFFFFFFFFFFFFFFFFFFFFFFFFFFFFFFFFFFFFF AND DUP5 PUSH20 0xFFFFFFFFFFFFFFFFFFFFFFFFFFFFFFFFFFFFFFFF AND EQ JUMPDEST ISZERO PUSH2 0x48C JUMPI PUSH1 0x0 PUSH2 0x477 DUP7 DUP7 PUSH2 0x3D2 DUP8 PUSH3 0xF4240 PUSH2 0x64C JUMP JUMPDEST SWAP1 POP PUSH2 0x3E8 PUSH8 0xDE0B6B3A7640000 DUP3 MUL PUSH2 0xBC1 JUMP JUMPDEST PUSH1 0x40 MLOAD PUSH32 0x8C379A000000000000000000000000000000000000000000000000000000000 DUP2 MSTORE PUSH1 0x4 ADD PUSH2 0x140 SWAP1 PUSH2 0x2285 JUMP JUMPDEST PUSH32 0x256DB8090FA51C3BAC981768637D5A7C46B5540644DCEF89052B89DBB2F6C8EA CALLER DUP7 DUP7 DUP7 DUP7 PUSH1 0x40 MLOAD PUSH2 0x4F5 SWAP6 SWAP5 SWAP4 SWAP3 SWAP2 SWAP1 PUSH2 0x2138 JUMP JUMPDEST PUSH1 0x40 MLOAD DUP1 SWAP2 SUB SWAP1 LOG1 POP SWAP4 SWAP3 POP POP POP JUMP JUMPDEST PUSH2 0x50D PUSH2 0x5D7 JUMP JUMPDEST PUSH20 0xFFFFFFFFFFFFFFFFFFFFFFFFFFFFFFFFFFFFFFFF DUP2 AND PUSH2 0x55A JUMPI PUSH1 0x40 MLOAD PUSH32 0x8C379A000000000000000000000000000000000000000000000000000000000 DUP2 MSTORE PUSH1 0x4 ADD PUSH2 0x140 SWAP1 PUSH2 0x23E4 JUMP JUMPDEST PUSH1 0x0 DUP1 SLOAD PUSH32 0xFFFFFFFFFFFFFFFFFFFFFFFF0000000000000000000000000000000000000000 AND PUSH20 0xFFFFFFFFFFFFFFFFFFFFFFFFFFFFFFFFFFFFFFFF DUP4 AND OR SWAP1 SSTORE PUSH1 0x40 MLOAD PUSH32 0x8BE0079C531659141344CD1FD0A4F28419497F9722A3DAAFE3B4186F6B6457E0 SWAP1 PUSH2 0x5CC SWAP1 CALLER SWAP1 DUP5 SWAP1 PUSH2 0x2111 JUMP JUMPDEST PUSH1 0x40 MLOAD DUP1 SWAP2 SUB SWAP1 LOG1 POP JUMP JUMPDEST PUSH1 0x0 SLOAD PUSH20 0xFFFFFFFFFFFFFFFFFFFFFFFFFFFFFFFFFFFFFFFF AND CALLER EQ PUSH2 0x628 JUMPI PUSH1 0x40 MLOAD PUSH32 0x8C379A000000000000000000000000000000000000000000000000000000000 DUP2 MSTORE PUSH1 0x4 ADD PUSH2 0x140 SWAP1 PUSH2 0x2217 JUMP JUMPDEST JUMP JUMPDEST PUSH1 0x0 PUSH2 0x646 DUP3 PUSH16 0x80000000000000000000000000000000 PUSH2 0xBDA JUMP JUMPDEST SWAP3 SWAP2 POP POP JUMP JUMPDEST PUSH1 0x0 DUP1 DUP4 SLT ISZERO PUSH2 0x688 JUMPI PUSH1 0x40 MLOAD PUSH32 0x8C379A000000000000000000000000000000000000000000000000000000000 DUP2 MSTORE PUSH1 0x4 ADD PUSH2 0x140 SWAP1 PUSH2 0x24C0 JUMP JUMPDEST PUSH1 0x0 DUP3 SLT ISZERO PUSH2 0x6C3 JUMPI PUSH1 0x40 MLOAD PUSH32 0x8C379A000000000000000000000000000000000000000000000000000000000 DUP2 MSTORE PUSH1 0x4 ADD PUSH2 0x140 SWAP1 PUSH2 0x22BC JUMP JUMPDEST PUSH2 0x6E6 PUSH2 0x6E0 DUP5 PUSH16 0x80000000000000000000000000000000 PUSH2 0xBDA JUMP JUMPDEST DUP4 PUSH2 0xC50 JUMP JUMPDEST SWAP4 SWAP3 POP POP POP JUMP JUMPDEST PUSH1 0x0 PUSH2 0x6E6 PUSH2 0x6E0 DUP5 PUSH16 0x80000000000000000000000000000000 PUSH2 0xBDA JUMP JUMPDEST PUSH16 0x80000000000000000000000000000000 SWAP1 JUMP JUMPDEST PUSH1 0x0 PUSH32 0x8000000000000000000000000000000000000000000000000000000000000000 DUP3 EQ ISZERO PUSH2 0x77C JUMPI PUSH1 0x40 MLOAD PUSH32 0x8C379A000000000000000000000000000000000000000000000000000000000 DUP2 MSTORE PUSH1 0x4 ADD PUSH2 0x140 SWAP1 PUSH2 0x2489 JUMP JUMPDEST PUSH2 0x6E6 DUP4 DUP4 PUSH1 0x0 SUB PUSH2 0xD1F JUMP JUMPDEST PUSH1 0x0 DUP1 DUP3 SLT ISZERO PUSH2 0x7C5 JUMPI PUSH1 0x40 MLOAD PUSH32 0x8C379A000000000000000000000000000000000000000000000000000000000 DUP2 MSTORE PUSH1 0x4 ADD PUSH2 0x140 SWAP1 PUSH2 0x2350 JUMP JUMPDEST PUSH2 0x646 DUP3 PUSH16 0x80000000000000000000000000000000 PUSH2 0xBDA JUMP JUMPDEST PUSH2 0x7E7 PUSH2 0x1FCE JUMP JUMPDEST POP PUSH1 0x40 DUP1 MLOAD PUSH2 0x1A0 DUP2 ADD DUP3 MSTORE PUSH1 0x1 SLOAD PUSH1 0xFF DUP2 AND ISZERO ISZERO DUP3 MSTORE PUSH20 0xFFFFFFFFFFFFFFFFFFFFFFFFFFFFFFFFFFFFFFFF PUSH2 0x100 SWAP2 DUP3 SWAP1 DIV DUP2 AND PUSH1 0x20 DUP5 ADD MSTORE PUSH1 0x2 SLOAD AND SWAP3 DUP3 ADD SWAP3 SWAP1 SWAP3 MSTORE PUSH1 0x3 SLOAD PUSH1 0x60 DUP3 ADD MSTORE PUSH1 0x4 SLOAD PUSH1 0x80 DUP3 ADD MSTORE PUSH1 0x5 SLOAD PUSH1 0xA0 DUP3 ADD MSTORE PUSH1 0x6 SLOAD PUSH1 0xC0 DUP3 ADD MSTORE PUSH1 0x7 SLOAD PUSH1 0xE0 DUP3 ADD MSTORE PUSH1 0x8 SLOAD SWAP2 DUP2 ADD SWAP2 SWAP1 SWAP2 MSTORE PUSH1 0x9 SLOAD PUSH2 0x120 DUP3 ADD MSTORE PUSH1 0xB SLOAD PUSH2 0x140 DUP3 ADD MSTORE PUSH1 0xC SLOAD PUSH2 0x160 DUP3 ADD MSTORE PUSH1 0xD SLOAD PUSH2 0x180 DUP3 ADD MSTORE SWAP1 JUMP JUMPDEST PUSH1 0x20 DUP2 ADD MLOAD PUSH1 0x0 SWAP1 DUP2 SWAP1 DUP2 SWAP1 DUP2 SWAP1 DUP2 SWAP1 PUSH20 0xFFFFFFFFFFFFFFFFFFFFFFFFFFFFFFFFFFFFFFFF DUP11 DUP2 AND SWAP2 AND EQ DUP1 ISZERO PUSH2 0x8EB JUMPI POP DUP6 PUSH1 0x40 ADD MLOAD PUSH20 0xFFFFFFFFFFFFFFFFFFFFFFFFFFFFFFFFFFFFFFFF AND DUP9 PUSH20 0xFFFFFFFFFFFFFFFFFFFFFFFFFFFFFFFFFFFFFFFF AND EQ JUMPDEST ISZERO PUSH2 0x90A JUMPI POP POP POP POP PUSH1 0x60 DUP3 ADD MLOAD PUSH1 0x80 DUP4 ADD MLOAD PUSH1 0xA0 DUP5 ADD MLOAD PUSH1 0x1 PUSH2 0x9AA JUMP JUMPDEST DUP6 PUSH1 0x40 ADD MLOAD PUSH20 0xFFFFFFFFFFFFFFFFFFFFFFFFFFFFFFFFFFFFFFFF AND DUP10 PUSH20 0xFFFFFFFFFFFFFFFFFFFFFFFFFFFFFFFFFFFFFFFF AND EQ DUP1 ISZERO PUSH2 0x978 JUMPI POP DUP6 PUSH1 0x20 ADD MLOAD PUSH20 0xFFFFFFFFFFFFFFFFFFFFFFFFFFFFFFFFFFFFFFFF AND DUP9 PUSH20 0xFFFFFFFFFFFFFFFFFFFFFFFFFFFFFFFFFFFFFFFF AND EQ JUMPDEST ISZERO PUSH2 0x48C JUMPI DUP6 PUSH1 0x80 ADD MLOAD SWAP4 POP DUP6 PUSH1 0x60 ADD MLOAD SWAP3 POP PUSH2 0x9A7 DUP7 PUSH1 0xA0 ADD MLOAD PUSH2 0x99B PUSH2 0x70C JUMP JUMPDEST SWAP1 PUSH4 0xFFFFFFFF PUSH2 0xD95 AND JUMP JUMPDEST SWAP2 POP JUMPDEST PUSH1 0x0 DUP1 PUSH2 0x9BA DUP7 DUP7 DUP7 DUP13 DUP13 PUSH2 0xDBE JUMP JUMPDEST SWAP2 POP SWAP2 POP PUSH1 0x0 PUSH2 0x9F0 PUSH2 0x9D4 DUP11 PUSH2 0x100 ADD MLOAD PUSH2 0x194 PUSH2 0x70C JUMP JUMPDEST PUSH2 0x9E4 DUP13 DUP6 PUSH4 0xFFFFFFFF PUSH2 0xEC3 AND JUMP JUMPDEST SWAP1 PUSH4 0xFFFFFFFF PUSH2 0xEC3 AND JUMP JUMPDEST SWAP1 POP PUSH2 0xA03 PUSH1 0x0 DUP3 PUSH4 0xFFFFFFFF PUSH2 0x720 AND JUMP JUMPDEST SWAP1 POP PUSH1 0x0 PUSH2 0xA15 PUSH1 0x1 PUSH3 0x186A0 PUSH2 0x6ED JUMP JUMPDEST SWAP1 POP PUSH1 0x0 DUP3 SGT ISZERO PUSH2 0xA29 JUMPI PUSH1 0x0 SWAP2 POP PUSH2 0xA52 JUMP JUMPDEST DUP1 PUSH2 0xA3A DUP9 DUP5 PUSH4 0xFFFFFFFF PUSH2 0xF16 AND JUMP JUMPDEST SGT PUSH2 0xA52 JUMPI PUSH2 0xA4F DUP2 DUP9 PUSH4 0xFFFFFFFF PUSH2 0x720 AND JUMP JUMPDEST SWAP2 POP JUMPDEST PUSH1 0x0 PUSH2 0xA72 DUP12 PUSH2 0x120 ADD MLOAD PUSH2 0xA65 PUSH2 0xF22 JUMP JUMPDEST DUP14 PUSH2 0x160 ADD MLOAD DUP9 DUP12 PUSH2 0xF28 JUMP JUMPDEST PUSH2 0x180 DUP13 ADD MLOAD SWAP1 SWAP2 POP PUSH2 0xA8B SWAP1 DUP9 PUSH4 0xFFFFFFFF PUSH2 0xEC3 AND JUMP JUMPDEST DUP2 SGT ISZERO PUSH2 0xAAF JUMPI PUSH2 0x180 DUP12 ADD MLOAD PUSH2 0xAA8 SWAP1 DUP9 PUSH4 0xFFFFFFFF PUSH2 0xEC3 AND JUMP JUMPDEST SWAP1 POP PUSH2 0xAE3 JUMP JUMPDEST PUSH2 0xAC4 DUP8 PUSH2 0x9E4 DUP14 PUSH2 0x180 ADD MLOAD PUSH2 0x99B PUSH2 0x70C JUMP JUMPDEST DUP2 SLT ISZERO PUSH2 0xAE3 JUMPI PUSH2 0xAE0 DUP8 PUSH2 0x9E4 DUP14 PUSH2 0x180 ADD MLOAD PUSH2 0x99B PUSH2 0x70C JUMP JUMPDEST SWAP1 POP JUMPDEST PUSH2 0xAEB PUSH2 0xF22 JUMP JUMPDEST PUSH2 0x120 DUP13 ADD MSTORE DUP6 ISZERO PUSH2 0xB2D JUMPI PUSH2 0xB07 DUP10 DUP14 PUSH4 0xFFFFFFFF PUSH2 0xF16 AND JUMP JUMPDEST PUSH1 0x60 DUP13 ADD MSTORE PUSH2 0xB1C DUP9 DUP5 PUSH4 0xFFFFFFFF PUSH2 0xF16 AND JUMP JUMPDEST PUSH1 0x80 DUP13 ADD MSTORE PUSH1 0xA0 DUP12 ADD DUP2 SWAP1 MSTORE PUSH2 0xB69 JUMP JUMPDEST PUSH2 0xB3D DUP9 DUP5 PUSH4 0xFFFFFFFF PUSH2 0xF16 AND JUMP JUMPDEST PUSH1 0x60 DUP13 ADD MSTORE PUSH2 0xB52 DUP10 DUP14 PUSH4 0xFFFFFFFF PUSH2 0xF16 AND JUMP JUMPDEST PUSH1 0x80 DUP13 ADD MSTORE PUSH2 0xB63 DUP2 PUSH2 0x99B PUSH2 0x70C JUMP JUMPDEST PUSH1 0xA0 DUP13 ADD MSTORE JUMPDEST PUSH2 0xB72 DUP12 PUSH2 0x1006 JUMP JUMPDEST PUSH32 0x666804E599B015EDCFB9DE12153BF8A48AA5A84B8861B8FA88C1CF4B11974C15 CALLER DUP14 DUP6 PUSH1 0x40 MLOAD PUSH2 0xBA5 SWAP4 SWAP3 SWAP2 SWAP1 PUSH2 0x2179 JUMP JUMPDEST PUSH1 0x40 MLOAD DUP1 SWAP2 SUB SWAP1 LOG1 POP POP PUSH1 0x0 SUB SWAP12 SWAP11 POP POP POP POP POP POP POP POP POP POP POP JUMP JUMPDEST PUSH16 0x80000000000000000000000000000000 DUP2 SDIV JUMPDEST SWAP2 SWAP1 POP JUMP JUMPDEST PUSH1 0x0 DUP3 ISZERO DUP1 PUSH2 0xBE7 JUMPI POP DUP2 ISZERO JUMPDEST ISZERO PUSH2 0xBF4 JUMPI POP PUSH1 0x0 PUSH2 0x646 JUMP JUMPDEST POP DUP2 DUP2 MUL DUP2 DUP4 DUP3 DUP2 PUSH2 0xC02 JUMPI INVALID JUMPDEST SDIV EQ ISZERO DUP1 PUSH2 0xC19 JUMPI POP DUP3 DUP3 DUP3 DUP2 PUSH2 0xC15 JUMPI INVALID JUMPDEST SDIV EQ ISZERO JUMPDEST ISZERO PUSH2 0x646 JUMPI PUSH1 0x40 MLOAD PUSH32 0x8C379A000000000000000000000000000000000000000000000000000000000 DUP2 MSTORE PUSH1 0x4 ADD PUSH2 0x140 SWAP1 PUSH2 0x241B JUMP JUMPDEST PUSH1 0x0 DUP2 PUSH2 0xC89 JUMPI PUSH1 0x40 MLOAD PUSH32 0x8C379A000000000000000000000000000000000000000000000000000000000 DUP2 MSTORE PUSH1 0x4 ADD PUSH2 0x140 SWAP1 PUSH2 0x251D JUMP JUMPDEST PUSH32 0x8000000000000000000000000000000000000000000000000000000000000000 DUP4 EQ DUP1 ISZERO PUSH2 0xCD7 JUMPI POP DUP2 PUSH32 0xFFFFFFFFFFFFFFFFFFFFFFFFFFFFFFFFFFFFFFFFFFFFFFFFFFFFFFFFFFFFFFFF EQ JUMPDEST ISZERO PUSH2 0xD0E JUMPI PUSH1 0x40 MLOAD PUSH32 0x8C379A000000000000000000000000000000000000000000000000000000000 DUP2 MSTORE PUSH1 0x4 ADD PUSH2 0x140 SWAP1 PUSH2 0x2554 JUMP JUMPDEST DUP2 DUP4 DUP2 PUSH2 0xD17 JUMPI INVALID JUMPDEST SDIV SWAP4 SWAP3 POP POP POP JUMP JUMPDEST DUP2 DUP2 ADD PUSH1 0x0 DUP4 SLT DUP1 ISZERO PUSH2 0xD32 JUMPI POP PUSH1 0x0 DUP3 SLT JUMPDEST DUP1 ISZERO PUSH2 0xD3D JUMPI POP DUP3 DUP2 SGT JUMPDEST DUP1 PUSH2 0xD5E JUMPI POP PUSH1 0x0 DUP4 SGT DUP1 ISZERO PUSH2 0xD53 JUMPI POP PUSH1 0x0 DUP3 SGT JUMPDEST DUP1 ISZERO PUSH2 0xD5E JUMPI POP DUP3 DUP2 SLT JUMPDEST ISZERO PUSH2 0x646 JUMPI PUSH1 0x40 MLOAD PUSH32 0x8C379A000000000000000000000000000000000000000000000000000000000 DUP2 MSTORE PUSH1 0x4 ADD PUSH2 0x140 SWAP1 PUSH2 0x2452 JUMP JUMPDEST PUSH1 0x0 PUSH2 0xDAF PUSH2 0x6E0 DUP5 PUSH11 0x8000000000000000000000 PUSH2 0xBDA JUMP JUMPDEST PUSH6 0x10000000000 MUL SWAP4 SWAP3 POP POP POP JUMP JUMPDEST PUSH1 0x0 DUP1 PUSH2 0xDD1 DUP8 DUP8 DUP8 DUP7 PUSH1 0xE0 ADD MLOAD PUSH2 0x1108 JUMP JUMPDEST SWAP2 POP PUSH1 0x0 DUP3 DUP2 PUSH2 0xDE7 DUP11 DUP9 PUSH4 0xFFFFFFFF PUSH2 0xF16 AND JUMP JUMPDEST SWAP1 POP PUSH1 0x0 JUMPDEST PUSH1 0x14 DUP2 LT ISZERO PUSH2 0xEB3 JUMPI PUSH1 0x0 PUSH2 0xE01 DUP6 DUP6 PUSH2 0x1201 JUMP JUMPDEST SWAP1 POP PUSH1 0x0 PUSH2 0xE1D PUSH2 0xE18 DUP4 DUP14 PUSH4 0xFFFFFFFF PUSH2 0xD95 AND JUMP JUMPDEST PUSH2 0x1229 JUMP JUMPDEST SWAP1 POP PUSH1 0x0 PUSH2 0xE54 PUSH2 0xE34 DUP13 DUP6 PUSH4 0xFFFFFFFF PUSH2 0xEC3 AND JUMP JUMPDEST PUSH2 0xE48 DUP6 PUSH2 0x9E4 DUP10 DUP8 PUSH4 0xFFFFFFFF PUSH2 0xEC3 AND JUMP JUMPDEST SWAP1 PUSH4 0xFFFFFFFF PUSH2 0xF16 AND JUMP JUMPDEST SWAP1 POP PUSH32 0x4ADD19BBBE358CAF4AF4A31B1299356FC4DCCF8B4CF3C87E401B0FA60062F31E DUP3 DUP5 DUP4 PUSH1 0x40 MLOAD PUSH2 0xE89 SWAP4 SWAP3 SWAP2 SWAP1 PUSH2 0x21A7 JUMP JUMPDEST PUSH1 0x40 MLOAD DUP1 SWAP2 SUB SWAP1 LOG1 DUP13 DUP2 SGT ISZERO PUSH2 0xEA1 JUMPI DUP3 SWAP6 POP PUSH2 0xEA5 JUMP JUMPDEST DUP3 SWAP7 POP JUMPDEST POP POP POP DUP1 PUSH1 0x1 ADD SWAP1 POP PUSH2 0xDEC JUMP JUMPDEST POP SWAP2 SWAP3 POP POP POP SWAP6 POP SWAP6 SWAP4 POP POP POP POP JUMP JUMPDEST PUSH1 0x0 PUSH16 0x80000000000000000000000000000000 DUP3 ISZERO PUSH2 0xEF5 JUMPI POP PUSH6 0x10000000000 SWAP1 SWAP2 SDIV SWAP1 PUSH11 0x8000000000000000000000 JUMPDEST PUSH1 0x0 PUSH2 0xF01 DUP6 DUP6 PUSH2 0xBDA JUMP JUMPDEST SWAP1 POP DUP2 DUP2 DUP2 PUSH2 0xF0C JUMPI INVALID JUMPDEST SDIV SWAP6 SWAP5 POP POP POP POP POP JUMP JUMPDEST PUSH1 0x0 PUSH2 0x6E6 DUP4 DUP4 PUSH2 0xD1F JUMP JUMPDEST PUSH2 0x23A SWAP1 JUMP JUMPDEST PUSH1 0x0 DUP1 PUSH2 0xF36 DUP8 DUP8 SUB PUSH2 0x789 JUMP JUMPDEST SWAP1 POP PUSH1 0x0 PUSH2 0xF5B PUSH2 0xF56 PUSH2 0xF49 DUP9 PUSH2 0x12D6 JUMP JUMPDEST DUP5 SWAP1 PUSH4 0xFFFFFFFF PUSH2 0xEC3 AND JUMP JUMPDEST PUSH2 0x19C0 JUMP JUMPDEST SWAP1 POP PUSH1 0x0 PUSH2 0xF6B DUP3 PUSH2 0x194 PUSH2 0x70C JUMP JUMPDEST SWAP1 POP PUSH1 0x0 PUSH2 0xF7F DUP8 DUP4 PUSH4 0xFFFFFFFF PUSH2 0xEC3 AND JUMP JUMPDEST SWAP1 POP PUSH1 0x0 PUSH2 0xF93 DUP8 DUP6 PUSH4 0xFFFFFFFF PUSH2 0xEC3 AND JUMP JUMPDEST SWAP1 POP PUSH1 0x0 PUSH2 0xFBF PUSH2 0xFAA DUP6 DUP12 PUSH4 0xFFFFFFFF PUSH2 0xD95 AND JUMP JUMPDEST PUSH2 0xFBA DUP8 DUP12 PUSH4 0xFFFFFFFF PUSH2 0xD95 AND JUMP JUMPDEST PUSH2 0xF16 JUMP JUMPDEST SWAP1 POP PUSH1 0x0 PUSH2 0xFCF DUP3 PUSH2 0x99B PUSH2 0x70C JUMP JUMPDEST SWAP1 POP PUSH1 0x0 PUSH2 0xFF4 PUSH2 0xFE0 PUSH1 0x2 PUSH2 0x62A JUMP JUMPDEST PUSH2 0x99B DUP5 PUSH2 0xE48 DUP10 DUP10 PUSH4 0xFFFFFFFF PUSH2 0xF16 AND JUMP JUMPDEST SWAP15 SWAP14 POP POP POP POP POP POP POP POP POP POP POP POP POP POP JUMP JUMPDEST DUP1 MLOAD PUSH1 0x1 DUP1 SLOAD PUSH1 0x20 DUP5 ADD MLOAD PUSH32 0xFFFFFFFFFFFFFFFFFFFFFFFFFFFFFFFFFFFFFFFFFFFFFFFFFFFFFFFFFFFFFF00 SWAP1 SWAP2 AND SWAP3 ISZERO ISZERO SWAP3 SWAP1 SWAP3 OR PUSH32 0xFFFFFFFFFFFFFFFFFFFFFF0000000000000000000000000000000000000000FF AND PUSH2 0x100 PUSH20 0xFFFFFFFFFFFFFFFFFFFFFFFFFFFFFFFFFFFFFFFF SWAP4 DUP5 AND DUP2 MUL SWAP2 SWAP1 SWAP2 OR SWAP1 SWAP2 SSTORE PUSH1 0x40 DUP4 ADD MLOAD PUSH1 0x2 DUP1 SLOAD PUSH32 0xFFFFFFFFFFFFFFFFFFFFFFFF0000000000000000000000000000000000000000 AND SWAP2 SWAP1 SWAP4 AND OR SWAP1 SWAP2 SSTORE PUSH1 0x60 DUP3 ADD MLOAD PUSH1 0x3 SSTORE PUSH1 0x80 DUP3 ADD MLOAD PUSH1 0x4 SSTORE PUSH1 0xA0 DUP3 ADD MLOAD PUSH1 0x5 SSTORE PUSH1 0xC0 DUP3 ADD MLOAD PUSH1 0x6 SSTORE PUSH1 0xE0 DUP3 ADD MLOAD PUSH1 0x7 SSTORE DUP2 ADD MLOAD PUSH1 0x8 SSTORE PUSH2 0x120 DUP2 ADD MLOAD PUSH1 0x9 SSTORE PUSH2 0x140 DUP2 ADD MLOAD PUSH1 0xB SSTORE PUSH2 0x160 DUP2 ADD MLOAD PUSH1 0xC SSTORE PUSH2 0x180 ADD MLOAD PUSH1 0xD SSTORE JUMP JUMPDEST PUSH1 0x0 DUP1 PUSH2 0x111B DUP5 DUP8 PUSH4 0xFFFFFFFF PUSH2 0xEC3 AND JUMP JUMPDEST SWAP1 POP PUSH1 0x0 PUSH2 0x112F DUP7 DUP4 PUSH4 0xFFFFFFFF PUSH2 0xD95 AND JUMP JUMPDEST SWAP1 POP PUSH1 0x0 PUSH2 0x1143 DUP4 DUP9 PUSH4 0xFFFFFFFF PUSH2 0xD95 AND JUMP JUMPDEST SWAP1 POP PUSH1 0x0 PUSH2 0x1153 DUP7 PUSH2 0x194 PUSH2 0x70C JUMP JUMPDEST SWAP1 POP PUSH1 0x0 PUSH2 0x115F PUSH2 0x70C JUMP JUMPDEST DUP5 SLT ISZERO PUSH2 0x117D JUMPI PUSH2 0x1176 PUSH2 0xF56 DUP4 PUSH2 0x9E4 DUP8 PUSH2 0x12D6 JUMP JUMPDEST SWAP1 POP PUSH2 0x119B JUMP JUMPDEST PUSH2 0x1198 PUSH2 0x1190 PUSH2 0xF56 DUP5 PUSH2 0x9E4 DUP8 PUSH2 0x12D6 JUMP JUMPDEST PUSH2 0x99B PUSH2 0x70C JUMP JUMPDEST SWAP1 POP JUMPDEST PUSH2 0x11AB DUP2 DUP10 PUSH4 0xFFFFFFFF PUSH2 0xEC3 AND JUMP JUMPDEST SWAP6 POP PUSH32 0x3CF9BD989028BFC957CA46FD34C8ED26F90D849442378EE442FCD56CF5CAC44F DUP11 DUP11 DUP11 DUP11 PUSH2 0x11DB DUP12 PUSH2 0xBC1 JUMP JUMPDEST PUSH1 0x40 MLOAD PUSH2 0x11EC SWAP6 SWAP5 SWAP4 SWAP3 SWAP2 SWAP1 PUSH2 0x21BD JUMP JUMPDEST PUSH1 0x40 MLOAD DUP1 SWAP2 SUB SWAP1 LOG1 POP POP POP POP POP SWAP5 SWAP4 POP POP POP POP JUMP JUMPDEST PUSH1 0x0 PUSH2 0x6E6 PUSH2 0x1219 PUSH2 0x1211 PUSH2 0x70C JUMP JUMPDEST PUSH2 0xE48 PUSH2 0x70C JUMP JUMPDEST PUSH2 0x99B DUP6 DUP6 PUSH4 0xFFFFFFFF PUSH2 0xF16 AND JUMP JUMPDEST PUSH1 0x0 DUP1 PUSH2 0x123C DUP4 DUP1 PUSH4 0xFFFFFFFF PUSH2 0xEC3 AND JUMP JUMPDEST SWAP1 POP PUSH1 0x0 PUSH2 0x1250 DUP5 DUP4 PUSH4 0xFFFFFFFF PUSH2 0xEC3 AND JUMP JUMPDEST SWAP1 POP PUSH1 0x0 PUSH2 0x1264 DUP3 DUP1 PUSH4 0xFFFFFFFF PUSH2 0xEC3 AND JUMP JUMPDEST SWAP1 POP PUSH1 0x0 PUSH2 0x1278 DUP3 DUP1 PUSH4 0xFFFFFFFF PUSH2 0xEC3 AND JUMP JUMPDEST SWAP1 POP PUSH1 0x0 PUSH2 0x128C DUP3 DUP1 PUSH4 0xFFFFFFFF PUSH2 0xEC3 AND JUMP JUMPDEST SWAP1 POP PUSH1 0x0 PUSH2 0x12A0 DUP3 DUP1 PUSH4 0xFFFFFFFF PUSH2 0xEC3 AND JUMP JUMPDEST SWAP1 POP PUSH1 0x0 PUSH2 0x12B4 DUP3 DUP1 PUSH4 0xFFFFFFFF PUSH2 0xEC3 AND JUMP JUMPDEST SWAP1 POP PUSH1 0x0 PUSH2 0x12C8 DUP3 DUP9 PUSH4 0xFFFFFFFF PUSH2 0xEC3 AND JUMP JUMPDEST SWAP11 SWAP10 POP POP POP POP POP POP POP POP POP POP JUMP JUMPDEST PUSH1 0x0 PUSH16 0x80000000000000000000000000000000 DUP3 SGT ISZERO PUSH2 0x1322 JUMPI PUSH1 0x40 MLOAD PUSH32 0x8C379A000000000000000000000000000000000000000000000000000000000 DUP2 MSTORE PUSH1 0x4 ADD PUSH2 0x140 SWAP1 PUSH2 0x2319 JUMP JUMPDEST PUSH1 0x0 DUP3 SGT PUSH2 0x135C JUMPI PUSH1 0x40 MLOAD PUSH32 0x8C379A000000000000000000000000000000000000000000000000000000000 DUP2 MSTORE PUSH1 0x4 ADD PUSH2 0x140 SWAP1 PUSH2 0x21E0 JUMP JUMPDEST PUSH16 0x80000000000000000000000000000000 DUP3 EQ ISZERO PUSH2 0x137C JUMPI POP PUSH1 0x0 PUSH2 0xBD5 JUMP JUMPDEST PUSH5 0x733048C5A DUP3 SGT PUSH2 0x13AF JUMPI POP PUSH32 0xFFFFFFFFFFFFFFFFFFFFFFFFFFFFFFE010000000000000000000000000000000 PUSH2 0xBD5 JUMP JUMPDEST PUSH1 0x0 DUP1 PUSH1 0x0 PUSH11 0x1C8464F76164760000000 DUP6 SGT PUSH2 0x140E JUMPI PUSH32 0xFFFFFFFFFFFFFFFFFFFFFFFFFFFFFFF000000000000000000000000000000000 SWAP1 SWAP4 ADD SWAP3 PUSH11 0x1C8464F76164760000000 PUSH16 0x80000000000000000000000000000000 DUP7 MUL SDIV SWAP5 POP JUMPDEST PUSH13 0xF1AADDD7742E90000000000000 DUP6 SGT PUSH2 0x146C JUMPI PUSH32 0xFFFFFFFFFFFFFFFFFFFFFFFFFFFFFFF800000000000000000000000000000000 SWAP1 SWAP4 ADD SWAP3 PUSH13 0xF1AADDD7742E90000000000000 PUSH16 0x80000000000000000000000000000000 DUP7 MUL SDIV SWAP5 POP JUMPDEST PUSH15 0xAFE10820813D78000000000000000 DUP6 SGT PUSH2 0x14CE JUMPI PUSH32 0xFFFFFFFFFFFFFFFFFFFFFFFFFFFFFFFC00000000000000000000000000000000 SWAP1 SWAP4 ADD SWAP3 PUSH15 0xAFE10820813D78000000000000000 PUSH16 0x80000000000000000000000000000000 DUP7 MUL SDIV SWAP5 POP JUMPDEST PUSH16 0x2582AB704279EC00000000000000000 DUP6 SGT PUSH2 0x1532 JUMPI PUSH32 0xFFFFFFFFFFFFFFFFFFFFFFFFFFFFFFFE00000000000000000000000000000000 SWAP1 SWAP4 ADD SWAP3 PUSH16 0x2582AB704279EC00000000000000000 PUSH16 0x80000000000000000000000000000000 DUP7 MUL SDIV SWAP5 POP JUMPDEST PUSH16 0x1152AAA3BF81CC000000000000000000 DUP6 SGT PUSH2 0x1596 JUMPI PUSH32 0xFFFFFFFFFFFFFFFFFFFFFFFFFFFFFFFF00000000000000000000000000000000 SWAP1 SWAP4 ADD SWAP3 PUSH16 0x1152AAA3BF81CC000000000000000000 PUSH16 0x80000000000000000000000000000000 DUP7 MUL SDIV SWAP5 POP JUMPDEST PUSH16 0x2F16AC6C59DE70000000000000000000 DUP6 SGT PUSH2 0x15FA JUMPI PUSH32 0xFFFFFFFFFFFFFFFFFFFFFFFFFFFFFFFF80000000000000000000000000000000 SWAP1 SWAP4 ADD SWAP3 PUSH16 0x2F16AC6C59DE70000000000000000000 PUSH16 0x80000000000000000000000000000000 DUP7 MUL SDIV SWAP5 POP JUMPDEST PUSH16 0x4DA2CBF1BE5828000000000000000000 DUP6 SGT PUSH2 0x165E JUMPI PUSH32 0xFFFFFFFFFFFFFFFFFFFFFFFFFFFFFFFFC0000000000000000000000000000000 SWAP1 SWAP4 ADD SWAP3 PUSH16 0x4DA2CBF1BE5828000000000000000000 PUSH16 0x80000000000000000000000000000000 DUP7 MUL SDIV SWAP5 POP JUMPDEST PUSH16 0x63AFBE7AB2082C000000000000000000 DUP6 SGT PUSH2 0x16C2 JUMPI PUSH32 0xFFFFFFFFFFFFFFFFFFFFFFFFFFFFFFFFE0000000000000000000000000000000 SWAP1 SWAP4 ADD SWAP3 PUSH16 0x63AFBE7AB2082C000000000000000000 PUSH16 0x80000000000000000000000000000000 DUP7 MUL SDIV SWAP5 POP JUMPDEST PUSH16 0x70F5A893B608861E1F58934F97AEA57D DUP6 SGT PUSH2 0x1726 JUMPI PUSH32 0xFFFFFFFFFFFFFFFFFFFFFFFFFFFFFFFFF0000000000000000000000000000000 SWAP1 SWAP4 ADD SWAP3 PUSH16 0x70F5A893B608861E1F58934F97AEA57D PUSH16 0x80000000000000000000000000000000 DUP7 MUL SDIV SWAP5 POP JUMPDEST PUSH32 0xFFFFFFFFFFFFFFFFFFFFFFFFFFFFFFFF80000000000000000000000000000000 DUP6 ADD SWAP3 POP DUP3 SWAP2 POP PUSH16 0x80000000000000000000000000000000 DUP3 DUP1 MUL SDIV SWAP1 POP PUSH17 0x100000000000000000000000000000000 DUP4 DUP2 SUB DUP4 MUL SDIV DUP5 ADD SWAP4 POP PUSH16 0x80000000000000000000000000000000 DUP2 DUP4 MUL DUP2 PUSH2 0x179C JUMPI INVALID JUMPDEST SDIV SWAP2 POP PUSH17 0x200000000000000000000000000000000 DUP4 PUSH16 0xAAAAAAAAAAAAAAAAAAAAAAAAAAAAAAAA SUB DUP4 MUL DUP2 PUSH2 0x17CD JUMPI INVALID JUMPDEST SDIV DUP5 ADD SWAP4 POP PUSH16 0x80000000000000000000000000000000 DUP2 DUP4 MUL DUP2 PUSH2 0x17ED JUMPI INVALID JUMPDEST SDIV SWAP2 POP PUSH17 0x300000000000000000000000000000000 DUP4 PUSH16 0x99999999999999999999999999999999 SUB DUP4 MUL DUP2 PUSH2 0x181E JUMPI INVALID JUMPDEST SDIV DUP5 ADD SWAP4 POP PUSH16 0x80000000000000000000000000000000 DUP2 DUP4 MUL DUP2 PUSH2 0x183E JUMPI INVALID JUMPDEST SDIV SWAP2 POP PUSH17 0x400000000000000000000000000000000 DUP4 PUSH16 0x92492492492492492492492492492492 SUB DUP4 MUL DUP2 PUSH2 0x186F JUMPI INVALID JUMPDEST SDIV DUP5 ADD SWAP4 POP PUSH16 0x80000000000000000000000000000000 DUP2 DUP4 MUL DUP2 PUSH2 0x188F JUMPI INVALID JUMPDEST SDIV SWAP2 POP PUSH17 0x500000000000000000000000000000000 DUP4 PUSH16 0x8E38E38E38E38E38E38E38E38E38E38E SUB DUP4 MUL DUP2 PUSH2 0x18C0 JUMPI INVALID JUMPDEST SDIV DUP5 ADD SWAP4 POP PUSH16 0x80000000000000000000000000000000 DUP2 DUP4 MUL DUP2 PUSH2 0x18E0 JUMPI INVALID JUMPDEST SDIV SWAP2 POP PUSH17 0x600000000000000000000000000000000 DUP4 PUSH16 0x8BA2E8BA2E8BA2E8BA2E8BA2E8BA2E8B SUB DUP4 MUL DUP2 PUSH2 0x1911 JUMPI INVALID JUMPDEST SDIV DUP5 ADD SWAP4 POP PUSH16 0x80000000000000000000000000000000 DUP2 DUP4 MUL DUP2 PUSH2 0x1931 JUMPI INVALID JUMPDEST SDIV SWAP2 POP PUSH17 0x700000000000000000000000000000000 DUP4 PUSH16 0x89D89D89D89D89D89D89D89D89D89D89 SUB DUP4 MUL DUP2 PUSH2 0x1962 JUMPI INVALID JUMPDEST SDIV DUP5 ADD SWAP4 POP PUSH16 0x80000000000000000000000000000000 DUP2 DUP4 MUL DUP2 PUSH2 0x1982 JUMPI INVALID JUMPDEST SDIV SWAP2 POP PUSH17 0x800000000000000000000000000000000 DUP4 PUSH16 0x88888888888888888888888888888888 SUB DUP4 MUL DUP2 PUSH2 0x19B3 JUMPI INVALID JUMPDEST SDIV DUP5 ADD SWAP4 POP POP POP POP SWAP2 SWAP1 POP JUMP JUMPDEST PUSH1 0x0 PUSH32 0xFFFFFFFFFFFFFFFFFFFFFFFFFFFFFFE010000000000000000000000000000000 DUP3 SLT ISZERO PUSH2 0x19F2 JUMPI POP PUSH1 0x0 PUSH2 0xBD5 JUMP JUMPDEST DUP2 PUSH2 0x1A0E JUMPI POP PUSH16 0x80000000000000000000000000000000 PUSH2 0xBD5 JUMP JUMPDEST PUSH1 0x0 DUP3 SGT ISZERO PUSH2 0x1A49 JUMPI PUSH1 0x40 MLOAD PUSH32 0x8C379A000000000000000000000000000000000000000000000000000000000 DUP2 MSTORE PUSH1 0x4 ADD PUSH2 0x140 SWAP1 PUSH2 0x23AD JUMP JUMPDEST PUSH16 0x80000000000000000000000000000000 PUSH16 0x10000000000000000000000000000000 DUP4 SMOD DUP1 DUP1 MUL DUP3 SWAP1 SDIV PUSH8 0x10E1B3BE415A0000 DUP2 MUL SWAP4 SWAP1 SWAP4 ADD SWAP3 SWAP1 SWAP2 DUP2 DUP4 MUL SDIV SWAP1 POP DUP1 PUSH8 0x5A0913F6B1E0000 MUL DUP4 ADD SWAP3 POP PUSH16 0x80000000000000000000000000000000 DUP3 DUP3 MUL DUP2 PUSH2 0x1AB5 JUMPI INVALID JUMPDEST SDIV SWAP1 POP DUP1 PUSH8 0x168244FDAC78000 MUL DUP4 ADD SWAP3 POP PUSH16 0x80000000000000000000000000000000 DUP3 DUP3 MUL DUP2 PUSH2 0x1AE2 JUMPI INVALID JUMPDEST SDIV SWAP1 POP DUP1 PUSH7 0x4807432BC18000 MUL DUP4 ADD SWAP3 POP PUSH16 0x80000000000000000000000000000000 DUP3 DUP3 MUL DUP2 PUSH2 0x1B0E JUMPI INVALID JUMPDEST SDIV SWAP1 POP DUP1 PUSH7 0xC0135DCA04000 MUL DUP4 ADD SWAP3 POP PUSH16 0x80000000000000000000000000000000 DUP3 DUP3 MUL DUP2 PUSH2 0x1B3A JUMPI INVALID JUMPDEST SDIV SWAP1 POP DUP1 PUSH7 0x1B707B1CDC000 MUL DUP4 ADD SWAP3 POP PUSH16 0x80000000000000000000000000000000 DUP3 DUP3 MUL DUP2 PUSH2 0x1B66 JUMPI INVALID JUMPDEST SDIV SWAP1 POP DUP1 PUSH6 0x36E0F639B800 MUL DUP4 ADD SWAP3 POP PUSH16 0x80000000000000000000000000000000 DUP3 DUP3 MUL DUP2 PUSH2 0x1B91 JUMPI INVALID JUMPDEST SDIV SWAP1 POP DUP1 PUSH6 0x618FEE9F800 MUL DUP4 ADD SWAP3 POP PUSH16 0x80000000000000000000000000000000 DUP3 DUP3 MUL DUP2 PUSH2 0x1BBC JUMPI INVALID JUMPDEST SDIV SWAP1 POP DUP1 PUSH5 0x9C197DCC00 MUL DUP4 ADD SWAP3 POP PUSH16 0x80000000000000000000000000000000 DUP3 DUP3 MUL DUP2 PUSH2 0x1BE6 JUMPI INVALID JUMPDEST SDIV SWAP1 POP DUP1 PUSH5 0xE30DCE400 MUL DUP4 ADD SWAP3 POP PUSH16 0x80000000000000000000000000000000 DUP3 DUP3 MUL DUP2 PUSH2 0x1C10 JUMPI INVALID JUMPDEST SDIV SWAP1 POP DUP1 PUSH5 0x12EBD1300 MUL DUP4 ADD SWAP3 POP PUSH16 0x80000000000000000000000000000000 DUP3 DUP3 MUL DUP2 PUSH2 0x1C3A JUMPI INVALID JUMPDEST SDIV SWAP1 POP DUP1 PUSH4 0x17499F00 MUL DUP4 ADD SWAP3 POP PUSH16 0x80000000000000000000000000000000 DUP3 DUP3 MUL DUP2 PUSH2 0x1C63 JUMPI INVALID JUMPDEST SDIV SWAP1 POP DUP1 PUSH4 0x1A9D480 MUL DUP4 ADD SWAP3 POP PUSH16 0x80000000000000000000000000000000 DUP3 DUP3 MUL DUP2 PUSH2 0x1C8C JUMPI INVALID JUMPDEST SDIV SWAP1 POP DUP1 PUSH3 0x1C6380 MUL DUP4 ADD SWAP3 POP PUSH16 0x80000000000000000000000000000000 DUP3 DUP3 MUL DUP2 PUSH2 0x1CB4 JUMPI INVALID JUMPDEST SDIV SWAP1 POP DUP1 PUSH3 0x1C638 MUL DUP4 ADD SWAP3 POP PUSH16 0x80000000000000000000000000000000 DUP3 DUP3 MUL DUP2 PUSH2 0x1CDC JUMPI INVALID JUMPDEST SDIV SWAP1 POP DUP1 PUSH2 0x1AB8 MUL DUP4 ADD SWAP3 POP PUSH16 0x80000000000000000000000000000000 DUP3 DUP3 MUL DUP2 PUSH2 0x1D03 JUMPI INVALID JUMPDEST SDIV SWAP1 POP DUP1 PUSH2 0x17C MUL DUP4 ADD SWAP3 POP PUSH16 0x80000000000000000000000000000000 DUP3 DUP3 MUL DUP2 PUSH2 0x1D2A JUMPI INVALID JUMPDEST SDIV SWAP1 POP DUP1 PUSH1 0x14 MUL DUP4 ADD SWAP3 POP PUSH16 0x80000000000000000000000000000000 DUP3 DUP3 MUL DUP2 PUSH2 0x1D50 JUMPI INVALID JUMPDEST PUSH1 0x0 SWAP6 SWAP1 SWAP6 SUB SWAP5 PUSH8 0x21C3677C82B40000 SWAP2 SWAP1 SDIV SWAP4 DUP5 ADD SDIV DUP3 ADD PUSH16 0x80000000000000000000000000000000 ADD SWAP3 SWAP1 POP PUSH17 0x1000000000000000000000000000000000 DUP5 AND ISZERO PUSH2 0x1DBF JUMPI PUSH19 0x43CBAF42A000812488FC5C220AD7B97BF6E99E PUSH13 0xF1AADDD7742E56D32FB9F99744 DUP5 MUL SDIV SWAP3 POP JUMPDEST PUSH17 0x800000000000000000000000000000000 DUP5 AND ISZERO PUSH2 0x1E01 JUMPI PUSH18 0x5D27A9F51C31B7C2F8038212A0574779991 PUSH15 0xAFE10820813D65DFE6A33C07F738F DUP5 MUL SDIV SWAP3 POP JUMPDEST PUSH17 0x400000000000000000000000000000000 DUP5 AND ISZERO PUSH2 0x1E43 JUMPI PUSH17 0x1B4C902E273A58678D6D3BFDB93DB96D02 PUSH16 0x2582AB704279E8EFD15E0265855C47A DUP5 MUL SDIV SWAP3 POP JUMPDEST PUSH17 0x200000000000000000000000000000000 DUP5 AND ISZERO PUSH2 0x1E85 JUMPI PUSH17 0x3B1CC971A9BB5B9867477440D6D157750 PUSH16 0x1152AAA3BF81CB9FDB76EAE12D029571 DUP5 MUL SDIV SWAP3 POP JUMPDEST PUSH17 0x100000000000000000000000000000000 DUP5 AND ISZERO PUSH2 0x1EC7 JUMPI PUSH17 0x15BF0A8B1457695355FB8AC404E7A79E3 PUSH16 0x2F16AC6C59DE6F8D5D6F63C1482A7C86 DUP5 MUL SDIV SWAP3 POP JUMPDEST PUSH16 0x80000000000000000000000000000000 DUP5 AND ISZERO PUSH2 0x1F07 JUMPI PUSH16 0xD3094C70F034DE4B96FF7D5B6F99FCD8 PUSH16 0x4DA2CBF1BE5827F9EB3AD1AA9866EBB3 DUP5 MUL SDIV SWAP3 POP JUMPDEST PUSH16 0x40000000000000000000000000000000 DUP5 AND ISZERO PUSH2 0x1F47 JUMPI PUSH16 0xA45AF1E1F40C333B3DE1DB4DD55F29A7 PUSH16 0x63AFBE7AB2082BA1A0AE5E4EB1B479DC DUP5 MUL SDIV SWAP3 POP JUMPDEST PUSH16 0x20000000000000000000000000000000 DUP5 AND ISZERO PUSH2 0x1F87 JUMPI PUSH16 0x910B022DB7AE67CE76B441C27035C6A1 PUSH16 0x70F5A893B608861E1F58934F97AEA57D DUP5 MUL SDIV SWAP3 POP JUMPDEST PUSH16 0x10000000000000000000000000000000 DUP5 AND ISZERO PUSH2 0x1FC7 JUMPI PUSH16 0x88415ABBE9A76BEAD8D00CF112E4D4A8 PUSH16 0x783EAFEF1C0A8F3978C7F81824D62EBF DUP5 MUL SDIV SWAP3 POP JUMPDEST POP POP SWAP2 SWAP1 POP JUMP JUMPDEST PUSH1 0x40 MLOAD DUP1 PUSH2 0x1A0 ADD PUSH1 0x40 MSTORE DUP1 PUSH1 0x0 ISZERO ISZERO DUP2 MSTORE PUSH1 0x20 ADD PUSH1 0x0 PUSH20 0xFFFFFFFFFFFFFFFFFFFFFFFFFFFFFFFFFFFFFFFF AND DUP2 MSTORE PUSH1 0x20 ADD PUSH1 0x0 PUSH20 0xFFFFFFFFFFFFFFFFFFFFFFFFFFFFFFFFFFFFFFFF AND DUP2 MSTORE PUSH1 0x20 ADD PUSH1 0x0 DUP2 MSTORE PUSH1 0x20 ADD PUSH1 0x0 DUP2 MSTORE PUSH1 0x20 ADD PUSH1 0x0 DUP2 MSTORE PUSH1 0x20 ADD PUSH1 0x0 DUP2 MSTORE PUSH1 0x20 ADD PUSH1 0x0 DUP2 MSTORE PUSH1 0x20 ADD PUSH1 0x0 DUP2 MSTORE PUSH1 0x20 ADD PUSH1 0x0 DUP2 MSTORE PUSH1 0x20 ADD PUSH1 0x0 DUP2 MSTORE PUSH1 0x20 ADD PUSH1 0x0 DUP2 MSTORE PUSH1 0x20 ADD PUSH1 0x0 DUP2 MSTORE POP SWAP1 JUMP JUMPDEST PUSH1 0x0 PUSH1 0x20 DUP3 DUP5 SUB SLT ISZERO PUSH2 0x2075 JUMPI DUP1 DUP2 REVERT JUMPDEST DUP2 CALLDATALOAD PUSH20 0xFFFFFFFFFFFFFFFFFFFFFFFFFFFFFFFFFFFFFFFF DUP2 AND DUP2 EQ PUSH2 0x6E6 JUMPI DUP2 DUP3 REVERT JUMPDEST PUSH1 0x0 DUP1 PUSH1 0x0 PUSH1 0x60 DUP5 DUP7 SUB SLT ISZERO PUSH2 0x20AC JUMPI DUP2 DUP3 REVERT JUMPDEST DUP4 CALLDATALOAD PUSH2 0x20B7 DUP2 PUSH2 0x2594 JUMP JUMPDEST SWAP3 POP PUSH1 0x20 DUP5 ADD CALLDATALOAD PUSH2 0x20C7 DUP2 PUSH2 0x2594 JUMP JUMPDEST SWAP3 SWAP6 SWAP3 SWAP5 POP POP POP PUSH1 0x40 SWAP2 SWAP1 SWAP2 ADD CALLDATALOAD SWAP1 JUMP JUMPDEST PUSH1 0x0 PUSH1 0x20 DUP3 DUP5 SUB SLT ISZERO PUSH2 0x20E9 JUMPI DUP1 DUP2 REVERT JUMPDEST POP CALLDATALOAD SWAP2 SWAP1 POP JUMP JUMPDEST PUSH20 0xFFFFFFFFFFFFFFFFFFFFFFFFFFFFFFFFFFFFFFFF SWAP2 SWAP1 SWAP2 AND DUP2 MSTORE PUSH1 0x20 ADD SWAP1 JUMP JUMPDEST PUSH20 0xFFFFFFFFFFFFFFFFFFFFFFFFFFFFFFFFFFFFFFFF SWAP3 DUP4 AND DUP2 MSTORE SWAP2 AND PUSH1 0x20 DUP3 ADD MSTORE PUSH1 0x40 ADD SWAP1 JUMP JUMPDEST PUSH20 0xFFFFFFFFFFFFFFFFFFFFFFFFFFFFFFFFFFFFFFFF SWAP6 DUP7 AND DUP2 MSTORE SWAP4 DUP6 AND PUSH1 0x20 DUP6 ADD MSTORE SWAP2 SWAP1 SWAP4 AND PUSH1 0x40 DUP4 ADD MSTORE PUSH1 0x60 DUP3 ADD SWAP3 SWAP1 SWAP3 MSTORE PUSH1 0x80 DUP2 ADD SWAP2 SWAP1 SWAP2 MSTORE PUSH1 0xA0 ADD SWAP1 JUMP JUMPDEST PUSH20 0xFFFFFFFFFFFFFFFFFFFFFFFFFFFFFFFFFFFFFFFF SWAP4 SWAP1 SWAP4 AND DUP4 MSTORE PUSH1 0x20 DUP4 ADD SWAP2 SWAP1 SWAP2 MSTORE PUSH1 0x40 DUP3 ADD MSTORE PUSH1 0x60 ADD SWAP1 JUMP JUMPDEST SWAP3 DUP4 MSTORE PUSH1 0x20 DUP4 ADD SWAP2 SWAP1 SWAP2 MSTORE PUSH1 0x40 DUP3 ADD MSTORE PUSH1 0x60 ADD SWAP1 JUMP JUMPDEST SWAP5 DUP6 MSTORE PUSH1 0x20 DUP6 ADD SWAP4 SWAP1 SWAP4 MSTORE PUSH1 0x40 DUP5 ADD SWAP2 SWAP1 SWAP2 MSTORE PUSH1 0x60 DUP4 ADD MSTORE PUSH1 0x80 DUP3 ADD MSTORE PUSH1 0xA0 ADD SWAP1 JUMP JUMPDEST PUSH1 0x20 DUP1 DUP3 MSTORE PUSH1 0x13 SWAP1 DUP3 ADD MSTORE PUSH32 0x6C6E3A2076616C756520746F6F20736D616C6C00000000000000000000000000 PUSH1 0x40 DUP3 ADD MSTORE PUSH1 0x60 ADD SWAP1 JUMP JUMPDEST PUSH1 0x20 DUP1 DUP3 MSTORE PUSH1 0xE SWAP1 DUP3 ADD MSTORE PUSH32 0x4F6E6C794F776E65724572726F72000000000000000000000000000000000000 PUSH1 0x40 DUP3 ADD MSTORE PUSH1 0x60 ADD SWAP1 JUMP JUMPDEST PUSH1 0x20 DUP1 DUP3 MSTORE PUSH1 0x13 SWAP1 DUP3 ADD MSTORE PUSH32 0x416C726561647920496E697469616C697A656400000000000000000000000000 PUSH1 0x40 DUP3 ADD MSTORE PUSH1 0x60 ADD SWAP1 JUMP JUMPDEST PUSH1 0x20 DUP1 DUP3 MSTORE PUSH1 0x17 SWAP1 DUP3 ADD MSTORE PUSH32 0x496E76616C696420746F6B656E20616464726573736573000000000000000000 PUSH1 0x40 DUP3 ADD MSTORE PUSH1 0x60 ADD SWAP1 JUMP JUMPDEST PUSH1 0x20 DUP1 DUP3 MSTORE PUSH1 0x38 SWAP1 DUP3 ADD MSTORE PUSH32 0x746F46697865642875696E742C75696E74293A2064656E6F6D696E61746F7220 PUSH1 0x40 DUP3 ADD MSTORE PUSH32 0x63616E6E6F74206265206C657373207468616E207A65726F0000000000000000 PUSH1 0x60 DUP3 ADD MSTORE PUSH1 0x80 ADD SWAP1 JUMP JUMPDEST PUSH1 0x20 DUP1 DUP3 MSTORE PUSH1 0x13 SWAP1 DUP3 ADD MSTORE PUSH32 0x6C6E3A2076616C756520746F6F206C6172676500000000000000000000000000 PUSH1 0x40 DUP3 ADD MSTORE PUSH1 0x60 ADD SWAP1 JUMP JUMPDEST PUSH1 0x20 DUP1 DUP3 MSTORE PUSH1 0x27 SWAP1 DUP3 ADD MSTORE PUSH32 0x746F46697865643A2076616C75652063616E6E6F74206265206C657373207468 PUSH1 0x40 DUP3 ADD MSTORE PUSH32 0x616E207A65726F00000000000000000000000000000000000000000000000000 PUSH1 0x60 DUP3 ADD MSTORE PUSH1 0x80 ADD SWAP1 JUMP JUMPDEST PUSH1 0x20 DUP1 DUP3 MSTORE PUSH1 0x14 SWAP1 DUP3 ADD MSTORE PUSH32 0x6578703A2076616C756520746F6F20736D616C6C000000000000000000000000 PUSH1 0x40 DUP3 ADD MSTORE PUSH1 0x60 ADD SWAP1 JUMP JUMPDEST PUSH1 0x20 DUP1 DUP3 MSTORE PUSH1 0x18 SWAP1 DUP3 ADD MSTORE PUSH32 0x5472616E736665724F776E6572546F5A65726F4572726F720000000000000000 PUSH1 0x40 DUP3 ADD MSTORE PUSH1 0x60 ADD SWAP1 JUMP JUMPDEST PUSH1 0x20 DUP1 DUP3 MSTORE PUSH1 0xE SWAP1 DUP3 ADD MSTORE PUSH32 0x5F6D756C3A206F766572666C6F77000000000000000000000000000000000000 PUSH1 0x40 DUP3 ADD MSTORE PUSH1 0x60 ADD SWAP1 JUMP JUMPDEST PUSH1 0x20 DUP1 DUP3 MSTORE PUSH1 0xE SWAP1 DUP3 ADD MSTORE PUSH32 0x5F6164643A206F766572666C6F77000000000000000000000000000000000000 PUSH1 0x40 DUP3 ADD MSTORE PUSH1 0x60 ADD SWAP1 JUMP JUMPDEST PUSH1 0x20 DUP1 DUP3 MSTORE PUSH1 0x14 SWAP1 DUP3 ADD MSTORE PUSH32 0x7375623A2076616C756520746F6F20736D616C6C000000000000000000000000 PUSH1 0x40 DUP3 ADD MSTORE PUSH1 0x60 ADD SWAP1 JUMP JUMPDEST PUSH1 0x20 DUP1 DUP3 MSTORE PUSH1 0x36 SWAP1 DUP3 ADD MSTORE PUSH32 0x746F46697865642875696E742C75696E74293A206E756D657261746F72206361 PUSH1 0x40 DUP3 ADD MSTORE PUSH32 0x6E6E6F74206265206C657373207468616E207A65726F00000000000000000000 PUSH1 0x60 DUP3 ADD MSTORE PUSH1 0x80 ADD SWAP1 JUMP JUMPDEST PUSH1 0x20 DUP1 DUP3 MSTORE PUSH1 0x14 SWAP1 DUP3 ADD MSTORE PUSH32 0x5F6469763A20646976696465206279207A65726F000000000000000000000000 PUSH1 0x40 DUP3 ADD MSTORE PUSH1 0x60 ADD SWAP1 JUMP JUMPDEST PUSH1 0x20 DUP1 DUP3 MSTORE PUSH1 0xE SWAP1 DUP3 ADD MSTORE PUSH32 0x5F6469763A206F766572666C6F77000000000000000000000000000000000000 PUSH1 0x40 DUP3 ADD MSTORE PUSH1 0x60 ADD SWAP1 JUMP JUMPDEST SWAP1 DUP2 MSTORE PUSH1 0x20 ADD SWAP1 JUMP JUMPDEST PUSH20 0xFFFFFFFFFFFFFFFFFFFFFFFFFFFFFFFFFFFFFFFF DUP2 AND DUP2 EQ PUSH2 0xF8 JUMPI PUSH1 0x0 DUP1 REVERT INVALID LOG3 PUSH6 0x627A7A723158 KECCAK256 PUSH7 0x7F95A7D76C1689 0xE8 0x5C 0x2D SWAP4 0xD3 0x4B 0xC9 SMOD CALLER 0xE6 ORIGIN 0x24 LOG4 DUP11 MULMOD SIGNEXTEND 0x5D 0xBF BALANCE 0xD9 LOG2 0xA9 0x4B 0xD1 PUSH13 0x6578706572696D656E74616CF5 PUSH5 0x736F6C6343 STOP SDIV 0xD STOP BLOCKHASH "
			}
		}
	},
	"sourceTreeHashHex": "0x3d529bd948b464fe7af0bfb0da7956f2f50fd826c9fc33cb76b982cb56be4b80",
	"compiler": {
		"name": "solc",
		"version": "soljson-v0.5.13+commit.5b0b510c.js",
		"settings": {
			"optimizer": {
				"enabled": true,
				"runs": 1000000,
				"details": {
					"yul": true,
					"deduplicate": true,
					"cse": true,
					"constantOptimizer": true
				}
			},
			"outputSelection": {
				"*": {
					"*": [
						"abi",
						"devdoc",
						"evm.bytecode.object",
						"evm.bytecode.sourceMap",
						"evm.deployedBytecode.object",
						"evm.deployedBytecode.sourceMap"
					]
				}
			},
			"evmVersion": "constantinople",
			"remappings": []
		}
	},
	"chains": {}
}