{
	"schemaVersion": "2.0.0",
	"contractName": "TestScam",
	"compilerOutput": {
		"abi": [
			{
				"anonymous": false,
				"inputs": [
					{
						"indexed": false,
						"internalType": "int256",
						"name": "lhs1",
						"type": "int256"
					},
					{
						"indexed": false,
						"internalType": "int256",
						"name": "mid",
						"type": "int256"
					},
					{
						"indexed": false,
						"internalType": "int256",
						"name": "lhs",
						"type": "int256"
					}
				],
				"name": "Bisect",
				"type": "event"
			},
			{
				"anonymous": false,
				"inputs": [
					{
						"indexed": false,
						"internalType": "address",
						"name": "from",
						"type": "address"
					},
					{
						"indexed": false,
						"internalType": "uint256",
						"name": "amountSpent",
						"type": "uint256"
					},
					{
						"indexed": false,
						"internalType": "uint256",
						"name": "amountReceived",
						"type": "uint256"
					},
					{
						"indexed": false,
						"internalType": "int256",
						"name": "x",
						"type": "int256"
					},
					{
						"indexed": false,
						"internalType": "int256",
						"name": "y",
						"type": "int256"
					}
				],
				"name": "Fill",
				"type": "event"
			},
			{
				"anonymous": false,
				"inputs": [
					{
						"indexed": false,
						"internalType": "int256",
						"name": "price",
						"type": "int256"
					},
					{
						"indexed": false,
						"internalType": "int256",
						"name": "deltaB",
						"type": "int256"
					},
					{
						"indexed": false,
						"internalType": "int256",
						"name": "newPBarX",
						"type": "int256"
					},
					{
						"indexed": false,
						"internalType": "int256",
						"name": "pA",
						"type": "int256"
					}
				],
				"name": "Price",
				"type": "event"
			},
			{
				"constant": false,
				"inputs": [
					{
						"internalType": "uint256",
						"name": "amount",
						"type": "uint256"
					}
				],
				"name": "addLiquidity",
				"outputs": [],
				"payable": false,
				"stateMutability": "nonpayable",
				"type": "function"
			},
			{
				"constant": false,
				"inputs": [
					{
						"internalType": "uint256",
						"name": "rhoNumerator",
						"type": "uint256"
					},
					{
						"internalType": "uint256",
						"name": "rhoDenominator",
						"type": "uint256"
					}
				],
				"name": "init",
				"outputs": [],
				"payable": false,
				"stateMutability": "nonpayable",
				"type": "function"
			},
			{
				"constant": false,
				"inputs": [
					{
						"internalType": "uint256",
						"name": "amount",
						"type": "uint256"
					}
				],
				"name": "removeLiquidity",
				"outputs": [],
				"payable": false,
				"stateMutability": "nonpayable",
				"type": "function"
			},
			{
				"constant": false,
				"inputs": [],
				"name": "runBasicTest",
				"outputs": [],
				"payable": false,
				"stateMutability": "nonpayable",
				"type": "function"
			},
			{
				"constant": false,
				"inputs": [],
				"name": "runBasicTestOld",
				"outputs": [],
				"payable": false,
				"stateMutability": "nonpayable",
				"type": "function"
			},
			{
				"constant": false,
				"inputs": [
					{
						"internalType": "address",
						"name": "fromToken",
						"type": "address"
					},
					{
						"internalType": "address",
						"name": "toToken",
						"type": "address"
					},
					{
						"internalType": "uint256",
						"name": "amount",
						"type": "uint256"
					}
				],
				"name": "swap",
				"outputs": [],
				"payable": false,
				"stateMutability": "nonpayable",
				"type": "function"
			}
		],
		"devdoc": {
			"methods": {}
		},
		"evm": {
			"bytecode": {
				"linkReferences": {},
				"object": "0x6080604052612242806100136000396000f3fe608060405234801561001057600080fd5b50600436106100725760003560e01c80639c8f9f23116100505780639c8f9f2314610081578063a5843f081461009c578063df791e50146100af57610072565b806340386cfd1461007757806351c6590a14610081578063978ca36f14610094575b600080fd5b61007f6100c2565b005b61007f61008f366004611dd8565b6101dc565b61007f6101df565b61007f6100aa366004611df0565b6102b9565b61007f6100bd366004611d98565b61030f565b600080547fffffffffffffffffffffffff00000000000000000000000000000000000000009081166001908117909255815416600217905561010561c35061070c565b600255610114620186a061070c565b600355610121600161070c565b60045560636005819055610136906064610768565b6006556101466005612710610768565b60075561016e61015a6001620f4240610809565b610162610828565b9063ffffffff61083c16565b600b5561017f6127156103e8610809565b600c556000546001546101ae9173ffffffffffffffffffffffffffffffffffffffff908116911661271061030f565b6001546000546101da9173ffffffffffffffffffffffffffffffffffffffff908116911661271061030f565b565b50565b600080547fffffffffffffffffffffffff00000000000000000000000000000000000000009081166001908117909255815416600217905561022261c35061070c565b600255610231620186a061070c565b60035561024060656064610768565b60045560636005819055610255906064610768565b6006556102656005612710610768565b60075561027961015a6001620f4240610809565b600b5561028a6127156103e8610809565b600c556001546000546101da9173ffffffffffffffffffffffffffffffffffffffff908116911661271061030f565b8160010181146102fe576040517f08c379a00000000000000000000000000000000000000000000000000000000081526004016102f590611ea0565b60405180910390fd5b6103088282610768565b6006555050565b610317611d0b565b61031f6108a5565b9050600061032c8361070c565b825190915060009081908190819073ffffffffffffffffffffffffffffffffffffffff8a811691161480156103905750856020015173ffffffffffffffffffffffffffffffffffffffff168873ffffffffffffffffffffffffffffffffffffffff16145b156103af5750505050604082015160608301516080840151600161046f565b856020015173ffffffffffffffffffffffffffffffffffffffff168973ffffffffffffffffffffffffffffffffffffffff161480156104075750855173ffffffffffffffffffffffffffffffffffffffff8981169116145b1561043d578560600151935085604001519250610436866080015161042a610828565b9063ffffffff61093816565b915061046f565b6040517f08c379a00000000000000000000000000000000000000000000000000000000081526004016102f590611f0e565b60008061047f8686868a8c610961565b9150915060006104b46104988a60e00151610162610828565b6104a88a8563ffffffff610a6616565b9063ffffffff610a6616565b90506104c760008263ffffffff61083c16565b905060006104d96001620186a0610809565b905060008213156104ed5760009150610516565b806104fe888463ffffffff610ab916565b1361051657610513818863ffffffff61083c16565b91505b60006105368b6101000151610529610ac5565b8d6101400151888b610acb565b6101608c015190915061054f908863ffffffff610a6616565b811315610573576101608b015161056c908863ffffffff610a6616565b90506105a7565b610588876104a88d610160015161042a610828565b8112156105a7576105a4876104a88d610160015161042a610828565b90505b6105af610ac5565b6101008c0152851561062f576105cb898b63ffffffff610ab916565b60408c01526105e0888463ffffffff610ab916565b60608c015260808b018190526040517f2200c1c87d346032bc0d16306152cc3e6e4dfa6d004ce38efa3f38f6f422d9e390610622908690869085908a90611e62565b60405180910390a16106a9565b61063f888463ffffffff610ab916565b60408c0152610654898b63ffffffff610ab916565b60608c01526106658161042a610828565b60808c018190526040517f2200c1c87d346032bc0d16306152cc3e6e4dfa6d004ce38efa3f38f6f422d9e3916106a091879187918a90611e62565b60405180910390a15b6106b28b610ba9565b7f7e7268e5886b114d2e6cb74c6493de4027210117c3ad05fdf159a6fc21ccfc3c338b856000038e604001518f606001516040516106f4959493929190611e11565b60405180910390a15050505050505050505050505050565b600080821215610748576040517f08c379a00000000000000000000000000000000000000000000000000000000081526004016102f590611fd9565b610762826f80000000000000000000000000000000610c56565b92915050565b6000808312156107a4576040517f08c379a00000000000000000000000000000000000000000000000000000000081526004016102f590612112565b60008212156107df576040517f08c379a00000000000000000000000000000000000000000000000000000000081526004016102f590611f45565b6108026107fc846f80000000000000000000000000000000610c56565b83610ccc565b9392505050565b60006108026107fc846f80000000000000000000000000000000610c56565b6f8000000000000000000000000000000090565b60007f8000000000000000000000000000000000000000000000000000000000000000821415610898576040517f08c379a00000000000000000000000000000000000000000000000000000000081526004016102f5906120db565b6108028383600003610d9b565b6108ad611d0b565b50604080516101808101825260005473ffffffffffffffffffffffffffffffffffffffff9081168252600154166020820152600254918101919091526003546060820152600454608082015260055460a082015260065460c082015260075460e0820152600854610100820152600a54610120820152600b54610140820152600c5461016082015290565b60006109526107fc846a8000000000000000000000610c56565b65010000000000029392505050565b6000806109748787878660c00151610e11565b91506000828161098a8a8863ffffffff610ab916565b905060005b6014811015610a565760006109a48585610f0a565b905060006109c06109bb838d63ffffffff61093816565b610f32565b905060006109f76109d78c8563ffffffff610a6616565b6109eb856104a8898763ffffffff610a6616565b9063ffffffff610ab916565b90507f4add19bbbe358caf4af4a31b1299356fc4dccf8b4cf3c87e401b0fa60062f31e828483604051610a2c93929190611e4c565b60405180910390a18c811315610a4457829550610a48565b8296505b50505080600101905061098f565b5091925050509550959350505050565b60006f800000000000000000000000000000008215610a98575065010000000000909105906a80000000000000000000005b6000610aa48585610c56565b9050818181610aaf57fe5b0595945050505050565b60006108028383610d9b565b61023a90565b600080610ad987870361070c565b90506000610afe610af9610aec88610fe1565b849063ffffffff610a6616565b6116cb565b90506000610b0e82610162610828565b90506000610b22878363ffffffff610a6616565b90506000610b36878563ffffffff610a6616565b90506000610b62610b4d858b63ffffffff61093816565b610b5d878b63ffffffff61093816565b610ab9565b90506000610b728261042a610828565b90506000610b97610b836002611cd9565b61042a846109eb898963ffffffff610ab916565b9e9d5050505050505050505050505050565b80516000805473ffffffffffffffffffffffffffffffffffffffff9283167fffffffffffffffffffffffff00000000000000000000000000000000000000009182161790915560208301516001805491909316911617905560408101516002556060810151600355608081015160045560a081015160055560c081015160065560e0810151600755610100810151600855610120810151600a55610140810151600b556101600151600c55565b6000821580610c63575081155b15610c7057506000610762565b5081810281838281610c7e57fe5b05141580610c95575082828281610c9157fe5b0514155b15610762576040517f08c379a00000000000000000000000000000000000000000000000000000000081526004016102f59061206d565b600081610d05576040517f08c379a00000000000000000000000000000000000000000000000000000000081526004016102f59061216f565b7f800000000000000000000000000000000000000000000000000000000000000083148015610d535750817fffffffffffffffffffffffffffffffffffffffffffffffffffffffffffffffff145b15610d8a576040517f08c379a00000000000000000000000000000000000000000000000000000000081526004016102f5906121a6565b818381610d9357fe5b059392505050565b818101600083128015610dae5750600082125b8015610db957508281135b80610dda5750600083138015610dcf5750600082135b8015610dda57508281125b15610762576040517f08c379a00000000000000000000000000000000000000000000000000000000081526004016102f5906120a4565b600080610e24848763ffffffff610a6616565b90506000610e38868363ffffffff61093816565b90506000610e4c838863ffffffff61093816565b90506000610e5c86610162610828565b90506000610e68610828565b841215610e8657610e7f610af9836104a887610fe1565b9050610ea4565b610ea1610e99610af9846104a887610fe1565b61042a610828565b90505b610eb4818963ffffffff610a6616565b95507f3cf9bd989028bfc957ca46fd34c8ed26f90d849442378ee442fcd56cf5cac44f8a8a8a8a610ee48b611cf5565b604051610ef5959493929190611e7d565b60405180910390a15050505050949350505050565b6000610802610f22610f1a610828565b6109eb610828565b61042a858563ffffffff610ab916565b600080610f45838063ffffffff610a6616565b90506000610f59848363ffffffff610a6616565b90506000610f6d828063ffffffff610a6616565b90506000610f81828063ffffffff610a6616565b90506000610f95828063ffffffff610a6616565b90506000610fa9828063ffffffff610a6616565b90506000610fbd828063ffffffff610a6616565b90506000610fd1828863ffffffff610a6616565b985050505050505050505b919050565b60006f8000000000000000000000000000000082131561102d576040517f08c379a00000000000000000000000000000000000000000000000000000000081526004016102f590611fa2565b60008213611067576040517f08c379a00000000000000000000000000000000000000000000000000000000081526004016102f590611ed7565b6f8000000000000000000000000000000082141561108757506000610fdc565b640733048c5a82136110ba57507fffffffffffffffffffffffffffffffe010000000000000000000000000000000610fdc565b60008060006a01c8464f761647600000008513611119577ffffffffffffffffffffffffffffffff000000000000000000000000000000000909301926a01c8464f761647600000006f8000000000000000000000000000000086020594505b6cf1aaddd7742e900000000000008513611177577ffffffffffffffffffffffffffffffff800000000000000000000000000000000909301926cf1aaddd7742e900000000000006f8000000000000000000000000000000086020594505b6e0afe10820813d7800000000000000085136111d9577ffffffffffffffffffffffffffffffffc00000000000000000000000000000000909301926e0afe10820813d780000000000000006f8000000000000000000000000000000086020594505b6f02582ab704279ec00000000000000000851361123d577ffffffffffffffffffffffffffffffffe00000000000000000000000000000000909301926f02582ab704279ec000000000000000006f8000000000000000000000000000000086020594505b6f1152aaa3bf81cc00000000000000000085136112a1577fffffffffffffffffffffffffffffffff00000000000000000000000000000000909301926f1152aaa3bf81cc0000000000000000006f8000000000000000000000000000000086020594505b6f2f16ac6c59de700000000000000000008513611305577fffffffffffffffffffffffffffffffff80000000000000000000000000000000909301926f2f16ac6c59de700000000000000000006f8000000000000000000000000000000086020594505b6f4da2cbf1be58280000000000000000008513611369577fffffffffffffffffffffffffffffffffc0000000000000000000000000000000909301926f4da2cbf1be58280000000000000000006f8000000000000000000000000000000086020594505b6f63afbe7ab2082c00000000000000000085136113cd577fffffffffffffffffffffffffffffffffe0000000000000000000000000000000909301926f63afbe7ab2082c0000000000000000006f8000000000000000000000000000000086020594505b6f70f5a893b608861e1f58934f97aea57d8513611431577ffffffffffffffffffffffffffffffffff0000000000000000000000000000000909301926f70f5a893b608861e1f58934f97aea57d6f8000000000000000000000000000000086020594505b7fffffffffffffffffffffffffffffffff80000000000000000000000000000000850192508291506f80000000000000000000000000000000828002059050700100000000000000000000000000000000838103830205840193506f80000000000000000000000000000000818302816114a757fe5b059150700200000000000000000000000000000000836faaaaaaaaaaaaaaaaaaaaaaaaaaaaaaaa038302816114d857fe5b05840193506f80000000000000000000000000000000818302816114f857fe5b059150700300000000000000000000000000000000836f999999999999999999999999999999990383028161152957fe5b05840193506f800000000000000000000000000000008183028161154957fe5b059150700400000000000000000000000000000000836f924924924924924924924924924924920383028161157a57fe5b05840193506f800000000000000000000000000000008183028161159a57fe5b059150700500000000000000000000000000000000836f8e38e38e38e38e38e38e38e38e38e38e038302816115cb57fe5b05840193506f80000000000000000000000000000000818302816115eb57fe5b059150700600000000000000000000000000000000836f8ba2e8ba2e8ba2e8ba2e8ba2e8ba2e8b0383028161161c57fe5b05840193506f800000000000000000000000000000008183028161163c57fe5b059150700700000000000000000000000000000000836f89d89d89d89d89d89d89d89d89d89d890383028161166d57fe5b05840193506f800000000000000000000000000000008183028161168d57fe5b059150700800000000000000000000000000000000836f88888888888888888888888888888888038302816116be57fe5b0584019350505050919050565b60007fffffffffffffffffffffffffffffffe0100000000000000000000000000000008212156116fd57506000610fdc565b8161171957506f80000000000000000000000000000000610fdc565b6000821315611754576040517f08c379a00000000000000000000000000000000000000000000000000000000081526004016102f590612036565b6f800000000000000000000000000000006f1000000000000000000000000000000083078080028290056710e1b3be415a0000810293909301929091818302059050806705a0913f6b1e000002830192506f80000000000000000000000000000000828202816117c057fe5b05905080670168244fdac7800002830192506f80000000000000000000000000000000828202816117ed57fe5b05905080664807432bc1800002830192506f800000000000000000000000000000008282028161181957fe5b05905080660c0135dca0400002830192506f800000000000000000000000000000008282028161184557fe5b059050806601b707b1cdc00002830192506f800000000000000000000000000000008282028161187157fe5b059050806536e0f639b80002830192506f800000000000000000000000000000008282028161189c57fe5b05905080650618fee9f80002830192506f80000000000000000000000000000000828202816118c757fe5b05905080649c197dcc0002830192506f80000000000000000000000000000000828202816118f157fe5b05905080640e30dce40002830192506f800000000000000000000000000000008282028161191b57fe5b0590508064012ebd130002830192506f800000000000000000000000000000008282028161194557fe5b059050806317499f0002830192506f800000000000000000000000000000008282028161196e57fe5b059050806301a9d48002830192506f800000000000000000000000000000008282028161199757fe5b05905080621c638002830192506f80000000000000000000000000000000828202816119bf57fe5b059050806201c63802830192506f80000000000000000000000000000000828202816119e757fe5b05905080611ab802830192506f8000000000000000000000000000000082820281611a0e57fe5b0590508061017c02830192506f8000000000000000000000000000000082820281611a3557fe5b05905080601402830192506f8000000000000000000000000000000082820281611a5b57fe5b600095909503946721c3677c82b400009190059384010582016f8000000000000000000000000000000001929050701000000000000000000000000000000000841615611aca577243cbaf42a000812488fc5c220ad7b97bf6e99e6cf1aaddd7742e56d32fb9f9974484020592505b700800000000000000000000000000000000841615611b0c577105d27a9f51c31b7c2f8038212a05747799916e0afe10820813d65dfe6a33c07f738f84020592505b700400000000000000000000000000000000841615611b4e57701b4c902e273a58678d6d3bfdb93db96d026f02582ab704279e8efd15e0265855c47a84020592505b700200000000000000000000000000000000841615611b90577003b1cc971a9bb5b9867477440d6d1577506f1152aaa3bf81cb9fdb76eae12d02957184020592505b700100000000000000000000000000000000841615611bd25770015bf0a8b1457695355fb8ac404e7a79e36f2f16ac6c59de6f8d5d6f63c1482a7c8684020592505b6f80000000000000000000000000000000841615611c12576fd3094c70f034de4b96ff7d5b6f99fcd86f4da2cbf1be5827f9eb3ad1aa9866ebb384020592505b6f40000000000000000000000000000000841615611c52576fa45af1e1f40c333b3de1db4dd55f29a76f63afbe7ab2082ba1a0ae5e4eb1b479dc84020592505b6f20000000000000000000000000000000841615611c92576f910b022db7ae67ce76b441c27035c6a16f70f5a893b608861e1f58934f97aea57d84020592505b6f10000000000000000000000000000000841615611cd2576f88415abbe9a76bead8d00cf112e4d4a86f783eafef1c0a8f3978c7f81824d62ebf84020592505b5050919050565b6000610762826f80000000000000000000000000000000610c56565b6f80000000000000000000000000000000900590565b604051806101800160405280600073ffffffffffffffffffffffffffffffffffffffff168152602001600073ffffffffffffffffffffffffffffffffffffffff168152602001600081526020016000815260200160008152602001600081526020016000815260200160008152602001600081526020016000815260200160008152602001600081525090565b600080600060608486031215611dac578283fd5b8335611db7816121dd565b92506020840135611dc7816121dd565b929592945050506040919091013590565b600060208284031215611de9578081fd5b5035919050565b60008060408385031215611e02578182fd5b50508035926020909101359150565b73ffffffffffffffffffffffffffffffffffffffff959095168552602085019390935260408401919091526060830152608082015260a00190565b9283526020830191909152604082015260600190565b93845260208401929092526040830152606082015260800190565b948552602085019390935260408401919091526060830152608082015260a00190565b60208082526015908201527f496e76616c69642076616c756520666f722072686f0000000000000000000000604082015260600190565b60208082526013908201527f6c6e3a2076616c756520746f6f20736d616c6c00000000000000000000000000604082015260600190565b60208082526017908201527f496e76616c696420746f6b656e20616464726573736573000000000000000000604082015260600190565b60208082526038908201527f746f46697865642875696e742c75696e74293a2064656e6f6d696e61746f722060408201527f63616e6e6f74206265206c657373207468616e207a65726f0000000000000000606082015260800190565b60208082526013908201527f6c6e3a2076616c756520746f6f206c6172676500000000000000000000000000604082015260600190565b60208082526027908201527f746f46697865643a2076616c75652063616e6e6f74206265206c65737320746860408201527f616e207a65726f00000000000000000000000000000000000000000000000000606082015260800190565b60208082526014908201527f6578703a2076616c756520746f6f20736d616c6c000000000000000000000000604082015260600190565b6020808252600e908201527f5f6d756c3a206f766572666c6f77000000000000000000000000000000000000604082015260600190565b6020808252600e908201527f5f6164643a206f766572666c6f77000000000000000000000000000000000000604082015260600190565b60208082526014908201527f7375623a2076616c756520746f6f20736d616c6c000000000000000000000000604082015260600190565b60208082526036908201527f746f46697865642875696e742c75696e74293a206e756d657261746f7220636160408201527f6e6e6f74206265206c657373207468616e207a65726f00000000000000000000606082015260800190565b60208082526014908201527f5f6469763a20646976696465206279207a65726f000000000000000000000000604082015260600190565b6020808252600e908201527f5f6469763a206f766572666c6f77000000000000000000000000000000000000604082015260600190565b73ffffffffffffffffffffffffffffffffffffffff811681146101dc57600080fdfea365627a7a72315820d3bd85f1c6c7ee34cead7f6279b7fbc1b5fbe2159189d3a0135ff63716debdf06c6578706572696d656e74616cf564736f6c634300050d0040",
				"opcodes": "PUSH1 0x80 PUSH1 0x40 MSTORE PUSH2 0x2242 DUP1 PUSH2 0x13 PUSH1 0x0 CODECOPY PUSH1 0x0 RETURN INVALID PUSH1 0x80 PUSH1 0x40 MSTORE CALLVALUE DUP1 ISZERO PUSH2 0x10 JUMPI PUSH1 0x0 DUP1 REVERT JUMPDEST POP PUSH1 0x4 CALLDATASIZE LT PUSH2 0x72 JUMPI PUSH1 0x0 CALLDATALOAD PUSH1 0xE0 SHR DUP1 PUSH4 0x9C8F9F23 GT PUSH2 0x50 JUMPI DUP1 PUSH4 0x9C8F9F23 EQ PUSH2 0x81 JUMPI DUP1 PUSH4 0xA5843F08 EQ PUSH2 0x9C JUMPI DUP1 PUSH4 0xDF791E50 EQ PUSH2 0xAF JUMPI PUSH2 0x72 JUMP JUMPDEST DUP1 PUSH4 0x40386CFD EQ PUSH2 0x77 JUMPI DUP1 PUSH4 0x51C6590A EQ PUSH2 0x81 JUMPI DUP1 PUSH4 0x978CA36F EQ PUSH2 0x94 JUMPI JUMPDEST PUSH1 0x0 DUP1 REVERT JUMPDEST PUSH2 0x7F PUSH2 0xC2 JUMP JUMPDEST STOP JUMPDEST PUSH2 0x7F PUSH2 0x8F CALLDATASIZE PUSH1 0x4 PUSH2 0x1DD8 JUMP JUMPDEST PUSH2 0x1DC JUMP JUMPDEST PUSH2 0x7F PUSH2 0x1DF JUMP JUMPDEST PUSH2 0x7F PUSH2 0xAA CALLDATASIZE PUSH1 0x4 PUSH2 0x1DF0 JUMP JUMPDEST PUSH2 0x2B9 JUMP JUMPDEST PUSH2 0x7F PUSH2 0xBD CALLDATASIZE PUSH1 0x4 PUSH2 0x1D98 JUMP JUMPDEST PUSH2 0x30F JUMP JUMPDEST PUSH1 0x0 DUP1 SLOAD PUSH32 0xFFFFFFFFFFFFFFFFFFFFFFFF0000000000000000000000000000000000000000 SWAP1 DUP2 AND PUSH1 0x1 SWAP1 DUP2 OR SWAP1 SWAP3 SSTORE DUP2 SLOAD AND PUSH1 0x2 OR SWAP1 SSTORE PUSH2 0x105 PUSH2 0xC350 PUSH2 0x70C JUMP JUMPDEST PUSH1 0x2 SSTORE PUSH2 0x114 PUSH3 0x186A0 PUSH2 0x70C JUMP JUMPDEST PUSH1 0x3 SSTORE PUSH2 0x121 PUSH1 0x1 PUSH2 0x70C JUMP JUMPDEST PUSH1 0x4 SSTORE PUSH1 0x63 PUSH1 0x5 DUP2 SWAP1 SSTORE PUSH2 0x136 SWAP1 PUSH1 0x64 PUSH2 0x768 JUMP JUMPDEST PUSH1 0x6 SSTORE PUSH2 0x146 PUSH1 0x5 PUSH2 0x2710 PUSH2 0x768 JUMP JUMPDEST PUSH1 0x7 SSTORE PUSH2 0x16E PUSH2 0x15A PUSH1 0x1 PUSH3 0xF4240 PUSH2 0x809 JUMP JUMPDEST PUSH2 0x162 PUSH2 0x828 JUMP JUMPDEST SWAP1 PUSH4 0xFFFFFFFF PUSH2 0x83C AND JUMP JUMPDEST PUSH1 0xB SSTORE PUSH2 0x17F PUSH2 0x2715 PUSH2 0x3E8 PUSH2 0x809 JUMP JUMPDEST PUSH1 0xC SSTORE PUSH1 0x0 SLOAD PUSH1 0x1 SLOAD PUSH2 0x1AE SWAP2 PUSH20 0xFFFFFFFFFFFFFFFFFFFFFFFFFFFFFFFFFFFFFFFF SWAP1 DUP2 AND SWAP2 AND PUSH2 0x2710 PUSH2 0x30F JUMP JUMPDEST PUSH1 0x1 SLOAD PUSH1 0x0 SLOAD PUSH2 0x1DA SWAP2 PUSH20 0xFFFFFFFFFFFFFFFFFFFFFFFFFFFFFFFFFFFFFFFF SWAP1 DUP2 AND SWAP2 AND PUSH2 0x2710 PUSH2 0x30F JUMP JUMPDEST JUMP JUMPDEST POP JUMP JUMPDEST PUSH1 0x0 DUP1 SLOAD PUSH32 0xFFFFFFFFFFFFFFFFFFFFFFFF0000000000000000000000000000000000000000 SWAP1 DUP2 AND PUSH1 0x1 SWAP1 DUP2 OR SWAP1 SWAP3 SSTORE DUP2 SLOAD AND PUSH1 0x2 OR SWAP1 SSTORE PUSH2 0x222 PUSH2 0xC350 PUSH2 0x70C JUMP JUMPDEST PUSH1 0x2 SSTORE PUSH2 0x231 PUSH3 0x186A0 PUSH2 0x70C JUMP JUMPDEST PUSH1 0x3 SSTORE PUSH2 0x240 PUSH1 0x65 PUSH1 0x64 PUSH2 0x768 JUMP JUMPDEST PUSH1 0x4 SSTORE PUSH1 0x63 PUSH1 0x5 DUP2 SWAP1 SSTORE PUSH2 0x255 SWAP1 PUSH1 0x64 PUSH2 0x768 JUMP JUMPDEST PUSH1 0x6 SSTORE PUSH2 0x265 PUSH1 0x5 PUSH2 0x2710 PUSH2 0x768 JUMP JUMPDEST PUSH1 0x7 SSTORE PUSH2 0x279 PUSH2 0x15A PUSH1 0x1 PUSH3 0xF4240 PUSH2 0x809 JUMP JUMPDEST PUSH1 0xB SSTORE PUSH2 0x28A PUSH2 0x2715 PUSH2 0x3E8 PUSH2 0x809 JUMP JUMPDEST PUSH1 0xC SSTORE PUSH1 0x1 SLOAD PUSH1 0x0 SLOAD PUSH2 0x1DA SWAP2 PUSH20 0xFFFFFFFFFFFFFFFFFFFFFFFFFFFFFFFFFFFFFFFF SWAP1 DUP2 AND SWAP2 AND PUSH2 0x2710 PUSH2 0x30F JUMP JUMPDEST DUP2 PUSH1 0x1 ADD DUP2 EQ PUSH2 0x2FE JUMPI PUSH1 0x40 MLOAD PUSH32 0x8C379A000000000000000000000000000000000000000000000000000000000 DUP2 MSTORE PUSH1 0x4 ADD PUSH2 0x2F5 SWAP1 PUSH2 0x1EA0 JUMP JUMPDEST PUSH1 0x40 MLOAD DUP1 SWAP2 SUB SWAP1 REVERT JUMPDEST PUSH2 0x308 DUP3 DUP3 PUSH2 0x768 JUMP JUMPDEST PUSH1 0x6 SSTORE POP POP JUMP JUMPDEST PUSH2 0x317 PUSH2 0x1D0B JUMP JUMPDEST PUSH2 0x31F PUSH2 0x8A5 JUMP JUMPDEST SWAP1 POP PUSH1 0x0 PUSH2 0x32C DUP4 PUSH2 0x70C JUMP JUMPDEST DUP3 MLOAD SWAP1 SWAP2 POP PUSH1 0x0 SWAP1 DUP2 SWAP1 DUP2 SWAP1 DUP2 SWAP1 PUSH20 0xFFFFFFFFFFFFFFFFFFFFFFFFFFFFFFFFFFFFFFFF DUP11 DUP2 AND SWAP2 AND EQ DUP1 ISZERO PUSH2 0x390 JUMPI POP DUP6 PUSH1 0x20 ADD MLOAD PUSH20 0xFFFFFFFFFFFFFFFFFFFFFFFFFFFFFFFFFFFFFFFF AND DUP9 PUSH20 0xFFFFFFFFFFFFFFFFFFFFFFFFFFFFFFFFFFFFFFFF AND EQ JUMPDEST ISZERO PUSH2 0x3AF JUMPI POP POP POP POP PUSH1 0x40 DUP3 ADD MLOAD PUSH1 0x60 DUP4 ADD MLOAD PUSH1 0x80 DUP5 ADD MLOAD PUSH1 0x1 PUSH2 0x46F JUMP JUMPDEST DUP6 PUSH1 0x20 ADD MLOAD PUSH20 0xFFFFFFFFFFFFFFFFFFFFFFFFFFFFFFFFFFFFFFFF AND DUP10 PUSH20 0xFFFFFFFFFFFFFFFFFFFFFFFFFFFFFFFFFFFFFFFF AND EQ DUP1 ISZERO PUSH2 0x407 JUMPI POP DUP6 MLOAD PUSH20 0xFFFFFFFFFFFFFFFFFFFFFFFFFFFFFFFFFFFFFFFF DUP10 DUP2 AND SWAP2 AND EQ JUMPDEST ISZERO PUSH2 0x43D JUMPI DUP6 PUSH1 0x60 ADD MLOAD SWAP4 POP DUP6 PUSH1 0x40 ADD MLOAD SWAP3 POP PUSH2 0x436 DUP7 PUSH1 0x80 ADD MLOAD PUSH2 0x42A PUSH2 0x828 JUMP JUMPDEST SWAP1 PUSH4 0xFFFFFFFF PUSH2 0x938 AND JUMP JUMPDEST SWAP2 POP PUSH2 0x46F JUMP JUMPDEST PUSH1 0x40 MLOAD PUSH32 0x8C379A000000000000000000000000000000000000000000000000000000000 DUP2 MSTORE PUSH1 0x4 ADD PUSH2 0x2F5 SWAP1 PUSH2 0x1F0E JUMP JUMPDEST PUSH1 0x0 DUP1 PUSH2 0x47F DUP7 DUP7 DUP7 DUP11 DUP13 PUSH2 0x961 JUMP JUMPDEST SWAP2 POP SWAP2 POP PUSH1 0x0 PUSH2 0x4B4 PUSH2 0x498 DUP11 PUSH1 0xE0 ADD MLOAD PUSH2 0x162 PUSH2 0x828 JUMP JUMPDEST PUSH2 0x4A8 DUP11 DUP6 PUSH4 0xFFFFFFFF PUSH2 0xA66 AND JUMP JUMPDEST SWAP1 PUSH4 0xFFFFFFFF PUSH2 0xA66 AND JUMP JUMPDEST SWAP1 POP PUSH2 0x4C7 PUSH1 0x0 DUP3 PUSH4 0xFFFFFFFF PUSH2 0x83C AND JUMP JUMPDEST SWAP1 POP PUSH1 0x0 PUSH2 0x4D9 PUSH1 0x1 PUSH3 0x186A0 PUSH2 0x809 JUMP JUMPDEST SWAP1 POP PUSH1 0x0 DUP3 SGT ISZERO PUSH2 0x4ED JUMPI PUSH1 0x0 SWAP2 POP PUSH2 0x516 JUMP JUMPDEST DUP1 PUSH2 0x4FE DUP9 DUP5 PUSH4 0xFFFFFFFF PUSH2 0xAB9 AND JUMP JUMPDEST SGT PUSH2 0x516 JUMPI PUSH2 0x513 DUP2 DUP9 PUSH4 0xFFFFFFFF PUSH2 0x83C AND JUMP JUMPDEST SWAP2 POP JUMPDEST PUSH1 0x0 PUSH2 0x536 DUP12 PUSH2 0x100 ADD MLOAD PUSH2 0x529 PUSH2 0xAC5 JUMP JUMPDEST DUP14 PUSH2 0x140 ADD MLOAD DUP9 DUP12 PUSH2 0xACB JUMP JUMPDEST PUSH2 0x160 DUP13 ADD MLOAD SWAP1 SWAP2 POP PUSH2 0x54F SWAP1 DUP9 PUSH4 0xFFFFFFFF PUSH2 0xA66 AND JUMP JUMPDEST DUP2 SGT ISZERO PUSH2 0x573 JUMPI PUSH2 0x160 DUP12 ADD MLOAD PUSH2 0x56C SWAP1 DUP9 PUSH4 0xFFFFFFFF PUSH2 0xA66 AND JUMP JUMPDEST SWAP1 POP PUSH2 0x5A7 JUMP JUMPDEST PUSH2 0x588 DUP8 PUSH2 0x4A8 DUP14 PUSH2 0x160 ADD MLOAD PUSH2 0x42A PUSH2 0x828 JUMP JUMPDEST DUP2 SLT ISZERO PUSH2 0x5A7 JUMPI PUSH2 0x5A4 DUP8 PUSH2 0x4A8 DUP14 PUSH2 0x160 ADD MLOAD PUSH2 0x42A PUSH2 0x828 JUMP JUMPDEST SWAP1 POP JUMPDEST PUSH2 0x5AF PUSH2 0xAC5 JUMP JUMPDEST PUSH2 0x100 DUP13 ADD MSTORE DUP6 ISZERO PUSH2 0x62F JUMPI PUSH2 0x5CB DUP10 DUP12 PUSH4 0xFFFFFFFF PUSH2 0xAB9 AND JUMP JUMPDEST PUSH1 0x40 DUP13 ADD MSTORE PUSH2 0x5E0 DUP9 DUP5 PUSH4 0xFFFFFFFF PUSH2 0xAB9 AND JUMP JUMPDEST PUSH1 0x60 DUP13 ADD MSTORE PUSH1 0x80 DUP12 ADD DUP2 SWAP1 MSTORE PUSH1 0x40 MLOAD PUSH32 0x2200C1C87D346032BC0D16306152CC3E6E4DFA6D004CE38EFA3F38F6F422D9E3 SWAP1 PUSH2 0x622 SWAP1 DUP7 SWAP1 DUP7 SWAP1 DUP6 SWAP1 DUP11 SWAP1 PUSH2 0x1E62 JUMP JUMPDEST PUSH1 0x40 MLOAD DUP1 SWAP2 SUB SWAP1 LOG1 PUSH2 0x6A9 JUMP JUMPDEST PUSH2 0x63F DUP9 DUP5 PUSH4 0xFFFFFFFF PUSH2 0xAB9 AND JUMP JUMPDEST PUSH1 0x40 DUP13 ADD MSTORE PUSH2 0x654 DUP10 DUP12 PUSH4 0xFFFFFFFF PUSH2 0xAB9 AND JUMP JUMPDEST PUSH1 0x60 DUP13 ADD MSTORE PUSH2 0x665 DUP2 PUSH2 0x42A PUSH2 0x828 JUMP JUMPDEST PUSH1 0x80 DUP13 ADD DUP2 SWAP1 MSTORE PUSH1 0x40 MLOAD PUSH32 0x2200C1C87D346032BC0D16306152CC3E6E4DFA6D004CE38EFA3F38F6F422D9E3 SWAP2 PUSH2 0x6A0 SWAP2 DUP8 SWAP2 DUP8 SWAP2 DUP11 SWAP1 PUSH2 0x1E62 JUMP JUMPDEST PUSH1 0x40 MLOAD DUP1 SWAP2 SUB SWAP1 LOG1 JUMPDEST PUSH2 0x6B2 DUP12 PUSH2 0xBA9 JUMP JUMPDEST PUSH32 0x7E7268E5886B114D2E6CB74C6493DE4027210117C3AD05FDF159A6FC21CCFC3C CALLER DUP12 DUP6 PUSH1 0x0 SUB DUP15 PUSH1 0x40 ADD MLOAD DUP16 PUSH1 0x60 ADD MLOAD PUSH1 0x40 MLOAD PUSH2 0x6F4 SWAP6 SWAP5 SWAP4 SWAP3 SWAP2 SWAP1 PUSH2 0x1E11 JUMP JUMPDEST PUSH1 0x40 MLOAD DUP1 SWAP2 SUB SWAP1 LOG1 POP POP POP POP POP POP POP POP POP POP POP POP POP POP JUMP JUMPDEST PUSH1 0x0 DUP1 DUP3 SLT ISZERO PUSH2 0x748 JUMPI PUSH1 0x40 MLOAD PUSH32 0x8C379A000000000000000000000000000000000000000000000000000000000 DUP2 MSTORE PUSH1 0x4 ADD PUSH2 0x2F5 SWAP1 PUSH2 0x1FD9 JUMP JUMPDEST PUSH2 0x762 DUP3 PUSH16 0x80000000000000000000000000000000 PUSH2 0xC56 JUMP JUMPDEST SWAP3 SWAP2 POP POP JUMP JUMPDEST PUSH1 0x0 DUP1 DUP4 SLT ISZERO PUSH2 0x7A4 JUMPI PUSH1 0x40 MLOAD PUSH32 0x8C379A000000000000000000000000000000000000000000000000000000000 DUP2 MSTORE PUSH1 0x4 ADD PUSH2 0x2F5 SWAP1 PUSH2 0x2112 JUMP JUMPDEST PUSH1 0x0 DUP3 SLT ISZERO PUSH2 0x7DF JUMPI PUSH1 0x40 MLOAD PUSH32 0x8C379A000000000000000000000000000000000000000000000000000000000 DUP2 MSTORE PUSH1 0x4 ADD PUSH2 0x2F5 SWAP1 PUSH2 0x1F45 JUMP JUMPDEST PUSH2 0x802 PUSH2 0x7FC DUP5 PUSH16 0x80000000000000000000000000000000 PUSH2 0xC56 JUMP JUMPDEST DUP4 PUSH2 0xCCC JUMP JUMPDEST SWAP4 SWAP3 POP POP POP JUMP JUMPDEST PUSH1 0x0 PUSH2 0x802 PUSH2 0x7FC DUP5 PUSH16 0x80000000000000000000000000000000 PUSH2 0xC56 JUMP JUMPDEST PUSH16 0x80000000000000000000000000000000 SWAP1 JUMP JUMPDEST PUSH1 0x0 PUSH32 0x8000000000000000000000000000000000000000000000000000000000000000 DUP3 EQ ISZERO PUSH2 0x898 JUMPI PUSH1 0x40 MLOAD PUSH32 0x8C379A000000000000000000000000000000000000000000000000000000000 DUP2 MSTORE PUSH1 0x4 ADD PUSH2 0x2F5 SWAP1 PUSH2 0x20DB JUMP JUMPDEST PUSH2 0x802 DUP4 DUP4 PUSH1 0x0 SUB PUSH2 0xD9B JUMP JUMPDEST PUSH2 0x8AD PUSH2 0x1D0B JUMP JUMPDEST POP PUSH1 0x40 DUP1 MLOAD PUSH2 0x180 DUP2 ADD DUP3 MSTORE PUSH1 0x0 SLOAD PUSH20 0xFFFFFFFFFFFFFFFFFFFFFFFFFFFFFFFFFFFFFFFF SWAP1 DUP2 AND DUP3 MSTORE PUSH1 0x1 SLOAD AND PUSH1 0x20 DUP3 ADD MSTORE PUSH1 0x2 SLOAD SWAP2 DUP2 ADD SWAP2 SWAP1 SWAP2 MSTORE PUSH1 0x3 SLOAD PUSH1 0x60 DUP3 ADD MSTORE PUSH1 0x4 SLOAD PUSH1 0x80 DUP3 ADD MSTORE PUSH1 0x5 SLOAD PUSH1 0xA0 DUP3 ADD MSTORE PUSH1 0x6 SLOAD PUSH1 0xC0 DUP3 ADD MSTORE PUSH1 0x7 SLOAD PUSH1 0xE0 DUP3 ADD MSTORE PUSH1 0x8 SLOAD PUSH2 0x100 DUP3 ADD MSTORE PUSH1 0xA SLOAD PUSH2 0x120 DUP3 ADD MSTORE PUSH1 0xB SLOAD PUSH2 0x140 DUP3 ADD MSTORE PUSH1 0xC SLOAD PUSH2 0x160 DUP3 ADD MSTORE SWAP1 JUMP JUMPDEST PUSH1 0x0 PUSH2 0x952 PUSH2 0x7FC DUP5 PUSH11 0x8000000000000000000000 PUSH2 0xC56 JUMP JUMPDEST PUSH6 0x10000000000 MUL SWAP4 SWAP3 POP POP POP JUMP JUMPDEST PUSH1 0x0 DUP1 PUSH2 0x974 DUP8 DUP8 DUP8 DUP7 PUSH1 0xC0 ADD MLOAD PUSH2 0xE11 JUMP JUMPDEST SWAP2 POP PUSH1 0x0 DUP3 DUP2 PUSH2 0x98A DUP11 DUP9 PUSH4 0xFFFFFFFF PUSH2 0xAB9 AND JUMP JUMPDEST SWAP1 POP PUSH1 0x0 JUMPDEST PUSH1 0x14 DUP2 LT ISZERO PUSH2 0xA56 JUMPI PUSH1 0x0 PUSH2 0x9A4 DUP6 DUP6 PUSH2 0xF0A JUMP JUMPDEST SWAP1 POP PUSH1 0x0 PUSH2 0x9C0 PUSH2 0x9BB DUP4 DUP14 PUSH4 0xFFFFFFFF PUSH2 0x938 AND JUMP JUMPDEST PUSH2 0xF32 JUMP JUMPDEST SWAP1 POP PUSH1 0x0 PUSH2 0x9F7 PUSH2 0x9D7 DUP13 DUP6 PUSH4 0xFFFFFFFF PUSH2 0xA66 AND JUMP JUMPDEST PUSH2 0x9EB DUP6 PUSH2 0x4A8 DUP10 DUP8 PUSH4 0xFFFFFFFF PUSH2 0xA66 AND JUMP JUMPDEST SWAP1 PUSH4 0xFFFFFFFF PUSH2 0xAB9 AND JUMP JUMPDEST SWAP1 POP PUSH32 0x4ADD19BBBE358CAF4AF4A31B1299356FC4DCCF8B4CF3C87E401B0FA60062F31E DUP3 DUP5 DUP4 PUSH1 0x40 MLOAD PUSH2 0xA2C SWAP4 SWAP3 SWAP2 SWAP1 PUSH2 0x1E4C JUMP JUMPDEST PUSH1 0x40 MLOAD DUP1 SWAP2 SUB SWAP1 LOG1 DUP13 DUP2 SGT ISZERO PUSH2 0xA44 JUMPI DUP3 SWAP6 POP PUSH2 0xA48 JUMP JUMPDEST DUP3 SWAP7 POP JUMPDEST POP POP POP DUP1 PUSH1 0x1 ADD SWAP1 POP PUSH2 0x98F JUMP JUMPDEST POP SWAP2 SWAP3 POP POP POP SWAP6 POP SWAP6 SWAP4 POP POP POP POP JUMP JUMPDEST PUSH1 0x0 PUSH16 0x80000000000000000000000000000000 DUP3 ISZERO PUSH2 0xA98 JUMPI POP PUSH6 0x10000000000 SWAP1 SWAP2 SDIV SWAP1 PUSH11 0x8000000000000000000000 JUMPDEST PUSH1 0x0 PUSH2 0xAA4 DUP6 DUP6 PUSH2 0xC56 JUMP JUMPDEST SWAP1 POP DUP2 DUP2 DUP2 PUSH2 0xAAF JUMPI INVALID JUMPDEST SDIV SWAP6 SWAP5 POP POP POP POP POP JUMP JUMPDEST PUSH1 0x0 PUSH2 0x802 DUP4 DUP4 PUSH2 0xD9B JUMP JUMPDEST PUSH2 0x23A SWAP1 JUMP JUMPDEST PUSH1 0x0 DUP1 PUSH2 0xAD9 DUP8 DUP8 SUB PUSH2 0x70C JUMP JUMPDEST SWAP1 POP PUSH1 0x0 PUSH2 0xAFE PUSH2 0xAF9 PUSH2 0xAEC DUP9 PUSH2 0xFE1 JUMP JUMPDEST DUP5 SWAP1 PUSH4 0xFFFFFFFF PUSH2 0xA66 AND JUMP JUMPDEST PUSH2 0x16CB JUMP JUMPDEST SWAP1 POP PUSH1 0x0 PUSH2 0xB0E DUP3 PUSH2 0x162 PUSH2 0x828 JUMP JUMPDEST SWAP1 POP PUSH1 0x0 PUSH2 0xB22 DUP8 DUP4 PUSH4 0xFFFFFFFF PUSH2 0xA66 AND JUMP JUMPDEST SWAP1 POP PUSH1 0x0 PUSH2 0xB36 DUP8 DUP6 PUSH4 0xFFFFFFFF PUSH2 0xA66 AND JUMP JUMPDEST SWAP1 POP PUSH1 0x0 PUSH2 0xB62 PUSH2 0xB4D DUP6 DUP12 PUSH4 0xFFFFFFFF PUSH2 0x938 AND JUMP JUMPDEST PUSH2 0xB5D DUP8 DUP12 PUSH4 0xFFFFFFFF PUSH2 0x938 AND JUMP JUMPDEST PUSH2 0xAB9 JUMP JUMPDEST SWAP1 POP PUSH1 0x0 PUSH2 0xB72 DUP3 PUSH2 0x42A PUSH2 0x828 JUMP JUMPDEST SWAP1 POP PUSH1 0x0 PUSH2 0xB97 PUSH2 0xB83 PUSH1 0x2 PUSH2 0x1CD9 JUMP JUMPDEST PUSH2 0x42A DUP5 PUSH2 0x9EB DUP10 DUP10 PUSH4 0xFFFFFFFF PUSH2 0xAB9 AND JUMP JUMPDEST SWAP15 SWAP14 POP POP POP POP POP POP POP POP POP POP POP POP POP POP JUMP JUMPDEST DUP1 MLOAD PUSH1 0x0 DUP1 SLOAD PUSH20 0xFFFFFFFFFFFFFFFFFFFFFFFFFFFFFFFFFFFFFFFF SWAP3 DUP4 AND PUSH32 0xFFFFFFFFFFFFFFFFFFFFFFFF0000000000000000000000000000000000000000 SWAP2 DUP3 AND OR SWAP1 SWAP2 SSTORE PUSH1 0x20 DUP4 ADD MLOAD PUSH1 0x1 DUP1 SLOAD SWAP2 SWAP1 SWAP4 AND SWAP2 AND OR SWAP1 SSTORE PUSH1 0x40 DUP2 ADD MLOAD PUSH1 0x2 SSTORE PUSH1 0x60 DUP2 ADD MLOAD PUSH1 0x3 SSTORE PUSH1 0x80 DUP2 ADD MLOAD PUSH1 0x4 SSTORE PUSH1 0xA0 DUP2 ADD MLOAD PUSH1 0x5 SSTORE PUSH1 0xC0 DUP2 ADD MLOAD PUSH1 0x6 SSTORE PUSH1 0xE0 DUP2 ADD MLOAD PUSH1 0x7 SSTORE PUSH2 0x100 DUP2 ADD MLOAD PUSH1 0x8 SSTORE PUSH2 0x120 DUP2 ADD MLOAD PUSH1 0xA SSTORE PUSH2 0x140 DUP2 ADD MLOAD PUSH1 0xB SSTORE PUSH2 0x160 ADD MLOAD PUSH1 0xC SSTORE JUMP JUMPDEST PUSH1 0x0 DUP3 ISZERO DUP1 PUSH2 0xC63 JUMPI POP DUP2 ISZERO JUMPDEST ISZERO PUSH2 0xC70 JUMPI POP PUSH1 0x0 PUSH2 0x762 JUMP JUMPDEST POP DUP2 DUP2 MUL DUP2 DUP4 DUP3 DUP2 PUSH2 0xC7E JUMPI INVALID JUMPDEST SDIV EQ ISZERO DUP1 PUSH2 0xC95 JUMPI POP DUP3 DUP3 DUP3 DUP2 PUSH2 0xC91 JUMPI INVALID JUMPDEST SDIV EQ ISZERO JUMPDEST ISZERO PUSH2 0x762 JUMPI PUSH1 0x40 MLOAD PUSH32 0x8C379A000000000000000000000000000000000000000000000000000000000 DUP2 MSTORE PUSH1 0x4 ADD PUSH2 0x2F5 SWAP1 PUSH2 0x206D JUMP JUMPDEST PUSH1 0x0 DUP2 PUSH2 0xD05 JUMPI PUSH1 0x40 MLOAD PUSH32 0x8C379A000000000000000000000000000000000000000000000000000000000 DUP2 MSTORE PUSH1 0x4 ADD PUSH2 0x2F5 SWAP1 PUSH2 0x216F JUMP JUMPDEST PUSH32 0x8000000000000000000000000000000000000000000000000000000000000000 DUP4 EQ DUP1 ISZERO PUSH2 0xD53 JUMPI POP DUP2 PUSH32 0xFFFFFFFFFFFFFFFFFFFFFFFFFFFFFFFFFFFFFFFFFFFFFFFFFFFFFFFFFFFFFFFF EQ JUMPDEST ISZERO PUSH2 0xD8A JUMPI PUSH1 0x40 MLOAD PUSH32 0x8C379A000000000000000000000000000000000000000000000000000000000 DUP2 MSTORE PUSH1 0x4 ADD PUSH2 0x2F5 SWAP1 PUSH2 0x21A6 JUMP JUMPDEST DUP2 DUP4 DUP2 PUSH2 0xD93 JUMPI INVALID JUMPDEST SDIV SWAP4 SWAP3 POP POP POP JUMP JUMPDEST DUP2 DUP2 ADD PUSH1 0x0 DUP4 SLT DUP1 ISZERO PUSH2 0xDAE JUMPI POP PUSH1 0x0 DUP3 SLT JUMPDEST DUP1 ISZERO PUSH2 0xDB9 JUMPI POP DUP3 DUP2 SGT JUMPDEST DUP1 PUSH2 0xDDA JUMPI POP PUSH1 0x0 DUP4 SGT DUP1 ISZERO PUSH2 0xDCF JUMPI POP PUSH1 0x0 DUP3 SGT JUMPDEST DUP1 ISZERO PUSH2 0xDDA JUMPI POP DUP3 DUP2 SLT JUMPDEST ISZERO PUSH2 0x762 JUMPI PUSH1 0x40 MLOAD PUSH32 0x8C379A000000000000000000000000000000000000000000000000000000000 DUP2 MSTORE PUSH1 0x4 ADD PUSH2 0x2F5 SWAP1 PUSH2 0x20A4 JUMP JUMPDEST PUSH1 0x0 DUP1 PUSH2 0xE24 DUP5 DUP8 PUSH4 0xFFFFFFFF PUSH2 0xA66 AND JUMP JUMPDEST SWAP1 POP PUSH1 0x0 PUSH2 0xE38 DUP7 DUP4 PUSH4 0xFFFFFFFF PUSH2 0x938 AND JUMP JUMPDEST SWAP1 POP PUSH1 0x0 PUSH2 0xE4C DUP4 DUP9 PUSH4 0xFFFFFFFF PUSH2 0x938 AND JUMP JUMPDEST SWAP1 POP PUSH1 0x0 PUSH2 0xE5C DUP7 PUSH2 0x162 PUSH2 0x828 JUMP JUMPDEST SWAP1 POP PUSH1 0x0 PUSH2 0xE68 PUSH2 0x828 JUMP JUMPDEST DUP5 SLT ISZERO PUSH2 0xE86 JUMPI PUSH2 0xE7F PUSH2 0xAF9 DUP4 PUSH2 0x4A8 DUP8 PUSH2 0xFE1 JUMP JUMPDEST SWAP1 POP PUSH2 0xEA4 JUMP JUMPDEST PUSH2 0xEA1 PUSH2 0xE99 PUSH2 0xAF9 DUP5 PUSH2 0x4A8 DUP8 PUSH2 0xFE1 JUMP JUMPDEST PUSH2 0x42A PUSH2 0x828 JUMP JUMPDEST SWAP1 POP JUMPDEST PUSH2 0xEB4 DUP2 DUP10 PUSH4 0xFFFFFFFF PUSH2 0xA66 AND JUMP JUMPDEST SWAP6 POP PUSH32 0x3CF9BD989028BFC957CA46FD34C8ED26F90D849442378EE442FCD56CF5CAC44F DUP11 DUP11 DUP11 DUP11 PUSH2 0xEE4 DUP12 PUSH2 0x1CF5 JUMP JUMPDEST PUSH1 0x40 MLOAD PUSH2 0xEF5 SWAP6 SWAP5 SWAP4 SWAP3 SWAP2 SWAP1 PUSH2 0x1E7D JUMP JUMPDEST PUSH1 0x40 MLOAD DUP1 SWAP2 SUB SWAP1 LOG1 POP POP POP POP POP SWAP5 SWAP4 POP POP POP POP JUMP JUMPDEST PUSH1 0x0 PUSH2 0x802 PUSH2 0xF22 PUSH2 0xF1A PUSH2 0x828 JUMP JUMPDEST PUSH2 0x9EB PUSH2 0x828 JUMP JUMPDEST PUSH2 0x42A DUP6 DUP6 PUSH4 0xFFFFFFFF PUSH2 0xAB9 AND JUMP JUMPDEST PUSH1 0x0 DUP1 PUSH2 0xF45 DUP4 DUP1 PUSH4 0xFFFFFFFF PUSH2 0xA66 AND JUMP JUMPDEST SWAP1 POP PUSH1 0x0 PUSH2 0xF59 DUP5 DUP4 PUSH4 0xFFFFFFFF PUSH2 0xA66 AND JUMP JUMPDEST SWAP1 POP PUSH1 0x0 PUSH2 0xF6D DUP3 DUP1 PUSH4 0xFFFFFFFF PUSH2 0xA66 AND JUMP JUMPDEST SWAP1 POP PUSH1 0x0 PUSH2 0xF81 DUP3 DUP1 PUSH4 0xFFFFFFFF PUSH2 0xA66 AND JUMP JUMPDEST SWAP1 POP PUSH1 0x0 PUSH2 0xF95 DUP3 DUP1 PUSH4 0xFFFFFFFF PUSH2 0xA66 AND JUMP JUMPDEST SWAP1 POP PUSH1 0x0 PUSH2 0xFA9 DUP3 DUP1 PUSH4 0xFFFFFFFF PUSH2 0xA66 AND JUMP JUMPDEST SWAP1 POP PUSH1 0x0 PUSH2 0xFBD DUP3 DUP1 PUSH4 0xFFFFFFFF PUSH2 0xA66 AND JUMP JUMPDEST SWAP1 POP PUSH1 0x0 PUSH2 0xFD1 DUP3 DUP9 PUSH4 0xFFFFFFFF PUSH2 0xA66 AND JUMP JUMPDEST SWAP9 POP POP POP POP POP POP POP POP POP JUMPDEST SWAP2 SWAP1 POP JUMP JUMPDEST PUSH1 0x0 PUSH16 0x80000000000000000000000000000000 DUP3 SGT ISZERO PUSH2 0x102D JUMPI PUSH1 0x40 MLOAD PUSH32 0x8C379A000000000000000000000000000000000000000000000000000000000 DUP2 MSTORE PUSH1 0x4 ADD PUSH2 0x2F5 SWAP1 PUSH2 0x1FA2 JUMP JUMPDEST PUSH1 0x0 DUP3 SGT PUSH2 0x1067 JUMPI PUSH1 0x40 MLOAD PUSH32 0x8C379A000000000000000000000000000000000000000000000000000000000 DUP2 MSTORE PUSH1 0x4 ADD PUSH2 0x2F5 SWAP1 PUSH2 0x1ED7 JUMP JUMPDEST PUSH16 0x80000000000000000000000000000000 DUP3 EQ ISZERO PUSH2 0x1087 JUMPI POP PUSH1 0x0 PUSH2 0xFDC JUMP JUMPDEST PUSH5 0x733048C5A DUP3 SGT PUSH2 0x10BA JUMPI POP PUSH32 0xFFFFFFFFFFFFFFFFFFFFFFFFFFFFFFE010000000000000000000000000000000 PUSH2 0xFDC JUMP JUMPDEST PUSH1 0x0 DUP1 PUSH1 0x0 PUSH11 0x1C8464F76164760000000 DUP6 SGT PUSH2 0x1119 JUMPI PUSH32 0xFFFFFFFFFFFFFFFFFFFFFFFFFFFFFFF000000000000000000000000000000000 SWAP1 SWAP4 ADD SWAP3 PUSH11 0x1C8464F76164760000000 PUSH16 0x80000000000000000000000000000000 DUP7 MUL SDIV SWAP5 POP JUMPDEST PUSH13 0xF1AADDD7742E90000000000000 DUP6 SGT PUSH2 0x1177 JUMPI PUSH32 0xFFFFFFFFFFFFFFFFFFFFFFFFFFFFFFF800000000000000000000000000000000 SWAP1 SWAP4 ADD SWAP3 PUSH13 0xF1AADDD7742E90000000000000 PUSH16 0x80000000000000000000000000000000 DUP7 MUL SDIV SWAP5 POP JUMPDEST PUSH15 0xAFE10820813D78000000000000000 DUP6 SGT PUSH2 0x11D9 JUMPI PUSH32 0xFFFFFFFFFFFFFFFFFFFFFFFFFFFFFFFC00000000000000000000000000000000 SWAP1 SWAP4 ADD SWAP3 PUSH15 0xAFE10820813D78000000000000000 PUSH16 0x80000000000000000000000000000000 DUP7 MUL SDIV SWAP5 POP JUMPDEST PUSH16 0x2582AB704279EC00000000000000000 DUP6 SGT PUSH2 0x123D JUMPI PUSH32 0xFFFFFFFFFFFFFFFFFFFFFFFFFFFFFFFE00000000000000000000000000000000 SWAP1 SWAP4 ADD SWAP3 PUSH16 0x2582AB704279EC00000000000000000 PUSH16 0x80000000000000000000000000000000 DUP7 MUL SDIV SWAP5 POP JUMPDEST PUSH16 0x1152AAA3BF81CC000000000000000000 DUP6 SGT PUSH2 0x12A1 JUMPI PUSH32 0xFFFFFFFFFFFFFFFFFFFFFFFFFFFFFFFF00000000000000000000000000000000 SWAP1 SWAP4 ADD SWAP3 PUSH16 0x1152AAA3BF81CC000000000000000000 PUSH16 0x80000000000000000000000000000000 DUP7 MUL SDIV SWAP5 POP JUMPDEST PUSH16 0x2F16AC6C59DE70000000000000000000 DUP6 SGT PUSH2 0x1305 JUMPI PUSH32 0xFFFFFFFFFFFFFFFFFFFFFFFFFFFFFFFF80000000000000000000000000000000 SWAP1 SWAP4 ADD SWAP3 PUSH16 0x2F16AC6C59DE70000000000000000000 PUSH16 0x80000000000000000000000000000000 DUP7 MUL SDIV SWAP5 POP JUMPDEST PUSH16 0x4DA2CBF1BE5828000000000000000000 DUP6 SGT PUSH2 0x1369 JUMPI PUSH32 0xFFFFFFFFFFFFFFFFFFFFFFFFFFFFFFFFC0000000000000000000000000000000 SWAP1 SWAP4 ADD SWAP3 PUSH16 0x4DA2CBF1BE5828000000000000000000 PUSH16 0x80000000000000000000000000000000 DUP7 MUL SDIV SWAP5 POP JUMPDEST PUSH16 0x63AFBE7AB2082C000000000000000000 DUP6 SGT PUSH2 0x13CD JUMPI PUSH32 0xFFFFFFFFFFFFFFFFFFFFFFFFFFFFFFFFE0000000000000000000000000000000 SWAP1 SWAP4 ADD SWAP3 PUSH16 0x63AFBE7AB2082C000000000000000000 PUSH16 0x80000000000000000000000000000000 DUP7 MUL SDIV SWAP5 POP JUMPDEST PUSH16 0x70F5A893B608861E1F58934F97AEA57D DUP6 SGT PUSH2 0x1431 JUMPI PUSH32 0xFFFFFFFFFFFFFFFFFFFFFFFFFFFFFFFFF0000000000000000000000000000000 SWAP1 SWAP4 ADD SWAP3 PUSH16 0x70F5A893B608861E1F58934F97AEA57D PUSH16 0x80000000000000000000000000000000 DUP7 MUL SDIV SWAP5 POP JUMPDEST PUSH32 0xFFFFFFFFFFFFFFFFFFFFFFFFFFFFFFFF80000000000000000000000000000000 DUP6 ADD SWAP3 POP DUP3 SWAP2 POP PUSH16 0x80000000000000000000000000000000 DUP3 DUP1 MUL SDIV SWAP1 POP PUSH17 0x100000000000000000000000000000000 DUP4 DUP2 SUB DUP4 MUL SDIV DUP5 ADD SWAP4 POP PUSH16 0x80000000000000000000000000000000 DUP2 DUP4 MUL DUP2 PUSH2 0x14A7 JUMPI INVALID JUMPDEST SDIV SWAP2 POP PUSH17 0x200000000000000000000000000000000 DUP4 PUSH16 0xAAAAAAAAAAAAAAAAAAAAAAAAAAAAAAAA SUB DUP4 MUL DUP2 PUSH2 0x14D8 JUMPI INVALID JUMPDEST SDIV DUP5 ADD SWAP4 POP PUSH16 0x80000000000000000000000000000000 DUP2 DUP4 MUL DUP2 PUSH2 0x14F8 JUMPI INVALID JUMPDEST SDIV SWAP2 POP PUSH17 0x300000000000000000000000000000000 DUP4 PUSH16 0x99999999999999999999999999999999 SUB DUP4 MUL DUP2 PUSH2 0x1529 JUMPI INVALID JUMPDEST SDIV DUP5 ADD SWAP4 POP PUSH16 0x80000000000000000000000000000000 DUP2 DUP4 MUL DUP2 PUSH2 0x1549 JUMPI INVALID JUMPDEST SDIV SWAP2 POP PUSH17 0x400000000000000000000000000000000 DUP4 PUSH16 0x92492492492492492492492492492492 SUB DUP4 MUL DUP2 PUSH2 0x157A JUMPI INVALID JUMPDEST SDIV DUP5 ADD SWAP4 POP PUSH16 0x80000000000000000000000000000000 DUP2 DUP4 MUL DUP2 PUSH2 0x159A JUMPI INVALID JUMPDEST SDIV SWAP2 POP PUSH17 0x500000000000000000000000000000000 DUP4 PUSH16 0x8E38E38E38E38E38E38E38E38E38E38E SUB DUP4 MUL DUP2 PUSH2 0x15CB JUMPI INVALID JUMPDEST SDIV DUP5 ADD SWAP4 POP PUSH16 0x80000000000000000000000000000000 DUP2 DUP4 MUL DUP2 PUSH2 0x15EB JUMPI INVALID JUMPDEST SDIV SWAP2 POP PUSH17 0x600000000000000000000000000000000 DUP4 PUSH16 0x8BA2E8BA2E8BA2E8BA2E8BA2E8BA2E8B SUB DUP4 MUL DUP2 PUSH2 0x161C JUMPI INVALID JUMPDEST SDIV DUP5 ADD SWAP4 POP PUSH16 0x80000000000000000000000000000000 DUP2 DUP4 MUL DUP2 PUSH2 0x163C JUMPI INVALID JUMPDEST SDIV SWAP2 POP PUSH17 0x700000000000000000000000000000000 DUP4 PUSH16 0x89D89D89D89D89D89D89D89D89D89D89 SUB DUP4 MUL DUP2 PUSH2 0x166D JUMPI INVALID JUMPDEST SDIV DUP5 ADD SWAP4 POP PUSH16 0x80000000000000000000000000000000 DUP2 DUP4 MUL DUP2 PUSH2 0x168D JUMPI INVALID JUMPDEST SDIV SWAP2 POP PUSH17 0x800000000000000000000000000000000 DUP4 PUSH16 0x88888888888888888888888888888888 SUB DUP4 MUL DUP2 PUSH2 0x16BE JUMPI INVALID JUMPDEST SDIV DUP5 ADD SWAP4 POP POP POP POP SWAP2 SWAP1 POP JUMP JUMPDEST PUSH1 0x0 PUSH32 0xFFFFFFFFFFFFFFFFFFFFFFFFFFFFFFE010000000000000000000000000000000 DUP3 SLT ISZERO PUSH2 0x16FD JUMPI POP PUSH1 0x0 PUSH2 0xFDC JUMP JUMPDEST DUP2 PUSH2 0x1719 JUMPI POP PUSH16 0x80000000000000000000000000000000 PUSH2 0xFDC JUMP JUMPDEST PUSH1 0x0 DUP3 SGT ISZERO PUSH2 0x1754 JUMPI PUSH1 0x40 MLOAD PUSH32 0x8C379A000000000000000000000000000000000000000000000000000000000 DUP2 MSTORE PUSH1 0x4 ADD PUSH2 0x2F5 SWAP1 PUSH2 0x2036 JUMP JUMPDEST PUSH16 0x80000000000000000000000000000000 PUSH16 0x10000000000000000000000000000000 DUP4 SMOD DUP1 DUP1 MUL DUP3 SWAP1 SDIV PUSH8 0x10E1B3BE415A0000 DUP2 MUL SWAP4 SWAP1 SWAP4 ADD SWAP3 SWAP1 SWAP2 DUP2 DUP4 MUL SDIV SWAP1 POP DUP1 PUSH8 0x5A0913F6B1E0000 MUL DUP4 ADD SWAP3 POP PUSH16 0x80000000000000000000000000000000 DUP3 DUP3 MUL DUP2 PUSH2 0x17C0 JUMPI INVALID JUMPDEST SDIV SWAP1 POP DUP1 PUSH8 0x168244FDAC78000 MUL DUP4 ADD SWAP3 POP PUSH16 0x80000000000000000000000000000000 DUP3 DUP3 MUL DUP2 PUSH2 0x17ED JUMPI INVALID JUMPDEST SDIV SWAP1 POP DUP1 PUSH7 0x4807432BC18000 MUL DUP4 ADD SWAP3 POP PUSH16 0x80000000000000000000000000000000 DUP3 DUP3 MUL DUP2 PUSH2 0x1819 JUMPI INVALID JUMPDEST SDIV SWAP1 POP DUP1 PUSH7 0xC0135DCA04000 MUL DUP4 ADD SWAP3 POP PUSH16 0x80000000000000000000000000000000 DUP3 DUP3 MUL DUP2 PUSH2 0x1845 JUMPI INVALID JUMPDEST SDIV SWAP1 POP DUP1 PUSH7 0x1B707B1CDC000 MUL DUP4 ADD SWAP3 POP PUSH16 0x80000000000000000000000000000000 DUP3 DUP3 MUL DUP2 PUSH2 0x1871 JUMPI INVALID JUMPDEST SDIV SWAP1 POP DUP1 PUSH6 0x36E0F639B800 MUL DUP4 ADD SWAP3 POP PUSH16 0x80000000000000000000000000000000 DUP3 DUP3 MUL DUP2 PUSH2 0x189C JUMPI INVALID JUMPDEST SDIV SWAP1 POP DUP1 PUSH6 0x618FEE9F800 MUL DUP4 ADD SWAP3 POP PUSH16 0x80000000000000000000000000000000 DUP3 DUP3 MUL DUP2 PUSH2 0x18C7 JUMPI INVALID JUMPDEST SDIV SWAP1 POP DUP1 PUSH5 0x9C197DCC00 MUL DUP4 ADD SWAP3 POP PUSH16 0x80000000000000000000000000000000 DUP3 DUP3 MUL DUP2 PUSH2 0x18F1 JUMPI INVALID JUMPDEST SDIV SWAP1 POP DUP1 PUSH5 0xE30DCE400 MUL DUP4 ADD SWAP3 POP PUSH16 0x80000000000000000000000000000000 DUP3 DUP3 MUL DUP2 PUSH2 0x191B JUMPI INVALID JUMPDEST SDIV SWAP1 POP DUP1 PUSH5 0x12EBD1300 MUL DUP4 ADD SWAP3 POP PUSH16 0x80000000000000000000000000000000 DUP3 DUP3 MUL DUP2 PUSH2 0x1945 JUMPI INVALID JUMPDEST SDIV SWAP1 POP DUP1 PUSH4 0x17499F00 MUL DUP4 ADD SWAP3 POP PUSH16 0x80000000000000000000000000000000 DUP3 DUP3 MUL DUP2 PUSH2 0x196E JUMPI INVALID JUMPDEST SDIV SWAP1 POP DUP1 PUSH4 0x1A9D480 MUL DUP4 ADD SWAP3 POP PUSH16 0x80000000000000000000000000000000 DUP3 DUP3 MUL DUP2 PUSH2 0x1997 JUMPI INVALID JUMPDEST SDIV SWAP1 POP DUP1 PUSH3 0x1C6380 MUL DUP4 ADD SWAP3 POP PUSH16 0x80000000000000000000000000000000 DUP3 DUP3 MUL DUP2 PUSH2 0x19BF JUMPI INVALID JUMPDEST SDIV SWAP1 POP DUP1 PUSH3 0x1C638 MUL DUP4 ADD SWAP3 POP PUSH16 0x80000000000000000000000000000000 DUP3 DUP3 MUL DUP2 PUSH2 0x19E7 JUMPI INVALID JUMPDEST SDIV SWAP1 POP DUP1 PUSH2 0x1AB8 MUL DUP4 ADD SWAP3 POP PUSH16 0x80000000000000000000000000000000 DUP3 DUP3 MUL DUP2 PUSH2 0x1A0E JUMPI INVALID JUMPDEST SDIV SWAP1 POP DUP1 PUSH2 0x17C MUL DUP4 ADD SWAP3 POP PUSH16 0x80000000000000000000000000000000 DUP3 DUP3 MUL DUP2 PUSH2 0x1A35 JUMPI INVALID JUMPDEST SDIV SWAP1 POP DUP1 PUSH1 0x14 MUL DUP4 ADD SWAP3 POP PUSH16 0x80000000000000000000000000000000 DUP3 DUP3 MUL DUP2 PUSH2 0x1A5B JUMPI INVALID JUMPDEST PUSH1 0x0 SWAP6 SWAP1 SWAP6 SUB SWAP5 PUSH8 0x21C3677C82B40000 SWAP2 SWAP1 SDIV SWAP4 DUP5 ADD SDIV DUP3 ADD PUSH16 0x80000000000000000000000000000000 ADD SWAP3 SWAP1 POP PUSH17 0x1000000000000000000000000000000000 DUP5 AND ISZERO PUSH2 0x1ACA JUMPI PUSH19 0x43CBAF42A000812488FC5C220AD7B97BF6E99E PUSH13 0xF1AADDD7742E56D32FB9F99744 DUP5 MUL SDIV SWAP3 POP JUMPDEST PUSH17 0x800000000000000000000000000000000 DUP5 AND ISZERO PUSH2 0x1B0C JUMPI PUSH18 0x5D27A9F51C31B7C2F8038212A0574779991 PUSH15 0xAFE10820813D65DFE6A33C07F738F DUP5 MUL SDIV SWAP3 POP JUMPDEST PUSH17 0x400000000000000000000000000000000 DUP5 AND ISZERO PUSH2 0x1B4E JUMPI PUSH17 0x1B4C902E273A58678D6D3BFDB93DB96D02 PUSH16 0x2582AB704279E8EFD15E0265855C47A DUP5 MUL SDIV SWAP3 POP JUMPDEST PUSH17 0x200000000000000000000000000000000 DUP5 AND ISZERO PUSH2 0x1B90 JUMPI PUSH17 0x3B1CC971A9BB5B9867477440D6D157750 PUSH16 0x1152AAA3BF81CB9FDB76EAE12D029571 DUP5 MUL SDIV SWAP3 POP JUMPDEST PUSH17 0x100000000000000000000000000000000 DUP5 AND ISZERO PUSH2 0x1BD2 JUMPI PUSH17 0x15BF0A8B1457695355FB8AC404E7A79E3 PUSH16 0x2F16AC6C59DE6F8D5D6F63C1482A7C86 DUP5 MUL SDIV SWAP3 POP JUMPDEST PUSH16 0x80000000000000000000000000000000 DUP5 AND ISZERO PUSH2 0x1C12 JUMPI PUSH16 0xD3094C70F034DE4B96FF7D5B6F99FCD8 PUSH16 0x4DA2CBF1BE5827F9EB3AD1AA9866EBB3 DUP5 MUL SDIV SWAP3 POP JUMPDEST PUSH16 0x40000000000000000000000000000000 DUP5 AND ISZERO PUSH2 0x1C52 JUMPI PUSH16 0xA45AF1E1F40C333B3DE1DB4DD55F29A7 PUSH16 0x63AFBE7AB2082BA1A0AE5E4EB1B479DC DUP5 MUL SDIV SWAP3 POP JUMPDEST PUSH16 0x20000000000000000000000000000000 DUP5 AND ISZERO PUSH2 0x1C92 JUMPI PUSH16 0x910B022DB7AE67CE76B441C27035C6A1 PUSH16 0x70F5A893B608861E1F58934F97AEA57D DUP5 MUL SDIV SWAP3 POP JUMPDEST PUSH16 0x10000000000000000000000000000000 DUP5 AND ISZERO PUSH2 0x1CD2 JUMPI PUSH16 0x88415ABBE9A76BEAD8D00CF112E4D4A8 PUSH16 0x783EAFEF1C0A8F3978C7F81824D62EBF DUP5 MUL SDIV SWAP3 POP JUMPDEST POP POP SWAP2 SWAP1 POP JUMP JUMPDEST PUSH1 0x0 PUSH2 0x762 DUP3 PUSH16 0x80000000000000000000000000000000 PUSH2 0xC56 JUMP JUMPDEST PUSH16 0x80000000000000000000000000000000 SWAP1 SDIV SWAP1 JUMP JUMPDEST PUSH1 0x40 MLOAD DUP1 PUSH2 0x180 ADD PUSH1 0x40 MSTORE DUP1 PUSH1 0x0 PUSH20 0xFFFFFFFFFFFFFFFFFFFFFFFFFFFFFFFFFFFFFFFF AND DUP2 MSTORE PUSH1 0x20 ADD PUSH1 0x0 PUSH20 0xFFFFFFFFFFFFFFFFFFFFFFFFFFFFFFFFFFFFFFFF AND DUP2 MSTORE PUSH1 0x20 ADD PUSH1 0x0 DUP2 MSTORE PUSH1 0x20 ADD PUSH1 0x0 DUP2 MSTORE PUSH1 0x20 ADD PUSH1 0x0 DUP2 MSTORE PUSH1 0x20 ADD PUSH1 0x0 DUP2 MSTORE PUSH1 0x20 ADD PUSH1 0x0 DUP2 MSTORE PUSH1 0x20 ADD PUSH1 0x0 DUP2 MSTORE PUSH1 0x20 ADD PUSH1 0x0 DUP2 MSTORE PUSH1 0x20 ADD PUSH1 0x0 DUP2 MSTORE PUSH1 0x20 ADD PUSH1 0x0 DUP2 MSTORE PUSH1 0x20 ADD PUSH1 0x0 DUP2 MSTORE POP SWAP1 JUMP JUMPDEST PUSH1 0x0 DUP1 PUSH1 0x0 PUSH1 0x60 DUP5 DUP7 SUB SLT ISZERO PUSH2 0x1DAC JUMPI DUP3 DUP4 REVERT JUMPDEST DUP4 CALLDATALOAD PUSH2 0x1DB7 DUP2 PUSH2 0x21DD JUMP JUMPDEST SWAP3 POP PUSH1 0x20 DUP5 ADD CALLDATALOAD PUSH2 0x1DC7 DUP2 PUSH2 0x21DD JUMP JUMPDEST SWAP3 SWAP6 SWAP3 SWAP5 POP POP POP PUSH1 0x40 SWAP2 SWAP1 SWAP2 ADD CALLDATALOAD SWAP1 JUMP JUMPDEST PUSH1 0x0 PUSH1 0x20 DUP3 DUP5 SUB SLT ISZERO PUSH2 0x1DE9 JUMPI DUP1 DUP2 REVERT JUMPDEST POP CALLDATALOAD SWAP2 SWAP1 POP JUMP JUMPDEST PUSH1 0x0 DUP1 PUSH1 0x40 DUP4 DUP6 SUB SLT ISZERO PUSH2 0x1E02 JUMPI DUP2 DUP3 REVERT JUMPDEST POP POP DUP1 CALLDATALOAD SWAP3 PUSH1 0x20 SWAP1 SWAP2 ADD CALLDATALOAD SWAP2 POP JUMP JUMPDEST PUSH20 0xFFFFFFFFFFFFFFFFFFFFFFFFFFFFFFFFFFFFFFFF SWAP6 SWAP1 SWAP6 AND DUP6 MSTORE PUSH1 0x20 DUP6 ADD SWAP4 SWAP1 SWAP4 MSTORE PUSH1 0x40 DUP5 ADD SWAP2 SWAP1 SWAP2 MSTORE PUSH1 0x60 DUP4 ADD MSTORE PUSH1 0x80 DUP3 ADD MSTORE PUSH1 0xA0 ADD SWAP1 JUMP JUMPDEST SWAP3 DUP4 MSTORE PUSH1 0x20 DUP4 ADD SWAP2 SWAP1 SWAP2 MSTORE PUSH1 0x40 DUP3 ADD MSTORE PUSH1 0x60 ADD SWAP1 JUMP JUMPDEST SWAP4 DUP5 MSTORE PUSH1 0x20 DUP5 ADD SWAP3 SWAP1 SWAP3 MSTORE PUSH1 0x40 DUP4 ADD MSTORE PUSH1 0x60 DUP3 ADD MSTORE PUSH1 0x80 ADD SWAP1 JUMP JUMPDEST SWAP5 DUP6 MSTORE PUSH1 0x20 DUP6 ADD SWAP4 SWAP1 SWAP4 MSTORE PUSH1 0x40 DUP5 ADD SWAP2 SWAP1 SWAP2 MSTORE PUSH1 0x60 DUP4 ADD MSTORE PUSH1 0x80 DUP3 ADD MSTORE PUSH1 0xA0 ADD SWAP1 JUMP JUMPDEST PUSH1 0x20 DUP1 DUP3 MSTORE PUSH1 0x15 SWAP1 DUP3 ADD MSTORE PUSH32 0x496E76616C69642076616C756520666F722072686F0000000000000000000000 PUSH1 0x40 DUP3 ADD MSTORE PUSH1 0x60 ADD SWAP1 JUMP JUMPDEST PUSH1 0x20 DUP1 DUP3 MSTORE PUSH1 0x13 SWAP1 DUP3 ADD MSTORE PUSH32 0x6C6E3A2076616C756520746F6F20736D616C6C00000000000000000000000000 PUSH1 0x40 DUP3 ADD MSTORE PUSH1 0x60 ADD SWAP1 JUMP JUMPDEST PUSH1 0x20 DUP1 DUP3 MSTORE PUSH1 0x17 SWAP1 DUP3 ADD MSTORE PUSH32 0x496E76616C696420746F6B656E20616464726573736573000000000000000000 PUSH1 0x40 DUP3 ADD MSTORE PUSH1 0x60 ADD SWAP1 JUMP JUMPDEST PUSH1 0x20 DUP1 DUP3 MSTORE PUSH1 0x38 SWAP1 DUP3 ADD MSTORE PUSH32 0x746F46697865642875696E742C75696E74293A2064656E6F6D696E61746F7220 PUSH1 0x40 DUP3 ADD MSTORE PUSH32 0x63616E6E6F74206265206C657373207468616E207A65726F0000000000000000 PUSH1 0x60 DUP3 ADD MSTORE PUSH1 0x80 ADD SWAP1 JUMP JUMPDEST PUSH1 0x20 DUP1 DUP3 MSTORE PUSH1 0x13 SWAP1 DUP3 ADD MSTORE PUSH32 0x6C6E3A2076616C756520746F6F206C6172676500000000000000000000000000 PUSH1 0x40 DUP3 ADD MSTORE PUSH1 0x60 ADD SWAP1 JUMP JUMPDEST PUSH1 0x20 DUP1 DUP3 MSTORE PUSH1 0x27 SWAP1 DUP3 ADD MSTORE PUSH32 0x746F46697865643A2076616C75652063616E6E6F74206265206C657373207468 PUSH1 0x40 DUP3 ADD MSTORE PUSH32 0x616E207A65726F00000000000000000000000000000000000000000000000000 PUSH1 0x60 DUP3 ADD MSTORE PUSH1 0x80 ADD SWAP1 JUMP JUMPDEST PUSH1 0x20 DUP1 DUP3 MSTORE PUSH1 0x14 SWAP1 DUP3 ADD MSTORE PUSH32 0x6578703A2076616C756520746F6F20736D616C6C000000000000000000000000 PUSH1 0x40 DUP3 ADD MSTORE PUSH1 0x60 ADD SWAP1 JUMP JUMPDEST PUSH1 0x20 DUP1 DUP3 MSTORE PUSH1 0xE SWAP1 DUP3 ADD MSTORE PUSH32 0x5F6D756C3A206F766572666C6F77000000000000000000000000000000000000 PUSH1 0x40 DUP3 ADD MSTORE PUSH1 0x60 ADD SWAP1 JUMP JUMPDEST PUSH1 0x20 DUP1 DUP3 MSTORE PUSH1 0xE SWAP1 DUP3 ADD MSTORE PUSH32 0x5F6164643A206F766572666C6F77000000000000000000000000000000000000 PUSH1 0x40 DUP3 ADD MSTORE PUSH1 0x60 ADD SWAP1 JUMP JUMPDEST PUSH1 0x20 DUP1 DUP3 MSTORE PUSH1 0x14 SWAP1 DUP3 ADD MSTORE PUSH32 0x7375623A2076616C756520746F6F20736D616C6C000000000000000000000000 PUSH1 0x40 DUP3 ADD MSTORE PUSH1 0x60 ADD SWAP1 JUMP JUMPDEST PUSH1 0x20 DUP1 DUP3 MSTORE PUSH1 0x36 SWAP1 DUP3 ADD MSTORE PUSH32 0x746F46697865642875696E742C75696E74293A206E756D657261746F72206361 PUSH1 0x40 DUP3 ADD MSTORE PUSH32 0x6E6E6F74206265206C657373207468616E207A65726F00000000000000000000 PUSH1 0x60 DUP3 ADD MSTORE PUSH1 0x80 ADD SWAP1 JUMP JUMPDEST PUSH1 0x20 DUP1 DUP3 MSTORE PUSH1 0x14 SWAP1 DUP3 ADD MSTORE PUSH32 0x5F6469763A20646976696465206279207A65726F000000000000000000000000 PUSH1 0x40 DUP3 ADD MSTORE PUSH1 0x60 ADD SWAP1 JUMP JUMPDEST PUSH1 0x20 DUP1 DUP3 MSTORE PUSH1 0xE SWAP1 DUP3 ADD MSTORE PUSH32 0x5F6469763A206F766572666C6F77000000000000000000000000000000000000 PUSH1 0x40 DUP3 ADD MSTORE PUSH1 0x60 ADD SWAP1 JUMP JUMPDEST PUSH20 0xFFFFFFFFFFFFFFFFFFFFFFFFFFFFFFFFFFFFFFFF DUP2 AND DUP2 EQ PUSH2 0x1DC JUMPI PUSH1 0x0 DUP1 REVERT INVALID LOG3 PUSH6 0x627A7A723158 KECCAK256 0xD3 0xBD DUP6 CALL 0xC6 0xC7 0xEE CALLVALUE 0xCE 0xAD PUSH32 0x6279B7FBC1B5FBE2159189D3A0135FF63716DEBDF06C6578706572696D656E74 PUSH2 0x6CF5 PUSH5 0x736F6C6343 STOP SDIV 0xD STOP BLOCKHASH "
			}
		}
	},
	"sourceTreeHashHex": "0xed39ef9873b296a687e66a12dc05ba0dc5cb016ef87f88e90d19cc5c6f802ace",
	"compiler": {
		"name": "solc",
		"version": "soljson-v0.5.13+commit.5b0b510c.js",
		"settings": {
			"optimizer": {
				"enabled": true,
				"runs": 1000000,
				"details": {
					"yul": true,
					"deduplicate": true,
					"cse": true,
					"constantOptimizer": true
				}
			},
			"outputSelection": {
				"*": {
					"*": [
						"abi",
						"devdoc",
						"evm.bytecode.object",
						"evm.bytecode.sourceMap",
						"evm.deployedBytecode.object",
						"evm.deployedBytecode.sourceMap"
					]
				}
			},
			"evmVersion": "constantinople",
			"remappings": []
		}
	},
	"chains": {}
}