{
	"schemaVersion": "2.0.0",
	"contractName": "TestScam",
	"compilerOutput": {
		"abi": [
			{
				"anonymous": false,
				"inputs": [
					{
						"indexed": false,
						"internalType": "int256",
						"name": "lhs1",
						"type": "int256"
					},
					{
						"indexed": false,
						"internalType": "int256",
						"name": "mid",
						"type": "int256"
					},
					{
						"indexed": false,
						"internalType": "int256",
						"name": "lhs",
						"type": "int256"
					}
				],
				"name": "Bisect",
				"type": "event"
			},
			{
				"anonymous": false,
				"inputs": [
					{
						"indexed": false,
						"internalType": "address",
						"name": "from",
						"type": "address"
					},
					{
						"indexed": false,
						"internalType": "address",
						"name": "fromToken",
						"type": "address"
					},
					{
						"indexed": false,
						"internalType": "address",
						"name": "toToken",
						"type": "address"
					},
					{
						"indexed": false,
						"internalType": "uint256",
						"name": "amountSpent",
						"type": "uint256"
					},
					{
						"indexed": false,
						"internalType": "uint256",
						"name": "amountReceived",
						"type": "uint256"
					}
				],
				"name": "Fill",
				"type": "event"
			},
			{
				"anonymous": false,
				"inputs": [
					{
						"indexed": false,
						"internalType": "int256",
						"name": "price",
						"type": "int256"
					},
					{
						"indexed": false,
						"internalType": "int256",
						"name": "deltaB",
						"type": "int256"
					},
					{
						"indexed": false,
						"internalType": "int256",
						"name": "newPBarX",
						"type": "int256"
					}
				],
				"name": "Price",
				"type": "event"
			},
			{
				"constant": false,
				"inputs": [
					{
						"internalType": "uint256",
						"name": "amount",
						"type": "uint256"
					}
				],
				"name": "addLiquidity",
				"outputs": [],
				"payable": false,
				"stateMutability": "nonpayable",
				"type": "function"
			},
			{
				"constant": false,
				"inputs": [
					{
						"internalType": "uint256",
						"name": "rhoNumerator",
						"type": "uint256"
					},
					{
						"internalType": "uint256",
						"name": "rhoDenominator",
						"type": "uint256"
					}
				],
				"name": "init",
				"outputs": [],
				"payable": false,
				"stateMutability": "nonpayable",
				"type": "function"
			},
			{
				"constant": false,
				"inputs": [
					{
						"internalType": "uint256",
						"name": "amount",
						"type": "uint256"
					}
				],
				"name": "removeLiquidity",
				"outputs": [],
				"payable": false,
				"stateMutability": "nonpayable",
				"type": "function"
			},
			{
				"constant": false,
				"inputs": [],
				"name": "runBasicTest",
				"outputs": [],
				"payable": false,
				"stateMutability": "nonpayable",
				"type": "function"
			},
			{
				"constant": false,
				"inputs": [
					{
						"internalType": "address",
						"name": "fromToken",
						"type": "address"
					},
					{
						"internalType": "address",
						"name": "toToken",
						"type": "address"
					},
					{
						"internalType": "uint256",
						"name": "amount",
						"type": "uint256"
					}
				],
				"name": "swap",
				"outputs": [],
				"payable": false,
				"stateMutability": "nonpayable",
				"type": "function"
			}
		],
		"devdoc": {
			"methods": {}
		},
		"evm": {
			"bytecode": {
				"linkReferences": {},
				"object": "0x608060405261206c806100136000396000f3fe608060405234801561001057600080fd5b50600436106100675760003560e01c80639c8f9f23116100505780639c8f9f231461006c578063a5843f0814610089578063df791e501461009c57610067565b806351c6590a1461006c578063978ca36f14610081575b600080fd5b61007f61007a366004611c3a565b6100af565b005b61007f6100b2565b61007f610097366004611c52565b6101a0565b61007f6100aa366004611bfa565b6101f6565b50565b600080547fffffffffffffffffffffffff0000000000000000000000000000000000000000908116600190811790925581541660021790556100f6620186a06105a4565b60025561010461c3506105a4565b60035561011160016105a4565b60045560636006819055610126906064610600565b6007556101366005612710610600565b60085561015e61014a6001620f42406106a1565b6101526106c0565b9063ffffffff6106d416565b600d5561016f6127156103e86106a1565b600e5560005460015461019e9173ffffffffffffffffffffffffffffffffffffffff90811691166127106101f6565b565b8160010181146101e5576040517f08c379a00000000000000000000000000000000000000000000000000000000081526004016101dc90611cca565b60405180910390fd5b6101ef8282610600565b6007555050565b6101fe611b5f565b61020661073d565b90506000610213836105a4565b825190915060009081908190819073ffffffffffffffffffffffffffffffffffffffff8a811691161480156102775750856020015173ffffffffffffffffffffffffffffffffffffffff168873ffffffffffffffffffffffffffffffffffffffff16145b156102965750505050604082015160608301516080840151600161033f565b856020015173ffffffffffffffffffffffffffffffffffffffff168973ffffffffffffffffffffffffffffffffffffffff161480156102ee5750855173ffffffffffffffffffffffffffffffffffffffff8981169116145b1561030d5785606001519350856040015192508560a00151915061033f565b6040517f08c379a00000000000000000000000000000000000000000000000000000000081526004016101dc90611d38565b60008061034f8686868a8c6107e2565b9150915060006103856103698a61010001516101526106c0565b6103798a8563ffffffff6108e716565b9063ffffffff6108e716565b905061039860008263ffffffff6106d416565b905060006103aa6001620186a06106a1565b905060008213156103be57600091506103e7565b806103cf888463ffffffff61093a16565b136103e7576103e4818863ffffffff6106d416565b91505b600061040b8b61014001516103fa610946565b8d6101800151888f6080015161094c565b6101a08c0151909150610424908863ffffffff6108e716565b811315610448576101a08b0151610441908863ffffffff6108e716565b9050610488565b610469876103798d6101a0015161045d6106c0565b9063ffffffff610a2a16565b81121561048857610485876103798d6101a0015161045d6106c0565b90505b7fdd08523161e1dc5303d6957b2386d2fe11be654a08aef16ae4013f6e83160ef98484836040516104bb93929190611cb4565b60405180910390a16104cb610946565b6101408c0152851561050d576104e7898b63ffffffff61093a16565b60408c01526104fc888463ffffffff61093a16565b60608c015260808b01819052610549565b61051d888463ffffffff61093a16565b60408c0152610532898b63ffffffff61093a16565b60608c01526105438161045d6106c0565b60808c01525b6105528b610a53565b7f256db8090fa51c3bac981768637d5a7c46b5540644dcef89052b89dbb2f6c8ea338f8f8d8760000360405161058c959493929190611c73565b60405180910390a15050505050505050505050505050565b6000808212156105e0576040517f08c379a00000000000000000000000000000000000000000000000000000000081526004016101dc90611e03565b6105fa826f80000000000000000000000000000000610b12565b92915050565b60008083121561063c576040517f08c379a00000000000000000000000000000000000000000000000000000000081526004016101dc90611f3c565b6000821215610677576040517f08c379a00000000000000000000000000000000000000000000000000000000081526004016101dc90611d6f565b61069a610694846f80000000000000000000000000000000610b12565b83610b88565b9392505050565b600061069a610694846f80000000000000000000000000000000610b12565b6f8000000000000000000000000000000090565b60007f8000000000000000000000000000000000000000000000000000000000000000821415610730576040517f08c379a00000000000000000000000000000000000000000000000000000000081526004016101dc90611f05565b61069a8383600003610c57565b610745611b5f565b50604080516101c08101825260005473ffffffffffffffffffffffffffffffffffffffff9081168252600154166020820152600254918101919091526003546060820152600454608082015260055460a082015260065460c082015260075460e0820152600854610100820152600954610120820152600a54610140820152600c54610160820152600d54610180820152600e546101a082015290565b6000806107f58787878660e00151610ccd565b91506000828161080b8a8863ffffffff61093a16565b905060005b60148110156108d75760006108258585610d74565b9050600061084161083c838d63ffffffff610a2a16565b610d9c565b905060006108786108588c8563ffffffff6108e716565b61086c85610379898763ffffffff6108e716565b9063ffffffff61093a16565b90507f4add19bbbe358caf4af4a31b1299356fc4dccf8b4cf3c87e401b0fa60062f31e8284836040516108ad93929190611cb4565b60405180910390a18c8113156108c5578295506108c9565b8296505b505050806001019050610810565b5091925050509550959350505050565b60006f800000000000000000000000000000008215610919575065010000000000909105906a80000000000000000000005b60006109258585610b12565b905081818161093057fe5b0595945050505050565b600061069a8383610c57565b61023a90565b60008061095a8787036105a4565b9050600061097f61097a61096d88610e4b565b849063ffffffff6108e716565b611535565b9050600061098f826101526106c0565b905060006109a3878363ffffffff6108e716565b905060006109b7878563ffffffff6108e716565b905060006109e36109ce858b63ffffffff610a2a16565b6109de878b63ffffffff610a2a16565b61093a565b905060006109f38261045d6106c0565b90506000610a18610a046002611b43565b61045d8461086c898963ffffffff61093a16565b9e9d5050505050505050505050505050565b6000610a44610694846a8000000000000000000000610b12565b65010000000000029392505050565b80516000805473ffffffffffffffffffffffffffffffffffffffff9283167fffffffffffffffffffffffff00000000000000000000000000000000000000009182161790915560208301516001805491909316911617905560408101516002556060810151600355608081015160045560a081015160055560c081015160065560e0810151600755610100810151600855610120810151600955610140810151600a55610160810151600c55610180810151600d556101a00151600e55565b6000821580610b1f575081155b15610b2c575060006105fa565b5081810281838281610b3a57fe5b05141580610b51575082828281610b4d57fe5b0514155b156105fa576040517f08c379a00000000000000000000000000000000000000000000000000000000081526004016101dc90611e97565b600081610bc1576040517f08c379a00000000000000000000000000000000000000000000000000000000081526004016101dc90611f99565b7f800000000000000000000000000000000000000000000000000000000000000083148015610c0f5750817fffffffffffffffffffffffffffffffffffffffffffffffffffffffffffffffff145b15610c46576040517f08c379a00000000000000000000000000000000000000000000000000000000081526004016101dc90611fd0565b818381610c4f57fe5b059392505050565b818101600083128015610c6a5750600082125b8015610c7557508281135b80610c965750600083138015610c8b5750600082135b8015610c9657508281125b156105fa576040517f08c379a00000000000000000000000000000000000000000000000000000000081526004016101dc90611ece565b600080610ce0848763ffffffff6108e716565b90506000610cf4868363ffffffff610a2a16565b90506000610d08838863ffffffff610a2a16565b90506000610d18866101526106c0565b90506000610d246106c0565b841215610d4257610d3b61097a8361037987610e4b565b9050610d60565b610d5d610d5561097a8461037987610e4b565b61045d6106c0565b90505b9450610d6c9350505050565b949350505050565b600061069a610d8c610d846106c0565b61086c6106c0565b61045d858563ffffffff61093a16565b600080610daf838063ffffffff6108e716565b90506000610dc3848363ffffffff6108e716565b90506000610dd7828063ffffffff6108e716565b90506000610deb828063ffffffff6108e716565b90506000610dff828063ffffffff6108e716565b90506000610e13828063ffffffff6108e716565b90506000610e27828063ffffffff6108e716565b90506000610e3b828863ffffffff6108e716565b985050505050505050505b919050565b60006f80000000000000000000000000000000821315610e97576040517f08c379a00000000000000000000000000000000000000000000000000000000081526004016101dc90611dcc565b60008213610ed1576040517f08c379a00000000000000000000000000000000000000000000000000000000081526004016101dc90611d01565b6f80000000000000000000000000000000821415610ef157506000610e46565b640733048c5a8213610f2457507fffffffffffffffffffffffffffffffe010000000000000000000000000000000610e46565b60008060006a01c8464f761647600000008513610f83577ffffffffffffffffffffffffffffffff000000000000000000000000000000000909301926a01c8464f761647600000006f8000000000000000000000000000000086020594505b6cf1aaddd7742e900000000000008513610fe1577ffffffffffffffffffffffffffffffff800000000000000000000000000000000909301926cf1aaddd7742e900000000000006f8000000000000000000000000000000086020594505b6e0afe10820813d780000000000000008513611043577ffffffffffffffffffffffffffffffffc00000000000000000000000000000000909301926e0afe10820813d780000000000000006f8000000000000000000000000000000086020594505b6f02582ab704279ec0000000000000000085136110a7577ffffffffffffffffffffffffffffffffe00000000000000000000000000000000909301926f02582ab704279ec000000000000000006f8000000000000000000000000000000086020594505b6f1152aaa3bf81cc000000000000000000851361110b577fffffffffffffffffffffffffffffffff00000000000000000000000000000000909301926f1152aaa3bf81cc0000000000000000006f8000000000000000000000000000000086020594505b6f2f16ac6c59de70000000000000000000851361116f577fffffffffffffffffffffffffffffffff80000000000000000000000000000000909301926f2f16ac6c59de700000000000000000006f8000000000000000000000000000000086020594505b6f4da2cbf1be582800000000000000000085136111d3577fffffffffffffffffffffffffffffffffc0000000000000000000000000000000909301926f4da2cbf1be58280000000000000000006f8000000000000000000000000000000086020594505b6f63afbe7ab2082c0000000000000000008513611237577fffffffffffffffffffffffffffffffffe0000000000000000000000000000000909301926f63afbe7ab2082c0000000000000000006f8000000000000000000000000000000086020594505b6f70f5a893b608861e1f58934f97aea57d851361129b577ffffffffffffffffffffffffffffffffff0000000000000000000000000000000909301926f70f5a893b608861e1f58934f97aea57d6f8000000000000000000000000000000086020594505b7fffffffffffffffffffffffffffffffff80000000000000000000000000000000850192508291506f80000000000000000000000000000000828002059050700100000000000000000000000000000000838103830205840193506f800000000000000000000000000000008183028161131157fe5b059150700200000000000000000000000000000000836faaaaaaaaaaaaaaaaaaaaaaaaaaaaaaaa0383028161134257fe5b05840193506f800000000000000000000000000000008183028161136257fe5b059150700300000000000000000000000000000000836f999999999999999999999999999999990383028161139357fe5b05840193506f80000000000000000000000000000000818302816113b357fe5b059150700400000000000000000000000000000000836f92492492492492492492492492492492038302816113e457fe5b05840193506f800000000000000000000000000000008183028161140457fe5b059150700500000000000000000000000000000000836f8e38e38e38e38e38e38e38e38e38e38e0383028161143557fe5b05840193506f800000000000000000000000000000008183028161145557fe5b059150700600000000000000000000000000000000836f8ba2e8ba2e8ba2e8ba2e8ba2e8ba2e8b0383028161148657fe5b05840193506f80000000000000000000000000000000818302816114a657fe5b059150700700000000000000000000000000000000836f89d89d89d89d89d89d89d89d89d89d89038302816114d757fe5b05840193506f80000000000000000000000000000000818302816114f757fe5b059150700800000000000000000000000000000000836f888888888888888888888888888888880383028161152857fe5b0584019350505050919050565b60007fffffffffffffffffffffffffffffffe01000000000000000000000000000000082121561156757506000610e46565b8161158357506f80000000000000000000000000000000610e46565b60008213156115be576040517f08c379a00000000000000000000000000000000000000000000000000000000081526004016101dc90611e60565b6f800000000000000000000000000000006f1000000000000000000000000000000083078080028290056710e1b3be415a0000810293909301929091818302059050806705a0913f6b1e000002830192506f800000000000000000000000000000008282028161162a57fe5b05905080670168244fdac7800002830192506f800000000000000000000000000000008282028161165757fe5b05905080664807432bc1800002830192506f800000000000000000000000000000008282028161168357fe5b05905080660c0135dca0400002830192506f80000000000000000000000000000000828202816116af57fe5b059050806601b707b1cdc00002830192506f80000000000000000000000000000000828202816116db57fe5b059050806536e0f639b80002830192506f800000000000000000000000000000008282028161170657fe5b05905080650618fee9f80002830192506f800000000000000000000000000000008282028161173157fe5b05905080649c197dcc0002830192506f800000000000000000000000000000008282028161175b57fe5b05905080640e30dce40002830192506f800000000000000000000000000000008282028161178557fe5b0590508064012ebd130002830192506f80000000000000000000000000000000828202816117af57fe5b059050806317499f0002830192506f80000000000000000000000000000000828202816117d857fe5b059050806301a9d48002830192506f800000000000000000000000000000008282028161180157fe5b05905080621c638002830192506f800000000000000000000000000000008282028161182957fe5b059050806201c63802830192506f800000000000000000000000000000008282028161185157fe5b05905080611ab802830192506f800000000000000000000000000000008282028161187857fe5b0590508061017c02830192506f800000000000000000000000000000008282028161189f57fe5b05905080601402830192506f80000000000000000000000000000000828202816118c557fe5b600095909503946721c3677c82b400009190059384010582016f8000000000000000000000000000000001929050701000000000000000000000000000000000841615611934577243cbaf42a000812488fc5c220ad7b97bf6e99e6cf1aaddd7742e56d32fb9f9974484020592505b700800000000000000000000000000000000841615611976577105d27a9f51c31b7c2f8038212a05747799916e0afe10820813d65dfe6a33c07f738f84020592505b7004000000000000000000000000000000008416156119b857701b4c902e273a58678d6d3bfdb93db96d026f02582ab704279e8efd15e0265855c47a84020592505b7002000000000000000000000000000000008416156119fa577003b1cc971a9bb5b9867477440d6d1577506f1152aaa3bf81cb9fdb76eae12d02957184020592505b700100000000000000000000000000000000841615611a3c5770015bf0a8b1457695355fb8ac404e7a79e36f2f16ac6c59de6f8d5d6f63c1482a7c8684020592505b6f80000000000000000000000000000000841615611a7c576fd3094c70f034de4b96ff7d5b6f99fcd86f4da2cbf1be5827f9eb3ad1aa9866ebb384020592505b6f40000000000000000000000000000000841615611abc576fa45af1e1f40c333b3de1db4dd55f29a76f63afbe7ab2082ba1a0ae5e4eb1b479dc84020592505b6f20000000000000000000000000000000841615611afc576f910b022db7ae67ce76b441c27035c6a16f70f5a893b608861e1f58934f97aea57d84020592505b6f10000000000000000000000000000000841615611b3c576f88415abbe9a76bead8d00cf112e4d4a86f783eafef1c0a8f3978c7f81824d62ebf84020592505b5050919050565b60006105fa826f80000000000000000000000000000000610b12565b604051806101c00160405280600073ffffffffffffffffffffffffffffffffffffffff168152602001600073ffffffffffffffffffffffffffffffffffffffff1681526020016000815260200160008152602001600081526020016000815260200160008152602001600081526020016000815260200160008152602001600081526020016000815260200160008152602001600081525090565b600080600060608486031215611c0e578283fd5b8335611c1981612007565b92506020840135611c2981612007565b929592945050506040919091013590565b600060208284031215611c4b578081fd5b5035919050565b60008060408385031215611c64578182fd5b50508035926020909101359150565b73ffffffffffffffffffffffffffffffffffffffff958616815293851660208501529190931660408301526060820192909252608081019190915260a00190565b9283526020830191909152604082015260600190565b60208082526015908201527f496e76616c69642076616c756520666f722072686f0000000000000000000000604082015260600190565b60208082526013908201527f6c6e3a2076616c756520746f6f20736d616c6c00000000000000000000000000604082015260600190565b60208082526017908201527f496e76616c696420746f6b656e20616464726573736573000000000000000000604082015260600190565b60208082526038908201527f746f46697865642875696e742c75696e74293a2064656e6f6d696e61746f722060408201527f63616e6e6f74206265206c657373207468616e207a65726f0000000000000000606082015260800190565b60208082526013908201527f6c6e3a2076616c756520746f6f206c6172676500000000000000000000000000604082015260600190565b60208082526027908201527f746f46697865643a2076616c75652063616e6e6f74206265206c65737320746860408201527f616e207a65726f00000000000000000000000000000000000000000000000000606082015260800190565b60208082526014908201527f6578703a2076616c756520746f6f20736d616c6c000000000000000000000000604082015260600190565b6020808252600e908201527f5f6d756c3a206f766572666c6f77000000000000000000000000000000000000604082015260600190565b6020808252600e908201527f5f6164643a206f766572666c6f77000000000000000000000000000000000000604082015260600190565b60208082526014908201527f7375623a2076616c756520746f6f20736d616c6c000000000000000000000000604082015260600190565b60208082526036908201527f746f46697865642875696e742c75696e74293a206e756d657261746f7220636160408201527f6e6e6f74206265206c657373207468616e207a65726f00000000000000000000606082015260800190565b60208082526014908201527f5f6469763a20646976696465206279207a65726f000000000000000000000000604082015260600190565b6020808252600e908201527f5f6469763a206f766572666c6f77000000000000000000000000000000000000604082015260600190565b73ffffffffffffffffffffffffffffffffffffffff811681146100af57600080fdfea365627a7a723158208f1f16033af374fa9ebd23d40e772525c6603bbd9c66004d388091035aa80f666c6578706572696d656e74616cf564736f6c634300050d0040",
				"opcodes": "PUSH1 0x80 PUSH1 0x40 MSTORE PUSH2 0x206C DUP1 PUSH2 0x13 PUSH1 0x0 CODECOPY PUSH1 0x0 RETURN INVALID PUSH1 0x80 PUSH1 0x40 MSTORE CALLVALUE DUP1 ISZERO PUSH2 0x10 JUMPI PUSH1 0x0 DUP1 REVERT JUMPDEST POP PUSH1 0x4 CALLDATASIZE LT PUSH2 0x67 JUMPI PUSH1 0x0 CALLDATALOAD PUSH1 0xE0 SHR DUP1 PUSH4 0x9C8F9F23 GT PUSH2 0x50 JUMPI DUP1 PUSH4 0x9C8F9F23 EQ PUSH2 0x6C JUMPI DUP1 PUSH4 0xA5843F08 EQ PUSH2 0x89 JUMPI DUP1 PUSH4 0xDF791E50 EQ PUSH2 0x9C JUMPI PUSH2 0x67 JUMP JUMPDEST DUP1 PUSH4 0x51C6590A EQ PUSH2 0x6C JUMPI DUP1 PUSH4 0x978CA36F EQ PUSH2 0x81 JUMPI JUMPDEST PUSH1 0x0 DUP1 REVERT JUMPDEST PUSH2 0x7F PUSH2 0x7A CALLDATASIZE PUSH1 0x4 PUSH2 0x1C3A JUMP JUMPDEST PUSH2 0xAF JUMP JUMPDEST STOP JUMPDEST PUSH2 0x7F PUSH2 0xB2 JUMP JUMPDEST PUSH2 0x7F PUSH2 0x97 CALLDATASIZE PUSH1 0x4 PUSH2 0x1C52 JUMP JUMPDEST PUSH2 0x1A0 JUMP JUMPDEST PUSH2 0x7F PUSH2 0xAA CALLDATASIZE PUSH1 0x4 PUSH2 0x1BFA JUMP JUMPDEST PUSH2 0x1F6 JUMP JUMPDEST POP JUMP JUMPDEST PUSH1 0x0 DUP1 SLOAD PUSH32 0xFFFFFFFFFFFFFFFFFFFFFFFF0000000000000000000000000000000000000000 SWAP1 DUP2 AND PUSH1 0x1 SWAP1 DUP2 OR SWAP1 SWAP3 SSTORE DUP2 SLOAD AND PUSH1 0x2 OR SWAP1 SSTORE PUSH2 0xF6 PUSH3 0x186A0 PUSH2 0x5A4 JUMP JUMPDEST PUSH1 0x2 SSTORE PUSH2 0x104 PUSH2 0xC350 PUSH2 0x5A4 JUMP JUMPDEST PUSH1 0x3 SSTORE PUSH2 0x111 PUSH1 0x1 PUSH2 0x5A4 JUMP JUMPDEST PUSH1 0x4 SSTORE PUSH1 0x63 PUSH1 0x6 DUP2 SWAP1 SSTORE PUSH2 0x126 SWAP1 PUSH1 0x64 PUSH2 0x600 JUMP JUMPDEST PUSH1 0x7 SSTORE PUSH2 0x136 PUSH1 0x5 PUSH2 0x2710 PUSH2 0x600 JUMP JUMPDEST PUSH1 0x8 SSTORE PUSH2 0x15E PUSH2 0x14A PUSH1 0x1 PUSH3 0xF4240 PUSH2 0x6A1 JUMP JUMPDEST PUSH2 0x152 PUSH2 0x6C0 JUMP JUMPDEST SWAP1 PUSH4 0xFFFFFFFF PUSH2 0x6D4 AND JUMP JUMPDEST PUSH1 0xD SSTORE PUSH2 0x16F PUSH2 0x2715 PUSH2 0x3E8 PUSH2 0x6A1 JUMP JUMPDEST PUSH1 0xE SSTORE PUSH1 0x0 SLOAD PUSH1 0x1 SLOAD PUSH2 0x19E SWAP2 PUSH20 0xFFFFFFFFFFFFFFFFFFFFFFFFFFFFFFFFFFFFFFFF SWAP1 DUP2 AND SWAP2 AND PUSH2 0x2710 PUSH2 0x1F6 JUMP JUMPDEST JUMP JUMPDEST DUP2 PUSH1 0x1 ADD DUP2 EQ PUSH2 0x1E5 JUMPI PUSH1 0x40 MLOAD PUSH32 0x8C379A000000000000000000000000000000000000000000000000000000000 DUP2 MSTORE PUSH1 0x4 ADD PUSH2 0x1DC SWAP1 PUSH2 0x1CCA JUMP JUMPDEST PUSH1 0x40 MLOAD DUP1 SWAP2 SUB SWAP1 REVERT JUMPDEST PUSH2 0x1EF DUP3 DUP3 PUSH2 0x600 JUMP JUMPDEST PUSH1 0x7 SSTORE POP POP JUMP JUMPDEST PUSH2 0x1FE PUSH2 0x1B5F JUMP JUMPDEST PUSH2 0x206 PUSH2 0x73D JUMP JUMPDEST SWAP1 POP PUSH1 0x0 PUSH2 0x213 DUP4 PUSH2 0x5A4 JUMP JUMPDEST DUP3 MLOAD SWAP1 SWAP2 POP PUSH1 0x0 SWAP1 DUP2 SWAP1 DUP2 SWAP1 DUP2 SWAP1 PUSH20 0xFFFFFFFFFFFFFFFFFFFFFFFFFFFFFFFFFFFFFFFF DUP11 DUP2 AND SWAP2 AND EQ DUP1 ISZERO PUSH2 0x277 JUMPI POP DUP6 PUSH1 0x20 ADD MLOAD PUSH20 0xFFFFFFFFFFFFFFFFFFFFFFFFFFFFFFFFFFFFFFFF AND DUP9 PUSH20 0xFFFFFFFFFFFFFFFFFFFFFFFFFFFFFFFFFFFFFFFF AND EQ JUMPDEST ISZERO PUSH2 0x296 JUMPI POP POP POP POP PUSH1 0x40 DUP3 ADD MLOAD PUSH1 0x60 DUP4 ADD MLOAD PUSH1 0x80 DUP5 ADD MLOAD PUSH1 0x1 PUSH2 0x33F JUMP JUMPDEST DUP6 PUSH1 0x20 ADD MLOAD PUSH20 0xFFFFFFFFFFFFFFFFFFFFFFFFFFFFFFFFFFFFFFFF AND DUP10 PUSH20 0xFFFFFFFFFFFFFFFFFFFFFFFFFFFFFFFFFFFFFFFF AND EQ DUP1 ISZERO PUSH2 0x2EE JUMPI POP DUP6 MLOAD PUSH20 0xFFFFFFFFFFFFFFFFFFFFFFFFFFFFFFFFFFFFFFFF DUP10 DUP2 AND SWAP2 AND EQ JUMPDEST ISZERO PUSH2 0x30D JUMPI DUP6 PUSH1 0x60 ADD MLOAD SWAP4 POP DUP6 PUSH1 0x40 ADD MLOAD SWAP3 POP DUP6 PUSH1 0xA0 ADD MLOAD SWAP2 POP PUSH2 0x33F JUMP JUMPDEST PUSH1 0x40 MLOAD PUSH32 0x8C379A000000000000000000000000000000000000000000000000000000000 DUP2 MSTORE PUSH1 0x4 ADD PUSH2 0x1DC SWAP1 PUSH2 0x1D38 JUMP JUMPDEST PUSH1 0x0 DUP1 PUSH2 0x34F DUP7 DUP7 DUP7 DUP11 DUP13 PUSH2 0x7E2 JUMP JUMPDEST SWAP2 POP SWAP2 POP PUSH1 0x0 PUSH2 0x385 PUSH2 0x369 DUP11 PUSH2 0x100 ADD MLOAD PUSH2 0x152 PUSH2 0x6C0 JUMP JUMPDEST PUSH2 0x379 DUP11 DUP6 PUSH4 0xFFFFFFFF PUSH2 0x8E7 AND JUMP JUMPDEST SWAP1 PUSH4 0xFFFFFFFF PUSH2 0x8E7 AND JUMP JUMPDEST SWAP1 POP PUSH2 0x398 PUSH1 0x0 DUP3 PUSH4 0xFFFFFFFF PUSH2 0x6D4 AND JUMP JUMPDEST SWAP1 POP PUSH1 0x0 PUSH2 0x3AA PUSH1 0x1 PUSH3 0x186A0 PUSH2 0x6A1 JUMP JUMPDEST SWAP1 POP PUSH1 0x0 DUP3 SGT ISZERO PUSH2 0x3BE JUMPI PUSH1 0x0 SWAP2 POP PUSH2 0x3E7 JUMP JUMPDEST DUP1 PUSH2 0x3CF DUP9 DUP5 PUSH4 0xFFFFFFFF PUSH2 0x93A AND JUMP JUMPDEST SGT PUSH2 0x3E7 JUMPI PUSH2 0x3E4 DUP2 DUP9 PUSH4 0xFFFFFFFF PUSH2 0x6D4 AND JUMP JUMPDEST SWAP2 POP JUMPDEST PUSH1 0x0 PUSH2 0x40B DUP12 PUSH2 0x140 ADD MLOAD PUSH2 0x3FA PUSH2 0x946 JUMP JUMPDEST DUP14 PUSH2 0x180 ADD MLOAD DUP9 DUP16 PUSH1 0x80 ADD MLOAD PUSH2 0x94C JUMP JUMPDEST PUSH2 0x1A0 DUP13 ADD MLOAD SWAP1 SWAP2 POP PUSH2 0x424 SWAP1 DUP9 PUSH4 0xFFFFFFFF PUSH2 0x8E7 AND JUMP JUMPDEST DUP2 SGT ISZERO PUSH2 0x448 JUMPI PUSH2 0x1A0 DUP12 ADD MLOAD PUSH2 0x441 SWAP1 DUP9 PUSH4 0xFFFFFFFF PUSH2 0x8E7 AND JUMP JUMPDEST SWAP1 POP PUSH2 0x488 JUMP JUMPDEST PUSH2 0x469 DUP8 PUSH2 0x379 DUP14 PUSH2 0x1A0 ADD MLOAD PUSH2 0x45D PUSH2 0x6C0 JUMP JUMPDEST SWAP1 PUSH4 0xFFFFFFFF PUSH2 0xA2A AND JUMP JUMPDEST DUP2 SLT ISZERO PUSH2 0x488 JUMPI PUSH2 0x485 DUP8 PUSH2 0x379 DUP14 PUSH2 0x1A0 ADD MLOAD PUSH2 0x45D PUSH2 0x6C0 JUMP JUMPDEST SWAP1 POP JUMPDEST PUSH32 0xDD08523161E1DC5303D6957B2386D2FE11BE654A08AEF16AE4013F6E83160EF9 DUP5 DUP5 DUP4 PUSH1 0x40 MLOAD PUSH2 0x4BB SWAP4 SWAP3 SWAP2 SWAP1 PUSH2 0x1CB4 JUMP JUMPDEST PUSH1 0x40 MLOAD DUP1 SWAP2 SUB SWAP1 LOG1 PUSH2 0x4CB PUSH2 0x946 JUMP JUMPDEST PUSH2 0x140 DUP13 ADD MSTORE DUP6 ISZERO PUSH2 0x50D JUMPI PUSH2 0x4E7 DUP10 DUP12 PUSH4 0xFFFFFFFF PUSH2 0x93A AND JUMP JUMPDEST PUSH1 0x40 DUP13 ADD MSTORE PUSH2 0x4FC DUP9 DUP5 PUSH4 0xFFFFFFFF PUSH2 0x93A AND JUMP JUMPDEST PUSH1 0x60 DUP13 ADD MSTORE PUSH1 0x80 DUP12 ADD DUP2 SWAP1 MSTORE PUSH2 0x549 JUMP JUMPDEST PUSH2 0x51D DUP9 DUP5 PUSH4 0xFFFFFFFF PUSH2 0x93A AND JUMP JUMPDEST PUSH1 0x40 DUP13 ADD MSTORE PUSH2 0x532 DUP10 DUP12 PUSH4 0xFFFFFFFF PUSH2 0x93A AND JUMP JUMPDEST PUSH1 0x60 DUP13 ADD MSTORE PUSH2 0x543 DUP2 PUSH2 0x45D PUSH2 0x6C0 JUMP JUMPDEST PUSH1 0x80 DUP13 ADD MSTORE JUMPDEST PUSH2 0x552 DUP12 PUSH2 0xA53 JUMP JUMPDEST PUSH32 0x256DB8090FA51C3BAC981768637D5A7C46B5540644DCEF89052B89DBB2F6C8EA CALLER DUP16 DUP16 DUP14 DUP8 PUSH1 0x0 SUB PUSH1 0x40 MLOAD PUSH2 0x58C SWAP6 SWAP5 SWAP4 SWAP3 SWAP2 SWAP1 PUSH2 0x1C73 JUMP JUMPDEST PUSH1 0x40 MLOAD DUP1 SWAP2 SUB SWAP1 LOG1 POP POP POP POP POP POP POP POP POP POP POP POP POP POP JUMP JUMPDEST PUSH1 0x0 DUP1 DUP3 SLT ISZERO PUSH2 0x5E0 JUMPI PUSH1 0x40 MLOAD PUSH32 0x8C379A000000000000000000000000000000000000000000000000000000000 DUP2 MSTORE PUSH1 0x4 ADD PUSH2 0x1DC SWAP1 PUSH2 0x1E03 JUMP JUMPDEST PUSH2 0x5FA DUP3 PUSH16 0x80000000000000000000000000000000 PUSH2 0xB12 JUMP JUMPDEST SWAP3 SWAP2 POP POP JUMP JUMPDEST PUSH1 0x0 DUP1 DUP4 SLT ISZERO PUSH2 0x63C JUMPI PUSH1 0x40 MLOAD PUSH32 0x8C379A000000000000000000000000000000000000000000000000000000000 DUP2 MSTORE PUSH1 0x4 ADD PUSH2 0x1DC SWAP1 PUSH2 0x1F3C JUMP JUMPDEST PUSH1 0x0 DUP3 SLT ISZERO PUSH2 0x677 JUMPI PUSH1 0x40 MLOAD PUSH32 0x8C379A000000000000000000000000000000000000000000000000000000000 DUP2 MSTORE PUSH1 0x4 ADD PUSH2 0x1DC SWAP1 PUSH2 0x1D6F JUMP JUMPDEST PUSH2 0x69A PUSH2 0x694 DUP5 PUSH16 0x80000000000000000000000000000000 PUSH2 0xB12 JUMP JUMPDEST DUP4 PUSH2 0xB88 JUMP JUMPDEST SWAP4 SWAP3 POP POP POP JUMP JUMPDEST PUSH1 0x0 PUSH2 0x69A PUSH2 0x694 DUP5 PUSH16 0x80000000000000000000000000000000 PUSH2 0xB12 JUMP JUMPDEST PUSH16 0x80000000000000000000000000000000 SWAP1 JUMP JUMPDEST PUSH1 0x0 PUSH32 0x8000000000000000000000000000000000000000000000000000000000000000 DUP3 EQ ISZERO PUSH2 0x730 JUMPI PUSH1 0x40 MLOAD PUSH32 0x8C379A000000000000000000000000000000000000000000000000000000000 DUP2 MSTORE PUSH1 0x4 ADD PUSH2 0x1DC SWAP1 PUSH2 0x1F05 JUMP JUMPDEST PUSH2 0x69A DUP4 DUP4 PUSH1 0x0 SUB PUSH2 0xC57 JUMP JUMPDEST PUSH2 0x745 PUSH2 0x1B5F JUMP JUMPDEST POP PUSH1 0x40 DUP1 MLOAD PUSH2 0x1C0 DUP2 ADD DUP3 MSTORE PUSH1 0x0 SLOAD PUSH20 0xFFFFFFFFFFFFFFFFFFFFFFFFFFFFFFFFFFFFFFFF SWAP1 DUP2 AND DUP3 MSTORE PUSH1 0x1 SLOAD AND PUSH1 0x20 DUP3 ADD MSTORE PUSH1 0x2 SLOAD SWAP2 DUP2 ADD SWAP2 SWAP1 SWAP2 MSTORE PUSH1 0x3 SLOAD PUSH1 0x60 DUP3 ADD MSTORE PUSH1 0x4 SLOAD PUSH1 0x80 DUP3 ADD MSTORE PUSH1 0x5 SLOAD PUSH1 0xA0 DUP3 ADD MSTORE PUSH1 0x6 SLOAD PUSH1 0xC0 DUP3 ADD MSTORE PUSH1 0x7 SLOAD PUSH1 0xE0 DUP3 ADD MSTORE PUSH1 0x8 SLOAD PUSH2 0x100 DUP3 ADD MSTORE PUSH1 0x9 SLOAD PUSH2 0x120 DUP3 ADD MSTORE PUSH1 0xA SLOAD PUSH2 0x140 DUP3 ADD MSTORE PUSH1 0xC SLOAD PUSH2 0x160 DUP3 ADD MSTORE PUSH1 0xD SLOAD PUSH2 0x180 DUP3 ADD MSTORE PUSH1 0xE SLOAD PUSH2 0x1A0 DUP3 ADD MSTORE SWAP1 JUMP JUMPDEST PUSH1 0x0 DUP1 PUSH2 0x7F5 DUP8 DUP8 DUP8 DUP7 PUSH1 0xE0 ADD MLOAD PUSH2 0xCCD JUMP JUMPDEST SWAP2 POP PUSH1 0x0 DUP3 DUP2 PUSH2 0x80B DUP11 DUP9 PUSH4 0xFFFFFFFF PUSH2 0x93A AND JUMP JUMPDEST SWAP1 POP PUSH1 0x0 JUMPDEST PUSH1 0x14 DUP2 LT ISZERO PUSH2 0x8D7 JUMPI PUSH1 0x0 PUSH2 0x825 DUP6 DUP6 PUSH2 0xD74 JUMP JUMPDEST SWAP1 POP PUSH1 0x0 PUSH2 0x841 PUSH2 0x83C DUP4 DUP14 PUSH4 0xFFFFFFFF PUSH2 0xA2A AND JUMP JUMPDEST PUSH2 0xD9C JUMP JUMPDEST SWAP1 POP PUSH1 0x0 PUSH2 0x878 PUSH2 0x858 DUP13 DUP6 PUSH4 0xFFFFFFFF PUSH2 0x8E7 AND JUMP JUMPDEST PUSH2 0x86C DUP6 PUSH2 0x379 DUP10 DUP8 PUSH4 0xFFFFFFFF PUSH2 0x8E7 AND JUMP JUMPDEST SWAP1 PUSH4 0xFFFFFFFF PUSH2 0x93A AND JUMP JUMPDEST SWAP1 POP PUSH32 0x4ADD19BBBE358CAF4AF4A31B1299356FC4DCCF8B4CF3C87E401B0FA60062F31E DUP3 DUP5 DUP4 PUSH1 0x40 MLOAD PUSH2 0x8AD SWAP4 SWAP3 SWAP2 SWAP1 PUSH2 0x1CB4 JUMP JUMPDEST PUSH1 0x40 MLOAD DUP1 SWAP2 SUB SWAP1 LOG1 DUP13 DUP2 SGT ISZERO PUSH2 0x8C5 JUMPI DUP3 SWAP6 POP PUSH2 0x8C9 JUMP JUMPDEST DUP3 SWAP7 POP JUMPDEST POP POP POP DUP1 PUSH1 0x1 ADD SWAP1 POP PUSH2 0x810 JUMP JUMPDEST POP SWAP2 SWAP3 POP POP POP SWAP6 POP SWAP6 SWAP4 POP POP POP POP JUMP JUMPDEST PUSH1 0x0 PUSH16 0x80000000000000000000000000000000 DUP3 ISZERO PUSH2 0x919 JUMPI POP PUSH6 0x10000000000 SWAP1 SWAP2 SDIV SWAP1 PUSH11 0x8000000000000000000000 JUMPDEST PUSH1 0x0 PUSH2 0x925 DUP6 DUP6 PUSH2 0xB12 JUMP JUMPDEST SWAP1 POP DUP2 DUP2 DUP2 PUSH2 0x930 JUMPI INVALID JUMPDEST SDIV SWAP6 SWAP5 POP POP POP POP POP JUMP JUMPDEST PUSH1 0x0 PUSH2 0x69A DUP4 DUP4 PUSH2 0xC57 JUMP JUMPDEST PUSH2 0x23A SWAP1 JUMP JUMPDEST PUSH1 0x0 DUP1 PUSH2 0x95A DUP8 DUP8 SUB PUSH2 0x5A4 JUMP JUMPDEST SWAP1 POP PUSH1 0x0 PUSH2 0x97F PUSH2 0x97A PUSH2 0x96D DUP9 PUSH2 0xE4B JUMP JUMPDEST DUP5 SWAP1 PUSH4 0xFFFFFFFF PUSH2 0x8E7 AND JUMP JUMPDEST PUSH2 0x1535 JUMP JUMPDEST SWAP1 POP PUSH1 0x0 PUSH2 0x98F DUP3 PUSH2 0x152 PUSH2 0x6C0 JUMP JUMPDEST SWAP1 POP PUSH1 0x0 PUSH2 0x9A3 DUP8 DUP4 PUSH4 0xFFFFFFFF PUSH2 0x8E7 AND JUMP JUMPDEST SWAP1 POP PUSH1 0x0 PUSH2 0x9B7 DUP8 DUP6 PUSH4 0xFFFFFFFF PUSH2 0x8E7 AND JUMP JUMPDEST SWAP1 POP PUSH1 0x0 PUSH2 0x9E3 PUSH2 0x9CE DUP6 DUP12 PUSH4 0xFFFFFFFF PUSH2 0xA2A AND JUMP JUMPDEST PUSH2 0x9DE DUP8 DUP12 PUSH4 0xFFFFFFFF PUSH2 0xA2A AND JUMP JUMPDEST PUSH2 0x93A JUMP JUMPDEST SWAP1 POP PUSH1 0x0 PUSH2 0x9F3 DUP3 PUSH2 0x45D PUSH2 0x6C0 JUMP JUMPDEST SWAP1 POP PUSH1 0x0 PUSH2 0xA18 PUSH2 0xA04 PUSH1 0x2 PUSH2 0x1B43 JUMP JUMPDEST PUSH2 0x45D DUP5 PUSH2 0x86C DUP10 DUP10 PUSH4 0xFFFFFFFF PUSH2 0x93A AND JUMP JUMPDEST SWAP15 SWAP14 POP POP POP POP POP POP POP POP POP POP POP POP POP POP JUMP JUMPDEST PUSH1 0x0 PUSH2 0xA44 PUSH2 0x694 DUP5 PUSH11 0x8000000000000000000000 PUSH2 0xB12 JUMP JUMPDEST PUSH6 0x10000000000 MUL SWAP4 SWAP3 POP POP POP JUMP JUMPDEST DUP1 MLOAD PUSH1 0x0 DUP1 SLOAD PUSH20 0xFFFFFFFFFFFFFFFFFFFFFFFFFFFFFFFFFFFFFFFF SWAP3 DUP4 AND PUSH32 0xFFFFFFFFFFFFFFFFFFFFFFFF0000000000000000000000000000000000000000 SWAP2 DUP3 AND OR SWAP1 SWAP2 SSTORE PUSH1 0x20 DUP4 ADD MLOAD PUSH1 0x1 DUP1 SLOAD SWAP2 SWAP1 SWAP4 AND SWAP2 AND OR SWAP1 SSTORE PUSH1 0x40 DUP2 ADD MLOAD PUSH1 0x2 SSTORE PUSH1 0x60 DUP2 ADD MLOAD PUSH1 0x3 SSTORE PUSH1 0x80 DUP2 ADD MLOAD PUSH1 0x4 SSTORE PUSH1 0xA0 DUP2 ADD MLOAD PUSH1 0x5 SSTORE PUSH1 0xC0 DUP2 ADD MLOAD PUSH1 0x6 SSTORE PUSH1 0xE0 DUP2 ADD MLOAD PUSH1 0x7 SSTORE PUSH2 0x100 DUP2 ADD MLOAD PUSH1 0x8 SSTORE PUSH2 0x120 DUP2 ADD MLOAD PUSH1 0x9 SSTORE PUSH2 0x140 DUP2 ADD MLOAD PUSH1 0xA SSTORE PUSH2 0x160 DUP2 ADD MLOAD PUSH1 0xC SSTORE PUSH2 0x180 DUP2 ADD MLOAD PUSH1 0xD SSTORE PUSH2 0x1A0 ADD MLOAD PUSH1 0xE SSTORE JUMP JUMPDEST PUSH1 0x0 DUP3 ISZERO DUP1 PUSH2 0xB1F JUMPI POP DUP2 ISZERO JUMPDEST ISZERO PUSH2 0xB2C JUMPI POP PUSH1 0x0 PUSH2 0x5FA JUMP JUMPDEST POP DUP2 DUP2 MUL DUP2 DUP4 DUP3 DUP2 PUSH2 0xB3A JUMPI INVALID JUMPDEST SDIV EQ ISZERO DUP1 PUSH2 0xB51 JUMPI POP DUP3 DUP3 DUP3 DUP2 PUSH2 0xB4D JUMPI INVALID JUMPDEST SDIV EQ ISZERO JUMPDEST ISZERO PUSH2 0x5FA JUMPI PUSH1 0x40 MLOAD PUSH32 0x8C379A000000000000000000000000000000000000000000000000000000000 DUP2 MSTORE PUSH1 0x4 ADD PUSH2 0x1DC SWAP1 PUSH2 0x1E97 JUMP JUMPDEST PUSH1 0x0 DUP2 PUSH2 0xBC1 JUMPI PUSH1 0x40 MLOAD PUSH32 0x8C379A000000000000000000000000000000000000000000000000000000000 DUP2 MSTORE PUSH1 0x4 ADD PUSH2 0x1DC SWAP1 PUSH2 0x1F99 JUMP JUMPDEST PUSH32 0x8000000000000000000000000000000000000000000000000000000000000000 DUP4 EQ DUP1 ISZERO PUSH2 0xC0F JUMPI POP DUP2 PUSH32 0xFFFFFFFFFFFFFFFFFFFFFFFFFFFFFFFFFFFFFFFFFFFFFFFFFFFFFFFFFFFFFFFF EQ JUMPDEST ISZERO PUSH2 0xC46 JUMPI PUSH1 0x40 MLOAD PUSH32 0x8C379A000000000000000000000000000000000000000000000000000000000 DUP2 MSTORE PUSH1 0x4 ADD PUSH2 0x1DC SWAP1 PUSH2 0x1FD0 JUMP JUMPDEST DUP2 DUP4 DUP2 PUSH2 0xC4F JUMPI INVALID JUMPDEST SDIV SWAP4 SWAP3 POP POP POP JUMP JUMPDEST DUP2 DUP2 ADD PUSH1 0x0 DUP4 SLT DUP1 ISZERO PUSH2 0xC6A JUMPI POP PUSH1 0x0 DUP3 SLT JUMPDEST DUP1 ISZERO PUSH2 0xC75 JUMPI POP DUP3 DUP2 SGT JUMPDEST DUP1 PUSH2 0xC96 JUMPI POP PUSH1 0x0 DUP4 SGT DUP1 ISZERO PUSH2 0xC8B JUMPI POP PUSH1 0x0 DUP3 SGT JUMPDEST DUP1 ISZERO PUSH2 0xC96 JUMPI POP DUP3 DUP2 SLT JUMPDEST ISZERO PUSH2 0x5FA JUMPI PUSH1 0x40 MLOAD PUSH32 0x8C379A000000000000000000000000000000000000000000000000000000000 DUP2 MSTORE PUSH1 0x4 ADD PUSH2 0x1DC SWAP1 PUSH2 0x1ECE JUMP JUMPDEST PUSH1 0x0 DUP1 PUSH2 0xCE0 DUP5 DUP8 PUSH4 0xFFFFFFFF PUSH2 0x8E7 AND JUMP JUMPDEST SWAP1 POP PUSH1 0x0 PUSH2 0xCF4 DUP7 DUP4 PUSH4 0xFFFFFFFF PUSH2 0xA2A AND JUMP JUMPDEST SWAP1 POP PUSH1 0x0 PUSH2 0xD08 DUP4 DUP9 PUSH4 0xFFFFFFFF PUSH2 0xA2A AND JUMP JUMPDEST SWAP1 POP PUSH1 0x0 PUSH2 0xD18 DUP7 PUSH2 0x152 PUSH2 0x6C0 JUMP JUMPDEST SWAP1 POP PUSH1 0x0 PUSH2 0xD24 PUSH2 0x6C0 JUMP JUMPDEST DUP5 SLT ISZERO PUSH2 0xD42 JUMPI PUSH2 0xD3B PUSH2 0x97A DUP4 PUSH2 0x379 DUP8 PUSH2 0xE4B JUMP JUMPDEST SWAP1 POP PUSH2 0xD60 JUMP JUMPDEST PUSH2 0xD5D PUSH2 0xD55 PUSH2 0x97A DUP5 PUSH2 0x379 DUP8 PUSH2 0xE4B JUMP JUMPDEST PUSH2 0x45D PUSH2 0x6C0 JUMP JUMPDEST SWAP1 POP JUMPDEST SWAP5 POP PUSH2 0xD6C SWAP4 POP POP POP POP JUMP JUMPDEST SWAP5 SWAP4 POP POP POP POP JUMP JUMPDEST PUSH1 0x0 PUSH2 0x69A PUSH2 0xD8C PUSH2 0xD84 PUSH2 0x6C0 JUMP JUMPDEST PUSH2 0x86C PUSH2 0x6C0 JUMP JUMPDEST PUSH2 0x45D DUP6 DUP6 PUSH4 0xFFFFFFFF PUSH2 0x93A AND JUMP JUMPDEST PUSH1 0x0 DUP1 PUSH2 0xDAF DUP4 DUP1 PUSH4 0xFFFFFFFF PUSH2 0x8E7 AND JUMP JUMPDEST SWAP1 POP PUSH1 0x0 PUSH2 0xDC3 DUP5 DUP4 PUSH4 0xFFFFFFFF PUSH2 0x8E7 AND JUMP JUMPDEST SWAP1 POP PUSH1 0x0 PUSH2 0xDD7 DUP3 DUP1 PUSH4 0xFFFFFFFF PUSH2 0x8E7 AND JUMP JUMPDEST SWAP1 POP PUSH1 0x0 PUSH2 0xDEB DUP3 DUP1 PUSH4 0xFFFFFFFF PUSH2 0x8E7 AND JUMP JUMPDEST SWAP1 POP PUSH1 0x0 PUSH2 0xDFF DUP3 DUP1 PUSH4 0xFFFFFFFF PUSH2 0x8E7 AND JUMP JUMPDEST SWAP1 POP PUSH1 0x0 PUSH2 0xE13 DUP3 DUP1 PUSH4 0xFFFFFFFF PUSH2 0x8E7 AND JUMP JUMPDEST SWAP1 POP PUSH1 0x0 PUSH2 0xE27 DUP3 DUP1 PUSH4 0xFFFFFFFF PUSH2 0x8E7 AND JUMP JUMPDEST SWAP1 POP PUSH1 0x0 PUSH2 0xE3B DUP3 DUP9 PUSH4 0xFFFFFFFF PUSH2 0x8E7 AND JUMP JUMPDEST SWAP9 POP POP POP POP POP POP POP POP POP JUMPDEST SWAP2 SWAP1 POP JUMP JUMPDEST PUSH1 0x0 PUSH16 0x80000000000000000000000000000000 DUP3 SGT ISZERO PUSH2 0xE97 JUMPI PUSH1 0x40 MLOAD PUSH32 0x8C379A000000000000000000000000000000000000000000000000000000000 DUP2 MSTORE PUSH1 0x4 ADD PUSH2 0x1DC SWAP1 PUSH2 0x1DCC JUMP JUMPDEST PUSH1 0x0 DUP3 SGT PUSH2 0xED1 JUMPI PUSH1 0x40 MLOAD PUSH32 0x8C379A000000000000000000000000000000000000000000000000000000000 DUP2 MSTORE PUSH1 0x4 ADD PUSH2 0x1DC SWAP1 PUSH2 0x1D01 JUMP JUMPDEST PUSH16 0x80000000000000000000000000000000 DUP3 EQ ISZERO PUSH2 0xEF1 JUMPI POP PUSH1 0x0 PUSH2 0xE46 JUMP JUMPDEST PUSH5 0x733048C5A DUP3 SGT PUSH2 0xF24 JUMPI POP PUSH32 0xFFFFFFFFFFFFFFFFFFFFFFFFFFFFFFE010000000000000000000000000000000 PUSH2 0xE46 JUMP JUMPDEST PUSH1 0x0 DUP1 PUSH1 0x0 PUSH11 0x1C8464F76164760000000 DUP6 SGT PUSH2 0xF83 JUMPI PUSH32 0xFFFFFFFFFFFFFFFFFFFFFFFFFFFFFFF000000000000000000000000000000000 SWAP1 SWAP4 ADD SWAP3 PUSH11 0x1C8464F76164760000000 PUSH16 0x80000000000000000000000000000000 DUP7 MUL SDIV SWAP5 POP JUMPDEST PUSH13 0xF1AADDD7742E90000000000000 DUP6 SGT PUSH2 0xFE1 JUMPI PUSH32 0xFFFFFFFFFFFFFFFFFFFFFFFFFFFFFFF800000000000000000000000000000000 SWAP1 SWAP4 ADD SWAP3 PUSH13 0xF1AADDD7742E90000000000000 PUSH16 0x80000000000000000000000000000000 DUP7 MUL SDIV SWAP5 POP JUMPDEST PUSH15 0xAFE10820813D78000000000000000 DUP6 SGT PUSH2 0x1043 JUMPI PUSH32 0xFFFFFFFFFFFFFFFFFFFFFFFFFFFFFFFC00000000000000000000000000000000 SWAP1 SWAP4 ADD SWAP3 PUSH15 0xAFE10820813D78000000000000000 PUSH16 0x80000000000000000000000000000000 DUP7 MUL SDIV SWAP5 POP JUMPDEST PUSH16 0x2582AB704279EC00000000000000000 DUP6 SGT PUSH2 0x10A7 JUMPI PUSH32 0xFFFFFFFFFFFFFFFFFFFFFFFFFFFFFFFE00000000000000000000000000000000 SWAP1 SWAP4 ADD SWAP3 PUSH16 0x2582AB704279EC00000000000000000 PUSH16 0x80000000000000000000000000000000 DUP7 MUL SDIV SWAP5 POP JUMPDEST PUSH16 0x1152AAA3BF81CC000000000000000000 DUP6 SGT PUSH2 0x110B JUMPI PUSH32 0xFFFFFFFFFFFFFFFFFFFFFFFFFFFFFFFF00000000000000000000000000000000 SWAP1 SWAP4 ADD SWAP3 PUSH16 0x1152AAA3BF81CC000000000000000000 PUSH16 0x80000000000000000000000000000000 DUP7 MUL SDIV SWAP5 POP JUMPDEST PUSH16 0x2F16AC6C59DE70000000000000000000 DUP6 SGT PUSH2 0x116F JUMPI PUSH32 0xFFFFFFFFFFFFFFFFFFFFFFFFFFFFFFFF80000000000000000000000000000000 SWAP1 SWAP4 ADD SWAP3 PUSH16 0x2F16AC6C59DE70000000000000000000 PUSH16 0x80000000000000000000000000000000 DUP7 MUL SDIV SWAP5 POP JUMPDEST PUSH16 0x4DA2CBF1BE5828000000000000000000 DUP6 SGT PUSH2 0x11D3 JUMPI PUSH32 0xFFFFFFFFFFFFFFFFFFFFFFFFFFFFFFFFC0000000000000000000000000000000 SWAP1 SWAP4 ADD SWAP3 PUSH16 0x4DA2CBF1BE5828000000000000000000 PUSH16 0x80000000000000000000000000000000 DUP7 MUL SDIV SWAP5 POP JUMPDEST PUSH16 0x63AFBE7AB2082C000000000000000000 DUP6 SGT PUSH2 0x1237 JUMPI PUSH32 0xFFFFFFFFFFFFFFFFFFFFFFFFFFFFFFFFE0000000000000000000000000000000 SWAP1 SWAP4 ADD SWAP3 PUSH16 0x63AFBE7AB2082C000000000000000000 PUSH16 0x80000000000000000000000000000000 DUP7 MUL SDIV SWAP5 POP JUMPDEST PUSH16 0x70F5A893B608861E1F58934F97AEA57D DUP6 SGT PUSH2 0x129B JUMPI PUSH32 0xFFFFFFFFFFFFFFFFFFFFFFFFFFFFFFFFF0000000000000000000000000000000 SWAP1 SWAP4 ADD SWAP3 PUSH16 0x70F5A893B608861E1F58934F97AEA57D PUSH16 0x80000000000000000000000000000000 DUP7 MUL SDIV SWAP5 POP JUMPDEST PUSH32 0xFFFFFFFFFFFFFFFFFFFFFFFFFFFFFFFF80000000000000000000000000000000 DUP6 ADD SWAP3 POP DUP3 SWAP2 POP PUSH16 0x80000000000000000000000000000000 DUP3 DUP1 MUL SDIV SWAP1 POP PUSH17 0x100000000000000000000000000000000 DUP4 DUP2 SUB DUP4 MUL SDIV DUP5 ADD SWAP4 POP PUSH16 0x80000000000000000000000000000000 DUP2 DUP4 MUL DUP2 PUSH2 0x1311 JUMPI INVALID JUMPDEST SDIV SWAP2 POP PUSH17 0x200000000000000000000000000000000 DUP4 PUSH16 0xAAAAAAAAAAAAAAAAAAAAAAAAAAAAAAAA SUB DUP4 MUL DUP2 PUSH2 0x1342 JUMPI INVALID JUMPDEST SDIV DUP5 ADD SWAP4 POP PUSH16 0x80000000000000000000000000000000 DUP2 DUP4 MUL DUP2 PUSH2 0x1362 JUMPI INVALID JUMPDEST SDIV SWAP2 POP PUSH17 0x300000000000000000000000000000000 DUP4 PUSH16 0x99999999999999999999999999999999 SUB DUP4 MUL DUP2 PUSH2 0x1393 JUMPI INVALID JUMPDEST SDIV DUP5 ADD SWAP4 POP PUSH16 0x80000000000000000000000000000000 DUP2 DUP4 MUL DUP2 PUSH2 0x13B3 JUMPI INVALID JUMPDEST SDIV SWAP2 POP PUSH17 0x400000000000000000000000000000000 DUP4 PUSH16 0x92492492492492492492492492492492 SUB DUP4 MUL DUP2 PUSH2 0x13E4 JUMPI INVALID JUMPDEST SDIV DUP5 ADD SWAP4 POP PUSH16 0x80000000000000000000000000000000 DUP2 DUP4 MUL DUP2 PUSH2 0x1404 JUMPI INVALID JUMPDEST SDIV SWAP2 POP PUSH17 0x500000000000000000000000000000000 DUP4 PUSH16 0x8E38E38E38E38E38E38E38E38E38E38E SUB DUP4 MUL DUP2 PUSH2 0x1435 JUMPI INVALID JUMPDEST SDIV DUP5 ADD SWAP4 POP PUSH16 0x80000000000000000000000000000000 DUP2 DUP4 MUL DUP2 PUSH2 0x1455 JUMPI INVALID JUMPDEST SDIV SWAP2 POP PUSH17 0x600000000000000000000000000000000 DUP4 PUSH16 0x8BA2E8BA2E8BA2E8BA2E8BA2E8BA2E8B SUB DUP4 MUL DUP2 PUSH2 0x1486 JUMPI INVALID JUMPDEST SDIV DUP5 ADD SWAP4 POP PUSH16 0x80000000000000000000000000000000 DUP2 DUP4 MUL DUP2 PUSH2 0x14A6 JUMPI INVALID JUMPDEST SDIV SWAP2 POP PUSH17 0x700000000000000000000000000000000 DUP4 PUSH16 0x89D89D89D89D89D89D89D89D89D89D89 SUB DUP4 MUL DUP2 PUSH2 0x14D7 JUMPI INVALID JUMPDEST SDIV DUP5 ADD SWAP4 POP PUSH16 0x80000000000000000000000000000000 DUP2 DUP4 MUL DUP2 PUSH2 0x14F7 JUMPI INVALID JUMPDEST SDIV SWAP2 POP PUSH17 0x800000000000000000000000000000000 DUP4 PUSH16 0x88888888888888888888888888888888 SUB DUP4 MUL DUP2 PUSH2 0x1528 JUMPI INVALID JUMPDEST SDIV DUP5 ADD SWAP4 POP POP POP POP SWAP2 SWAP1 POP JUMP JUMPDEST PUSH1 0x0 PUSH32 0xFFFFFFFFFFFFFFFFFFFFFFFFFFFFFFE010000000000000000000000000000000 DUP3 SLT ISZERO PUSH2 0x1567 JUMPI POP PUSH1 0x0 PUSH2 0xE46 JUMP JUMPDEST DUP2 PUSH2 0x1583 JUMPI POP PUSH16 0x80000000000000000000000000000000 PUSH2 0xE46 JUMP JUMPDEST PUSH1 0x0 DUP3 SGT ISZERO PUSH2 0x15BE JUMPI PUSH1 0x40 MLOAD PUSH32 0x8C379A000000000000000000000000000000000000000000000000000000000 DUP2 MSTORE PUSH1 0x4 ADD PUSH2 0x1DC SWAP1 PUSH2 0x1E60 JUMP JUMPDEST PUSH16 0x80000000000000000000000000000000 PUSH16 0x10000000000000000000000000000000 DUP4 SMOD DUP1 DUP1 MUL DUP3 SWAP1 SDIV PUSH8 0x10E1B3BE415A0000 DUP2 MUL SWAP4 SWAP1 SWAP4 ADD SWAP3 SWAP1 SWAP2 DUP2 DUP4 MUL SDIV SWAP1 POP DUP1 PUSH8 0x5A0913F6B1E0000 MUL DUP4 ADD SWAP3 POP PUSH16 0x80000000000000000000000000000000 DUP3 DUP3 MUL DUP2 PUSH2 0x162A JUMPI INVALID JUMPDEST SDIV SWAP1 POP DUP1 PUSH8 0x168244FDAC78000 MUL DUP4 ADD SWAP3 POP PUSH16 0x80000000000000000000000000000000 DUP3 DUP3 MUL DUP2 PUSH2 0x1657 JUMPI INVALID JUMPDEST SDIV SWAP1 POP DUP1 PUSH7 0x4807432BC18000 MUL DUP4 ADD SWAP3 POP PUSH16 0x80000000000000000000000000000000 DUP3 DUP3 MUL DUP2 PUSH2 0x1683 JUMPI INVALID JUMPDEST SDIV SWAP1 POP DUP1 PUSH7 0xC0135DCA04000 MUL DUP4 ADD SWAP3 POP PUSH16 0x80000000000000000000000000000000 DUP3 DUP3 MUL DUP2 PUSH2 0x16AF JUMPI INVALID JUMPDEST SDIV SWAP1 POP DUP1 PUSH7 0x1B707B1CDC000 MUL DUP4 ADD SWAP3 POP PUSH16 0x80000000000000000000000000000000 DUP3 DUP3 MUL DUP2 PUSH2 0x16DB JUMPI INVALID JUMPDEST SDIV SWAP1 POP DUP1 PUSH6 0x36E0F639B800 MUL DUP4 ADD SWAP3 POP PUSH16 0x80000000000000000000000000000000 DUP3 DUP3 MUL DUP2 PUSH2 0x1706 JUMPI INVALID JUMPDEST SDIV SWAP1 POP DUP1 PUSH6 0x618FEE9F800 MUL DUP4 ADD SWAP3 POP PUSH16 0x80000000000000000000000000000000 DUP3 DUP3 MUL DUP2 PUSH2 0x1731 JUMPI INVALID JUMPDEST SDIV SWAP1 POP DUP1 PUSH5 0x9C197DCC00 MUL DUP4 ADD SWAP3 POP PUSH16 0x80000000000000000000000000000000 DUP3 DUP3 MUL DUP2 PUSH2 0x175B JUMPI INVALID JUMPDEST SDIV SWAP1 POP DUP1 PUSH5 0xE30DCE400 MUL DUP4 ADD SWAP3 POP PUSH16 0x80000000000000000000000000000000 DUP3 DUP3 MUL DUP2 PUSH2 0x1785 JUMPI INVALID JUMPDEST SDIV SWAP1 POP DUP1 PUSH5 0x12EBD1300 MUL DUP4 ADD SWAP3 POP PUSH16 0x80000000000000000000000000000000 DUP3 DUP3 MUL DUP2 PUSH2 0x17AF JUMPI INVALID JUMPDEST SDIV SWAP1 POP DUP1 PUSH4 0x17499F00 MUL DUP4 ADD SWAP3 POP PUSH16 0x80000000000000000000000000000000 DUP3 DUP3 MUL DUP2 PUSH2 0x17D8 JUMPI INVALID JUMPDEST SDIV SWAP1 POP DUP1 PUSH4 0x1A9D480 MUL DUP4 ADD SWAP3 POP PUSH16 0x80000000000000000000000000000000 DUP3 DUP3 MUL DUP2 PUSH2 0x1801 JUMPI INVALID JUMPDEST SDIV SWAP1 POP DUP1 PUSH3 0x1C6380 MUL DUP4 ADD SWAP3 POP PUSH16 0x80000000000000000000000000000000 DUP3 DUP3 MUL DUP2 PUSH2 0x1829 JUMPI INVALID JUMPDEST SDIV SWAP1 POP DUP1 PUSH3 0x1C638 MUL DUP4 ADD SWAP3 POP PUSH16 0x80000000000000000000000000000000 DUP3 DUP3 MUL DUP2 PUSH2 0x1851 JUMPI INVALID JUMPDEST SDIV SWAP1 POP DUP1 PUSH2 0x1AB8 MUL DUP4 ADD SWAP3 POP PUSH16 0x80000000000000000000000000000000 DUP3 DUP3 MUL DUP2 PUSH2 0x1878 JUMPI INVALID JUMPDEST SDIV SWAP1 POP DUP1 PUSH2 0x17C MUL DUP4 ADD SWAP3 POP PUSH16 0x80000000000000000000000000000000 DUP3 DUP3 MUL DUP2 PUSH2 0x189F JUMPI INVALID JUMPDEST SDIV SWAP1 POP DUP1 PUSH1 0x14 MUL DUP4 ADD SWAP3 POP PUSH16 0x80000000000000000000000000000000 DUP3 DUP3 MUL DUP2 PUSH2 0x18C5 JUMPI INVALID JUMPDEST PUSH1 0x0 SWAP6 SWAP1 SWAP6 SUB SWAP5 PUSH8 0x21C3677C82B40000 SWAP2 SWAP1 SDIV SWAP4 DUP5 ADD SDIV DUP3 ADD PUSH16 0x80000000000000000000000000000000 ADD SWAP3 SWAP1 POP PUSH17 0x1000000000000000000000000000000000 DUP5 AND ISZERO PUSH2 0x1934 JUMPI PUSH19 0x43CBAF42A000812488FC5C220AD7B97BF6E99E PUSH13 0xF1AADDD7742E56D32FB9F99744 DUP5 MUL SDIV SWAP3 POP JUMPDEST PUSH17 0x800000000000000000000000000000000 DUP5 AND ISZERO PUSH2 0x1976 JUMPI PUSH18 0x5D27A9F51C31B7C2F8038212A0574779991 PUSH15 0xAFE10820813D65DFE6A33C07F738F DUP5 MUL SDIV SWAP3 POP JUMPDEST PUSH17 0x400000000000000000000000000000000 DUP5 AND ISZERO PUSH2 0x19B8 JUMPI PUSH17 0x1B4C902E273A58678D6D3BFDB93DB96D02 PUSH16 0x2582AB704279E8EFD15E0265855C47A DUP5 MUL SDIV SWAP3 POP JUMPDEST PUSH17 0x200000000000000000000000000000000 DUP5 AND ISZERO PUSH2 0x19FA JUMPI PUSH17 0x3B1CC971A9BB5B9867477440D6D157750 PUSH16 0x1152AAA3BF81CB9FDB76EAE12D029571 DUP5 MUL SDIV SWAP3 POP JUMPDEST PUSH17 0x100000000000000000000000000000000 DUP5 AND ISZERO PUSH2 0x1A3C JUMPI PUSH17 0x15BF0A8B1457695355FB8AC404E7A79E3 PUSH16 0x2F16AC6C59DE6F8D5D6F63C1482A7C86 DUP5 MUL SDIV SWAP3 POP JUMPDEST PUSH16 0x80000000000000000000000000000000 DUP5 AND ISZERO PUSH2 0x1A7C JUMPI PUSH16 0xD3094C70F034DE4B96FF7D5B6F99FCD8 PUSH16 0x4DA2CBF1BE5827F9EB3AD1AA9866EBB3 DUP5 MUL SDIV SWAP3 POP JUMPDEST PUSH16 0x40000000000000000000000000000000 DUP5 AND ISZERO PUSH2 0x1ABC JUMPI PUSH16 0xA45AF1E1F40C333B3DE1DB4DD55F29A7 PUSH16 0x63AFBE7AB2082BA1A0AE5E4EB1B479DC DUP5 MUL SDIV SWAP3 POP JUMPDEST PUSH16 0x20000000000000000000000000000000 DUP5 AND ISZERO PUSH2 0x1AFC JUMPI PUSH16 0x910B022DB7AE67CE76B441C27035C6A1 PUSH16 0x70F5A893B608861E1F58934F97AEA57D DUP5 MUL SDIV SWAP3 POP JUMPDEST PUSH16 0x10000000000000000000000000000000 DUP5 AND ISZERO PUSH2 0x1B3C JUMPI PUSH16 0x88415ABBE9A76BEAD8D00CF112E4D4A8 PUSH16 0x783EAFEF1C0A8F3978C7F81824D62EBF DUP5 MUL SDIV SWAP3 POP JUMPDEST POP POP SWAP2 SWAP1 POP JUMP JUMPDEST PUSH1 0x0 PUSH2 0x5FA DUP3 PUSH16 0x80000000000000000000000000000000 PUSH2 0xB12 JUMP JUMPDEST PUSH1 0x40 MLOAD DUP1 PUSH2 0x1C0 ADD PUSH1 0x40 MSTORE DUP1 PUSH1 0x0 PUSH20 0xFFFFFFFFFFFFFFFFFFFFFFFFFFFFFFFFFFFFFFFF AND DUP2 MSTORE PUSH1 0x20 ADD PUSH1 0x0 PUSH20 0xFFFFFFFFFFFFFFFFFFFFFFFFFFFFFFFFFFFFFFFF AND DUP2 MSTORE PUSH1 0x20 ADD PUSH1 0x0 DUP2 MSTORE PUSH1 0x20 ADD PUSH1 0x0 DUP2 MSTORE PUSH1 0x20 ADD PUSH1 0x0 DUP2 MSTORE PUSH1 0x20 ADD PUSH1 0x0 DUP2 MSTORE PUSH1 0x20 ADD PUSH1 0x0 DUP2 MSTORE PUSH1 0x20 ADD PUSH1 0x0 DUP2 MSTORE PUSH1 0x20 ADD PUSH1 0x0 DUP2 MSTORE PUSH1 0x20 ADD PUSH1 0x0 DUP2 MSTORE PUSH1 0x20 ADD PUSH1 0x0 DUP2 MSTORE PUSH1 0x20 ADD PUSH1 0x0 DUP2 MSTORE PUSH1 0x20 ADD PUSH1 0x0 DUP2 MSTORE PUSH1 0x20 ADD PUSH1 0x0 DUP2 MSTORE POP SWAP1 JUMP JUMPDEST PUSH1 0x0 DUP1 PUSH1 0x0 PUSH1 0x60 DUP5 DUP7 SUB SLT ISZERO PUSH2 0x1C0E JUMPI DUP3 DUP4 REVERT JUMPDEST DUP4 CALLDATALOAD PUSH2 0x1C19 DUP2 PUSH2 0x2007 JUMP JUMPDEST SWAP3 POP PUSH1 0x20 DUP5 ADD CALLDATALOAD PUSH2 0x1C29 DUP2 PUSH2 0x2007 JUMP JUMPDEST SWAP3 SWAP6 SWAP3 SWAP5 POP POP POP PUSH1 0x40 SWAP2 SWAP1 SWAP2 ADD CALLDATALOAD SWAP1 JUMP JUMPDEST PUSH1 0x0 PUSH1 0x20 DUP3 DUP5 SUB SLT ISZERO PUSH2 0x1C4B JUMPI DUP1 DUP2 REVERT JUMPDEST POP CALLDATALOAD SWAP2 SWAP1 POP JUMP JUMPDEST PUSH1 0x0 DUP1 PUSH1 0x40 DUP4 DUP6 SUB SLT ISZERO PUSH2 0x1C64 JUMPI DUP2 DUP3 REVERT JUMPDEST POP POP DUP1 CALLDATALOAD SWAP3 PUSH1 0x20 SWAP1 SWAP2 ADD CALLDATALOAD SWAP2 POP JUMP JUMPDEST PUSH20 0xFFFFFFFFFFFFFFFFFFFFFFFFFFFFFFFFFFFFFFFF SWAP6 DUP7 AND DUP2 MSTORE SWAP4 DUP6 AND PUSH1 0x20 DUP6 ADD MSTORE SWAP2 SWAP1 SWAP4 AND PUSH1 0x40 DUP4 ADD MSTORE PUSH1 0x60 DUP3 ADD SWAP3 SWAP1 SWAP3 MSTORE PUSH1 0x80 DUP2 ADD SWAP2 SWAP1 SWAP2 MSTORE PUSH1 0xA0 ADD SWAP1 JUMP JUMPDEST SWAP3 DUP4 MSTORE PUSH1 0x20 DUP4 ADD SWAP2 SWAP1 SWAP2 MSTORE PUSH1 0x40 DUP3 ADD MSTORE PUSH1 0x60 ADD SWAP1 JUMP JUMPDEST PUSH1 0x20 DUP1 DUP3 MSTORE PUSH1 0x15 SWAP1 DUP3 ADD MSTORE PUSH32 0x496E76616C69642076616C756520666F722072686F0000000000000000000000 PUSH1 0x40 DUP3 ADD MSTORE PUSH1 0x60 ADD SWAP1 JUMP JUMPDEST PUSH1 0x20 DUP1 DUP3 MSTORE PUSH1 0x13 SWAP1 DUP3 ADD MSTORE PUSH32 0x6C6E3A2076616C756520746F6F20736D616C6C00000000000000000000000000 PUSH1 0x40 DUP3 ADD MSTORE PUSH1 0x60 ADD SWAP1 JUMP JUMPDEST PUSH1 0x20 DUP1 DUP3 MSTORE PUSH1 0x17 SWAP1 DUP3 ADD MSTORE PUSH32 0x496E76616C696420746F6B656E20616464726573736573000000000000000000 PUSH1 0x40 DUP3 ADD MSTORE PUSH1 0x60 ADD SWAP1 JUMP JUMPDEST PUSH1 0x20 DUP1 DUP3 MSTORE PUSH1 0x38 SWAP1 DUP3 ADD MSTORE PUSH32 0x746F46697865642875696E742C75696E74293A2064656E6F6D696E61746F7220 PUSH1 0x40 DUP3 ADD MSTORE PUSH32 0x63616E6E6F74206265206C657373207468616E207A65726F0000000000000000 PUSH1 0x60 DUP3 ADD MSTORE PUSH1 0x80 ADD SWAP1 JUMP JUMPDEST PUSH1 0x20 DUP1 DUP3 MSTORE PUSH1 0x13 SWAP1 DUP3 ADD MSTORE PUSH32 0x6C6E3A2076616C756520746F6F206C6172676500000000000000000000000000 PUSH1 0x40 DUP3 ADD MSTORE PUSH1 0x60 ADD SWAP1 JUMP JUMPDEST PUSH1 0x20 DUP1 DUP3 MSTORE PUSH1 0x27 SWAP1 DUP3 ADD MSTORE PUSH32 0x746F46697865643A2076616C75652063616E6E6F74206265206C657373207468 PUSH1 0x40 DUP3 ADD MSTORE PUSH32 0x616E207A65726F00000000000000000000000000000000000000000000000000 PUSH1 0x60 DUP3 ADD MSTORE PUSH1 0x80 ADD SWAP1 JUMP JUMPDEST PUSH1 0x20 DUP1 DUP3 MSTORE PUSH1 0x14 SWAP1 DUP3 ADD MSTORE PUSH32 0x6578703A2076616C756520746F6F20736D616C6C000000000000000000000000 PUSH1 0x40 DUP3 ADD MSTORE PUSH1 0x60 ADD SWAP1 JUMP JUMPDEST PUSH1 0x20 DUP1 DUP3 MSTORE PUSH1 0xE SWAP1 DUP3 ADD MSTORE PUSH32 0x5F6D756C3A206F766572666C6F77000000000000000000000000000000000000 PUSH1 0x40 DUP3 ADD MSTORE PUSH1 0x60 ADD SWAP1 JUMP JUMPDEST PUSH1 0x20 DUP1 DUP3 MSTORE PUSH1 0xE SWAP1 DUP3 ADD MSTORE PUSH32 0x5F6164643A206F766572666C6F77000000000000000000000000000000000000 PUSH1 0x40 DUP3 ADD MSTORE PUSH1 0x60 ADD SWAP1 JUMP JUMPDEST PUSH1 0x20 DUP1 DUP3 MSTORE PUSH1 0x14 SWAP1 DUP3 ADD MSTORE PUSH32 0x7375623A2076616C756520746F6F20736D616C6C000000000000000000000000 PUSH1 0x40 DUP3 ADD MSTORE PUSH1 0x60 ADD SWAP1 JUMP JUMPDEST PUSH1 0x20 DUP1 DUP3 MSTORE PUSH1 0x36 SWAP1 DUP3 ADD MSTORE PUSH32 0x746F46697865642875696E742C75696E74293A206E756D657261746F72206361 PUSH1 0x40 DUP3 ADD MSTORE PUSH32 0x6E6E6F74206265206C657373207468616E207A65726F00000000000000000000 PUSH1 0x60 DUP3 ADD MSTORE PUSH1 0x80 ADD SWAP1 JUMP JUMPDEST PUSH1 0x20 DUP1 DUP3 MSTORE PUSH1 0x14 SWAP1 DUP3 ADD MSTORE PUSH32 0x5F6469763A20646976696465206279207A65726F000000000000000000000000 PUSH1 0x40 DUP3 ADD MSTORE PUSH1 0x60 ADD SWAP1 JUMP JUMPDEST PUSH1 0x20 DUP1 DUP3 MSTORE PUSH1 0xE SWAP1 DUP3 ADD MSTORE PUSH32 0x5F6469763A206F766572666C6F77000000000000000000000000000000000000 PUSH1 0x40 DUP3 ADD MSTORE PUSH1 0x60 ADD SWAP1 JUMP JUMPDEST PUSH20 0xFFFFFFFFFFFFFFFFFFFFFFFFFFFFFFFFFFFFFFFF DUP2 AND DUP2 EQ PUSH2 0xAF JUMPI PUSH1 0x0 DUP1 REVERT INVALID LOG3 PUSH6 0x627A7A723158 KECCAK256 DUP16 0x1F AND SUB GASPRICE RETURN PUSH21 0xFA9EBD23D40E772525C6603BBD9C66004D38809103 GAS 0xA8 0xF PUSH7 0x6C657870657269 PUSH14 0x656E74616CF564736F6C63430005 0xD STOP BLOCKHASH "
			}
		}
	},
	"sourceTreeHashHex": "0xab2d2e0ce4d0c4ca913ffae33aa5273a22a438bcd3dac9f0f0bd71ba7be34755",
	"compiler": {
		"name": "solc",
		"version": "soljson-v0.5.13+commit.5b0b510c.js",
		"settings": {
			"optimizer": {
				"enabled": true,
				"runs": 1000000,
				"details": {
					"yul": true,
					"deduplicate": true,
					"cse": true,
					"constantOptimizer": true
				}
			},
			"outputSelection": {
				"*": {
					"*": [
						"abi",
						"devdoc",
						"evm.bytecode.object",
						"evm.bytecode.sourceMap",
						"evm.deployedBytecode.object",
						"evm.deployedBytecode.sourceMap"
					]
				}
			},
			"evmVersion": "constantinople",
			"remappings": []
		}
	},
	"chains": {}
}