{
	"schemaVersion": "2.0.0",
	"contractName": "TestScam",
	"compilerOutput": {
		"abi": [
			{
				"anonymous": false,
				"inputs": [
					{
						"indexed": false,
						"internalType": "int256",
						"name": "lhs1",
						"type": "int256"
					},
					{
						"indexed": false,
						"internalType": "int256",
						"name": "mid",
						"type": "int256"
					},
					{
						"indexed": false,
						"internalType": "int256",
						"name": "lhs",
						"type": "int256"
					}
				],
				"name": "Bisect",
				"type": "event"
			},
			{
				"anonymous": false,
				"inputs": [
					{
						"indexed": false,
						"internalType": "address",
						"name": "from",
						"type": "address"
					},
					{
						"indexed": false,
						"internalType": "address",
						"name": "fromToken",
						"type": "address"
					},
					{
						"indexed": false,
						"internalType": "address",
						"name": "toToken",
						"type": "address"
					},
					{
						"indexed": false,
						"internalType": "uint256",
						"name": "amountSpent",
						"type": "uint256"
					},
					{
						"indexed": false,
						"internalType": "uint256",
						"name": "amountReceived",
						"type": "uint256"
					}
				],
				"name": "Fill",
				"type": "event"
			},
			{
				"anonymous": false,
				"inputs": [
					{
						"indexed": false,
						"internalType": "address",
						"name": "from",
						"type": "address"
					},
					{
						"indexed": false,
						"internalType": "int256",
						"name": "amountSpent",
						"type": "int256"
					},
					{
						"indexed": false,
						"internalType": "int256",
						"name": "amountReceived",
						"type": "int256"
					}
				],
				"name": "FillInternal",
				"type": "event"
			},
			{
				"anonymous": false,
				"inputs": [
					{
						"indexed": false,
						"internalType": "address",
						"name": "oldOwner",
						"type": "address"
					},
					{
						"indexed": false,
						"internalType": "address",
						"name": "newOwner",
						"type": "address"
					}
				],
				"name": "OwnershipTransferred",
				"type": "event"
			},
			{
				"anonymous": false,
				"inputs": [
					{
						"indexed": false,
						"internalType": "int256",
						"name": "price",
						"type": "int256"
					},
					{
						"indexed": false,
						"internalType": "int256",
						"name": "deltaB",
						"type": "int256"
					},
					{
						"indexed": false,
						"internalType": "int256",
						"name": "newPBarX",
						"type": "int256"
					},
					{
						"indexed": false,
						"internalType": "int256",
						"name": "pA",
						"type": "int256"
					}
				],
				"name": "Price",
				"type": "event"
			},
			{
				"constant": false,
				"inputs": [
					{
						"internalType": "uint256",
						"name": "amount",
						"type": "uint256"
					}
				],
				"name": "addLiquidity",
				"outputs": [],
				"payable": false,
				"stateMutability": "nonpayable",
				"type": "function"
			},
			{
				"constant": false,
				"inputs": [],
				"name": "initState",
				"outputs": [],
				"payable": false,
				"stateMutability": "nonpayable",
				"type": "function"
			},
			{
				"constant": true,
				"inputs": [],
				"name": "owner",
				"outputs": [
					{
						"internalType": "address",
						"name": "",
						"type": "address"
					}
				],
				"payable": false,
				"stateMutability": "view",
				"type": "function"
			},
			{
				"constant": false,
				"inputs": [
					{
						"internalType": "uint256",
						"name": "amount",
						"type": "uint256"
					}
				],
				"name": "removeLiquidity",
				"outputs": [],
				"payable": false,
				"stateMutability": "nonpayable",
				"type": "function"
			},
			{
				"constant": false,
				"inputs": [],
				"name": "runBasicTest",
				"outputs": [],
				"payable": false,
				"stateMutability": "nonpayable",
				"type": "function"
			},
			{
				"constant": false,
				"inputs": [],
				"name": "runBasicTestOld",
				"outputs": [],
				"payable": false,
				"stateMutability": "nonpayable",
				"type": "function"
			},
			{
				"constant": false,
				"inputs": [
					{
						"internalType": "address",
						"name": "fromToken",
						"type": "address"
					},
					{
						"internalType": "address",
						"name": "toToken",
						"type": "address"
					},
					{
						"internalType": "uint256",
						"name": "amount",
						"type": "uint256"
					}
				],
				"name": "swap",
				"outputs": [
					{
						"internalType": "uint256",
						"name": "amountReceived",
						"type": "uint256"
					}
				],
				"payable": false,
				"stateMutability": "nonpayable",
				"type": "function"
			},
			{
				"constant": false,
				"inputs": [
					{
						"internalType": "address",
						"name": "newOwner",
						"type": "address"
					}
				],
				"name": "transferOwnership",
				"outputs": [],
				"payable": false,
				"stateMutability": "nonpayable",
				"type": "function"
			}
		],
		"devdoc": {
			"methods": {}
		},
		"evm": {
			"bytecode": {
				"linkReferences": {},
				"object": "0x6080604052600080546001600160a01b031916331790556126a7806100256000396000f3fe608060405234801561001057600080fd5b50600436106100885760003560e01c8063978ca36f1161005b578063978ca36f146100d05780639c8f9f2314610097578063df791e50146100d8578063f2fde38b146100f857610088565b806340386cfd1461008d57806351c6590a146100975780636d83c92c146100aa5780638da5cb5b146100b2575b600080fd5b61009561010b565b005b6100956100a53660046121c7565b6102f1565b6100956102f4565b6100ba6103c5565b6040516100c791906121df565b60405180910390f35b6100956103e1565b6100eb6100e6366004612187565b610460565b6040516100c79190612639565b610095610106366004612153565b6105f4565b600180547fffffffffffffffffffffff0000000000000000000000000000000000000000ff16610100179055600280547fffffffffffffffffffffffff0000000000000000000000000000000000000000168117905561016c61c3506106c6565b60035561017b620186a06106c6565b60045561018860016106c6565b6005556063600681905561019d906064610722565b6007556101ad6005612710610722565b6008556101d56101c16001620f42406107c3565b6101c96107e2565b9063ffffffff6107f616565b600c556101e66127156103e86107c3565b600d556001546002546102bc9173ffffffffffffffffffffffffffffffffffffffff6101009091048116911661021d61271061085f565b604080516101a08101825260015460ff81161515825273ffffffffffffffffffffffffffffffffffffffff610100918290048116602084015260025416928201929092526003546060820152600454608082015260055460a082015260065460c082015260075460e082015260085491810191909152600954610120820152600b54610140820152600c54610160820152600d5461018082015261087b565b506002546001546102f19173ffffffffffffffffffffffffffffffffffffffff9081169161010090041661021d61271061085f565b50565b6102fc610bb7565b60015460ff1615610342576040517f08c379a0000000000000000000000000000000000000000000000000000000008152600401610339906122fc565b60405180910390fd5b61034c600161085f565b60055560636006819055610361906064610722565b6007556103716005612710610722565b6008556103856101c16001620f42406107c3565b600c556103966127156103e86107c3565b600d55600180547fffffffffffffffffffffffffffffffffffffffffffffffffffffffffffffff001681179055565b60005473ffffffffffffffffffffffffffffffffffffffff1681565b600180547fffffffffffffffffffffff0000000000000000000000000000000000000000ff16610100179055600280547fffffffffffffffffffffffff0000000000000000000000000000000000000000168117905561044261c3506106c6565b600355610451620186a06106c6565b60045561018860656064610722565b600061046a6120bd565b610472610c0a565b9050806020015173ffffffffffffffffffffffffffffffffffffffff168573ffffffffffffffffffffffffffffffffffffffff161480156104e25750806040015173ffffffffffffffffffffffffffffffffffffffff168473ffffffffffffffffffffffffffffffffffffffff16145b15610523576000610506868661050087670de0b6b3a7640000610722565b8561087b565b905061051b670de0b6b3a76400008202610cb0565b9250506105ec565b806040015173ffffffffffffffffffffffffffffffffffffffff168573ffffffffffffffffffffffffffffffffffffffff161480156105915750806020015173ffffffffffffffffffffffffffffffffffffffff168473ffffffffffffffffffffffffffffffffffffffff16145b156105ba5760006105aa868661050087620f4240610722565b905061051b620f42408202610cb0565b6040517f08c379a000000000000000000000000000000000000000000000000000000000815260040161033990612333565b509392505050565b6105fc610bb7565b73ffffffffffffffffffffffffffffffffffffffff8116610649576040517f08c379a000000000000000000000000000000000000000000000000000000000815260040161033990612492565b600080547fffffffffffffffffffffffff00000000000000000000000000000000000000001673ffffffffffffffffffffffffffffffffffffffff83161790556040517f8be0079c531659141344cd1fd0a4f28419497f9722a3daafe3b4186f6b6457e0906106bb9033908490612200565b60405180910390a150565b600080821215610702576040517f08c379a0000000000000000000000000000000000000000000000000000000008152600401610339906123fe565b61071c826f80000000000000000000000000000000610cc9565b92915050565b60008083121561075e576040517f08c379a00000000000000000000000000000000000000000000000000000000081526004016103399061256e565b6000821215610799576040517f08c379a00000000000000000000000000000000000000000000000000000000081526004016103399061236a565b6107bc6107b6846f80000000000000000000000000000000610cc9565b83610d3f565b9392505050565b60006107bc6107b6846f80000000000000000000000000000000610cc9565b6f8000000000000000000000000000000090565b60007f8000000000000000000000000000000000000000000000000000000000000000821415610852576040517f08c379a000000000000000000000000000000000000000000000000000000000815260040161033990612537565b6107bc8383600003610e0e565b600061071c826f80000000000000000000000000000000610cc9565b6020810151600090819081908190819073ffffffffffffffffffffffffffffffffffffffff8a811691161480156108e15750856040015173ffffffffffffffffffffffffffffffffffffffff168873ffffffffffffffffffffffffffffffffffffffff16145b1561090057505050506060820151608083015160a084015160016109a0565b856040015173ffffffffffffffffffffffffffffffffffffffff168973ffffffffffffffffffffffffffffffffffffffff1614801561096e5750856020015173ffffffffffffffffffffffffffffffffffffffff168873ffffffffffffffffffffffffffffffffffffffff16145b156105ba57856080015193508560600151925061099d8660a001516109916107e2565b9063ffffffff610e8416565b91505b6000806109b08686868c8c610ead565b9150915060006109e66109ca8a61010001516101c96107e2565b6109da8c8563ffffffff610fb216565b9063ffffffff610fb216565b90506109f960008263ffffffff6107f616565b90506000610a0b6001620186a06107c3565b90506000821315610a1f5760009150610a48565b80610a30888463ffffffff61100516565b13610a4857610a45818863ffffffff6107f616565b91505b6000610a688b6101200151610a5b611011565b8d6101600151888b611017565b6101808c0151909150610a81908863ffffffff610fb216565b811315610aa5576101808b0151610a9e908863ffffffff610fb216565b9050610ad9565b610aba876109da8d61018001516109916107e2565b811215610ad957610ad6876109da8d61018001516109916107e2565b90505b610ae1611011565b6101208c01528515610b2357610afd898d63ffffffff61100516565b60608c0152610b12888463ffffffff61100516565b60808c015260a08b01819052610b5f565b610b33888463ffffffff61100516565b60608c0152610b48898d63ffffffff61100516565b60808c0152610b59816109916107e2565b60a08c01525b610b688b6110f5565b7f666804e599b015edcfb9de12153bf8a48aa5a84b8861b8fa88c1cf4b11974c15338d85604051610b9b93929190612227565b60405180910390a150506000039b9a5050505050505050505050565b60005473ffffffffffffffffffffffffffffffffffffffff163314610c08576040517f08c379a0000000000000000000000000000000000000000000000000000000008152600401610339906122c5565b565b610c126120bd565b50604080516101a08101825260015460ff81161515825273ffffffffffffffffffffffffffffffffffffffff610100918290048116602084015260025416928201929092526003546060820152600454608082015260055460a082015260065460c082015260075460e082015260085491810191909152600954610120820152600b54610140820152600c54610160820152600d5461018082015290565b6f8000000000000000000000000000000081055b919050565b6000821580610cd6575081155b15610ce35750600061071c565b5081810281838281610cf157fe5b05141580610d08575082828281610d0457fe5b0514155b1561071c576040517f08c379a0000000000000000000000000000000000000000000000000000000008152600401610339906124c9565b600081610d78576040517f08c379a0000000000000000000000000000000000000000000000000000000008152600401610339906125cb565b7f800000000000000000000000000000000000000000000000000000000000000083148015610dc65750817fffffffffffffffffffffffffffffffffffffffffffffffffffffffffffffffff145b15610dfd576040517f08c379a000000000000000000000000000000000000000000000000000000000815260040161033990612602565b818381610e0657fe5b059392505050565b818101600083128015610e215750600082125b8015610e2c57508281135b80610e4d5750600083138015610e425750600082135b8015610e4d57508281125b1561071c576040517f08c379a000000000000000000000000000000000000000000000000000000000815260040161033990612500565b6000610e9e6107b6846a8000000000000000000000610cc9565b65010000000000029392505050565b600080610ec08787878660e001516111f7565b915060008281610ed68a8863ffffffff61100516565b905060005b6014811015610fa2576000610ef085856112f0565b90506000610f0c610f07838d63ffffffff610e8416565b611318565b90506000610f43610f238c8563ffffffff610fb216565b610f37856109da898763ffffffff610fb216565b9063ffffffff61100516565b90507f4add19bbbe358caf4af4a31b1299356fc4dccf8b4cf3c87e401b0fa60062f31e828483604051610f7893929190612255565b60405180910390a18c811315610f9057829550610f94565b8296505b505050806001019050610edb565b5091925050509550959350505050565b60006f800000000000000000000000000000008215610fe4575065010000000000909105906a80000000000000000000005b6000610ff08585610cc9565b9050818181610ffb57fe5b0595945050505050565b60006107bc8383610e0e565b61023a90565b6000806110258787036106c6565b9050600061104a611045611038886113c5565b849063ffffffff610fb216565b611aaf565b9050600061105a826101c96107e2565b9050600061106e878363ffffffff610fb216565b90506000611082878563ffffffff610fb216565b905060006110ae611099858b63ffffffff610e8416565b6110a9878b63ffffffff610e8416565b611005565b905060006110be826109916107e2565b905060006110e36110cf600261085f565b61099184610f37898963ffffffff61100516565b9e9d5050505050505050505050505050565b80516001805460208401517fffffffffffffffffffffffffffffffffffffffffffffffffffffffffffffff00909116921515929092177fffffffffffffffffffffff0000000000000000000000000000000000000000ff1661010073ffffffffffffffffffffffffffffffffffffffff9384168102919091179091556040830151600280547fffffffffffffffffffffffff00000000000000000000000000000000000000001691909316179091556060820151600355608082015160045560a082015160055560c082015160065560e0820151600755810151600855610120810151600955610140810151600b55610160810151600c556101800151600d55565b60008061120a848763ffffffff610fb216565b9050600061121e868363ffffffff610e8416565b90506000611232838863ffffffff610e8416565b90506000611242866101c96107e2565b9050600061124e6107e2565b84121561126c57611265611045836109da876113c5565b905061128a565b61128761127f611045846109da876113c5565b6109916107e2565b90505b61129a818963ffffffff610fb216565b95507f3cf9bd989028bfc957ca46fd34c8ed26f90d849442378ee442fcd56cf5cac44f8a8a8a8a6112ca8b610cb0565b6040516112db95949392919061226b565b60405180910390a15050505050949350505050565b60006107bc6113086113006107e2565b610f376107e2565b610991858563ffffffff61100516565b60008061132b838063ffffffff610fb216565b9050600061133f848363ffffffff610fb216565b90506000611353828063ffffffff610fb216565b90506000611367828063ffffffff610fb216565b9050600061137b828063ffffffff610fb216565b9050600061138f828063ffffffff610fb216565b905060006113a3828063ffffffff610fb216565b905060006113b7828863ffffffff610fb216565b9a9950505050505050505050565b60006f80000000000000000000000000000000821315611411576040517f08c379a0000000000000000000000000000000000000000000000000000000008152600401610339906123c7565b6000821361144b576040517f08c379a00000000000000000000000000000000000000000000000000000000081526004016103399061228e565b6f8000000000000000000000000000000082141561146b57506000610cc4565b640733048c5a821361149e57507fffffffffffffffffffffffffffffffe010000000000000000000000000000000610cc4565b60008060006a01c8464f7616476000000085136114fd577ffffffffffffffffffffffffffffffff000000000000000000000000000000000909301926a01c8464f761647600000006f8000000000000000000000000000000086020594505b6cf1aaddd7742e90000000000000851361155b577ffffffffffffffffffffffffffffffff800000000000000000000000000000000909301926cf1aaddd7742e900000000000006f8000000000000000000000000000000086020594505b6e0afe10820813d7800000000000000085136115bd577ffffffffffffffffffffffffffffffffc00000000000000000000000000000000909301926e0afe10820813d780000000000000006f8000000000000000000000000000000086020594505b6f02582ab704279ec000000000000000008513611621577ffffffffffffffffffffffffffffffffe00000000000000000000000000000000909301926f02582ab704279ec000000000000000006f8000000000000000000000000000000086020594505b6f1152aaa3bf81cc0000000000000000008513611685577fffffffffffffffffffffffffffffffff00000000000000000000000000000000909301926f1152aaa3bf81cc0000000000000000006f8000000000000000000000000000000086020594505b6f2f16ac6c59de7000000000000000000085136116e9577fffffffffffffffffffffffffffffffff80000000000000000000000000000000909301926f2f16ac6c59de700000000000000000006f8000000000000000000000000000000086020594505b6f4da2cbf1be5828000000000000000000851361174d577fffffffffffffffffffffffffffffffffc0000000000000000000000000000000909301926f4da2cbf1be58280000000000000000006f8000000000000000000000000000000086020594505b6f63afbe7ab2082c00000000000000000085136117b1577fffffffffffffffffffffffffffffffffe0000000000000000000000000000000909301926f63afbe7ab2082c0000000000000000006f8000000000000000000000000000000086020594505b6f70f5a893b608861e1f58934f97aea57d8513611815577ffffffffffffffffffffffffffffffffff0000000000000000000000000000000909301926f70f5a893b608861e1f58934f97aea57d6f8000000000000000000000000000000086020594505b7fffffffffffffffffffffffffffffffff80000000000000000000000000000000850192508291506f80000000000000000000000000000000828002059050700100000000000000000000000000000000838103830205840193506f800000000000000000000000000000008183028161188b57fe5b059150700200000000000000000000000000000000836faaaaaaaaaaaaaaaaaaaaaaaaaaaaaaaa038302816118bc57fe5b05840193506f80000000000000000000000000000000818302816118dc57fe5b059150700300000000000000000000000000000000836f999999999999999999999999999999990383028161190d57fe5b05840193506f800000000000000000000000000000008183028161192d57fe5b059150700400000000000000000000000000000000836f924924924924924924924924924924920383028161195e57fe5b05840193506f800000000000000000000000000000008183028161197e57fe5b059150700500000000000000000000000000000000836f8e38e38e38e38e38e38e38e38e38e38e038302816119af57fe5b05840193506f80000000000000000000000000000000818302816119cf57fe5b059150700600000000000000000000000000000000836f8ba2e8ba2e8ba2e8ba2e8ba2e8ba2e8b03830281611a0057fe5b05840193506f8000000000000000000000000000000081830281611a2057fe5b059150700700000000000000000000000000000000836f89d89d89d89d89d89d89d89d89d89d8903830281611a5157fe5b05840193506f8000000000000000000000000000000081830281611a7157fe5b059150700800000000000000000000000000000000836f8888888888888888888888888888888803830281611aa257fe5b0584019350505050919050565b60007fffffffffffffffffffffffffffffffe010000000000000000000000000000000821215611ae157506000610cc4565b81611afd57506f80000000000000000000000000000000610cc4565b6000821315611b38576040517f08c379a00000000000000000000000000000000000000000000000000000000081526004016103399061245b565b6f800000000000000000000000000000006f1000000000000000000000000000000083078080028290056710e1b3be415a0000810293909301929091818302059050806705a0913f6b1e000002830192506f8000000000000000000000000000000082820281611ba457fe5b05905080670168244fdac7800002830192506f8000000000000000000000000000000082820281611bd157fe5b05905080664807432bc1800002830192506f8000000000000000000000000000000082820281611bfd57fe5b05905080660c0135dca0400002830192506f8000000000000000000000000000000082820281611c2957fe5b059050806601b707b1cdc00002830192506f8000000000000000000000000000000082820281611c5557fe5b059050806536e0f639b80002830192506f8000000000000000000000000000000082820281611c8057fe5b05905080650618fee9f80002830192506f8000000000000000000000000000000082820281611cab57fe5b05905080649c197dcc0002830192506f8000000000000000000000000000000082820281611cd557fe5b05905080640e30dce40002830192506f8000000000000000000000000000000082820281611cff57fe5b0590508064012ebd130002830192506f8000000000000000000000000000000082820281611d2957fe5b059050806317499f0002830192506f8000000000000000000000000000000082820281611d5257fe5b059050806301a9d48002830192506f8000000000000000000000000000000082820281611d7b57fe5b05905080621c638002830192506f8000000000000000000000000000000082820281611da357fe5b059050806201c63802830192506f8000000000000000000000000000000082820281611dcb57fe5b05905080611ab802830192506f8000000000000000000000000000000082820281611df257fe5b0590508061017c02830192506f8000000000000000000000000000000082820281611e1957fe5b05905080601402830192506f8000000000000000000000000000000082820281611e3f57fe5b600095909503946721c3677c82b400009190059384010582016f8000000000000000000000000000000001929050701000000000000000000000000000000000841615611eae577243cbaf42a000812488fc5c220ad7b97bf6e99e6cf1aaddd7742e56d32fb9f9974484020592505b700800000000000000000000000000000000841615611ef0577105d27a9f51c31b7c2f8038212a05747799916e0afe10820813d65dfe6a33c07f738f84020592505b700400000000000000000000000000000000841615611f3257701b4c902e273a58678d6d3bfdb93db96d026f02582ab704279e8efd15e0265855c47a84020592505b700200000000000000000000000000000000841615611f74577003b1cc971a9bb5b9867477440d6d1577506f1152aaa3bf81cb9fdb76eae12d02957184020592505b700100000000000000000000000000000000841615611fb65770015bf0a8b1457695355fb8ac404e7a79e36f2f16ac6c59de6f8d5d6f63c1482a7c8684020592505b6f80000000000000000000000000000000841615611ff6576fd3094c70f034de4b96ff7d5b6f99fcd86f4da2cbf1be5827f9eb3ad1aa9866ebb384020592505b6f40000000000000000000000000000000841615612036576fa45af1e1f40c333b3de1db4dd55f29a76f63afbe7ab2082ba1a0ae5e4eb1b479dc84020592505b6f20000000000000000000000000000000841615612076576f910b022db7ae67ce76b441c27035c6a16f70f5a893b608861e1f58934f97aea57d84020592505b6f100000000000000000000000000000008416156120b6576f88415abbe9a76bead8d00cf112e4d4a86f783eafef1c0a8f3978c7f81824d62ebf84020592505b5050919050565b604051806101a00160405280600015158152602001600073ffffffffffffffffffffffffffffffffffffffff168152602001600073ffffffffffffffffffffffffffffffffffffffff168152602001600081526020016000815260200160008152602001600081526020016000815260200160008152602001600081526020016000815260200160008152602001600081525090565b600060208284031215612164578081fd5b813573ffffffffffffffffffffffffffffffffffffffff811681146107bc578182fd5b60008060006060848603121561219b578182fd5b83356121a681612642565b925060208401356121b681612642565b929592945050506040919091013590565b6000602082840312156121d8578081fd5b5035919050565b73ffffffffffffffffffffffffffffffffffffffff91909116815260200190565b73ffffffffffffffffffffffffffffffffffffffff92831681529116602082015260400190565b73ffffffffffffffffffffffffffffffffffffffff9390931683526020830191909152604082015260600190565b9283526020830191909152604082015260600190565b948552602085019390935260408401919091526060830152608082015260a00190565b60208082526013908201527f6c6e3a2076616c756520746f6f20736d616c6c00000000000000000000000000604082015260600190565b6020808252600e908201527f4f6e6c794f776e65724572726f72000000000000000000000000000000000000604082015260600190565b60208082526013908201527f416c726561647920496e697469616c697a656400000000000000000000000000604082015260600190565b60208082526017908201527f496e76616c696420746f6b656e20616464726573736573000000000000000000604082015260600190565b60208082526038908201527f746f46697865642875696e742c75696e74293a2064656e6f6d696e61746f722060408201527f63616e6e6f74206265206c657373207468616e207a65726f0000000000000000606082015260800190565b60208082526013908201527f6c6e3a2076616c756520746f6f206c6172676500000000000000000000000000604082015260600190565b60208082526027908201527f746f46697865643a2076616c75652063616e6e6f74206265206c65737320746860408201527f616e207a65726f00000000000000000000000000000000000000000000000000606082015260800190565b60208082526014908201527f6578703a2076616c756520746f6f20736d616c6c000000000000000000000000604082015260600190565b60208082526018908201527f5472616e736665724f776e6572546f5a65726f4572726f720000000000000000604082015260600190565b6020808252600e908201527f5f6d756c3a206f766572666c6f77000000000000000000000000000000000000604082015260600190565b6020808252600e908201527f5f6164643a206f766572666c6f77000000000000000000000000000000000000604082015260600190565b60208082526014908201527f7375623a2076616c756520746f6f20736d616c6c000000000000000000000000604082015260600190565b60208082526036908201527f746f46697865642875696e742c75696e74293a206e756d657261746f7220636160408201527f6e6e6f74206265206c657373207468616e207a65726f00000000000000000000606082015260800190565b60208082526014908201527f5f6469763a20646976696465206279207a65726f000000000000000000000000604082015260600190565b6020808252600e908201527f5f6469763a206f766572666c6f77000000000000000000000000000000000000604082015260600190565b90815260200190565b73ffffffffffffffffffffffffffffffffffffffff811681146102f157600080fdfea365627a7a723158200428c0342d18fcb77715b8472560b6e3e3cc34750f0d0bff1669172293bb088e6c6578706572696d656e74616cf564736f6c634300050d0040",
				"opcodes": "PUSH1 0x80 PUSH1 0x40 MSTORE PUSH1 0x0 DUP1 SLOAD PUSH1 0x1 PUSH1 0x1 PUSH1 0xA0 SHL SUB NOT AND CALLER OR SWAP1 SSTORE PUSH2 0x26A7 DUP1 PUSH2 0x25 PUSH1 0x0 CODECOPY PUSH1 0x0 RETURN INVALID PUSH1 0x80 PUSH1 0x40 MSTORE CALLVALUE DUP1 ISZERO PUSH2 0x10 JUMPI PUSH1 0x0 DUP1 REVERT JUMPDEST POP PUSH1 0x4 CALLDATASIZE LT PUSH2 0x88 JUMPI PUSH1 0x0 CALLDATALOAD PUSH1 0xE0 SHR DUP1 PUSH4 0x978CA36F GT PUSH2 0x5B JUMPI DUP1 PUSH4 0x978CA36F EQ PUSH2 0xD0 JUMPI DUP1 PUSH4 0x9C8F9F23 EQ PUSH2 0x97 JUMPI DUP1 PUSH4 0xDF791E50 EQ PUSH2 0xD8 JUMPI DUP1 PUSH4 0xF2FDE38B EQ PUSH2 0xF8 JUMPI PUSH2 0x88 JUMP JUMPDEST DUP1 PUSH4 0x40386CFD EQ PUSH2 0x8D JUMPI DUP1 PUSH4 0x51C6590A EQ PUSH2 0x97 JUMPI DUP1 PUSH4 0x6D83C92C EQ PUSH2 0xAA JUMPI DUP1 PUSH4 0x8DA5CB5B EQ PUSH2 0xB2 JUMPI JUMPDEST PUSH1 0x0 DUP1 REVERT JUMPDEST PUSH2 0x95 PUSH2 0x10B JUMP JUMPDEST STOP JUMPDEST PUSH2 0x95 PUSH2 0xA5 CALLDATASIZE PUSH1 0x4 PUSH2 0x21C7 JUMP JUMPDEST PUSH2 0x2F1 JUMP JUMPDEST PUSH2 0x95 PUSH2 0x2F4 JUMP JUMPDEST PUSH2 0xBA PUSH2 0x3C5 JUMP JUMPDEST PUSH1 0x40 MLOAD PUSH2 0xC7 SWAP2 SWAP1 PUSH2 0x21DF JUMP JUMPDEST PUSH1 0x40 MLOAD DUP1 SWAP2 SUB SWAP1 RETURN JUMPDEST PUSH2 0x95 PUSH2 0x3E1 JUMP JUMPDEST PUSH2 0xEB PUSH2 0xE6 CALLDATASIZE PUSH1 0x4 PUSH2 0x2187 JUMP JUMPDEST PUSH2 0x460 JUMP JUMPDEST PUSH1 0x40 MLOAD PUSH2 0xC7 SWAP2 SWAP1 PUSH2 0x2639 JUMP JUMPDEST PUSH2 0x95 PUSH2 0x106 CALLDATASIZE PUSH1 0x4 PUSH2 0x2153 JUMP JUMPDEST PUSH2 0x5F4 JUMP JUMPDEST PUSH1 0x1 DUP1 SLOAD PUSH32 0xFFFFFFFFFFFFFFFFFFFFFF0000000000000000000000000000000000000000FF AND PUSH2 0x100 OR SWAP1 SSTORE PUSH1 0x2 DUP1 SLOAD PUSH32 0xFFFFFFFFFFFFFFFFFFFFFFFF0000000000000000000000000000000000000000 AND DUP2 OR SWAP1 SSTORE PUSH2 0x16C PUSH2 0xC350 PUSH2 0x6C6 JUMP JUMPDEST PUSH1 0x3 SSTORE PUSH2 0x17B PUSH3 0x186A0 PUSH2 0x6C6 JUMP JUMPDEST PUSH1 0x4 SSTORE PUSH2 0x188 PUSH1 0x1 PUSH2 0x6C6 JUMP JUMPDEST PUSH1 0x5 SSTORE PUSH1 0x63 PUSH1 0x6 DUP2 SWAP1 SSTORE PUSH2 0x19D SWAP1 PUSH1 0x64 PUSH2 0x722 JUMP JUMPDEST PUSH1 0x7 SSTORE PUSH2 0x1AD PUSH1 0x5 PUSH2 0x2710 PUSH2 0x722 JUMP JUMPDEST PUSH1 0x8 SSTORE PUSH2 0x1D5 PUSH2 0x1C1 PUSH1 0x1 PUSH3 0xF4240 PUSH2 0x7C3 JUMP JUMPDEST PUSH2 0x1C9 PUSH2 0x7E2 JUMP JUMPDEST SWAP1 PUSH4 0xFFFFFFFF PUSH2 0x7F6 AND JUMP JUMPDEST PUSH1 0xC SSTORE PUSH2 0x1E6 PUSH2 0x2715 PUSH2 0x3E8 PUSH2 0x7C3 JUMP JUMPDEST PUSH1 0xD SSTORE PUSH1 0x1 SLOAD PUSH1 0x2 SLOAD PUSH2 0x2BC SWAP2 PUSH20 0xFFFFFFFFFFFFFFFFFFFFFFFFFFFFFFFFFFFFFFFF PUSH2 0x100 SWAP1 SWAP2 DIV DUP2 AND SWAP2 AND PUSH2 0x21D PUSH2 0x2710 PUSH2 0x85F JUMP JUMPDEST PUSH1 0x40 DUP1 MLOAD PUSH2 0x1A0 DUP2 ADD DUP3 MSTORE PUSH1 0x1 SLOAD PUSH1 0xFF DUP2 AND ISZERO ISZERO DUP3 MSTORE PUSH20 0xFFFFFFFFFFFFFFFFFFFFFFFFFFFFFFFFFFFFFFFF PUSH2 0x100 SWAP2 DUP3 SWAP1 DIV DUP2 AND PUSH1 0x20 DUP5 ADD MSTORE PUSH1 0x2 SLOAD AND SWAP3 DUP3 ADD SWAP3 SWAP1 SWAP3 MSTORE PUSH1 0x3 SLOAD PUSH1 0x60 DUP3 ADD MSTORE PUSH1 0x4 SLOAD PUSH1 0x80 DUP3 ADD MSTORE PUSH1 0x5 SLOAD PUSH1 0xA0 DUP3 ADD MSTORE PUSH1 0x6 SLOAD PUSH1 0xC0 DUP3 ADD MSTORE PUSH1 0x7 SLOAD PUSH1 0xE0 DUP3 ADD MSTORE PUSH1 0x8 SLOAD SWAP2 DUP2 ADD SWAP2 SWAP1 SWAP2 MSTORE PUSH1 0x9 SLOAD PUSH2 0x120 DUP3 ADD MSTORE PUSH1 0xB SLOAD PUSH2 0x140 DUP3 ADD MSTORE PUSH1 0xC SLOAD PUSH2 0x160 DUP3 ADD MSTORE PUSH1 0xD SLOAD PUSH2 0x180 DUP3 ADD MSTORE PUSH2 0x87B JUMP JUMPDEST POP PUSH1 0x2 SLOAD PUSH1 0x1 SLOAD PUSH2 0x2F1 SWAP2 PUSH20 0xFFFFFFFFFFFFFFFFFFFFFFFFFFFFFFFFFFFFFFFF SWAP1 DUP2 AND SWAP2 PUSH2 0x100 SWAP1 DIV AND PUSH2 0x21D PUSH2 0x2710 PUSH2 0x85F JUMP JUMPDEST POP JUMP JUMPDEST PUSH2 0x2FC PUSH2 0xBB7 JUMP JUMPDEST PUSH1 0x1 SLOAD PUSH1 0xFF AND ISZERO PUSH2 0x342 JUMPI PUSH1 0x40 MLOAD PUSH32 0x8C379A000000000000000000000000000000000000000000000000000000000 DUP2 MSTORE PUSH1 0x4 ADD PUSH2 0x339 SWAP1 PUSH2 0x22FC JUMP JUMPDEST PUSH1 0x40 MLOAD DUP1 SWAP2 SUB SWAP1 REVERT JUMPDEST PUSH2 0x34C PUSH1 0x1 PUSH2 0x85F JUMP JUMPDEST PUSH1 0x5 SSTORE PUSH1 0x63 PUSH1 0x6 DUP2 SWAP1 SSTORE PUSH2 0x361 SWAP1 PUSH1 0x64 PUSH2 0x722 JUMP JUMPDEST PUSH1 0x7 SSTORE PUSH2 0x371 PUSH1 0x5 PUSH2 0x2710 PUSH2 0x722 JUMP JUMPDEST PUSH1 0x8 SSTORE PUSH2 0x385 PUSH2 0x1C1 PUSH1 0x1 PUSH3 0xF4240 PUSH2 0x7C3 JUMP JUMPDEST PUSH1 0xC SSTORE PUSH2 0x396 PUSH2 0x2715 PUSH2 0x3E8 PUSH2 0x7C3 JUMP JUMPDEST PUSH1 0xD SSTORE PUSH1 0x1 DUP1 SLOAD PUSH32 0xFFFFFFFFFFFFFFFFFFFFFFFFFFFFFFFFFFFFFFFFFFFFFFFFFFFFFFFFFFFFFF00 AND DUP2 OR SWAP1 SSTORE JUMP JUMPDEST PUSH1 0x0 SLOAD PUSH20 0xFFFFFFFFFFFFFFFFFFFFFFFFFFFFFFFFFFFFFFFF AND DUP2 JUMP JUMPDEST PUSH1 0x1 DUP1 SLOAD PUSH32 0xFFFFFFFFFFFFFFFFFFFFFF0000000000000000000000000000000000000000FF AND PUSH2 0x100 OR SWAP1 SSTORE PUSH1 0x2 DUP1 SLOAD PUSH32 0xFFFFFFFFFFFFFFFFFFFFFFFF0000000000000000000000000000000000000000 AND DUP2 OR SWAP1 SSTORE PUSH2 0x442 PUSH2 0xC350 PUSH2 0x6C6 JUMP JUMPDEST PUSH1 0x3 SSTORE PUSH2 0x451 PUSH3 0x186A0 PUSH2 0x6C6 JUMP JUMPDEST PUSH1 0x4 SSTORE PUSH2 0x188 PUSH1 0x65 PUSH1 0x64 PUSH2 0x722 JUMP JUMPDEST PUSH1 0x0 PUSH2 0x46A PUSH2 0x20BD JUMP JUMPDEST PUSH2 0x472 PUSH2 0xC0A JUMP JUMPDEST SWAP1 POP DUP1 PUSH1 0x20 ADD MLOAD PUSH20 0xFFFFFFFFFFFFFFFFFFFFFFFFFFFFFFFFFFFFFFFF AND DUP6 PUSH20 0xFFFFFFFFFFFFFFFFFFFFFFFFFFFFFFFFFFFFFFFF AND EQ DUP1 ISZERO PUSH2 0x4E2 JUMPI POP DUP1 PUSH1 0x40 ADD MLOAD PUSH20 0xFFFFFFFFFFFFFFFFFFFFFFFFFFFFFFFFFFFFFFFF AND DUP5 PUSH20 0xFFFFFFFFFFFFFFFFFFFFFFFFFFFFFFFFFFFFFFFF AND EQ JUMPDEST ISZERO PUSH2 0x523 JUMPI PUSH1 0x0 PUSH2 0x506 DUP7 DUP7 PUSH2 0x500 DUP8 PUSH8 0xDE0B6B3A7640000 PUSH2 0x722 JUMP JUMPDEST DUP6 PUSH2 0x87B JUMP JUMPDEST SWAP1 POP PUSH2 0x51B PUSH8 0xDE0B6B3A7640000 DUP3 MUL PUSH2 0xCB0 JUMP JUMPDEST SWAP3 POP POP PUSH2 0x5EC JUMP JUMPDEST DUP1 PUSH1 0x40 ADD MLOAD PUSH20 0xFFFFFFFFFFFFFFFFFFFFFFFFFFFFFFFFFFFFFFFF AND DUP6 PUSH20 0xFFFFFFFFFFFFFFFFFFFFFFFFFFFFFFFFFFFFFFFF AND EQ DUP1 ISZERO PUSH2 0x591 JUMPI POP DUP1 PUSH1 0x20 ADD MLOAD PUSH20 0xFFFFFFFFFFFFFFFFFFFFFFFFFFFFFFFFFFFFFFFF AND DUP5 PUSH20 0xFFFFFFFFFFFFFFFFFFFFFFFFFFFFFFFFFFFFFFFF AND EQ JUMPDEST ISZERO PUSH2 0x5BA JUMPI PUSH1 0x0 PUSH2 0x5AA DUP7 DUP7 PUSH2 0x500 DUP8 PUSH3 0xF4240 PUSH2 0x722 JUMP JUMPDEST SWAP1 POP PUSH2 0x51B PUSH3 0xF4240 DUP3 MUL PUSH2 0xCB0 JUMP JUMPDEST PUSH1 0x40 MLOAD PUSH32 0x8C379A000000000000000000000000000000000000000000000000000000000 DUP2 MSTORE PUSH1 0x4 ADD PUSH2 0x339 SWAP1 PUSH2 0x2333 JUMP JUMPDEST POP SWAP4 SWAP3 POP POP POP JUMP JUMPDEST PUSH2 0x5FC PUSH2 0xBB7 JUMP JUMPDEST PUSH20 0xFFFFFFFFFFFFFFFFFFFFFFFFFFFFFFFFFFFFFFFF DUP2 AND PUSH2 0x649 JUMPI PUSH1 0x40 MLOAD PUSH32 0x8C379A000000000000000000000000000000000000000000000000000000000 DUP2 MSTORE PUSH1 0x4 ADD PUSH2 0x339 SWAP1 PUSH2 0x2492 JUMP JUMPDEST PUSH1 0x0 DUP1 SLOAD PUSH32 0xFFFFFFFFFFFFFFFFFFFFFFFF0000000000000000000000000000000000000000 AND PUSH20 0xFFFFFFFFFFFFFFFFFFFFFFFFFFFFFFFFFFFFFFFF DUP4 AND OR SWAP1 SSTORE PUSH1 0x40 MLOAD PUSH32 0x8BE0079C531659141344CD1FD0A4F28419497F9722A3DAAFE3B4186F6B6457E0 SWAP1 PUSH2 0x6BB SWAP1 CALLER SWAP1 DUP5 SWAP1 PUSH2 0x2200 JUMP JUMPDEST PUSH1 0x40 MLOAD DUP1 SWAP2 SUB SWAP1 LOG1 POP JUMP JUMPDEST PUSH1 0x0 DUP1 DUP3 SLT ISZERO PUSH2 0x702 JUMPI PUSH1 0x40 MLOAD PUSH32 0x8C379A000000000000000000000000000000000000000000000000000000000 DUP2 MSTORE PUSH1 0x4 ADD PUSH2 0x339 SWAP1 PUSH2 0x23FE JUMP JUMPDEST PUSH2 0x71C DUP3 PUSH16 0x80000000000000000000000000000000 PUSH2 0xCC9 JUMP JUMPDEST SWAP3 SWAP2 POP POP JUMP JUMPDEST PUSH1 0x0 DUP1 DUP4 SLT ISZERO PUSH2 0x75E JUMPI PUSH1 0x40 MLOAD PUSH32 0x8C379A000000000000000000000000000000000000000000000000000000000 DUP2 MSTORE PUSH1 0x4 ADD PUSH2 0x339 SWAP1 PUSH2 0x256E JUMP JUMPDEST PUSH1 0x0 DUP3 SLT ISZERO PUSH2 0x799 JUMPI PUSH1 0x40 MLOAD PUSH32 0x8C379A000000000000000000000000000000000000000000000000000000000 DUP2 MSTORE PUSH1 0x4 ADD PUSH2 0x339 SWAP1 PUSH2 0x236A JUMP JUMPDEST PUSH2 0x7BC PUSH2 0x7B6 DUP5 PUSH16 0x80000000000000000000000000000000 PUSH2 0xCC9 JUMP JUMPDEST DUP4 PUSH2 0xD3F JUMP JUMPDEST SWAP4 SWAP3 POP POP POP JUMP JUMPDEST PUSH1 0x0 PUSH2 0x7BC PUSH2 0x7B6 DUP5 PUSH16 0x80000000000000000000000000000000 PUSH2 0xCC9 JUMP JUMPDEST PUSH16 0x80000000000000000000000000000000 SWAP1 JUMP JUMPDEST PUSH1 0x0 PUSH32 0x8000000000000000000000000000000000000000000000000000000000000000 DUP3 EQ ISZERO PUSH2 0x852 JUMPI PUSH1 0x40 MLOAD PUSH32 0x8C379A000000000000000000000000000000000000000000000000000000000 DUP2 MSTORE PUSH1 0x4 ADD PUSH2 0x339 SWAP1 PUSH2 0x2537 JUMP JUMPDEST PUSH2 0x7BC DUP4 DUP4 PUSH1 0x0 SUB PUSH2 0xE0E JUMP JUMPDEST PUSH1 0x0 PUSH2 0x71C DUP3 PUSH16 0x80000000000000000000000000000000 PUSH2 0xCC9 JUMP JUMPDEST PUSH1 0x20 DUP2 ADD MLOAD PUSH1 0x0 SWAP1 DUP2 SWAP1 DUP2 SWAP1 DUP2 SWAP1 DUP2 SWAP1 PUSH20 0xFFFFFFFFFFFFFFFFFFFFFFFFFFFFFFFFFFFFFFFF DUP11 DUP2 AND SWAP2 AND EQ DUP1 ISZERO PUSH2 0x8E1 JUMPI POP DUP6 PUSH1 0x40 ADD MLOAD PUSH20 0xFFFFFFFFFFFFFFFFFFFFFFFFFFFFFFFFFFFFFFFF AND DUP9 PUSH20 0xFFFFFFFFFFFFFFFFFFFFFFFFFFFFFFFFFFFFFFFF AND EQ JUMPDEST ISZERO PUSH2 0x900 JUMPI POP POP POP POP PUSH1 0x60 DUP3 ADD MLOAD PUSH1 0x80 DUP4 ADD MLOAD PUSH1 0xA0 DUP5 ADD MLOAD PUSH1 0x1 PUSH2 0x9A0 JUMP JUMPDEST DUP6 PUSH1 0x40 ADD MLOAD PUSH20 0xFFFFFFFFFFFFFFFFFFFFFFFFFFFFFFFFFFFFFFFF AND DUP10 PUSH20 0xFFFFFFFFFFFFFFFFFFFFFFFFFFFFFFFFFFFFFFFF AND EQ DUP1 ISZERO PUSH2 0x96E JUMPI POP DUP6 PUSH1 0x20 ADD MLOAD PUSH20 0xFFFFFFFFFFFFFFFFFFFFFFFFFFFFFFFFFFFFFFFF AND DUP9 PUSH20 0xFFFFFFFFFFFFFFFFFFFFFFFFFFFFFFFFFFFFFFFF AND EQ JUMPDEST ISZERO PUSH2 0x5BA JUMPI DUP6 PUSH1 0x80 ADD MLOAD SWAP4 POP DUP6 PUSH1 0x60 ADD MLOAD SWAP3 POP PUSH2 0x99D DUP7 PUSH1 0xA0 ADD MLOAD PUSH2 0x991 PUSH2 0x7E2 JUMP JUMPDEST SWAP1 PUSH4 0xFFFFFFFF PUSH2 0xE84 AND JUMP JUMPDEST SWAP2 POP JUMPDEST PUSH1 0x0 DUP1 PUSH2 0x9B0 DUP7 DUP7 DUP7 DUP13 DUP13 PUSH2 0xEAD JUMP JUMPDEST SWAP2 POP SWAP2 POP PUSH1 0x0 PUSH2 0x9E6 PUSH2 0x9CA DUP11 PUSH2 0x100 ADD MLOAD PUSH2 0x1C9 PUSH2 0x7E2 JUMP JUMPDEST PUSH2 0x9DA DUP13 DUP6 PUSH4 0xFFFFFFFF PUSH2 0xFB2 AND JUMP JUMPDEST SWAP1 PUSH4 0xFFFFFFFF PUSH2 0xFB2 AND JUMP JUMPDEST SWAP1 POP PUSH2 0x9F9 PUSH1 0x0 DUP3 PUSH4 0xFFFFFFFF PUSH2 0x7F6 AND JUMP JUMPDEST SWAP1 POP PUSH1 0x0 PUSH2 0xA0B PUSH1 0x1 PUSH3 0x186A0 PUSH2 0x7C3 JUMP JUMPDEST SWAP1 POP PUSH1 0x0 DUP3 SGT ISZERO PUSH2 0xA1F JUMPI PUSH1 0x0 SWAP2 POP PUSH2 0xA48 JUMP JUMPDEST DUP1 PUSH2 0xA30 DUP9 DUP5 PUSH4 0xFFFFFFFF PUSH2 0x1005 AND JUMP JUMPDEST SGT PUSH2 0xA48 JUMPI PUSH2 0xA45 DUP2 DUP9 PUSH4 0xFFFFFFFF PUSH2 0x7F6 AND JUMP JUMPDEST SWAP2 POP JUMPDEST PUSH1 0x0 PUSH2 0xA68 DUP12 PUSH2 0x120 ADD MLOAD PUSH2 0xA5B PUSH2 0x1011 JUMP JUMPDEST DUP14 PUSH2 0x160 ADD MLOAD DUP9 DUP12 PUSH2 0x1017 JUMP JUMPDEST PUSH2 0x180 DUP13 ADD MLOAD SWAP1 SWAP2 POP PUSH2 0xA81 SWAP1 DUP9 PUSH4 0xFFFFFFFF PUSH2 0xFB2 AND JUMP JUMPDEST DUP2 SGT ISZERO PUSH2 0xAA5 JUMPI PUSH2 0x180 DUP12 ADD MLOAD PUSH2 0xA9E SWAP1 DUP9 PUSH4 0xFFFFFFFF PUSH2 0xFB2 AND JUMP JUMPDEST SWAP1 POP PUSH2 0xAD9 JUMP JUMPDEST PUSH2 0xABA DUP8 PUSH2 0x9DA DUP14 PUSH2 0x180 ADD MLOAD PUSH2 0x991 PUSH2 0x7E2 JUMP JUMPDEST DUP2 SLT ISZERO PUSH2 0xAD9 JUMPI PUSH2 0xAD6 DUP8 PUSH2 0x9DA DUP14 PUSH2 0x180 ADD MLOAD PUSH2 0x991 PUSH2 0x7E2 JUMP JUMPDEST SWAP1 POP JUMPDEST PUSH2 0xAE1 PUSH2 0x1011 JUMP JUMPDEST PUSH2 0x120 DUP13 ADD MSTORE DUP6 ISZERO PUSH2 0xB23 JUMPI PUSH2 0xAFD DUP10 DUP14 PUSH4 0xFFFFFFFF PUSH2 0x1005 AND JUMP JUMPDEST PUSH1 0x60 DUP13 ADD MSTORE PUSH2 0xB12 DUP9 DUP5 PUSH4 0xFFFFFFFF PUSH2 0x1005 AND JUMP JUMPDEST PUSH1 0x80 DUP13 ADD MSTORE PUSH1 0xA0 DUP12 ADD DUP2 SWAP1 MSTORE PUSH2 0xB5F JUMP JUMPDEST PUSH2 0xB33 DUP9 DUP5 PUSH4 0xFFFFFFFF PUSH2 0x1005 AND JUMP JUMPDEST PUSH1 0x60 DUP13 ADD MSTORE PUSH2 0xB48 DUP10 DUP14 PUSH4 0xFFFFFFFF PUSH2 0x1005 AND JUMP JUMPDEST PUSH1 0x80 DUP13 ADD MSTORE PUSH2 0xB59 DUP2 PUSH2 0x991 PUSH2 0x7E2 JUMP JUMPDEST PUSH1 0xA0 DUP13 ADD MSTORE JUMPDEST PUSH2 0xB68 DUP12 PUSH2 0x10F5 JUMP JUMPDEST PUSH32 0x666804E599B015EDCFB9DE12153BF8A48AA5A84B8861B8FA88C1CF4B11974C15 CALLER DUP14 DUP6 PUSH1 0x40 MLOAD PUSH2 0xB9B SWAP4 SWAP3 SWAP2 SWAP1 PUSH2 0x2227 JUMP JUMPDEST PUSH1 0x40 MLOAD DUP1 SWAP2 SUB SWAP1 LOG1 POP POP PUSH1 0x0 SUB SWAP12 SWAP11 POP POP POP POP POP POP POP POP POP POP POP JUMP JUMPDEST PUSH1 0x0 SLOAD PUSH20 0xFFFFFFFFFFFFFFFFFFFFFFFFFFFFFFFFFFFFFFFF AND CALLER EQ PUSH2 0xC08 JUMPI PUSH1 0x40 MLOAD PUSH32 0x8C379A000000000000000000000000000000000000000000000000000000000 DUP2 MSTORE PUSH1 0x4 ADD PUSH2 0x339 SWAP1 PUSH2 0x22C5 JUMP JUMPDEST JUMP JUMPDEST PUSH2 0xC12 PUSH2 0x20BD JUMP JUMPDEST POP PUSH1 0x40 DUP1 MLOAD PUSH2 0x1A0 DUP2 ADD DUP3 MSTORE PUSH1 0x1 SLOAD PUSH1 0xFF DUP2 AND ISZERO ISZERO DUP3 MSTORE PUSH20 0xFFFFFFFFFFFFFFFFFFFFFFFFFFFFFFFFFFFFFFFF PUSH2 0x100 SWAP2 DUP3 SWAP1 DIV DUP2 AND PUSH1 0x20 DUP5 ADD MSTORE PUSH1 0x2 SLOAD AND SWAP3 DUP3 ADD SWAP3 SWAP1 SWAP3 MSTORE PUSH1 0x3 SLOAD PUSH1 0x60 DUP3 ADD MSTORE PUSH1 0x4 SLOAD PUSH1 0x80 DUP3 ADD MSTORE PUSH1 0x5 SLOAD PUSH1 0xA0 DUP3 ADD MSTORE PUSH1 0x6 SLOAD PUSH1 0xC0 DUP3 ADD MSTORE PUSH1 0x7 SLOAD PUSH1 0xE0 DUP3 ADD MSTORE PUSH1 0x8 SLOAD SWAP2 DUP2 ADD SWAP2 SWAP1 SWAP2 MSTORE PUSH1 0x9 SLOAD PUSH2 0x120 DUP3 ADD MSTORE PUSH1 0xB SLOAD PUSH2 0x140 DUP3 ADD MSTORE PUSH1 0xC SLOAD PUSH2 0x160 DUP3 ADD MSTORE PUSH1 0xD SLOAD PUSH2 0x180 DUP3 ADD MSTORE SWAP1 JUMP JUMPDEST PUSH16 0x80000000000000000000000000000000 DUP2 SDIV JUMPDEST SWAP2 SWAP1 POP JUMP JUMPDEST PUSH1 0x0 DUP3 ISZERO DUP1 PUSH2 0xCD6 JUMPI POP DUP2 ISZERO JUMPDEST ISZERO PUSH2 0xCE3 JUMPI POP PUSH1 0x0 PUSH2 0x71C JUMP JUMPDEST POP DUP2 DUP2 MUL DUP2 DUP4 DUP3 DUP2 PUSH2 0xCF1 JUMPI INVALID JUMPDEST SDIV EQ ISZERO DUP1 PUSH2 0xD08 JUMPI POP DUP3 DUP3 DUP3 DUP2 PUSH2 0xD04 JUMPI INVALID JUMPDEST SDIV EQ ISZERO JUMPDEST ISZERO PUSH2 0x71C JUMPI PUSH1 0x40 MLOAD PUSH32 0x8C379A000000000000000000000000000000000000000000000000000000000 DUP2 MSTORE PUSH1 0x4 ADD PUSH2 0x339 SWAP1 PUSH2 0x24C9 JUMP JUMPDEST PUSH1 0x0 DUP2 PUSH2 0xD78 JUMPI PUSH1 0x40 MLOAD PUSH32 0x8C379A000000000000000000000000000000000000000000000000000000000 DUP2 MSTORE PUSH1 0x4 ADD PUSH2 0x339 SWAP1 PUSH2 0x25CB JUMP JUMPDEST PUSH32 0x8000000000000000000000000000000000000000000000000000000000000000 DUP4 EQ DUP1 ISZERO PUSH2 0xDC6 JUMPI POP DUP2 PUSH32 0xFFFFFFFFFFFFFFFFFFFFFFFFFFFFFFFFFFFFFFFFFFFFFFFFFFFFFFFFFFFFFFFF EQ JUMPDEST ISZERO PUSH2 0xDFD JUMPI PUSH1 0x40 MLOAD PUSH32 0x8C379A000000000000000000000000000000000000000000000000000000000 DUP2 MSTORE PUSH1 0x4 ADD PUSH2 0x339 SWAP1 PUSH2 0x2602 JUMP JUMPDEST DUP2 DUP4 DUP2 PUSH2 0xE06 JUMPI INVALID JUMPDEST SDIV SWAP4 SWAP3 POP POP POP JUMP JUMPDEST DUP2 DUP2 ADD PUSH1 0x0 DUP4 SLT DUP1 ISZERO PUSH2 0xE21 JUMPI POP PUSH1 0x0 DUP3 SLT JUMPDEST DUP1 ISZERO PUSH2 0xE2C JUMPI POP DUP3 DUP2 SGT JUMPDEST DUP1 PUSH2 0xE4D JUMPI POP PUSH1 0x0 DUP4 SGT DUP1 ISZERO PUSH2 0xE42 JUMPI POP PUSH1 0x0 DUP3 SGT JUMPDEST DUP1 ISZERO PUSH2 0xE4D JUMPI POP DUP3 DUP2 SLT JUMPDEST ISZERO PUSH2 0x71C JUMPI PUSH1 0x40 MLOAD PUSH32 0x8C379A000000000000000000000000000000000000000000000000000000000 DUP2 MSTORE PUSH1 0x4 ADD PUSH2 0x339 SWAP1 PUSH2 0x2500 JUMP JUMPDEST PUSH1 0x0 PUSH2 0xE9E PUSH2 0x7B6 DUP5 PUSH11 0x8000000000000000000000 PUSH2 0xCC9 JUMP JUMPDEST PUSH6 0x10000000000 MUL SWAP4 SWAP3 POP POP POP JUMP JUMPDEST PUSH1 0x0 DUP1 PUSH2 0xEC0 DUP8 DUP8 DUP8 DUP7 PUSH1 0xE0 ADD MLOAD PUSH2 0x11F7 JUMP JUMPDEST SWAP2 POP PUSH1 0x0 DUP3 DUP2 PUSH2 0xED6 DUP11 DUP9 PUSH4 0xFFFFFFFF PUSH2 0x1005 AND JUMP JUMPDEST SWAP1 POP PUSH1 0x0 JUMPDEST PUSH1 0x14 DUP2 LT ISZERO PUSH2 0xFA2 JUMPI PUSH1 0x0 PUSH2 0xEF0 DUP6 DUP6 PUSH2 0x12F0 JUMP JUMPDEST SWAP1 POP PUSH1 0x0 PUSH2 0xF0C PUSH2 0xF07 DUP4 DUP14 PUSH4 0xFFFFFFFF PUSH2 0xE84 AND JUMP JUMPDEST PUSH2 0x1318 JUMP JUMPDEST SWAP1 POP PUSH1 0x0 PUSH2 0xF43 PUSH2 0xF23 DUP13 DUP6 PUSH4 0xFFFFFFFF PUSH2 0xFB2 AND JUMP JUMPDEST PUSH2 0xF37 DUP6 PUSH2 0x9DA DUP10 DUP8 PUSH4 0xFFFFFFFF PUSH2 0xFB2 AND JUMP JUMPDEST SWAP1 PUSH4 0xFFFFFFFF PUSH2 0x1005 AND JUMP JUMPDEST SWAP1 POP PUSH32 0x4ADD19BBBE358CAF4AF4A31B1299356FC4DCCF8B4CF3C87E401B0FA60062F31E DUP3 DUP5 DUP4 PUSH1 0x40 MLOAD PUSH2 0xF78 SWAP4 SWAP3 SWAP2 SWAP1 PUSH2 0x2255 JUMP JUMPDEST PUSH1 0x40 MLOAD DUP1 SWAP2 SUB SWAP1 LOG1 DUP13 DUP2 SGT ISZERO PUSH2 0xF90 JUMPI DUP3 SWAP6 POP PUSH2 0xF94 JUMP JUMPDEST DUP3 SWAP7 POP JUMPDEST POP POP POP DUP1 PUSH1 0x1 ADD SWAP1 POP PUSH2 0xEDB JUMP JUMPDEST POP SWAP2 SWAP3 POP POP POP SWAP6 POP SWAP6 SWAP4 POP POP POP POP JUMP JUMPDEST PUSH1 0x0 PUSH16 0x80000000000000000000000000000000 DUP3 ISZERO PUSH2 0xFE4 JUMPI POP PUSH6 0x10000000000 SWAP1 SWAP2 SDIV SWAP1 PUSH11 0x8000000000000000000000 JUMPDEST PUSH1 0x0 PUSH2 0xFF0 DUP6 DUP6 PUSH2 0xCC9 JUMP JUMPDEST SWAP1 POP DUP2 DUP2 DUP2 PUSH2 0xFFB JUMPI INVALID JUMPDEST SDIV SWAP6 SWAP5 POP POP POP POP POP JUMP JUMPDEST PUSH1 0x0 PUSH2 0x7BC DUP4 DUP4 PUSH2 0xE0E JUMP JUMPDEST PUSH2 0x23A SWAP1 JUMP JUMPDEST PUSH1 0x0 DUP1 PUSH2 0x1025 DUP8 DUP8 SUB PUSH2 0x6C6 JUMP JUMPDEST SWAP1 POP PUSH1 0x0 PUSH2 0x104A PUSH2 0x1045 PUSH2 0x1038 DUP9 PUSH2 0x13C5 JUMP JUMPDEST DUP5 SWAP1 PUSH4 0xFFFFFFFF PUSH2 0xFB2 AND JUMP JUMPDEST PUSH2 0x1AAF JUMP JUMPDEST SWAP1 POP PUSH1 0x0 PUSH2 0x105A DUP3 PUSH2 0x1C9 PUSH2 0x7E2 JUMP JUMPDEST SWAP1 POP PUSH1 0x0 PUSH2 0x106E DUP8 DUP4 PUSH4 0xFFFFFFFF PUSH2 0xFB2 AND JUMP JUMPDEST SWAP1 POP PUSH1 0x0 PUSH2 0x1082 DUP8 DUP6 PUSH4 0xFFFFFFFF PUSH2 0xFB2 AND JUMP JUMPDEST SWAP1 POP PUSH1 0x0 PUSH2 0x10AE PUSH2 0x1099 DUP6 DUP12 PUSH4 0xFFFFFFFF PUSH2 0xE84 AND JUMP JUMPDEST PUSH2 0x10A9 DUP8 DUP12 PUSH4 0xFFFFFFFF PUSH2 0xE84 AND JUMP JUMPDEST PUSH2 0x1005 JUMP JUMPDEST SWAP1 POP PUSH1 0x0 PUSH2 0x10BE DUP3 PUSH2 0x991 PUSH2 0x7E2 JUMP JUMPDEST SWAP1 POP PUSH1 0x0 PUSH2 0x10E3 PUSH2 0x10CF PUSH1 0x2 PUSH2 0x85F JUMP JUMPDEST PUSH2 0x991 DUP5 PUSH2 0xF37 DUP10 DUP10 PUSH4 0xFFFFFFFF PUSH2 0x1005 AND JUMP JUMPDEST SWAP15 SWAP14 POP POP POP POP POP POP POP POP POP POP POP POP POP POP JUMP JUMPDEST DUP1 MLOAD PUSH1 0x1 DUP1 SLOAD PUSH1 0x20 DUP5 ADD MLOAD PUSH32 0xFFFFFFFFFFFFFFFFFFFFFFFFFFFFFFFFFFFFFFFFFFFFFFFFFFFFFFFFFFFFFF00 SWAP1 SWAP2 AND SWAP3 ISZERO ISZERO SWAP3 SWAP1 SWAP3 OR PUSH32 0xFFFFFFFFFFFFFFFFFFFFFF0000000000000000000000000000000000000000FF AND PUSH2 0x100 PUSH20 0xFFFFFFFFFFFFFFFFFFFFFFFFFFFFFFFFFFFFFFFF SWAP4 DUP5 AND DUP2 MUL SWAP2 SWAP1 SWAP2 OR SWAP1 SWAP2 SSTORE PUSH1 0x40 DUP4 ADD MLOAD PUSH1 0x2 DUP1 SLOAD PUSH32 0xFFFFFFFFFFFFFFFFFFFFFFFF0000000000000000000000000000000000000000 AND SWAP2 SWAP1 SWAP4 AND OR SWAP1 SWAP2 SSTORE PUSH1 0x60 DUP3 ADD MLOAD PUSH1 0x3 SSTORE PUSH1 0x80 DUP3 ADD MLOAD PUSH1 0x4 SSTORE PUSH1 0xA0 DUP3 ADD MLOAD PUSH1 0x5 SSTORE PUSH1 0xC0 DUP3 ADD MLOAD PUSH1 0x6 SSTORE PUSH1 0xE0 DUP3 ADD MLOAD PUSH1 0x7 SSTORE DUP2 ADD MLOAD PUSH1 0x8 SSTORE PUSH2 0x120 DUP2 ADD MLOAD PUSH1 0x9 SSTORE PUSH2 0x140 DUP2 ADD MLOAD PUSH1 0xB SSTORE PUSH2 0x160 DUP2 ADD MLOAD PUSH1 0xC SSTORE PUSH2 0x180 ADD MLOAD PUSH1 0xD SSTORE JUMP JUMPDEST PUSH1 0x0 DUP1 PUSH2 0x120A DUP5 DUP8 PUSH4 0xFFFFFFFF PUSH2 0xFB2 AND JUMP JUMPDEST SWAP1 POP PUSH1 0x0 PUSH2 0x121E DUP7 DUP4 PUSH4 0xFFFFFFFF PUSH2 0xE84 AND JUMP JUMPDEST SWAP1 POP PUSH1 0x0 PUSH2 0x1232 DUP4 DUP9 PUSH4 0xFFFFFFFF PUSH2 0xE84 AND JUMP JUMPDEST SWAP1 POP PUSH1 0x0 PUSH2 0x1242 DUP7 PUSH2 0x1C9 PUSH2 0x7E2 JUMP JUMPDEST SWAP1 POP PUSH1 0x0 PUSH2 0x124E PUSH2 0x7E2 JUMP JUMPDEST DUP5 SLT ISZERO PUSH2 0x126C JUMPI PUSH2 0x1265 PUSH2 0x1045 DUP4 PUSH2 0x9DA DUP8 PUSH2 0x13C5 JUMP JUMPDEST SWAP1 POP PUSH2 0x128A JUMP JUMPDEST PUSH2 0x1287 PUSH2 0x127F PUSH2 0x1045 DUP5 PUSH2 0x9DA DUP8 PUSH2 0x13C5 JUMP JUMPDEST PUSH2 0x991 PUSH2 0x7E2 JUMP JUMPDEST SWAP1 POP JUMPDEST PUSH2 0x129A DUP2 DUP10 PUSH4 0xFFFFFFFF PUSH2 0xFB2 AND JUMP JUMPDEST SWAP6 POP PUSH32 0x3CF9BD989028BFC957CA46FD34C8ED26F90D849442378EE442FCD56CF5CAC44F DUP11 DUP11 DUP11 DUP11 PUSH2 0x12CA DUP12 PUSH2 0xCB0 JUMP JUMPDEST PUSH1 0x40 MLOAD PUSH2 0x12DB SWAP6 SWAP5 SWAP4 SWAP3 SWAP2 SWAP1 PUSH2 0x226B JUMP JUMPDEST PUSH1 0x40 MLOAD DUP1 SWAP2 SUB SWAP1 LOG1 POP POP POP POP POP SWAP5 SWAP4 POP POP POP POP JUMP JUMPDEST PUSH1 0x0 PUSH2 0x7BC PUSH2 0x1308 PUSH2 0x1300 PUSH2 0x7E2 JUMP JUMPDEST PUSH2 0xF37 PUSH2 0x7E2 JUMP JUMPDEST PUSH2 0x991 DUP6 DUP6 PUSH4 0xFFFFFFFF PUSH2 0x1005 AND JUMP JUMPDEST PUSH1 0x0 DUP1 PUSH2 0x132B DUP4 DUP1 PUSH4 0xFFFFFFFF PUSH2 0xFB2 AND JUMP JUMPDEST SWAP1 POP PUSH1 0x0 PUSH2 0x133F DUP5 DUP4 PUSH4 0xFFFFFFFF PUSH2 0xFB2 AND JUMP JUMPDEST SWAP1 POP PUSH1 0x0 PUSH2 0x1353 DUP3 DUP1 PUSH4 0xFFFFFFFF PUSH2 0xFB2 AND JUMP JUMPDEST SWAP1 POP PUSH1 0x0 PUSH2 0x1367 DUP3 DUP1 PUSH4 0xFFFFFFFF PUSH2 0xFB2 AND JUMP JUMPDEST SWAP1 POP PUSH1 0x0 PUSH2 0x137B DUP3 DUP1 PUSH4 0xFFFFFFFF PUSH2 0xFB2 AND JUMP JUMPDEST SWAP1 POP PUSH1 0x0 PUSH2 0x138F DUP3 DUP1 PUSH4 0xFFFFFFFF PUSH2 0xFB2 AND JUMP JUMPDEST SWAP1 POP PUSH1 0x0 PUSH2 0x13A3 DUP3 DUP1 PUSH4 0xFFFFFFFF PUSH2 0xFB2 AND JUMP JUMPDEST SWAP1 POP PUSH1 0x0 PUSH2 0x13B7 DUP3 DUP9 PUSH4 0xFFFFFFFF PUSH2 0xFB2 AND JUMP JUMPDEST SWAP11 SWAP10 POP POP POP POP POP POP POP POP POP POP JUMP JUMPDEST PUSH1 0x0 PUSH16 0x80000000000000000000000000000000 DUP3 SGT ISZERO PUSH2 0x1411 JUMPI PUSH1 0x40 MLOAD PUSH32 0x8C379A000000000000000000000000000000000000000000000000000000000 DUP2 MSTORE PUSH1 0x4 ADD PUSH2 0x339 SWAP1 PUSH2 0x23C7 JUMP JUMPDEST PUSH1 0x0 DUP3 SGT PUSH2 0x144B JUMPI PUSH1 0x40 MLOAD PUSH32 0x8C379A000000000000000000000000000000000000000000000000000000000 DUP2 MSTORE PUSH1 0x4 ADD PUSH2 0x339 SWAP1 PUSH2 0x228E JUMP JUMPDEST PUSH16 0x80000000000000000000000000000000 DUP3 EQ ISZERO PUSH2 0x146B JUMPI POP PUSH1 0x0 PUSH2 0xCC4 JUMP JUMPDEST PUSH5 0x733048C5A DUP3 SGT PUSH2 0x149E JUMPI POP PUSH32 0xFFFFFFFFFFFFFFFFFFFFFFFFFFFFFFE010000000000000000000000000000000 PUSH2 0xCC4 JUMP JUMPDEST PUSH1 0x0 DUP1 PUSH1 0x0 PUSH11 0x1C8464F76164760000000 DUP6 SGT PUSH2 0x14FD JUMPI PUSH32 0xFFFFFFFFFFFFFFFFFFFFFFFFFFFFFFF000000000000000000000000000000000 SWAP1 SWAP4 ADD SWAP3 PUSH11 0x1C8464F76164760000000 PUSH16 0x80000000000000000000000000000000 DUP7 MUL SDIV SWAP5 POP JUMPDEST PUSH13 0xF1AADDD7742E90000000000000 DUP6 SGT PUSH2 0x155B JUMPI PUSH32 0xFFFFFFFFFFFFFFFFFFFFFFFFFFFFFFF800000000000000000000000000000000 SWAP1 SWAP4 ADD SWAP3 PUSH13 0xF1AADDD7742E90000000000000 PUSH16 0x80000000000000000000000000000000 DUP7 MUL SDIV SWAP5 POP JUMPDEST PUSH15 0xAFE10820813D78000000000000000 DUP6 SGT PUSH2 0x15BD JUMPI PUSH32 0xFFFFFFFFFFFFFFFFFFFFFFFFFFFFFFFC00000000000000000000000000000000 SWAP1 SWAP4 ADD SWAP3 PUSH15 0xAFE10820813D78000000000000000 PUSH16 0x80000000000000000000000000000000 DUP7 MUL SDIV SWAP5 POP JUMPDEST PUSH16 0x2582AB704279EC00000000000000000 DUP6 SGT PUSH2 0x1621 JUMPI PUSH32 0xFFFFFFFFFFFFFFFFFFFFFFFFFFFFFFFE00000000000000000000000000000000 SWAP1 SWAP4 ADD SWAP3 PUSH16 0x2582AB704279EC00000000000000000 PUSH16 0x80000000000000000000000000000000 DUP7 MUL SDIV SWAP5 POP JUMPDEST PUSH16 0x1152AAA3BF81CC000000000000000000 DUP6 SGT PUSH2 0x1685 JUMPI PUSH32 0xFFFFFFFFFFFFFFFFFFFFFFFFFFFFFFFF00000000000000000000000000000000 SWAP1 SWAP4 ADD SWAP3 PUSH16 0x1152AAA3BF81CC000000000000000000 PUSH16 0x80000000000000000000000000000000 DUP7 MUL SDIV SWAP5 POP JUMPDEST PUSH16 0x2F16AC6C59DE70000000000000000000 DUP6 SGT PUSH2 0x16E9 JUMPI PUSH32 0xFFFFFFFFFFFFFFFFFFFFFFFFFFFFFFFF80000000000000000000000000000000 SWAP1 SWAP4 ADD SWAP3 PUSH16 0x2F16AC6C59DE70000000000000000000 PUSH16 0x80000000000000000000000000000000 DUP7 MUL SDIV SWAP5 POP JUMPDEST PUSH16 0x4DA2CBF1BE5828000000000000000000 DUP6 SGT PUSH2 0x174D JUMPI PUSH32 0xFFFFFFFFFFFFFFFFFFFFFFFFFFFFFFFFC0000000000000000000000000000000 SWAP1 SWAP4 ADD SWAP3 PUSH16 0x4DA2CBF1BE5828000000000000000000 PUSH16 0x80000000000000000000000000000000 DUP7 MUL SDIV SWAP5 POP JUMPDEST PUSH16 0x63AFBE7AB2082C000000000000000000 DUP6 SGT PUSH2 0x17B1 JUMPI PUSH32 0xFFFFFFFFFFFFFFFFFFFFFFFFFFFFFFFFE0000000000000000000000000000000 SWAP1 SWAP4 ADD SWAP3 PUSH16 0x63AFBE7AB2082C000000000000000000 PUSH16 0x80000000000000000000000000000000 DUP7 MUL SDIV SWAP5 POP JUMPDEST PUSH16 0x70F5A893B608861E1F58934F97AEA57D DUP6 SGT PUSH2 0x1815 JUMPI PUSH32 0xFFFFFFFFFFFFFFFFFFFFFFFFFFFFFFFFF0000000000000000000000000000000 SWAP1 SWAP4 ADD SWAP3 PUSH16 0x70F5A893B608861E1F58934F97AEA57D PUSH16 0x80000000000000000000000000000000 DUP7 MUL SDIV SWAP5 POP JUMPDEST PUSH32 0xFFFFFFFFFFFFFFFFFFFFFFFFFFFFFFFF80000000000000000000000000000000 DUP6 ADD SWAP3 POP DUP3 SWAP2 POP PUSH16 0x80000000000000000000000000000000 DUP3 DUP1 MUL SDIV SWAP1 POP PUSH17 0x100000000000000000000000000000000 DUP4 DUP2 SUB DUP4 MUL SDIV DUP5 ADD SWAP4 POP PUSH16 0x80000000000000000000000000000000 DUP2 DUP4 MUL DUP2 PUSH2 0x188B JUMPI INVALID JUMPDEST SDIV SWAP2 POP PUSH17 0x200000000000000000000000000000000 DUP4 PUSH16 0xAAAAAAAAAAAAAAAAAAAAAAAAAAAAAAAA SUB DUP4 MUL DUP2 PUSH2 0x18BC JUMPI INVALID JUMPDEST SDIV DUP5 ADD SWAP4 POP PUSH16 0x80000000000000000000000000000000 DUP2 DUP4 MUL DUP2 PUSH2 0x18DC JUMPI INVALID JUMPDEST SDIV SWAP2 POP PUSH17 0x300000000000000000000000000000000 DUP4 PUSH16 0x99999999999999999999999999999999 SUB DUP4 MUL DUP2 PUSH2 0x190D JUMPI INVALID JUMPDEST SDIV DUP5 ADD SWAP4 POP PUSH16 0x80000000000000000000000000000000 DUP2 DUP4 MUL DUP2 PUSH2 0x192D JUMPI INVALID JUMPDEST SDIV SWAP2 POP PUSH17 0x400000000000000000000000000000000 DUP4 PUSH16 0x92492492492492492492492492492492 SUB DUP4 MUL DUP2 PUSH2 0x195E JUMPI INVALID JUMPDEST SDIV DUP5 ADD SWAP4 POP PUSH16 0x80000000000000000000000000000000 DUP2 DUP4 MUL DUP2 PUSH2 0x197E JUMPI INVALID JUMPDEST SDIV SWAP2 POP PUSH17 0x500000000000000000000000000000000 DUP4 PUSH16 0x8E38E38E38E38E38E38E38E38E38E38E SUB DUP4 MUL DUP2 PUSH2 0x19AF JUMPI INVALID JUMPDEST SDIV DUP5 ADD SWAP4 POP PUSH16 0x80000000000000000000000000000000 DUP2 DUP4 MUL DUP2 PUSH2 0x19CF JUMPI INVALID JUMPDEST SDIV SWAP2 POP PUSH17 0x600000000000000000000000000000000 DUP4 PUSH16 0x8BA2E8BA2E8BA2E8BA2E8BA2E8BA2E8B SUB DUP4 MUL DUP2 PUSH2 0x1A00 JUMPI INVALID JUMPDEST SDIV DUP5 ADD SWAP4 POP PUSH16 0x80000000000000000000000000000000 DUP2 DUP4 MUL DUP2 PUSH2 0x1A20 JUMPI INVALID JUMPDEST SDIV SWAP2 POP PUSH17 0x700000000000000000000000000000000 DUP4 PUSH16 0x89D89D89D89D89D89D89D89D89D89D89 SUB DUP4 MUL DUP2 PUSH2 0x1A51 JUMPI INVALID JUMPDEST SDIV DUP5 ADD SWAP4 POP PUSH16 0x80000000000000000000000000000000 DUP2 DUP4 MUL DUP2 PUSH2 0x1A71 JUMPI INVALID JUMPDEST SDIV SWAP2 POP PUSH17 0x800000000000000000000000000000000 DUP4 PUSH16 0x88888888888888888888888888888888 SUB DUP4 MUL DUP2 PUSH2 0x1AA2 JUMPI INVALID JUMPDEST SDIV DUP5 ADD SWAP4 POP POP POP POP SWAP2 SWAP1 POP JUMP JUMPDEST PUSH1 0x0 PUSH32 0xFFFFFFFFFFFFFFFFFFFFFFFFFFFFFFE010000000000000000000000000000000 DUP3 SLT ISZERO PUSH2 0x1AE1 JUMPI POP PUSH1 0x0 PUSH2 0xCC4 JUMP JUMPDEST DUP2 PUSH2 0x1AFD JUMPI POP PUSH16 0x80000000000000000000000000000000 PUSH2 0xCC4 JUMP JUMPDEST PUSH1 0x0 DUP3 SGT ISZERO PUSH2 0x1B38 JUMPI PUSH1 0x40 MLOAD PUSH32 0x8C379A000000000000000000000000000000000000000000000000000000000 DUP2 MSTORE PUSH1 0x4 ADD PUSH2 0x339 SWAP1 PUSH2 0x245B JUMP JUMPDEST PUSH16 0x80000000000000000000000000000000 PUSH16 0x10000000000000000000000000000000 DUP4 SMOD DUP1 DUP1 MUL DUP3 SWAP1 SDIV PUSH8 0x10E1B3BE415A0000 DUP2 MUL SWAP4 SWAP1 SWAP4 ADD SWAP3 SWAP1 SWAP2 DUP2 DUP4 MUL SDIV SWAP1 POP DUP1 PUSH8 0x5A0913F6B1E0000 MUL DUP4 ADD SWAP3 POP PUSH16 0x80000000000000000000000000000000 DUP3 DUP3 MUL DUP2 PUSH2 0x1BA4 JUMPI INVALID JUMPDEST SDIV SWAP1 POP DUP1 PUSH8 0x168244FDAC78000 MUL DUP4 ADD SWAP3 POP PUSH16 0x80000000000000000000000000000000 DUP3 DUP3 MUL DUP2 PUSH2 0x1BD1 JUMPI INVALID JUMPDEST SDIV SWAP1 POP DUP1 PUSH7 0x4807432BC18000 MUL DUP4 ADD SWAP3 POP PUSH16 0x80000000000000000000000000000000 DUP3 DUP3 MUL DUP2 PUSH2 0x1BFD JUMPI INVALID JUMPDEST SDIV SWAP1 POP DUP1 PUSH7 0xC0135DCA04000 MUL DUP4 ADD SWAP3 POP PUSH16 0x80000000000000000000000000000000 DUP3 DUP3 MUL DUP2 PUSH2 0x1C29 JUMPI INVALID JUMPDEST SDIV SWAP1 POP DUP1 PUSH7 0x1B707B1CDC000 MUL DUP4 ADD SWAP3 POP PUSH16 0x80000000000000000000000000000000 DUP3 DUP3 MUL DUP2 PUSH2 0x1C55 JUMPI INVALID JUMPDEST SDIV SWAP1 POP DUP1 PUSH6 0x36E0F639B800 MUL DUP4 ADD SWAP3 POP PUSH16 0x80000000000000000000000000000000 DUP3 DUP3 MUL DUP2 PUSH2 0x1C80 JUMPI INVALID JUMPDEST SDIV SWAP1 POP DUP1 PUSH6 0x618FEE9F800 MUL DUP4 ADD SWAP3 POP PUSH16 0x80000000000000000000000000000000 DUP3 DUP3 MUL DUP2 PUSH2 0x1CAB JUMPI INVALID JUMPDEST SDIV SWAP1 POP DUP1 PUSH5 0x9C197DCC00 MUL DUP4 ADD SWAP3 POP PUSH16 0x80000000000000000000000000000000 DUP3 DUP3 MUL DUP2 PUSH2 0x1CD5 JUMPI INVALID JUMPDEST SDIV SWAP1 POP DUP1 PUSH5 0xE30DCE400 MUL DUP4 ADD SWAP3 POP PUSH16 0x80000000000000000000000000000000 DUP3 DUP3 MUL DUP2 PUSH2 0x1CFF JUMPI INVALID JUMPDEST SDIV SWAP1 POP DUP1 PUSH5 0x12EBD1300 MUL DUP4 ADD SWAP3 POP PUSH16 0x80000000000000000000000000000000 DUP3 DUP3 MUL DUP2 PUSH2 0x1D29 JUMPI INVALID JUMPDEST SDIV SWAP1 POP DUP1 PUSH4 0x17499F00 MUL DUP4 ADD SWAP3 POP PUSH16 0x80000000000000000000000000000000 DUP3 DUP3 MUL DUP2 PUSH2 0x1D52 JUMPI INVALID JUMPDEST SDIV SWAP1 POP DUP1 PUSH4 0x1A9D480 MUL DUP4 ADD SWAP3 POP PUSH16 0x80000000000000000000000000000000 DUP3 DUP3 MUL DUP2 PUSH2 0x1D7B JUMPI INVALID JUMPDEST SDIV SWAP1 POP DUP1 PUSH3 0x1C6380 MUL DUP4 ADD SWAP3 POP PUSH16 0x80000000000000000000000000000000 DUP3 DUP3 MUL DUP2 PUSH2 0x1DA3 JUMPI INVALID JUMPDEST SDIV SWAP1 POP DUP1 PUSH3 0x1C638 MUL DUP4 ADD SWAP3 POP PUSH16 0x80000000000000000000000000000000 DUP3 DUP3 MUL DUP2 PUSH2 0x1DCB JUMPI INVALID JUMPDEST SDIV SWAP1 POP DUP1 PUSH2 0x1AB8 MUL DUP4 ADD SWAP3 POP PUSH16 0x80000000000000000000000000000000 DUP3 DUP3 MUL DUP2 PUSH2 0x1DF2 JUMPI INVALID JUMPDEST SDIV SWAP1 POP DUP1 PUSH2 0x17C MUL DUP4 ADD SWAP3 POP PUSH16 0x80000000000000000000000000000000 DUP3 DUP3 MUL DUP2 PUSH2 0x1E19 JUMPI INVALID JUMPDEST SDIV SWAP1 POP DUP1 PUSH1 0x14 MUL DUP4 ADD SWAP3 POP PUSH16 0x80000000000000000000000000000000 DUP3 DUP3 MUL DUP2 PUSH2 0x1E3F JUMPI INVALID JUMPDEST PUSH1 0x0 SWAP6 SWAP1 SWAP6 SUB SWAP5 PUSH8 0x21C3677C82B40000 SWAP2 SWAP1 SDIV SWAP4 DUP5 ADD SDIV DUP3 ADD PUSH16 0x80000000000000000000000000000000 ADD SWAP3 SWAP1 POP PUSH17 0x1000000000000000000000000000000000 DUP5 AND ISZERO PUSH2 0x1EAE JUMPI PUSH19 0x43CBAF42A000812488FC5C220AD7B97BF6E99E PUSH13 0xF1AADDD7742E56D32FB9F99744 DUP5 MUL SDIV SWAP3 POP JUMPDEST PUSH17 0x800000000000000000000000000000000 DUP5 AND ISZERO PUSH2 0x1EF0 JUMPI PUSH18 0x5D27A9F51C31B7C2F8038212A0574779991 PUSH15 0xAFE10820813D65DFE6A33C07F738F DUP5 MUL SDIV SWAP3 POP JUMPDEST PUSH17 0x400000000000000000000000000000000 DUP5 AND ISZERO PUSH2 0x1F32 JUMPI PUSH17 0x1B4C902E273A58678D6D3BFDB93DB96D02 PUSH16 0x2582AB704279E8EFD15E0265855C47A DUP5 MUL SDIV SWAP3 POP JUMPDEST PUSH17 0x200000000000000000000000000000000 DUP5 AND ISZERO PUSH2 0x1F74 JUMPI PUSH17 0x3B1CC971A9BB5B9867477440D6D157750 PUSH16 0x1152AAA3BF81CB9FDB76EAE12D029571 DUP5 MUL SDIV SWAP3 POP JUMPDEST PUSH17 0x100000000000000000000000000000000 DUP5 AND ISZERO PUSH2 0x1FB6 JUMPI PUSH17 0x15BF0A8B1457695355FB8AC404E7A79E3 PUSH16 0x2F16AC6C59DE6F8D5D6F63C1482A7C86 DUP5 MUL SDIV SWAP3 POP JUMPDEST PUSH16 0x80000000000000000000000000000000 DUP5 AND ISZERO PUSH2 0x1FF6 JUMPI PUSH16 0xD3094C70F034DE4B96FF7D5B6F99FCD8 PUSH16 0x4DA2CBF1BE5827F9EB3AD1AA9866EBB3 DUP5 MUL SDIV SWAP3 POP JUMPDEST PUSH16 0x40000000000000000000000000000000 DUP5 AND ISZERO PUSH2 0x2036 JUMPI PUSH16 0xA45AF1E1F40C333B3DE1DB4DD55F29A7 PUSH16 0x63AFBE7AB2082BA1A0AE5E4EB1B479DC DUP5 MUL SDIV SWAP3 POP JUMPDEST PUSH16 0x20000000000000000000000000000000 DUP5 AND ISZERO PUSH2 0x2076 JUMPI PUSH16 0x910B022DB7AE67CE76B441C27035C6A1 PUSH16 0x70F5A893B608861E1F58934F97AEA57D DUP5 MUL SDIV SWAP3 POP JUMPDEST PUSH16 0x10000000000000000000000000000000 DUP5 AND ISZERO PUSH2 0x20B6 JUMPI PUSH16 0x88415ABBE9A76BEAD8D00CF112E4D4A8 PUSH16 0x783EAFEF1C0A8F3978C7F81824D62EBF DUP5 MUL SDIV SWAP3 POP JUMPDEST POP POP SWAP2 SWAP1 POP JUMP JUMPDEST PUSH1 0x40 MLOAD DUP1 PUSH2 0x1A0 ADD PUSH1 0x40 MSTORE DUP1 PUSH1 0x0 ISZERO ISZERO DUP2 MSTORE PUSH1 0x20 ADD PUSH1 0x0 PUSH20 0xFFFFFFFFFFFFFFFFFFFFFFFFFFFFFFFFFFFFFFFF AND DUP2 MSTORE PUSH1 0x20 ADD PUSH1 0x0 PUSH20 0xFFFFFFFFFFFFFFFFFFFFFFFFFFFFFFFFFFFFFFFF AND DUP2 MSTORE PUSH1 0x20 ADD PUSH1 0x0 DUP2 MSTORE PUSH1 0x20 ADD PUSH1 0x0 DUP2 MSTORE PUSH1 0x20 ADD PUSH1 0x0 DUP2 MSTORE PUSH1 0x20 ADD PUSH1 0x0 DUP2 MSTORE PUSH1 0x20 ADD PUSH1 0x0 DUP2 MSTORE PUSH1 0x20 ADD PUSH1 0x0 DUP2 MSTORE PUSH1 0x20 ADD PUSH1 0x0 DUP2 MSTORE PUSH1 0x20 ADD PUSH1 0x0 DUP2 MSTORE PUSH1 0x20 ADD PUSH1 0x0 DUP2 MSTORE PUSH1 0x20 ADD PUSH1 0x0 DUP2 MSTORE POP SWAP1 JUMP JUMPDEST PUSH1 0x0 PUSH1 0x20 DUP3 DUP5 SUB SLT ISZERO PUSH2 0x2164 JUMPI DUP1 DUP2 REVERT JUMPDEST DUP2 CALLDATALOAD PUSH20 0xFFFFFFFFFFFFFFFFFFFFFFFFFFFFFFFFFFFFFFFF DUP2 AND DUP2 EQ PUSH2 0x7BC JUMPI DUP2 DUP3 REVERT JUMPDEST PUSH1 0x0 DUP1 PUSH1 0x0 PUSH1 0x60 DUP5 DUP7 SUB SLT ISZERO PUSH2 0x219B JUMPI DUP2 DUP3 REVERT JUMPDEST DUP4 CALLDATALOAD PUSH2 0x21A6 DUP2 PUSH2 0x2642 JUMP JUMPDEST SWAP3 POP PUSH1 0x20 DUP5 ADD CALLDATALOAD PUSH2 0x21B6 DUP2 PUSH2 0x2642 JUMP JUMPDEST SWAP3 SWAP6 SWAP3 SWAP5 POP POP POP PUSH1 0x40 SWAP2 SWAP1 SWAP2 ADD CALLDATALOAD SWAP1 JUMP JUMPDEST PUSH1 0x0 PUSH1 0x20 DUP3 DUP5 SUB SLT ISZERO PUSH2 0x21D8 JUMPI DUP1 DUP2 REVERT JUMPDEST POP CALLDATALOAD SWAP2 SWAP1 POP JUMP JUMPDEST PUSH20 0xFFFFFFFFFFFFFFFFFFFFFFFFFFFFFFFFFFFFFFFF SWAP2 SWAP1 SWAP2 AND DUP2 MSTORE PUSH1 0x20 ADD SWAP1 JUMP JUMPDEST PUSH20 0xFFFFFFFFFFFFFFFFFFFFFFFFFFFFFFFFFFFFFFFF SWAP3 DUP4 AND DUP2 MSTORE SWAP2 AND PUSH1 0x20 DUP3 ADD MSTORE PUSH1 0x40 ADD SWAP1 JUMP JUMPDEST PUSH20 0xFFFFFFFFFFFFFFFFFFFFFFFFFFFFFFFFFFFFFFFF SWAP4 SWAP1 SWAP4 AND DUP4 MSTORE PUSH1 0x20 DUP4 ADD SWAP2 SWAP1 SWAP2 MSTORE PUSH1 0x40 DUP3 ADD MSTORE PUSH1 0x60 ADD SWAP1 JUMP JUMPDEST SWAP3 DUP4 MSTORE PUSH1 0x20 DUP4 ADD SWAP2 SWAP1 SWAP2 MSTORE PUSH1 0x40 DUP3 ADD MSTORE PUSH1 0x60 ADD SWAP1 JUMP JUMPDEST SWAP5 DUP6 MSTORE PUSH1 0x20 DUP6 ADD SWAP4 SWAP1 SWAP4 MSTORE PUSH1 0x40 DUP5 ADD SWAP2 SWAP1 SWAP2 MSTORE PUSH1 0x60 DUP4 ADD MSTORE PUSH1 0x80 DUP3 ADD MSTORE PUSH1 0xA0 ADD SWAP1 JUMP JUMPDEST PUSH1 0x20 DUP1 DUP3 MSTORE PUSH1 0x13 SWAP1 DUP3 ADD MSTORE PUSH32 0x6C6E3A2076616C756520746F6F20736D616C6C00000000000000000000000000 PUSH1 0x40 DUP3 ADD MSTORE PUSH1 0x60 ADD SWAP1 JUMP JUMPDEST PUSH1 0x20 DUP1 DUP3 MSTORE PUSH1 0xE SWAP1 DUP3 ADD MSTORE PUSH32 0x4F6E6C794F776E65724572726F72000000000000000000000000000000000000 PUSH1 0x40 DUP3 ADD MSTORE PUSH1 0x60 ADD SWAP1 JUMP JUMPDEST PUSH1 0x20 DUP1 DUP3 MSTORE PUSH1 0x13 SWAP1 DUP3 ADD MSTORE PUSH32 0x416C726561647920496E697469616C697A656400000000000000000000000000 PUSH1 0x40 DUP3 ADD MSTORE PUSH1 0x60 ADD SWAP1 JUMP JUMPDEST PUSH1 0x20 DUP1 DUP3 MSTORE PUSH1 0x17 SWAP1 DUP3 ADD MSTORE PUSH32 0x496E76616C696420746F6B656E20616464726573736573000000000000000000 PUSH1 0x40 DUP3 ADD MSTORE PUSH1 0x60 ADD SWAP1 JUMP JUMPDEST PUSH1 0x20 DUP1 DUP3 MSTORE PUSH1 0x38 SWAP1 DUP3 ADD MSTORE PUSH32 0x746F46697865642875696E742C75696E74293A2064656E6F6D696E61746F7220 PUSH1 0x40 DUP3 ADD MSTORE PUSH32 0x63616E6E6F74206265206C657373207468616E207A65726F0000000000000000 PUSH1 0x60 DUP3 ADD MSTORE PUSH1 0x80 ADD SWAP1 JUMP JUMPDEST PUSH1 0x20 DUP1 DUP3 MSTORE PUSH1 0x13 SWAP1 DUP3 ADD MSTORE PUSH32 0x6C6E3A2076616C756520746F6F206C6172676500000000000000000000000000 PUSH1 0x40 DUP3 ADD MSTORE PUSH1 0x60 ADD SWAP1 JUMP JUMPDEST PUSH1 0x20 DUP1 DUP3 MSTORE PUSH1 0x27 SWAP1 DUP3 ADD MSTORE PUSH32 0x746F46697865643A2076616C75652063616E6E6F74206265206C657373207468 PUSH1 0x40 DUP3 ADD MSTORE PUSH32 0x616E207A65726F00000000000000000000000000000000000000000000000000 PUSH1 0x60 DUP3 ADD MSTORE PUSH1 0x80 ADD SWAP1 JUMP JUMPDEST PUSH1 0x20 DUP1 DUP3 MSTORE PUSH1 0x14 SWAP1 DUP3 ADD MSTORE PUSH32 0x6578703A2076616C756520746F6F20736D616C6C000000000000000000000000 PUSH1 0x40 DUP3 ADD MSTORE PUSH1 0x60 ADD SWAP1 JUMP JUMPDEST PUSH1 0x20 DUP1 DUP3 MSTORE PUSH1 0x18 SWAP1 DUP3 ADD MSTORE PUSH32 0x5472616E736665724F776E6572546F5A65726F4572726F720000000000000000 PUSH1 0x40 DUP3 ADD MSTORE PUSH1 0x60 ADD SWAP1 JUMP JUMPDEST PUSH1 0x20 DUP1 DUP3 MSTORE PUSH1 0xE SWAP1 DUP3 ADD MSTORE PUSH32 0x5F6D756C3A206F766572666C6F77000000000000000000000000000000000000 PUSH1 0x40 DUP3 ADD MSTORE PUSH1 0x60 ADD SWAP1 JUMP JUMPDEST PUSH1 0x20 DUP1 DUP3 MSTORE PUSH1 0xE SWAP1 DUP3 ADD MSTORE PUSH32 0x5F6164643A206F766572666C6F77000000000000000000000000000000000000 PUSH1 0x40 DUP3 ADD MSTORE PUSH1 0x60 ADD SWAP1 JUMP JUMPDEST PUSH1 0x20 DUP1 DUP3 MSTORE PUSH1 0x14 SWAP1 DUP3 ADD MSTORE PUSH32 0x7375623A2076616C756520746F6F20736D616C6C000000000000000000000000 PUSH1 0x40 DUP3 ADD MSTORE PUSH1 0x60 ADD SWAP1 JUMP JUMPDEST PUSH1 0x20 DUP1 DUP3 MSTORE PUSH1 0x36 SWAP1 DUP3 ADD MSTORE PUSH32 0x746F46697865642875696E742C75696E74293A206E756D657261746F72206361 PUSH1 0x40 DUP3 ADD MSTORE PUSH32 0x6E6E6F74206265206C657373207468616E207A65726F00000000000000000000 PUSH1 0x60 DUP3 ADD MSTORE PUSH1 0x80 ADD SWAP1 JUMP JUMPDEST PUSH1 0x20 DUP1 DUP3 MSTORE PUSH1 0x14 SWAP1 DUP3 ADD MSTORE PUSH32 0x5F6469763A20646976696465206279207A65726F000000000000000000000000 PUSH1 0x40 DUP3 ADD MSTORE PUSH1 0x60 ADD SWAP1 JUMP JUMPDEST PUSH1 0x20 DUP1 DUP3 MSTORE PUSH1 0xE SWAP1 DUP3 ADD MSTORE PUSH32 0x5F6469763A206F766572666C6F77000000000000000000000000000000000000 PUSH1 0x40 DUP3 ADD MSTORE PUSH1 0x60 ADD SWAP1 JUMP JUMPDEST SWAP1 DUP2 MSTORE PUSH1 0x20 ADD SWAP1 JUMP JUMPDEST PUSH20 0xFFFFFFFFFFFFFFFFFFFFFFFFFFFFFFFFFFFFFFFF DUP2 AND DUP2 EQ PUSH2 0x2F1 JUMPI PUSH1 0x0 DUP1 REVERT INVALID LOG3 PUSH6 0x627A7A723158 KECCAK256 DIV 0x28 0xC0 CALLVALUE 0x2D XOR 0xFC 0xB7 PUSH24 0x15B8472560B6E3E3CC34750F0D0BFF1669172293BB088E6C PUSH6 0x78706572696D PUSH6 0x6E74616CF564 PUSH20 0x6F6C634300050D00400000000000000000000000 "
			}
		}
	},
	"sourceTreeHashHex": "0x68973e16c049d47e6ccf625349b276ad417eed4d8112e42c238eead7e2e346fa",
	"compiler": {
		"name": "solc",
		"version": "soljson-v0.5.13+commit.5b0b510c.js",
		"settings": {
			"optimizer": {
				"enabled": true,
				"runs": 1000000,
				"details": {
					"yul": true,
					"deduplicate": true,
					"cse": true,
					"constantOptimizer": true
				}
			},
			"outputSelection": {
				"*": {
					"*": [
						"abi",
						"devdoc",
						"evm.bytecode.object",
						"evm.bytecode.sourceMap",
						"evm.deployedBytecode.object",
						"evm.deployedBytecode.sourceMap"
					]
				}
			},
			"evmVersion": "constantinople",
			"remappings": []
		}
	},
	"chains": {}
}