{
	"schemaVersion": "2.0.0",
	"contractName": "TestScam",
	"compilerOutput": {
		"abi": [
			{
				"anonymous": false,
				"inputs": [
					{
						"indexed": false,
						"internalType": "int256",
						"name": "lhs1",
						"type": "int256"
					},
					{
						"indexed": false,
						"internalType": "int256",
						"name": "mid",
						"type": "int256"
					},
					{
						"indexed": false,
						"internalType": "int256",
						"name": "lhs",
						"type": "int256"
					}
				],
				"name": "Bisect",
				"type": "event"
			},
			{
				"anonymous": false,
				"inputs": [
					{
						"indexed": false,
						"internalType": "address",
						"name": "from",
						"type": "address"
					},
					{
						"indexed": false,
						"internalType": "address",
						"name": "fromToken",
						"type": "address"
					},
					{
						"indexed": false,
						"internalType": "address",
						"name": "toToken",
						"type": "address"
					},
					{
						"indexed": false,
						"internalType": "uint256",
						"name": "amountSpent",
						"type": "uint256"
					},
					{
						"indexed": false,
						"internalType": "uint256",
						"name": "amountReceived",
						"type": "uint256"
					}
				],
				"name": "Fill",
				"type": "event"
			},
			{
				"anonymous": false,
				"inputs": [
					{
						"indexed": false,
						"internalType": "int256",
						"name": "price",
						"type": "int256"
					},
					{
						"indexed": false,
						"internalType": "int256",
						"name": "deltaB",
						"type": "int256"
					},
					{
						"indexed": false,
						"internalType": "int256",
						"name": "newPBarX",
						"type": "int256"
					},
					{
						"indexed": false,
						"internalType": "int256",
						"name": "pA",
						"type": "int256"
					}
				],
				"name": "Price",
				"type": "event"
			},
			{
				"constant": false,
				"inputs": [
					{
						"internalType": "uint256",
						"name": "amount",
						"type": "uint256"
					}
				],
				"name": "addLiquidity",
				"outputs": [],
				"payable": false,
				"stateMutability": "nonpayable",
				"type": "function"
			},
			{
				"constant": false,
				"inputs": [
					{
						"internalType": "uint256",
						"name": "rhoNumerator",
						"type": "uint256"
					},
					{
						"internalType": "uint256",
						"name": "rhoDenominator",
						"type": "uint256"
					}
				],
				"name": "init",
				"outputs": [],
				"payable": false,
				"stateMutability": "nonpayable",
				"type": "function"
			},
			{
				"constant": false,
				"inputs": [
					{
						"internalType": "uint256",
						"name": "amount",
						"type": "uint256"
					}
				],
				"name": "removeLiquidity",
				"outputs": [],
				"payable": false,
				"stateMutability": "nonpayable",
				"type": "function"
			},
			{
				"constant": false,
				"inputs": [],
				"name": "runBasicTest",
				"outputs": [],
				"payable": false,
				"stateMutability": "nonpayable",
				"type": "function"
			},
			{
				"constant": false,
				"inputs": [],
				"name": "runBasicTestOld",
				"outputs": [],
				"payable": false,
				"stateMutability": "nonpayable",
				"type": "function"
			},
			{
				"constant": false,
				"inputs": [
					{
						"internalType": "address",
						"name": "fromToken",
						"type": "address"
					},
					{
						"internalType": "address",
						"name": "toToken",
						"type": "address"
					},
					{
						"internalType": "uint256",
						"name": "amount",
						"type": "uint256"
					}
				],
				"name": "swap",
				"outputs": [],
				"payable": false,
				"stateMutability": "nonpayable",
				"type": "function"
			}
		],
		"devdoc": {
			"methods": {}
		},
		"evm": {
			"bytecode": {
				"linkReferences": {},
				"object": "0x608060405261218c806100136000396000f3fe608060405234801561001057600080fd5b50600436106100725760003560e01c80639c8f9f23116100505780639c8f9f2314610081578063a5843f081461009c578063df791e50146100af57610072565b806340386cfd1461007757806351c6590a14610081578063978ca36f14610094575b600080fd5b61007f6100c2565b005b61007f61008f366004611d1c565b6101dc565b61007f6101df565b61007f6100aa366004611d34565b610240565b61007f6100bd366004611cdc565b610296565b600080547fffffffffffffffffffffffff00000000000000000000000000000000000000009081166001908117909255815416600217905561010561c350610650565b600255610114620186a0610650565b6003556101216001610650565b600455606360058190556101369060646106ac565b60065561014660056127106106ac565b60075561016e61015a6001620f424061074d565b61016261076c565b9063ffffffff61078016565b600b5561017f6127156103e861074d565b600c556000546001546101ae9173ffffffffffffffffffffffffffffffffffffffff9081169116612710610296565b6001546000546101da9173ffffffffffffffffffffffffffffffffffffffff9081169116612710610296565b565b50565b600080547fffffffffffffffffffffffff00000000000000000000000000000000000000009081166001908117909255815416600217905561022261c350610650565b600255610231620186a0610650565b600355610121606560646106ac565b816001018114610285576040517f08c379a000000000000000000000000000000000000000000000000000000000815260040161027c90611dea565b60405180910390fd5b61028f82826106ac565b6006555050565b61029e611c4f565b6102a66107e9565b905060006102b383610650565b825190915060009081908190819073ffffffffffffffffffffffffffffffffffffffff8a811691161480156103175750856020015173ffffffffffffffffffffffffffffffffffffffff168873ffffffffffffffffffffffffffffffffffffffff16145b15610336575050505060408201516060830151608084015160016103f6565b856020015173ffffffffffffffffffffffffffffffffffffffff168973ffffffffffffffffffffffffffffffffffffffff1614801561038e5750855173ffffffffffffffffffffffffffffffffffffffff8981169116145b156103c45785606001519350856040015192506103bd86608001516103b161076c565b9063ffffffff61087c16565b91506103f6565b6040517f08c379a000000000000000000000000000000000000000000000000000000000815260040161027c90611e58565b6000806104068686868a8c6108a5565b91509150600061043b61041f8a60e0015161016261076c565b61042f8a8563ffffffff6109aa16565b9063ffffffff6109aa16565b905061044e60008263ffffffff61078016565b905060006104606001620186a061074d565b90506000821315610474576000915061049d565b80610485888463ffffffff6109fd16565b1361049d5761049a818863ffffffff61078016565b91505b60006104c18b61010001516104b0610a09565b8d6101400151888f60800151610a0f565b6101608c01519091506104da908863ffffffff6109aa16565b8113156104fe576101608b01516104f7908863ffffffff6109aa16565b9050610532565b6105138761042f8d61016001516103b161076c565b8112156105325761052f8761042f8d61016001516103b161076c565b90505b7f2200c1c87d346032bc0d16306152cc3e6e4dfa6d004ce38efa3f38f6f422d9e3848483886040516105679493929190611dac565b60405180910390a1610577610a09565b6101008c015285156105b957610593898b63ffffffff6109fd16565b60408c01526105a8888463ffffffff6109fd16565b60608c015260808b018190526105f5565b6105c9888463ffffffff6109fd16565b60408c01526105de898b63ffffffff6109fd16565b60608c01526105ef816103b161076c565b60808c01525b6105fe8b610aed565b7f256db8090fa51c3bac981768637d5a7c46b5540644dcef89052b89dbb2f6c8ea338f8f8d87600003604051610638959493929190611d55565b60405180910390a15050505050505050505050505050565b60008082121561068c576040517f08c379a000000000000000000000000000000000000000000000000000000000815260040161027c90611f23565b6106a6826f80000000000000000000000000000000610b9a565b92915050565b6000808312156106e8576040517f08c379a000000000000000000000000000000000000000000000000000000000815260040161027c9061205c565b6000821215610723576040517f08c379a000000000000000000000000000000000000000000000000000000000815260040161027c90611e8f565b610746610740846f80000000000000000000000000000000610b9a565b83610c10565b9392505050565b6000610746610740846f80000000000000000000000000000000610b9a565b6f8000000000000000000000000000000090565b60007f80000000000000000000000000000000000000000000000000000000000000008214156107dc576040517f08c379a000000000000000000000000000000000000000000000000000000000815260040161027c90612025565b6107468383600003610cdf565b6107f1611c4f565b50604080516101808101825260005473ffffffffffffffffffffffffffffffffffffffff9081168252600154166020820152600254918101919091526003546060820152600454608082015260055460a082015260065460c082015260075460e0820152600854610100820152600a54610120820152600b54610140820152600c5461016082015290565b6000610896610740846a8000000000000000000000610b9a565b65010000000000029392505050565b6000806108b88787878660c00151610d55565b9150600082816108ce8a8863ffffffff6109fd16565b905060005b601481101561099a5760006108e88585610e4e565b905060006109046108ff838d63ffffffff61087c16565b610e76565b9050600061093b61091b8c8563ffffffff6109aa16565b61092f8561042f898763ffffffff6109aa16565b9063ffffffff6109fd16565b90507f4add19bbbe358caf4af4a31b1299356fc4dccf8b4cf3c87e401b0fa60062f31e82848360405161097093929190611d96565b60405180910390a18c8113156109885782955061098c565b8296505b5050508060010190506108d3565b5091925050509550959350505050565b60006f8000000000000000000000000000000082156109dc575065010000000000909105906a80000000000000000000005b60006109e88585610b9a565b90508181816109f357fe5b0595945050505050565b60006107468383610cdf565b61023a90565b600080610a1d878703610650565b90506000610a42610a3d610a3088610f25565b849063ffffffff6109aa16565b61160f565b90506000610a528261016261076c565b90506000610a66878363ffffffff6109aa16565b90506000610a7a878563ffffffff6109aa16565b90506000610aa6610a91858b63ffffffff61087c16565b610aa1878b63ffffffff61087c16565b6109fd565b90506000610ab6826103b161076c565b90506000610adb610ac76002611c1d565b6103b18461092f898963ffffffff6109fd16565b9e9d5050505050505050505050505050565b80516000805473ffffffffffffffffffffffffffffffffffffffff9283167fffffffffffffffffffffffff00000000000000000000000000000000000000009182161790915560208301516001805491909316911617905560408101516002556060810151600355608081015160045560a081015160055560c081015160065560e0810151600755610100810151600855610120810151600a55610140810151600b556101600151600c55565b6000821580610ba7575081155b15610bb4575060006106a6565b5081810281838281610bc257fe5b05141580610bd9575082828281610bd557fe5b0514155b156106a6576040517f08c379a000000000000000000000000000000000000000000000000000000000815260040161027c90611fb7565b600081610c49576040517f08c379a000000000000000000000000000000000000000000000000000000000815260040161027c906120b9565b7f800000000000000000000000000000000000000000000000000000000000000083148015610c975750817fffffffffffffffffffffffffffffffffffffffffffffffffffffffffffffffff145b15610cce576040517f08c379a000000000000000000000000000000000000000000000000000000000815260040161027c906120f0565b818381610cd757fe5b059392505050565b818101600083128015610cf25750600082125b8015610cfd57508281135b80610d1e5750600083138015610d135750600082135b8015610d1e57508281125b156106a6576040517f08c379a000000000000000000000000000000000000000000000000000000000815260040161027c90611fee565b600080610d68848763ffffffff6109aa16565b90506000610d7c868363ffffffff61087c16565b90506000610d90838863ffffffff61087c16565b90506000610da08661016261076c565b90506000610dac61076c565b841215610dca57610dc3610a3d8361042f87610f25565b9050610de8565b610de5610ddd610a3d8461042f87610f25565b6103b161076c565b90505b610df8818963ffffffff6109aa16565b95507f3cf9bd989028bfc957ca46fd34c8ed26f90d849442378ee442fcd56cf5cac44f8a8a8a8a610e288b611c39565b604051610e39959493929190611dc7565b60405180910390a15050505050949350505050565b6000610746610e66610e5e61076c565b61092f61076c565b6103b1858563ffffffff6109fd16565b600080610e89838063ffffffff6109aa16565b90506000610e9d848363ffffffff6109aa16565b90506000610eb1828063ffffffff6109aa16565b90506000610ec5828063ffffffff6109aa16565b90506000610ed9828063ffffffff6109aa16565b90506000610eed828063ffffffff6109aa16565b90506000610f01828063ffffffff6109aa16565b90506000610f15828863ffffffff6109aa16565b985050505050505050505b919050565b60006f80000000000000000000000000000000821315610f71576040517f08c379a000000000000000000000000000000000000000000000000000000000815260040161027c90611eec565b60008213610fab576040517f08c379a000000000000000000000000000000000000000000000000000000000815260040161027c90611e21565b6f80000000000000000000000000000000821415610fcb57506000610f20565b640733048c5a8213610ffe57507fffffffffffffffffffffffffffffffe010000000000000000000000000000000610f20565b60008060006a01c8464f76164760000000851361105d577ffffffffffffffffffffffffffffffff000000000000000000000000000000000909301926a01c8464f761647600000006f8000000000000000000000000000000086020594505b6cf1aaddd7742e9000000000000085136110bb577ffffffffffffffffffffffffffffffff800000000000000000000000000000000909301926cf1aaddd7742e900000000000006f8000000000000000000000000000000086020594505b6e0afe10820813d78000000000000000851361111d577ffffffffffffffffffffffffffffffffc00000000000000000000000000000000909301926e0afe10820813d780000000000000006f8000000000000000000000000000000086020594505b6f02582ab704279ec000000000000000008513611181577ffffffffffffffffffffffffffffffffe00000000000000000000000000000000909301926f02582ab704279ec000000000000000006f8000000000000000000000000000000086020594505b6f1152aaa3bf81cc00000000000000000085136111e5577fffffffffffffffffffffffffffffffff00000000000000000000000000000000909301926f1152aaa3bf81cc0000000000000000006f8000000000000000000000000000000086020594505b6f2f16ac6c59de700000000000000000008513611249577fffffffffffffffffffffffffffffffff80000000000000000000000000000000909301926f2f16ac6c59de700000000000000000006f8000000000000000000000000000000086020594505b6f4da2cbf1be582800000000000000000085136112ad577fffffffffffffffffffffffffffffffffc0000000000000000000000000000000909301926f4da2cbf1be58280000000000000000006f8000000000000000000000000000000086020594505b6f63afbe7ab2082c0000000000000000008513611311577fffffffffffffffffffffffffffffffffe0000000000000000000000000000000909301926f63afbe7ab2082c0000000000000000006f8000000000000000000000000000000086020594505b6f70f5a893b608861e1f58934f97aea57d8513611375577ffffffffffffffffffffffffffffffffff0000000000000000000000000000000909301926f70f5a893b608861e1f58934f97aea57d6f8000000000000000000000000000000086020594505b7fffffffffffffffffffffffffffffffff80000000000000000000000000000000850192508291506f80000000000000000000000000000000828002059050700100000000000000000000000000000000838103830205840193506f80000000000000000000000000000000818302816113eb57fe5b059150700200000000000000000000000000000000836faaaaaaaaaaaaaaaaaaaaaaaaaaaaaaaa0383028161141c57fe5b05840193506f800000000000000000000000000000008183028161143c57fe5b059150700300000000000000000000000000000000836f999999999999999999999999999999990383028161146d57fe5b05840193506f800000000000000000000000000000008183028161148d57fe5b059150700400000000000000000000000000000000836f92492492492492492492492492492492038302816114be57fe5b05840193506f80000000000000000000000000000000818302816114de57fe5b059150700500000000000000000000000000000000836f8e38e38e38e38e38e38e38e38e38e38e0383028161150f57fe5b05840193506f800000000000000000000000000000008183028161152f57fe5b059150700600000000000000000000000000000000836f8ba2e8ba2e8ba2e8ba2e8ba2e8ba2e8b0383028161156057fe5b05840193506f800000000000000000000000000000008183028161158057fe5b059150700700000000000000000000000000000000836f89d89d89d89d89d89d89d89d89d89d89038302816115b157fe5b05840193506f80000000000000000000000000000000818302816115d157fe5b059150700800000000000000000000000000000000836f888888888888888888888888888888880383028161160257fe5b0584019350505050919050565b60007fffffffffffffffffffffffffffffffe01000000000000000000000000000000082121561164157506000610f20565b8161165d57506f80000000000000000000000000000000610f20565b6000821315611698576040517f08c379a000000000000000000000000000000000000000000000000000000000815260040161027c90611f80565b6f800000000000000000000000000000006f1000000000000000000000000000000083078080028290056710e1b3be415a0000810293909301929091818302059050806705a0913f6b1e000002830192506f800000000000000000000000000000008282028161170457fe5b05905080670168244fdac7800002830192506f800000000000000000000000000000008282028161173157fe5b05905080664807432bc1800002830192506f800000000000000000000000000000008282028161175d57fe5b05905080660c0135dca0400002830192506f800000000000000000000000000000008282028161178957fe5b059050806601b707b1cdc00002830192506f80000000000000000000000000000000828202816117b557fe5b059050806536e0f639b80002830192506f80000000000000000000000000000000828202816117e057fe5b05905080650618fee9f80002830192506f800000000000000000000000000000008282028161180b57fe5b05905080649c197dcc0002830192506f800000000000000000000000000000008282028161183557fe5b05905080640e30dce40002830192506f800000000000000000000000000000008282028161185f57fe5b0590508064012ebd130002830192506f800000000000000000000000000000008282028161188957fe5b059050806317499f0002830192506f80000000000000000000000000000000828202816118b257fe5b059050806301a9d48002830192506f80000000000000000000000000000000828202816118db57fe5b05905080621c638002830192506f800000000000000000000000000000008282028161190357fe5b059050806201c63802830192506f800000000000000000000000000000008282028161192b57fe5b05905080611ab802830192506f800000000000000000000000000000008282028161195257fe5b0590508061017c02830192506f800000000000000000000000000000008282028161197957fe5b05905080601402830192506f800000000000000000000000000000008282028161199f57fe5b600095909503946721c3677c82b400009190059384010582016f8000000000000000000000000000000001929050701000000000000000000000000000000000841615611a0e577243cbaf42a000812488fc5c220ad7b97bf6e99e6cf1aaddd7742e56d32fb9f9974484020592505b700800000000000000000000000000000000841615611a50577105d27a9f51c31b7c2f8038212a05747799916e0afe10820813d65dfe6a33c07f738f84020592505b700400000000000000000000000000000000841615611a9257701b4c902e273a58678d6d3bfdb93db96d026f02582ab704279e8efd15e0265855c47a84020592505b700200000000000000000000000000000000841615611ad4577003b1cc971a9bb5b9867477440d6d1577506f1152aaa3bf81cb9fdb76eae12d02957184020592505b700100000000000000000000000000000000841615611b165770015bf0a8b1457695355fb8ac404e7a79e36f2f16ac6c59de6f8d5d6f63c1482a7c8684020592505b6f80000000000000000000000000000000841615611b56576fd3094c70f034de4b96ff7d5b6f99fcd86f4da2cbf1be5827f9eb3ad1aa9866ebb384020592505b6f40000000000000000000000000000000841615611b96576fa45af1e1f40c333b3de1db4dd55f29a76f63afbe7ab2082ba1a0ae5e4eb1b479dc84020592505b6f20000000000000000000000000000000841615611bd6576f910b022db7ae67ce76b441c27035c6a16f70f5a893b608861e1f58934f97aea57d84020592505b6f10000000000000000000000000000000841615611c16576f88415abbe9a76bead8d00cf112e4d4a86f783eafef1c0a8f3978c7f81824d62ebf84020592505b5050919050565b60006106a6826f80000000000000000000000000000000610b9a565b6f80000000000000000000000000000000900590565b604051806101800160405280600073ffffffffffffffffffffffffffffffffffffffff168152602001600073ffffffffffffffffffffffffffffffffffffffff168152602001600081526020016000815260200160008152602001600081526020016000815260200160008152602001600081526020016000815260200160008152602001600081525090565b600080600060608486031215611cf0578283fd5b8335611cfb81612127565b92506020840135611d0b81612127565b929592945050506040919091013590565b600060208284031215611d2d578081fd5b5035919050565b60008060408385031215611d46578182fd5b50508035926020909101359150565b73ffffffffffffffffffffffffffffffffffffffff958616815293851660208501529190931660408301526060820192909252608081019190915260a00190565b9283526020830191909152604082015260600190565b93845260208401929092526040830152606082015260800190565b948552602085019390935260408401919091526060830152608082015260a00190565b60208082526015908201527f496e76616c69642076616c756520666f722072686f0000000000000000000000604082015260600190565b60208082526013908201527f6c6e3a2076616c756520746f6f20736d616c6c00000000000000000000000000604082015260600190565b60208082526017908201527f496e76616c696420746f6b656e20616464726573736573000000000000000000604082015260600190565b60208082526038908201527f746f46697865642875696e742c75696e74293a2064656e6f6d696e61746f722060408201527f63616e6e6f74206265206c657373207468616e207a65726f0000000000000000606082015260800190565b60208082526013908201527f6c6e3a2076616c756520746f6f206c6172676500000000000000000000000000604082015260600190565b60208082526027908201527f746f46697865643a2076616c75652063616e6e6f74206265206c65737320746860408201527f616e207a65726f00000000000000000000000000000000000000000000000000606082015260800190565b60208082526014908201527f6578703a2076616c756520746f6f20736d616c6c000000000000000000000000604082015260600190565b6020808252600e908201527f5f6d756c3a206f766572666c6f77000000000000000000000000000000000000604082015260600190565b6020808252600e908201527f5f6164643a206f766572666c6f77000000000000000000000000000000000000604082015260600190565b60208082526014908201527f7375623a2076616c756520746f6f20736d616c6c000000000000000000000000604082015260600190565b60208082526036908201527f746f46697865642875696e742c75696e74293a206e756d657261746f7220636160408201527f6e6e6f74206265206c657373207468616e207a65726f00000000000000000000606082015260800190565b60208082526014908201527f5f6469763a20646976696465206279207a65726f000000000000000000000000604082015260600190565b6020808252600e908201527f5f6469763a206f766572666c6f77000000000000000000000000000000000000604082015260600190565b73ffffffffffffffffffffffffffffffffffffffff811681146101dc57600080fdfea365627a7a7231582044bf21abdaac7d18af830b68affcd65d01d6bb295bff17542f56f38d19e1c3b76c6578706572696d656e74616cf564736f6c634300050d0040",
				"opcodes": "PUSH1 0x80 PUSH1 0x40 MSTORE PUSH2 0x218C DUP1 PUSH2 0x13 PUSH1 0x0 CODECOPY PUSH1 0x0 RETURN INVALID PUSH1 0x80 PUSH1 0x40 MSTORE CALLVALUE DUP1 ISZERO PUSH2 0x10 JUMPI PUSH1 0x0 DUP1 REVERT JUMPDEST POP PUSH1 0x4 CALLDATASIZE LT PUSH2 0x72 JUMPI PUSH1 0x0 CALLDATALOAD PUSH1 0xE0 SHR DUP1 PUSH4 0x9C8F9F23 GT PUSH2 0x50 JUMPI DUP1 PUSH4 0x9C8F9F23 EQ PUSH2 0x81 JUMPI DUP1 PUSH4 0xA5843F08 EQ PUSH2 0x9C JUMPI DUP1 PUSH4 0xDF791E50 EQ PUSH2 0xAF JUMPI PUSH2 0x72 JUMP JUMPDEST DUP1 PUSH4 0x40386CFD EQ PUSH2 0x77 JUMPI DUP1 PUSH4 0x51C6590A EQ PUSH2 0x81 JUMPI DUP1 PUSH4 0x978CA36F EQ PUSH2 0x94 JUMPI JUMPDEST PUSH1 0x0 DUP1 REVERT JUMPDEST PUSH2 0x7F PUSH2 0xC2 JUMP JUMPDEST STOP JUMPDEST PUSH2 0x7F PUSH2 0x8F CALLDATASIZE PUSH1 0x4 PUSH2 0x1D1C JUMP JUMPDEST PUSH2 0x1DC JUMP JUMPDEST PUSH2 0x7F PUSH2 0x1DF JUMP JUMPDEST PUSH2 0x7F PUSH2 0xAA CALLDATASIZE PUSH1 0x4 PUSH2 0x1D34 JUMP JUMPDEST PUSH2 0x240 JUMP JUMPDEST PUSH2 0x7F PUSH2 0xBD CALLDATASIZE PUSH1 0x4 PUSH2 0x1CDC JUMP JUMPDEST PUSH2 0x296 JUMP JUMPDEST PUSH1 0x0 DUP1 SLOAD PUSH32 0xFFFFFFFFFFFFFFFFFFFFFFFF0000000000000000000000000000000000000000 SWAP1 DUP2 AND PUSH1 0x1 SWAP1 DUP2 OR SWAP1 SWAP3 SSTORE DUP2 SLOAD AND PUSH1 0x2 OR SWAP1 SSTORE PUSH2 0x105 PUSH2 0xC350 PUSH2 0x650 JUMP JUMPDEST PUSH1 0x2 SSTORE PUSH2 0x114 PUSH3 0x186A0 PUSH2 0x650 JUMP JUMPDEST PUSH1 0x3 SSTORE PUSH2 0x121 PUSH1 0x1 PUSH2 0x650 JUMP JUMPDEST PUSH1 0x4 SSTORE PUSH1 0x63 PUSH1 0x5 DUP2 SWAP1 SSTORE PUSH2 0x136 SWAP1 PUSH1 0x64 PUSH2 0x6AC JUMP JUMPDEST PUSH1 0x6 SSTORE PUSH2 0x146 PUSH1 0x5 PUSH2 0x2710 PUSH2 0x6AC JUMP JUMPDEST PUSH1 0x7 SSTORE PUSH2 0x16E PUSH2 0x15A PUSH1 0x1 PUSH3 0xF4240 PUSH2 0x74D JUMP JUMPDEST PUSH2 0x162 PUSH2 0x76C JUMP JUMPDEST SWAP1 PUSH4 0xFFFFFFFF PUSH2 0x780 AND JUMP JUMPDEST PUSH1 0xB SSTORE PUSH2 0x17F PUSH2 0x2715 PUSH2 0x3E8 PUSH2 0x74D JUMP JUMPDEST PUSH1 0xC SSTORE PUSH1 0x0 SLOAD PUSH1 0x1 SLOAD PUSH2 0x1AE SWAP2 PUSH20 0xFFFFFFFFFFFFFFFFFFFFFFFFFFFFFFFFFFFFFFFF SWAP1 DUP2 AND SWAP2 AND PUSH2 0x2710 PUSH2 0x296 JUMP JUMPDEST PUSH1 0x1 SLOAD PUSH1 0x0 SLOAD PUSH2 0x1DA SWAP2 PUSH20 0xFFFFFFFFFFFFFFFFFFFFFFFFFFFFFFFFFFFFFFFF SWAP1 DUP2 AND SWAP2 AND PUSH2 0x2710 PUSH2 0x296 JUMP JUMPDEST JUMP JUMPDEST POP JUMP JUMPDEST PUSH1 0x0 DUP1 SLOAD PUSH32 0xFFFFFFFFFFFFFFFFFFFFFFFF0000000000000000000000000000000000000000 SWAP1 DUP2 AND PUSH1 0x1 SWAP1 DUP2 OR SWAP1 SWAP3 SSTORE DUP2 SLOAD AND PUSH1 0x2 OR SWAP1 SSTORE PUSH2 0x222 PUSH2 0xC350 PUSH2 0x650 JUMP JUMPDEST PUSH1 0x2 SSTORE PUSH2 0x231 PUSH3 0x186A0 PUSH2 0x650 JUMP JUMPDEST PUSH1 0x3 SSTORE PUSH2 0x121 PUSH1 0x65 PUSH1 0x64 PUSH2 0x6AC JUMP JUMPDEST DUP2 PUSH1 0x1 ADD DUP2 EQ PUSH2 0x285 JUMPI PUSH1 0x40 MLOAD PUSH32 0x8C379A000000000000000000000000000000000000000000000000000000000 DUP2 MSTORE PUSH1 0x4 ADD PUSH2 0x27C SWAP1 PUSH2 0x1DEA JUMP JUMPDEST PUSH1 0x40 MLOAD DUP1 SWAP2 SUB SWAP1 REVERT JUMPDEST PUSH2 0x28F DUP3 DUP3 PUSH2 0x6AC JUMP JUMPDEST PUSH1 0x6 SSTORE POP POP JUMP JUMPDEST PUSH2 0x29E PUSH2 0x1C4F JUMP JUMPDEST PUSH2 0x2A6 PUSH2 0x7E9 JUMP JUMPDEST SWAP1 POP PUSH1 0x0 PUSH2 0x2B3 DUP4 PUSH2 0x650 JUMP JUMPDEST DUP3 MLOAD SWAP1 SWAP2 POP PUSH1 0x0 SWAP1 DUP2 SWAP1 DUP2 SWAP1 DUP2 SWAP1 PUSH20 0xFFFFFFFFFFFFFFFFFFFFFFFFFFFFFFFFFFFFFFFF DUP11 DUP2 AND SWAP2 AND EQ DUP1 ISZERO PUSH2 0x317 JUMPI POP DUP6 PUSH1 0x20 ADD MLOAD PUSH20 0xFFFFFFFFFFFFFFFFFFFFFFFFFFFFFFFFFFFFFFFF AND DUP9 PUSH20 0xFFFFFFFFFFFFFFFFFFFFFFFFFFFFFFFFFFFFFFFF AND EQ JUMPDEST ISZERO PUSH2 0x336 JUMPI POP POP POP POP PUSH1 0x40 DUP3 ADD MLOAD PUSH1 0x60 DUP4 ADD MLOAD PUSH1 0x80 DUP5 ADD MLOAD PUSH1 0x1 PUSH2 0x3F6 JUMP JUMPDEST DUP6 PUSH1 0x20 ADD MLOAD PUSH20 0xFFFFFFFFFFFFFFFFFFFFFFFFFFFFFFFFFFFFFFFF AND DUP10 PUSH20 0xFFFFFFFFFFFFFFFFFFFFFFFFFFFFFFFFFFFFFFFF AND EQ DUP1 ISZERO PUSH2 0x38E JUMPI POP DUP6 MLOAD PUSH20 0xFFFFFFFFFFFFFFFFFFFFFFFFFFFFFFFFFFFFFFFF DUP10 DUP2 AND SWAP2 AND EQ JUMPDEST ISZERO PUSH2 0x3C4 JUMPI DUP6 PUSH1 0x60 ADD MLOAD SWAP4 POP DUP6 PUSH1 0x40 ADD MLOAD SWAP3 POP PUSH2 0x3BD DUP7 PUSH1 0x80 ADD MLOAD PUSH2 0x3B1 PUSH2 0x76C JUMP JUMPDEST SWAP1 PUSH4 0xFFFFFFFF PUSH2 0x87C AND JUMP JUMPDEST SWAP2 POP PUSH2 0x3F6 JUMP JUMPDEST PUSH1 0x40 MLOAD PUSH32 0x8C379A000000000000000000000000000000000000000000000000000000000 DUP2 MSTORE PUSH1 0x4 ADD PUSH2 0x27C SWAP1 PUSH2 0x1E58 JUMP JUMPDEST PUSH1 0x0 DUP1 PUSH2 0x406 DUP7 DUP7 DUP7 DUP11 DUP13 PUSH2 0x8A5 JUMP JUMPDEST SWAP2 POP SWAP2 POP PUSH1 0x0 PUSH2 0x43B PUSH2 0x41F DUP11 PUSH1 0xE0 ADD MLOAD PUSH2 0x162 PUSH2 0x76C JUMP JUMPDEST PUSH2 0x42F DUP11 DUP6 PUSH4 0xFFFFFFFF PUSH2 0x9AA AND JUMP JUMPDEST SWAP1 PUSH4 0xFFFFFFFF PUSH2 0x9AA AND JUMP JUMPDEST SWAP1 POP PUSH2 0x44E PUSH1 0x0 DUP3 PUSH4 0xFFFFFFFF PUSH2 0x780 AND JUMP JUMPDEST SWAP1 POP PUSH1 0x0 PUSH2 0x460 PUSH1 0x1 PUSH3 0x186A0 PUSH2 0x74D JUMP JUMPDEST SWAP1 POP PUSH1 0x0 DUP3 SGT ISZERO PUSH2 0x474 JUMPI PUSH1 0x0 SWAP2 POP PUSH2 0x49D JUMP JUMPDEST DUP1 PUSH2 0x485 DUP9 DUP5 PUSH4 0xFFFFFFFF PUSH2 0x9FD AND JUMP JUMPDEST SGT PUSH2 0x49D JUMPI PUSH2 0x49A DUP2 DUP9 PUSH4 0xFFFFFFFF PUSH2 0x780 AND JUMP JUMPDEST SWAP2 POP JUMPDEST PUSH1 0x0 PUSH2 0x4C1 DUP12 PUSH2 0x100 ADD MLOAD PUSH2 0x4B0 PUSH2 0xA09 JUMP JUMPDEST DUP14 PUSH2 0x140 ADD MLOAD DUP9 DUP16 PUSH1 0x80 ADD MLOAD PUSH2 0xA0F JUMP JUMPDEST PUSH2 0x160 DUP13 ADD MLOAD SWAP1 SWAP2 POP PUSH2 0x4DA SWAP1 DUP9 PUSH4 0xFFFFFFFF PUSH2 0x9AA AND JUMP JUMPDEST DUP2 SGT ISZERO PUSH2 0x4FE JUMPI PUSH2 0x160 DUP12 ADD MLOAD PUSH2 0x4F7 SWAP1 DUP9 PUSH4 0xFFFFFFFF PUSH2 0x9AA AND JUMP JUMPDEST SWAP1 POP PUSH2 0x532 JUMP JUMPDEST PUSH2 0x513 DUP8 PUSH2 0x42F DUP14 PUSH2 0x160 ADD MLOAD PUSH2 0x3B1 PUSH2 0x76C JUMP JUMPDEST DUP2 SLT ISZERO PUSH2 0x532 JUMPI PUSH2 0x52F DUP8 PUSH2 0x42F DUP14 PUSH2 0x160 ADD MLOAD PUSH2 0x3B1 PUSH2 0x76C JUMP JUMPDEST SWAP1 POP JUMPDEST PUSH32 0x2200C1C87D346032BC0D16306152CC3E6E4DFA6D004CE38EFA3F38F6F422D9E3 DUP5 DUP5 DUP4 DUP9 PUSH1 0x40 MLOAD PUSH2 0x567 SWAP5 SWAP4 SWAP3 SWAP2 SWAP1 PUSH2 0x1DAC JUMP JUMPDEST PUSH1 0x40 MLOAD DUP1 SWAP2 SUB SWAP1 LOG1 PUSH2 0x577 PUSH2 0xA09 JUMP JUMPDEST PUSH2 0x100 DUP13 ADD MSTORE DUP6 ISZERO PUSH2 0x5B9 JUMPI PUSH2 0x593 DUP10 DUP12 PUSH4 0xFFFFFFFF PUSH2 0x9FD AND JUMP JUMPDEST PUSH1 0x40 DUP13 ADD MSTORE PUSH2 0x5A8 DUP9 DUP5 PUSH4 0xFFFFFFFF PUSH2 0x9FD AND JUMP JUMPDEST PUSH1 0x60 DUP13 ADD MSTORE PUSH1 0x80 DUP12 ADD DUP2 SWAP1 MSTORE PUSH2 0x5F5 JUMP JUMPDEST PUSH2 0x5C9 DUP9 DUP5 PUSH4 0xFFFFFFFF PUSH2 0x9FD AND JUMP JUMPDEST PUSH1 0x40 DUP13 ADD MSTORE PUSH2 0x5DE DUP10 DUP12 PUSH4 0xFFFFFFFF PUSH2 0x9FD AND JUMP JUMPDEST PUSH1 0x60 DUP13 ADD MSTORE PUSH2 0x5EF DUP2 PUSH2 0x3B1 PUSH2 0x76C JUMP JUMPDEST PUSH1 0x80 DUP13 ADD MSTORE JUMPDEST PUSH2 0x5FE DUP12 PUSH2 0xAED JUMP JUMPDEST PUSH32 0x256DB8090FA51C3BAC981768637D5A7C46B5540644DCEF89052B89DBB2F6C8EA CALLER DUP16 DUP16 DUP14 DUP8 PUSH1 0x0 SUB PUSH1 0x40 MLOAD PUSH2 0x638 SWAP6 SWAP5 SWAP4 SWAP3 SWAP2 SWAP1 PUSH2 0x1D55 JUMP JUMPDEST PUSH1 0x40 MLOAD DUP1 SWAP2 SUB SWAP1 LOG1 POP POP POP POP POP POP POP POP POP POP POP POP POP POP JUMP JUMPDEST PUSH1 0x0 DUP1 DUP3 SLT ISZERO PUSH2 0x68C JUMPI PUSH1 0x40 MLOAD PUSH32 0x8C379A000000000000000000000000000000000000000000000000000000000 DUP2 MSTORE PUSH1 0x4 ADD PUSH2 0x27C SWAP1 PUSH2 0x1F23 JUMP JUMPDEST PUSH2 0x6A6 DUP3 PUSH16 0x80000000000000000000000000000000 PUSH2 0xB9A JUMP JUMPDEST SWAP3 SWAP2 POP POP JUMP JUMPDEST PUSH1 0x0 DUP1 DUP4 SLT ISZERO PUSH2 0x6E8 JUMPI PUSH1 0x40 MLOAD PUSH32 0x8C379A000000000000000000000000000000000000000000000000000000000 DUP2 MSTORE PUSH1 0x4 ADD PUSH2 0x27C SWAP1 PUSH2 0x205C JUMP JUMPDEST PUSH1 0x0 DUP3 SLT ISZERO PUSH2 0x723 JUMPI PUSH1 0x40 MLOAD PUSH32 0x8C379A000000000000000000000000000000000000000000000000000000000 DUP2 MSTORE PUSH1 0x4 ADD PUSH2 0x27C SWAP1 PUSH2 0x1E8F JUMP JUMPDEST PUSH2 0x746 PUSH2 0x740 DUP5 PUSH16 0x80000000000000000000000000000000 PUSH2 0xB9A JUMP JUMPDEST DUP4 PUSH2 0xC10 JUMP JUMPDEST SWAP4 SWAP3 POP POP POP JUMP JUMPDEST PUSH1 0x0 PUSH2 0x746 PUSH2 0x740 DUP5 PUSH16 0x80000000000000000000000000000000 PUSH2 0xB9A JUMP JUMPDEST PUSH16 0x80000000000000000000000000000000 SWAP1 JUMP JUMPDEST PUSH1 0x0 PUSH32 0x8000000000000000000000000000000000000000000000000000000000000000 DUP3 EQ ISZERO PUSH2 0x7DC JUMPI PUSH1 0x40 MLOAD PUSH32 0x8C379A000000000000000000000000000000000000000000000000000000000 DUP2 MSTORE PUSH1 0x4 ADD PUSH2 0x27C SWAP1 PUSH2 0x2025 JUMP JUMPDEST PUSH2 0x746 DUP4 DUP4 PUSH1 0x0 SUB PUSH2 0xCDF JUMP JUMPDEST PUSH2 0x7F1 PUSH2 0x1C4F JUMP JUMPDEST POP PUSH1 0x40 DUP1 MLOAD PUSH2 0x180 DUP2 ADD DUP3 MSTORE PUSH1 0x0 SLOAD PUSH20 0xFFFFFFFFFFFFFFFFFFFFFFFFFFFFFFFFFFFFFFFF SWAP1 DUP2 AND DUP3 MSTORE PUSH1 0x1 SLOAD AND PUSH1 0x20 DUP3 ADD MSTORE PUSH1 0x2 SLOAD SWAP2 DUP2 ADD SWAP2 SWAP1 SWAP2 MSTORE PUSH1 0x3 SLOAD PUSH1 0x60 DUP3 ADD MSTORE PUSH1 0x4 SLOAD PUSH1 0x80 DUP3 ADD MSTORE PUSH1 0x5 SLOAD PUSH1 0xA0 DUP3 ADD MSTORE PUSH1 0x6 SLOAD PUSH1 0xC0 DUP3 ADD MSTORE PUSH1 0x7 SLOAD PUSH1 0xE0 DUP3 ADD MSTORE PUSH1 0x8 SLOAD PUSH2 0x100 DUP3 ADD MSTORE PUSH1 0xA SLOAD PUSH2 0x120 DUP3 ADD MSTORE PUSH1 0xB SLOAD PUSH2 0x140 DUP3 ADD MSTORE PUSH1 0xC SLOAD PUSH2 0x160 DUP3 ADD MSTORE SWAP1 JUMP JUMPDEST PUSH1 0x0 PUSH2 0x896 PUSH2 0x740 DUP5 PUSH11 0x8000000000000000000000 PUSH2 0xB9A JUMP JUMPDEST PUSH6 0x10000000000 MUL SWAP4 SWAP3 POP POP POP JUMP JUMPDEST PUSH1 0x0 DUP1 PUSH2 0x8B8 DUP8 DUP8 DUP8 DUP7 PUSH1 0xC0 ADD MLOAD PUSH2 0xD55 JUMP JUMPDEST SWAP2 POP PUSH1 0x0 DUP3 DUP2 PUSH2 0x8CE DUP11 DUP9 PUSH4 0xFFFFFFFF PUSH2 0x9FD AND JUMP JUMPDEST SWAP1 POP PUSH1 0x0 JUMPDEST PUSH1 0x14 DUP2 LT ISZERO PUSH2 0x99A JUMPI PUSH1 0x0 PUSH2 0x8E8 DUP6 DUP6 PUSH2 0xE4E JUMP JUMPDEST SWAP1 POP PUSH1 0x0 PUSH2 0x904 PUSH2 0x8FF DUP4 DUP14 PUSH4 0xFFFFFFFF PUSH2 0x87C AND JUMP JUMPDEST PUSH2 0xE76 JUMP JUMPDEST SWAP1 POP PUSH1 0x0 PUSH2 0x93B PUSH2 0x91B DUP13 DUP6 PUSH4 0xFFFFFFFF PUSH2 0x9AA AND JUMP JUMPDEST PUSH2 0x92F DUP6 PUSH2 0x42F DUP10 DUP8 PUSH4 0xFFFFFFFF PUSH2 0x9AA AND JUMP JUMPDEST SWAP1 PUSH4 0xFFFFFFFF PUSH2 0x9FD AND JUMP JUMPDEST SWAP1 POP PUSH32 0x4ADD19BBBE358CAF4AF4A31B1299356FC4DCCF8B4CF3C87E401B0FA60062F31E DUP3 DUP5 DUP4 PUSH1 0x40 MLOAD PUSH2 0x970 SWAP4 SWAP3 SWAP2 SWAP1 PUSH2 0x1D96 JUMP JUMPDEST PUSH1 0x40 MLOAD DUP1 SWAP2 SUB SWAP1 LOG1 DUP13 DUP2 SGT ISZERO PUSH2 0x988 JUMPI DUP3 SWAP6 POP PUSH2 0x98C JUMP JUMPDEST DUP3 SWAP7 POP JUMPDEST POP POP POP DUP1 PUSH1 0x1 ADD SWAP1 POP PUSH2 0x8D3 JUMP JUMPDEST POP SWAP2 SWAP3 POP POP POP SWAP6 POP SWAP6 SWAP4 POP POP POP POP JUMP JUMPDEST PUSH1 0x0 PUSH16 0x80000000000000000000000000000000 DUP3 ISZERO PUSH2 0x9DC JUMPI POP PUSH6 0x10000000000 SWAP1 SWAP2 SDIV SWAP1 PUSH11 0x8000000000000000000000 JUMPDEST PUSH1 0x0 PUSH2 0x9E8 DUP6 DUP6 PUSH2 0xB9A JUMP JUMPDEST SWAP1 POP DUP2 DUP2 DUP2 PUSH2 0x9F3 JUMPI INVALID JUMPDEST SDIV SWAP6 SWAP5 POP POP POP POP POP JUMP JUMPDEST PUSH1 0x0 PUSH2 0x746 DUP4 DUP4 PUSH2 0xCDF JUMP JUMPDEST PUSH2 0x23A SWAP1 JUMP JUMPDEST PUSH1 0x0 DUP1 PUSH2 0xA1D DUP8 DUP8 SUB PUSH2 0x650 JUMP JUMPDEST SWAP1 POP PUSH1 0x0 PUSH2 0xA42 PUSH2 0xA3D PUSH2 0xA30 DUP9 PUSH2 0xF25 JUMP JUMPDEST DUP5 SWAP1 PUSH4 0xFFFFFFFF PUSH2 0x9AA AND JUMP JUMPDEST PUSH2 0x160F JUMP JUMPDEST SWAP1 POP PUSH1 0x0 PUSH2 0xA52 DUP3 PUSH2 0x162 PUSH2 0x76C JUMP JUMPDEST SWAP1 POP PUSH1 0x0 PUSH2 0xA66 DUP8 DUP4 PUSH4 0xFFFFFFFF PUSH2 0x9AA AND JUMP JUMPDEST SWAP1 POP PUSH1 0x0 PUSH2 0xA7A DUP8 DUP6 PUSH4 0xFFFFFFFF PUSH2 0x9AA AND JUMP JUMPDEST SWAP1 POP PUSH1 0x0 PUSH2 0xAA6 PUSH2 0xA91 DUP6 DUP12 PUSH4 0xFFFFFFFF PUSH2 0x87C AND JUMP JUMPDEST PUSH2 0xAA1 DUP8 DUP12 PUSH4 0xFFFFFFFF PUSH2 0x87C AND JUMP JUMPDEST PUSH2 0x9FD JUMP JUMPDEST SWAP1 POP PUSH1 0x0 PUSH2 0xAB6 DUP3 PUSH2 0x3B1 PUSH2 0x76C JUMP JUMPDEST SWAP1 POP PUSH1 0x0 PUSH2 0xADB PUSH2 0xAC7 PUSH1 0x2 PUSH2 0x1C1D JUMP JUMPDEST PUSH2 0x3B1 DUP5 PUSH2 0x92F DUP10 DUP10 PUSH4 0xFFFFFFFF PUSH2 0x9FD AND JUMP JUMPDEST SWAP15 SWAP14 POP POP POP POP POP POP POP POP POP POP POP POP POP POP JUMP JUMPDEST DUP1 MLOAD PUSH1 0x0 DUP1 SLOAD PUSH20 0xFFFFFFFFFFFFFFFFFFFFFFFFFFFFFFFFFFFFFFFF SWAP3 DUP4 AND PUSH32 0xFFFFFFFFFFFFFFFFFFFFFFFF0000000000000000000000000000000000000000 SWAP2 DUP3 AND OR SWAP1 SWAP2 SSTORE PUSH1 0x20 DUP4 ADD MLOAD PUSH1 0x1 DUP1 SLOAD SWAP2 SWAP1 SWAP4 AND SWAP2 AND OR SWAP1 SSTORE PUSH1 0x40 DUP2 ADD MLOAD PUSH1 0x2 SSTORE PUSH1 0x60 DUP2 ADD MLOAD PUSH1 0x3 SSTORE PUSH1 0x80 DUP2 ADD MLOAD PUSH1 0x4 SSTORE PUSH1 0xA0 DUP2 ADD MLOAD PUSH1 0x5 SSTORE PUSH1 0xC0 DUP2 ADD MLOAD PUSH1 0x6 SSTORE PUSH1 0xE0 DUP2 ADD MLOAD PUSH1 0x7 SSTORE PUSH2 0x100 DUP2 ADD MLOAD PUSH1 0x8 SSTORE PUSH2 0x120 DUP2 ADD MLOAD PUSH1 0xA SSTORE PUSH2 0x140 DUP2 ADD MLOAD PUSH1 0xB SSTORE PUSH2 0x160 ADD MLOAD PUSH1 0xC SSTORE JUMP JUMPDEST PUSH1 0x0 DUP3 ISZERO DUP1 PUSH2 0xBA7 JUMPI POP DUP2 ISZERO JUMPDEST ISZERO PUSH2 0xBB4 JUMPI POP PUSH1 0x0 PUSH2 0x6A6 JUMP JUMPDEST POP DUP2 DUP2 MUL DUP2 DUP4 DUP3 DUP2 PUSH2 0xBC2 JUMPI INVALID JUMPDEST SDIV EQ ISZERO DUP1 PUSH2 0xBD9 JUMPI POP DUP3 DUP3 DUP3 DUP2 PUSH2 0xBD5 JUMPI INVALID JUMPDEST SDIV EQ ISZERO JUMPDEST ISZERO PUSH2 0x6A6 JUMPI PUSH1 0x40 MLOAD PUSH32 0x8C379A000000000000000000000000000000000000000000000000000000000 DUP2 MSTORE PUSH1 0x4 ADD PUSH2 0x27C SWAP1 PUSH2 0x1FB7 JUMP JUMPDEST PUSH1 0x0 DUP2 PUSH2 0xC49 JUMPI PUSH1 0x40 MLOAD PUSH32 0x8C379A000000000000000000000000000000000000000000000000000000000 DUP2 MSTORE PUSH1 0x4 ADD PUSH2 0x27C SWAP1 PUSH2 0x20B9 JUMP JUMPDEST PUSH32 0x8000000000000000000000000000000000000000000000000000000000000000 DUP4 EQ DUP1 ISZERO PUSH2 0xC97 JUMPI POP DUP2 PUSH32 0xFFFFFFFFFFFFFFFFFFFFFFFFFFFFFFFFFFFFFFFFFFFFFFFFFFFFFFFFFFFFFFFF EQ JUMPDEST ISZERO PUSH2 0xCCE JUMPI PUSH1 0x40 MLOAD PUSH32 0x8C379A000000000000000000000000000000000000000000000000000000000 DUP2 MSTORE PUSH1 0x4 ADD PUSH2 0x27C SWAP1 PUSH2 0x20F0 JUMP JUMPDEST DUP2 DUP4 DUP2 PUSH2 0xCD7 JUMPI INVALID JUMPDEST SDIV SWAP4 SWAP3 POP POP POP JUMP JUMPDEST DUP2 DUP2 ADD PUSH1 0x0 DUP4 SLT DUP1 ISZERO PUSH2 0xCF2 JUMPI POP PUSH1 0x0 DUP3 SLT JUMPDEST DUP1 ISZERO PUSH2 0xCFD JUMPI POP DUP3 DUP2 SGT JUMPDEST DUP1 PUSH2 0xD1E JUMPI POP PUSH1 0x0 DUP4 SGT DUP1 ISZERO PUSH2 0xD13 JUMPI POP PUSH1 0x0 DUP3 SGT JUMPDEST DUP1 ISZERO PUSH2 0xD1E JUMPI POP DUP3 DUP2 SLT JUMPDEST ISZERO PUSH2 0x6A6 JUMPI PUSH1 0x40 MLOAD PUSH32 0x8C379A000000000000000000000000000000000000000000000000000000000 DUP2 MSTORE PUSH1 0x4 ADD PUSH2 0x27C SWAP1 PUSH2 0x1FEE JUMP JUMPDEST PUSH1 0x0 DUP1 PUSH2 0xD68 DUP5 DUP8 PUSH4 0xFFFFFFFF PUSH2 0x9AA AND JUMP JUMPDEST SWAP1 POP PUSH1 0x0 PUSH2 0xD7C DUP7 DUP4 PUSH4 0xFFFFFFFF PUSH2 0x87C AND JUMP JUMPDEST SWAP1 POP PUSH1 0x0 PUSH2 0xD90 DUP4 DUP9 PUSH4 0xFFFFFFFF PUSH2 0x87C AND JUMP JUMPDEST SWAP1 POP PUSH1 0x0 PUSH2 0xDA0 DUP7 PUSH2 0x162 PUSH2 0x76C JUMP JUMPDEST SWAP1 POP PUSH1 0x0 PUSH2 0xDAC PUSH2 0x76C JUMP JUMPDEST DUP5 SLT ISZERO PUSH2 0xDCA JUMPI PUSH2 0xDC3 PUSH2 0xA3D DUP4 PUSH2 0x42F DUP8 PUSH2 0xF25 JUMP JUMPDEST SWAP1 POP PUSH2 0xDE8 JUMP JUMPDEST PUSH2 0xDE5 PUSH2 0xDDD PUSH2 0xA3D DUP5 PUSH2 0x42F DUP8 PUSH2 0xF25 JUMP JUMPDEST PUSH2 0x3B1 PUSH2 0x76C JUMP JUMPDEST SWAP1 POP JUMPDEST PUSH2 0xDF8 DUP2 DUP10 PUSH4 0xFFFFFFFF PUSH2 0x9AA AND JUMP JUMPDEST SWAP6 POP PUSH32 0x3CF9BD989028BFC957CA46FD34C8ED26F90D849442378EE442FCD56CF5CAC44F DUP11 DUP11 DUP11 DUP11 PUSH2 0xE28 DUP12 PUSH2 0x1C39 JUMP JUMPDEST PUSH1 0x40 MLOAD PUSH2 0xE39 SWAP6 SWAP5 SWAP4 SWAP3 SWAP2 SWAP1 PUSH2 0x1DC7 JUMP JUMPDEST PUSH1 0x40 MLOAD DUP1 SWAP2 SUB SWAP1 LOG1 POP POP POP POP POP SWAP5 SWAP4 POP POP POP POP JUMP JUMPDEST PUSH1 0x0 PUSH2 0x746 PUSH2 0xE66 PUSH2 0xE5E PUSH2 0x76C JUMP JUMPDEST PUSH2 0x92F PUSH2 0x76C JUMP JUMPDEST PUSH2 0x3B1 DUP6 DUP6 PUSH4 0xFFFFFFFF PUSH2 0x9FD AND JUMP JUMPDEST PUSH1 0x0 DUP1 PUSH2 0xE89 DUP4 DUP1 PUSH4 0xFFFFFFFF PUSH2 0x9AA AND JUMP JUMPDEST SWAP1 POP PUSH1 0x0 PUSH2 0xE9D DUP5 DUP4 PUSH4 0xFFFFFFFF PUSH2 0x9AA AND JUMP JUMPDEST SWAP1 POP PUSH1 0x0 PUSH2 0xEB1 DUP3 DUP1 PUSH4 0xFFFFFFFF PUSH2 0x9AA AND JUMP JUMPDEST SWAP1 POP PUSH1 0x0 PUSH2 0xEC5 DUP3 DUP1 PUSH4 0xFFFFFFFF PUSH2 0x9AA AND JUMP JUMPDEST SWAP1 POP PUSH1 0x0 PUSH2 0xED9 DUP3 DUP1 PUSH4 0xFFFFFFFF PUSH2 0x9AA AND JUMP JUMPDEST SWAP1 POP PUSH1 0x0 PUSH2 0xEED DUP3 DUP1 PUSH4 0xFFFFFFFF PUSH2 0x9AA AND JUMP JUMPDEST SWAP1 POP PUSH1 0x0 PUSH2 0xF01 DUP3 DUP1 PUSH4 0xFFFFFFFF PUSH2 0x9AA AND JUMP JUMPDEST SWAP1 POP PUSH1 0x0 PUSH2 0xF15 DUP3 DUP9 PUSH4 0xFFFFFFFF PUSH2 0x9AA AND JUMP JUMPDEST SWAP9 POP POP POP POP POP POP POP POP POP JUMPDEST SWAP2 SWAP1 POP JUMP JUMPDEST PUSH1 0x0 PUSH16 0x80000000000000000000000000000000 DUP3 SGT ISZERO PUSH2 0xF71 JUMPI PUSH1 0x40 MLOAD PUSH32 0x8C379A000000000000000000000000000000000000000000000000000000000 DUP2 MSTORE PUSH1 0x4 ADD PUSH2 0x27C SWAP1 PUSH2 0x1EEC JUMP JUMPDEST PUSH1 0x0 DUP3 SGT PUSH2 0xFAB JUMPI PUSH1 0x40 MLOAD PUSH32 0x8C379A000000000000000000000000000000000000000000000000000000000 DUP2 MSTORE PUSH1 0x4 ADD PUSH2 0x27C SWAP1 PUSH2 0x1E21 JUMP JUMPDEST PUSH16 0x80000000000000000000000000000000 DUP3 EQ ISZERO PUSH2 0xFCB JUMPI POP PUSH1 0x0 PUSH2 0xF20 JUMP JUMPDEST PUSH5 0x733048C5A DUP3 SGT PUSH2 0xFFE JUMPI POP PUSH32 0xFFFFFFFFFFFFFFFFFFFFFFFFFFFFFFE010000000000000000000000000000000 PUSH2 0xF20 JUMP JUMPDEST PUSH1 0x0 DUP1 PUSH1 0x0 PUSH11 0x1C8464F76164760000000 DUP6 SGT PUSH2 0x105D JUMPI PUSH32 0xFFFFFFFFFFFFFFFFFFFFFFFFFFFFFFF000000000000000000000000000000000 SWAP1 SWAP4 ADD SWAP3 PUSH11 0x1C8464F76164760000000 PUSH16 0x80000000000000000000000000000000 DUP7 MUL SDIV SWAP5 POP JUMPDEST PUSH13 0xF1AADDD7742E90000000000000 DUP6 SGT PUSH2 0x10BB JUMPI PUSH32 0xFFFFFFFFFFFFFFFFFFFFFFFFFFFFFFF800000000000000000000000000000000 SWAP1 SWAP4 ADD SWAP3 PUSH13 0xF1AADDD7742E90000000000000 PUSH16 0x80000000000000000000000000000000 DUP7 MUL SDIV SWAP5 POP JUMPDEST PUSH15 0xAFE10820813D78000000000000000 DUP6 SGT PUSH2 0x111D JUMPI PUSH32 0xFFFFFFFFFFFFFFFFFFFFFFFFFFFFFFFC00000000000000000000000000000000 SWAP1 SWAP4 ADD SWAP3 PUSH15 0xAFE10820813D78000000000000000 PUSH16 0x80000000000000000000000000000000 DUP7 MUL SDIV SWAP5 POP JUMPDEST PUSH16 0x2582AB704279EC00000000000000000 DUP6 SGT PUSH2 0x1181 JUMPI PUSH32 0xFFFFFFFFFFFFFFFFFFFFFFFFFFFFFFFE00000000000000000000000000000000 SWAP1 SWAP4 ADD SWAP3 PUSH16 0x2582AB704279EC00000000000000000 PUSH16 0x80000000000000000000000000000000 DUP7 MUL SDIV SWAP5 POP JUMPDEST PUSH16 0x1152AAA3BF81CC000000000000000000 DUP6 SGT PUSH2 0x11E5 JUMPI PUSH32 0xFFFFFFFFFFFFFFFFFFFFFFFFFFFFFFFF00000000000000000000000000000000 SWAP1 SWAP4 ADD SWAP3 PUSH16 0x1152AAA3BF81CC000000000000000000 PUSH16 0x80000000000000000000000000000000 DUP7 MUL SDIV SWAP5 POP JUMPDEST PUSH16 0x2F16AC6C59DE70000000000000000000 DUP6 SGT PUSH2 0x1249 JUMPI PUSH32 0xFFFFFFFFFFFFFFFFFFFFFFFFFFFFFFFF80000000000000000000000000000000 SWAP1 SWAP4 ADD SWAP3 PUSH16 0x2F16AC6C59DE70000000000000000000 PUSH16 0x80000000000000000000000000000000 DUP7 MUL SDIV SWAP5 POP JUMPDEST PUSH16 0x4DA2CBF1BE5828000000000000000000 DUP6 SGT PUSH2 0x12AD JUMPI PUSH32 0xFFFFFFFFFFFFFFFFFFFFFFFFFFFFFFFFC0000000000000000000000000000000 SWAP1 SWAP4 ADD SWAP3 PUSH16 0x4DA2CBF1BE5828000000000000000000 PUSH16 0x80000000000000000000000000000000 DUP7 MUL SDIV SWAP5 POP JUMPDEST PUSH16 0x63AFBE7AB2082C000000000000000000 DUP6 SGT PUSH2 0x1311 JUMPI PUSH32 0xFFFFFFFFFFFFFFFFFFFFFFFFFFFFFFFFE0000000000000000000000000000000 SWAP1 SWAP4 ADD SWAP3 PUSH16 0x63AFBE7AB2082C000000000000000000 PUSH16 0x80000000000000000000000000000000 DUP7 MUL SDIV SWAP5 POP JUMPDEST PUSH16 0x70F5A893B608861E1F58934F97AEA57D DUP6 SGT PUSH2 0x1375 JUMPI PUSH32 0xFFFFFFFFFFFFFFFFFFFFFFFFFFFFFFFFF0000000000000000000000000000000 SWAP1 SWAP4 ADD SWAP3 PUSH16 0x70F5A893B608861E1F58934F97AEA57D PUSH16 0x80000000000000000000000000000000 DUP7 MUL SDIV SWAP5 POP JUMPDEST PUSH32 0xFFFFFFFFFFFFFFFFFFFFFFFFFFFFFFFF80000000000000000000000000000000 DUP6 ADD SWAP3 POP DUP3 SWAP2 POP PUSH16 0x80000000000000000000000000000000 DUP3 DUP1 MUL SDIV SWAP1 POP PUSH17 0x100000000000000000000000000000000 DUP4 DUP2 SUB DUP4 MUL SDIV DUP5 ADD SWAP4 POP PUSH16 0x80000000000000000000000000000000 DUP2 DUP4 MUL DUP2 PUSH2 0x13EB JUMPI INVALID JUMPDEST SDIV SWAP2 POP PUSH17 0x200000000000000000000000000000000 DUP4 PUSH16 0xAAAAAAAAAAAAAAAAAAAAAAAAAAAAAAAA SUB DUP4 MUL DUP2 PUSH2 0x141C JUMPI INVALID JUMPDEST SDIV DUP5 ADD SWAP4 POP PUSH16 0x80000000000000000000000000000000 DUP2 DUP4 MUL DUP2 PUSH2 0x143C JUMPI INVALID JUMPDEST SDIV SWAP2 POP PUSH17 0x300000000000000000000000000000000 DUP4 PUSH16 0x99999999999999999999999999999999 SUB DUP4 MUL DUP2 PUSH2 0x146D JUMPI INVALID JUMPDEST SDIV DUP5 ADD SWAP4 POP PUSH16 0x80000000000000000000000000000000 DUP2 DUP4 MUL DUP2 PUSH2 0x148D JUMPI INVALID JUMPDEST SDIV SWAP2 POP PUSH17 0x400000000000000000000000000000000 DUP4 PUSH16 0x92492492492492492492492492492492 SUB DUP4 MUL DUP2 PUSH2 0x14BE JUMPI INVALID JUMPDEST SDIV DUP5 ADD SWAP4 POP PUSH16 0x80000000000000000000000000000000 DUP2 DUP4 MUL DUP2 PUSH2 0x14DE JUMPI INVALID JUMPDEST SDIV SWAP2 POP PUSH17 0x500000000000000000000000000000000 DUP4 PUSH16 0x8E38E38E38E38E38E38E38E38E38E38E SUB DUP4 MUL DUP2 PUSH2 0x150F JUMPI INVALID JUMPDEST SDIV DUP5 ADD SWAP4 POP PUSH16 0x80000000000000000000000000000000 DUP2 DUP4 MUL DUP2 PUSH2 0x152F JUMPI INVALID JUMPDEST SDIV SWAP2 POP PUSH17 0x600000000000000000000000000000000 DUP4 PUSH16 0x8BA2E8BA2E8BA2E8BA2E8BA2E8BA2E8B SUB DUP4 MUL DUP2 PUSH2 0x1560 JUMPI INVALID JUMPDEST SDIV DUP5 ADD SWAP4 POP PUSH16 0x80000000000000000000000000000000 DUP2 DUP4 MUL DUP2 PUSH2 0x1580 JUMPI INVALID JUMPDEST SDIV SWAP2 POP PUSH17 0x700000000000000000000000000000000 DUP4 PUSH16 0x89D89D89D89D89D89D89D89D89D89D89 SUB DUP4 MUL DUP2 PUSH2 0x15B1 JUMPI INVALID JUMPDEST SDIV DUP5 ADD SWAP4 POP PUSH16 0x80000000000000000000000000000000 DUP2 DUP4 MUL DUP2 PUSH2 0x15D1 JUMPI INVALID JUMPDEST SDIV SWAP2 POP PUSH17 0x800000000000000000000000000000000 DUP4 PUSH16 0x88888888888888888888888888888888 SUB DUP4 MUL DUP2 PUSH2 0x1602 JUMPI INVALID JUMPDEST SDIV DUP5 ADD SWAP4 POP POP POP POP SWAP2 SWAP1 POP JUMP JUMPDEST PUSH1 0x0 PUSH32 0xFFFFFFFFFFFFFFFFFFFFFFFFFFFFFFE010000000000000000000000000000000 DUP3 SLT ISZERO PUSH2 0x1641 JUMPI POP PUSH1 0x0 PUSH2 0xF20 JUMP JUMPDEST DUP2 PUSH2 0x165D JUMPI POP PUSH16 0x80000000000000000000000000000000 PUSH2 0xF20 JUMP JUMPDEST PUSH1 0x0 DUP3 SGT ISZERO PUSH2 0x1698 JUMPI PUSH1 0x40 MLOAD PUSH32 0x8C379A000000000000000000000000000000000000000000000000000000000 DUP2 MSTORE PUSH1 0x4 ADD PUSH2 0x27C SWAP1 PUSH2 0x1F80 JUMP JUMPDEST PUSH16 0x80000000000000000000000000000000 PUSH16 0x10000000000000000000000000000000 DUP4 SMOD DUP1 DUP1 MUL DUP3 SWAP1 SDIV PUSH8 0x10E1B3BE415A0000 DUP2 MUL SWAP4 SWAP1 SWAP4 ADD SWAP3 SWAP1 SWAP2 DUP2 DUP4 MUL SDIV SWAP1 POP DUP1 PUSH8 0x5A0913F6B1E0000 MUL DUP4 ADD SWAP3 POP PUSH16 0x80000000000000000000000000000000 DUP3 DUP3 MUL DUP2 PUSH2 0x1704 JUMPI INVALID JUMPDEST SDIV SWAP1 POP DUP1 PUSH8 0x168244FDAC78000 MUL DUP4 ADD SWAP3 POP PUSH16 0x80000000000000000000000000000000 DUP3 DUP3 MUL DUP2 PUSH2 0x1731 JUMPI INVALID JUMPDEST SDIV SWAP1 POP DUP1 PUSH7 0x4807432BC18000 MUL DUP4 ADD SWAP3 POP PUSH16 0x80000000000000000000000000000000 DUP3 DUP3 MUL DUP2 PUSH2 0x175D JUMPI INVALID JUMPDEST SDIV SWAP1 POP DUP1 PUSH7 0xC0135DCA04000 MUL DUP4 ADD SWAP3 POP PUSH16 0x80000000000000000000000000000000 DUP3 DUP3 MUL DUP2 PUSH2 0x1789 JUMPI INVALID JUMPDEST SDIV SWAP1 POP DUP1 PUSH7 0x1B707B1CDC000 MUL DUP4 ADD SWAP3 POP PUSH16 0x80000000000000000000000000000000 DUP3 DUP3 MUL DUP2 PUSH2 0x17B5 JUMPI INVALID JUMPDEST SDIV SWAP1 POP DUP1 PUSH6 0x36E0F639B800 MUL DUP4 ADD SWAP3 POP PUSH16 0x80000000000000000000000000000000 DUP3 DUP3 MUL DUP2 PUSH2 0x17E0 JUMPI INVALID JUMPDEST SDIV SWAP1 POP DUP1 PUSH6 0x618FEE9F800 MUL DUP4 ADD SWAP3 POP PUSH16 0x80000000000000000000000000000000 DUP3 DUP3 MUL DUP2 PUSH2 0x180B JUMPI INVALID JUMPDEST SDIV SWAP1 POP DUP1 PUSH5 0x9C197DCC00 MUL DUP4 ADD SWAP3 POP PUSH16 0x80000000000000000000000000000000 DUP3 DUP3 MUL DUP2 PUSH2 0x1835 JUMPI INVALID JUMPDEST SDIV SWAP1 POP DUP1 PUSH5 0xE30DCE400 MUL DUP4 ADD SWAP3 POP PUSH16 0x80000000000000000000000000000000 DUP3 DUP3 MUL DUP2 PUSH2 0x185F JUMPI INVALID JUMPDEST SDIV SWAP1 POP DUP1 PUSH5 0x12EBD1300 MUL DUP4 ADD SWAP3 POP PUSH16 0x80000000000000000000000000000000 DUP3 DUP3 MUL DUP2 PUSH2 0x1889 JUMPI INVALID JUMPDEST SDIV SWAP1 POP DUP1 PUSH4 0x17499F00 MUL DUP4 ADD SWAP3 POP PUSH16 0x80000000000000000000000000000000 DUP3 DUP3 MUL DUP2 PUSH2 0x18B2 JUMPI INVALID JUMPDEST SDIV SWAP1 POP DUP1 PUSH4 0x1A9D480 MUL DUP4 ADD SWAP3 POP PUSH16 0x80000000000000000000000000000000 DUP3 DUP3 MUL DUP2 PUSH2 0x18DB JUMPI INVALID JUMPDEST SDIV SWAP1 POP DUP1 PUSH3 0x1C6380 MUL DUP4 ADD SWAP3 POP PUSH16 0x80000000000000000000000000000000 DUP3 DUP3 MUL DUP2 PUSH2 0x1903 JUMPI INVALID JUMPDEST SDIV SWAP1 POP DUP1 PUSH3 0x1C638 MUL DUP4 ADD SWAP3 POP PUSH16 0x80000000000000000000000000000000 DUP3 DUP3 MUL DUP2 PUSH2 0x192B JUMPI INVALID JUMPDEST SDIV SWAP1 POP DUP1 PUSH2 0x1AB8 MUL DUP4 ADD SWAP3 POP PUSH16 0x80000000000000000000000000000000 DUP3 DUP3 MUL DUP2 PUSH2 0x1952 JUMPI INVALID JUMPDEST SDIV SWAP1 POP DUP1 PUSH2 0x17C MUL DUP4 ADD SWAP3 POP PUSH16 0x80000000000000000000000000000000 DUP3 DUP3 MUL DUP2 PUSH2 0x1979 JUMPI INVALID JUMPDEST SDIV SWAP1 POP DUP1 PUSH1 0x14 MUL DUP4 ADD SWAP3 POP PUSH16 0x80000000000000000000000000000000 DUP3 DUP3 MUL DUP2 PUSH2 0x199F JUMPI INVALID JUMPDEST PUSH1 0x0 SWAP6 SWAP1 SWAP6 SUB SWAP5 PUSH8 0x21C3677C82B40000 SWAP2 SWAP1 SDIV SWAP4 DUP5 ADD SDIV DUP3 ADD PUSH16 0x80000000000000000000000000000000 ADD SWAP3 SWAP1 POP PUSH17 0x1000000000000000000000000000000000 DUP5 AND ISZERO PUSH2 0x1A0E JUMPI PUSH19 0x43CBAF42A000812488FC5C220AD7B97BF6E99E PUSH13 0xF1AADDD7742E56D32FB9F99744 DUP5 MUL SDIV SWAP3 POP JUMPDEST PUSH17 0x800000000000000000000000000000000 DUP5 AND ISZERO PUSH2 0x1A50 JUMPI PUSH18 0x5D27A9F51C31B7C2F8038212A0574779991 PUSH15 0xAFE10820813D65DFE6A33C07F738F DUP5 MUL SDIV SWAP3 POP JUMPDEST PUSH17 0x400000000000000000000000000000000 DUP5 AND ISZERO PUSH2 0x1A92 JUMPI PUSH17 0x1B4C902E273A58678D6D3BFDB93DB96D02 PUSH16 0x2582AB704279E8EFD15E0265855C47A DUP5 MUL SDIV SWAP3 POP JUMPDEST PUSH17 0x200000000000000000000000000000000 DUP5 AND ISZERO PUSH2 0x1AD4 JUMPI PUSH17 0x3B1CC971A9BB5B9867477440D6D157750 PUSH16 0x1152AAA3BF81CB9FDB76EAE12D029571 DUP5 MUL SDIV SWAP3 POP JUMPDEST PUSH17 0x100000000000000000000000000000000 DUP5 AND ISZERO PUSH2 0x1B16 JUMPI PUSH17 0x15BF0A8B1457695355FB8AC404E7A79E3 PUSH16 0x2F16AC6C59DE6F8D5D6F63C1482A7C86 DUP5 MUL SDIV SWAP3 POP JUMPDEST PUSH16 0x80000000000000000000000000000000 DUP5 AND ISZERO PUSH2 0x1B56 JUMPI PUSH16 0xD3094C70F034DE4B96FF7D5B6F99FCD8 PUSH16 0x4DA2CBF1BE5827F9EB3AD1AA9866EBB3 DUP5 MUL SDIV SWAP3 POP JUMPDEST PUSH16 0x40000000000000000000000000000000 DUP5 AND ISZERO PUSH2 0x1B96 JUMPI PUSH16 0xA45AF1E1F40C333B3DE1DB4DD55F29A7 PUSH16 0x63AFBE7AB2082BA1A0AE5E4EB1B479DC DUP5 MUL SDIV SWAP3 POP JUMPDEST PUSH16 0x20000000000000000000000000000000 DUP5 AND ISZERO PUSH2 0x1BD6 JUMPI PUSH16 0x910B022DB7AE67CE76B441C27035C6A1 PUSH16 0x70F5A893B608861E1F58934F97AEA57D DUP5 MUL SDIV SWAP3 POP JUMPDEST PUSH16 0x10000000000000000000000000000000 DUP5 AND ISZERO PUSH2 0x1C16 JUMPI PUSH16 0x88415ABBE9A76BEAD8D00CF112E4D4A8 PUSH16 0x783EAFEF1C0A8F3978C7F81824D62EBF DUP5 MUL SDIV SWAP3 POP JUMPDEST POP POP SWAP2 SWAP1 POP JUMP JUMPDEST PUSH1 0x0 PUSH2 0x6A6 DUP3 PUSH16 0x80000000000000000000000000000000 PUSH2 0xB9A JUMP JUMPDEST PUSH16 0x80000000000000000000000000000000 SWAP1 SDIV SWAP1 JUMP JUMPDEST PUSH1 0x40 MLOAD DUP1 PUSH2 0x180 ADD PUSH1 0x40 MSTORE DUP1 PUSH1 0x0 PUSH20 0xFFFFFFFFFFFFFFFFFFFFFFFFFFFFFFFFFFFFFFFF AND DUP2 MSTORE PUSH1 0x20 ADD PUSH1 0x0 PUSH20 0xFFFFFFFFFFFFFFFFFFFFFFFFFFFFFFFFFFFFFFFF AND DUP2 MSTORE PUSH1 0x20 ADD PUSH1 0x0 DUP2 MSTORE PUSH1 0x20 ADD PUSH1 0x0 DUP2 MSTORE PUSH1 0x20 ADD PUSH1 0x0 DUP2 MSTORE PUSH1 0x20 ADD PUSH1 0x0 DUP2 MSTORE PUSH1 0x20 ADD PUSH1 0x0 DUP2 MSTORE PUSH1 0x20 ADD PUSH1 0x0 DUP2 MSTORE PUSH1 0x20 ADD PUSH1 0x0 DUP2 MSTORE PUSH1 0x20 ADD PUSH1 0x0 DUP2 MSTORE PUSH1 0x20 ADD PUSH1 0x0 DUP2 MSTORE PUSH1 0x20 ADD PUSH1 0x0 DUP2 MSTORE POP SWAP1 JUMP JUMPDEST PUSH1 0x0 DUP1 PUSH1 0x0 PUSH1 0x60 DUP5 DUP7 SUB SLT ISZERO PUSH2 0x1CF0 JUMPI DUP3 DUP4 REVERT JUMPDEST DUP4 CALLDATALOAD PUSH2 0x1CFB DUP2 PUSH2 0x2127 JUMP JUMPDEST SWAP3 POP PUSH1 0x20 DUP5 ADD CALLDATALOAD PUSH2 0x1D0B DUP2 PUSH2 0x2127 JUMP JUMPDEST SWAP3 SWAP6 SWAP3 SWAP5 POP POP POP PUSH1 0x40 SWAP2 SWAP1 SWAP2 ADD CALLDATALOAD SWAP1 JUMP JUMPDEST PUSH1 0x0 PUSH1 0x20 DUP3 DUP5 SUB SLT ISZERO PUSH2 0x1D2D JUMPI DUP1 DUP2 REVERT JUMPDEST POP CALLDATALOAD SWAP2 SWAP1 POP JUMP JUMPDEST PUSH1 0x0 DUP1 PUSH1 0x40 DUP4 DUP6 SUB SLT ISZERO PUSH2 0x1D46 JUMPI DUP2 DUP3 REVERT JUMPDEST POP POP DUP1 CALLDATALOAD SWAP3 PUSH1 0x20 SWAP1 SWAP2 ADD CALLDATALOAD SWAP2 POP JUMP JUMPDEST PUSH20 0xFFFFFFFFFFFFFFFFFFFFFFFFFFFFFFFFFFFFFFFF SWAP6 DUP7 AND DUP2 MSTORE SWAP4 DUP6 AND PUSH1 0x20 DUP6 ADD MSTORE SWAP2 SWAP1 SWAP4 AND PUSH1 0x40 DUP4 ADD MSTORE PUSH1 0x60 DUP3 ADD SWAP3 SWAP1 SWAP3 MSTORE PUSH1 0x80 DUP2 ADD SWAP2 SWAP1 SWAP2 MSTORE PUSH1 0xA0 ADD SWAP1 JUMP JUMPDEST SWAP3 DUP4 MSTORE PUSH1 0x20 DUP4 ADD SWAP2 SWAP1 SWAP2 MSTORE PUSH1 0x40 DUP3 ADD MSTORE PUSH1 0x60 ADD SWAP1 JUMP JUMPDEST SWAP4 DUP5 MSTORE PUSH1 0x20 DUP5 ADD SWAP3 SWAP1 SWAP3 MSTORE PUSH1 0x40 DUP4 ADD MSTORE PUSH1 0x60 DUP3 ADD MSTORE PUSH1 0x80 ADD SWAP1 JUMP JUMPDEST SWAP5 DUP6 MSTORE PUSH1 0x20 DUP6 ADD SWAP4 SWAP1 SWAP4 MSTORE PUSH1 0x40 DUP5 ADD SWAP2 SWAP1 SWAP2 MSTORE PUSH1 0x60 DUP4 ADD MSTORE PUSH1 0x80 DUP3 ADD MSTORE PUSH1 0xA0 ADD SWAP1 JUMP JUMPDEST PUSH1 0x20 DUP1 DUP3 MSTORE PUSH1 0x15 SWAP1 DUP3 ADD MSTORE PUSH32 0x496E76616C69642076616C756520666F722072686F0000000000000000000000 PUSH1 0x40 DUP3 ADD MSTORE PUSH1 0x60 ADD SWAP1 JUMP JUMPDEST PUSH1 0x20 DUP1 DUP3 MSTORE PUSH1 0x13 SWAP1 DUP3 ADD MSTORE PUSH32 0x6C6E3A2076616C756520746F6F20736D616C6C00000000000000000000000000 PUSH1 0x40 DUP3 ADD MSTORE PUSH1 0x60 ADD SWAP1 JUMP JUMPDEST PUSH1 0x20 DUP1 DUP3 MSTORE PUSH1 0x17 SWAP1 DUP3 ADD MSTORE PUSH32 0x496E76616C696420746F6B656E20616464726573736573000000000000000000 PUSH1 0x40 DUP3 ADD MSTORE PUSH1 0x60 ADD SWAP1 JUMP JUMPDEST PUSH1 0x20 DUP1 DUP3 MSTORE PUSH1 0x38 SWAP1 DUP3 ADD MSTORE PUSH32 0x746F46697865642875696E742C75696E74293A2064656E6F6D696E61746F7220 PUSH1 0x40 DUP3 ADD MSTORE PUSH32 0x63616E6E6F74206265206C657373207468616E207A65726F0000000000000000 PUSH1 0x60 DUP3 ADD MSTORE PUSH1 0x80 ADD SWAP1 JUMP JUMPDEST PUSH1 0x20 DUP1 DUP3 MSTORE PUSH1 0x13 SWAP1 DUP3 ADD MSTORE PUSH32 0x6C6E3A2076616C756520746F6F206C6172676500000000000000000000000000 PUSH1 0x40 DUP3 ADD MSTORE PUSH1 0x60 ADD SWAP1 JUMP JUMPDEST PUSH1 0x20 DUP1 DUP3 MSTORE PUSH1 0x27 SWAP1 DUP3 ADD MSTORE PUSH32 0x746F46697865643A2076616C75652063616E6E6F74206265206C657373207468 PUSH1 0x40 DUP3 ADD MSTORE PUSH32 0x616E207A65726F00000000000000000000000000000000000000000000000000 PUSH1 0x60 DUP3 ADD MSTORE PUSH1 0x80 ADD SWAP1 JUMP JUMPDEST PUSH1 0x20 DUP1 DUP3 MSTORE PUSH1 0x14 SWAP1 DUP3 ADD MSTORE PUSH32 0x6578703A2076616C756520746F6F20736D616C6C000000000000000000000000 PUSH1 0x40 DUP3 ADD MSTORE PUSH1 0x60 ADD SWAP1 JUMP JUMPDEST PUSH1 0x20 DUP1 DUP3 MSTORE PUSH1 0xE SWAP1 DUP3 ADD MSTORE PUSH32 0x5F6D756C3A206F766572666C6F77000000000000000000000000000000000000 PUSH1 0x40 DUP3 ADD MSTORE PUSH1 0x60 ADD SWAP1 JUMP JUMPDEST PUSH1 0x20 DUP1 DUP3 MSTORE PUSH1 0xE SWAP1 DUP3 ADD MSTORE PUSH32 0x5F6164643A206F766572666C6F77000000000000000000000000000000000000 PUSH1 0x40 DUP3 ADD MSTORE PUSH1 0x60 ADD SWAP1 JUMP JUMPDEST PUSH1 0x20 DUP1 DUP3 MSTORE PUSH1 0x14 SWAP1 DUP3 ADD MSTORE PUSH32 0x7375623A2076616C756520746F6F20736D616C6C000000000000000000000000 PUSH1 0x40 DUP3 ADD MSTORE PUSH1 0x60 ADD SWAP1 JUMP JUMPDEST PUSH1 0x20 DUP1 DUP3 MSTORE PUSH1 0x36 SWAP1 DUP3 ADD MSTORE PUSH32 0x746F46697865642875696E742C75696E74293A206E756D657261746F72206361 PUSH1 0x40 DUP3 ADD MSTORE PUSH32 0x6E6E6F74206265206C657373207468616E207A65726F00000000000000000000 PUSH1 0x60 DUP3 ADD MSTORE PUSH1 0x80 ADD SWAP1 JUMP JUMPDEST PUSH1 0x20 DUP1 DUP3 MSTORE PUSH1 0x14 SWAP1 DUP3 ADD MSTORE PUSH32 0x5F6469763A20646976696465206279207A65726F000000000000000000000000 PUSH1 0x40 DUP3 ADD MSTORE PUSH1 0x60 ADD SWAP1 JUMP JUMPDEST PUSH1 0x20 DUP1 DUP3 MSTORE PUSH1 0xE SWAP1 DUP3 ADD MSTORE PUSH32 0x5F6469763A206F766572666C6F77000000000000000000000000000000000000 PUSH1 0x40 DUP3 ADD MSTORE PUSH1 0x60 ADD SWAP1 JUMP JUMPDEST PUSH20 0xFFFFFFFFFFFFFFFFFFFFFFFFFFFFFFFFFFFFFFFF DUP2 AND DUP2 EQ PUSH2 0x1DC JUMPI PUSH1 0x0 DUP1 REVERT INVALID LOG3 PUSH6 0x627A7A723158 KECCAK256 DIFFICULTY 0xBF 0x21 0xAB 0xDA 0xAC PUSH30 0x18AF830B68AFFCD65D01D6BB295BFF17542F56F38D19E1C3B76C65787065 PUSH19 0x696D656E74616CF564736F6C634300050D0040 "
			}
		}
	},
	"sourceTreeHashHex": "0xbbe3d7d695c5db16ebfef2c8c89869234d463b194386e30461ff1ab7acbac0dd",
	"compiler": {
		"name": "solc",
		"version": "soljson-v0.5.13+commit.5b0b510c.js",
		"settings": {
			"optimizer": {
				"enabled": true,
				"runs": 1000000,
				"details": {
					"yul": true,
					"deduplicate": true,
					"cse": true,
					"constantOptimizer": true
				}
			},
			"outputSelection": {
				"*": {
					"*": [
						"abi",
						"devdoc",
						"evm.bytecode.object",
						"evm.bytecode.sourceMap",
						"evm.deployedBytecode.object",
						"evm.deployedBytecode.sourceMap"
					]
				}
			},
			"evmVersion": "constantinople",
			"remappings": []
		}
	},
	"chains": {}
}