{
	"schemaVersion": "2.0.0",
	"contractName": "TestScam",
	"compilerOutput": {
		"abi": [
			{
				"anonymous": false,
				"inputs": [
					{
						"indexed": false,
						"internalType": "int256",
						"name": "lhs1",
						"type": "int256"
					},
					{
						"indexed": false,
						"internalType": "int256",
						"name": "mid",
						"type": "int256"
					},
					{
						"indexed": false,
						"internalType": "int256",
						"name": "lhs",
						"type": "int256"
					}
				],
				"name": "Bisect",
				"type": "event"
			},
			{
				"anonymous": false,
				"inputs": [
					{
						"indexed": false,
						"internalType": "address",
						"name": "from",
						"type": "address"
					},
					{
						"indexed": false,
						"internalType": "uint256",
						"name": "amountSpent",
						"type": "uint256"
					},
					{
						"indexed": false,
						"internalType": "uint256",
						"name": "amountReceived",
						"type": "uint256"
					},
					{
						"indexed": false,
						"internalType": "int256",
						"name": "x",
						"type": "int256"
					},
					{
						"indexed": false,
						"internalType": "int256",
						"name": "y",
						"type": "int256"
					}
				],
				"name": "Fill",
				"type": "event"
			},
			{
				"anonymous": false,
				"inputs": [
					{
						"indexed": false,
						"internalType": "address",
						"name": "oldOwner",
						"type": "address"
					},
					{
						"indexed": false,
						"internalType": "address",
						"name": "newOwner",
						"type": "address"
					}
				],
				"name": "OwnershipTransferred",
				"type": "event"
			},
			{
				"anonymous": false,
				"inputs": [
					{
						"indexed": false,
						"internalType": "int256",
						"name": "price",
						"type": "int256"
					},
					{
						"indexed": false,
						"internalType": "int256",
						"name": "deltaB",
						"type": "int256"
					},
					{
						"indexed": false,
						"internalType": "int256",
						"name": "newPBarX",
						"type": "int256"
					},
					{
						"indexed": false,
						"internalType": "int256",
						"name": "pA",
						"type": "int256"
					}
				],
				"name": "Price",
				"type": "event"
			},
			{
				"constant": false,
				"inputs": [
					{
						"internalType": "uint256",
						"name": "amount",
						"type": "uint256"
					}
				],
				"name": "addLiquidity",
				"outputs": [],
				"payable": false,
				"stateMutability": "nonpayable",
				"type": "function"
			},
			{
				"constant": false,
				"inputs": [],
				"name": "initState",
				"outputs": [],
				"payable": false,
				"stateMutability": "nonpayable",
				"type": "function"
			},
			{
				"constant": true,
				"inputs": [],
				"name": "owner",
				"outputs": [
					{
						"internalType": "address",
						"name": "",
						"type": "address"
					}
				],
				"payable": false,
				"stateMutability": "view",
				"type": "function"
			},
			{
				"constant": false,
				"inputs": [
					{
						"internalType": "uint256",
						"name": "amount",
						"type": "uint256"
					}
				],
				"name": "removeLiquidity",
				"outputs": [],
				"payable": false,
				"stateMutability": "nonpayable",
				"type": "function"
			},
			{
				"constant": false,
				"inputs": [],
				"name": "runBasicTest",
				"outputs": [],
				"payable": false,
				"stateMutability": "nonpayable",
				"type": "function"
			},
			{
				"constant": false,
				"inputs": [],
				"name": "runBasicTestOld",
				"outputs": [],
				"payable": false,
				"stateMutability": "nonpayable",
				"type": "function"
			},
			{
				"constant": false,
				"inputs": [
					{
						"internalType": "address",
						"name": "fromToken",
						"type": "address"
					},
					{
						"internalType": "address",
						"name": "toToken",
						"type": "address"
					},
					{
						"internalType": "uint256",
						"name": "amount",
						"type": "uint256"
					}
				],
				"name": "swap",
				"outputs": [],
				"payable": false,
				"stateMutability": "nonpayable",
				"type": "function"
			},
			{
				"constant": false,
				"inputs": [
					{
						"internalType": "address",
						"name": "newOwner",
						"type": "address"
					}
				],
				"name": "transferOwnership",
				"outputs": [],
				"payable": false,
				"stateMutability": "nonpayable",
				"type": "function"
			}
		],
		"devdoc": {
			"methods": {}
		},
		"evm": {
			"bytecode": {
				"linkReferences": {},
				"object": "0x6080604052600080546001600160a01b03191633179055612559806100256000396000f3fe608060405234801561001057600080fd5b50600436106100885760003560e01c8063978ca36f1161005b578063978ca36f146100d05780639c8f9f2314610097578063df791e50146100d8578063f2fde38b146100eb57610088565b806340386cfd1461008d57806351c6590a146100975780636d83c92c146100aa5780638da5cb5b146100b2575b600080fd5b6100956100fe565b005b6100956100a536600461205a565b610240565b610095610243565b6100ba610314565b6040516100c79190612072565b60405180910390f35b610095610330565b6100956100e636600461201a565b6103af565b6100956100f9366004611fe6565b6107c6565b600180547fffffffffffffffffffffff0000000000000000000000000000000000000000ff16610100179055600280547fffffffffffffffffffffffff0000000000000000000000000000000000000000168117905561015f61c350610898565b60035561016e620186a0610898565b60045561017b6001610898565b600555606360068190556101909060646108f4565b6007556101a060056127106108f4565b6008556101c86101b46001620f4240610995565b6101bc6109b4565b9063ffffffff6109c816565b600c556101d96127156103e8610995565b600d5560015460025461020d9173ffffffffffffffffffffffffffffffffffffffff610100909104811691166127106103af565b60025460015461023e9173ffffffffffffffffffffffffffffffffffffffff908116916101009004166127106103af565b565b50565b61024b610a31565b60015460ff1615610291576040517f08c379a0000000000000000000000000000000000000000000000000000000008152600401610288906121b7565b60405180910390fd5b61029b6001610a82565b600555606360068190556102b09060646108f4565b6007556102c060056127106108f4565b6008556102d46101b46001620f4240610995565b600c556102e56127156103e8610995565b600d55600180547fffffffffffffffffffffffffffffffffffffffffffffffffffffffffffffff001681179055565b60005473ffffffffffffffffffffffffffffffffffffffff1681565b600180547fffffffffffffffffffffff0000000000000000000000000000000000000000ff16610100179055600280547fffffffffffffffffffffffff0000000000000000000000000000000000000000168117905561039161c350610898565b6003556103a0620186a0610898565b60045561017b606560646108f4565b6103b7611f50565b6103bf610a9e565b905060006103cc83610898565b602083015190915060009081908190819073ffffffffffffffffffffffffffffffffffffffff8a811691161480156104335750856040015173ffffffffffffffffffffffffffffffffffffffff168873ffffffffffffffffffffffffffffffffffffffff16145b1561045257505050506060820151608083015160a08401516001610528565b856040015173ffffffffffffffffffffffffffffffffffffffff168973ffffffffffffffffffffffffffffffffffffffff161480156104c05750856020015173ffffffffffffffffffffffffffffffffffffffff168873ffffffffffffffffffffffffffffffffffffffff16145b156104f65785608001519350856060015192506104ef8660a001516104e36109b4565b9063ffffffff610b4416565b9150610528565b6040517f08c379a0000000000000000000000000000000000000000000000000000000008152600401610288906121ee565b6000806105388686868a8c610b6d565b91509150600061056e6105528a61010001516101bc6109b4565b6105628a8563ffffffff610c7216565b9063ffffffff610c7216565b905061058160008263ffffffff6109c816565b905060006105936001620186a0610995565b905060008213156105a757600091506105d0565b806105b8888463ffffffff610cc516565b136105d0576105cd818863ffffffff6109c816565b91505b60006105f08b61012001516105e3610cd1565b8d6101600151888b610cd7565b6101808c0151909150610609908863ffffffff610c7216565b81131561062d576101808b0151610626908863ffffffff610c7216565b9050610661565b610642876105628d61018001516104e36109b4565b8112156106615761065e876105628d61018001516104e36109b4565b90505b610669610cd1565b6101208c015285156106e957610685898b63ffffffff610cc516565b60608c015261069a888463ffffffff610cc516565b60808c015260a08b018190526040517f2200c1c87d346032bc0d16306152cc3e6e4dfa6d004ce38efa3f38f6f422d9e3906106dc908690869085908a9061210b565b60405180910390a1610763565b6106f9888463ffffffff610cc516565b60608c015261070e898b63ffffffff610cc516565b60808c015261071f816104e36109b4565b60a08c018190526040517f2200c1c87d346032bc0d16306152cc3e6e4dfa6d004ce38efa3f38f6f422d9e39161075a91879187918a9061210b565b60405180910390a15b61076c8b610db5565b7f7e7268e5886b114d2e6cb74c6493de4027210117c3ad05fdf159a6fc21ccfc3c338b856000038e606001518f608001516040516107ae9594939291906120ba565b60405180910390a15050505050505050505050505050565b6107ce610a31565b73ffffffffffffffffffffffffffffffffffffffff811661081b576040517f08c379a00000000000000000000000000000000000000000000000000000000081526004016102889061234d565b600080547fffffffffffffffffffffffff00000000000000000000000000000000000000001673ffffffffffffffffffffffffffffffffffffffff83161790556040517f8be0079c531659141344cd1fd0a4f28419497f9722a3daafe3b4186f6b6457e09061088d9033908490612093565b60405180910390a150565b6000808212156108d4576040517f08c379a0000000000000000000000000000000000000000000000000000000008152600401610288906122b9565b6108ee826f80000000000000000000000000000000610eb7565b92915050565b600080831215610930576040517f08c379a000000000000000000000000000000000000000000000000000000000815260040161028890612429565b600082121561096b576040517f08c379a000000000000000000000000000000000000000000000000000000000815260040161028890612225565b61098e610988846f80000000000000000000000000000000610eb7565b83610f2d565b9392505050565b600061098e610988846f80000000000000000000000000000000610eb7565b6f8000000000000000000000000000000090565b60007f8000000000000000000000000000000000000000000000000000000000000000821415610a24576040517f08c379a0000000000000000000000000000000000000000000000000000000008152600401610288906123f2565b61098e8383600003610ffc565b60005473ffffffffffffffffffffffffffffffffffffffff16331461023e576040517f08c379a000000000000000000000000000000000000000000000000000000000815260040161028890612180565b60006108ee826f80000000000000000000000000000000610eb7565b610aa6611f50565b50604080516101a08101825260015460ff81161515825273ffffffffffffffffffffffffffffffffffffffff610100918290048116602084015260025416928201929092526003546060820152600454608082015260055460a082015260065460c082015260075460e082015260085491810191909152600954610120820152600b54610140820152600c54610160820152600d5461018082015290565b6000610b5e610988846a8000000000000000000000610eb7565b65010000000000029392505050565b600080610b808787878660e00151611072565b915060008281610b968a8863ffffffff610cc516565b905060005b6014811015610c62576000610bb0858561116b565b90506000610bcc610bc7838d63ffffffff610b4416565b611193565b90506000610c03610be38c8563ffffffff610c7216565b610bf785610562898763ffffffff610c7216565b9063ffffffff610cc516565b90507f4add19bbbe358caf4af4a31b1299356fc4dccf8b4cf3c87e401b0fa60062f31e828483604051610c38939291906120f5565b60405180910390a18c811315610c5057829550610c54565b8296505b505050806001019050610b9b565b5091925050509550959350505050565b60006f800000000000000000000000000000008215610ca4575065010000000000909105906a80000000000000000000005b6000610cb08585610eb7565b9050818181610cbb57fe5b0595945050505050565b600061098e8383610ffc565b61023a90565b600080610ce5878703610898565b90506000610d0a610d05610cf888611242565b849063ffffffff610c7216565b61192c565b90506000610d1a826101bc6109b4565b90506000610d2e878363ffffffff610c7216565b90506000610d42878563ffffffff610c7216565b90506000610d6e610d59858b63ffffffff610b4416565b610d69878b63ffffffff610b4416565b610cc5565b90506000610d7e826104e36109b4565b90506000610da3610d8f6002610a82565b6104e384610bf7898963ffffffff610cc516565b9e9d5050505050505050505050505050565b80516001805460208401517fffffffffffffffffffffffffffffffffffffffffffffffffffffffffffffff00909116921515929092177fffffffffffffffffffffff0000000000000000000000000000000000000000ff1661010073ffffffffffffffffffffffffffffffffffffffff9384168102919091179091556040830151600280547fffffffffffffffffffffffff00000000000000000000000000000000000000001691909316179091556060820151600355608082015160045560a082015160055560c082015160065560e0820151600755810151600855610120810151600955610140810151600b55610160810151600c556101800151600d55565b6000821580610ec4575081155b15610ed1575060006108ee565b5081810281838281610edf57fe5b05141580610ef6575082828281610ef257fe5b0514155b156108ee576040517f08c379a000000000000000000000000000000000000000000000000000000000815260040161028890612384565b600081610f66576040517f08c379a000000000000000000000000000000000000000000000000000000000815260040161028890612486565b7f800000000000000000000000000000000000000000000000000000000000000083148015610fb45750817fffffffffffffffffffffffffffffffffffffffffffffffffffffffffffffffff145b15610feb576040517f08c379a0000000000000000000000000000000000000000000000000000000008152600401610288906124bd565b818381610ff457fe5b059392505050565b81810160008312801561100f5750600082125b801561101a57508281135b8061103b57506000831380156110305750600082135b801561103b57508281125b156108ee576040517f08c379a0000000000000000000000000000000000000000000000000000000008152600401610288906123bb565b600080611085848763ffffffff610c7216565b90506000611099868363ffffffff610b4416565b905060006110ad838863ffffffff610b4416565b905060006110bd866101bc6109b4565b905060006110c96109b4565b8412156110e7576110e0610d058361056287611242565b9050611105565b6111026110fa610d058461056287611242565b6104e36109b4565b90505b611115818963ffffffff610c7216565b95507f3cf9bd989028bfc957ca46fd34c8ed26f90d849442378ee442fcd56cf5cac44f8a8a8a8a6111458b611f3a565b604051611156959493929190612126565b60405180910390a15050505050949350505050565b600061098e61118361117b6109b4565b610bf76109b4565b6104e3858563ffffffff610cc516565b6000806111a6838063ffffffff610c7216565b905060006111ba848363ffffffff610c7216565b905060006111ce828063ffffffff610c7216565b905060006111e2828063ffffffff610c7216565b905060006111f6828063ffffffff610c7216565b9050600061120a828063ffffffff610c7216565b9050600061121e828063ffffffff610c7216565b90506000611232828863ffffffff610c7216565b985050505050505050505b919050565b60006f8000000000000000000000000000000082131561128e576040517f08c379a000000000000000000000000000000000000000000000000000000000815260040161028890612282565b600082136112c8576040517f08c379a000000000000000000000000000000000000000000000000000000000815260040161028890612149565b6f800000000000000000000000000000008214156112e85750600061123d565b640733048c5a821361131b57507fffffffffffffffffffffffffffffffe01000000000000000000000000000000061123d565b60008060006a01c8464f76164760000000851361137a577ffffffffffffffffffffffffffffffff000000000000000000000000000000000909301926a01c8464f761647600000006f8000000000000000000000000000000086020594505b6cf1aaddd7742e9000000000000085136113d8577ffffffffffffffffffffffffffffffff800000000000000000000000000000000909301926cf1aaddd7742e900000000000006f8000000000000000000000000000000086020594505b6e0afe10820813d78000000000000000851361143a577ffffffffffffffffffffffffffffffffc00000000000000000000000000000000909301926e0afe10820813d780000000000000006f8000000000000000000000000000000086020594505b6f02582ab704279ec00000000000000000851361149e577ffffffffffffffffffffffffffffffffe00000000000000000000000000000000909301926f02582ab704279ec000000000000000006f8000000000000000000000000000000086020594505b6f1152aaa3bf81cc0000000000000000008513611502577fffffffffffffffffffffffffffffffff00000000000000000000000000000000909301926f1152aaa3bf81cc0000000000000000006f8000000000000000000000000000000086020594505b6f2f16ac6c59de700000000000000000008513611566577fffffffffffffffffffffffffffffffff80000000000000000000000000000000909301926f2f16ac6c59de700000000000000000006f8000000000000000000000000000000086020594505b6f4da2cbf1be582800000000000000000085136115ca577fffffffffffffffffffffffffffffffffc0000000000000000000000000000000909301926f4da2cbf1be58280000000000000000006f8000000000000000000000000000000086020594505b6f63afbe7ab2082c000000000000000000851361162e577fffffffffffffffffffffffffffffffffe0000000000000000000000000000000909301926f63afbe7ab2082c0000000000000000006f8000000000000000000000000000000086020594505b6f70f5a893b608861e1f58934f97aea57d8513611692577ffffffffffffffffffffffffffffffffff0000000000000000000000000000000909301926f70f5a893b608861e1f58934f97aea57d6f8000000000000000000000000000000086020594505b7fffffffffffffffffffffffffffffffff80000000000000000000000000000000850192508291506f80000000000000000000000000000000828002059050700100000000000000000000000000000000838103830205840193506f800000000000000000000000000000008183028161170857fe5b059150700200000000000000000000000000000000836faaaaaaaaaaaaaaaaaaaaaaaaaaaaaaaa0383028161173957fe5b05840193506f800000000000000000000000000000008183028161175957fe5b059150700300000000000000000000000000000000836f999999999999999999999999999999990383028161178a57fe5b05840193506f80000000000000000000000000000000818302816117aa57fe5b059150700400000000000000000000000000000000836f92492492492492492492492492492492038302816117db57fe5b05840193506f80000000000000000000000000000000818302816117fb57fe5b059150700500000000000000000000000000000000836f8e38e38e38e38e38e38e38e38e38e38e0383028161182c57fe5b05840193506f800000000000000000000000000000008183028161184c57fe5b059150700600000000000000000000000000000000836f8ba2e8ba2e8ba2e8ba2e8ba2e8ba2e8b0383028161187d57fe5b05840193506f800000000000000000000000000000008183028161189d57fe5b059150700700000000000000000000000000000000836f89d89d89d89d89d89d89d89d89d89d89038302816118ce57fe5b05840193506f80000000000000000000000000000000818302816118ee57fe5b059150700800000000000000000000000000000000836f888888888888888888888888888888880383028161191f57fe5b0584019350505050919050565b60007fffffffffffffffffffffffffffffffe01000000000000000000000000000000082121561195e5750600061123d565b8161197a57506f8000000000000000000000000000000061123d565b60008213156119b5576040517f08c379a000000000000000000000000000000000000000000000000000000000815260040161028890612316565b6f800000000000000000000000000000006f1000000000000000000000000000000083078080028290056710e1b3be415a0000810293909301929091818302059050806705a0913f6b1e000002830192506f8000000000000000000000000000000082820281611a2157fe5b05905080670168244fdac7800002830192506f8000000000000000000000000000000082820281611a4e57fe5b05905080664807432bc1800002830192506f8000000000000000000000000000000082820281611a7a57fe5b05905080660c0135dca0400002830192506f8000000000000000000000000000000082820281611aa657fe5b059050806601b707b1cdc00002830192506f8000000000000000000000000000000082820281611ad257fe5b059050806536e0f639b80002830192506f8000000000000000000000000000000082820281611afd57fe5b05905080650618fee9f80002830192506f8000000000000000000000000000000082820281611b2857fe5b05905080649c197dcc0002830192506f8000000000000000000000000000000082820281611b5257fe5b05905080640e30dce40002830192506f8000000000000000000000000000000082820281611b7c57fe5b0590508064012ebd130002830192506f8000000000000000000000000000000082820281611ba657fe5b059050806317499f0002830192506f8000000000000000000000000000000082820281611bcf57fe5b059050806301a9d48002830192506f8000000000000000000000000000000082820281611bf857fe5b05905080621c638002830192506f8000000000000000000000000000000082820281611c2057fe5b059050806201c63802830192506f8000000000000000000000000000000082820281611c4857fe5b05905080611ab802830192506f8000000000000000000000000000000082820281611c6f57fe5b0590508061017c02830192506f8000000000000000000000000000000082820281611c9657fe5b05905080601402830192506f8000000000000000000000000000000082820281611cbc57fe5b600095909503946721c3677c82b400009190059384010582016f8000000000000000000000000000000001929050701000000000000000000000000000000000841615611d2b577243cbaf42a000812488fc5c220ad7b97bf6e99e6cf1aaddd7742e56d32fb9f9974484020592505b700800000000000000000000000000000000841615611d6d577105d27a9f51c31b7c2f8038212a05747799916e0afe10820813d65dfe6a33c07f738f84020592505b700400000000000000000000000000000000841615611daf57701b4c902e273a58678d6d3bfdb93db96d026f02582ab704279e8efd15e0265855c47a84020592505b700200000000000000000000000000000000841615611df1577003b1cc971a9bb5b9867477440d6d1577506f1152aaa3bf81cb9fdb76eae12d02957184020592505b700100000000000000000000000000000000841615611e335770015bf0a8b1457695355fb8ac404e7a79e36f2f16ac6c59de6f8d5d6f63c1482a7c8684020592505b6f80000000000000000000000000000000841615611e73576fd3094c70f034de4b96ff7d5b6f99fcd86f4da2cbf1be5827f9eb3ad1aa9866ebb384020592505b6f40000000000000000000000000000000841615611eb3576fa45af1e1f40c333b3de1db4dd55f29a76f63afbe7ab2082ba1a0ae5e4eb1b479dc84020592505b6f20000000000000000000000000000000841615611ef3576f910b022db7ae67ce76b441c27035c6a16f70f5a893b608861e1f58934f97aea57d84020592505b6f10000000000000000000000000000000841615611f33576f88415abbe9a76bead8d00cf112e4d4a86f783eafef1c0a8f3978c7f81824d62ebf84020592505b5050919050565b6f80000000000000000000000000000000900590565b604051806101a00160405280600015158152602001600073ffffffffffffffffffffffffffffffffffffffff168152602001600073ffffffffffffffffffffffffffffffffffffffff168152602001600081526020016000815260200160008152602001600081526020016000815260200160008152602001600081526020016000815260200160008152602001600081525090565b600060208284031215611ff7578081fd5b813573ffffffffffffffffffffffffffffffffffffffff8116811461098e578182fd5b60008060006060848603121561202e578182fd5b8335612039816124f4565b92506020840135612049816124f4565b929592945050506040919091013590565b60006020828403121561206b578081fd5b5035919050565b73ffffffffffffffffffffffffffffffffffffffff91909116815260200190565b73ffffffffffffffffffffffffffffffffffffffff92831681529116602082015260400190565b73ffffffffffffffffffffffffffffffffffffffff959095168552602085019390935260408401919091526060830152608082015260a00190565b9283526020830191909152604082015260600190565b93845260208401929092526040830152606082015260800190565b948552602085019390935260408401919091526060830152608082015260a00190565b60208082526013908201527f6c6e3a2076616c756520746f6f20736d616c6c00000000000000000000000000604082015260600190565b6020808252600e908201527f4f6e6c794f776e65724572726f72000000000000000000000000000000000000604082015260600190565b60208082526013908201527f416c726561647920496e697469616c697a656400000000000000000000000000604082015260600190565b60208082526017908201527f496e76616c696420746f6b656e20616464726573736573000000000000000000604082015260600190565b60208082526038908201527f746f46697865642875696e742c75696e74293a2064656e6f6d696e61746f722060408201527f63616e6e6f74206265206c657373207468616e207a65726f0000000000000000606082015260800190565b60208082526013908201527f6c6e3a2076616c756520746f6f206c6172676500000000000000000000000000604082015260600190565b60208082526027908201527f746f46697865643a2076616c75652063616e6e6f74206265206c65737320746860408201527f616e207a65726f00000000000000000000000000000000000000000000000000606082015260800190565b60208082526014908201527f6578703a2076616c756520746f6f20736d616c6c000000000000000000000000604082015260600190565b60208082526018908201527f5472616e736665724f776e6572546f5a65726f4572726f720000000000000000604082015260600190565b6020808252600e908201527f5f6d756c3a206f766572666c6f77000000000000000000000000000000000000604082015260600190565b6020808252600e908201527f5f6164643a206f766572666c6f77000000000000000000000000000000000000604082015260600190565b60208082526014908201527f7375623a2076616c756520746f6f20736d616c6c000000000000000000000000604082015260600190565b60208082526036908201527f746f46697865642875696e742c75696e74293a206e756d657261746f7220636160408201527f6e6e6f74206265206c657373207468616e207a65726f00000000000000000000606082015260800190565b60208082526014908201527f5f6469763a20646976696465206279207a65726f000000000000000000000000604082015260600190565b6020808252600e908201527f5f6469763a206f766572666c6f77000000000000000000000000000000000000604082015260600190565b73ffffffffffffffffffffffffffffffffffffffff8116811461024057600080fdfea365627a7a723158204f61b143bb04dcdcf8cd27bd73fa44889af7e3408bde01da38b962ca660f52686c6578706572696d656e74616cf564736f6c634300050d0040",
				"opcodes": "PUSH1 0x80 PUSH1 0x40 MSTORE PUSH1 0x0 DUP1 SLOAD PUSH1 0x1 PUSH1 0x1 PUSH1 0xA0 SHL SUB NOT AND CALLER OR SWAP1 SSTORE PUSH2 0x2559 DUP1 PUSH2 0x25 PUSH1 0x0 CODECOPY PUSH1 0x0 RETURN INVALID PUSH1 0x80 PUSH1 0x40 MSTORE CALLVALUE DUP1 ISZERO PUSH2 0x10 JUMPI PUSH1 0x0 DUP1 REVERT JUMPDEST POP PUSH1 0x4 CALLDATASIZE LT PUSH2 0x88 JUMPI PUSH1 0x0 CALLDATALOAD PUSH1 0xE0 SHR DUP1 PUSH4 0x978CA36F GT PUSH2 0x5B JUMPI DUP1 PUSH4 0x978CA36F EQ PUSH2 0xD0 JUMPI DUP1 PUSH4 0x9C8F9F23 EQ PUSH2 0x97 JUMPI DUP1 PUSH4 0xDF791E50 EQ PUSH2 0xD8 JUMPI DUP1 PUSH4 0xF2FDE38B EQ PUSH2 0xEB JUMPI PUSH2 0x88 JUMP JUMPDEST DUP1 PUSH4 0x40386CFD EQ PUSH2 0x8D JUMPI DUP1 PUSH4 0x51C6590A EQ PUSH2 0x97 JUMPI DUP1 PUSH4 0x6D83C92C EQ PUSH2 0xAA JUMPI DUP1 PUSH4 0x8DA5CB5B EQ PUSH2 0xB2 JUMPI JUMPDEST PUSH1 0x0 DUP1 REVERT JUMPDEST PUSH2 0x95 PUSH2 0xFE JUMP JUMPDEST STOP JUMPDEST PUSH2 0x95 PUSH2 0xA5 CALLDATASIZE PUSH1 0x4 PUSH2 0x205A JUMP JUMPDEST PUSH2 0x240 JUMP JUMPDEST PUSH2 0x95 PUSH2 0x243 JUMP JUMPDEST PUSH2 0xBA PUSH2 0x314 JUMP JUMPDEST PUSH1 0x40 MLOAD PUSH2 0xC7 SWAP2 SWAP1 PUSH2 0x2072 JUMP JUMPDEST PUSH1 0x40 MLOAD DUP1 SWAP2 SUB SWAP1 RETURN JUMPDEST PUSH2 0x95 PUSH2 0x330 JUMP JUMPDEST PUSH2 0x95 PUSH2 0xE6 CALLDATASIZE PUSH1 0x4 PUSH2 0x201A JUMP JUMPDEST PUSH2 0x3AF JUMP JUMPDEST PUSH2 0x95 PUSH2 0xF9 CALLDATASIZE PUSH1 0x4 PUSH2 0x1FE6 JUMP JUMPDEST PUSH2 0x7C6 JUMP JUMPDEST PUSH1 0x1 DUP1 SLOAD PUSH32 0xFFFFFFFFFFFFFFFFFFFFFF0000000000000000000000000000000000000000FF AND PUSH2 0x100 OR SWAP1 SSTORE PUSH1 0x2 DUP1 SLOAD PUSH32 0xFFFFFFFFFFFFFFFFFFFFFFFF0000000000000000000000000000000000000000 AND DUP2 OR SWAP1 SSTORE PUSH2 0x15F PUSH2 0xC350 PUSH2 0x898 JUMP JUMPDEST PUSH1 0x3 SSTORE PUSH2 0x16E PUSH3 0x186A0 PUSH2 0x898 JUMP JUMPDEST PUSH1 0x4 SSTORE PUSH2 0x17B PUSH1 0x1 PUSH2 0x898 JUMP JUMPDEST PUSH1 0x5 SSTORE PUSH1 0x63 PUSH1 0x6 DUP2 SWAP1 SSTORE PUSH2 0x190 SWAP1 PUSH1 0x64 PUSH2 0x8F4 JUMP JUMPDEST PUSH1 0x7 SSTORE PUSH2 0x1A0 PUSH1 0x5 PUSH2 0x2710 PUSH2 0x8F4 JUMP JUMPDEST PUSH1 0x8 SSTORE PUSH2 0x1C8 PUSH2 0x1B4 PUSH1 0x1 PUSH3 0xF4240 PUSH2 0x995 JUMP JUMPDEST PUSH2 0x1BC PUSH2 0x9B4 JUMP JUMPDEST SWAP1 PUSH4 0xFFFFFFFF PUSH2 0x9C8 AND JUMP JUMPDEST PUSH1 0xC SSTORE PUSH2 0x1D9 PUSH2 0x2715 PUSH2 0x3E8 PUSH2 0x995 JUMP JUMPDEST PUSH1 0xD SSTORE PUSH1 0x1 SLOAD PUSH1 0x2 SLOAD PUSH2 0x20D SWAP2 PUSH20 0xFFFFFFFFFFFFFFFFFFFFFFFFFFFFFFFFFFFFFFFF PUSH2 0x100 SWAP1 SWAP2 DIV DUP2 AND SWAP2 AND PUSH2 0x2710 PUSH2 0x3AF JUMP JUMPDEST PUSH1 0x2 SLOAD PUSH1 0x1 SLOAD PUSH2 0x23E SWAP2 PUSH20 0xFFFFFFFFFFFFFFFFFFFFFFFFFFFFFFFFFFFFFFFF SWAP1 DUP2 AND SWAP2 PUSH2 0x100 SWAP1 DIV AND PUSH2 0x2710 PUSH2 0x3AF JUMP JUMPDEST JUMP JUMPDEST POP JUMP JUMPDEST PUSH2 0x24B PUSH2 0xA31 JUMP JUMPDEST PUSH1 0x1 SLOAD PUSH1 0xFF AND ISZERO PUSH2 0x291 JUMPI PUSH1 0x40 MLOAD PUSH32 0x8C379A000000000000000000000000000000000000000000000000000000000 DUP2 MSTORE PUSH1 0x4 ADD PUSH2 0x288 SWAP1 PUSH2 0x21B7 JUMP JUMPDEST PUSH1 0x40 MLOAD DUP1 SWAP2 SUB SWAP1 REVERT JUMPDEST PUSH2 0x29B PUSH1 0x1 PUSH2 0xA82 JUMP JUMPDEST PUSH1 0x5 SSTORE PUSH1 0x63 PUSH1 0x6 DUP2 SWAP1 SSTORE PUSH2 0x2B0 SWAP1 PUSH1 0x64 PUSH2 0x8F4 JUMP JUMPDEST PUSH1 0x7 SSTORE PUSH2 0x2C0 PUSH1 0x5 PUSH2 0x2710 PUSH2 0x8F4 JUMP JUMPDEST PUSH1 0x8 SSTORE PUSH2 0x2D4 PUSH2 0x1B4 PUSH1 0x1 PUSH3 0xF4240 PUSH2 0x995 JUMP JUMPDEST PUSH1 0xC SSTORE PUSH2 0x2E5 PUSH2 0x2715 PUSH2 0x3E8 PUSH2 0x995 JUMP JUMPDEST PUSH1 0xD SSTORE PUSH1 0x1 DUP1 SLOAD PUSH32 0xFFFFFFFFFFFFFFFFFFFFFFFFFFFFFFFFFFFFFFFFFFFFFFFFFFFFFFFFFFFFFF00 AND DUP2 OR SWAP1 SSTORE JUMP JUMPDEST PUSH1 0x0 SLOAD PUSH20 0xFFFFFFFFFFFFFFFFFFFFFFFFFFFFFFFFFFFFFFFF AND DUP2 JUMP JUMPDEST PUSH1 0x1 DUP1 SLOAD PUSH32 0xFFFFFFFFFFFFFFFFFFFFFF0000000000000000000000000000000000000000FF AND PUSH2 0x100 OR SWAP1 SSTORE PUSH1 0x2 DUP1 SLOAD PUSH32 0xFFFFFFFFFFFFFFFFFFFFFFFF0000000000000000000000000000000000000000 AND DUP2 OR SWAP1 SSTORE PUSH2 0x391 PUSH2 0xC350 PUSH2 0x898 JUMP JUMPDEST PUSH1 0x3 SSTORE PUSH2 0x3A0 PUSH3 0x186A0 PUSH2 0x898 JUMP JUMPDEST PUSH1 0x4 SSTORE PUSH2 0x17B PUSH1 0x65 PUSH1 0x64 PUSH2 0x8F4 JUMP JUMPDEST PUSH2 0x3B7 PUSH2 0x1F50 JUMP JUMPDEST PUSH2 0x3BF PUSH2 0xA9E JUMP JUMPDEST SWAP1 POP PUSH1 0x0 PUSH2 0x3CC DUP4 PUSH2 0x898 JUMP JUMPDEST PUSH1 0x20 DUP4 ADD MLOAD SWAP1 SWAP2 POP PUSH1 0x0 SWAP1 DUP2 SWAP1 DUP2 SWAP1 DUP2 SWAP1 PUSH20 0xFFFFFFFFFFFFFFFFFFFFFFFFFFFFFFFFFFFFFFFF DUP11 DUP2 AND SWAP2 AND EQ DUP1 ISZERO PUSH2 0x433 JUMPI POP DUP6 PUSH1 0x40 ADD MLOAD PUSH20 0xFFFFFFFFFFFFFFFFFFFFFFFFFFFFFFFFFFFFFFFF AND DUP9 PUSH20 0xFFFFFFFFFFFFFFFFFFFFFFFFFFFFFFFFFFFFFFFF AND EQ JUMPDEST ISZERO PUSH2 0x452 JUMPI POP POP POP POP PUSH1 0x60 DUP3 ADD MLOAD PUSH1 0x80 DUP4 ADD MLOAD PUSH1 0xA0 DUP5 ADD MLOAD PUSH1 0x1 PUSH2 0x528 JUMP JUMPDEST DUP6 PUSH1 0x40 ADD MLOAD PUSH20 0xFFFFFFFFFFFFFFFFFFFFFFFFFFFFFFFFFFFFFFFF AND DUP10 PUSH20 0xFFFFFFFFFFFFFFFFFFFFFFFFFFFFFFFFFFFFFFFF AND EQ DUP1 ISZERO PUSH2 0x4C0 JUMPI POP DUP6 PUSH1 0x20 ADD MLOAD PUSH20 0xFFFFFFFFFFFFFFFFFFFFFFFFFFFFFFFFFFFFFFFF AND DUP9 PUSH20 0xFFFFFFFFFFFFFFFFFFFFFFFFFFFFFFFFFFFFFFFF AND EQ JUMPDEST ISZERO PUSH2 0x4F6 JUMPI DUP6 PUSH1 0x80 ADD MLOAD SWAP4 POP DUP6 PUSH1 0x60 ADD MLOAD SWAP3 POP PUSH2 0x4EF DUP7 PUSH1 0xA0 ADD MLOAD PUSH2 0x4E3 PUSH2 0x9B4 JUMP JUMPDEST SWAP1 PUSH4 0xFFFFFFFF PUSH2 0xB44 AND JUMP JUMPDEST SWAP2 POP PUSH2 0x528 JUMP JUMPDEST PUSH1 0x40 MLOAD PUSH32 0x8C379A000000000000000000000000000000000000000000000000000000000 DUP2 MSTORE PUSH1 0x4 ADD PUSH2 0x288 SWAP1 PUSH2 0x21EE JUMP JUMPDEST PUSH1 0x0 DUP1 PUSH2 0x538 DUP7 DUP7 DUP7 DUP11 DUP13 PUSH2 0xB6D JUMP JUMPDEST SWAP2 POP SWAP2 POP PUSH1 0x0 PUSH2 0x56E PUSH2 0x552 DUP11 PUSH2 0x100 ADD MLOAD PUSH2 0x1BC PUSH2 0x9B4 JUMP JUMPDEST PUSH2 0x562 DUP11 DUP6 PUSH4 0xFFFFFFFF PUSH2 0xC72 AND JUMP JUMPDEST SWAP1 PUSH4 0xFFFFFFFF PUSH2 0xC72 AND JUMP JUMPDEST SWAP1 POP PUSH2 0x581 PUSH1 0x0 DUP3 PUSH4 0xFFFFFFFF PUSH2 0x9C8 AND JUMP JUMPDEST SWAP1 POP PUSH1 0x0 PUSH2 0x593 PUSH1 0x1 PUSH3 0x186A0 PUSH2 0x995 JUMP JUMPDEST SWAP1 POP PUSH1 0x0 DUP3 SGT ISZERO PUSH2 0x5A7 JUMPI PUSH1 0x0 SWAP2 POP PUSH2 0x5D0 JUMP JUMPDEST DUP1 PUSH2 0x5B8 DUP9 DUP5 PUSH4 0xFFFFFFFF PUSH2 0xCC5 AND JUMP JUMPDEST SGT PUSH2 0x5D0 JUMPI PUSH2 0x5CD DUP2 DUP9 PUSH4 0xFFFFFFFF PUSH2 0x9C8 AND JUMP JUMPDEST SWAP2 POP JUMPDEST PUSH1 0x0 PUSH2 0x5F0 DUP12 PUSH2 0x120 ADD MLOAD PUSH2 0x5E3 PUSH2 0xCD1 JUMP JUMPDEST DUP14 PUSH2 0x160 ADD MLOAD DUP9 DUP12 PUSH2 0xCD7 JUMP JUMPDEST PUSH2 0x180 DUP13 ADD MLOAD SWAP1 SWAP2 POP PUSH2 0x609 SWAP1 DUP9 PUSH4 0xFFFFFFFF PUSH2 0xC72 AND JUMP JUMPDEST DUP2 SGT ISZERO PUSH2 0x62D JUMPI PUSH2 0x180 DUP12 ADD MLOAD PUSH2 0x626 SWAP1 DUP9 PUSH4 0xFFFFFFFF PUSH2 0xC72 AND JUMP JUMPDEST SWAP1 POP PUSH2 0x661 JUMP JUMPDEST PUSH2 0x642 DUP8 PUSH2 0x562 DUP14 PUSH2 0x180 ADD MLOAD PUSH2 0x4E3 PUSH2 0x9B4 JUMP JUMPDEST DUP2 SLT ISZERO PUSH2 0x661 JUMPI PUSH2 0x65E DUP8 PUSH2 0x562 DUP14 PUSH2 0x180 ADD MLOAD PUSH2 0x4E3 PUSH2 0x9B4 JUMP JUMPDEST SWAP1 POP JUMPDEST PUSH2 0x669 PUSH2 0xCD1 JUMP JUMPDEST PUSH2 0x120 DUP13 ADD MSTORE DUP6 ISZERO PUSH2 0x6E9 JUMPI PUSH2 0x685 DUP10 DUP12 PUSH4 0xFFFFFFFF PUSH2 0xCC5 AND JUMP JUMPDEST PUSH1 0x60 DUP13 ADD MSTORE PUSH2 0x69A DUP9 DUP5 PUSH4 0xFFFFFFFF PUSH2 0xCC5 AND JUMP JUMPDEST PUSH1 0x80 DUP13 ADD MSTORE PUSH1 0xA0 DUP12 ADD DUP2 SWAP1 MSTORE PUSH1 0x40 MLOAD PUSH32 0x2200C1C87D346032BC0D16306152CC3E6E4DFA6D004CE38EFA3F38F6F422D9E3 SWAP1 PUSH2 0x6DC SWAP1 DUP7 SWAP1 DUP7 SWAP1 DUP6 SWAP1 DUP11 SWAP1 PUSH2 0x210B JUMP JUMPDEST PUSH1 0x40 MLOAD DUP1 SWAP2 SUB SWAP1 LOG1 PUSH2 0x763 JUMP JUMPDEST PUSH2 0x6F9 DUP9 DUP5 PUSH4 0xFFFFFFFF PUSH2 0xCC5 AND JUMP JUMPDEST PUSH1 0x60 DUP13 ADD MSTORE PUSH2 0x70E DUP10 DUP12 PUSH4 0xFFFFFFFF PUSH2 0xCC5 AND JUMP JUMPDEST PUSH1 0x80 DUP13 ADD MSTORE PUSH2 0x71F DUP2 PUSH2 0x4E3 PUSH2 0x9B4 JUMP JUMPDEST PUSH1 0xA0 DUP13 ADD DUP2 SWAP1 MSTORE PUSH1 0x40 MLOAD PUSH32 0x2200C1C87D346032BC0D16306152CC3E6E4DFA6D004CE38EFA3F38F6F422D9E3 SWAP2 PUSH2 0x75A SWAP2 DUP8 SWAP2 DUP8 SWAP2 DUP11 SWAP1 PUSH2 0x210B JUMP JUMPDEST PUSH1 0x40 MLOAD DUP1 SWAP2 SUB SWAP1 LOG1 JUMPDEST PUSH2 0x76C DUP12 PUSH2 0xDB5 JUMP JUMPDEST PUSH32 0x7E7268E5886B114D2E6CB74C6493DE4027210117C3AD05FDF159A6FC21CCFC3C CALLER DUP12 DUP6 PUSH1 0x0 SUB DUP15 PUSH1 0x60 ADD MLOAD DUP16 PUSH1 0x80 ADD MLOAD PUSH1 0x40 MLOAD PUSH2 0x7AE SWAP6 SWAP5 SWAP4 SWAP3 SWAP2 SWAP1 PUSH2 0x20BA JUMP JUMPDEST PUSH1 0x40 MLOAD DUP1 SWAP2 SUB SWAP1 LOG1 POP POP POP POP POP POP POP POP POP POP POP POP POP POP JUMP JUMPDEST PUSH2 0x7CE PUSH2 0xA31 JUMP JUMPDEST PUSH20 0xFFFFFFFFFFFFFFFFFFFFFFFFFFFFFFFFFFFFFFFF DUP2 AND PUSH2 0x81B JUMPI PUSH1 0x40 MLOAD PUSH32 0x8C379A000000000000000000000000000000000000000000000000000000000 DUP2 MSTORE PUSH1 0x4 ADD PUSH2 0x288 SWAP1 PUSH2 0x234D JUMP JUMPDEST PUSH1 0x0 DUP1 SLOAD PUSH32 0xFFFFFFFFFFFFFFFFFFFFFFFF0000000000000000000000000000000000000000 AND PUSH20 0xFFFFFFFFFFFFFFFFFFFFFFFFFFFFFFFFFFFFFFFF DUP4 AND OR SWAP1 SSTORE PUSH1 0x40 MLOAD PUSH32 0x8BE0079C531659141344CD1FD0A4F28419497F9722A3DAAFE3B4186F6B6457E0 SWAP1 PUSH2 0x88D SWAP1 CALLER SWAP1 DUP5 SWAP1 PUSH2 0x2093 JUMP JUMPDEST PUSH1 0x40 MLOAD DUP1 SWAP2 SUB SWAP1 LOG1 POP JUMP JUMPDEST PUSH1 0x0 DUP1 DUP3 SLT ISZERO PUSH2 0x8D4 JUMPI PUSH1 0x40 MLOAD PUSH32 0x8C379A000000000000000000000000000000000000000000000000000000000 DUP2 MSTORE PUSH1 0x4 ADD PUSH2 0x288 SWAP1 PUSH2 0x22B9 JUMP JUMPDEST PUSH2 0x8EE DUP3 PUSH16 0x80000000000000000000000000000000 PUSH2 0xEB7 JUMP JUMPDEST SWAP3 SWAP2 POP POP JUMP JUMPDEST PUSH1 0x0 DUP1 DUP4 SLT ISZERO PUSH2 0x930 JUMPI PUSH1 0x40 MLOAD PUSH32 0x8C379A000000000000000000000000000000000000000000000000000000000 DUP2 MSTORE PUSH1 0x4 ADD PUSH2 0x288 SWAP1 PUSH2 0x2429 JUMP JUMPDEST PUSH1 0x0 DUP3 SLT ISZERO PUSH2 0x96B JUMPI PUSH1 0x40 MLOAD PUSH32 0x8C379A000000000000000000000000000000000000000000000000000000000 DUP2 MSTORE PUSH1 0x4 ADD PUSH2 0x288 SWAP1 PUSH2 0x2225 JUMP JUMPDEST PUSH2 0x98E PUSH2 0x988 DUP5 PUSH16 0x80000000000000000000000000000000 PUSH2 0xEB7 JUMP JUMPDEST DUP4 PUSH2 0xF2D JUMP JUMPDEST SWAP4 SWAP3 POP POP POP JUMP JUMPDEST PUSH1 0x0 PUSH2 0x98E PUSH2 0x988 DUP5 PUSH16 0x80000000000000000000000000000000 PUSH2 0xEB7 JUMP JUMPDEST PUSH16 0x80000000000000000000000000000000 SWAP1 JUMP JUMPDEST PUSH1 0x0 PUSH32 0x8000000000000000000000000000000000000000000000000000000000000000 DUP3 EQ ISZERO PUSH2 0xA24 JUMPI PUSH1 0x40 MLOAD PUSH32 0x8C379A000000000000000000000000000000000000000000000000000000000 DUP2 MSTORE PUSH1 0x4 ADD PUSH2 0x288 SWAP1 PUSH2 0x23F2 JUMP JUMPDEST PUSH2 0x98E DUP4 DUP4 PUSH1 0x0 SUB PUSH2 0xFFC JUMP JUMPDEST PUSH1 0x0 SLOAD PUSH20 0xFFFFFFFFFFFFFFFFFFFFFFFFFFFFFFFFFFFFFFFF AND CALLER EQ PUSH2 0x23E JUMPI PUSH1 0x40 MLOAD PUSH32 0x8C379A000000000000000000000000000000000000000000000000000000000 DUP2 MSTORE PUSH1 0x4 ADD PUSH2 0x288 SWAP1 PUSH2 0x2180 JUMP JUMPDEST PUSH1 0x0 PUSH2 0x8EE DUP3 PUSH16 0x80000000000000000000000000000000 PUSH2 0xEB7 JUMP JUMPDEST PUSH2 0xAA6 PUSH2 0x1F50 JUMP JUMPDEST POP PUSH1 0x40 DUP1 MLOAD PUSH2 0x1A0 DUP2 ADD DUP3 MSTORE PUSH1 0x1 SLOAD PUSH1 0xFF DUP2 AND ISZERO ISZERO DUP3 MSTORE PUSH20 0xFFFFFFFFFFFFFFFFFFFFFFFFFFFFFFFFFFFFFFFF PUSH2 0x100 SWAP2 DUP3 SWAP1 DIV DUP2 AND PUSH1 0x20 DUP5 ADD MSTORE PUSH1 0x2 SLOAD AND SWAP3 DUP3 ADD SWAP3 SWAP1 SWAP3 MSTORE PUSH1 0x3 SLOAD PUSH1 0x60 DUP3 ADD MSTORE PUSH1 0x4 SLOAD PUSH1 0x80 DUP3 ADD MSTORE PUSH1 0x5 SLOAD PUSH1 0xA0 DUP3 ADD MSTORE PUSH1 0x6 SLOAD PUSH1 0xC0 DUP3 ADD MSTORE PUSH1 0x7 SLOAD PUSH1 0xE0 DUP3 ADD MSTORE PUSH1 0x8 SLOAD SWAP2 DUP2 ADD SWAP2 SWAP1 SWAP2 MSTORE PUSH1 0x9 SLOAD PUSH2 0x120 DUP3 ADD MSTORE PUSH1 0xB SLOAD PUSH2 0x140 DUP3 ADD MSTORE PUSH1 0xC SLOAD PUSH2 0x160 DUP3 ADD MSTORE PUSH1 0xD SLOAD PUSH2 0x180 DUP3 ADD MSTORE SWAP1 JUMP JUMPDEST PUSH1 0x0 PUSH2 0xB5E PUSH2 0x988 DUP5 PUSH11 0x8000000000000000000000 PUSH2 0xEB7 JUMP JUMPDEST PUSH6 0x10000000000 MUL SWAP4 SWAP3 POP POP POP JUMP JUMPDEST PUSH1 0x0 DUP1 PUSH2 0xB80 DUP8 DUP8 DUP8 DUP7 PUSH1 0xE0 ADD MLOAD PUSH2 0x1072 JUMP JUMPDEST SWAP2 POP PUSH1 0x0 DUP3 DUP2 PUSH2 0xB96 DUP11 DUP9 PUSH4 0xFFFFFFFF PUSH2 0xCC5 AND JUMP JUMPDEST SWAP1 POP PUSH1 0x0 JUMPDEST PUSH1 0x14 DUP2 LT ISZERO PUSH2 0xC62 JUMPI PUSH1 0x0 PUSH2 0xBB0 DUP6 DUP6 PUSH2 0x116B JUMP JUMPDEST SWAP1 POP PUSH1 0x0 PUSH2 0xBCC PUSH2 0xBC7 DUP4 DUP14 PUSH4 0xFFFFFFFF PUSH2 0xB44 AND JUMP JUMPDEST PUSH2 0x1193 JUMP JUMPDEST SWAP1 POP PUSH1 0x0 PUSH2 0xC03 PUSH2 0xBE3 DUP13 DUP6 PUSH4 0xFFFFFFFF PUSH2 0xC72 AND JUMP JUMPDEST PUSH2 0xBF7 DUP6 PUSH2 0x562 DUP10 DUP8 PUSH4 0xFFFFFFFF PUSH2 0xC72 AND JUMP JUMPDEST SWAP1 PUSH4 0xFFFFFFFF PUSH2 0xCC5 AND JUMP JUMPDEST SWAP1 POP PUSH32 0x4ADD19BBBE358CAF4AF4A31B1299356FC4DCCF8B4CF3C87E401B0FA60062F31E DUP3 DUP5 DUP4 PUSH1 0x40 MLOAD PUSH2 0xC38 SWAP4 SWAP3 SWAP2 SWAP1 PUSH2 0x20F5 JUMP JUMPDEST PUSH1 0x40 MLOAD DUP1 SWAP2 SUB SWAP1 LOG1 DUP13 DUP2 SGT ISZERO PUSH2 0xC50 JUMPI DUP3 SWAP6 POP PUSH2 0xC54 JUMP JUMPDEST DUP3 SWAP7 POP JUMPDEST POP POP POP DUP1 PUSH1 0x1 ADD SWAP1 POP PUSH2 0xB9B JUMP JUMPDEST POP SWAP2 SWAP3 POP POP POP SWAP6 POP SWAP6 SWAP4 POP POP POP POP JUMP JUMPDEST PUSH1 0x0 PUSH16 0x80000000000000000000000000000000 DUP3 ISZERO PUSH2 0xCA4 JUMPI POP PUSH6 0x10000000000 SWAP1 SWAP2 SDIV SWAP1 PUSH11 0x8000000000000000000000 JUMPDEST PUSH1 0x0 PUSH2 0xCB0 DUP6 DUP6 PUSH2 0xEB7 JUMP JUMPDEST SWAP1 POP DUP2 DUP2 DUP2 PUSH2 0xCBB JUMPI INVALID JUMPDEST SDIV SWAP6 SWAP5 POP POP POP POP POP JUMP JUMPDEST PUSH1 0x0 PUSH2 0x98E DUP4 DUP4 PUSH2 0xFFC JUMP JUMPDEST PUSH2 0x23A SWAP1 JUMP JUMPDEST PUSH1 0x0 DUP1 PUSH2 0xCE5 DUP8 DUP8 SUB PUSH2 0x898 JUMP JUMPDEST SWAP1 POP PUSH1 0x0 PUSH2 0xD0A PUSH2 0xD05 PUSH2 0xCF8 DUP9 PUSH2 0x1242 JUMP JUMPDEST DUP5 SWAP1 PUSH4 0xFFFFFFFF PUSH2 0xC72 AND JUMP JUMPDEST PUSH2 0x192C JUMP JUMPDEST SWAP1 POP PUSH1 0x0 PUSH2 0xD1A DUP3 PUSH2 0x1BC PUSH2 0x9B4 JUMP JUMPDEST SWAP1 POP PUSH1 0x0 PUSH2 0xD2E DUP8 DUP4 PUSH4 0xFFFFFFFF PUSH2 0xC72 AND JUMP JUMPDEST SWAP1 POP PUSH1 0x0 PUSH2 0xD42 DUP8 DUP6 PUSH4 0xFFFFFFFF PUSH2 0xC72 AND JUMP JUMPDEST SWAP1 POP PUSH1 0x0 PUSH2 0xD6E PUSH2 0xD59 DUP6 DUP12 PUSH4 0xFFFFFFFF PUSH2 0xB44 AND JUMP JUMPDEST PUSH2 0xD69 DUP8 DUP12 PUSH4 0xFFFFFFFF PUSH2 0xB44 AND JUMP JUMPDEST PUSH2 0xCC5 JUMP JUMPDEST SWAP1 POP PUSH1 0x0 PUSH2 0xD7E DUP3 PUSH2 0x4E3 PUSH2 0x9B4 JUMP JUMPDEST SWAP1 POP PUSH1 0x0 PUSH2 0xDA3 PUSH2 0xD8F PUSH1 0x2 PUSH2 0xA82 JUMP JUMPDEST PUSH2 0x4E3 DUP5 PUSH2 0xBF7 DUP10 DUP10 PUSH4 0xFFFFFFFF PUSH2 0xCC5 AND JUMP JUMPDEST SWAP15 SWAP14 POP POP POP POP POP POP POP POP POP POP POP POP POP POP JUMP JUMPDEST DUP1 MLOAD PUSH1 0x1 DUP1 SLOAD PUSH1 0x20 DUP5 ADD MLOAD PUSH32 0xFFFFFFFFFFFFFFFFFFFFFFFFFFFFFFFFFFFFFFFFFFFFFFFFFFFFFFFFFFFFFF00 SWAP1 SWAP2 AND SWAP3 ISZERO ISZERO SWAP3 SWAP1 SWAP3 OR PUSH32 0xFFFFFFFFFFFFFFFFFFFFFF0000000000000000000000000000000000000000FF AND PUSH2 0x100 PUSH20 0xFFFFFFFFFFFFFFFFFFFFFFFFFFFFFFFFFFFFFFFF SWAP4 DUP5 AND DUP2 MUL SWAP2 SWAP1 SWAP2 OR SWAP1 SWAP2 SSTORE PUSH1 0x40 DUP4 ADD MLOAD PUSH1 0x2 DUP1 SLOAD PUSH32 0xFFFFFFFFFFFFFFFFFFFFFFFF0000000000000000000000000000000000000000 AND SWAP2 SWAP1 SWAP4 AND OR SWAP1 SWAP2 SSTORE PUSH1 0x60 DUP3 ADD MLOAD PUSH1 0x3 SSTORE PUSH1 0x80 DUP3 ADD MLOAD PUSH1 0x4 SSTORE PUSH1 0xA0 DUP3 ADD MLOAD PUSH1 0x5 SSTORE PUSH1 0xC0 DUP3 ADD MLOAD PUSH1 0x6 SSTORE PUSH1 0xE0 DUP3 ADD MLOAD PUSH1 0x7 SSTORE DUP2 ADD MLOAD PUSH1 0x8 SSTORE PUSH2 0x120 DUP2 ADD MLOAD PUSH1 0x9 SSTORE PUSH2 0x140 DUP2 ADD MLOAD PUSH1 0xB SSTORE PUSH2 0x160 DUP2 ADD MLOAD PUSH1 0xC SSTORE PUSH2 0x180 ADD MLOAD PUSH1 0xD SSTORE JUMP JUMPDEST PUSH1 0x0 DUP3 ISZERO DUP1 PUSH2 0xEC4 JUMPI POP DUP2 ISZERO JUMPDEST ISZERO PUSH2 0xED1 JUMPI POP PUSH1 0x0 PUSH2 0x8EE JUMP JUMPDEST POP DUP2 DUP2 MUL DUP2 DUP4 DUP3 DUP2 PUSH2 0xEDF JUMPI INVALID JUMPDEST SDIV EQ ISZERO DUP1 PUSH2 0xEF6 JUMPI POP DUP3 DUP3 DUP3 DUP2 PUSH2 0xEF2 JUMPI INVALID JUMPDEST SDIV EQ ISZERO JUMPDEST ISZERO PUSH2 0x8EE JUMPI PUSH1 0x40 MLOAD PUSH32 0x8C379A000000000000000000000000000000000000000000000000000000000 DUP2 MSTORE PUSH1 0x4 ADD PUSH2 0x288 SWAP1 PUSH2 0x2384 JUMP JUMPDEST PUSH1 0x0 DUP2 PUSH2 0xF66 JUMPI PUSH1 0x40 MLOAD PUSH32 0x8C379A000000000000000000000000000000000000000000000000000000000 DUP2 MSTORE PUSH1 0x4 ADD PUSH2 0x288 SWAP1 PUSH2 0x2486 JUMP JUMPDEST PUSH32 0x8000000000000000000000000000000000000000000000000000000000000000 DUP4 EQ DUP1 ISZERO PUSH2 0xFB4 JUMPI POP DUP2 PUSH32 0xFFFFFFFFFFFFFFFFFFFFFFFFFFFFFFFFFFFFFFFFFFFFFFFFFFFFFFFFFFFFFFFF EQ JUMPDEST ISZERO PUSH2 0xFEB JUMPI PUSH1 0x40 MLOAD PUSH32 0x8C379A000000000000000000000000000000000000000000000000000000000 DUP2 MSTORE PUSH1 0x4 ADD PUSH2 0x288 SWAP1 PUSH2 0x24BD JUMP JUMPDEST DUP2 DUP4 DUP2 PUSH2 0xFF4 JUMPI INVALID JUMPDEST SDIV SWAP4 SWAP3 POP POP POP JUMP JUMPDEST DUP2 DUP2 ADD PUSH1 0x0 DUP4 SLT DUP1 ISZERO PUSH2 0x100F JUMPI POP PUSH1 0x0 DUP3 SLT JUMPDEST DUP1 ISZERO PUSH2 0x101A JUMPI POP DUP3 DUP2 SGT JUMPDEST DUP1 PUSH2 0x103B JUMPI POP PUSH1 0x0 DUP4 SGT DUP1 ISZERO PUSH2 0x1030 JUMPI POP PUSH1 0x0 DUP3 SGT JUMPDEST DUP1 ISZERO PUSH2 0x103B JUMPI POP DUP3 DUP2 SLT JUMPDEST ISZERO PUSH2 0x8EE JUMPI PUSH1 0x40 MLOAD PUSH32 0x8C379A000000000000000000000000000000000000000000000000000000000 DUP2 MSTORE PUSH1 0x4 ADD PUSH2 0x288 SWAP1 PUSH2 0x23BB JUMP JUMPDEST PUSH1 0x0 DUP1 PUSH2 0x1085 DUP5 DUP8 PUSH4 0xFFFFFFFF PUSH2 0xC72 AND JUMP JUMPDEST SWAP1 POP PUSH1 0x0 PUSH2 0x1099 DUP7 DUP4 PUSH4 0xFFFFFFFF PUSH2 0xB44 AND JUMP JUMPDEST SWAP1 POP PUSH1 0x0 PUSH2 0x10AD DUP4 DUP9 PUSH4 0xFFFFFFFF PUSH2 0xB44 AND JUMP JUMPDEST SWAP1 POP PUSH1 0x0 PUSH2 0x10BD DUP7 PUSH2 0x1BC PUSH2 0x9B4 JUMP JUMPDEST SWAP1 POP PUSH1 0x0 PUSH2 0x10C9 PUSH2 0x9B4 JUMP JUMPDEST DUP5 SLT ISZERO PUSH2 0x10E7 JUMPI PUSH2 0x10E0 PUSH2 0xD05 DUP4 PUSH2 0x562 DUP8 PUSH2 0x1242 JUMP JUMPDEST SWAP1 POP PUSH2 0x1105 JUMP JUMPDEST PUSH2 0x1102 PUSH2 0x10FA PUSH2 0xD05 DUP5 PUSH2 0x562 DUP8 PUSH2 0x1242 JUMP JUMPDEST PUSH2 0x4E3 PUSH2 0x9B4 JUMP JUMPDEST SWAP1 POP JUMPDEST PUSH2 0x1115 DUP2 DUP10 PUSH4 0xFFFFFFFF PUSH2 0xC72 AND JUMP JUMPDEST SWAP6 POP PUSH32 0x3CF9BD989028BFC957CA46FD34C8ED26F90D849442378EE442FCD56CF5CAC44F DUP11 DUP11 DUP11 DUP11 PUSH2 0x1145 DUP12 PUSH2 0x1F3A JUMP JUMPDEST PUSH1 0x40 MLOAD PUSH2 0x1156 SWAP6 SWAP5 SWAP4 SWAP3 SWAP2 SWAP1 PUSH2 0x2126 JUMP JUMPDEST PUSH1 0x40 MLOAD DUP1 SWAP2 SUB SWAP1 LOG1 POP POP POP POP POP SWAP5 SWAP4 POP POP POP POP JUMP JUMPDEST PUSH1 0x0 PUSH2 0x98E PUSH2 0x1183 PUSH2 0x117B PUSH2 0x9B4 JUMP JUMPDEST PUSH2 0xBF7 PUSH2 0x9B4 JUMP JUMPDEST PUSH2 0x4E3 DUP6 DUP6 PUSH4 0xFFFFFFFF PUSH2 0xCC5 AND JUMP JUMPDEST PUSH1 0x0 DUP1 PUSH2 0x11A6 DUP4 DUP1 PUSH4 0xFFFFFFFF PUSH2 0xC72 AND JUMP JUMPDEST SWAP1 POP PUSH1 0x0 PUSH2 0x11BA DUP5 DUP4 PUSH4 0xFFFFFFFF PUSH2 0xC72 AND JUMP JUMPDEST SWAP1 POP PUSH1 0x0 PUSH2 0x11CE DUP3 DUP1 PUSH4 0xFFFFFFFF PUSH2 0xC72 AND JUMP JUMPDEST SWAP1 POP PUSH1 0x0 PUSH2 0x11E2 DUP3 DUP1 PUSH4 0xFFFFFFFF PUSH2 0xC72 AND JUMP JUMPDEST SWAP1 POP PUSH1 0x0 PUSH2 0x11F6 DUP3 DUP1 PUSH4 0xFFFFFFFF PUSH2 0xC72 AND JUMP JUMPDEST SWAP1 POP PUSH1 0x0 PUSH2 0x120A DUP3 DUP1 PUSH4 0xFFFFFFFF PUSH2 0xC72 AND JUMP JUMPDEST SWAP1 POP PUSH1 0x0 PUSH2 0x121E DUP3 DUP1 PUSH4 0xFFFFFFFF PUSH2 0xC72 AND JUMP JUMPDEST SWAP1 POP PUSH1 0x0 PUSH2 0x1232 DUP3 DUP9 PUSH4 0xFFFFFFFF PUSH2 0xC72 AND JUMP JUMPDEST SWAP9 POP POP POP POP POP POP POP POP POP JUMPDEST SWAP2 SWAP1 POP JUMP JUMPDEST PUSH1 0x0 PUSH16 0x80000000000000000000000000000000 DUP3 SGT ISZERO PUSH2 0x128E JUMPI PUSH1 0x40 MLOAD PUSH32 0x8C379A000000000000000000000000000000000000000000000000000000000 DUP2 MSTORE PUSH1 0x4 ADD PUSH2 0x288 SWAP1 PUSH2 0x2282 JUMP JUMPDEST PUSH1 0x0 DUP3 SGT PUSH2 0x12C8 JUMPI PUSH1 0x40 MLOAD PUSH32 0x8C379A000000000000000000000000000000000000000000000000000000000 DUP2 MSTORE PUSH1 0x4 ADD PUSH2 0x288 SWAP1 PUSH2 0x2149 JUMP JUMPDEST PUSH16 0x80000000000000000000000000000000 DUP3 EQ ISZERO PUSH2 0x12E8 JUMPI POP PUSH1 0x0 PUSH2 0x123D JUMP JUMPDEST PUSH5 0x733048C5A DUP3 SGT PUSH2 0x131B JUMPI POP PUSH32 0xFFFFFFFFFFFFFFFFFFFFFFFFFFFFFFE010000000000000000000000000000000 PUSH2 0x123D JUMP JUMPDEST PUSH1 0x0 DUP1 PUSH1 0x0 PUSH11 0x1C8464F76164760000000 DUP6 SGT PUSH2 0x137A JUMPI PUSH32 0xFFFFFFFFFFFFFFFFFFFFFFFFFFFFFFF000000000000000000000000000000000 SWAP1 SWAP4 ADD SWAP3 PUSH11 0x1C8464F76164760000000 PUSH16 0x80000000000000000000000000000000 DUP7 MUL SDIV SWAP5 POP JUMPDEST PUSH13 0xF1AADDD7742E90000000000000 DUP6 SGT PUSH2 0x13D8 JUMPI PUSH32 0xFFFFFFFFFFFFFFFFFFFFFFFFFFFFFFF800000000000000000000000000000000 SWAP1 SWAP4 ADD SWAP3 PUSH13 0xF1AADDD7742E90000000000000 PUSH16 0x80000000000000000000000000000000 DUP7 MUL SDIV SWAP5 POP JUMPDEST PUSH15 0xAFE10820813D78000000000000000 DUP6 SGT PUSH2 0x143A JUMPI PUSH32 0xFFFFFFFFFFFFFFFFFFFFFFFFFFFFFFFC00000000000000000000000000000000 SWAP1 SWAP4 ADD SWAP3 PUSH15 0xAFE10820813D78000000000000000 PUSH16 0x80000000000000000000000000000000 DUP7 MUL SDIV SWAP5 POP JUMPDEST PUSH16 0x2582AB704279EC00000000000000000 DUP6 SGT PUSH2 0x149E JUMPI PUSH32 0xFFFFFFFFFFFFFFFFFFFFFFFFFFFFFFFE00000000000000000000000000000000 SWAP1 SWAP4 ADD SWAP3 PUSH16 0x2582AB704279EC00000000000000000 PUSH16 0x80000000000000000000000000000000 DUP7 MUL SDIV SWAP5 POP JUMPDEST PUSH16 0x1152AAA3BF81CC000000000000000000 DUP6 SGT PUSH2 0x1502 JUMPI PUSH32 0xFFFFFFFFFFFFFFFFFFFFFFFFFFFFFFFF00000000000000000000000000000000 SWAP1 SWAP4 ADD SWAP3 PUSH16 0x1152AAA3BF81CC000000000000000000 PUSH16 0x80000000000000000000000000000000 DUP7 MUL SDIV SWAP5 POP JUMPDEST PUSH16 0x2F16AC6C59DE70000000000000000000 DUP6 SGT PUSH2 0x1566 JUMPI PUSH32 0xFFFFFFFFFFFFFFFFFFFFFFFFFFFFFFFF80000000000000000000000000000000 SWAP1 SWAP4 ADD SWAP3 PUSH16 0x2F16AC6C59DE70000000000000000000 PUSH16 0x80000000000000000000000000000000 DUP7 MUL SDIV SWAP5 POP JUMPDEST PUSH16 0x4DA2CBF1BE5828000000000000000000 DUP6 SGT PUSH2 0x15CA JUMPI PUSH32 0xFFFFFFFFFFFFFFFFFFFFFFFFFFFFFFFFC0000000000000000000000000000000 SWAP1 SWAP4 ADD SWAP3 PUSH16 0x4DA2CBF1BE5828000000000000000000 PUSH16 0x80000000000000000000000000000000 DUP7 MUL SDIV SWAP5 POP JUMPDEST PUSH16 0x63AFBE7AB2082C000000000000000000 DUP6 SGT PUSH2 0x162E JUMPI PUSH32 0xFFFFFFFFFFFFFFFFFFFFFFFFFFFFFFFFE0000000000000000000000000000000 SWAP1 SWAP4 ADD SWAP3 PUSH16 0x63AFBE7AB2082C000000000000000000 PUSH16 0x80000000000000000000000000000000 DUP7 MUL SDIV SWAP5 POP JUMPDEST PUSH16 0x70F5A893B608861E1F58934F97AEA57D DUP6 SGT PUSH2 0x1692 JUMPI PUSH32 0xFFFFFFFFFFFFFFFFFFFFFFFFFFFFFFFFF0000000000000000000000000000000 SWAP1 SWAP4 ADD SWAP3 PUSH16 0x70F5A893B608861E1F58934F97AEA57D PUSH16 0x80000000000000000000000000000000 DUP7 MUL SDIV SWAP5 POP JUMPDEST PUSH32 0xFFFFFFFFFFFFFFFFFFFFFFFFFFFFFFFF80000000000000000000000000000000 DUP6 ADD SWAP3 POP DUP3 SWAP2 POP PUSH16 0x80000000000000000000000000000000 DUP3 DUP1 MUL SDIV SWAP1 POP PUSH17 0x100000000000000000000000000000000 DUP4 DUP2 SUB DUP4 MUL SDIV DUP5 ADD SWAP4 POP PUSH16 0x80000000000000000000000000000000 DUP2 DUP4 MUL DUP2 PUSH2 0x1708 JUMPI INVALID JUMPDEST SDIV SWAP2 POP PUSH17 0x200000000000000000000000000000000 DUP4 PUSH16 0xAAAAAAAAAAAAAAAAAAAAAAAAAAAAAAAA SUB DUP4 MUL DUP2 PUSH2 0x1739 JUMPI INVALID JUMPDEST SDIV DUP5 ADD SWAP4 POP PUSH16 0x80000000000000000000000000000000 DUP2 DUP4 MUL DUP2 PUSH2 0x1759 JUMPI INVALID JUMPDEST SDIV SWAP2 POP PUSH17 0x300000000000000000000000000000000 DUP4 PUSH16 0x99999999999999999999999999999999 SUB DUP4 MUL DUP2 PUSH2 0x178A JUMPI INVALID JUMPDEST SDIV DUP5 ADD SWAP4 POP PUSH16 0x80000000000000000000000000000000 DUP2 DUP4 MUL DUP2 PUSH2 0x17AA JUMPI INVALID JUMPDEST SDIV SWAP2 POP PUSH17 0x400000000000000000000000000000000 DUP4 PUSH16 0x92492492492492492492492492492492 SUB DUP4 MUL DUP2 PUSH2 0x17DB JUMPI INVALID JUMPDEST SDIV DUP5 ADD SWAP4 POP PUSH16 0x80000000000000000000000000000000 DUP2 DUP4 MUL DUP2 PUSH2 0x17FB JUMPI INVALID JUMPDEST SDIV SWAP2 POP PUSH17 0x500000000000000000000000000000000 DUP4 PUSH16 0x8E38E38E38E38E38E38E38E38E38E38E SUB DUP4 MUL DUP2 PUSH2 0x182C JUMPI INVALID JUMPDEST SDIV DUP5 ADD SWAP4 POP PUSH16 0x80000000000000000000000000000000 DUP2 DUP4 MUL DUP2 PUSH2 0x184C JUMPI INVALID JUMPDEST SDIV SWAP2 POP PUSH17 0x600000000000000000000000000000000 DUP4 PUSH16 0x8BA2E8BA2E8BA2E8BA2E8BA2E8BA2E8B SUB DUP4 MUL DUP2 PUSH2 0x187D JUMPI INVALID JUMPDEST SDIV DUP5 ADD SWAP4 POP PUSH16 0x80000000000000000000000000000000 DUP2 DUP4 MUL DUP2 PUSH2 0x189D JUMPI INVALID JUMPDEST SDIV SWAP2 POP PUSH17 0x700000000000000000000000000000000 DUP4 PUSH16 0x89D89D89D89D89D89D89D89D89D89D89 SUB DUP4 MUL DUP2 PUSH2 0x18CE JUMPI INVALID JUMPDEST SDIV DUP5 ADD SWAP4 POP PUSH16 0x80000000000000000000000000000000 DUP2 DUP4 MUL DUP2 PUSH2 0x18EE JUMPI INVALID JUMPDEST SDIV SWAP2 POP PUSH17 0x800000000000000000000000000000000 DUP4 PUSH16 0x88888888888888888888888888888888 SUB DUP4 MUL DUP2 PUSH2 0x191F JUMPI INVALID JUMPDEST SDIV DUP5 ADD SWAP4 POP POP POP POP SWAP2 SWAP1 POP JUMP JUMPDEST PUSH1 0x0 PUSH32 0xFFFFFFFFFFFFFFFFFFFFFFFFFFFFFFE010000000000000000000000000000000 DUP3 SLT ISZERO PUSH2 0x195E JUMPI POP PUSH1 0x0 PUSH2 0x123D JUMP JUMPDEST DUP2 PUSH2 0x197A JUMPI POP PUSH16 0x80000000000000000000000000000000 PUSH2 0x123D JUMP JUMPDEST PUSH1 0x0 DUP3 SGT ISZERO PUSH2 0x19B5 JUMPI PUSH1 0x40 MLOAD PUSH32 0x8C379A000000000000000000000000000000000000000000000000000000000 DUP2 MSTORE PUSH1 0x4 ADD PUSH2 0x288 SWAP1 PUSH2 0x2316 JUMP JUMPDEST PUSH16 0x80000000000000000000000000000000 PUSH16 0x10000000000000000000000000000000 DUP4 SMOD DUP1 DUP1 MUL DUP3 SWAP1 SDIV PUSH8 0x10E1B3BE415A0000 DUP2 MUL SWAP4 SWAP1 SWAP4 ADD SWAP3 SWAP1 SWAP2 DUP2 DUP4 MUL SDIV SWAP1 POP DUP1 PUSH8 0x5A0913F6B1E0000 MUL DUP4 ADD SWAP3 POP PUSH16 0x80000000000000000000000000000000 DUP3 DUP3 MUL DUP2 PUSH2 0x1A21 JUMPI INVALID JUMPDEST SDIV SWAP1 POP DUP1 PUSH8 0x168244FDAC78000 MUL DUP4 ADD SWAP3 POP PUSH16 0x80000000000000000000000000000000 DUP3 DUP3 MUL DUP2 PUSH2 0x1A4E JUMPI INVALID JUMPDEST SDIV SWAP1 POP DUP1 PUSH7 0x4807432BC18000 MUL DUP4 ADD SWAP3 POP PUSH16 0x80000000000000000000000000000000 DUP3 DUP3 MUL DUP2 PUSH2 0x1A7A JUMPI INVALID JUMPDEST SDIV SWAP1 POP DUP1 PUSH7 0xC0135DCA04000 MUL DUP4 ADD SWAP3 POP PUSH16 0x80000000000000000000000000000000 DUP3 DUP3 MUL DUP2 PUSH2 0x1AA6 JUMPI INVALID JUMPDEST SDIV SWAP1 POP DUP1 PUSH7 0x1B707B1CDC000 MUL DUP4 ADD SWAP3 POP PUSH16 0x80000000000000000000000000000000 DUP3 DUP3 MUL DUP2 PUSH2 0x1AD2 JUMPI INVALID JUMPDEST SDIV SWAP1 POP DUP1 PUSH6 0x36E0F639B800 MUL DUP4 ADD SWAP3 POP PUSH16 0x80000000000000000000000000000000 DUP3 DUP3 MUL DUP2 PUSH2 0x1AFD JUMPI INVALID JUMPDEST SDIV SWAP1 POP DUP1 PUSH6 0x618FEE9F800 MUL DUP4 ADD SWAP3 POP PUSH16 0x80000000000000000000000000000000 DUP3 DUP3 MUL DUP2 PUSH2 0x1B28 JUMPI INVALID JUMPDEST SDIV SWAP1 POP DUP1 PUSH5 0x9C197DCC00 MUL DUP4 ADD SWAP3 POP PUSH16 0x80000000000000000000000000000000 DUP3 DUP3 MUL DUP2 PUSH2 0x1B52 JUMPI INVALID JUMPDEST SDIV SWAP1 POP DUP1 PUSH5 0xE30DCE400 MUL DUP4 ADD SWAP3 POP PUSH16 0x80000000000000000000000000000000 DUP3 DUP3 MUL DUP2 PUSH2 0x1B7C JUMPI INVALID JUMPDEST SDIV SWAP1 POP DUP1 PUSH5 0x12EBD1300 MUL DUP4 ADD SWAP3 POP PUSH16 0x80000000000000000000000000000000 DUP3 DUP3 MUL DUP2 PUSH2 0x1BA6 JUMPI INVALID JUMPDEST SDIV SWAP1 POP DUP1 PUSH4 0x17499F00 MUL DUP4 ADD SWAP3 POP PUSH16 0x80000000000000000000000000000000 DUP3 DUP3 MUL DUP2 PUSH2 0x1BCF JUMPI INVALID JUMPDEST SDIV SWAP1 POP DUP1 PUSH4 0x1A9D480 MUL DUP4 ADD SWAP3 POP PUSH16 0x80000000000000000000000000000000 DUP3 DUP3 MUL DUP2 PUSH2 0x1BF8 JUMPI INVALID JUMPDEST SDIV SWAP1 POP DUP1 PUSH3 0x1C6380 MUL DUP4 ADD SWAP3 POP PUSH16 0x80000000000000000000000000000000 DUP3 DUP3 MUL DUP2 PUSH2 0x1C20 JUMPI INVALID JUMPDEST SDIV SWAP1 POP DUP1 PUSH3 0x1C638 MUL DUP4 ADD SWAP3 POP PUSH16 0x80000000000000000000000000000000 DUP3 DUP3 MUL DUP2 PUSH2 0x1C48 JUMPI INVALID JUMPDEST SDIV SWAP1 POP DUP1 PUSH2 0x1AB8 MUL DUP4 ADD SWAP3 POP PUSH16 0x80000000000000000000000000000000 DUP3 DUP3 MUL DUP2 PUSH2 0x1C6F JUMPI INVALID JUMPDEST SDIV SWAP1 POP DUP1 PUSH2 0x17C MUL DUP4 ADD SWAP3 POP PUSH16 0x80000000000000000000000000000000 DUP3 DUP3 MUL DUP2 PUSH2 0x1C96 JUMPI INVALID JUMPDEST SDIV SWAP1 POP DUP1 PUSH1 0x14 MUL DUP4 ADD SWAP3 POP PUSH16 0x80000000000000000000000000000000 DUP3 DUP3 MUL DUP2 PUSH2 0x1CBC JUMPI INVALID JUMPDEST PUSH1 0x0 SWAP6 SWAP1 SWAP6 SUB SWAP5 PUSH8 0x21C3677C82B40000 SWAP2 SWAP1 SDIV SWAP4 DUP5 ADD SDIV DUP3 ADD PUSH16 0x80000000000000000000000000000000 ADD SWAP3 SWAP1 POP PUSH17 0x1000000000000000000000000000000000 DUP5 AND ISZERO PUSH2 0x1D2B JUMPI PUSH19 0x43CBAF42A000812488FC5C220AD7B97BF6E99E PUSH13 0xF1AADDD7742E56D32FB9F99744 DUP5 MUL SDIV SWAP3 POP JUMPDEST PUSH17 0x800000000000000000000000000000000 DUP5 AND ISZERO PUSH2 0x1D6D JUMPI PUSH18 0x5D27A9F51C31B7C2F8038212A0574779991 PUSH15 0xAFE10820813D65DFE6A33C07F738F DUP5 MUL SDIV SWAP3 POP JUMPDEST PUSH17 0x400000000000000000000000000000000 DUP5 AND ISZERO PUSH2 0x1DAF JUMPI PUSH17 0x1B4C902E273A58678D6D3BFDB93DB96D02 PUSH16 0x2582AB704279E8EFD15E0265855C47A DUP5 MUL SDIV SWAP3 POP JUMPDEST PUSH17 0x200000000000000000000000000000000 DUP5 AND ISZERO PUSH2 0x1DF1 JUMPI PUSH17 0x3B1CC971A9BB5B9867477440D6D157750 PUSH16 0x1152AAA3BF81CB9FDB76EAE12D029571 DUP5 MUL SDIV SWAP3 POP JUMPDEST PUSH17 0x100000000000000000000000000000000 DUP5 AND ISZERO PUSH2 0x1E33 JUMPI PUSH17 0x15BF0A8B1457695355FB8AC404E7A79E3 PUSH16 0x2F16AC6C59DE6F8D5D6F63C1482A7C86 DUP5 MUL SDIV SWAP3 POP JUMPDEST PUSH16 0x80000000000000000000000000000000 DUP5 AND ISZERO PUSH2 0x1E73 JUMPI PUSH16 0xD3094C70F034DE4B96FF7D5B6F99FCD8 PUSH16 0x4DA2CBF1BE5827F9EB3AD1AA9866EBB3 DUP5 MUL SDIV SWAP3 POP JUMPDEST PUSH16 0x40000000000000000000000000000000 DUP5 AND ISZERO PUSH2 0x1EB3 JUMPI PUSH16 0xA45AF1E1F40C333B3DE1DB4DD55F29A7 PUSH16 0x63AFBE7AB2082BA1A0AE5E4EB1B479DC DUP5 MUL SDIV SWAP3 POP JUMPDEST PUSH16 0x20000000000000000000000000000000 DUP5 AND ISZERO PUSH2 0x1EF3 JUMPI PUSH16 0x910B022DB7AE67CE76B441C27035C6A1 PUSH16 0x70F5A893B608861E1F58934F97AEA57D DUP5 MUL SDIV SWAP3 POP JUMPDEST PUSH16 0x10000000000000000000000000000000 DUP5 AND ISZERO PUSH2 0x1F33 JUMPI PUSH16 0x88415ABBE9A76BEAD8D00CF112E4D4A8 PUSH16 0x783EAFEF1C0A8F3978C7F81824D62EBF DUP5 MUL SDIV SWAP3 POP JUMPDEST POP POP SWAP2 SWAP1 POP JUMP JUMPDEST PUSH16 0x80000000000000000000000000000000 SWAP1 SDIV SWAP1 JUMP JUMPDEST PUSH1 0x40 MLOAD DUP1 PUSH2 0x1A0 ADD PUSH1 0x40 MSTORE DUP1 PUSH1 0x0 ISZERO ISZERO DUP2 MSTORE PUSH1 0x20 ADD PUSH1 0x0 PUSH20 0xFFFFFFFFFFFFFFFFFFFFFFFFFFFFFFFFFFFFFFFF AND DUP2 MSTORE PUSH1 0x20 ADD PUSH1 0x0 PUSH20 0xFFFFFFFFFFFFFFFFFFFFFFFFFFFFFFFFFFFFFFFF AND DUP2 MSTORE PUSH1 0x20 ADD PUSH1 0x0 DUP2 MSTORE PUSH1 0x20 ADD PUSH1 0x0 DUP2 MSTORE PUSH1 0x20 ADD PUSH1 0x0 DUP2 MSTORE PUSH1 0x20 ADD PUSH1 0x0 DUP2 MSTORE PUSH1 0x20 ADD PUSH1 0x0 DUP2 MSTORE PUSH1 0x20 ADD PUSH1 0x0 DUP2 MSTORE PUSH1 0x20 ADD PUSH1 0x0 DUP2 MSTORE PUSH1 0x20 ADD PUSH1 0x0 DUP2 MSTORE PUSH1 0x20 ADD PUSH1 0x0 DUP2 MSTORE PUSH1 0x20 ADD PUSH1 0x0 DUP2 MSTORE POP SWAP1 JUMP JUMPDEST PUSH1 0x0 PUSH1 0x20 DUP3 DUP5 SUB SLT ISZERO PUSH2 0x1FF7 JUMPI DUP1 DUP2 REVERT JUMPDEST DUP2 CALLDATALOAD PUSH20 0xFFFFFFFFFFFFFFFFFFFFFFFFFFFFFFFFFFFFFFFF DUP2 AND DUP2 EQ PUSH2 0x98E JUMPI DUP2 DUP3 REVERT JUMPDEST PUSH1 0x0 DUP1 PUSH1 0x0 PUSH1 0x60 DUP5 DUP7 SUB SLT ISZERO PUSH2 0x202E JUMPI DUP2 DUP3 REVERT JUMPDEST DUP4 CALLDATALOAD PUSH2 0x2039 DUP2 PUSH2 0x24F4 JUMP JUMPDEST SWAP3 POP PUSH1 0x20 DUP5 ADD CALLDATALOAD PUSH2 0x2049 DUP2 PUSH2 0x24F4 JUMP JUMPDEST SWAP3 SWAP6 SWAP3 SWAP5 POP POP POP PUSH1 0x40 SWAP2 SWAP1 SWAP2 ADD CALLDATALOAD SWAP1 JUMP JUMPDEST PUSH1 0x0 PUSH1 0x20 DUP3 DUP5 SUB SLT ISZERO PUSH2 0x206B JUMPI DUP1 DUP2 REVERT JUMPDEST POP CALLDATALOAD SWAP2 SWAP1 POP JUMP JUMPDEST PUSH20 0xFFFFFFFFFFFFFFFFFFFFFFFFFFFFFFFFFFFFFFFF SWAP2 SWAP1 SWAP2 AND DUP2 MSTORE PUSH1 0x20 ADD SWAP1 JUMP JUMPDEST PUSH20 0xFFFFFFFFFFFFFFFFFFFFFFFFFFFFFFFFFFFFFFFF SWAP3 DUP4 AND DUP2 MSTORE SWAP2 AND PUSH1 0x20 DUP3 ADD MSTORE PUSH1 0x40 ADD SWAP1 JUMP JUMPDEST PUSH20 0xFFFFFFFFFFFFFFFFFFFFFFFFFFFFFFFFFFFFFFFF SWAP6 SWAP1 SWAP6 AND DUP6 MSTORE PUSH1 0x20 DUP6 ADD SWAP4 SWAP1 SWAP4 MSTORE PUSH1 0x40 DUP5 ADD SWAP2 SWAP1 SWAP2 MSTORE PUSH1 0x60 DUP4 ADD MSTORE PUSH1 0x80 DUP3 ADD MSTORE PUSH1 0xA0 ADD SWAP1 JUMP JUMPDEST SWAP3 DUP4 MSTORE PUSH1 0x20 DUP4 ADD SWAP2 SWAP1 SWAP2 MSTORE PUSH1 0x40 DUP3 ADD MSTORE PUSH1 0x60 ADD SWAP1 JUMP JUMPDEST SWAP4 DUP5 MSTORE PUSH1 0x20 DUP5 ADD SWAP3 SWAP1 SWAP3 MSTORE PUSH1 0x40 DUP4 ADD MSTORE PUSH1 0x60 DUP3 ADD MSTORE PUSH1 0x80 ADD SWAP1 JUMP JUMPDEST SWAP5 DUP6 MSTORE PUSH1 0x20 DUP6 ADD SWAP4 SWAP1 SWAP4 MSTORE PUSH1 0x40 DUP5 ADD SWAP2 SWAP1 SWAP2 MSTORE PUSH1 0x60 DUP4 ADD MSTORE PUSH1 0x80 DUP3 ADD MSTORE PUSH1 0xA0 ADD SWAP1 JUMP JUMPDEST PUSH1 0x20 DUP1 DUP3 MSTORE PUSH1 0x13 SWAP1 DUP3 ADD MSTORE PUSH32 0x6C6E3A2076616C756520746F6F20736D616C6C00000000000000000000000000 PUSH1 0x40 DUP3 ADD MSTORE PUSH1 0x60 ADD SWAP1 JUMP JUMPDEST PUSH1 0x20 DUP1 DUP3 MSTORE PUSH1 0xE SWAP1 DUP3 ADD MSTORE PUSH32 0x4F6E6C794F776E65724572726F72000000000000000000000000000000000000 PUSH1 0x40 DUP3 ADD MSTORE PUSH1 0x60 ADD SWAP1 JUMP JUMPDEST PUSH1 0x20 DUP1 DUP3 MSTORE PUSH1 0x13 SWAP1 DUP3 ADD MSTORE PUSH32 0x416C726561647920496E697469616C697A656400000000000000000000000000 PUSH1 0x40 DUP3 ADD MSTORE PUSH1 0x60 ADD SWAP1 JUMP JUMPDEST PUSH1 0x20 DUP1 DUP3 MSTORE PUSH1 0x17 SWAP1 DUP3 ADD MSTORE PUSH32 0x496E76616C696420746F6B656E20616464726573736573000000000000000000 PUSH1 0x40 DUP3 ADD MSTORE PUSH1 0x60 ADD SWAP1 JUMP JUMPDEST PUSH1 0x20 DUP1 DUP3 MSTORE PUSH1 0x38 SWAP1 DUP3 ADD MSTORE PUSH32 0x746F46697865642875696E742C75696E74293A2064656E6F6D696E61746F7220 PUSH1 0x40 DUP3 ADD MSTORE PUSH32 0x63616E6E6F74206265206C657373207468616E207A65726F0000000000000000 PUSH1 0x60 DUP3 ADD MSTORE PUSH1 0x80 ADD SWAP1 JUMP JUMPDEST PUSH1 0x20 DUP1 DUP3 MSTORE PUSH1 0x13 SWAP1 DUP3 ADD MSTORE PUSH32 0x6C6E3A2076616C756520746F6F206C6172676500000000000000000000000000 PUSH1 0x40 DUP3 ADD MSTORE PUSH1 0x60 ADD SWAP1 JUMP JUMPDEST PUSH1 0x20 DUP1 DUP3 MSTORE PUSH1 0x27 SWAP1 DUP3 ADD MSTORE PUSH32 0x746F46697865643A2076616C75652063616E6E6F74206265206C657373207468 PUSH1 0x40 DUP3 ADD MSTORE PUSH32 0x616E207A65726F00000000000000000000000000000000000000000000000000 PUSH1 0x60 DUP3 ADD MSTORE PUSH1 0x80 ADD SWAP1 JUMP JUMPDEST PUSH1 0x20 DUP1 DUP3 MSTORE PUSH1 0x14 SWAP1 DUP3 ADD MSTORE PUSH32 0x6578703A2076616C756520746F6F20736D616C6C000000000000000000000000 PUSH1 0x40 DUP3 ADD MSTORE PUSH1 0x60 ADD SWAP1 JUMP JUMPDEST PUSH1 0x20 DUP1 DUP3 MSTORE PUSH1 0x18 SWAP1 DUP3 ADD MSTORE PUSH32 0x5472616E736665724F776E6572546F5A65726F4572726F720000000000000000 PUSH1 0x40 DUP3 ADD MSTORE PUSH1 0x60 ADD SWAP1 JUMP JUMPDEST PUSH1 0x20 DUP1 DUP3 MSTORE PUSH1 0xE SWAP1 DUP3 ADD MSTORE PUSH32 0x5F6D756C3A206F766572666C6F77000000000000000000000000000000000000 PUSH1 0x40 DUP3 ADD MSTORE PUSH1 0x60 ADD SWAP1 JUMP JUMPDEST PUSH1 0x20 DUP1 DUP3 MSTORE PUSH1 0xE SWAP1 DUP3 ADD MSTORE PUSH32 0x5F6164643A206F766572666C6F77000000000000000000000000000000000000 PUSH1 0x40 DUP3 ADD MSTORE PUSH1 0x60 ADD SWAP1 JUMP JUMPDEST PUSH1 0x20 DUP1 DUP3 MSTORE PUSH1 0x14 SWAP1 DUP3 ADD MSTORE PUSH32 0x7375623A2076616C756520746F6F20736D616C6C000000000000000000000000 PUSH1 0x40 DUP3 ADD MSTORE PUSH1 0x60 ADD SWAP1 JUMP JUMPDEST PUSH1 0x20 DUP1 DUP3 MSTORE PUSH1 0x36 SWAP1 DUP3 ADD MSTORE PUSH32 0x746F46697865642875696E742C75696E74293A206E756D657261746F72206361 PUSH1 0x40 DUP3 ADD MSTORE PUSH32 0x6E6E6F74206265206C657373207468616E207A65726F00000000000000000000 PUSH1 0x60 DUP3 ADD MSTORE PUSH1 0x80 ADD SWAP1 JUMP JUMPDEST PUSH1 0x20 DUP1 DUP3 MSTORE PUSH1 0x14 SWAP1 DUP3 ADD MSTORE PUSH32 0x5F6469763A20646976696465206279207A65726F000000000000000000000000 PUSH1 0x40 DUP3 ADD MSTORE PUSH1 0x60 ADD SWAP1 JUMP JUMPDEST PUSH1 0x20 DUP1 DUP3 MSTORE PUSH1 0xE SWAP1 DUP3 ADD MSTORE PUSH32 0x5F6469763A206F766572666C6F77000000000000000000000000000000000000 PUSH1 0x40 DUP3 ADD MSTORE PUSH1 0x60 ADD SWAP1 JUMP JUMPDEST PUSH20 0xFFFFFFFFFFFFFFFFFFFFFFFFFFFFFFFFFFFFFFFF DUP2 AND DUP2 EQ PUSH2 0x240 JUMPI PUSH1 0x0 DUP1 REVERT INVALID LOG3 PUSH6 0x627A7A723158 KECCAK256 0x4F PUSH2 0xB143 0xBB DIV 0xDC 0xDC 0xF8 0xCD 0x27 0xBD PUSH20 0xFA44889AF7E3408BDE01DA38B962CA660F52686C PUSH6 0x78706572696D PUSH6 0x6E74616CF564 PUSH20 0x6F6C634300050D00400000000000000000000000 "
			}
		}
	},
	"sourceTreeHashHex": "0xa133e9c5fd9a392bb1d675f9e32a770956826f230eb2114ad892ad47d17e9195",
	"compiler": {
		"name": "solc",
		"version": "soljson-v0.5.13+commit.5b0b510c.js",
		"settings": {
			"optimizer": {
				"enabled": true,
				"runs": 1000000,
				"details": {
					"yul": true,
					"deduplicate": true,
					"cse": true,
					"constantOptimizer": true
				}
			},
			"outputSelection": {
				"*": {
					"*": [
						"abi",
						"devdoc",
						"evm.bytecode.object",
						"evm.bytecode.sourceMap",
						"evm.deployedBytecode.object",
						"evm.deployedBytecode.sourceMap"
					]
				}
			},
			"evmVersion": "constantinople",
			"remappings": []
		}
	},
	"chains": {}
}