{
	"schemaVersion": "2.0.0",
	"contractName": "TestScam",
	"compilerOutput": {
		"abi": [
			{
				"anonymous": false,
				"inputs": [
					{
						"indexed": false,
						"internalType": "int256",
						"name": "lhs1",
						"type": "int256"
					},
					{
						"indexed": false,
						"internalType": "int256",
						"name": "mid",
						"type": "int256"
					},
					{
						"indexed": false,
						"internalType": "int256",
						"name": "lhs",
						"type": "int256"
					}
				],
				"name": "Bisect",
				"type": "event"
			},
			{
				"anonymous": false,
				"inputs": [
					{
						"indexed": false,
						"internalType": "address",
						"name": "from",
						"type": "address"
					},
					{
						"indexed": false,
						"internalType": "address",
						"name": "fromToken",
						"type": "address"
					},
					{
						"indexed": false,
						"internalType": "address",
						"name": "toToken",
						"type": "address"
					},
					{
						"indexed": false,
						"internalType": "uint256",
						"name": "amountSpent",
						"type": "uint256"
					},
					{
						"indexed": false,
						"internalType": "uint256",
						"name": "amountReceived",
						"type": "uint256"
					}
				],
				"name": "Fill",
				"type": "event"
			},
			{
				"anonymous": false,
				"inputs": [
					{
						"indexed": false,
						"internalType": "address",
						"name": "from",
						"type": "address"
					},
					{
						"indexed": false,
						"internalType": "int256",
						"name": "amountSpent",
						"type": "int256"
					},
					{
						"indexed": false,
						"internalType": "int256",
						"name": "amountReceived",
						"type": "int256"
					}
				],
				"name": "FillInternal",
				"type": "event"
			},
			{
				"anonymous": false,
				"inputs": [
					{
						"indexed": false,
						"internalType": "address",
						"name": "oldOwner",
						"type": "address"
					},
					{
						"indexed": false,
						"internalType": "address",
						"name": "newOwner",
						"type": "address"
					}
				],
				"name": "OwnershipTransferred",
				"type": "event"
			},
			{
				"anonymous": false,
				"inputs": [
					{
						"indexed": false,
						"internalType": "int256",
						"name": "price",
						"type": "int256"
					},
					{
						"indexed": false,
						"internalType": "int256",
						"name": "deltaB",
						"type": "int256"
					},
					{
						"indexed": false,
						"internalType": "int256",
						"name": "newPBarX",
						"type": "int256"
					},
					{
						"indexed": false,
						"internalType": "int256",
						"name": "pA",
						"type": "int256"
					}
				],
				"name": "Price",
				"type": "event"
			},
			{
				"constant": false,
				"inputs": [
					{
						"internalType": "uint256",
						"name": "amount",
						"type": "uint256"
					}
				],
				"name": "addLiquidity",
				"outputs": [],
				"payable": false,
				"stateMutability": "nonpayable",
				"type": "function"
			},
			{
				"constant": false,
				"inputs": [],
				"name": "initState",
				"outputs": [],
				"payable": false,
				"stateMutability": "nonpayable",
				"type": "function"
			},
			{
				"constant": true,
				"inputs": [],
				"name": "owner",
				"outputs": [
					{
						"internalType": "address",
						"name": "",
						"type": "address"
					}
				],
				"payable": false,
				"stateMutability": "view",
				"type": "function"
			},
			{
				"constant": false,
				"inputs": [
					{
						"internalType": "uint256",
						"name": "amount",
						"type": "uint256"
					}
				],
				"name": "removeLiquidity",
				"outputs": [],
				"payable": false,
				"stateMutability": "nonpayable",
				"type": "function"
			},
			{
				"constant": false,
				"inputs": [],
				"name": "runBasicTest",
				"outputs": [],
				"payable": false,
				"stateMutability": "nonpayable",
				"type": "function"
			},
			{
				"constant": false,
				"inputs": [],
				"name": "runBasicTestPeter",
				"outputs": [],
				"payable": false,
				"stateMutability": "nonpayable",
				"type": "function"
			},
			{
				"constant": false,
				"inputs": [
					{
						"internalType": "address",
						"name": "fromToken",
						"type": "address"
					},
					{
						"internalType": "address",
						"name": "toToken",
						"type": "address"
					},
					{
						"internalType": "uint256",
						"name": "amount",
						"type": "uint256"
					}
				],
				"name": "swap",
				"outputs": [
					{
						"internalType": "uint256",
						"name": "amountReceived",
						"type": "uint256"
					}
				],
				"payable": false,
				"stateMutability": "nonpayable",
				"type": "function"
			},
			{
				"constant": false,
				"inputs": [
					{
						"internalType": "address",
						"name": "newOwner",
						"type": "address"
					}
				],
				"name": "transferOwnership",
				"outputs": [],
				"payable": false,
				"stateMutability": "nonpayable",
				"type": "function"
			}
		],
		"devdoc": {
			"methods": {}
		},
		"evm": {
			"bytecode": {
				"linkReferences": {},
				"object": "0x6080604052600080546001600160a01b03191633179055612780806100256000396000f3fe608060405234801561001057600080fd5b50600436106100885760003560e01c8063978ca36f1161005b578063978ca36f146100d05780639c8f9f2314610097578063df791e50146100d8578063f2fde38b146100f857610088565b80633e6ee8d31461008d57806351c6590a146100975780636d83c92c146100aa5780638da5cb5b146100b2575b600080fd5b61009561010b565b005b6100956100a536600461225f565b610259565b61009561025c565b6100ba61026e565b6040516100c79190612277565b60405180910390f35b61009561028a565b6100eb6100e636600461221f565b6103b7565b6040516100c79190612712565b6100956101063660046121eb565b610577565b600180547fffffffffffffffffffffff0000000000000000000000000000000000000000ff16610100179055600280547fffffffffffffffffffffffff0000000000000000000000000000000000000000168117905561016c61c350610649565b60035561017b620186a0610649565b60045561018a606560646106a5565b6005556063600681905561019f9060646106a5565b6007556101af60056127106106a5565b6008556101d76101c36001620f4240610746565b6101cb610765565b9063ffffffff61077916565b600c556101e86127156103e8610746565b600d556001546002546102249173ffffffffffffffffffffffffffffffffffffffff6101009091048116911669021e19e0c9bab24000006103b7565b506002546001546102599173ffffffffffffffffffffffffffffffffffffffff908116916101009004166402540be4006103b7565b50565b6102646107e2565b61026c610833565b565b60005473ffffffffffffffffffffffffffffffffffffffff1681565b600180547fffffffffffffffffffffff0000000000000000000000000000000000000000ff16610100179055600280547fffffffffffffffffffffffff000000000000000000000000000000000000000016811790556102e8610833565b6102f36101f4610649565b6003556103016103e8610649565b60045561023a600e556001546002546103429173ffffffffffffffffffffffffffffffffffffffff61010090910481169116680410d586a20a4c00006103b7565b50610622600e556001546002546103819173ffffffffffffffffffffffffffffffffffffffff610100909104811691166815af1d78b58c4000006103b7565b50610fa0600e556002546001546102599173ffffffffffffffffffffffffffffffffffffffff90811691610100900416630d1cef005b60006103c1612155565b6103c96108f5565b9050806020015173ffffffffffffffffffffffffffffffffffffffff168573ffffffffffffffffffffffffffffffffffffffff161480156104395750806040015173ffffffffffffffffffffffffffffffffffffffff168473ffffffffffffffffffffffffffffffffffffffff16145b15610467576000610454868661044e8761099b565b856109ad565b905061045f81610ce9565b925050610530565b806040015173ffffffffffffffffffffffffffffffffffffffff168573ffffffffffffffffffffffffffffffffffffffff161480156104d55750806020015173ffffffffffffffffffffffffffffffffffffffff168473ffffffffffffffffffffffffffffffffffffffff16145b156104f55760006104ea868661044e87610cf6565b905061045f81610d03565b6040517f08c379a00000000000000000000000000000000000000000000000000000000081526004016105279061240c565b60405180910390fd5b7f256db8090fa51c3bac981768637d5a7c46b5540644dcef89052b89dbb2f6c8ea33868686866040516105679594939291906122bf565b60405180910390a1509392505050565b61057f6107e2565b73ffffffffffffffffffffffffffffffffffffffff81166105cc576040517f08c379a00000000000000000000000000000000000000000000000000000000081526004016105279061256b565b600080547fffffffffffffffffffffffff00000000000000000000000000000000000000001673ffffffffffffffffffffffffffffffffffffffff83161790556040517f8be0079c531659141344cd1fd0a4f28419497f9722a3daafe3b4186f6b6457e09061063e9033908490612298565b60405180910390a150565b600080821215610685576040517f08c379a0000000000000000000000000000000000000000000000000000000008152600401610527906124d7565b61069f826f80000000000000000000000000000000610d10565b92915050565b6000808312156106e1576040517f08c379a000000000000000000000000000000000000000000000000000000000815260040161052790612647565b600082121561071c576040517f08c379a000000000000000000000000000000000000000000000000000000000815260040161052790612443565b61073f610739846f80000000000000000000000000000000610d10565b83610d86565b9392505050565b600061073f610739846f80000000000000000000000000000000610d10565b6f8000000000000000000000000000000090565b60007f80000000000000000000000000000000000000000000000000000000000000008214156107d5576040517f08c379a000000000000000000000000000000000000000000000000000000000815260040161052790612610565b61073f8383600003610e55565b60005473ffffffffffffffffffffffffffffffffffffffff16331461026c576040517f08c379a00000000000000000000000000000000000000000000000000000000081526004016105279061239e565b60015460ff1615610870576040517f08c379a0000000000000000000000000000000000000000000000000000000008152600401610527906123d5565b61087c606360646106a5565b600555606360068190556108919060646106a5565b6007556108a160056127106106a5565b6008556108b56101c36001620f4240610746565b600c556108c66127156103e8610746565b600d55600180547fffffffffffffffffffffffffffffffffffffffffffffffffffffffffffffff001681179055565b6108fd612155565b50604080516101a08101825260015460ff81161515825273ffffffffffffffffffffffffffffffffffffffff610100918290048116602084015260025416928201929092526003546060820152600454608082015260055460a082015260065460c082015260075460e082015260085491810191909152600954610120820152600b54610140820152600c54610160820152600d5461018082015290565b600061069f826012610ecb565b919050565b6020810151600090819081908190819073ffffffffffffffffffffffffffffffffffffffff8a81169116148015610a135750856040015173ffffffffffffffffffffffffffffffffffffffff168873ffffffffffffffffffffffffffffffffffffffff16145b15610a3257505050506060820151608083015160a08401516001610ad2565b856040015173ffffffffffffffffffffffffffffffffffffffff168973ffffffffffffffffffffffffffffffffffffffff16148015610aa05750856020015173ffffffffffffffffffffffffffffffffffffffff168873ffffffffffffffffffffffffffffffffffffffff16145b156104f5578560800151935085606001519250610acf8660a00151610ac3610765565b9063ffffffff610eda16565b91505b600080610ae28686868c8c610f03565b915091506000610b18610afc8a61010001516101cb610765565b610b0c8c8563ffffffff61100816565b9063ffffffff61100816565b9050610b2b60008263ffffffff61077916565b90506000610b3d6001620186a0610746565b90506000821315610b515760009150610b7a565b80610b62888463ffffffff61105b16565b13610b7a57610b77818863ffffffff61077916565b91505b6000610b9a8b6101200151610b8d611067565b8d6101600151888b61106d565b6101808c0151909150610bb3908863ffffffff61100816565b811315610bd7576101808b0151610bd0908863ffffffff61100816565b9050610c0b565b610bec87610b0c8d6101800151610ac3610765565b811215610c0b57610c0887610b0c8d6101800151610ac3610765565b90505b610c13611067565b6101208c01528515610c5557610c2f898d63ffffffff61105b16565b60608c0152610c44888463ffffffff61105b16565b60808c015260a08b01819052610c91565b610c65888463ffffffff61105b16565b60608c0152610c7a898d63ffffffff61105b16565b60808c0152610c8b81610ac3610765565b60a08c01525b610c9a8b61114b565b7f666804e599b015edcfb9de12153bf8a48aa5a84b8861b8fa88c1cf4b11974c15338d85604051610ccd93929190612300565b60405180910390a150506000039b9a5050505050505050505050565b600061069f82600661124d565b600061069f826006610ecb565b600061069f82601261124d565b6000821580610d1d575081155b15610d2a5750600061069f565b5081810281838281610d3857fe5b05141580610d4f575082828281610d4b57fe5b0514155b1561069f576040517f08c379a0000000000000000000000000000000000000000000000000000000008152600401610527906125a2565b600081610dbf576040517f08c379a0000000000000000000000000000000000000000000000000000000008152600401610527906126a4565b7f800000000000000000000000000000000000000000000000000000000000000083148015610e0d5750817fffffffffffffffffffffffffffffffffffffffffffffffffffffffffffffffff145b15610e44576040517f08c379a0000000000000000000000000000000000000000000000000000000008152600401610527906126db565b818381610e4d57fe5b059392505050565b818101600083128015610e685750600082125b8015610e7357508281135b80610e945750600083138015610e895750600082135b8015610e9457508281125b1561069f576040517f08c379a0000000000000000000000000000000000000000000000000000000008152600401610527906125d9565b600061073f8383600a0a6106a5565b6000610ef4610739846a8000000000000000000000610d10565b65010000000000029392505050565b600080610f168787878660e0015161125d565b915060008281610f2c8a8863ffffffff61105b16565b905060005b6014811015610ff8576000610f468585611356565b90506000610f62610f5d838d63ffffffff610eda16565b61137e565b90506000610f99610f798c8563ffffffff61100816565b610f8d85610b0c898763ffffffff61100816565b9063ffffffff61105b16565b90507f4add19bbbe358caf4af4a31b1299356fc4dccf8b4cf3c87e401b0fa60062f31e828483604051610fce9392919061232e565b60405180910390a18c811315610fe657829550610fea565b8296505b505050806001019050610f31565b5091925050509550959350505050565b60006f80000000000000000000000000000000821561103a575065010000000000909105906a80000000000000000000005b60006110468585610d10565b905081818161105157fe5b0595945050505050565b600061073f8383610e55565b600e5490565b60008061107b878703610649565b905060006110a061109b61108e8861142b565b849063ffffffff61100816565b611b15565b905060006110b0826101cb610765565b905060006110c4878363ffffffff61100816565b905060006110d8878563ffffffff61100816565b905060006111046110ef858b63ffffffff610eda16565b6110ff878b63ffffffff610eda16565b61105b565b9050600061111482610ac3610765565b905060006111396111256002612123565b610ac384610f8d898963ffffffff61105b16565b9e9d5050505050505050505050505050565b80516001805460208401517fffffffffffffffffffffffffffffffffffffffffffffffffffffffffffffff00909116921515929092177fffffffffffffffffffffff0000000000000000000000000000000000000000ff1661010073ffffffffffffffffffffffffffffffffffffffff9384168102919091179091556040830151600280547fffffffffffffffffffffffff00000000000000000000000000000000000000001691909316179091556060820151600355608082015160045560a082015160055560c082015160065560e0820151600755810151600855610120810151600955610140810151600b55610160810151600c556101800151600d55565b600061073f82600a0a840261213f565b600080611270848763ffffffff61100816565b90506000611284868363ffffffff610eda16565b90506000611298838863ffffffff610eda16565b905060006112a8866101cb610765565b905060006112b4610765565b8412156112d2576112cb61109b83610b0c8761142b565b90506112f0565b6112ed6112e561109b84610b0c8761142b565b610ac3610765565b90505b611300818963ffffffff61100816565b95507f3cf9bd989028bfc957ca46fd34c8ed26f90d849442378ee442fcd56cf5cac44f8a8a8a8a6113308b61213f565b604051611341959493929190612344565b60405180910390a15050505050949350505050565b600061073f61136e611366610765565b610f8d610765565b610ac3858563ffffffff61105b16565b600080611391838063ffffffff61100816565b905060006113a5848363ffffffff61100816565b905060006113b9828063ffffffff61100816565b905060006113cd828063ffffffff61100816565b905060006113e1828063ffffffff61100816565b905060006113f5828063ffffffff61100816565b90506000611409828063ffffffff61100816565b9050600061141d828863ffffffff61100816565b9a9950505050505050505050565b60006f80000000000000000000000000000000821315611477576040517f08c379a0000000000000000000000000000000000000000000000000000000008152600401610527906124a0565b600082136114b1576040517f08c379a000000000000000000000000000000000000000000000000000000000815260040161052790612367565b6f800000000000000000000000000000008214156114d1575060006109a8565b640733048c5a821361150457507fffffffffffffffffffffffffffffffe0100000000000000000000000000000006109a8565b60008060006a01c8464f761647600000008513611563577ffffffffffffffffffffffffffffffff000000000000000000000000000000000909301926a01c8464f761647600000006f8000000000000000000000000000000086020594505b6cf1aaddd7742e9000000000000085136115c1577ffffffffffffffffffffffffffffffff800000000000000000000000000000000909301926cf1aaddd7742e900000000000006f8000000000000000000000000000000086020594505b6e0afe10820813d780000000000000008513611623577ffffffffffffffffffffffffffffffffc00000000000000000000000000000000909301926e0afe10820813d780000000000000006f8000000000000000000000000000000086020594505b6f02582ab704279ec000000000000000008513611687577ffffffffffffffffffffffffffffffffe00000000000000000000000000000000909301926f02582ab704279ec000000000000000006f8000000000000000000000000000000086020594505b6f1152aaa3bf81cc00000000000000000085136116eb577fffffffffffffffffffffffffffffffff00000000000000000000000000000000909301926f1152aaa3bf81cc0000000000000000006f8000000000000000000000000000000086020594505b6f2f16ac6c59de70000000000000000000851361174f577fffffffffffffffffffffffffffffffff80000000000000000000000000000000909301926f2f16ac6c59de700000000000000000006f8000000000000000000000000000000086020594505b6f4da2cbf1be582800000000000000000085136117b3577fffffffffffffffffffffffffffffffffc0000000000000000000000000000000909301926f4da2cbf1be58280000000000000000006f8000000000000000000000000000000086020594505b6f63afbe7ab2082c0000000000000000008513611817577fffffffffffffffffffffffffffffffffe0000000000000000000000000000000909301926f63afbe7ab2082c0000000000000000006f8000000000000000000000000000000086020594505b6f70f5a893b608861e1f58934f97aea57d851361187b577ffffffffffffffffffffffffffffffffff0000000000000000000000000000000909301926f70f5a893b608861e1f58934f97aea57d6f8000000000000000000000000000000086020594505b7fffffffffffffffffffffffffffffffff80000000000000000000000000000000850192508291506f80000000000000000000000000000000828002059050700100000000000000000000000000000000838103830205840193506f80000000000000000000000000000000818302816118f157fe5b059150700200000000000000000000000000000000836faaaaaaaaaaaaaaaaaaaaaaaaaaaaaaaa0383028161192257fe5b05840193506f800000000000000000000000000000008183028161194257fe5b059150700300000000000000000000000000000000836f999999999999999999999999999999990383028161197357fe5b05840193506f800000000000000000000000000000008183028161199357fe5b059150700400000000000000000000000000000000836f92492492492492492492492492492492038302816119c457fe5b05840193506f80000000000000000000000000000000818302816119e457fe5b059150700500000000000000000000000000000000836f8e38e38e38e38e38e38e38e38e38e38e03830281611a1557fe5b05840193506f8000000000000000000000000000000081830281611a3557fe5b059150700600000000000000000000000000000000836f8ba2e8ba2e8ba2e8ba2e8ba2e8ba2e8b03830281611a6657fe5b05840193506f8000000000000000000000000000000081830281611a8657fe5b059150700700000000000000000000000000000000836f89d89d89d89d89d89d89d89d89d89d8903830281611ab757fe5b05840193506f8000000000000000000000000000000081830281611ad757fe5b059150700800000000000000000000000000000000836f8888888888888888888888888888888803830281611b0857fe5b0584019350505050919050565b60007fffffffffffffffffffffffffffffffe010000000000000000000000000000000821215611b47575060006109a8565b81611b6357506f800000000000000000000000000000006109a8565b6000821315611b9e576040517f08c379a000000000000000000000000000000000000000000000000000000000815260040161052790612534565b6f800000000000000000000000000000006f1000000000000000000000000000000083078080028290056710e1b3be415a0000810293909301929091818302059050806705a0913f6b1e000002830192506f8000000000000000000000000000000082820281611c0a57fe5b05905080670168244fdac7800002830192506f8000000000000000000000000000000082820281611c3757fe5b05905080664807432bc1800002830192506f8000000000000000000000000000000082820281611c6357fe5b05905080660c0135dca0400002830192506f8000000000000000000000000000000082820281611c8f57fe5b059050806601b707b1cdc00002830192506f8000000000000000000000000000000082820281611cbb57fe5b059050806536e0f639b80002830192506f8000000000000000000000000000000082820281611ce657fe5b05905080650618fee9f80002830192506f8000000000000000000000000000000082820281611d1157fe5b05905080649c197dcc0002830192506f8000000000000000000000000000000082820281611d3b57fe5b05905080640e30dce40002830192506f8000000000000000000000000000000082820281611d6557fe5b0590508064012ebd130002830192506f8000000000000000000000000000000082820281611d8f57fe5b059050806317499f0002830192506f8000000000000000000000000000000082820281611db857fe5b059050806301a9d48002830192506f8000000000000000000000000000000082820281611de157fe5b05905080621c638002830192506f8000000000000000000000000000000082820281611e0957fe5b059050806201c63802830192506f8000000000000000000000000000000082820281611e3157fe5b05905080611ab802830192506f8000000000000000000000000000000082820281611e5857fe5b0590508061017c02830192506f8000000000000000000000000000000082820281611e7f57fe5b05905080601402830192506f8000000000000000000000000000000082820281611ea557fe5b600095909503946721c3677c82b400009190059384010582016f8000000000000000000000000000000001929050701000000000000000000000000000000000841615611f14577243cbaf42a000812488fc5c220ad7b97bf6e99e6cf1aaddd7742e56d32fb9f9974484020592505b700800000000000000000000000000000000841615611f56577105d27a9f51c31b7c2f8038212a05747799916e0afe10820813d65dfe6a33c07f738f84020592505b700400000000000000000000000000000000841615611f9857701b4c902e273a58678d6d3bfdb93db96d026f02582ab704279e8efd15e0265855c47a84020592505b700200000000000000000000000000000000841615611fda577003b1cc971a9bb5b9867477440d6d1577506f1152aaa3bf81cb9fdb76eae12d02957184020592505b70010000000000000000000000000000000084161561201c5770015bf0a8b1457695355fb8ac404e7a79e36f2f16ac6c59de6f8d5d6f63c1482a7c8684020592505b6f8000000000000000000000000000000084161561205c576fd3094c70f034de4b96ff7d5b6f99fcd86f4da2cbf1be5827f9eb3ad1aa9866ebb384020592505b6f4000000000000000000000000000000084161561209c576fa45af1e1f40c333b3de1db4dd55f29a76f63afbe7ab2082ba1a0ae5e4eb1b479dc84020592505b6f200000000000000000000000000000008416156120dc576f910b022db7ae67ce76b441c27035c6a16f70f5a893b608861e1f58934f97aea57d84020592505b6f1000000000000000000000000000000084161561211c576f88415abbe9a76bead8d00cf112e4d4a86f783eafef1c0a8f3978c7f81824d62ebf84020592505b5050919050565b600061069f826f80000000000000000000000000000000610d10565b6f80000000000000000000000000000000900590565b604051806101a00160405280600015158152602001600073ffffffffffffffffffffffffffffffffffffffff168152602001600073ffffffffffffffffffffffffffffffffffffffff168152602001600081526020016000815260200160008152602001600081526020016000815260200160008152602001600081526020016000815260200160008152602001600081525090565b6000602082840312156121fc578081fd5b813573ffffffffffffffffffffffffffffffffffffffff8116811461073f578182fd5b600080600060608486031215612233578182fd5b833561223e8161271b565b9250602084013561224e8161271b565b929592945050506040919091013590565b600060208284031215612270578081fd5b5035919050565b73ffffffffffffffffffffffffffffffffffffffff91909116815260200190565b73ffffffffffffffffffffffffffffffffffffffff92831681529116602082015260400190565b73ffffffffffffffffffffffffffffffffffffffff958616815293851660208501529190931660408301526060820192909252608081019190915260a00190565b73ffffffffffffffffffffffffffffffffffffffff9390931683526020830191909152604082015260600190565b9283526020830191909152604082015260600190565b948552602085019390935260408401919091526060830152608082015260a00190565b60208082526013908201527f6c6e3a2076616c756520746f6f20736d616c6c00000000000000000000000000604082015260600190565b6020808252600e908201527f4f6e6c794f776e65724572726f72000000000000000000000000000000000000604082015260600190565b60208082526013908201527f416c726561647920496e697469616c697a656400000000000000000000000000604082015260600190565b60208082526017908201527f496e76616c696420746f6b656e20616464726573736573000000000000000000604082015260600190565b60208082526038908201527f746f46697865642875696e742c75696e74293a2064656e6f6d696e61746f722060408201527f63616e6e6f74206265206c657373207468616e207a65726f0000000000000000606082015260800190565b60208082526013908201527f6c6e3a2076616c756520746f6f206c6172676500000000000000000000000000604082015260600190565b60208082526027908201527f746f46697865643a2076616c75652063616e6e6f74206265206c65737320746860408201527f616e207a65726f00000000000000000000000000000000000000000000000000606082015260800190565b60208082526014908201527f6578703a2076616c756520746f6f20736d616c6c000000000000000000000000604082015260600190565b60208082526018908201527f5472616e736665724f776e6572546f5a65726f4572726f720000000000000000604082015260600190565b6020808252600e908201527f5f6d756c3a206f766572666c6f77000000000000000000000000000000000000604082015260600190565b6020808252600e908201527f5f6164643a206f766572666c6f77000000000000000000000000000000000000604082015260600190565b60208082526014908201527f7375623a2076616c756520746f6f20736d616c6c000000000000000000000000604082015260600190565b60208082526036908201527f746f46697865642875696e742c75696e74293a206e756d657261746f7220636160408201527f6e6e6f74206265206c657373207468616e207a65726f00000000000000000000606082015260800190565b60208082526014908201527f5f6469763a20646976696465206279207a65726f000000000000000000000000604082015260600190565b6020808252600e908201527f5f6469763a206f766572666c6f77000000000000000000000000000000000000604082015260600190565b90815260200190565b73ffffffffffffffffffffffffffffffffffffffff8116811461025957600080fdfea365627a7a72315820037a3bf74d47ec82883496e8e9eca3d1e8723796896857b8c780ccb02d986ba76c6578706572696d656e74616cf564736f6c634300050d0040",
				"opcodes": "PUSH1 0x80 PUSH1 0x40 MSTORE PUSH1 0x0 DUP1 SLOAD PUSH1 0x1 PUSH1 0x1 PUSH1 0xA0 SHL SUB NOT AND CALLER OR SWAP1 SSTORE PUSH2 0x2780 DUP1 PUSH2 0x25 PUSH1 0x0 CODECOPY PUSH1 0x0 RETURN INVALID PUSH1 0x80 PUSH1 0x40 MSTORE CALLVALUE DUP1 ISZERO PUSH2 0x10 JUMPI PUSH1 0x0 DUP1 REVERT JUMPDEST POP PUSH1 0x4 CALLDATASIZE LT PUSH2 0x88 JUMPI PUSH1 0x0 CALLDATALOAD PUSH1 0xE0 SHR DUP1 PUSH4 0x978CA36F GT PUSH2 0x5B JUMPI DUP1 PUSH4 0x978CA36F EQ PUSH2 0xD0 JUMPI DUP1 PUSH4 0x9C8F9F23 EQ PUSH2 0x97 JUMPI DUP1 PUSH4 0xDF791E50 EQ PUSH2 0xD8 JUMPI DUP1 PUSH4 0xF2FDE38B EQ PUSH2 0xF8 JUMPI PUSH2 0x88 JUMP JUMPDEST DUP1 PUSH4 0x3E6EE8D3 EQ PUSH2 0x8D JUMPI DUP1 PUSH4 0x51C6590A EQ PUSH2 0x97 JUMPI DUP1 PUSH4 0x6D83C92C EQ PUSH2 0xAA JUMPI DUP1 PUSH4 0x8DA5CB5B EQ PUSH2 0xB2 JUMPI JUMPDEST PUSH1 0x0 DUP1 REVERT JUMPDEST PUSH2 0x95 PUSH2 0x10B JUMP JUMPDEST STOP JUMPDEST PUSH2 0x95 PUSH2 0xA5 CALLDATASIZE PUSH1 0x4 PUSH2 0x225F JUMP JUMPDEST PUSH2 0x259 JUMP JUMPDEST PUSH2 0x95 PUSH2 0x25C JUMP JUMPDEST PUSH2 0xBA PUSH2 0x26E JUMP JUMPDEST PUSH1 0x40 MLOAD PUSH2 0xC7 SWAP2 SWAP1 PUSH2 0x2277 JUMP JUMPDEST PUSH1 0x40 MLOAD DUP1 SWAP2 SUB SWAP1 RETURN JUMPDEST PUSH2 0x95 PUSH2 0x28A JUMP JUMPDEST PUSH2 0xEB PUSH2 0xE6 CALLDATASIZE PUSH1 0x4 PUSH2 0x221F JUMP JUMPDEST PUSH2 0x3B7 JUMP JUMPDEST PUSH1 0x40 MLOAD PUSH2 0xC7 SWAP2 SWAP1 PUSH2 0x2712 JUMP JUMPDEST PUSH2 0x95 PUSH2 0x106 CALLDATASIZE PUSH1 0x4 PUSH2 0x21EB JUMP JUMPDEST PUSH2 0x577 JUMP JUMPDEST PUSH1 0x1 DUP1 SLOAD PUSH32 0xFFFFFFFFFFFFFFFFFFFFFF0000000000000000000000000000000000000000FF AND PUSH2 0x100 OR SWAP1 SSTORE PUSH1 0x2 DUP1 SLOAD PUSH32 0xFFFFFFFFFFFFFFFFFFFFFFFF0000000000000000000000000000000000000000 AND DUP2 OR SWAP1 SSTORE PUSH2 0x16C PUSH2 0xC350 PUSH2 0x649 JUMP JUMPDEST PUSH1 0x3 SSTORE PUSH2 0x17B PUSH3 0x186A0 PUSH2 0x649 JUMP JUMPDEST PUSH1 0x4 SSTORE PUSH2 0x18A PUSH1 0x65 PUSH1 0x64 PUSH2 0x6A5 JUMP JUMPDEST PUSH1 0x5 SSTORE PUSH1 0x63 PUSH1 0x6 DUP2 SWAP1 SSTORE PUSH2 0x19F SWAP1 PUSH1 0x64 PUSH2 0x6A5 JUMP JUMPDEST PUSH1 0x7 SSTORE PUSH2 0x1AF PUSH1 0x5 PUSH2 0x2710 PUSH2 0x6A5 JUMP JUMPDEST PUSH1 0x8 SSTORE PUSH2 0x1D7 PUSH2 0x1C3 PUSH1 0x1 PUSH3 0xF4240 PUSH2 0x746 JUMP JUMPDEST PUSH2 0x1CB PUSH2 0x765 JUMP JUMPDEST SWAP1 PUSH4 0xFFFFFFFF PUSH2 0x779 AND JUMP JUMPDEST PUSH1 0xC SSTORE PUSH2 0x1E8 PUSH2 0x2715 PUSH2 0x3E8 PUSH2 0x746 JUMP JUMPDEST PUSH1 0xD SSTORE PUSH1 0x1 SLOAD PUSH1 0x2 SLOAD PUSH2 0x224 SWAP2 PUSH20 0xFFFFFFFFFFFFFFFFFFFFFFFFFFFFFFFFFFFFFFFF PUSH2 0x100 SWAP1 SWAP2 DIV DUP2 AND SWAP2 AND PUSH10 0x21E19E0C9BAB2400000 PUSH2 0x3B7 JUMP JUMPDEST POP PUSH1 0x2 SLOAD PUSH1 0x1 SLOAD PUSH2 0x259 SWAP2 PUSH20 0xFFFFFFFFFFFFFFFFFFFFFFFFFFFFFFFFFFFFFFFF SWAP1 DUP2 AND SWAP2 PUSH2 0x100 SWAP1 DIV AND PUSH5 0x2540BE400 PUSH2 0x3B7 JUMP JUMPDEST POP JUMP JUMPDEST PUSH2 0x264 PUSH2 0x7E2 JUMP JUMPDEST PUSH2 0x26C PUSH2 0x833 JUMP JUMPDEST JUMP JUMPDEST PUSH1 0x0 SLOAD PUSH20 0xFFFFFFFFFFFFFFFFFFFFFFFFFFFFFFFFFFFFFFFF AND DUP2 JUMP JUMPDEST PUSH1 0x1 DUP1 SLOAD PUSH32 0xFFFFFFFFFFFFFFFFFFFFFF0000000000000000000000000000000000000000FF AND PUSH2 0x100 OR SWAP1 SSTORE PUSH1 0x2 DUP1 SLOAD PUSH32 0xFFFFFFFFFFFFFFFFFFFFFFFF0000000000000000000000000000000000000000 AND DUP2 OR SWAP1 SSTORE PUSH2 0x2E8 PUSH2 0x833 JUMP JUMPDEST PUSH2 0x2F3 PUSH2 0x1F4 PUSH2 0x649 JUMP JUMPDEST PUSH1 0x3 SSTORE PUSH2 0x301 PUSH2 0x3E8 PUSH2 0x649 JUMP JUMPDEST PUSH1 0x4 SSTORE PUSH2 0x23A PUSH1 0xE SSTORE PUSH1 0x1 SLOAD PUSH1 0x2 SLOAD PUSH2 0x342 SWAP2 PUSH20 0xFFFFFFFFFFFFFFFFFFFFFFFFFFFFFFFFFFFFFFFF PUSH2 0x100 SWAP1 SWAP2 DIV DUP2 AND SWAP2 AND PUSH9 0x410D586A20A4C0000 PUSH2 0x3B7 JUMP JUMPDEST POP PUSH2 0x622 PUSH1 0xE SSTORE PUSH1 0x1 SLOAD PUSH1 0x2 SLOAD PUSH2 0x381 SWAP2 PUSH20 0xFFFFFFFFFFFFFFFFFFFFFFFFFFFFFFFFFFFFFFFF PUSH2 0x100 SWAP1 SWAP2 DIV DUP2 AND SWAP2 AND PUSH9 0x15AF1D78B58C400000 PUSH2 0x3B7 JUMP JUMPDEST POP PUSH2 0xFA0 PUSH1 0xE SSTORE PUSH1 0x2 SLOAD PUSH1 0x1 SLOAD PUSH2 0x259 SWAP2 PUSH20 0xFFFFFFFFFFFFFFFFFFFFFFFFFFFFFFFFFFFFFFFF SWAP1 DUP2 AND SWAP2 PUSH2 0x100 SWAP1 DIV AND PUSH4 0xD1CEF00 JUMPDEST PUSH1 0x0 PUSH2 0x3C1 PUSH2 0x2155 JUMP JUMPDEST PUSH2 0x3C9 PUSH2 0x8F5 JUMP JUMPDEST SWAP1 POP DUP1 PUSH1 0x20 ADD MLOAD PUSH20 0xFFFFFFFFFFFFFFFFFFFFFFFFFFFFFFFFFFFFFFFF AND DUP6 PUSH20 0xFFFFFFFFFFFFFFFFFFFFFFFFFFFFFFFFFFFFFFFF AND EQ DUP1 ISZERO PUSH2 0x439 JUMPI POP DUP1 PUSH1 0x40 ADD MLOAD PUSH20 0xFFFFFFFFFFFFFFFFFFFFFFFFFFFFFFFFFFFFFFFF AND DUP5 PUSH20 0xFFFFFFFFFFFFFFFFFFFFFFFFFFFFFFFFFFFFFFFF AND EQ JUMPDEST ISZERO PUSH2 0x467 JUMPI PUSH1 0x0 PUSH2 0x454 DUP7 DUP7 PUSH2 0x44E DUP8 PUSH2 0x99B JUMP JUMPDEST DUP6 PUSH2 0x9AD JUMP JUMPDEST SWAP1 POP PUSH2 0x45F DUP2 PUSH2 0xCE9 JUMP JUMPDEST SWAP3 POP POP PUSH2 0x530 JUMP JUMPDEST DUP1 PUSH1 0x40 ADD MLOAD PUSH20 0xFFFFFFFFFFFFFFFFFFFFFFFFFFFFFFFFFFFFFFFF AND DUP6 PUSH20 0xFFFFFFFFFFFFFFFFFFFFFFFFFFFFFFFFFFFFFFFF AND EQ DUP1 ISZERO PUSH2 0x4D5 JUMPI POP DUP1 PUSH1 0x20 ADD MLOAD PUSH20 0xFFFFFFFFFFFFFFFFFFFFFFFFFFFFFFFFFFFFFFFF AND DUP5 PUSH20 0xFFFFFFFFFFFFFFFFFFFFFFFFFFFFFFFFFFFFFFFF AND EQ JUMPDEST ISZERO PUSH2 0x4F5 JUMPI PUSH1 0x0 PUSH2 0x4EA DUP7 DUP7 PUSH2 0x44E DUP8 PUSH2 0xCF6 JUMP JUMPDEST SWAP1 POP PUSH2 0x45F DUP2 PUSH2 0xD03 JUMP JUMPDEST PUSH1 0x40 MLOAD PUSH32 0x8C379A000000000000000000000000000000000000000000000000000000000 DUP2 MSTORE PUSH1 0x4 ADD PUSH2 0x527 SWAP1 PUSH2 0x240C JUMP JUMPDEST PUSH1 0x40 MLOAD DUP1 SWAP2 SUB SWAP1 REVERT JUMPDEST PUSH32 0x256DB8090FA51C3BAC981768637D5A7C46B5540644DCEF89052B89DBB2F6C8EA CALLER DUP7 DUP7 DUP7 DUP7 PUSH1 0x40 MLOAD PUSH2 0x567 SWAP6 SWAP5 SWAP4 SWAP3 SWAP2 SWAP1 PUSH2 0x22BF JUMP JUMPDEST PUSH1 0x40 MLOAD DUP1 SWAP2 SUB SWAP1 LOG1 POP SWAP4 SWAP3 POP POP POP JUMP JUMPDEST PUSH2 0x57F PUSH2 0x7E2 JUMP JUMPDEST PUSH20 0xFFFFFFFFFFFFFFFFFFFFFFFFFFFFFFFFFFFFFFFF DUP2 AND PUSH2 0x5CC JUMPI PUSH1 0x40 MLOAD PUSH32 0x8C379A000000000000000000000000000000000000000000000000000000000 DUP2 MSTORE PUSH1 0x4 ADD PUSH2 0x527 SWAP1 PUSH2 0x256B JUMP JUMPDEST PUSH1 0x0 DUP1 SLOAD PUSH32 0xFFFFFFFFFFFFFFFFFFFFFFFF0000000000000000000000000000000000000000 AND PUSH20 0xFFFFFFFFFFFFFFFFFFFFFFFFFFFFFFFFFFFFFFFF DUP4 AND OR SWAP1 SSTORE PUSH1 0x40 MLOAD PUSH32 0x8BE0079C531659141344CD1FD0A4F28419497F9722A3DAAFE3B4186F6B6457E0 SWAP1 PUSH2 0x63E SWAP1 CALLER SWAP1 DUP5 SWAP1 PUSH2 0x2298 JUMP JUMPDEST PUSH1 0x40 MLOAD DUP1 SWAP2 SUB SWAP1 LOG1 POP JUMP JUMPDEST PUSH1 0x0 DUP1 DUP3 SLT ISZERO PUSH2 0x685 JUMPI PUSH1 0x40 MLOAD PUSH32 0x8C379A000000000000000000000000000000000000000000000000000000000 DUP2 MSTORE PUSH1 0x4 ADD PUSH2 0x527 SWAP1 PUSH2 0x24D7 JUMP JUMPDEST PUSH2 0x69F DUP3 PUSH16 0x80000000000000000000000000000000 PUSH2 0xD10 JUMP JUMPDEST SWAP3 SWAP2 POP POP JUMP JUMPDEST PUSH1 0x0 DUP1 DUP4 SLT ISZERO PUSH2 0x6E1 JUMPI PUSH1 0x40 MLOAD PUSH32 0x8C379A000000000000000000000000000000000000000000000000000000000 DUP2 MSTORE PUSH1 0x4 ADD PUSH2 0x527 SWAP1 PUSH2 0x2647 JUMP JUMPDEST PUSH1 0x0 DUP3 SLT ISZERO PUSH2 0x71C JUMPI PUSH1 0x40 MLOAD PUSH32 0x8C379A000000000000000000000000000000000000000000000000000000000 DUP2 MSTORE PUSH1 0x4 ADD PUSH2 0x527 SWAP1 PUSH2 0x2443 JUMP JUMPDEST PUSH2 0x73F PUSH2 0x739 DUP5 PUSH16 0x80000000000000000000000000000000 PUSH2 0xD10 JUMP JUMPDEST DUP4 PUSH2 0xD86 JUMP JUMPDEST SWAP4 SWAP3 POP POP POP JUMP JUMPDEST PUSH1 0x0 PUSH2 0x73F PUSH2 0x739 DUP5 PUSH16 0x80000000000000000000000000000000 PUSH2 0xD10 JUMP JUMPDEST PUSH16 0x80000000000000000000000000000000 SWAP1 JUMP JUMPDEST PUSH1 0x0 PUSH32 0x8000000000000000000000000000000000000000000000000000000000000000 DUP3 EQ ISZERO PUSH2 0x7D5 JUMPI PUSH1 0x40 MLOAD PUSH32 0x8C379A000000000000000000000000000000000000000000000000000000000 DUP2 MSTORE PUSH1 0x4 ADD PUSH2 0x527 SWAP1 PUSH2 0x2610 JUMP JUMPDEST PUSH2 0x73F DUP4 DUP4 PUSH1 0x0 SUB PUSH2 0xE55 JUMP JUMPDEST PUSH1 0x0 SLOAD PUSH20 0xFFFFFFFFFFFFFFFFFFFFFFFFFFFFFFFFFFFFFFFF AND CALLER EQ PUSH2 0x26C JUMPI PUSH1 0x40 MLOAD PUSH32 0x8C379A000000000000000000000000000000000000000000000000000000000 DUP2 MSTORE PUSH1 0x4 ADD PUSH2 0x527 SWAP1 PUSH2 0x239E JUMP JUMPDEST PUSH1 0x1 SLOAD PUSH1 0xFF AND ISZERO PUSH2 0x870 JUMPI PUSH1 0x40 MLOAD PUSH32 0x8C379A000000000000000000000000000000000000000000000000000000000 DUP2 MSTORE PUSH1 0x4 ADD PUSH2 0x527 SWAP1 PUSH2 0x23D5 JUMP JUMPDEST PUSH2 0x87C PUSH1 0x63 PUSH1 0x64 PUSH2 0x6A5 JUMP JUMPDEST PUSH1 0x5 SSTORE PUSH1 0x63 PUSH1 0x6 DUP2 SWAP1 SSTORE PUSH2 0x891 SWAP1 PUSH1 0x64 PUSH2 0x6A5 JUMP JUMPDEST PUSH1 0x7 SSTORE PUSH2 0x8A1 PUSH1 0x5 PUSH2 0x2710 PUSH2 0x6A5 JUMP JUMPDEST PUSH1 0x8 SSTORE PUSH2 0x8B5 PUSH2 0x1C3 PUSH1 0x1 PUSH3 0xF4240 PUSH2 0x746 JUMP JUMPDEST PUSH1 0xC SSTORE PUSH2 0x8C6 PUSH2 0x2715 PUSH2 0x3E8 PUSH2 0x746 JUMP JUMPDEST PUSH1 0xD SSTORE PUSH1 0x1 DUP1 SLOAD PUSH32 0xFFFFFFFFFFFFFFFFFFFFFFFFFFFFFFFFFFFFFFFFFFFFFFFFFFFFFFFFFFFFFF00 AND DUP2 OR SWAP1 SSTORE JUMP JUMPDEST PUSH2 0x8FD PUSH2 0x2155 JUMP JUMPDEST POP PUSH1 0x40 DUP1 MLOAD PUSH2 0x1A0 DUP2 ADD DUP3 MSTORE PUSH1 0x1 SLOAD PUSH1 0xFF DUP2 AND ISZERO ISZERO DUP3 MSTORE PUSH20 0xFFFFFFFFFFFFFFFFFFFFFFFFFFFFFFFFFFFFFFFF PUSH2 0x100 SWAP2 DUP3 SWAP1 DIV DUP2 AND PUSH1 0x20 DUP5 ADD MSTORE PUSH1 0x2 SLOAD AND SWAP3 DUP3 ADD SWAP3 SWAP1 SWAP3 MSTORE PUSH1 0x3 SLOAD PUSH1 0x60 DUP3 ADD MSTORE PUSH1 0x4 SLOAD PUSH1 0x80 DUP3 ADD MSTORE PUSH1 0x5 SLOAD PUSH1 0xA0 DUP3 ADD MSTORE PUSH1 0x6 SLOAD PUSH1 0xC0 DUP3 ADD MSTORE PUSH1 0x7 SLOAD PUSH1 0xE0 DUP3 ADD MSTORE PUSH1 0x8 SLOAD SWAP2 DUP2 ADD SWAP2 SWAP1 SWAP2 MSTORE PUSH1 0x9 SLOAD PUSH2 0x120 DUP3 ADD MSTORE PUSH1 0xB SLOAD PUSH2 0x140 DUP3 ADD MSTORE PUSH1 0xC SLOAD PUSH2 0x160 DUP3 ADD MSTORE PUSH1 0xD SLOAD PUSH2 0x180 DUP3 ADD MSTORE SWAP1 JUMP JUMPDEST PUSH1 0x0 PUSH2 0x69F DUP3 PUSH1 0x12 PUSH2 0xECB JUMP JUMPDEST SWAP2 SWAP1 POP JUMP JUMPDEST PUSH1 0x20 DUP2 ADD MLOAD PUSH1 0x0 SWAP1 DUP2 SWAP1 DUP2 SWAP1 DUP2 SWAP1 DUP2 SWAP1 PUSH20 0xFFFFFFFFFFFFFFFFFFFFFFFFFFFFFFFFFFFFFFFF DUP11 DUP2 AND SWAP2 AND EQ DUP1 ISZERO PUSH2 0xA13 JUMPI POP DUP6 PUSH1 0x40 ADD MLOAD PUSH20 0xFFFFFFFFFFFFFFFFFFFFFFFFFFFFFFFFFFFFFFFF AND DUP9 PUSH20 0xFFFFFFFFFFFFFFFFFFFFFFFFFFFFFFFFFFFFFFFF AND EQ JUMPDEST ISZERO PUSH2 0xA32 JUMPI POP POP POP POP PUSH1 0x60 DUP3 ADD MLOAD PUSH1 0x80 DUP4 ADD MLOAD PUSH1 0xA0 DUP5 ADD MLOAD PUSH1 0x1 PUSH2 0xAD2 JUMP JUMPDEST DUP6 PUSH1 0x40 ADD MLOAD PUSH20 0xFFFFFFFFFFFFFFFFFFFFFFFFFFFFFFFFFFFFFFFF AND DUP10 PUSH20 0xFFFFFFFFFFFFFFFFFFFFFFFFFFFFFFFFFFFFFFFF AND EQ DUP1 ISZERO PUSH2 0xAA0 JUMPI POP DUP6 PUSH1 0x20 ADD MLOAD PUSH20 0xFFFFFFFFFFFFFFFFFFFFFFFFFFFFFFFFFFFFFFFF AND DUP9 PUSH20 0xFFFFFFFFFFFFFFFFFFFFFFFFFFFFFFFFFFFFFFFF AND EQ JUMPDEST ISZERO PUSH2 0x4F5 JUMPI DUP6 PUSH1 0x80 ADD MLOAD SWAP4 POP DUP6 PUSH1 0x60 ADD MLOAD SWAP3 POP PUSH2 0xACF DUP7 PUSH1 0xA0 ADD MLOAD PUSH2 0xAC3 PUSH2 0x765 JUMP JUMPDEST SWAP1 PUSH4 0xFFFFFFFF PUSH2 0xEDA AND JUMP JUMPDEST SWAP2 POP JUMPDEST PUSH1 0x0 DUP1 PUSH2 0xAE2 DUP7 DUP7 DUP7 DUP13 DUP13 PUSH2 0xF03 JUMP JUMPDEST SWAP2 POP SWAP2 POP PUSH1 0x0 PUSH2 0xB18 PUSH2 0xAFC DUP11 PUSH2 0x100 ADD MLOAD PUSH2 0x1CB PUSH2 0x765 JUMP JUMPDEST PUSH2 0xB0C DUP13 DUP6 PUSH4 0xFFFFFFFF PUSH2 0x1008 AND JUMP JUMPDEST SWAP1 PUSH4 0xFFFFFFFF PUSH2 0x1008 AND JUMP JUMPDEST SWAP1 POP PUSH2 0xB2B PUSH1 0x0 DUP3 PUSH4 0xFFFFFFFF PUSH2 0x779 AND JUMP JUMPDEST SWAP1 POP PUSH1 0x0 PUSH2 0xB3D PUSH1 0x1 PUSH3 0x186A0 PUSH2 0x746 JUMP JUMPDEST SWAP1 POP PUSH1 0x0 DUP3 SGT ISZERO PUSH2 0xB51 JUMPI PUSH1 0x0 SWAP2 POP PUSH2 0xB7A JUMP JUMPDEST DUP1 PUSH2 0xB62 DUP9 DUP5 PUSH4 0xFFFFFFFF PUSH2 0x105B AND JUMP JUMPDEST SGT PUSH2 0xB7A JUMPI PUSH2 0xB77 DUP2 DUP9 PUSH4 0xFFFFFFFF PUSH2 0x779 AND JUMP JUMPDEST SWAP2 POP JUMPDEST PUSH1 0x0 PUSH2 0xB9A DUP12 PUSH2 0x120 ADD MLOAD PUSH2 0xB8D PUSH2 0x1067 JUMP JUMPDEST DUP14 PUSH2 0x160 ADD MLOAD DUP9 DUP12 PUSH2 0x106D JUMP JUMPDEST PUSH2 0x180 DUP13 ADD MLOAD SWAP1 SWAP2 POP PUSH2 0xBB3 SWAP1 DUP9 PUSH4 0xFFFFFFFF PUSH2 0x1008 AND JUMP JUMPDEST DUP2 SGT ISZERO PUSH2 0xBD7 JUMPI PUSH2 0x180 DUP12 ADD MLOAD PUSH2 0xBD0 SWAP1 DUP9 PUSH4 0xFFFFFFFF PUSH2 0x1008 AND JUMP JUMPDEST SWAP1 POP PUSH2 0xC0B JUMP JUMPDEST PUSH2 0xBEC DUP8 PUSH2 0xB0C DUP14 PUSH2 0x180 ADD MLOAD PUSH2 0xAC3 PUSH2 0x765 JUMP JUMPDEST DUP2 SLT ISZERO PUSH2 0xC0B JUMPI PUSH2 0xC08 DUP8 PUSH2 0xB0C DUP14 PUSH2 0x180 ADD MLOAD PUSH2 0xAC3 PUSH2 0x765 JUMP JUMPDEST SWAP1 POP JUMPDEST PUSH2 0xC13 PUSH2 0x1067 JUMP JUMPDEST PUSH2 0x120 DUP13 ADD MSTORE DUP6 ISZERO PUSH2 0xC55 JUMPI PUSH2 0xC2F DUP10 DUP14 PUSH4 0xFFFFFFFF PUSH2 0x105B AND JUMP JUMPDEST PUSH1 0x60 DUP13 ADD MSTORE PUSH2 0xC44 DUP9 DUP5 PUSH4 0xFFFFFFFF PUSH2 0x105B AND JUMP JUMPDEST PUSH1 0x80 DUP13 ADD MSTORE PUSH1 0xA0 DUP12 ADD DUP2 SWAP1 MSTORE PUSH2 0xC91 JUMP JUMPDEST PUSH2 0xC65 DUP9 DUP5 PUSH4 0xFFFFFFFF PUSH2 0x105B AND JUMP JUMPDEST PUSH1 0x60 DUP13 ADD MSTORE PUSH2 0xC7A DUP10 DUP14 PUSH4 0xFFFFFFFF PUSH2 0x105B AND JUMP JUMPDEST PUSH1 0x80 DUP13 ADD MSTORE PUSH2 0xC8B DUP2 PUSH2 0xAC3 PUSH2 0x765 JUMP JUMPDEST PUSH1 0xA0 DUP13 ADD MSTORE JUMPDEST PUSH2 0xC9A DUP12 PUSH2 0x114B JUMP JUMPDEST PUSH32 0x666804E599B015EDCFB9DE12153BF8A48AA5A84B8861B8FA88C1CF4B11974C15 CALLER DUP14 DUP6 PUSH1 0x40 MLOAD PUSH2 0xCCD SWAP4 SWAP3 SWAP2 SWAP1 PUSH2 0x2300 JUMP JUMPDEST PUSH1 0x40 MLOAD DUP1 SWAP2 SUB SWAP1 LOG1 POP POP PUSH1 0x0 SUB SWAP12 SWAP11 POP POP POP POP POP POP POP POP POP POP POP JUMP JUMPDEST PUSH1 0x0 PUSH2 0x69F DUP3 PUSH1 0x6 PUSH2 0x124D JUMP JUMPDEST PUSH1 0x0 PUSH2 0x69F DUP3 PUSH1 0x6 PUSH2 0xECB JUMP JUMPDEST PUSH1 0x0 PUSH2 0x69F DUP3 PUSH1 0x12 PUSH2 0x124D JUMP JUMPDEST PUSH1 0x0 DUP3 ISZERO DUP1 PUSH2 0xD1D JUMPI POP DUP2 ISZERO JUMPDEST ISZERO PUSH2 0xD2A JUMPI POP PUSH1 0x0 PUSH2 0x69F JUMP JUMPDEST POP DUP2 DUP2 MUL DUP2 DUP4 DUP3 DUP2 PUSH2 0xD38 JUMPI INVALID JUMPDEST SDIV EQ ISZERO DUP1 PUSH2 0xD4F JUMPI POP DUP3 DUP3 DUP3 DUP2 PUSH2 0xD4B JUMPI INVALID JUMPDEST SDIV EQ ISZERO JUMPDEST ISZERO PUSH2 0x69F JUMPI PUSH1 0x40 MLOAD PUSH32 0x8C379A000000000000000000000000000000000000000000000000000000000 DUP2 MSTORE PUSH1 0x4 ADD PUSH2 0x527 SWAP1 PUSH2 0x25A2 JUMP JUMPDEST PUSH1 0x0 DUP2 PUSH2 0xDBF JUMPI PUSH1 0x40 MLOAD PUSH32 0x8C379A000000000000000000000000000000000000000000000000000000000 DUP2 MSTORE PUSH1 0x4 ADD PUSH2 0x527 SWAP1 PUSH2 0x26A4 JUMP JUMPDEST PUSH32 0x8000000000000000000000000000000000000000000000000000000000000000 DUP4 EQ DUP1 ISZERO PUSH2 0xE0D JUMPI POP DUP2 PUSH32 0xFFFFFFFFFFFFFFFFFFFFFFFFFFFFFFFFFFFFFFFFFFFFFFFFFFFFFFFFFFFFFFFF EQ JUMPDEST ISZERO PUSH2 0xE44 JUMPI PUSH1 0x40 MLOAD PUSH32 0x8C379A000000000000000000000000000000000000000000000000000000000 DUP2 MSTORE PUSH1 0x4 ADD PUSH2 0x527 SWAP1 PUSH2 0x26DB JUMP JUMPDEST DUP2 DUP4 DUP2 PUSH2 0xE4D JUMPI INVALID JUMPDEST SDIV SWAP4 SWAP3 POP POP POP JUMP JUMPDEST DUP2 DUP2 ADD PUSH1 0x0 DUP4 SLT DUP1 ISZERO PUSH2 0xE68 JUMPI POP PUSH1 0x0 DUP3 SLT JUMPDEST DUP1 ISZERO PUSH2 0xE73 JUMPI POP DUP3 DUP2 SGT JUMPDEST DUP1 PUSH2 0xE94 JUMPI POP PUSH1 0x0 DUP4 SGT DUP1 ISZERO PUSH2 0xE89 JUMPI POP PUSH1 0x0 DUP3 SGT JUMPDEST DUP1 ISZERO PUSH2 0xE94 JUMPI POP DUP3 DUP2 SLT JUMPDEST ISZERO PUSH2 0x69F JUMPI PUSH1 0x40 MLOAD PUSH32 0x8C379A000000000000000000000000000000000000000000000000000000000 DUP2 MSTORE PUSH1 0x4 ADD PUSH2 0x527 SWAP1 PUSH2 0x25D9 JUMP JUMPDEST PUSH1 0x0 PUSH2 0x73F DUP4 DUP4 PUSH1 0xA EXP PUSH2 0x6A5 JUMP JUMPDEST PUSH1 0x0 PUSH2 0xEF4 PUSH2 0x739 DUP5 PUSH11 0x8000000000000000000000 PUSH2 0xD10 JUMP JUMPDEST PUSH6 0x10000000000 MUL SWAP4 SWAP3 POP POP POP JUMP JUMPDEST PUSH1 0x0 DUP1 PUSH2 0xF16 DUP8 DUP8 DUP8 DUP7 PUSH1 0xE0 ADD MLOAD PUSH2 0x125D JUMP JUMPDEST SWAP2 POP PUSH1 0x0 DUP3 DUP2 PUSH2 0xF2C DUP11 DUP9 PUSH4 0xFFFFFFFF PUSH2 0x105B AND JUMP JUMPDEST SWAP1 POP PUSH1 0x0 JUMPDEST PUSH1 0x14 DUP2 LT ISZERO PUSH2 0xFF8 JUMPI PUSH1 0x0 PUSH2 0xF46 DUP6 DUP6 PUSH2 0x1356 JUMP JUMPDEST SWAP1 POP PUSH1 0x0 PUSH2 0xF62 PUSH2 0xF5D DUP4 DUP14 PUSH4 0xFFFFFFFF PUSH2 0xEDA AND JUMP JUMPDEST PUSH2 0x137E JUMP JUMPDEST SWAP1 POP PUSH1 0x0 PUSH2 0xF99 PUSH2 0xF79 DUP13 DUP6 PUSH4 0xFFFFFFFF PUSH2 0x1008 AND JUMP JUMPDEST PUSH2 0xF8D DUP6 PUSH2 0xB0C DUP10 DUP8 PUSH4 0xFFFFFFFF PUSH2 0x1008 AND JUMP JUMPDEST SWAP1 PUSH4 0xFFFFFFFF PUSH2 0x105B AND JUMP JUMPDEST SWAP1 POP PUSH32 0x4ADD19BBBE358CAF4AF4A31B1299356FC4DCCF8B4CF3C87E401B0FA60062F31E DUP3 DUP5 DUP4 PUSH1 0x40 MLOAD PUSH2 0xFCE SWAP4 SWAP3 SWAP2 SWAP1 PUSH2 0x232E JUMP JUMPDEST PUSH1 0x40 MLOAD DUP1 SWAP2 SUB SWAP1 LOG1 DUP13 DUP2 SGT ISZERO PUSH2 0xFE6 JUMPI DUP3 SWAP6 POP PUSH2 0xFEA JUMP JUMPDEST DUP3 SWAP7 POP JUMPDEST POP POP POP DUP1 PUSH1 0x1 ADD SWAP1 POP PUSH2 0xF31 JUMP JUMPDEST POP SWAP2 SWAP3 POP POP POP SWAP6 POP SWAP6 SWAP4 POP POP POP POP JUMP JUMPDEST PUSH1 0x0 PUSH16 0x80000000000000000000000000000000 DUP3 ISZERO PUSH2 0x103A JUMPI POP PUSH6 0x10000000000 SWAP1 SWAP2 SDIV SWAP1 PUSH11 0x8000000000000000000000 JUMPDEST PUSH1 0x0 PUSH2 0x1046 DUP6 DUP6 PUSH2 0xD10 JUMP JUMPDEST SWAP1 POP DUP2 DUP2 DUP2 PUSH2 0x1051 JUMPI INVALID JUMPDEST SDIV SWAP6 SWAP5 POP POP POP POP POP JUMP JUMPDEST PUSH1 0x0 PUSH2 0x73F DUP4 DUP4 PUSH2 0xE55 JUMP JUMPDEST PUSH1 0xE SLOAD SWAP1 JUMP JUMPDEST PUSH1 0x0 DUP1 PUSH2 0x107B DUP8 DUP8 SUB PUSH2 0x649 JUMP JUMPDEST SWAP1 POP PUSH1 0x0 PUSH2 0x10A0 PUSH2 0x109B PUSH2 0x108E DUP9 PUSH2 0x142B JUMP JUMPDEST DUP5 SWAP1 PUSH4 0xFFFFFFFF PUSH2 0x1008 AND JUMP JUMPDEST PUSH2 0x1B15 JUMP JUMPDEST SWAP1 POP PUSH1 0x0 PUSH2 0x10B0 DUP3 PUSH2 0x1CB PUSH2 0x765 JUMP JUMPDEST SWAP1 POP PUSH1 0x0 PUSH2 0x10C4 DUP8 DUP4 PUSH4 0xFFFFFFFF PUSH2 0x1008 AND JUMP JUMPDEST SWAP1 POP PUSH1 0x0 PUSH2 0x10D8 DUP8 DUP6 PUSH4 0xFFFFFFFF PUSH2 0x1008 AND JUMP JUMPDEST SWAP1 POP PUSH1 0x0 PUSH2 0x1104 PUSH2 0x10EF DUP6 DUP12 PUSH4 0xFFFFFFFF PUSH2 0xEDA AND JUMP JUMPDEST PUSH2 0x10FF DUP8 DUP12 PUSH4 0xFFFFFFFF PUSH2 0xEDA AND JUMP JUMPDEST PUSH2 0x105B JUMP JUMPDEST SWAP1 POP PUSH1 0x0 PUSH2 0x1114 DUP3 PUSH2 0xAC3 PUSH2 0x765 JUMP JUMPDEST SWAP1 POP PUSH1 0x0 PUSH2 0x1139 PUSH2 0x1125 PUSH1 0x2 PUSH2 0x2123 JUMP JUMPDEST PUSH2 0xAC3 DUP5 PUSH2 0xF8D DUP10 DUP10 PUSH4 0xFFFFFFFF PUSH2 0x105B AND JUMP JUMPDEST SWAP15 SWAP14 POP POP POP POP POP POP POP POP POP POP POP POP POP POP JUMP JUMPDEST DUP1 MLOAD PUSH1 0x1 DUP1 SLOAD PUSH1 0x20 DUP5 ADD MLOAD PUSH32 0xFFFFFFFFFFFFFFFFFFFFFFFFFFFFFFFFFFFFFFFFFFFFFFFFFFFFFFFFFFFFFF00 SWAP1 SWAP2 AND SWAP3 ISZERO ISZERO SWAP3 SWAP1 SWAP3 OR PUSH32 0xFFFFFFFFFFFFFFFFFFFFFF0000000000000000000000000000000000000000FF AND PUSH2 0x100 PUSH20 0xFFFFFFFFFFFFFFFFFFFFFFFFFFFFFFFFFFFFFFFF SWAP4 DUP5 AND DUP2 MUL SWAP2 SWAP1 SWAP2 OR SWAP1 SWAP2 SSTORE PUSH1 0x40 DUP4 ADD MLOAD PUSH1 0x2 DUP1 SLOAD PUSH32 0xFFFFFFFFFFFFFFFFFFFFFFFF0000000000000000000000000000000000000000 AND SWAP2 SWAP1 SWAP4 AND OR SWAP1 SWAP2 SSTORE PUSH1 0x60 DUP3 ADD MLOAD PUSH1 0x3 SSTORE PUSH1 0x80 DUP3 ADD MLOAD PUSH1 0x4 SSTORE PUSH1 0xA0 DUP3 ADD MLOAD PUSH1 0x5 SSTORE PUSH1 0xC0 DUP3 ADD MLOAD PUSH1 0x6 SSTORE PUSH1 0xE0 DUP3 ADD MLOAD PUSH1 0x7 SSTORE DUP2 ADD MLOAD PUSH1 0x8 SSTORE PUSH2 0x120 DUP2 ADD MLOAD PUSH1 0x9 SSTORE PUSH2 0x140 DUP2 ADD MLOAD PUSH1 0xB SSTORE PUSH2 0x160 DUP2 ADD MLOAD PUSH1 0xC SSTORE PUSH2 0x180 ADD MLOAD PUSH1 0xD SSTORE JUMP JUMPDEST PUSH1 0x0 PUSH2 0x73F DUP3 PUSH1 0xA EXP DUP5 MUL PUSH2 0x213F JUMP JUMPDEST PUSH1 0x0 DUP1 PUSH2 0x1270 DUP5 DUP8 PUSH4 0xFFFFFFFF PUSH2 0x1008 AND JUMP JUMPDEST SWAP1 POP PUSH1 0x0 PUSH2 0x1284 DUP7 DUP4 PUSH4 0xFFFFFFFF PUSH2 0xEDA AND JUMP JUMPDEST SWAP1 POP PUSH1 0x0 PUSH2 0x1298 DUP4 DUP9 PUSH4 0xFFFFFFFF PUSH2 0xEDA AND JUMP JUMPDEST SWAP1 POP PUSH1 0x0 PUSH2 0x12A8 DUP7 PUSH2 0x1CB PUSH2 0x765 JUMP JUMPDEST SWAP1 POP PUSH1 0x0 PUSH2 0x12B4 PUSH2 0x765 JUMP JUMPDEST DUP5 SLT ISZERO PUSH2 0x12D2 JUMPI PUSH2 0x12CB PUSH2 0x109B DUP4 PUSH2 0xB0C DUP8 PUSH2 0x142B JUMP JUMPDEST SWAP1 POP PUSH2 0x12F0 JUMP JUMPDEST PUSH2 0x12ED PUSH2 0x12E5 PUSH2 0x109B DUP5 PUSH2 0xB0C DUP8 PUSH2 0x142B JUMP JUMPDEST PUSH2 0xAC3 PUSH2 0x765 JUMP JUMPDEST SWAP1 POP JUMPDEST PUSH2 0x1300 DUP2 DUP10 PUSH4 0xFFFFFFFF PUSH2 0x1008 AND JUMP JUMPDEST SWAP6 POP PUSH32 0x3CF9BD989028BFC957CA46FD34C8ED26F90D849442378EE442FCD56CF5CAC44F DUP11 DUP11 DUP11 DUP11 PUSH2 0x1330 DUP12 PUSH2 0x213F JUMP JUMPDEST PUSH1 0x40 MLOAD PUSH2 0x1341 SWAP6 SWAP5 SWAP4 SWAP3 SWAP2 SWAP1 PUSH2 0x2344 JUMP JUMPDEST PUSH1 0x40 MLOAD DUP1 SWAP2 SUB SWAP1 LOG1 POP POP POP POP POP SWAP5 SWAP4 POP POP POP POP JUMP JUMPDEST PUSH1 0x0 PUSH2 0x73F PUSH2 0x136E PUSH2 0x1366 PUSH2 0x765 JUMP JUMPDEST PUSH2 0xF8D PUSH2 0x765 JUMP JUMPDEST PUSH2 0xAC3 DUP6 DUP6 PUSH4 0xFFFFFFFF PUSH2 0x105B AND JUMP JUMPDEST PUSH1 0x0 DUP1 PUSH2 0x1391 DUP4 DUP1 PUSH4 0xFFFFFFFF PUSH2 0x1008 AND JUMP JUMPDEST SWAP1 POP PUSH1 0x0 PUSH2 0x13A5 DUP5 DUP4 PUSH4 0xFFFFFFFF PUSH2 0x1008 AND JUMP JUMPDEST SWAP1 POP PUSH1 0x0 PUSH2 0x13B9 DUP3 DUP1 PUSH4 0xFFFFFFFF PUSH2 0x1008 AND JUMP JUMPDEST SWAP1 POP PUSH1 0x0 PUSH2 0x13CD DUP3 DUP1 PUSH4 0xFFFFFFFF PUSH2 0x1008 AND JUMP JUMPDEST SWAP1 POP PUSH1 0x0 PUSH2 0x13E1 DUP3 DUP1 PUSH4 0xFFFFFFFF PUSH2 0x1008 AND JUMP JUMPDEST SWAP1 POP PUSH1 0x0 PUSH2 0x13F5 DUP3 DUP1 PUSH4 0xFFFFFFFF PUSH2 0x1008 AND JUMP JUMPDEST SWAP1 POP PUSH1 0x0 PUSH2 0x1409 DUP3 DUP1 PUSH4 0xFFFFFFFF PUSH2 0x1008 AND JUMP JUMPDEST SWAP1 POP PUSH1 0x0 PUSH2 0x141D DUP3 DUP9 PUSH4 0xFFFFFFFF PUSH2 0x1008 AND JUMP JUMPDEST SWAP11 SWAP10 POP POP POP POP POP POP POP POP POP POP JUMP JUMPDEST PUSH1 0x0 PUSH16 0x80000000000000000000000000000000 DUP3 SGT ISZERO PUSH2 0x1477 JUMPI PUSH1 0x40 MLOAD PUSH32 0x8C379A000000000000000000000000000000000000000000000000000000000 DUP2 MSTORE PUSH1 0x4 ADD PUSH2 0x527 SWAP1 PUSH2 0x24A0 JUMP JUMPDEST PUSH1 0x0 DUP3 SGT PUSH2 0x14B1 JUMPI PUSH1 0x40 MLOAD PUSH32 0x8C379A000000000000000000000000000000000000000000000000000000000 DUP2 MSTORE PUSH1 0x4 ADD PUSH2 0x527 SWAP1 PUSH2 0x2367 JUMP JUMPDEST PUSH16 0x80000000000000000000000000000000 DUP3 EQ ISZERO PUSH2 0x14D1 JUMPI POP PUSH1 0x0 PUSH2 0x9A8 JUMP JUMPDEST PUSH5 0x733048C5A DUP3 SGT PUSH2 0x1504 JUMPI POP PUSH32 0xFFFFFFFFFFFFFFFFFFFFFFFFFFFFFFE010000000000000000000000000000000 PUSH2 0x9A8 JUMP JUMPDEST PUSH1 0x0 DUP1 PUSH1 0x0 PUSH11 0x1C8464F76164760000000 DUP6 SGT PUSH2 0x1563 JUMPI PUSH32 0xFFFFFFFFFFFFFFFFFFFFFFFFFFFFFFF000000000000000000000000000000000 SWAP1 SWAP4 ADD SWAP3 PUSH11 0x1C8464F76164760000000 PUSH16 0x80000000000000000000000000000000 DUP7 MUL SDIV SWAP5 POP JUMPDEST PUSH13 0xF1AADDD7742E90000000000000 DUP6 SGT PUSH2 0x15C1 JUMPI PUSH32 0xFFFFFFFFFFFFFFFFFFFFFFFFFFFFFFF800000000000000000000000000000000 SWAP1 SWAP4 ADD SWAP3 PUSH13 0xF1AADDD7742E90000000000000 PUSH16 0x80000000000000000000000000000000 DUP7 MUL SDIV SWAP5 POP JUMPDEST PUSH15 0xAFE10820813D78000000000000000 DUP6 SGT PUSH2 0x1623 JUMPI PUSH32 0xFFFFFFFFFFFFFFFFFFFFFFFFFFFFFFFC00000000000000000000000000000000 SWAP1 SWAP4 ADD SWAP3 PUSH15 0xAFE10820813D78000000000000000 PUSH16 0x80000000000000000000000000000000 DUP7 MUL SDIV SWAP5 POP JUMPDEST PUSH16 0x2582AB704279EC00000000000000000 DUP6 SGT PUSH2 0x1687 JUMPI PUSH32 0xFFFFFFFFFFFFFFFFFFFFFFFFFFFFFFFE00000000000000000000000000000000 SWAP1 SWAP4 ADD SWAP3 PUSH16 0x2582AB704279EC00000000000000000 PUSH16 0x80000000000000000000000000000000 DUP7 MUL SDIV SWAP5 POP JUMPDEST PUSH16 0x1152AAA3BF81CC000000000000000000 DUP6 SGT PUSH2 0x16EB JUMPI PUSH32 0xFFFFFFFFFFFFFFFFFFFFFFFFFFFFFFFF00000000000000000000000000000000 SWAP1 SWAP4 ADD SWAP3 PUSH16 0x1152AAA3BF81CC000000000000000000 PUSH16 0x80000000000000000000000000000000 DUP7 MUL SDIV SWAP5 POP JUMPDEST PUSH16 0x2F16AC6C59DE70000000000000000000 DUP6 SGT PUSH2 0x174F JUMPI PUSH32 0xFFFFFFFFFFFFFFFFFFFFFFFFFFFFFFFF80000000000000000000000000000000 SWAP1 SWAP4 ADD SWAP3 PUSH16 0x2F16AC6C59DE70000000000000000000 PUSH16 0x80000000000000000000000000000000 DUP7 MUL SDIV SWAP5 POP JUMPDEST PUSH16 0x4DA2CBF1BE5828000000000000000000 DUP6 SGT PUSH2 0x17B3 JUMPI PUSH32 0xFFFFFFFFFFFFFFFFFFFFFFFFFFFFFFFFC0000000000000000000000000000000 SWAP1 SWAP4 ADD SWAP3 PUSH16 0x4DA2CBF1BE5828000000000000000000 PUSH16 0x80000000000000000000000000000000 DUP7 MUL SDIV SWAP5 POP JUMPDEST PUSH16 0x63AFBE7AB2082C000000000000000000 DUP6 SGT PUSH2 0x1817 JUMPI PUSH32 0xFFFFFFFFFFFFFFFFFFFFFFFFFFFFFFFFE0000000000000000000000000000000 SWAP1 SWAP4 ADD SWAP3 PUSH16 0x63AFBE7AB2082C000000000000000000 PUSH16 0x80000000000000000000000000000000 DUP7 MUL SDIV SWAP5 POP JUMPDEST PUSH16 0x70F5A893B608861E1F58934F97AEA57D DUP6 SGT PUSH2 0x187B JUMPI PUSH32 0xFFFFFFFFFFFFFFFFFFFFFFFFFFFFFFFFF0000000000000000000000000000000 SWAP1 SWAP4 ADD SWAP3 PUSH16 0x70F5A893B608861E1F58934F97AEA57D PUSH16 0x80000000000000000000000000000000 DUP7 MUL SDIV SWAP5 POP JUMPDEST PUSH32 0xFFFFFFFFFFFFFFFFFFFFFFFFFFFFFFFF80000000000000000000000000000000 DUP6 ADD SWAP3 POP DUP3 SWAP2 POP PUSH16 0x80000000000000000000000000000000 DUP3 DUP1 MUL SDIV SWAP1 POP PUSH17 0x100000000000000000000000000000000 DUP4 DUP2 SUB DUP4 MUL SDIV DUP5 ADD SWAP4 POP PUSH16 0x80000000000000000000000000000000 DUP2 DUP4 MUL DUP2 PUSH2 0x18F1 JUMPI INVALID JUMPDEST SDIV SWAP2 POP PUSH17 0x200000000000000000000000000000000 DUP4 PUSH16 0xAAAAAAAAAAAAAAAAAAAAAAAAAAAAAAAA SUB DUP4 MUL DUP2 PUSH2 0x1922 JUMPI INVALID JUMPDEST SDIV DUP5 ADD SWAP4 POP PUSH16 0x80000000000000000000000000000000 DUP2 DUP4 MUL DUP2 PUSH2 0x1942 JUMPI INVALID JUMPDEST SDIV SWAP2 POP PUSH17 0x300000000000000000000000000000000 DUP4 PUSH16 0x99999999999999999999999999999999 SUB DUP4 MUL DUP2 PUSH2 0x1973 JUMPI INVALID JUMPDEST SDIV DUP5 ADD SWAP4 POP PUSH16 0x80000000000000000000000000000000 DUP2 DUP4 MUL DUP2 PUSH2 0x1993 JUMPI INVALID JUMPDEST SDIV SWAP2 POP PUSH17 0x400000000000000000000000000000000 DUP4 PUSH16 0x92492492492492492492492492492492 SUB DUP4 MUL DUP2 PUSH2 0x19C4 JUMPI INVALID JUMPDEST SDIV DUP5 ADD SWAP4 POP PUSH16 0x80000000000000000000000000000000 DUP2 DUP4 MUL DUP2 PUSH2 0x19E4 JUMPI INVALID JUMPDEST SDIV SWAP2 POP PUSH17 0x500000000000000000000000000000000 DUP4 PUSH16 0x8E38E38E38E38E38E38E38E38E38E38E SUB DUP4 MUL DUP2 PUSH2 0x1A15 JUMPI INVALID JUMPDEST SDIV DUP5 ADD SWAP4 POP PUSH16 0x80000000000000000000000000000000 DUP2 DUP4 MUL DUP2 PUSH2 0x1A35 JUMPI INVALID JUMPDEST SDIV SWAP2 POP PUSH17 0x600000000000000000000000000000000 DUP4 PUSH16 0x8BA2E8BA2E8BA2E8BA2E8BA2E8BA2E8B SUB DUP4 MUL DUP2 PUSH2 0x1A66 JUMPI INVALID JUMPDEST SDIV DUP5 ADD SWAP4 POP PUSH16 0x80000000000000000000000000000000 DUP2 DUP4 MUL DUP2 PUSH2 0x1A86 JUMPI INVALID JUMPDEST SDIV SWAP2 POP PUSH17 0x700000000000000000000000000000000 DUP4 PUSH16 0x89D89D89D89D89D89D89D89D89D89D89 SUB DUP4 MUL DUP2 PUSH2 0x1AB7 JUMPI INVALID JUMPDEST SDIV DUP5 ADD SWAP4 POP PUSH16 0x80000000000000000000000000000000 DUP2 DUP4 MUL DUP2 PUSH2 0x1AD7 JUMPI INVALID JUMPDEST SDIV SWAP2 POP PUSH17 0x800000000000000000000000000000000 DUP4 PUSH16 0x88888888888888888888888888888888 SUB DUP4 MUL DUP2 PUSH2 0x1B08 JUMPI INVALID JUMPDEST SDIV DUP5 ADD SWAP4 POP POP POP POP SWAP2 SWAP1 POP JUMP JUMPDEST PUSH1 0x0 PUSH32 0xFFFFFFFFFFFFFFFFFFFFFFFFFFFFFFE010000000000000000000000000000000 DUP3 SLT ISZERO PUSH2 0x1B47 JUMPI POP PUSH1 0x0 PUSH2 0x9A8 JUMP JUMPDEST DUP2 PUSH2 0x1B63 JUMPI POP PUSH16 0x80000000000000000000000000000000 PUSH2 0x9A8 JUMP JUMPDEST PUSH1 0x0 DUP3 SGT ISZERO PUSH2 0x1B9E JUMPI PUSH1 0x40 MLOAD PUSH32 0x8C379A000000000000000000000000000000000000000000000000000000000 DUP2 MSTORE PUSH1 0x4 ADD PUSH2 0x527 SWAP1 PUSH2 0x2534 JUMP JUMPDEST PUSH16 0x80000000000000000000000000000000 PUSH16 0x10000000000000000000000000000000 DUP4 SMOD DUP1 DUP1 MUL DUP3 SWAP1 SDIV PUSH8 0x10E1B3BE415A0000 DUP2 MUL SWAP4 SWAP1 SWAP4 ADD SWAP3 SWAP1 SWAP2 DUP2 DUP4 MUL SDIV SWAP1 POP DUP1 PUSH8 0x5A0913F6B1E0000 MUL DUP4 ADD SWAP3 POP PUSH16 0x80000000000000000000000000000000 DUP3 DUP3 MUL DUP2 PUSH2 0x1C0A JUMPI INVALID JUMPDEST SDIV SWAP1 POP DUP1 PUSH8 0x168244FDAC78000 MUL DUP4 ADD SWAP3 POP PUSH16 0x80000000000000000000000000000000 DUP3 DUP3 MUL DUP2 PUSH2 0x1C37 JUMPI INVALID JUMPDEST SDIV SWAP1 POP DUP1 PUSH7 0x4807432BC18000 MUL DUP4 ADD SWAP3 POP PUSH16 0x80000000000000000000000000000000 DUP3 DUP3 MUL DUP2 PUSH2 0x1C63 JUMPI INVALID JUMPDEST SDIV SWAP1 POP DUP1 PUSH7 0xC0135DCA04000 MUL DUP4 ADD SWAP3 POP PUSH16 0x80000000000000000000000000000000 DUP3 DUP3 MUL DUP2 PUSH2 0x1C8F JUMPI INVALID JUMPDEST SDIV SWAP1 POP DUP1 PUSH7 0x1B707B1CDC000 MUL DUP4 ADD SWAP3 POP PUSH16 0x80000000000000000000000000000000 DUP3 DUP3 MUL DUP2 PUSH2 0x1CBB JUMPI INVALID JUMPDEST SDIV SWAP1 POP DUP1 PUSH6 0x36E0F639B800 MUL DUP4 ADD SWAP3 POP PUSH16 0x80000000000000000000000000000000 DUP3 DUP3 MUL DUP2 PUSH2 0x1CE6 JUMPI INVALID JUMPDEST SDIV SWAP1 POP DUP1 PUSH6 0x618FEE9F800 MUL DUP4 ADD SWAP3 POP PUSH16 0x80000000000000000000000000000000 DUP3 DUP3 MUL DUP2 PUSH2 0x1D11 JUMPI INVALID JUMPDEST SDIV SWAP1 POP DUP1 PUSH5 0x9C197DCC00 MUL DUP4 ADD SWAP3 POP PUSH16 0x80000000000000000000000000000000 DUP3 DUP3 MUL DUP2 PUSH2 0x1D3B JUMPI INVALID JUMPDEST SDIV SWAP1 POP DUP1 PUSH5 0xE30DCE400 MUL DUP4 ADD SWAP3 POP PUSH16 0x80000000000000000000000000000000 DUP3 DUP3 MUL DUP2 PUSH2 0x1D65 JUMPI INVALID JUMPDEST SDIV SWAP1 POP DUP1 PUSH5 0x12EBD1300 MUL DUP4 ADD SWAP3 POP PUSH16 0x80000000000000000000000000000000 DUP3 DUP3 MUL DUP2 PUSH2 0x1D8F JUMPI INVALID JUMPDEST SDIV SWAP1 POP DUP1 PUSH4 0x17499F00 MUL DUP4 ADD SWAP3 POP PUSH16 0x80000000000000000000000000000000 DUP3 DUP3 MUL DUP2 PUSH2 0x1DB8 JUMPI INVALID JUMPDEST SDIV SWAP1 POP DUP1 PUSH4 0x1A9D480 MUL DUP4 ADD SWAP3 POP PUSH16 0x80000000000000000000000000000000 DUP3 DUP3 MUL DUP2 PUSH2 0x1DE1 JUMPI INVALID JUMPDEST SDIV SWAP1 POP DUP1 PUSH3 0x1C6380 MUL DUP4 ADD SWAP3 POP PUSH16 0x80000000000000000000000000000000 DUP3 DUP3 MUL DUP2 PUSH2 0x1E09 JUMPI INVALID JUMPDEST SDIV SWAP1 POP DUP1 PUSH3 0x1C638 MUL DUP4 ADD SWAP3 POP PUSH16 0x80000000000000000000000000000000 DUP3 DUP3 MUL DUP2 PUSH2 0x1E31 JUMPI INVALID JUMPDEST SDIV SWAP1 POP DUP1 PUSH2 0x1AB8 MUL DUP4 ADD SWAP3 POP PUSH16 0x80000000000000000000000000000000 DUP3 DUP3 MUL DUP2 PUSH2 0x1E58 JUMPI INVALID JUMPDEST SDIV SWAP1 POP DUP1 PUSH2 0x17C MUL DUP4 ADD SWAP3 POP PUSH16 0x80000000000000000000000000000000 DUP3 DUP3 MUL DUP2 PUSH2 0x1E7F JUMPI INVALID JUMPDEST SDIV SWAP1 POP DUP1 PUSH1 0x14 MUL DUP4 ADD SWAP3 POP PUSH16 0x80000000000000000000000000000000 DUP3 DUP3 MUL DUP2 PUSH2 0x1EA5 JUMPI INVALID JUMPDEST PUSH1 0x0 SWAP6 SWAP1 SWAP6 SUB SWAP5 PUSH8 0x21C3677C82B40000 SWAP2 SWAP1 SDIV SWAP4 DUP5 ADD SDIV DUP3 ADD PUSH16 0x80000000000000000000000000000000 ADD SWAP3 SWAP1 POP PUSH17 0x1000000000000000000000000000000000 DUP5 AND ISZERO PUSH2 0x1F14 JUMPI PUSH19 0x43CBAF42A000812488FC5C220AD7B97BF6E99E PUSH13 0xF1AADDD7742E56D32FB9F99744 DUP5 MUL SDIV SWAP3 POP JUMPDEST PUSH17 0x800000000000000000000000000000000 DUP5 AND ISZERO PUSH2 0x1F56 JUMPI PUSH18 0x5D27A9F51C31B7C2F8038212A0574779991 PUSH15 0xAFE10820813D65DFE6A33C07F738F DUP5 MUL SDIV SWAP3 POP JUMPDEST PUSH17 0x400000000000000000000000000000000 DUP5 AND ISZERO PUSH2 0x1F98 JUMPI PUSH17 0x1B4C902E273A58678D6D3BFDB93DB96D02 PUSH16 0x2582AB704279E8EFD15E0265855C47A DUP5 MUL SDIV SWAP3 POP JUMPDEST PUSH17 0x200000000000000000000000000000000 DUP5 AND ISZERO PUSH2 0x1FDA JUMPI PUSH17 0x3B1CC971A9BB5B9867477440D6D157750 PUSH16 0x1152AAA3BF81CB9FDB76EAE12D029571 DUP5 MUL SDIV SWAP3 POP JUMPDEST PUSH17 0x100000000000000000000000000000000 DUP5 AND ISZERO PUSH2 0x201C JUMPI PUSH17 0x15BF0A8B1457695355FB8AC404E7A79E3 PUSH16 0x2F16AC6C59DE6F8D5D6F63C1482A7C86 DUP5 MUL SDIV SWAP3 POP JUMPDEST PUSH16 0x80000000000000000000000000000000 DUP5 AND ISZERO PUSH2 0x205C JUMPI PUSH16 0xD3094C70F034DE4B96FF7D5B6F99FCD8 PUSH16 0x4DA2CBF1BE5827F9EB3AD1AA9866EBB3 DUP5 MUL SDIV SWAP3 POP JUMPDEST PUSH16 0x40000000000000000000000000000000 DUP5 AND ISZERO PUSH2 0x209C JUMPI PUSH16 0xA45AF1E1F40C333B3DE1DB4DD55F29A7 PUSH16 0x63AFBE7AB2082BA1A0AE5E4EB1B479DC DUP5 MUL SDIV SWAP3 POP JUMPDEST PUSH16 0x20000000000000000000000000000000 DUP5 AND ISZERO PUSH2 0x20DC JUMPI PUSH16 0x910B022DB7AE67CE76B441C27035C6A1 PUSH16 0x70F5A893B608861E1F58934F97AEA57D DUP5 MUL SDIV SWAP3 POP JUMPDEST PUSH16 0x10000000000000000000000000000000 DUP5 AND ISZERO PUSH2 0x211C JUMPI PUSH16 0x88415ABBE9A76BEAD8D00CF112E4D4A8 PUSH16 0x783EAFEF1C0A8F3978C7F81824D62EBF DUP5 MUL SDIV SWAP3 POP JUMPDEST POP POP SWAP2 SWAP1 POP JUMP JUMPDEST PUSH1 0x0 PUSH2 0x69F DUP3 PUSH16 0x80000000000000000000000000000000 PUSH2 0xD10 JUMP JUMPDEST PUSH16 0x80000000000000000000000000000000 SWAP1 SDIV SWAP1 JUMP JUMPDEST PUSH1 0x40 MLOAD DUP1 PUSH2 0x1A0 ADD PUSH1 0x40 MSTORE DUP1 PUSH1 0x0 ISZERO ISZERO DUP2 MSTORE PUSH1 0x20 ADD PUSH1 0x0 PUSH20 0xFFFFFFFFFFFFFFFFFFFFFFFFFFFFFFFFFFFFFFFF AND DUP2 MSTORE PUSH1 0x20 ADD PUSH1 0x0 PUSH20 0xFFFFFFFFFFFFFFFFFFFFFFFFFFFFFFFFFFFFFFFF AND DUP2 MSTORE PUSH1 0x20 ADD PUSH1 0x0 DUP2 MSTORE PUSH1 0x20 ADD PUSH1 0x0 DUP2 MSTORE PUSH1 0x20 ADD PUSH1 0x0 DUP2 MSTORE PUSH1 0x20 ADD PUSH1 0x0 DUP2 MSTORE PUSH1 0x20 ADD PUSH1 0x0 DUP2 MSTORE PUSH1 0x20 ADD PUSH1 0x0 DUP2 MSTORE PUSH1 0x20 ADD PUSH1 0x0 DUP2 MSTORE PUSH1 0x20 ADD PUSH1 0x0 DUP2 MSTORE PUSH1 0x20 ADD PUSH1 0x0 DUP2 MSTORE PUSH1 0x20 ADD PUSH1 0x0 DUP2 MSTORE POP SWAP1 JUMP JUMPDEST PUSH1 0x0 PUSH1 0x20 DUP3 DUP5 SUB SLT ISZERO PUSH2 0x21FC JUMPI DUP1 DUP2 REVERT JUMPDEST DUP2 CALLDATALOAD PUSH20 0xFFFFFFFFFFFFFFFFFFFFFFFFFFFFFFFFFFFFFFFF DUP2 AND DUP2 EQ PUSH2 0x73F JUMPI DUP2 DUP3 REVERT JUMPDEST PUSH1 0x0 DUP1 PUSH1 0x0 PUSH1 0x60 DUP5 DUP7 SUB SLT ISZERO PUSH2 0x2233 JUMPI DUP2 DUP3 REVERT JUMPDEST DUP4 CALLDATALOAD PUSH2 0x223E DUP2 PUSH2 0x271B JUMP JUMPDEST SWAP3 POP PUSH1 0x20 DUP5 ADD CALLDATALOAD PUSH2 0x224E DUP2 PUSH2 0x271B JUMP JUMPDEST SWAP3 SWAP6 SWAP3 SWAP5 POP POP POP PUSH1 0x40 SWAP2 SWAP1 SWAP2 ADD CALLDATALOAD SWAP1 JUMP JUMPDEST PUSH1 0x0 PUSH1 0x20 DUP3 DUP5 SUB SLT ISZERO PUSH2 0x2270 JUMPI DUP1 DUP2 REVERT JUMPDEST POP CALLDATALOAD SWAP2 SWAP1 POP JUMP JUMPDEST PUSH20 0xFFFFFFFFFFFFFFFFFFFFFFFFFFFFFFFFFFFFFFFF SWAP2 SWAP1 SWAP2 AND DUP2 MSTORE PUSH1 0x20 ADD SWAP1 JUMP JUMPDEST PUSH20 0xFFFFFFFFFFFFFFFFFFFFFFFFFFFFFFFFFFFFFFFF SWAP3 DUP4 AND DUP2 MSTORE SWAP2 AND PUSH1 0x20 DUP3 ADD MSTORE PUSH1 0x40 ADD SWAP1 JUMP JUMPDEST PUSH20 0xFFFFFFFFFFFFFFFFFFFFFFFFFFFFFFFFFFFFFFFF SWAP6 DUP7 AND DUP2 MSTORE SWAP4 DUP6 AND PUSH1 0x20 DUP6 ADD MSTORE SWAP2 SWAP1 SWAP4 AND PUSH1 0x40 DUP4 ADD MSTORE PUSH1 0x60 DUP3 ADD SWAP3 SWAP1 SWAP3 MSTORE PUSH1 0x80 DUP2 ADD SWAP2 SWAP1 SWAP2 MSTORE PUSH1 0xA0 ADD SWAP1 JUMP JUMPDEST PUSH20 0xFFFFFFFFFFFFFFFFFFFFFFFFFFFFFFFFFFFFFFFF SWAP4 SWAP1 SWAP4 AND DUP4 MSTORE PUSH1 0x20 DUP4 ADD SWAP2 SWAP1 SWAP2 MSTORE PUSH1 0x40 DUP3 ADD MSTORE PUSH1 0x60 ADD SWAP1 JUMP JUMPDEST SWAP3 DUP4 MSTORE PUSH1 0x20 DUP4 ADD SWAP2 SWAP1 SWAP2 MSTORE PUSH1 0x40 DUP3 ADD MSTORE PUSH1 0x60 ADD SWAP1 JUMP JUMPDEST SWAP5 DUP6 MSTORE PUSH1 0x20 DUP6 ADD SWAP4 SWAP1 SWAP4 MSTORE PUSH1 0x40 DUP5 ADD SWAP2 SWAP1 SWAP2 MSTORE PUSH1 0x60 DUP4 ADD MSTORE PUSH1 0x80 DUP3 ADD MSTORE PUSH1 0xA0 ADD SWAP1 JUMP JUMPDEST PUSH1 0x20 DUP1 DUP3 MSTORE PUSH1 0x13 SWAP1 DUP3 ADD MSTORE PUSH32 0x6C6E3A2076616C756520746F6F20736D616C6C00000000000000000000000000 PUSH1 0x40 DUP3 ADD MSTORE PUSH1 0x60 ADD SWAP1 JUMP JUMPDEST PUSH1 0x20 DUP1 DUP3 MSTORE PUSH1 0xE SWAP1 DUP3 ADD MSTORE PUSH32 0x4F6E6C794F776E65724572726F72000000000000000000000000000000000000 PUSH1 0x40 DUP3 ADD MSTORE PUSH1 0x60 ADD SWAP1 JUMP JUMPDEST PUSH1 0x20 DUP1 DUP3 MSTORE PUSH1 0x13 SWAP1 DUP3 ADD MSTORE PUSH32 0x416C726561647920496E697469616C697A656400000000000000000000000000 PUSH1 0x40 DUP3 ADD MSTORE PUSH1 0x60 ADD SWAP1 JUMP JUMPDEST PUSH1 0x20 DUP1 DUP3 MSTORE PUSH1 0x17 SWAP1 DUP3 ADD MSTORE PUSH32 0x496E76616C696420746F6B656E20616464726573736573000000000000000000 PUSH1 0x40 DUP3 ADD MSTORE PUSH1 0x60 ADD SWAP1 JUMP JUMPDEST PUSH1 0x20 DUP1 DUP3 MSTORE PUSH1 0x38 SWAP1 DUP3 ADD MSTORE PUSH32 0x746F46697865642875696E742C75696E74293A2064656E6F6D696E61746F7220 PUSH1 0x40 DUP3 ADD MSTORE PUSH32 0x63616E6E6F74206265206C657373207468616E207A65726F0000000000000000 PUSH1 0x60 DUP3 ADD MSTORE PUSH1 0x80 ADD SWAP1 JUMP JUMPDEST PUSH1 0x20 DUP1 DUP3 MSTORE PUSH1 0x13 SWAP1 DUP3 ADD MSTORE PUSH32 0x6C6E3A2076616C756520746F6F206C6172676500000000000000000000000000 PUSH1 0x40 DUP3 ADD MSTORE PUSH1 0x60 ADD SWAP1 JUMP JUMPDEST PUSH1 0x20 DUP1 DUP3 MSTORE PUSH1 0x27 SWAP1 DUP3 ADD MSTORE PUSH32 0x746F46697865643A2076616C75652063616E6E6F74206265206C657373207468 PUSH1 0x40 DUP3 ADD MSTORE PUSH32 0x616E207A65726F00000000000000000000000000000000000000000000000000 PUSH1 0x60 DUP3 ADD MSTORE PUSH1 0x80 ADD SWAP1 JUMP JUMPDEST PUSH1 0x20 DUP1 DUP3 MSTORE PUSH1 0x14 SWAP1 DUP3 ADD MSTORE PUSH32 0x6578703A2076616C756520746F6F20736D616C6C000000000000000000000000 PUSH1 0x40 DUP3 ADD MSTORE PUSH1 0x60 ADD SWAP1 JUMP JUMPDEST PUSH1 0x20 DUP1 DUP3 MSTORE PUSH1 0x18 SWAP1 DUP3 ADD MSTORE PUSH32 0x5472616E736665724F776E6572546F5A65726F4572726F720000000000000000 PUSH1 0x40 DUP3 ADD MSTORE PUSH1 0x60 ADD SWAP1 JUMP JUMPDEST PUSH1 0x20 DUP1 DUP3 MSTORE PUSH1 0xE SWAP1 DUP3 ADD MSTORE PUSH32 0x5F6D756C3A206F766572666C6F77000000000000000000000000000000000000 PUSH1 0x40 DUP3 ADD MSTORE PUSH1 0x60 ADD SWAP1 JUMP JUMPDEST PUSH1 0x20 DUP1 DUP3 MSTORE PUSH1 0xE SWAP1 DUP3 ADD MSTORE PUSH32 0x5F6164643A206F766572666C6F77000000000000000000000000000000000000 PUSH1 0x40 DUP3 ADD MSTORE PUSH1 0x60 ADD SWAP1 JUMP JUMPDEST PUSH1 0x20 DUP1 DUP3 MSTORE PUSH1 0x14 SWAP1 DUP3 ADD MSTORE PUSH32 0x7375623A2076616C756520746F6F20736D616C6C000000000000000000000000 PUSH1 0x40 DUP3 ADD MSTORE PUSH1 0x60 ADD SWAP1 JUMP JUMPDEST PUSH1 0x20 DUP1 DUP3 MSTORE PUSH1 0x36 SWAP1 DUP3 ADD MSTORE PUSH32 0x746F46697865642875696E742C75696E74293A206E756D657261746F72206361 PUSH1 0x40 DUP3 ADD MSTORE PUSH32 0x6E6E6F74206265206C657373207468616E207A65726F00000000000000000000 PUSH1 0x60 DUP3 ADD MSTORE PUSH1 0x80 ADD SWAP1 JUMP JUMPDEST PUSH1 0x20 DUP1 DUP3 MSTORE PUSH1 0x14 SWAP1 DUP3 ADD MSTORE PUSH32 0x5F6469763A20646976696465206279207A65726F000000000000000000000000 PUSH1 0x40 DUP3 ADD MSTORE PUSH1 0x60 ADD SWAP1 JUMP JUMPDEST PUSH1 0x20 DUP1 DUP3 MSTORE PUSH1 0xE SWAP1 DUP3 ADD MSTORE PUSH32 0x5F6469763A206F766572666C6F77000000000000000000000000000000000000 PUSH1 0x40 DUP3 ADD MSTORE PUSH1 0x60 ADD SWAP1 JUMP JUMPDEST SWAP1 DUP2 MSTORE PUSH1 0x20 ADD SWAP1 JUMP JUMPDEST PUSH20 0xFFFFFFFFFFFFFFFFFFFFFFFFFFFFFFFFFFFFFFFF DUP2 AND DUP2 EQ PUSH2 0x259 JUMPI PUSH1 0x0 DUP1 REVERT INVALID LOG3 PUSH6 0x627A7A723158 KECCAK256 SUB PUSH27 0x3BF74D47EC82883496E8E9ECA3D1E8723796896857B8C780CCB02D SWAP9 PUSH12 0xA76C6578706572696D656E74 PUSH2 0x6CF5 PUSH5 0x736F6C6343 STOP SDIV 0xD STOP BLOCKHASH "
			}
		}
	},
	"sourceTreeHashHex": "0xdb37ca8c7d0d98a27562fec6c81c55e9d9e7c452781d4cbd39155fa626753062",
	"compiler": {
		"name": "solc",
		"version": "soljson-v0.5.13+commit.5b0b510c.js",
		"settings": {
			"optimizer": {
				"enabled": true,
				"runs": 1000000,
				"details": {
					"yul": true,
					"deduplicate": true,
					"cse": true,
					"constantOptimizer": true
				}
			},
			"outputSelection": {
				"*": {
					"*": [
						"abi",
						"devdoc",
						"evm.bytecode.object",
						"evm.bytecode.sourceMap",
						"evm.deployedBytecode.object",
						"evm.deployedBytecode.sourceMap"
					]
				}
			},
			"evmVersion": "constantinople",
			"remappings": []
		}
	},
	"chains": {}
}