{
	"schemaVersion": "2.0.0",
	"contractName": "TestScam",
	"compilerOutput": {
		"abi": [
			{
				"anonymous": false,
				"inputs": [
					{
						"indexed": false,
						"internalType": "address",
						"name": "from",
						"type": "address"
					},
					{
						"indexed": false,
						"internalType": "address",
						"name": "fromToken",
						"type": "address"
					},
					{
						"indexed": false,
						"internalType": "address",
						"name": "toToken",
						"type": "address"
					},
					{
						"indexed": false,
						"internalType": "uint256",
						"name": "amountSpent",
						"type": "uint256"
					},
					{
						"indexed": false,
						"internalType": "uint256",
						"name": "amountReceived",
						"type": "uint256"
					}
				],
				"name": "Fill",
				"type": "event"
			},
			{
				"constant": false,
				"inputs": [
					{
						"internalType": "uint256",
						"name": "amount",
						"type": "uint256"
					}
				],
				"name": "addLiquidity",
				"outputs": [],
				"payable": false,
				"stateMutability": "nonpayable",
				"type": "function"
			},
			{
				"constant": false,
				"inputs": [
					{
						"internalType": "uint256",
						"name": "rhoNumerator",
						"type": "uint256"
					},
					{
						"internalType": "uint256",
						"name": "rhoDenominator",
						"type": "uint256"
					}
				],
				"name": "init",
				"outputs": [],
				"payable": false,
				"stateMutability": "nonpayable",
				"type": "function"
			},
			{
				"constant": false,
				"inputs": [
					{
						"internalType": "uint256",
						"name": "amount",
						"type": "uint256"
					}
				],
				"name": "removeLiquidity",
				"outputs": [],
				"payable": false,
				"stateMutability": "nonpayable",
				"type": "function"
			},
			{
				"constant": false,
				"inputs": [],
				"name": "runBasicTest",
				"outputs": [],
				"payable": false,
				"stateMutability": "nonpayable",
				"type": "function"
			},
			{
				"constant": false,
				"inputs": [
					{
						"internalType": "address",
						"name": "fromToken",
						"type": "address"
					},
					{
						"internalType": "address",
						"name": "toToken",
						"type": "address"
					},
					{
						"internalType": "uint256",
						"name": "amount",
						"type": "uint256"
					}
				],
				"name": "swap",
				"outputs": [],
				"payable": false,
				"stateMutability": "nonpayable",
				"type": "function"
			}
		],
		"devdoc": {
			"methods": {}
		},
		"evm": {
			"bytecode": {
				"linkReferences": {},
				"object": "0x6080604052611bc7806100136000396000f3fe608060405234801561001057600080fd5b50600436106100675760003560e01c80639c8f9f23116100505780639c8f9f231461006c578063a5843f0814610089578063df791e501461009c57610067565b806351c6590a1461006c578063978ca36f14610081575b600080fd5b61007f61007a3660046117c9565b6100af565b005b61007f6100b2565b61007f6100973660046117e1565b610168565b61007f6100aa366004611789565b6101be565b50565b600080547fffffffffffffffffffffffff0000000000000000000000000000000000000000908116600190811790925581541660021790556100f6620186a0610335565b600255610105620186a0610335565b6003556101126001610335565b60045560636006819055610127906064610391565b6007556101376005612710610391565b6008556000546001546101669173ffffffffffffffffffffffffffffffffffffffff90811691166101f46101be565b565b8160010181146101ad576040517f08c379a00000000000000000000000000000000000000000000000000000000081526004016101a490611825565b60405180910390fd5b6101b78282610391565b6007555050565b6101c66116fc565b6101ce610432565b905060006101db83610335565b825190915060009081908190819073ffffffffffffffffffffffffffffffffffffffff8a8116911614801561023f5750856020015173ffffffffffffffffffffffffffffffffffffffff168873ffffffffffffffffffffffffffffffffffffffff16145b1561025e57505050506040820151606083015160808401516001610307565b856020015173ffffffffffffffffffffffffffffffffffffffff168973ffffffffffffffffffffffffffffffffffffffff161480156102b65750855173ffffffffffffffffffffffffffffffffffffffff8981169116145b156102d55785606001519350856040015192508560a001519150610307565b6040517f08c379a00000000000000000000000000000000000000000000000000000000081526004016101a490611893565b6000610316858585898b6104c5565b905050505050505050610330565b9063ffffffff61060216565b505050565b600080821215610371576040517f08c379a00000000000000000000000000000000000000000000000000000000081526004016101a49061195e565b61038b826f80000000000000000000000000000000610661565b92915050565b6000808312156103cd576040517f08c379a00000000000000000000000000000000000000000000000000000000081526004016101a490611a97565b6000821215610408576040517f08c379a00000000000000000000000000000000000000000000000000000000081526004016101a4906118ca565b61042b610425846f80000000000000000000000000000000610661565b836106d7565b9392505050565b61043a6116fc565b50604080516101808101825260005473ffffffffffffffffffffffffffffffffffffffff9081168252600154166020820152600254918101919091526003546060820152600454608082015260055460a082015260065460c082015260075460e0820152600854610100820152600954610120820152600a54610140820152600c5461016082015290565b6000806104d88787878660e001516107a6565b9050600091505061057c565b8661012001518110156105745760006104fd8585610878565b90506000610519610514838d63ffffffff6108a016565b6108c9565b905060006105506105308c8563ffffffff61060216565b61054485610324898763ffffffff61060216565b9063ffffffff61065516565b90508c81131561056257829550610566565b8296505b5050508060010190506104e4565b509193505050505b95945050505050565b6f8000000000000000000000000000000090565b60007f80000000000000000000000000000000000000000000000000000000000000008214156105f5576040517f08c379a00000000000000000000000000000000000000000000000000000000081526004016101a490611a60565b61042b8383600003610978565b60006f800000000000000000000000000000008215610634575065010000000000909105906a80000000000000000000005b60006106408585610661565b905081818161064b57fe5b0595945050505050565b600061042b8383610978565b600082158061066e575081155b1561067b5750600061038b565b508181028183828161068957fe5b051415806106a057508282828161069c57fe5b0514155b1561038b576040517f08c379a00000000000000000000000000000000000000000000000000000000081526004016101a4906119f2565b600081610710576040517f08c379a00000000000000000000000000000000000000000000000000000000081526004016101a490611af4565b7f80000000000000000000000000000000000000000000000000000000000000008314801561075e5750817fffffffffffffffffffffffffffffffffffffffffffffffffffffffffffffffff145b15610795576040517f08c379a00000000000000000000000000000000000000000000000000000000081526004016101a490611b2b565b81838161079e57fe5b059392505050565b6000806107c16107b4610585565b849063ffffffff61059916565b905060006107ed6107e8876107dc888b63ffffffff61060216565b9063ffffffff6108a016565b6109ee565b90506000610801838363ffffffff61060216565b9050600061080e826110d8565b90506000610822888363ffffffff61060216565b90507f3cf9bd989028bfc957ca46fd34c8ed26f90d849442378ee442fcd56cf5cac44f8a8a8a8a610852866116e6565b604051610863959493929190611802565b60405180910390a19998505050505050505050565b600061042b610890610888610585565b610544610585565b6107dc858563ffffffff61065516565b60006108ba610425846a8000000000000000000000610661565b65010000000000029392505050565b6000806108dc838063ffffffff61060216565b905060006108f0848363ffffffff61060216565b90506000610904828063ffffffff61060216565b90506000610918828063ffffffff61060216565b9050600061092c828063ffffffff61060216565b90506000610940828063ffffffff61060216565b90506000610954828063ffffffff61060216565b90506000610968828863ffffffff61060216565b985050505050505050505b919050565b81810160008312801561098b5750600082125b801561099657508281135b806109b757506000831380156109ac5750600082135b80156109b757508281125b1561038b576040517f08c379a00000000000000000000000000000000000000000000000000000000081526004016101a490611a29565b60006f80000000000000000000000000000000821315610a3a576040517f08c379a00000000000000000000000000000000000000000000000000000000081526004016101a490611927565b60008213610a74576040517f08c379a00000000000000000000000000000000000000000000000000000000081526004016101a49061185c565b6f80000000000000000000000000000000821415610a9457506000610973565b640733048c5a8213610ac757507fffffffffffffffffffffffffffffffe010000000000000000000000000000000610973565b60008060006a01c8464f761647600000008513610b26577ffffffffffffffffffffffffffffffff000000000000000000000000000000000909301926a01c8464f761647600000006f8000000000000000000000000000000086020594505b6cf1aaddd7742e900000000000008513610b84577ffffffffffffffffffffffffffffffff800000000000000000000000000000000909301926cf1aaddd7742e900000000000006f8000000000000000000000000000000086020594505b6e0afe10820813d780000000000000008513610be6577ffffffffffffffffffffffffffffffffc00000000000000000000000000000000909301926e0afe10820813d780000000000000006f8000000000000000000000000000000086020594505b6f02582ab704279ec000000000000000008513610c4a577ffffffffffffffffffffffffffffffffe00000000000000000000000000000000909301926f02582ab704279ec000000000000000006f8000000000000000000000000000000086020594505b6f1152aaa3bf81cc0000000000000000008513610cae577fffffffffffffffffffffffffffffffff00000000000000000000000000000000909301926f1152aaa3bf81cc0000000000000000006f8000000000000000000000000000000086020594505b6f2f16ac6c59de700000000000000000008513610d12577fffffffffffffffffffffffffffffffff80000000000000000000000000000000909301926f2f16ac6c59de700000000000000000006f8000000000000000000000000000000086020594505b6f4da2cbf1be58280000000000000000008513610d76577fffffffffffffffffffffffffffffffffc0000000000000000000000000000000909301926f4da2cbf1be58280000000000000000006f8000000000000000000000000000000086020594505b6f63afbe7ab2082c0000000000000000008513610dda577fffffffffffffffffffffffffffffffffe0000000000000000000000000000000909301926f63afbe7ab2082c0000000000000000006f8000000000000000000000000000000086020594505b6f70f5a893b608861e1f58934f97aea57d8513610e3e577ffffffffffffffffffffffffffffffffff0000000000000000000000000000000909301926f70f5a893b608861e1f58934f97aea57d6f8000000000000000000000000000000086020594505b7fffffffffffffffffffffffffffffffff80000000000000000000000000000000850192508291506f80000000000000000000000000000000828002059050700100000000000000000000000000000000838103830205840193506f8000000000000000000000000000000081830281610eb457fe5b059150700200000000000000000000000000000000836faaaaaaaaaaaaaaaaaaaaaaaaaaaaaaaa03830281610ee557fe5b05840193506f8000000000000000000000000000000081830281610f0557fe5b059150700300000000000000000000000000000000836f9999999999999999999999999999999903830281610f3657fe5b05840193506f8000000000000000000000000000000081830281610f5657fe5b059150700400000000000000000000000000000000836f9249249249249249249249249249249203830281610f8757fe5b05840193506f8000000000000000000000000000000081830281610fa757fe5b059150700500000000000000000000000000000000836f8e38e38e38e38e38e38e38e38e38e38e03830281610fd857fe5b05840193506f8000000000000000000000000000000081830281610ff857fe5b059150700600000000000000000000000000000000836f8ba2e8ba2e8ba2e8ba2e8ba2e8ba2e8b0383028161102957fe5b05840193506f800000000000000000000000000000008183028161104957fe5b059150700700000000000000000000000000000000836f89d89d89d89d89d89d89d89d89d89d890383028161107a57fe5b05840193506f800000000000000000000000000000008183028161109a57fe5b059150700800000000000000000000000000000000836f88888888888888888888888888888888038302816110cb57fe5b0584019350505050919050565b60007fffffffffffffffffffffffffffffffe01000000000000000000000000000000082121561110a57506000610973565b8161112657506f80000000000000000000000000000000610973565b6000821315611161576040517f08c379a00000000000000000000000000000000000000000000000000000000081526004016101a4906119bb565b6f800000000000000000000000000000006f1000000000000000000000000000000083078080028290056710e1b3be415a0000810293909301929091818302059050806705a0913f6b1e000002830192506f80000000000000000000000000000000828202816111cd57fe5b05905080670168244fdac7800002830192506f80000000000000000000000000000000828202816111fa57fe5b05905080664807432bc1800002830192506f800000000000000000000000000000008282028161122657fe5b05905080660c0135dca0400002830192506f800000000000000000000000000000008282028161125257fe5b059050806601b707b1cdc00002830192506f800000000000000000000000000000008282028161127e57fe5b059050806536e0f639b80002830192506f80000000000000000000000000000000828202816112a957fe5b05905080650618fee9f80002830192506f80000000000000000000000000000000828202816112d457fe5b05905080649c197dcc0002830192506f80000000000000000000000000000000828202816112fe57fe5b05905080640e30dce40002830192506f800000000000000000000000000000008282028161132857fe5b0590508064012ebd130002830192506f800000000000000000000000000000008282028161135257fe5b059050806317499f0002830192506f800000000000000000000000000000008282028161137b57fe5b059050806301a9d48002830192506f80000000000000000000000000000000828202816113a457fe5b05905080621c638002830192506f80000000000000000000000000000000828202816113cc57fe5b059050806201c63802830192506f80000000000000000000000000000000828202816113f457fe5b05905080611ab802830192506f800000000000000000000000000000008282028161141b57fe5b0590508061017c02830192506f800000000000000000000000000000008282028161144257fe5b05905080601402830192506f800000000000000000000000000000008282028161146857fe5b600095909503946721c3677c82b400009190059384010582016f80000000000000000000000000000000019290507010000000000000000000000000000000008416156114d7577243cbaf42a000812488fc5c220ad7b97bf6e99e6cf1aaddd7742e56d32fb9f9974484020592505b700800000000000000000000000000000000841615611519577105d27a9f51c31b7c2f8038212a05747799916e0afe10820813d65dfe6a33c07f738f84020592505b70040000000000000000000000000000000084161561155b57701b4c902e273a58678d6d3bfdb93db96d026f02582ab704279e8efd15e0265855c47a84020592505b70020000000000000000000000000000000084161561159d577003b1cc971a9bb5b9867477440d6d1577506f1152aaa3bf81cb9fdb76eae12d02957184020592505b7001000000000000000000000000000000008416156115df5770015bf0a8b1457695355fb8ac404e7a79e36f2f16ac6c59de6f8d5d6f63c1482a7c8684020592505b6f8000000000000000000000000000000084161561161f576fd3094c70f034de4b96ff7d5b6f99fcd86f4da2cbf1be5827f9eb3ad1aa9866ebb384020592505b6f4000000000000000000000000000000084161561165f576fa45af1e1f40c333b3de1db4dd55f29a76f63afbe7ab2082ba1a0ae5e4eb1b479dc84020592505b6f2000000000000000000000000000000084161561169f576f910b022db7ae67ce76b441c27035c6a16f70f5a893b608861e1f58934f97aea57d84020592505b6f100000000000000000000000000000008416156116df576f88415abbe9a76bead8d00cf112e4d4a86f783eafef1c0a8f3978c7f81824d62ebf84020592505b5050919050565b6f80000000000000000000000000000000900590565b604051806101800160405280600073ffffffffffffffffffffffffffffffffffffffff168152602001600073ffffffffffffffffffffffffffffffffffffffff168152602001600081526020016000815260200160008152602001600081526020016000815260200160008152602001600081526020016000815260200160008152602001600081525090565b60008060006060848603121561179d578283fd5b83356117a881611b62565b925060208401356117b881611b62565b929592945050506040919091013590565b6000602082840312156117da578081fd5b5035919050565b600080604083850312156117f3578182fd5b50508035926020909101359150565b948552602085019390935260408401919091526060830152608082015260a00190565b60208082526015908201527f496e76616c69642076616c756520666f722072686f0000000000000000000000604082015260600190565b60208082526013908201527f6c6e3a2076616c756520746f6f20736d616c6c00000000000000000000000000604082015260600190565b60208082526017908201527f496e76616c696420746f6b656e20616464726573736573000000000000000000604082015260600190565b60208082526038908201527f746f46697865642875696e742c75696e74293a2064656e6f6d696e61746f722060408201527f63616e6e6f74206265206c657373207468616e207a65726f0000000000000000606082015260800190565b60208082526013908201527f6c6e3a2076616c756520746f6f206c6172676500000000000000000000000000604082015260600190565b60208082526027908201527f746f46697865643a2076616c75652063616e6e6f74206265206c65737320746860408201527f616e207a65726f00000000000000000000000000000000000000000000000000606082015260800190565b60208082526014908201527f6578703a2076616c756520746f6f20736d616c6c000000000000000000000000604082015260600190565b6020808252600e908201527f5f6d756c3a206f766572666c6f77000000000000000000000000000000000000604082015260600190565b6020808252600e908201527f5f6164643a206f766572666c6f77000000000000000000000000000000000000604082015260600190565b60208082526014908201527f7375623a2076616c756520746f6f20736d616c6c000000000000000000000000604082015260600190565b60208082526036908201527f746f46697865642875696e742c75696e74293a206e756d657261746f7220636160408201527f6e6e6f74206265206c657373207468616e207a65726f00000000000000000000606082015260800190565b60208082526014908201527f5f6469763a20646976696465206279207a65726f000000000000000000000000604082015260600190565b6020808252600e908201527f5f6469763a206f766572666c6f77000000000000000000000000000000000000604082015260600190565b73ffffffffffffffffffffffffffffffffffffffff811681146100af57600080fdfea365627a7a723158201dda5aea4a6a56181900d3bcdaa3019a3151c1be41e2f661a24ca7126603beb76c6578706572696d656e74616cf564736f6c634300050d0040",
				"opcodes": "PUSH1 0x80 PUSH1 0x40 MSTORE PUSH2 0x1BC7 DUP1 PUSH2 0x13 PUSH1 0x0 CODECOPY PUSH1 0x0 RETURN INVALID PUSH1 0x80 PUSH1 0x40 MSTORE CALLVALUE DUP1 ISZERO PUSH2 0x10 JUMPI PUSH1 0x0 DUP1 REVERT JUMPDEST POP PUSH1 0x4 CALLDATASIZE LT PUSH2 0x67 JUMPI PUSH1 0x0 CALLDATALOAD PUSH1 0xE0 SHR DUP1 PUSH4 0x9C8F9F23 GT PUSH2 0x50 JUMPI DUP1 PUSH4 0x9C8F9F23 EQ PUSH2 0x6C JUMPI DUP1 PUSH4 0xA5843F08 EQ PUSH2 0x89 JUMPI DUP1 PUSH4 0xDF791E50 EQ PUSH2 0x9C JUMPI PUSH2 0x67 JUMP JUMPDEST DUP1 PUSH4 0x51C6590A EQ PUSH2 0x6C JUMPI DUP1 PUSH4 0x978CA36F EQ PUSH2 0x81 JUMPI JUMPDEST PUSH1 0x0 DUP1 REVERT JUMPDEST PUSH2 0x7F PUSH2 0x7A CALLDATASIZE PUSH1 0x4 PUSH2 0x17C9 JUMP JUMPDEST PUSH2 0xAF JUMP JUMPDEST STOP JUMPDEST PUSH2 0x7F PUSH2 0xB2 JUMP JUMPDEST PUSH2 0x7F PUSH2 0x97 CALLDATASIZE PUSH1 0x4 PUSH2 0x17E1 JUMP JUMPDEST PUSH2 0x168 JUMP JUMPDEST PUSH2 0x7F PUSH2 0xAA CALLDATASIZE PUSH1 0x4 PUSH2 0x1789 JUMP JUMPDEST PUSH2 0x1BE JUMP JUMPDEST POP JUMP JUMPDEST PUSH1 0x0 DUP1 SLOAD PUSH32 0xFFFFFFFFFFFFFFFFFFFFFFFF0000000000000000000000000000000000000000 SWAP1 DUP2 AND PUSH1 0x1 SWAP1 DUP2 OR SWAP1 SWAP3 SSTORE DUP2 SLOAD AND PUSH1 0x2 OR SWAP1 SSTORE PUSH2 0xF6 PUSH3 0x186A0 PUSH2 0x335 JUMP JUMPDEST PUSH1 0x2 SSTORE PUSH2 0x105 PUSH3 0x186A0 PUSH2 0x335 JUMP JUMPDEST PUSH1 0x3 SSTORE PUSH2 0x112 PUSH1 0x1 PUSH2 0x335 JUMP JUMPDEST PUSH1 0x4 SSTORE PUSH1 0x63 PUSH1 0x6 DUP2 SWAP1 SSTORE PUSH2 0x127 SWAP1 PUSH1 0x64 PUSH2 0x391 JUMP JUMPDEST PUSH1 0x7 SSTORE PUSH2 0x137 PUSH1 0x5 PUSH2 0x2710 PUSH2 0x391 JUMP JUMPDEST PUSH1 0x8 SSTORE PUSH1 0x0 SLOAD PUSH1 0x1 SLOAD PUSH2 0x166 SWAP2 PUSH20 0xFFFFFFFFFFFFFFFFFFFFFFFFFFFFFFFFFFFFFFFF SWAP1 DUP2 AND SWAP2 AND PUSH2 0x1F4 PUSH2 0x1BE JUMP JUMPDEST JUMP JUMPDEST DUP2 PUSH1 0x1 ADD DUP2 EQ PUSH2 0x1AD JUMPI PUSH1 0x40 MLOAD PUSH32 0x8C379A000000000000000000000000000000000000000000000000000000000 DUP2 MSTORE PUSH1 0x4 ADD PUSH2 0x1A4 SWAP1 PUSH2 0x1825 JUMP JUMPDEST PUSH1 0x40 MLOAD DUP1 SWAP2 SUB SWAP1 REVERT JUMPDEST PUSH2 0x1B7 DUP3 DUP3 PUSH2 0x391 JUMP JUMPDEST PUSH1 0x7 SSTORE POP POP JUMP JUMPDEST PUSH2 0x1C6 PUSH2 0x16FC JUMP JUMPDEST PUSH2 0x1CE PUSH2 0x432 JUMP JUMPDEST SWAP1 POP PUSH1 0x0 PUSH2 0x1DB DUP4 PUSH2 0x335 JUMP JUMPDEST DUP3 MLOAD SWAP1 SWAP2 POP PUSH1 0x0 SWAP1 DUP2 SWAP1 DUP2 SWAP1 DUP2 SWAP1 PUSH20 0xFFFFFFFFFFFFFFFFFFFFFFFFFFFFFFFFFFFFFFFF DUP11 DUP2 AND SWAP2 AND EQ DUP1 ISZERO PUSH2 0x23F JUMPI POP DUP6 PUSH1 0x20 ADD MLOAD PUSH20 0xFFFFFFFFFFFFFFFFFFFFFFFFFFFFFFFFFFFFFFFF AND DUP9 PUSH20 0xFFFFFFFFFFFFFFFFFFFFFFFFFFFFFFFFFFFFFFFF AND EQ JUMPDEST ISZERO PUSH2 0x25E JUMPI POP POP POP POP PUSH1 0x40 DUP3 ADD MLOAD PUSH1 0x60 DUP4 ADD MLOAD PUSH1 0x80 DUP5 ADD MLOAD PUSH1 0x1 PUSH2 0x307 JUMP JUMPDEST DUP6 PUSH1 0x20 ADD MLOAD PUSH20 0xFFFFFFFFFFFFFFFFFFFFFFFFFFFFFFFFFFFFFFFF AND DUP10 PUSH20 0xFFFFFFFFFFFFFFFFFFFFFFFFFFFFFFFFFFFFFFFF AND EQ DUP1 ISZERO PUSH2 0x2B6 JUMPI POP DUP6 MLOAD PUSH20 0xFFFFFFFFFFFFFFFFFFFFFFFFFFFFFFFFFFFFFFFF DUP10 DUP2 AND SWAP2 AND EQ JUMPDEST ISZERO PUSH2 0x2D5 JUMPI DUP6 PUSH1 0x60 ADD MLOAD SWAP4 POP DUP6 PUSH1 0x40 ADD MLOAD SWAP3 POP DUP6 PUSH1 0xA0 ADD MLOAD SWAP2 POP PUSH2 0x307 JUMP JUMPDEST PUSH1 0x40 MLOAD PUSH32 0x8C379A000000000000000000000000000000000000000000000000000000000 DUP2 MSTORE PUSH1 0x4 ADD PUSH2 0x1A4 SWAP1 PUSH2 0x1893 JUMP JUMPDEST PUSH1 0x0 PUSH2 0x316 DUP6 DUP6 DUP6 DUP10 DUP12 PUSH2 0x4C5 JUMP JUMPDEST SWAP1 POP POP POP POP POP POP POP POP PUSH2 0x330 JUMP JUMPDEST SWAP1 PUSH4 0xFFFFFFFF PUSH2 0x602 AND JUMP JUMPDEST POP POP POP JUMP JUMPDEST PUSH1 0x0 DUP1 DUP3 SLT ISZERO PUSH2 0x371 JUMPI PUSH1 0x40 MLOAD PUSH32 0x8C379A000000000000000000000000000000000000000000000000000000000 DUP2 MSTORE PUSH1 0x4 ADD PUSH2 0x1A4 SWAP1 PUSH2 0x195E JUMP JUMPDEST PUSH2 0x38B DUP3 PUSH16 0x80000000000000000000000000000000 PUSH2 0x661 JUMP JUMPDEST SWAP3 SWAP2 POP POP JUMP JUMPDEST PUSH1 0x0 DUP1 DUP4 SLT ISZERO PUSH2 0x3CD JUMPI PUSH1 0x40 MLOAD PUSH32 0x8C379A000000000000000000000000000000000000000000000000000000000 DUP2 MSTORE PUSH1 0x4 ADD PUSH2 0x1A4 SWAP1 PUSH2 0x1A97 JUMP JUMPDEST PUSH1 0x0 DUP3 SLT ISZERO PUSH2 0x408 JUMPI PUSH1 0x40 MLOAD PUSH32 0x8C379A000000000000000000000000000000000000000000000000000000000 DUP2 MSTORE PUSH1 0x4 ADD PUSH2 0x1A4 SWAP1 PUSH2 0x18CA JUMP JUMPDEST PUSH2 0x42B PUSH2 0x425 DUP5 PUSH16 0x80000000000000000000000000000000 PUSH2 0x661 JUMP JUMPDEST DUP4 PUSH2 0x6D7 JUMP JUMPDEST SWAP4 SWAP3 POP POP POP JUMP JUMPDEST PUSH2 0x43A PUSH2 0x16FC JUMP JUMPDEST POP PUSH1 0x40 DUP1 MLOAD PUSH2 0x180 DUP2 ADD DUP3 MSTORE PUSH1 0x0 SLOAD PUSH20 0xFFFFFFFFFFFFFFFFFFFFFFFFFFFFFFFFFFFFFFFF SWAP1 DUP2 AND DUP3 MSTORE PUSH1 0x1 SLOAD AND PUSH1 0x20 DUP3 ADD MSTORE PUSH1 0x2 SLOAD SWAP2 DUP2 ADD SWAP2 SWAP1 SWAP2 MSTORE PUSH1 0x3 SLOAD PUSH1 0x60 DUP3 ADD MSTORE PUSH1 0x4 SLOAD PUSH1 0x80 DUP3 ADD MSTORE PUSH1 0x5 SLOAD PUSH1 0xA0 DUP3 ADD MSTORE PUSH1 0x6 SLOAD PUSH1 0xC0 DUP3 ADD MSTORE PUSH1 0x7 SLOAD PUSH1 0xE0 DUP3 ADD MSTORE PUSH1 0x8 SLOAD PUSH2 0x100 DUP3 ADD MSTORE PUSH1 0x9 SLOAD PUSH2 0x120 DUP3 ADD MSTORE PUSH1 0xA SLOAD PUSH2 0x140 DUP3 ADD MSTORE PUSH1 0xC SLOAD PUSH2 0x160 DUP3 ADD MSTORE SWAP1 JUMP JUMPDEST PUSH1 0x0 DUP1 PUSH2 0x4D8 DUP8 DUP8 DUP8 DUP7 PUSH1 0xE0 ADD MLOAD PUSH2 0x7A6 JUMP JUMPDEST SWAP1 POP PUSH1 0x0 SWAP2 POP POP PUSH2 0x57C JUMP JUMPDEST DUP7 PUSH2 0x120 ADD MLOAD DUP2 LT ISZERO PUSH2 0x574 JUMPI PUSH1 0x0 PUSH2 0x4FD DUP6 DUP6 PUSH2 0x878 JUMP JUMPDEST SWAP1 POP PUSH1 0x0 PUSH2 0x519 PUSH2 0x514 DUP4 DUP14 PUSH4 0xFFFFFFFF PUSH2 0x8A0 AND JUMP JUMPDEST PUSH2 0x8C9 JUMP JUMPDEST SWAP1 POP PUSH1 0x0 PUSH2 0x550 PUSH2 0x530 DUP13 DUP6 PUSH4 0xFFFFFFFF PUSH2 0x602 AND JUMP JUMPDEST PUSH2 0x544 DUP6 PUSH2 0x324 DUP10 DUP8 PUSH4 0xFFFFFFFF PUSH2 0x602 AND JUMP JUMPDEST SWAP1 PUSH4 0xFFFFFFFF PUSH2 0x655 AND JUMP JUMPDEST SWAP1 POP DUP13 DUP2 SGT ISZERO PUSH2 0x562 JUMPI DUP3 SWAP6 POP PUSH2 0x566 JUMP JUMPDEST DUP3 SWAP7 POP JUMPDEST POP POP POP DUP1 PUSH1 0x1 ADD SWAP1 POP PUSH2 0x4E4 JUMP JUMPDEST POP SWAP2 SWAP4 POP POP POP POP JUMPDEST SWAP6 SWAP5 POP POP POP POP POP JUMP JUMPDEST PUSH16 0x80000000000000000000000000000000 SWAP1 JUMP JUMPDEST PUSH1 0x0 PUSH32 0x8000000000000000000000000000000000000000000000000000000000000000 DUP3 EQ ISZERO PUSH2 0x5F5 JUMPI PUSH1 0x40 MLOAD PUSH32 0x8C379A000000000000000000000000000000000000000000000000000000000 DUP2 MSTORE PUSH1 0x4 ADD PUSH2 0x1A4 SWAP1 PUSH2 0x1A60 JUMP JUMPDEST PUSH2 0x42B DUP4 DUP4 PUSH1 0x0 SUB PUSH2 0x978 JUMP JUMPDEST PUSH1 0x0 PUSH16 0x80000000000000000000000000000000 DUP3 ISZERO PUSH2 0x634 JUMPI POP PUSH6 0x10000000000 SWAP1 SWAP2 SDIV SWAP1 PUSH11 0x8000000000000000000000 JUMPDEST PUSH1 0x0 PUSH2 0x640 DUP6 DUP6 PUSH2 0x661 JUMP JUMPDEST SWAP1 POP DUP2 DUP2 DUP2 PUSH2 0x64B JUMPI INVALID JUMPDEST SDIV SWAP6 SWAP5 POP POP POP POP POP JUMP JUMPDEST PUSH1 0x0 PUSH2 0x42B DUP4 DUP4 PUSH2 0x978 JUMP JUMPDEST PUSH1 0x0 DUP3 ISZERO DUP1 PUSH2 0x66E JUMPI POP DUP2 ISZERO JUMPDEST ISZERO PUSH2 0x67B JUMPI POP PUSH1 0x0 PUSH2 0x38B JUMP JUMPDEST POP DUP2 DUP2 MUL DUP2 DUP4 DUP3 DUP2 PUSH2 0x689 JUMPI INVALID JUMPDEST SDIV EQ ISZERO DUP1 PUSH2 0x6A0 JUMPI POP DUP3 DUP3 DUP3 DUP2 PUSH2 0x69C JUMPI INVALID JUMPDEST SDIV EQ ISZERO JUMPDEST ISZERO PUSH2 0x38B JUMPI PUSH1 0x40 MLOAD PUSH32 0x8C379A000000000000000000000000000000000000000000000000000000000 DUP2 MSTORE PUSH1 0x4 ADD PUSH2 0x1A4 SWAP1 PUSH2 0x19F2 JUMP JUMPDEST PUSH1 0x0 DUP2 PUSH2 0x710 JUMPI PUSH1 0x40 MLOAD PUSH32 0x8C379A000000000000000000000000000000000000000000000000000000000 DUP2 MSTORE PUSH1 0x4 ADD PUSH2 0x1A4 SWAP1 PUSH2 0x1AF4 JUMP JUMPDEST PUSH32 0x8000000000000000000000000000000000000000000000000000000000000000 DUP4 EQ DUP1 ISZERO PUSH2 0x75E JUMPI POP DUP2 PUSH32 0xFFFFFFFFFFFFFFFFFFFFFFFFFFFFFFFFFFFFFFFFFFFFFFFFFFFFFFFFFFFFFFFF EQ JUMPDEST ISZERO PUSH2 0x795 JUMPI PUSH1 0x40 MLOAD PUSH32 0x8C379A000000000000000000000000000000000000000000000000000000000 DUP2 MSTORE PUSH1 0x4 ADD PUSH2 0x1A4 SWAP1 PUSH2 0x1B2B JUMP JUMPDEST DUP2 DUP4 DUP2 PUSH2 0x79E JUMPI INVALID JUMPDEST SDIV SWAP4 SWAP3 POP POP POP JUMP JUMPDEST PUSH1 0x0 DUP1 PUSH2 0x7C1 PUSH2 0x7B4 PUSH2 0x585 JUMP JUMPDEST DUP5 SWAP1 PUSH4 0xFFFFFFFF PUSH2 0x599 AND JUMP JUMPDEST SWAP1 POP PUSH1 0x0 PUSH2 0x7ED PUSH2 0x7E8 DUP8 PUSH2 0x7DC DUP9 DUP12 PUSH4 0xFFFFFFFF PUSH2 0x602 AND JUMP JUMPDEST SWAP1 PUSH4 0xFFFFFFFF PUSH2 0x8A0 AND JUMP JUMPDEST PUSH2 0x9EE JUMP JUMPDEST SWAP1 POP PUSH1 0x0 PUSH2 0x801 DUP4 DUP4 PUSH4 0xFFFFFFFF PUSH2 0x602 AND JUMP JUMPDEST SWAP1 POP PUSH1 0x0 PUSH2 0x80E DUP3 PUSH2 0x10D8 JUMP JUMPDEST SWAP1 POP PUSH1 0x0 PUSH2 0x822 DUP9 DUP4 PUSH4 0xFFFFFFFF PUSH2 0x602 AND JUMP JUMPDEST SWAP1 POP PUSH32 0x3CF9BD989028BFC957CA46FD34C8ED26F90D849442378EE442FCD56CF5CAC44F DUP11 DUP11 DUP11 DUP11 PUSH2 0x852 DUP7 PUSH2 0x16E6 JUMP JUMPDEST PUSH1 0x40 MLOAD PUSH2 0x863 SWAP6 SWAP5 SWAP4 SWAP3 SWAP2 SWAP1 PUSH2 0x1802 JUMP JUMPDEST PUSH1 0x40 MLOAD DUP1 SWAP2 SUB SWAP1 LOG1 SWAP10 SWAP9 POP POP POP POP POP POP POP POP POP JUMP JUMPDEST PUSH1 0x0 PUSH2 0x42B PUSH2 0x890 PUSH2 0x888 PUSH2 0x585 JUMP JUMPDEST PUSH2 0x544 PUSH2 0x585 JUMP JUMPDEST PUSH2 0x7DC DUP6 DUP6 PUSH4 0xFFFFFFFF PUSH2 0x655 AND JUMP JUMPDEST PUSH1 0x0 PUSH2 0x8BA PUSH2 0x425 DUP5 PUSH11 0x8000000000000000000000 PUSH2 0x661 JUMP JUMPDEST PUSH6 0x10000000000 MUL SWAP4 SWAP3 POP POP POP JUMP JUMPDEST PUSH1 0x0 DUP1 PUSH2 0x8DC DUP4 DUP1 PUSH4 0xFFFFFFFF PUSH2 0x602 AND JUMP JUMPDEST SWAP1 POP PUSH1 0x0 PUSH2 0x8F0 DUP5 DUP4 PUSH4 0xFFFFFFFF PUSH2 0x602 AND JUMP JUMPDEST SWAP1 POP PUSH1 0x0 PUSH2 0x904 DUP3 DUP1 PUSH4 0xFFFFFFFF PUSH2 0x602 AND JUMP JUMPDEST SWAP1 POP PUSH1 0x0 PUSH2 0x918 DUP3 DUP1 PUSH4 0xFFFFFFFF PUSH2 0x602 AND JUMP JUMPDEST SWAP1 POP PUSH1 0x0 PUSH2 0x92C DUP3 DUP1 PUSH4 0xFFFFFFFF PUSH2 0x602 AND JUMP JUMPDEST SWAP1 POP PUSH1 0x0 PUSH2 0x940 DUP3 DUP1 PUSH4 0xFFFFFFFF PUSH2 0x602 AND JUMP JUMPDEST SWAP1 POP PUSH1 0x0 PUSH2 0x954 DUP3 DUP1 PUSH4 0xFFFFFFFF PUSH2 0x602 AND JUMP JUMPDEST SWAP1 POP PUSH1 0x0 PUSH2 0x968 DUP3 DUP9 PUSH4 0xFFFFFFFF PUSH2 0x602 AND JUMP JUMPDEST SWAP9 POP POP POP POP POP POP POP POP POP JUMPDEST SWAP2 SWAP1 POP JUMP JUMPDEST DUP2 DUP2 ADD PUSH1 0x0 DUP4 SLT DUP1 ISZERO PUSH2 0x98B JUMPI POP PUSH1 0x0 DUP3 SLT JUMPDEST DUP1 ISZERO PUSH2 0x996 JUMPI POP DUP3 DUP2 SGT JUMPDEST DUP1 PUSH2 0x9B7 JUMPI POP PUSH1 0x0 DUP4 SGT DUP1 ISZERO PUSH2 0x9AC JUMPI POP PUSH1 0x0 DUP3 SGT JUMPDEST DUP1 ISZERO PUSH2 0x9B7 JUMPI POP DUP3 DUP2 SLT JUMPDEST ISZERO PUSH2 0x38B JUMPI PUSH1 0x40 MLOAD PUSH32 0x8C379A000000000000000000000000000000000000000000000000000000000 DUP2 MSTORE PUSH1 0x4 ADD PUSH2 0x1A4 SWAP1 PUSH2 0x1A29 JUMP JUMPDEST PUSH1 0x0 PUSH16 0x80000000000000000000000000000000 DUP3 SGT ISZERO PUSH2 0xA3A JUMPI PUSH1 0x40 MLOAD PUSH32 0x8C379A000000000000000000000000000000000000000000000000000000000 DUP2 MSTORE PUSH1 0x4 ADD PUSH2 0x1A4 SWAP1 PUSH2 0x1927 JUMP JUMPDEST PUSH1 0x0 DUP3 SGT PUSH2 0xA74 JUMPI PUSH1 0x40 MLOAD PUSH32 0x8C379A000000000000000000000000000000000000000000000000000000000 DUP2 MSTORE PUSH1 0x4 ADD PUSH2 0x1A4 SWAP1 PUSH2 0x185C JUMP JUMPDEST PUSH16 0x80000000000000000000000000000000 DUP3 EQ ISZERO PUSH2 0xA94 JUMPI POP PUSH1 0x0 PUSH2 0x973 JUMP JUMPDEST PUSH5 0x733048C5A DUP3 SGT PUSH2 0xAC7 JUMPI POP PUSH32 0xFFFFFFFFFFFFFFFFFFFFFFFFFFFFFFE010000000000000000000000000000000 PUSH2 0x973 JUMP JUMPDEST PUSH1 0x0 DUP1 PUSH1 0x0 PUSH11 0x1C8464F76164760000000 DUP6 SGT PUSH2 0xB26 JUMPI PUSH32 0xFFFFFFFFFFFFFFFFFFFFFFFFFFFFFFF000000000000000000000000000000000 SWAP1 SWAP4 ADD SWAP3 PUSH11 0x1C8464F76164760000000 PUSH16 0x80000000000000000000000000000000 DUP7 MUL SDIV SWAP5 POP JUMPDEST PUSH13 0xF1AADDD7742E90000000000000 DUP6 SGT PUSH2 0xB84 JUMPI PUSH32 0xFFFFFFFFFFFFFFFFFFFFFFFFFFFFFFF800000000000000000000000000000000 SWAP1 SWAP4 ADD SWAP3 PUSH13 0xF1AADDD7742E90000000000000 PUSH16 0x80000000000000000000000000000000 DUP7 MUL SDIV SWAP5 POP JUMPDEST PUSH15 0xAFE10820813D78000000000000000 DUP6 SGT PUSH2 0xBE6 JUMPI PUSH32 0xFFFFFFFFFFFFFFFFFFFFFFFFFFFFFFFC00000000000000000000000000000000 SWAP1 SWAP4 ADD SWAP3 PUSH15 0xAFE10820813D78000000000000000 PUSH16 0x80000000000000000000000000000000 DUP7 MUL SDIV SWAP5 POP JUMPDEST PUSH16 0x2582AB704279EC00000000000000000 DUP6 SGT PUSH2 0xC4A JUMPI PUSH32 0xFFFFFFFFFFFFFFFFFFFFFFFFFFFFFFFE00000000000000000000000000000000 SWAP1 SWAP4 ADD SWAP3 PUSH16 0x2582AB704279EC00000000000000000 PUSH16 0x80000000000000000000000000000000 DUP7 MUL SDIV SWAP5 POP JUMPDEST PUSH16 0x1152AAA3BF81CC000000000000000000 DUP6 SGT PUSH2 0xCAE JUMPI PUSH32 0xFFFFFFFFFFFFFFFFFFFFFFFFFFFFFFFF00000000000000000000000000000000 SWAP1 SWAP4 ADD SWAP3 PUSH16 0x1152AAA3BF81CC000000000000000000 PUSH16 0x80000000000000000000000000000000 DUP7 MUL SDIV SWAP5 POP JUMPDEST PUSH16 0x2F16AC6C59DE70000000000000000000 DUP6 SGT PUSH2 0xD12 JUMPI PUSH32 0xFFFFFFFFFFFFFFFFFFFFFFFFFFFFFFFF80000000000000000000000000000000 SWAP1 SWAP4 ADD SWAP3 PUSH16 0x2F16AC6C59DE70000000000000000000 PUSH16 0x80000000000000000000000000000000 DUP7 MUL SDIV SWAP5 POP JUMPDEST PUSH16 0x4DA2CBF1BE5828000000000000000000 DUP6 SGT PUSH2 0xD76 JUMPI PUSH32 0xFFFFFFFFFFFFFFFFFFFFFFFFFFFFFFFFC0000000000000000000000000000000 SWAP1 SWAP4 ADD SWAP3 PUSH16 0x4DA2CBF1BE5828000000000000000000 PUSH16 0x80000000000000000000000000000000 DUP7 MUL SDIV SWAP5 POP JUMPDEST PUSH16 0x63AFBE7AB2082C000000000000000000 DUP6 SGT PUSH2 0xDDA JUMPI PUSH32 0xFFFFFFFFFFFFFFFFFFFFFFFFFFFFFFFFE0000000000000000000000000000000 SWAP1 SWAP4 ADD SWAP3 PUSH16 0x63AFBE7AB2082C000000000000000000 PUSH16 0x80000000000000000000000000000000 DUP7 MUL SDIV SWAP5 POP JUMPDEST PUSH16 0x70F5A893B608861E1F58934F97AEA57D DUP6 SGT PUSH2 0xE3E JUMPI PUSH32 0xFFFFFFFFFFFFFFFFFFFFFFFFFFFFFFFFF0000000000000000000000000000000 SWAP1 SWAP4 ADD SWAP3 PUSH16 0x70F5A893B608861E1F58934F97AEA57D PUSH16 0x80000000000000000000000000000000 DUP7 MUL SDIV SWAP5 POP JUMPDEST PUSH32 0xFFFFFFFFFFFFFFFFFFFFFFFFFFFFFFFF80000000000000000000000000000000 DUP6 ADD SWAP3 POP DUP3 SWAP2 POP PUSH16 0x80000000000000000000000000000000 DUP3 DUP1 MUL SDIV SWAP1 POP PUSH17 0x100000000000000000000000000000000 DUP4 DUP2 SUB DUP4 MUL SDIV DUP5 ADD SWAP4 POP PUSH16 0x80000000000000000000000000000000 DUP2 DUP4 MUL DUP2 PUSH2 0xEB4 JUMPI INVALID JUMPDEST SDIV SWAP2 POP PUSH17 0x200000000000000000000000000000000 DUP4 PUSH16 0xAAAAAAAAAAAAAAAAAAAAAAAAAAAAAAAA SUB DUP4 MUL DUP2 PUSH2 0xEE5 JUMPI INVALID JUMPDEST SDIV DUP5 ADD SWAP4 POP PUSH16 0x80000000000000000000000000000000 DUP2 DUP4 MUL DUP2 PUSH2 0xF05 JUMPI INVALID JUMPDEST SDIV SWAP2 POP PUSH17 0x300000000000000000000000000000000 DUP4 PUSH16 0x99999999999999999999999999999999 SUB DUP4 MUL DUP2 PUSH2 0xF36 JUMPI INVALID JUMPDEST SDIV DUP5 ADD SWAP4 POP PUSH16 0x80000000000000000000000000000000 DUP2 DUP4 MUL DUP2 PUSH2 0xF56 JUMPI INVALID JUMPDEST SDIV SWAP2 POP PUSH17 0x400000000000000000000000000000000 DUP4 PUSH16 0x92492492492492492492492492492492 SUB DUP4 MUL DUP2 PUSH2 0xF87 JUMPI INVALID JUMPDEST SDIV DUP5 ADD SWAP4 POP PUSH16 0x80000000000000000000000000000000 DUP2 DUP4 MUL DUP2 PUSH2 0xFA7 JUMPI INVALID JUMPDEST SDIV SWAP2 POP PUSH17 0x500000000000000000000000000000000 DUP4 PUSH16 0x8E38E38E38E38E38E38E38E38E38E38E SUB DUP4 MUL DUP2 PUSH2 0xFD8 JUMPI INVALID JUMPDEST SDIV DUP5 ADD SWAP4 POP PUSH16 0x80000000000000000000000000000000 DUP2 DUP4 MUL DUP2 PUSH2 0xFF8 JUMPI INVALID JUMPDEST SDIV SWAP2 POP PUSH17 0x600000000000000000000000000000000 DUP4 PUSH16 0x8BA2E8BA2E8BA2E8BA2E8BA2E8BA2E8B SUB DUP4 MUL DUP2 PUSH2 0x1029 JUMPI INVALID JUMPDEST SDIV DUP5 ADD SWAP4 POP PUSH16 0x80000000000000000000000000000000 DUP2 DUP4 MUL DUP2 PUSH2 0x1049 JUMPI INVALID JUMPDEST SDIV SWAP2 POP PUSH17 0x700000000000000000000000000000000 DUP4 PUSH16 0x89D89D89D89D89D89D89D89D89D89D89 SUB DUP4 MUL DUP2 PUSH2 0x107A JUMPI INVALID JUMPDEST SDIV DUP5 ADD SWAP4 POP PUSH16 0x80000000000000000000000000000000 DUP2 DUP4 MUL DUP2 PUSH2 0x109A JUMPI INVALID JUMPDEST SDIV SWAP2 POP PUSH17 0x800000000000000000000000000000000 DUP4 PUSH16 0x88888888888888888888888888888888 SUB DUP4 MUL DUP2 PUSH2 0x10CB JUMPI INVALID JUMPDEST SDIV DUP5 ADD SWAP4 POP POP POP POP SWAP2 SWAP1 POP JUMP JUMPDEST PUSH1 0x0 PUSH32 0xFFFFFFFFFFFFFFFFFFFFFFFFFFFFFFE010000000000000000000000000000000 DUP3 SLT ISZERO PUSH2 0x110A JUMPI POP PUSH1 0x0 PUSH2 0x973 JUMP JUMPDEST DUP2 PUSH2 0x1126 JUMPI POP PUSH16 0x80000000000000000000000000000000 PUSH2 0x973 JUMP JUMPDEST PUSH1 0x0 DUP3 SGT ISZERO PUSH2 0x1161 JUMPI PUSH1 0x40 MLOAD PUSH32 0x8C379A000000000000000000000000000000000000000000000000000000000 DUP2 MSTORE PUSH1 0x4 ADD PUSH2 0x1A4 SWAP1 PUSH2 0x19BB JUMP JUMPDEST PUSH16 0x80000000000000000000000000000000 PUSH16 0x10000000000000000000000000000000 DUP4 SMOD DUP1 DUP1 MUL DUP3 SWAP1 SDIV PUSH8 0x10E1B3BE415A0000 DUP2 MUL SWAP4 SWAP1 SWAP4 ADD SWAP3 SWAP1 SWAP2 DUP2 DUP4 MUL SDIV SWAP1 POP DUP1 PUSH8 0x5A0913F6B1E0000 MUL DUP4 ADD SWAP3 POP PUSH16 0x80000000000000000000000000000000 DUP3 DUP3 MUL DUP2 PUSH2 0x11CD JUMPI INVALID JUMPDEST SDIV SWAP1 POP DUP1 PUSH8 0x168244FDAC78000 MUL DUP4 ADD SWAP3 POP PUSH16 0x80000000000000000000000000000000 DUP3 DUP3 MUL DUP2 PUSH2 0x11FA JUMPI INVALID JUMPDEST SDIV SWAP1 POP DUP1 PUSH7 0x4807432BC18000 MUL DUP4 ADD SWAP3 POP PUSH16 0x80000000000000000000000000000000 DUP3 DUP3 MUL DUP2 PUSH2 0x1226 JUMPI INVALID JUMPDEST SDIV SWAP1 POP DUP1 PUSH7 0xC0135DCA04000 MUL DUP4 ADD SWAP3 POP PUSH16 0x80000000000000000000000000000000 DUP3 DUP3 MUL DUP2 PUSH2 0x1252 JUMPI INVALID JUMPDEST SDIV SWAP1 POP DUP1 PUSH7 0x1B707B1CDC000 MUL DUP4 ADD SWAP3 POP PUSH16 0x80000000000000000000000000000000 DUP3 DUP3 MUL DUP2 PUSH2 0x127E JUMPI INVALID JUMPDEST SDIV SWAP1 POP DUP1 PUSH6 0x36E0F639B800 MUL DUP4 ADD SWAP3 POP PUSH16 0x80000000000000000000000000000000 DUP3 DUP3 MUL DUP2 PUSH2 0x12A9 JUMPI INVALID JUMPDEST SDIV SWAP1 POP DUP1 PUSH6 0x618FEE9F800 MUL DUP4 ADD SWAP3 POP PUSH16 0x80000000000000000000000000000000 DUP3 DUP3 MUL DUP2 PUSH2 0x12D4 JUMPI INVALID JUMPDEST SDIV SWAP1 POP DUP1 PUSH5 0x9C197DCC00 MUL DUP4 ADD SWAP3 POP PUSH16 0x80000000000000000000000000000000 DUP3 DUP3 MUL DUP2 PUSH2 0x12FE JUMPI INVALID JUMPDEST SDIV SWAP1 POP DUP1 PUSH5 0xE30DCE400 MUL DUP4 ADD SWAP3 POP PUSH16 0x80000000000000000000000000000000 DUP3 DUP3 MUL DUP2 PUSH2 0x1328 JUMPI INVALID JUMPDEST SDIV SWAP1 POP DUP1 PUSH5 0x12EBD1300 MUL DUP4 ADD SWAP3 POP PUSH16 0x80000000000000000000000000000000 DUP3 DUP3 MUL DUP2 PUSH2 0x1352 JUMPI INVALID JUMPDEST SDIV SWAP1 POP DUP1 PUSH4 0x17499F00 MUL DUP4 ADD SWAP3 POP PUSH16 0x80000000000000000000000000000000 DUP3 DUP3 MUL DUP2 PUSH2 0x137B JUMPI INVALID JUMPDEST SDIV SWAP1 POP DUP1 PUSH4 0x1A9D480 MUL DUP4 ADD SWAP3 POP PUSH16 0x80000000000000000000000000000000 DUP3 DUP3 MUL DUP2 PUSH2 0x13A4 JUMPI INVALID JUMPDEST SDIV SWAP1 POP DUP1 PUSH3 0x1C6380 MUL DUP4 ADD SWAP3 POP PUSH16 0x80000000000000000000000000000000 DUP3 DUP3 MUL DUP2 PUSH2 0x13CC JUMPI INVALID JUMPDEST SDIV SWAP1 POP DUP1 PUSH3 0x1C638 MUL DUP4 ADD SWAP3 POP PUSH16 0x80000000000000000000000000000000 DUP3 DUP3 MUL DUP2 PUSH2 0x13F4 JUMPI INVALID JUMPDEST SDIV SWAP1 POP DUP1 PUSH2 0x1AB8 MUL DUP4 ADD SWAP3 POP PUSH16 0x80000000000000000000000000000000 DUP3 DUP3 MUL DUP2 PUSH2 0x141B JUMPI INVALID JUMPDEST SDIV SWAP1 POP DUP1 PUSH2 0x17C MUL DUP4 ADD SWAP3 POP PUSH16 0x80000000000000000000000000000000 DUP3 DUP3 MUL DUP2 PUSH2 0x1442 JUMPI INVALID JUMPDEST SDIV SWAP1 POP DUP1 PUSH1 0x14 MUL DUP4 ADD SWAP3 POP PUSH16 0x80000000000000000000000000000000 DUP3 DUP3 MUL DUP2 PUSH2 0x1468 JUMPI INVALID JUMPDEST PUSH1 0x0 SWAP6 SWAP1 SWAP6 SUB SWAP5 PUSH8 0x21C3677C82B40000 SWAP2 SWAP1 SDIV SWAP4 DUP5 ADD SDIV DUP3 ADD PUSH16 0x80000000000000000000000000000000 ADD SWAP3 SWAP1 POP PUSH17 0x1000000000000000000000000000000000 DUP5 AND ISZERO PUSH2 0x14D7 JUMPI PUSH19 0x43CBAF42A000812488FC5C220AD7B97BF6E99E PUSH13 0xF1AADDD7742E56D32FB9F99744 DUP5 MUL SDIV SWAP3 POP JUMPDEST PUSH17 0x800000000000000000000000000000000 DUP5 AND ISZERO PUSH2 0x1519 JUMPI PUSH18 0x5D27A9F51C31B7C2F8038212A0574779991 PUSH15 0xAFE10820813D65DFE6A33C07F738F DUP5 MUL SDIV SWAP3 POP JUMPDEST PUSH17 0x400000000000000000000000000000000 DUP5 AND ISZERO PUSH2 0x155B JUMPI PUSH17 0x1B4C902E273A58678D6D3BFDB93DB96D02 PUSH16 0x2582AB704279E8EFD15E0265855C47A DUP5 MUL SDIV SWAP3 POP JUMPDEST PUSH17 0x200000000000000000000000000000000 DUP5 AND ISZERO PUSH2 0x159D JUMPI PUSH17 0x3B1CC971A9BB5B9867477440D6D157750 PUSH16 0x1152AAA3BF81CB9FDB76EAE12D029571 DUP5 MUL SDIV SWAP3 POP JUMPDEST PUSH17 0x100000000000000000000000000000000 DUP5 AND ISZERO PUSH2 0x15DF JUMPI PUSH17 0x15BF0A8B1457695355FB8AC404E7A79E3 PUSH16 0x2F16AC6C59DE6F8D5D6F63C1482A7C86 DUP5 MUL SDIV SWAP3 POP JUMPDEST PUSH16 0x80000000000000000000000000000000 DUP5 AND ISZERO PUSH2 0x161F JUMPI PUSH16 0xD3094C70F034DE4B96FF7D5B6F99FCD8 PUSH16 0x4DA2CBF1BE5827F9EB3AD1AA9866EBB3 DUP5 MUL SDIV SWAP3 POP JUMPDEST PUSH16 0x40000000000000000000000000000000 DUP5 AND ISZERO PUSH2 0x165F JUMPI PUSH16 0xA45AF1E1F40C333B3DE1DB4DD55F29A7 PUSH16 0x63AFBE7AB2082BA1A0AE5E4EB1B479DC DUP5 MUL SDIV SWAP3 POP JUMPDEST PUSH16 0x20000000000000000000000000000000 DUP5 AND ISZERO PUSH2 0x169F JUMPI PUSH16 0x910B022DB7AE67CE76B441C27035C6A1 PUSH16 0x70F5A893B608861E1F58934F97AEA57D DUP5 MUL SDIV SWAP3 POP JUMPDEST PUSH16 0x10000000000000000000000000000000 DUP5 AND ISZERO PUSH2 0x16DF JUMPI PUSH16 0x88415ABBE9A76BEAD8D00CF112E4D4A8 PUSH16 0x783EAFEF1C0A8F3978C7F81824D62EBF DUP5 MUL SDIV SWAP3 POP JUMPDEST POP POP SWAP2 SWAP1 POP JUMP JUMPDEST PUSH16 0x80000000000000000000000000000000 SWAP1 SDIV SWAP1 JUMP JUMPDEST PUSH1 0x40 MLOAD DUP1 PUSH2 0x180 ADD PUSH1 0x40 MSTORE DUP1 PUSH1 0x0 PUSH20 0xFFFFFFFFFFFFFFFFFFFFFFFFFFFFFFFFFFFFFFFF AND DUP2 MSTORE PUSH1 0x20 ADD PUSH1 0x0 PUSH20 0xFFFFFFFFFFFFFFFFFFFFFFFFFFFFFFFFFFFFFFFF AND DUP2 MSTORE PUSH1 0x20 ADD PUSH1 0x0 DUP2 MSTORE PUSH1 0x20 ADD PUSH1 0x0 DUP2 MSTORE PUSH1 0x20 ADD PUSH1 0x0 DUP2 MSTORE PUSH1 0x20 ADD PUSH1 0x0 DUP2 MSTORE PUSH1 0x20 ADD PUSH1 0x0 DUP2 MSTORE PUSH1 0x20 ADD PUSH1 0x0 DUP2 MSTORE PUSH1 0x20 ADD PUSH1 0x0 DUP2 MSTORE PUSH1 0x20 ADD PUSH1 0x0 DUP2 MSTORE PUSH1 0x20 ADD PUSH1 0x0 DUP2 MSTORE PUSH1 0x20 ADD PUSH1 0x0 DUP2 MSTORE POP SWAP1 JUMP JUMPDEST PUSH1 0x0 DUP1 PUSH1 0x0 PUSH1 0x60 DUP5 DUP7 SUB SLT ISZERO PUSH2 0x179D JUMPI DUP3 DUP4 REVERT JUMPDEST DUP4 CALLDATALOAD PUSH2 0x17A8 DUP2 PUSH2 0x1B62 JUMP JUMPDEST SWAP3 POP PUSH1 0x20 DUP5 ADD CALLDATALOAD PUSH2 0x17B8 DUP2 PUSH2 0x1B62 JUMP JUMPDEST SWAP3 SWAP6 SWAP3 SWAP5 POP POP POP PUSH1 0x40 SWAP2 SWAP1 SWAP2 ADD CALLDATALOAD SWAP1 JUMP JUMPDEST PUSH1 0x0 PUSH1 0x20 DUP3 DUP5 SUB SLT ISZERO PUSH2 0x17DA JUMPI DUP1 DUP2 REVERT JUMPDEST POP CALLDATALOAD SWAP2 SWAP1 POP JUMP JUMPDEST PUSH1 0x0 DUP1 PUSH1 0x40 DUP4 DUP6 SUB SLT ISZERO PUSH2 0x17F3 JUMPI DUP2 DUP3 REVERT JUMPDEST POP POP DUP1 CALLDATALOAD SWAP3 PUSH1 0x20 SWAP1 SWAP2 ADD CALLDATALOAD SWAP2 POP JUMP JUMPDEST SWAP5 DUP6 MSTORE PUSH1 0x20 DUP6 ADD SWAP4 SWAP1 SWAP4 MSTORE PUSH1 0x40 DUP5 ADD SWAP2 SWAP1 SWAP2 MSTORE PUSH1 0x60 DUP4 ADD MSTORE PUSH1 0x80 DUP3 ADD MSTORE PUSH1 0xA0 ADD SWAP1 JUMP JUMPDEST PUSH1 0x20 DUP1 DUP3 MSTORE PUSH1 0x15 SWAP1 DUP3 ADD MSTORE PUSH32 0x496E76616C69642076616C756520666F722072686F0000000000000000000000 PUSH1 0x40 DUP3 ADD MSTORE PUSH1 0x60 ADD SWAP1 JUMP JUMPDEST PUSH1 0x20 DUP1 DUP3 MSTORE PUSH1 0x13 SWAP1 DUP3 ADD MSTORE PUSH32 0x6C6E3A2076616C756520746F6F20736D616C6C00000000000000000000000000 PUSH1 0x40 DUP3 ADD MSTORE PUSH1 0x60 ADD SWAP1 JUMP JUMPDEST PUSH1 0x20 DUP1 DUP3 MSTORE PUSH1 0x17 SWAP1 DUP3 ADD MSTORE PUSH32 0x496E76616C696420746F6B656E20616464726573736573000000000000000000 PUSH1 0x40 DUP3 ADD MSTORE PUSH1 0x60 ADD SWAP1 JUMP JUMPDEST PUSH1 0x20 DUP1 DUP3 MSTORE PUSH1 0x38 SWAP1 DUP3 ADD MSTORE PUSH32 0x746F46697865642875696E742C75696E74293A2064656E6F6D696E61746F7220 PUSH1 0x40 DUP3 ADD MSTORE PUSH32 0x63616E6E6F74206265206C657373207468616E207A65726F0000000000000000 PUSH1 0x60 DUP3 ADD MSTORE PUSH1 0x80 ADD SWAP1 JUMP JUMPDEST PUSH1 0x20 DUP1 DUP3 MSTORE PUSH1 0x13 SWAP1 DUP3 ADD MSTORE PUSH32 0x6C6E3A2076616C756520746F6F206C6172676500000000000000000000000000 PUSH1 0x40 DUP3 ADD MSTORE PUSH1 0x60 ADD SWAP1 JUMP JUMPDEST PUSH1 0x20 DUP1 DUP3 MSTORE PUSH1 0x27 SWAP1 DUP3 ADD MSTORE PUSH32 0x746F46697865643A2076616C75652063616E6E6F74206265206C657373207468 PUSH1 0x40 DUP3 ADD MSTORE PUSH32 0x616E207A65726F00000000000000000000000000000000000000000000000000 PUSH1 0x60 DUP3 ADD MSTORE PUSH1 0x80 ADD SWAP1 JUMP JUMPDEST PUSH1 0x20 DUP1 DUP3 MSTORE PUSH1 0x14 SWAP1 DUP3 ADD MSTORE PUSH32 0x6578703A2076616C756520746F6F20736D616C6C000000000000000000000000 PUSH1 0x40 DUP3 ADD MSTORE PUSH1 0x60 ADD SWAP1 JUMP JUMPDEST PUSH1 0x20 DUP1 DUP3 MSTORE PUSH1 0xE SWAP1 DUP3 ADD MSTORE PUSH32 0x5F6D756C3A206F766572666C6F77000000000000000000000000000000000000 PUSH1 0x40 DUP3 ADD MSTORE PUSH1 0x60 ADD SWAP1 JUMP JUMPDEST PUSH1 0x20 DUP1 DUP3 MSTORE PUSH1 0xE SWAP1 DUP3 ADD MSTORE PUSH32 0x5F6164643A206F766572666C6F77000000000000000000000000000000000000 PUSH1 0x40 DUP3 ADD MSTORE PUSH1 0x60 ADD SWAP1 JUMP JUMPDEST PUSH1 0x20 DUP1 DUP3 MSTORE PUSH1 0x14 SWAP1 DUP3 ADD MSTORE PUSH32 0x7375623A2076616C756520746F6F20736D616C6C000000000000000000000000 PUSH1 0x40 DUP3 ADD MSTORE PUSH1 0x60 ADD SWAP1 JUMP JUMPDEST PUSH1 0x20 DUP1 DUP3 MSTORE PUSH1 0x36 SWAP1 DUP3 ADD MSTORE PUSH32 0x746F46697865642875696E742C75696E74293A206E756D657261746F72206361 PUSH1 0x40 DUP3 ADD MSTORE PUSH32 0x6E6E6F74206265206C657373207468616E207A65726F00000000000000000000 PUSH1 0x60 DUP3 ADD MSTORE PUSH1 0x80 ADD SWAP1 JUMP JUMPDEST PUSH1 0x20 DUP1 DUP3 MSTORE PUSH1 0x14 SWAP1 DUP3 ADD MSTORE PUSH32 0x5F6469763A20646976696465206279207A65726F000000000000000000000000 PUSH1 0x40 DUP3 ADD MSTORE PUSH1 0x60 ADD SWAP1 JUMP JUMPDEST PUSH1 0x20 DUP1 DUP3 MSTORE PUSH1 0xE SWAP1 DUP3 ADD MSTORE PUSH32 0x5F6469763A206F766572666C6F77000000000000000000000000000000000000 PUSH1 0x40 DUP3 ADD MSTORE PUSH1 0x60 ADD SWAP1 JUMP JUMPDEST PUSH20 0xFFFFFFFFFFFFFFFFFFFFFFFFFFFFFFFFFFFFFFFF DUP2 AND DUP2 EQ PUSH2 0xAF JUMPI PUSH1 0x0 DUP1 REVERT INVALID LOG3 PUSH6 0x627A7A723158 KECCAK256 SAR 0xDA GAS 0xEA 0x4A PUSH11 0x56181900D3BCDAA3019A31 MLOAD 0xC1 0xBE COINBASE 0xE2 0xF6 PUSH2 0xA24C 0xA7 SLT PUSH7 0x3BEB76C657870 PUSH6 0x72696D656E74 PUSH2 0x6CF5 PUSH5 0x736F6C6343 STOP SDIV 0xD STOP BLOCKHASH "
			}
		}
	},
	"sourceTreeHashHex": "0xfbb63e2a2a94e87b6e0c7500c6b6c9ede758f9d93135143557970b5dd9e2ee00",
	"compiler": {
		"name": "solc",
		"version": "soljson-v0.5.13+commit.5b0b510c.js",
		"settings": {
			"optimizer": {
				"enabled": true,
				"runs": 1000000,
				"details": {
					"yul": true,
					"deduplicate": true,
					"cse": true,
					"constantOptimizer": true
				}
			},
			"outputSelection": {
				"*": {
					"*": [
						"abi",
						"devdoc",
						"evm.bytecode.object",
						"evm.bytecode.sourceMap",
						"evm.deployedBytecode.object",
						"evm.deployedBytecode.sourceMap"
					]
				}
			},
			"evmVersion": "constantinople",
			"remappings": []
		}
	},
	"chains": {}
}